:100000000C9464000C948C000C948C000C94B6142A
:100010000C94B6140C94B6140C948C000C947312BB
:100020000C948C000C948C000C948C000C948C0020
:100030000C948C000C948C000C948C000C948C0010
:100040000C944D130C948C000C941B130C94F5120F
:100050000C948C000C948C000C948C000C948C00F0
:100060000C9497130C948C000000000024002700CF
:100070002A0002000000080002010000030407003B
:1000800000000000000000000000002300260029FE
:100090000000000000250028002B000404040404D4
:1000A0000404040202020202020303030303030125
:1000B00002040810204080010204081020010204FC
:1000C000081020002E15241F11241FBECFEFD8E0EA
:1000D000DEBFCDBF26E0ACE6B3E001C01D92A43385
:1000E000B207E1F713E0A0E0B1E0E4E4F4E402C019
:1000F00005900D92AC36B107D9F710E0C3E6D0E019
:1001000004C02197FE010E94F21FC236D107C9F731
:100110000E94A0160C9415220C9400008F929F92BE
:10012000AF92BF92CF92DF92EF92FF920F931F9305
:10013000FC014B01AA24BB24C52ED62EE72EFF249A
:10014000BC2DA42F9091F605B82C992391F0A92FDE
:10015000B0E0A89D9001A99D300DB89D300D1124EF
:10016000B32E9C9D60011124BD2D949F800111240C
:10017000A12F4091FC052091F7053091F805809161
:10018000F905481324C0CF01880F991F8E0F9F1FB8
:10019000820F931FE091F905E80FF92FF11DB0824E
:1001A000E091FA05E80FF92FF11DB0832091FB05CE
:1001B000820F911DFC01A0831F910F91FF90EF9082
:1001C000DF90CF90BF90AF909F908F900895CF0118
:1001D000880F991F880F991F820F931FFC01E40F4E
:1001E000F11D1082D7CF2091790481E0213208F0EF
:1001F00044C0809155048111FCCF8091780492E035
:100200009093550491E0909354049FEF909353047E
:100210001092520420935104A8E5B4E0E1E3F4E025
:1002200090E0291331C01092300490913004880F6F
:10023000892B8093300480912F04813049F51092EE
:100240002F04809130048093BB008091BC0083FD1B
:10025000F8CF85EC8093BC00809155048230E1F3A7
:10026000809153048F3FB1F0809153048032A1F00C
:1002700080915304803391F084E0109257041092DF
:1002800079041092560408953D9131939F5FC9CF30
:1002900085EEE0CF80E0F1CF82E0EFCF83E0EDCFDD
:1002A000909155049111FCCF91E090935504909357
:1002B00054042FEF2093530410925204260F2093DE
:1002C00051049093300490913004880F892B8093CF
:1002D000300480912F048130F9F410922F04809122
:1002E00030048093BB008091BC0083FDF8CF85EC87
:1002F0008093BC00809155048130E1F380915204D9
:10030000861710F460915204A1E3B4E0EFE0F4E04A
:1003100080E0861303C0089585EEEACF9D91919306
:100320008F5FF7CF0895089508950895AF92BF9213
:10033000CF92DF92EF92FF920F931F93CF93DF93B1
:100340006C017B018B01040F151FEB015E01AE18E0
:10035000BF08C017D10759F06991D601ED91FC9102
:100360000190F081E02DC6010995892B79F7C5012F
:10037000DF91CF911F910F91FF90EF90DF90CF9081
:10038000BF90AF900895FC01538D448D252F30E030
:10039000842F90E0821B930B541710F0CF96089592
:1003A00001970895FC01918D828D981761F0A28DBF
:1003B000AE0FBF2FB11D5D968C91928D9F5F9F7385
:1003C000928F90E008958FEF9FEF0895FC01918D3B
:1003D000828D981731F0828DE80FF11D858D90E0A8
:1003E00008958FEF9FEF0895FC01918D228D892F45
:1003F00090E0805C9F4F821B91098F73992708952D
:100400008BE894E00E94F40121E0892B09F420E0BC
:10041000822F089580E090E0892B29F00E9400024D
:1004200081110C9400000895FC01A48DA80FB92F30
:10043000B11DA35ABF4F2C91848D90E001968F730C
:100440009927848FA689B7892C93A089B1898C912B
:10045000837080648C93938D848D981306C002887A
:10046000F389E02D80818F7D80830895EF92FF9244
:100470000F931F93CF93DF93EC0181E0888F9B8DC7
:100480008C8D98131AC0E889F989808185FF15C081
:100490009FB7F894EE89FF896083E889F9898081A4
:1004A0008370806480839FBF81E090E0DF91CF9173
:1004B0001F910F91FF90EF900895F62E0B8D10E095
:1004C0000F5F1F4F0F731127E02E8C8D8E110CC004
:1004D0000FB607FCFACFE889F989808185FFF5CF4F
:1004E000CE010E941402F1CFEB8DEC0FFD2FF11D18
:1004F000E35AFF4FF0829FB7F8940B8FEA89FB898C
:1005000080818062CFCFCF93DF93EC01888D8823E9
:10051000B9F0AA89BB89E889F9898C9185FD03C066
:10052000808186FD0DC00FB607FCF7CF8C9185FF4B
:10053000F2CF808185FFEDCFCE010E941402E9CF7A
:10054000DF91CF910895833081F028F4813099F0C4
:100550008230A9F008958730A9F08830C9F084303E
:10056000B1F4809180008F7D03C0809180008F77EF
:1005700080938000089584B58F7784BD089584B5F5
:100580008F7DFBCF8091B0008F778093B00008956E
:100590008091B0008F7DF9CFCF93DF93282F30E08B
:1005A000F901ED58FF4F8491F901E155FF4FD491C6
:1005B000F901E556FF4FC491CC23A1F081110E94AF
:1005C000A302EC2FF0E0EE0FFF1FE957FF4FA591BC
:1005D000B491EC91ED2381E090E009F480E0DF91AB
:1005E000CF91089580E090E0FACF1F93CF93DF93EF
:1005F000282F30E0F901ED58FF4F8491F901E155C2
:10060000FF4FD491F901E556FF4FC491CC23A9F0D7
:10061000162F81110E94A302EC2FF0E0EE0FFF1FB6
:10062000EF56FF4FA591B4918FB7F894EC9111114B
:1006300008C0D095DE23DC938FBFDF91CF911F914F
:100640000895DE2BF8CF10920D0410920C04109236
:100650005704109279041092550481E08093540459
:1006600010922F0461E082E10E94F50261E083E1D3
:100670000E94F502E9EBF0E080818E7F808380812B
:100680008D7F808388E48093B80085E48093BC00EC
:1006900082E991E090930B0480930A0483E991E04E
:1006A00090930904809308040895CF93DF9390E01A
:1006B000FC01E155FF4F249185569F4FFC01849129
:1006C0008823D1F090E0880F991FFC01E859FF4F73
:1006D000A591B491FC01EF56FF4FC591D4916111E2
:1006E0000EC09FB7F8948C91E22FE0958E238C93E7
:1006F0002881E223E8839FBFDF91CF9108958FB7D0
:10070000F894EC91E22BEC938FBFF6CFCF93DF936D
:10071000EC0161E083E00E945503209731F460E032
:1007200083E0DF91CF910C94F502CF3FD10511F416
:1007300061E0F6CFE6E7F0E0E491E33029F140F440
:10074000E130B1F0E230D9F0C038D1058CF7E7CF15
:10075000E73021F1E83051F1E430B1F780918000C9
:10076000806280938000D0938B00C0938A0004C085
:1007700084B5806884BDC7BDDF91CF91089584B5ED
:10078000806284BDC8BDF8CF80918000806880936E
:100790008000D0938900C0938800EECF8091B00094
:1007A00080688093B000C093B300E6CF8091B00022
:1007B00080628093B000C093B400DECF3FB7F8945E
:1007C0008091F8039091F903A091FA03B091FB0393
:1007D00026B5A89B05C02F3F19F00196A11DB11D9C
:1007E0003FBFBA2FA92F982F8827BC01CD01620FD8
:1007F000711D811D911D42E0660F771F881F991F93
:100800004A95D1F708950F931F93CF93DF93CDB7F8
:10081000DEB729970FB6F894DEBF0FBECDBF80912B
:10082000F7059091F805892B09F467C00E94DE0353
:100830000091FD051091FE052091FF053091000605
:10084000601B710B820B930B6C327140810591051B
:1008500068F3F8948091F2059091F3059A83898367
:10086000E091F705F091F805DF0111968081898705
:100870009091EE05E0910106F09102068091030649
:10088000992309F445C09081982B98879081809591
:1008900089238F838F818C8388E08B8358856F8138
:1008A00049853B812C8189819A81508347FD252F81
:1008B0003A952083262F39F0441F00C00000608342
:1008C000000000C0F2CF38E04D9160830000019736
:1008D00061F7F0930206E093010649873B832C837E
:1008E0009A83898378940E94DE036093FD05709358
:1008F000FE058093FF059093000629960FB6F894A5
:10090000DEBF0FBECDBFDF91CF911F910F91089534
:100910009081982B98879081809589238F838F81F0
:100920008E8388E08D8358856F8149853D812E8136
:1009300089819A81508347FD252F00C000C0208304
:1009400000C000C000C000C000C060830000262FAF
:100950003A9541F0441F000000C000C000C000C034
:1009600000C0E8CF38E04D9100C0608300C001971F
:1009700009F7F0930206E093010649873D832E8331
:10098000AFCF8F929F92AF92BF92CF92DF92EF92B2
:10099000FF924B015C010E94DE036B017C010E940F
:1009A000DE036C197D098E099F09683E734081053D
:1009B0009105A8F321E0821A9108A108B10888EEF8
:1009C000C80E83E0D81EE11CF11C81149104A1041F
:1009D000B10429F7FF90EF90DF90CF90BF90AF90D8
:1009E0009F908F9008954F925F926F927F928F9217
:1009F0009F92AF92BF92EF92FF920F931F93CF936C
:100A00008C017B0180910B018131D9F08F3F09F47A
:100A10003FC068EC70E080E090E00E94C1048091EB
:100A20000F0190E0CF911F910F91FF90EF90BF9039
:100A3000AF909F908F907F906F905F904F900C94AD
:100A40008603E2E7F0E0C491C7FDE3CF61E081E116
:100A50000E945503C11132C02801012E000C660806
:100A6000770862E17AE780E090E0A30192010E94BA
:100A7000D31F49015A0181E0881A9108A108B108E1
:100A800096E0C1113BC085B5887F846085BDABC051
:100A900081E180930B01E2E7F0E0C491CF3F09F4DC
:100AA000B8CFC13009F44AC080F1C23009F464C043
:100AB000C7FDAFCF61E081E10E9455039801012E8F
:100AC000000C440B550BC23009F078C029013A01E3
:100AD00064E274EF80E090E00E94D31F49015A0164
:100AE00081E0881A9108A108B10895E08FEF881677
:100AF0009104A104B10411F00CF0B3CF8091B100C6
:100B0000887F892B8093B1006EC014BC15BC84B55E
:100B1000826084BD85B5816085BDECEAF0E0E4913A
:100B2000F0E0EE0FFF1FEF56FF4F85919491E0EC40
:100B3000F0E0E491E0937E04C0E088CF1092800062
:100B40001092810080918100886080938100809163
:100B50008100816080938100ECEAF0E0E491F0E0B4
:100B6000EE0FFF1FEF56FF4F85919491E0ECF0E000
:100B7000E491E0937D046ACF1092B0001092B1002E
:100B80008091B00082608093B0008091B10081605C
:100B90008093B100ECEAF0E0E491F0E0EE0FFF1F8B
:100BA000EF56FF4F8591949190937C0480937B0442
:100BB000E0ECF0E0E491E0937A0448CF60E072E189
:100BC0008AE790E00E94D31F49015A0181E0881A08
:100BD0009108A108B108C13031F480918100887F6B
:100BE0008160809381009801220F331FD7010E94FA
:100BF000F81F28EE33E040E050E00E94B11FC13002
:100C000099F0C23019F1C11104CF87BC2093870439
:100C1000309388044093890450938A0480916E0035
:100C2000826080936E00F5CE909289008092880059
:100C30002093830430938404409385045093860466
:100C400080916F00826080936F00E3CE8092B3004A
:100C500020937F0430938004409381045093820456
:100C600080917000826080937000D3CE2FB7F8948B
:100C70006091F4037091F5038091F6039091F7036E
:100C80002FBF08950F931F930E943606609393041D
:100C90007093940480939504909396048BE894E069
:100CA0000E94D20197FF1DC00E9436060091930456
:100CB000109194042091950430919604601B710B5F
:100CC000820B930B00918F0410919004209191045A
:100CD000309192046017710782079307F8F28FEF43
:100CE0009FEF1F910F91089585ED8093BC00809137
:100CF000BC0084FDFCCF1092550408952091D003D0
:100D0000260F3327331F21323105ECF4209155048F
:100D1000FC0190E080E0243069F082E00895A09129
:100D2000D0032191AC0140555C4FA40FB52FB11DEC
:100D30002C930196861798F38091D003680F6093E7
:100D4000D00380E0089581E008950895E0910D04B6
:100D500080910C04E81730F4F0E0E15FFB4F8081F4
:100D600090E008958FEF9FEF089590910D0480918A
:100D70000C042FEF3FEF981748F4E92FF0E0E15F04
:100D8000FB4F208130E09F5F90930D04C9010895CF
:100D900080910C0490910D04891B990B0895CF92BA
:100DA000DF92EF92FF920F931F93CF93DF937C011B
:100DB000CB018A0120915604222389F0EB016B01BB
:100DC000C40ED51ECC15DD0569F06991D701ED91F2
:100DD000FC910190F081E02DC7010995F3CF642FBC
:100DE0000E947E06C801DF91CF911F910F91FF9065
:100DF000EF90DF90CF900895CF93DF931F92CDB700
:100E0000DEB76983209156042223F9F020917904FA
:100E1000203258F021E030E0FC013383228390E05F
:100E200080E00F90DF91CF91089580915704E82FD3
:100E3000F0E0E85AFB4F998190838F5F80935704CD
:100E40008093790481E090E0ECCF61E0CE010196DF
:100E50000E947E06F7CFCF93C62F90910E0490622A
:100E600021E0209356049093780410925704109236
:100E70007904682F88E295E00E94FC066C2F88E2D6
:100E800095E00E94FC06CF910C94F300FC012481B4
:100E900031E0309356042093780410925704109256
:100EA00079048485682B88E295E00E94FC060C9406
:100EB000F300609306047093070491E09093560446
:100EC00080937804109257041092790488E295E098
:100ED0000E94FC060C94F3002091AE033091AF0306
:100EE0002817390771F49091AD038091AC039817DE
:100EF00041F0E091AD03F0E0E459FC4F808190E0D7
:100F000008958FEF9FEF0895EF92FF920F931F9335
:100F1000CF93DF93DC015C96ED90FC905D97E1143C
:100F2000F10479F481E090E013969C938E931297EC
:100F300090E080E0DF91CF911F910F91FF90EF90B3
:100F400008955196ED91FC91529750968C9150973F
:100F5000982F90950FB75E962C915E97122F127076
:100F600021FD6095F8942081112319F1282B20830D
:100F7000E7012197F1F728E0462F50E0308160FF2C
:100F80001AC0382B3083E7012197F1F7BA01759524
:100F90006795215089F7112381F08081892380830F
:100FA0000FBF5C968D919C910197F1F781E090E0E5
:100FB000C1CF2923DCCF3923E5CF9081892BEFCF17
:100FC0002091AE033091AF032817390771F4809157
:100FD000AC032091AD0390E0805C9F4F821B910990
:100FE00060E470E00E949D1F089590E080E0089505
:100FF0002091AE033091AF0328173907B9F49091CF
:10100000AD038091AC03981789F0E091AD03F0E057
:10101000E459FC4F80812091AD0330E02F5F3F4FBA
:101020002F7333272093AD0390E008958FEF9FEF48
:10103000089590E080E0089560E08CE00E94F50261
:1010400068E572E080E090E00E94C10461E08CE01D
:101050000C94F50260E085E00E94F50260E47CE912
:1010600080E090E00E94C10461E085E00C94F5020C
:101070008F929F92AF92BF92FF920F931F93CF9345
:10108000DF93982F990F990F990F24E0F22EF90E04
:1010900098E0899FE00111242B96469F002D112492
:1010A00010E030E020E048015901A62A322F212F1C
:1010B000102F0027802A912AA22AB32A8F2D90E090
:1010C000C817D9077CF02091F0053091F1058217FF
:1010D000930720F4B501A4010E948E000E9403042E
:1010E000F394ECCFDF91CF911F910F91FF90BF90C0
:1010F000AF909F908F9008950F93362FE42F90E03C
:101100004091F0055091F1058417950740F4422F66
:1011100050E070E060E05E2B632B0E948E000023A5
:1011200019F00F910C9403040F9108950F9380917F
:10113000FC03882361F001E020E040E060E080E013
:101140000E947C0881E0809307011092FC030F91BC
:10115000089590910E04906221E02093560490939C
:1011600078041092570410927904682F88E295E071
:101170000E94FC060E94F30080910E0461E08062F0
:101180000E94500110920D0480930C0488E295E0B7
:101190000E94B5060895CF93C82FC770883060F0BD
:1011A00083E10E94A90890E002C095958795CA95B1
:1011B000E2F78170CF91089582E1F3CFCF93DF936F
:1011C000C82FD1E0883008F4D0E08D2F0E94A90804
:1011D000C77041E050E060E070E004C0440F551F6C
:1011E000661F771FCA95D2F7682F642B8D2FDF916A
:1011F000CF910C942B07CF93DF93C82FDDE088307D
:1012000008F4DCE08D2F0E94A908C77041E050E08F
:1012100060E070E004C0440F551F661F771FCA9539
:10122000D2F7682F642B8D2FDF91CF910C942B0771
:10123000CF92DF92EF92FF920F931F93CF93DF93A2
:10124000C0910404D0910504F0903405E090350578
:10125000FE01EE0FFF1FE25BFE4F608171818F2D5B
:101260009E2D0E94590796E4C92E91E0D92E10E0D8
:1012700000E080911101909112010817190784F57F
:1012800061E08F2D0E94500110920D0480930C0498
:1012900088E295E00E94B506F601419151916F01F7
:1012A000209106043091070482279327841795071D
:1012B000A1F485E08C9FF0018D9FF00D1124EE5C70
:1012C000FE4FE00FF11F8081082E000C990B9093C8
:1012D00003048093020480E00DC00F5F1F4FC9CF4D
:1012E0008091020490910304009769F01092030426
:1012F00010920204DF91CF911F910F91FF90EF9018
:10130000DF90CF9008956FEF70E08F2D9E2D0E949B
:1013100059072196D0930504C093040480911301CA
:1013200090911401C817D907B1F6109205041092D4
:101330000404D1CF0F931F93CF938C01C62F0E942B
:1013400046076C2F6460C8010E9446076C2F6B7FB4
:10135000C8010E94460783EC90E00197F1F7CF9116
:101360001F910F9108950F931F93CF93DF938C01DB
:10137000D62FC42F607F642B0E949A0980E1D89FEA
:10138000B00111246C2BC801DF91CF911F910F91F7
:101390000C949A09CF93DF93CDB7DEB728970FB699
:1013A000F894DEBF0FBECDBF98E0EBE1F1E0DE01C7
:1013B000119601900D929A95E1F790910C0696176F
:1013C00010F46FEF690F262F30E0220F331F41E03A
:1013D00050E04C0F5D1F240F351FF9016081680F2D
:1013E000606840E084E096E028960FB6F894DEBF8F
:1013F0000FBECDBFDF91CF910C94B30940E061E007
:1014000084E096E00E94B3098BE39FE10197F1F736
:1014100080910D06882321F060E080E00C94CA09D9
:10142000089541E00E94B30981E090E00895CF93D0
:10143000DF93EC0188819981009711F00E94AF2021
:10144000198218821D821C821B821A82DF91CF9121
:101450000895FC0180819181009711F00C94AF20D8
:1014600008951092100660E084E096E00E9446071E
:10147000EEEEF5E04481558170E060E08185928573
:101480000E94FE210E94030461E08BE00E94F502AD
:1014900061E089E00E94F50261E08AE00E94F502C5
:1014A00068EE73E080E090E00E94C10481E08093E8
:1014B000FD03809307011092FC03089560E086E02D
:1014C0000E94F50260E47CE980E090E00E94C104A3
:1014D00061E086E00E94F5020C94310A20913A0501
:1014E00030913B05232B39F421E0FC0180818823D6
:1014F00061F020E00AC0BC0180913605909137056B
:101500000E94052221E0892BA1F7822F0895FB017B
:1015100001900020E9F73197AF01461B570BDC0122
:10152000ED91FC910280F381E02D09948F929F92BE
:10153000AF92BF92EF92FF920F931F93CF93DF93DF
:10154000CDB7DEB7A1970FB6F894DEBF0FBECDBF03
:101550007C01FA01CB0119A2223008F42AE08E01A5
:101560000F5D1F4F822E912CB12CA12CBF01A50124
:1015700094010E94B11FF901CA016A300CF5605D47
:10158000D8016E938D01232B242B252B79F790E026
:1015900080E0109721F0BD01C7010E94870AA19643
:1015A0000FB6F894DEBF0FBECDBFDF91CF911F9174
:1015B0000F91FF90EF90BF90AF909F908F90089504
:1015C000695CDECF462F50E070E060E02AE00C94CA
:1015D000960AAB01770F660B770B2AE00C94960AFC
:1015E0000F931F93CF93DF93EC010E94870A8C0126
:1015F00068E971E0CE010E94870A800F911FDF9198
:10160000CF911F910F9108950C94870A0F93CF9358
:10161000C09106018C2F880F63E08C0F0E94CA09CD
:10162000C33008F06FC0EC2FF0E0E050FF4F808136
:10163000682F70E08530E8F16450710984E096E02D
:101640000E94E90A6FEB71E084E096E00E94040BCF
:1016500020910601822F90E0FC01E85FFE4F31E00F
:101660003083FC01E050FF4FE081F0E0E85DFE4F89
:101670006081FC01E45FFE4F608381509C4FFC0160
:101680008081689F602D112441E082E0821B0E94CE
:10169000380880910601982F990F63E0890F0E9406
:1016A000CA0968EC70E080E090E0CF910F910C9453
:1016B000C1046F5F7F4F84E096E00E94E90A67EA09
:1016C00071E084E096E00E94040B20910601822FD5
:1016D00090E0FC01E85FFE4F1082FC01E050FF4FFC
:1016E000E081F0E0E35DFE4F6081FC01E45FFE4FCE
:1016F000608381509C4FFC018081689F602D112484
:1017000040E0C3CFC43029F56091040184E096E045
:101710000E94E20AE0910601F0E0E050FF4FE08114
:10172000F0E0E85DFE4FC081C093100101E020E0D1
:1017300040E06C2F81E00E947C0881E00E94CB0891
:10174000C89F602D112420E040E082E00E947C08C8
:10175000A0CFC330B1F46091030184E096E00E9411
:10176000E20AE0910601F0E0E050FF4FE081F0E096
:10177000ED5DFE4F808180930F0190E00E94860313
:1017800088CFEC2FF0E0E050FF4FE081EE3008F022
:1017900080CFF0E0E253F44F0C94F21FDC0BE30B2C
:1017A000E60BE90BEC0BEF0BF20BFB0BFE0B010C4A
:1017B000040C070C0A0CF80B69EA71E084E096E06F
:1017C0000E94040B66CF6FEA71E0F8CF65EB71E021
:1017D000F5CF6BEB71E0F2CF61EC71E0EFCF67EC2E
:1017E00071E0ECCF8091FE0361EA71E0882331F370
:1017F0006BE971E0E3CF6DEC71E0E0CF63ED71E098
:10180000DDCF69ED71E0DACF6FED71E0D7CF65EE36
:1018100071E0D4CF6BEE71E0D1CF0F931F93CF93D4
:10182000DF938C01EB01FC01808191810097E1F055
:101830006881798161157105A9F0428153812C81FC
:101840003D814217530770F00E940E228C819D81CA
:10185000F801958384831D821C82DF91CF911F91B3
:101860000F9108950E94AF2088819981F80191839A
:1018700080838A819B81938382838C819D819583E0
:101880008483198218821B821A82E5CF0F931F93DB
:10189000CF93DF93EC0188819981009759F02A81D9
:1018A0003B812617370730F081E0DF91CF911F9100
:1018B0000F9108958B016F5F7F4F0E943821009731
:1018C00059F0998388831B830A832C813D81232BC4
:1018D00059F7FC011082E8CF80E0E7CFEF92FF924A
:1018E0000F931F93CF93DF936115710541F480E04F
:1018F000DF91CF911F910F91FF90EF9008954115C7
:101900005105B1F07B01EC010C811D81040F151F05
:10191000B8010E94460C882351F3288139818C81BB
:101920009D81B701820F931F0E940E221D830C839D
:1019300081E0DECFEF92FF920F931F93CF93DF935F
:10194000EC017B018A01BA010E94460C81110BC097
:10195000CE010E94170ACE01DF91CF911F910F9106
:10196000FF90EF9008951D830C83B70188819981C2
:101970000E940E22F0CFCF93DF93EC01FB0186177C
:10198000970749F0608171816115710541F04481CB
:1019900055810E949A0CCE01DF91CF9108950E944B
:1019A000170AF9CFFC01118210821382128215826C
:1019B0001482FB0101900020E9F73197AF01461B2B
:1019C000570B0C949A0CAF92BF92CF92DF92EF928A
:1019D000FF920F931F93CF93DF937C016B015A010A
:1019E00089012417350720F48B2D5901042F182F56
:1019F0006AE971E0C7010E94D20CD6011496CD911C
:101A0000DC91AC16BD0620F50C171D0708F4E801A3
:101A1000D601ED91FC911197EC0FFD1F1081108202
:101A20006D917C916A0D7B1D61157105E9F0FB01DB
:101A300001900020E9F73197AF01461B570BC70112
:101A40000E949A0CF60180819181C80FD91F1883DA
:101A5000C701DF91CF911F910F91FF90EF90DF9021
:101A6000CF90BF90AF900895C7010E94170AEACFA8
:101A7000EF92FF920F93CF93DF9300D000D000D06E
:101A8000CDB7DEB77C018091100101E0623009F42E
:101A900049C0633009F44AC0282F40E0613009F0A2
:101AA00043C020E040E0682F81E00E947C0844E1D0
:101AB00050E061EF71E0C7010E946E0C2FE030E052
:101AC00050E040E0B701CE0101960E94E30CBE0158
:101AD0006F5F7F4FC7010E940D0CCE0101960E94DF
:101AE000290A61E080E00E94CA09F701448155811A
:101AF0006081718184E096E00E94960180910601E8
:101B0000982F990F63E0890F0E94CA0926960FB695
:101B1000F894DEBF0FBECDBFDF91CF910F91FF9044
:101B2000EF900895282F482F60E0BECF20E0FBCF34
:101B30000F931F93CF93DF9300D000D000D0CDB789
:101B4000DEB760E08AE00E94F50260ED77E080E0B9
:101B500090E00E94C1041091100100E020E040E0FC
:101B6000612F81E00E947C0820E040E0612F82E04C
:101B70000E947C0801E02FE04FE06FE080E00E94CF
:101B80007C0880910F0190E00E9486030E94FE096C
:101B900088E08093100660E084E096E00E944607AB
:101BA00062E080E00E94CA0966E072E084E096E0AC
:101BB0000E94040B63E080E00E94CA0969E172E0C0
:101BC00084E096E00E94040B80910601982F990F03
:101BD00063E0890F0E94CA0960910A06862F81601E
:101BE00080930A06696040E084E096E00E94B309B1
:101BF0006DE272E0CE0101960E94D20C61E0CE014E
:101C000001960E94380DCE0101960E94290A60E0DB
:101C10008BE00E94F50281E00E94CB0891E08111E7
:101C200090E09093FD03109207011092FC0326961A
:101C30000FB6F894DEBF0FBECDBFDF91CF911F91DD
:101C40000F910895CF93DF9300D000D000D0CDB78F
:101C5000DEB760E08AE00E94F50260ED77E080E0A8
:101C600090E00E94C10460E372E0CE0101960E9400
:101C7000D20C60E0CE0101960E94380DCE01019693
:101C80000E94290A60E087E00E94F50260E47CE996
:101C900080E090E00E94C10468E372E0CE0101960A
:101CA0000E94D20C61E0CE0101960E94380DCE0157
:101CB00001960E94290A61E087E00E94F5022696BB
:101CC0000FB6F894DEBF0FBECDBFDF91CF91089560
:101CD000CF93DF9300D000D000D0CDB7DEB760E463
:101CE00072E0CE0101960E94D20C60E0CE01019616
:101CF0000E94380DCE0101960E94290A60E088E01A
:101D00000E94F50260E47CE980E090E00E94C1045A
:101D100068E472E0CE0101960E94D20C61E0CE012F
:101D200001960E94380DCE0101960E94290A61E0B9
:101D300088E00E94F50261E08AE00E94F5022696A2
:101D40000FB6F894DEBF0FBECDBFDF91CF910895DF
:101D50000F931F93CF93DF93CDB7DEB728970FB6BE
:101D6000F894DEBF0FBECDBF8C018BE894E00E94DB
:101D7000F4016AE971E0892BD1F1CE0101960E944C
:101D8000D20C0E94420697FD0FC08332910561F08C
:101D90008F83188641E050E0BE01695F7F4FCE011E
:101DA00001960E946E0CEDCFBE016F5F7F4F86E300
:101DB00095E00E940D0CCE0101960E94290AF801BF
:101DC00011821082138212821582148266E375E0FA
:101DD000C8010E94BB0CC80128960FB6F894DEBF5C
:101DE0000FBECDBFDF91CF911F910F910895C80114
:101DF0000E94D20CF0CF0F931F93CF93DF93CDB7F8
:101E0000DEB72C970FB6F894DEBF0FBECDBF8C01A6
:101E100061E572E08BE894E00E94F00A61E089E0FD
:101E20000E94F50261E08BE00E94F50261E08CE027
:101E30000E94F50261E088E00E94F50261E087E01F
:101E40000E94F50261E086E00E94F50261E085E013
:101E50000E94F50261E08BE00E94F50281E0809330
:101E6000FE0365E572E0CE0101960E94D20CF801F6
:101E70004481558160817181CE0101960E946E0C72
:101E8000811104C0CE0101960E94170A18861F8294
:101E90001A8619861C861B86BE016F5F7F4FCE0196
:101EA00007960E94BB0C63E0CE0107960E94380D96
:101EB000CE0107960E94290ACE0101960E94290AA6
:101EC00001E020E042E360E081E00E947C0883E0E2
:101ED0000E94CB08811107C064E670E080E090E0CA
:101EE0000E94C104F4CF2C960FB6F894DEBF0FBE4B
:101EF000CDBFDF91CF911F910F9108957F928F9267
:101F00009F92AF92BF92CF92DF92EF92FF920F9388
:101F10001F93CF93DF9300D000D000D0CDB7DEB7B2
:101F20004B015C01042F722E0E9436066B017C016E
:101F300010E00E9436066C197D098E099F0968150C
:101F400079058A059B0508F076C0CE0101960E94AE
:101F5000A80EBE016F5F7F4F86E395E00E940D0CD7
:101F6000CE0101960E94290A8CE592E00E946E0A39
:101F7000882349F16FE572E08BE894E00E94F00A53
:101F800061E672E0CE0101960E94D20CCE0101966C
:101F90000E94FB0ECE0101960E94290A80E026963F
:101FA0000FB6F894DEBF0FBECDBFDF91CF911F916A
:101FB0000F91FF90EF90DF90CF90BF90AF909F90E8
:101FC0008F907F90089581E00E94CB08811106C018
:101FD000113019F461EC72E0D5CF11E0002369F003
:101FE00085E00E94CB08882341F087E00E94CB085F
:101FF000882319F068E672E0C5CF772069F086E0A3
:102000000E94CB08882319F061E772E0BBCF82E021
:102010000E94CB088111F8CF83E00E94CB08811188
:1020200003C068E772E0AECF64E670E080E090E065
:102030000E94C1047ECF81E0B2CF0F931F93CF9354
:10204000DF9300D000D000D0CDB7DEB7182F8823A3
:1020500009F4F0C086E00E94CB088111B0C082E094
:102060000E94CB088111ABC06FE772E0CE010196F0
:102070000E94D20C62E0CE0101960E94380DCE0182
:1020800001960E94290A10E0812F26960FB6F89437
:10209000DEBF0FBECDBFDF91CF911F910F9108958D
:1020A00064E670E080E090E00E94C10486E00E9457
:1020B000CB088111F5CF82E00E94CB088111F0CFCF
:1020C00068E873E180E090E00E94C10461E087E08D
:1020D0000E94F50261E085E00E94F5026FE872E07F
:1020E000CE0101960E94D20C61E0CE0101960E94C1
:1020F000380DCE0101960E94290A68E972E081E15B
:1021000096E00E94F00AC0CF6091100101E020E04B
:10211000462F81E00E947C0861E08BE00E94F5027E
:102120006CE972E0CE0101960E94D20C61E0CE0112
:1021300001960E94380DCE0101960E94290A60E0A6
:1021400086E00E94F50220E041E060E47FE180E06B
:1021500090E00E947E0F882309F496CF64EA72E033
:10216000CE0101960E94D20C60E0CE0101960E9441
:10217000380DCE0101960E94290A60E088E00E9495
:10218000F50220E041E060E47CE980E090E00E941C
:102190007E0F082F882309F477CF61E088E00E9442
:1021A000F50261E086E00E94F5026DEA72E081E1ED
:1021B00096E00E94F00A0E94310A102F65CF0E941B
:1021C000980D88E08093100660E084E096E00E941D
:1021D000460760E372E0CE0101960E94D20C60E0F7
:1021E000CE0101960E94380DCE0101960E94290A67
:1021F00060E087E00E94F50268E873E180E090E02B
:102200000E94C10460E085E00E94F50261EB72E08B
:10221000CE0101960E94D20C60E0CE0101960E9490
:10222000380DCE0101960E94290A60E375E780E02F
:1022300090E03ACF84E00E94CB08811106C080E094
:102240000E94CB08882309F40FCF85E00E94CB08B9
:10225000882309F459CF6FE772E0CE0101960E94FE
:10226000D20C62E0CE0101960E94380DCE0101969B
:102270000E94290A09CF0F931F93CF93DF9300D0B9
:1022800000D000D0CDB7DEB7882309F42AC187E09B
:102290000E94CB0881111CC06FE772E0CE0101964D
:1022A0000E94D20C62E0CE0101960E94380DCE0150
:1022B00001960E94290A10E0812F26960FB6F89405
:1022C000DEBF0FBECDBFDF91CF911F910F9108955B
:1022D00081E00E94CB08811119C06AEB72E0CE0147
:1022E00001960E94D20C62E0CE0101960E94380D48
:1022F000CE0101960E94290A81E00E94CB08882322
:1023000079F181E00E94CB088823A9F261E089E09D
:102310000E94F5026091100101E020E0462F81E06B
:102320000E947C0886E00E94CB08811120C082E0D8
:102330000E94CB0881111BC08BE00E94CC02892B2C
:1023400011F160E08BE00E94F50220E041E060E1E5
:1023500077E280E090E00E947E0F811114C0ABCF45
:1023600060E177E280E090E00E94C104C5CF8BE09D
:102370000E94CC02892B21F060E08BE00E94F502E4
:1023800081E00E941D1066EC72E0CE0101960E9471
:10239000D20C60E0CE0101960E94380DCE0101966C
:1023A0000E94290A41E064E682E00E94380885E044
:1023B0000E94CB08882309F456C087E00E94CB080E
:1023C000882309F450C021E040E068EF7AE280E021
:1023D00090E00E947E0F882309F46DCF85E00E9473
:1023E000CB08811157C021E040E060ED77E080E04C
:1023F00090E00E947E0F182F882309F45CCF41E003
:1024000060E082E00E94380887E00E94CB088823C1
:1024100009F44DC061E089E00E94F5026AED72E0C6
:10242000CE0101960E94D20C61E0CE0101960E947D
:10243000380DCE0101960E94290A64EF71E080E018
:1024400090E00E94C10480E00E941D1066EE72E0E0
:1024500081E196E00E94F00A68EE73E088EB91E07B
:102460000E94F30429CF60E08CE00E94F50268E549
:1024700072E080E090E00E94C10461E08CE00E9484
:10248000F50221E040E060EA7FE080E090E00E9419
:102490007E0F8DCF87E00E94CB08882309F4A3CF5D
:1024A00021E040E068EE73E080E090E092CF6AEED9
:1024B00072E081E196E00E94F00A6EEE72E0CE01D9
:1024C00001960E94D20C61E0CE0101960E94380D67
:1024D000CE0101960E94290A60E089E00E94F5027F
:1024E000BBCF85E0D5CE1F920F920FB60F9211246D
:1024F0002F933F934F935F936F937F938F939F930C
:10250000AF93BF93EF93FF9380917F0490918004EA
:10251000A0918104B0918204892B8A2B8B2BD1F15D
:1025200090917A04E0917B04F0917C04808189276A
:10253000808380917F0490918004A0918104B09168
:102540008204181619061A061B069CF480917F0453
:1025500090918004A0918104B09182040197A10917
:10256000B10980937F0490938004A0938104B09379
:102570008204FF91EF91BF91AF919F918F917F91D5
:102580006F915F914F913F912F910F900FBE0F90E0
:102590001F90189580910B01E2E7F0E0E4919FEF26
:1025A00090930B01E13051F030F0E23069F060E0DF
:1025B0000E94F502DECF10926E00F9CF90916F006D
:1025C0009D7F90936F00F3CF909170009D7F9093CB
:1025D000700091E09093B0009091B100987F94606A
:1025E0009093B1001092B300E2CF1F920F920FB6FA
:1025F0000F9211242F933F934F935F936F937F9389
:102600008F939F93AF93BF93EF93FF938BE894E0E7
:102610000E941402FF91EF91BF91AF919F918F9112
:102620007F916F915F914F913F912F910F900FBECE
:102630000F901F9018951F920F920FB60F921124B2
:102640002F938F939F93EF93FF93E0919B04F091CF
:102650009C048081E091A104F091A20482FD1BC042
:1026600090818091A4048F5F8F732091A5048217BD
:1026700041F0E091A404F0E0E557FB4F958F809383
:10268000A404FF91EF919F918F912F910F900FBE16
:102690000F901F9018958081F4CF1F920F920FB664
:1026A0000F9211242F933F938F939F93AF93BF93D8
:1026B0008091F4039091F503A091F603B091F70394
:1026C0003091F30323E0230F2D3758F50196A11D18
:1026D000B11D2093F3038093F4039093F503A0932B
:1026E000F603B093F7038091F8039091F903A0915A
:1026F000FA03B091FB030196A11DB11D8093F8036D
:102700009093F903A093FA03B093FB03BF91AF91A9
:102710009F918F913F912F910F900FBE0F901F901F
:10272000189526E8230F0296A11DB11DD2CF1F9246
:102730000F920FB60F9211242F933F934F935F93F5
:102740006F937F938F939F93AF93BF93EF93FF9379
:102750008091B900887F803609F44AC0F0F588324C
:1027600009F4A7C018F5803109F49BC0B8F4882398
:1027700009F4F9C0883009F494C0FF91EF91BF913A
:10278000AF919F918F917F916F915F914F913F9109
:102790002F910F900FBE0F901F901895883109F45C
:1027A00088C0803251F78093530414C0803409F4F8
:1027B0009DC040F48033B9F38833F9F68093530415
:1027C00085ECB0C0803509F485C0883509F496C021
:1027D000883499F60E947406D0CF883909F48CC0E9
:1027E00038F5883729F050F4883611F0803729F60B
:1027F00083E0809355041092F20357C0883809F49F
:102800007BC0803919F0803809F0B7CF8091F2038E
:10281000803208F071C0E091F20381E08E0F809366
:10282000F2038091BB00F0E0EE52FC4F80833DC08C
:10283000803B39F0E0F4803A09F479C0883A09F035
:102840009CCF84E0809355041092D1031092D00362
:10285000E0910A04F0910B0409958091D003811155
:102860000FC081E08093D0031092B00309C0803C78
:1028700009F4A6CF883C09F4A3CF883B09F07DCFAB
:10288000E091D10381E08E0F8093D103F0E0E05519
:10289000FC4F80818093BB009091D1038091D00345
:1028A00029C0809130048093BB0085EC8093BC00EC
:1028B00064CF9091520480915104981758F5E0919B
:1028C000520481E08E0F80935204F0E0EF5CFB4FE6
:1028D0008081E9CFE091520481E08E0F8093520411
:1028E0008091BB00F0E0EF5CFB4F8083909152043D
:1028F000809151049817C8F285E8D8CFE09152042E
:1029000081E08E0F809352048091BB00F0E0EF5C79
:10291000FB4F80838091540481115CCF81E08093D0
:102920002F0484EA8093BC001092550426CF85ECD6
:102930008093BC00109255048091F203803230F4F1
:10294000E091F203F0E0EE52FC4F10826091F2034E
:1029500070E0E0910804F091090482ED93E009959C
:102960001092F2030ACF1092530434CF1F920F92A9
:102970000FB60F9211242F933F934F935F936F9352
:102980007F938F939F93AF93BF93EF93FF93E091C8
:10299000AE03F091AF03309749F0A685B7858585E2
:1029A000968D91FF14C09C918923A1F4FF91EF9122
:1029B000BF91AF919F918F917F916F915F914F9157
:1029C0003F912F910F900FBE0F901F9018959C91E3
:1029D000892361F7A389B4899C918589809589238E
:1029E0008C93868997890197F1F7608D718DA68503
:1029F000B785558538E020E0CB010197F1F7822FAC
:102A000090E095958795282F4C91452309F02068F3
:102A1000315091F7868D81FD20958091AC0390E037
:102A200001968F7399273091AD03381799F0A091D3
:102A3000AC03B0E0A459BC4F2C938093AC03828DBF
:102A4000938D0197F1F7A389B4898C919589892B8E
:102A50008C93ACCF868D8160868FF1CFCF93DF933F
:102A600010928E0410928D0488EE93E0A0E0B0E006
:102A700080938F0490939004A0939104B093920458
:102A80002AE531E030938C0420938B0425EC30E070
:102A9000309398042093970424EC30E030939A0408
:102AA0002093990420EC30E030939C0420939B0405
:102AB00021EC30E030939E0420939D0422EC30E022
:102AC0003093A00420939F0426EC30E03093A204BE
:102AD0002093A1041092A4041092A5041092A604BD
:102AE0001092A70410922B0510922A0580932C05B2
:102AF00090932D05A0932E05B0932F052CE631E081
:102B0000309329052093280510921406109213067D
:102B10008093150690931606A0931706B093180697
:102B20008AE891E09093120680931106109228068D
:102B30001092270610922A061092290610922C064F
:102B400010922B0610922E0610922D0660912F06E1
:102B50006E7F6D7F60932F066695617081E06827B8
:102B600082E00E94F50261E082E00E945503E1EB01
:102B7000F0E0E491E0932106EDE9F0E0E491F0E08B
:102B8000EE0FFF1FEF56FF4F859194919093230610
:102B90008093220660E080E10E94550380912F0619
:102BA00081FD04C061E080E10E94F50280E1809334
:102BB0001D06EFEBF0E0E491E0931E06EBEAF0E097
:102BC000E491F0E0EE0FFF1FE957FF4F85919491DC
:102BD0009093200680931F0686E290E0909335053F
:102BE0008093340584E090E0909314018093130166
:102BF000909312018093110110920706109206061D
:102C00008EE791E0909305068093040610920D06DE
:102C100087E28093080684E180930E0684E0809327
:102C20000F06109210061092EF051092F605109202
:102C3000FD051092FE051092FF051092000681E03E
:102C40008093FC058093F9051092FA0582E0809349
:102C5000FB051092EE0584E590E09093F3058093D8
:102C6000F2050E9413209093F8058093F7050097D2
:102C700009F45DC024E5DC011D922A95E9F78CE199
:102C800090E09093F1058093F00584E090E09093BC
:102C9000F5058093F4058091EF05882341F061E00C
:102CA00084E00E94550360E084E00E94F502EFE9B1
:102CB000F0E0E491F0E0EE0FFF1FEF56FF4F85913B
:102CC00094919093020680930106E3EBF0E0E49187
:102CD000E09303060E943606CEECD5E0EAE6F5E086
:102CE00042E455E0199211921192DA016D937D93AD
:102CF0008D939D93AD019F01225B3F4FD9011D92A2
:102D00001C92B5E0EE37FB0769F71092ED051092C3
:102D1000EC056AEF72E08CE395E00E94D20C6AE960
:102D200071E086E395E0DF91CF910C94D20C109284
:102D3000F3051092F2051092F1051092F005A5CF5F
:102D4000CF93DF93CDB7DEB766970FB6F894DEBFAB
:102D50000FBECDBF789484B5826084BD84B5816098
:102D600084BD85B5826085BD85B5816085BD809156
:102D70006E00816080936E001092810080918100CE
:102D800082608093810080918100816080938100C6
:102D9000809180008160809380008091B100846088
:102DA0008093B1008091B00081608093B0008091E9
:102DB0007A00846080937A0080917A0082608093A8
:102DC0007A0080917A00816080937A0080917A0005
:102DD000806880937A001092C100E0919B04F0918A
:102DE0009C0482E08083E0919B04F0919C0410821B
:102DF000E0919704F09198041082E0919904F09189
:102E00009A0480E180831092A304E0919F04F091E2
:102E1000A00486E08083E0919D04F0919E0480816F
:102E200080618083E0919D04F0919E0480818860A0
:102E30008083E0919D04F0919E048081806880836E
:102E4000E0919D04F0919E0480818F7D808310929B
:102E50000E040E9423036FEF80E00E942B076FEFA8
:102E600081E00E942B076FEF70E080913405909114
:102E700035050E945907109205041092040461E080
:102E80008AE00E94F50261E08AE00E94550361E059
:102E900089E00E94F50261E089E00E94550361E04B
:102EA0008BE00E94F50261E08BE00E94550361E037
:102EB0008CE00E94F50261E08CE00E94550361E025
:102EC00088E00E94F50261E088E00E94550361E01D
:102ED00087E00E94F50261E087E00E94550361E00F
:102EE00086E00E94F50261E086E00E94550361E001
:102EF00085E00E94F50261E085E00E94550361E0F3
:102F00008BE00E94F50287E00E94DE0887E00E94C5
:102F1000FB0885E00E94DE0885E00E94FB0886E051
:102F20000E94DE0886E00E94FB0884E00E94DE0822
:102F300084E00E94FB0882E00E94DE0882E00E949A
:102F4000FB0880E00E94DE0880E00E94FB0883E02E
:102F50000E94DE0883E00E94FB0881E00E94DE08F8
:102F600060E084E10E94550361E083E00E94550324
:102F700080910F0190E00E9486038DE00E94DE08A0
:102F80008DE00E94FB088BE00E94DE088BE00E942F
:102F9000FB088EE00E94DE088EE00E94FB0888E0BD
:102FA0000E94DE0888E00E94FB0889E00E94DE089B
:102FB00089E00E94FB088AE00E94DE088AE00E9405
:102FC000FB088091F4059091F50597FD08C061E03C
:102FD0000E94550360E08091F4050E94F50281E0B3
:102FE0008093EF054091F2055091F30570E060E0A9
:102FF0008091F7059091F8050E94FE210E9403043C
:103000000E9423031092090680910F06823018F067
:1030100098E09093090680930C0662E370E080E0EC
:1030200090E00E94C1046091100684E096E00E9446
:10303000460768EE73E080E090E00E94C10460E320
:1030400084E096E00E949A090BE416E4C801019717
:10305000F1F760E384E096E00E949A09C8010197C5
:10306000F1F760E384E096E00E949A0983E592E03C
:103070000197F1F760E284E096E00E949A0960917E
:103080000906606240E084E096E00E94B30984E0B3
:1030900080930A0640E06CE084E096E00E94B30969
:1030A0000E94FE0982E080930B0640E066E084E027
:1030B00096E00E94B30940E062E084E096E00E945E
:1030C000B3098BE39FE10197F1F762E080E00E9492
:1030D000CA0966E072E084E096E00E94040B63E0B7
:1030E00080E00E94CA0969E172E084E096E00E94F3
:1030F000040B80910601982F990F63E0890F0E94BD
:10310000CA0960910A06862F816080930A06696069
:1031100040E084E096E00E94B3098091EC05909134
:10312000ED050A9774F4EAE6F5E010E000E081911D
:103130009191892B09F4E9C50F5F1F4F0A301105E2
:10314000B1F786E00E94CB08811116C182E00E948F
:10315000CB08811111C10E94980D87E00E94CB0815
:10316000882309F40CC161E089E00E94F50287E040
:103170000E94CB08882341F085E00E94CB08882379
:1031800019F081E08093FE039E012F5F3F4F79018C
:1031900011E00E9436062B013C016AE675E0788B4F
:1031A0006F87B2E4CB2EB5E0DB2EDE8ACD8AFB0141
:1031B000312C212C9F0122593F4FD9011D921C9285
:1031C000808191813296892BB9F1AD89BE894D916B
:1031D0005D916D917C911397DC968D909D90AD9053
:1031E000BC90DF97D301C201841B950BA60BB70BD4
:1031F00088159905AA05BB05F8F0480D591D6A1DEB
:103200007B1DAD89BE894D935D936D937C93139720
:10321000C10182539A4FDC018C91882369F082AD01
:1032200093AD009709F0B3C0CF0184599F4F21E0BF
:1032300030E0DC012D933C937FEF271A370A8D890C
:103240009E8904969E8B8D8B9AE02916310409F095
:10325000B1CFB12CA12C4601A6E98A0E911CF40134
:10326000808191818130910509F4B3C0029709F4FE
:10327000B6C0BFEFAB1ABB0AE2E0CE0ED11CFAE03B
:10328000AF16B10441F78DE00E94CB0881111BC03D
:103290000091000401270093000464E670E088EBCD
:1032A00091E00E94F30460910D01069F602D1124AE
:1032B0004091090181E00E9438086CE271E080E0F1
:1032C00090E00E94C1048EE00E94CB0881111BC0D7
:1032D0000091FF0301270093FF0364E670E088EB91
:1032E00091E00E94F30460910C01069F602D11246F
:1032F0004091080182E00E9438086CE271E080E0B1
:1033000090E00E94C1048BE00E94CB0881111BC099
:103310000091010401270093010464E670E088EB4A
:1033200091E00E94F30460910E01069F602D11242C
:1033300040910A0180E00E9438086CE271E080E070
:1033400090E00E94C10488E00E94CB08811195C0E2
:1033500080910701882309F473C088E080931006E8
:1033600060E084E096E00E9446071092070168EC56
:1033700070E080E090E0B5C10E94310AEECE85E0B9
:103380000E94CB08882309F4EECE60E0EDCE5F0109
:103390003EE4A30EB11CD5014D915C91481759072D
:1033A0000CF04ACF9F0124593F4F61E070E0D901F2
:1033B0006D937C934F5F5F4FD5014D935C9348179E
:1033C00059070CF439CF62E070E0D9016D937C931A
:1033D00033CFD6019896ED91FC9109954ACFD6014D
:1033E0009896ED91FC9109958091EC059091ED05F1
:1033F000009709F43ECFF60120A531A5232B09F44F
:1034000038CF11A610A6F501E253FA4F1082D4016D
:103410001D921C92F501EE0FFF1FEE0FFF1FEE5BDA
:10342000FA4F14AE15AE16AE17AEF601E858FF4FC0
:103430001182108201979093ED058093EC0519CFCE
:10344000E0910601E53009F057C1E0910501ED304A
:10345000A0F4F0E0E25DF54E0C94F21F3B1A231B42
:10346000261B2A1B2C1B301B321B431B4B1B531BC5
:103470005B1B651B741B0E94220E8AE00E94CB0816
:10348000811116C0809106018F5F863008F040C11F
:103490008093060180910601982F990F63E0890FB0
:1034A0000E94CA0968EC70E080E090E00E94C104CC
:1034B00089E00E94CB0881112AC080910601E82F83
:1034C000F0E0E050FF4F90819F5F9083953028F0AF
:1034D0009DEF980F923008F410829081973040F061
:1034E000853031F49091FE03911102C010920501D4
:1034F00090819D3020F0853011F41092050190816B
:103500009A3018F0853008F410820E94060B0E9451
:103510001809082F882309F469C064E670E088EB75
:1035200091E00E94F304B0900701BB2009F47AC136
:1035300018861F821A8619861C861B8609831A82A2
:10354000F70101900020E9F73197AF014E195F09AB
:10355000B701CE0107960E949A0C0E9436062B01F5
:103560003C0101E02FE04FE06FE080E00E947C082A
:103570008091FC0381111AC08091EC059091ED05BA
:103580000A9794F4D12CC12CAF85B8898D919D9167
:10359000B88BAF87892B09F4F3C3BFEFCB1ADB0AD3
:1035A000EAE0CE16D10481F71093FC030E943606A0
:1035B000641975098609970960317742810591057B
:1035C00008F4A9C06BE073E08BE894E00E94F00A75
:1035D0006CE271E08CED90E00E94F304B12CCE011E
:1035E00007960E94290AB11010920701C7010E9494
:1035F000A80EB70186E395E00E940D0CC7010E945A
:10360000290A8AE991E00E946E0A81118AC180919B
:10361000FE03811111C280E293E00E946E0A8823AA
:1036200009F44BC181E00E941D1086E00E94CB0886
:10363000811106C082E00E94CB08882309F452C1A0
:103640006FE572E051C10E94680E17CF81E00E94C1
:103650003B1113CF80E0FBCF81E00E941D100DCF06
:1036600080E0FBCF8091FE0301E020E08127809382
:10367000FE0360911001462F811101C040E081E0FE
:103680000E947C08FACE8091FE03882309F4F5CECF
:103690000E942A08F2CE8091FE03882309F4EDCE21
:1036A0000E945E0AEACE8091FE03882309F4E5CEEB
:1036B0000E941C08E2CE8091FE03882309F4DDCE2F
:1036C00060E08BE00E94F502D8CE8091FE03882353
:1036D00021F060E08AE00E94F50268EE73E080E08D
:1036E00090E00E94C104C9CE8091FE03882309F4B2
:1036F000C4CE61E08AE0E6CFF0E0E050FF4F808189
:10370000882309F4BACE815080830E94060B2FCE05
:1037100010920601BFCE0E941809D82E882309F402
:1037200045CF64E670E088EB91E00E94F30401E08D
:103730002FE04FE060E080E00E947C0868EC70E0E1
:1037400080E090E00E94C1042FE04FE06FE080E055
:103750000E947C081A8219821C821B821E821D8292
:10376000BE01695F7F4FC7010E94BB0CDD861E86CC
:1037700041E050E0BE01635F7F4FC7010E946E0CC5
:10378000811103C0C7010E94170AB701CE01079635
:103790000E94BB0CC7010E94290A2B853C854CEF77
:1037A000420F2530310508F440E050E0BE01695F6A
:1037B0007F4FC7010E94E30CB701CE0107960E941C
:1037C0000D0CC7010E94290A4B855C856F817885A5
:1037D0008BE894E00E94960168E971E08BE894E040
:1037E0000E94870A2B853C85809140059091410578
:1037F0002817390709F0DACE8F81988560913C054A
:1038000070913D05009709F4F7C26115710539F40F
:10381000232B09F4FFC2FC01808190E0F8C20E94D2
:103820000522F5C281E0013419F0023421F480E070
:103830000E943B11DBCE81E0033419F0043421F403
:1038400080E00E941D10D2CE0A3219F40E94220E8E
:10385000CDCE033219F40E94680EC8CE802F000F1F
:10386000990BF1E0833B9F07B1F46091010461275C
:103870006093010480910E01689F602D1124409196
:103880000A0180E00E9438086CE271E080E090E07C
:103890000E94C104ABCE875D914009F0A7CE609134
:1038A000000461276093000480910D01689F602DE2
:1038B00011244091090181E0E5CF83E293E00E9469
:1038C0006E0A882309F498C080E00E941D1086E0EB
:1038D0000E94CB08811106C082E00E94CB08882399
:1038E00009F4AECE63EB71E08BE894E00E94F00A3D
:1038F0008EE393E00E946E0A60E08111DBC081E4F8
:1039000093E00E946E0A60E0811108C084E493E0B5
:103910000E946E0A882309F4C6C061E08AE00E9412
:10392000F502C090FD03D12C81E00E94CB088C15DC
:103930001D0421F10091100181E00E94CB08089F35
:10394000602D112401E020E040E082E00E947C082C
:1039500081E00E94CB0891E0811101C090E090933A
:10396000FD0381E00E94CB0865E073E0811102C095
:1039700068E073E081E196E00E94F00A8091FE0326
:10398000811115C085E00E94CB08882381F087E073
:103990000E94CB08882359F068E672E0C7010E94B4
:1039A000D20CC7010E94FB0EC7010E94290A86E4BF
:1039B00080937C0080917A00806480937A0080916B
:1039C0007A0086FDFCCF909178008091790089275C
:1039D000982789278C32914014F40E94220E80E0AF
:1039E00090E0892B09F4D5CB0E940002882309F4CA
:1039F000CFCB0E940000C8CB86E293E00E946E0A03
:103A0000882329F081E00E943B1187E014CE89E2EF
:103A100093E00E946E0A882329F080E00E943B1107
:103A200085E009CE8CE293E00E946E0A882309F4B7
:103A30005FCF1093FE035CCF8DE193E00E946E0A8E
:103A4000882319F01092FE0353CF8FE293E00E9477
:103A50006E0A60E0811107C082E393E00E946E0A63
:103A6000882329F061E08BE00E94F50241CF85E3D5
:103A700093E00E946E0A882319F00E941C0838CF38
:103A800088E393E00E946E0A882319F00E942A08B6
:103A90002FCF8BE393E00E946E0A882309F428CF8E
:103AA0000E945E0A25CF87E493E00E946E0A882375
:103AB00059F061E089E00E94F50263EB71E08BE868
:103AC00094E00E94F00A2DCF8AE493E00E946E0AEF
:103AD000882369F086E00E94CB08811105C082E04E
:103AE0000E94CB08882349F36FE572E0E8CF8DE4AC
:103AF00093E00E946E0A882331F085E00E94CB0893
:103B00008111DBCFF1CF80E593E00E946E0A88231C
:103B100031F089E00E94CC02892B31F7CECF83E5CA
:103B200093E00E946E0A882319F00E94680EDCCF91
:103B300086E593E00E946E0A882319F00E94220E07
:103B4000D3CF8CE592E00E946E0A882391F06FE556
:103B500072E08BE894E00E94F00A61E672E0C7012F
:103B60000E94D20CC7010E94FB0EC7010E94290AC5
:103B7000D8CE89E593E00E946E0A882349F08091AF
:103B8000FE036FEF72E081119ACF61E073E097CF8F
:103B90008CE593E00E946E0A882341F040910A016F
:103BA00060910E0180E00E94380887CF8FE593E096
:103BB0000E946E0A882331F040E060E080E00E94BD
:103BC000380892CF82E693E00E946E0A882331F093
:103BD0004091090160910D0181E0E5CF85E693E018
:103BE0000E946E0A882321F040E060E081E0E7CF88
:103BF00088E693E00E946E0A882309F492CE85E05D
:103C00000E94CB0861E070E0882311F070E060E072
:103C10008BE894E00E94E90A87E00E94CB0861E00B
:103C200070E0882311F070E060E08BE894E00E947F
:103C3000E90A84E00E94CB08811104C00E94CB08ED
:103C400061E0811160E070E08BE894E00E94E90A95
:103C500086E00E94CB08811105C082E00E94CB085B
:103C600061E0811160E070E08BE894E00E94E90A75
:103C700089E00E94CC0261E070E0892B11F070E0D5
:103C800060E08BE894E00E94E90A81E00E94CB08A2
:103C900063E073E0811102C066E972E08BE894E0B2
:103CA0000E94040B8091FE036FEF72E0811102C04D
:103CB00061E073E08BE894E00E94F00A84E00E94E7
:103CC000CB08682F8BE894E00E94E20A80E00E9413
:103CD000CB08682F8BE894E00E94E20A86E00E94FD
:103CE000CB08682F8BE894E00E94E20A82E00E94F1
:103CF000CB08682F8BE894E00E94E20A68E971E043
:103D00008BE894E00E94870A0CCEF801EE0FFF1FAB
:103D1000EE0FFF1FE258FA4F88EE93E0A0E0B0E00C
:103D200080839183A283B383F801EE0FFF1FE659CE
:103D3000FA4F84E991E091838083F801EE0FFF1F31
:103D4000EA55FA4F11821082F801E253FA4F81E0EE
:103D500080830E943606000F111F000F111FF8010B
:103D6000EE5BFA4F60837183828393838091EC05CD
:103D70009091ED0501969093ED058093EC05E1C9D6
:103D8000F601EE0FFF1FEE0FFF1FE258FA4F60EE35
:103D900073E984E090E06083718382839383F6010A
:103DA000EE0FFF1FE659FA4F86E998E09183808372
:103DB000F601EE0FFF1FEA55FA4FA1E0B0E0B18324
:103DC000A083F601E253FA4F10830E943606F601F3
:103DD000EE0FFF1FEE0FFF1FEE5BFA4F6083718344
:103DE000828393838091EC059091ED0501969093E9
:103DF000ED058093EC05D8CB6115710559F0232BA7
:103E000049F0DB018C9190E0919581959109892B86
:103E100009F0CCCB68E173E08BE894E00E94F00AF3
:103E20006CE271E088EB91E00E94F30401E020E095
:103E300040E06FE080E00E947C0864EF71E080E089
:103E400090E00E94C104CBCB86E395E00E94290A52
:103E50008CE395E00E94290A8091F7059091F8057E
:103E60000E94AF208091F4059091F50597FD03C065
:103E700060E00E9455038AE891E0909312068093D7
:103E800011068091AE039091AF038151964071F479
:103E9000E0912406F0912506908180912606809578
:103EA000892380831092AF031092AE0308952F925E
:103EB0003F924F925F926F927F928F929F92AF92BA
:103EC000BF92CF92DF92EF92FF920F931F93CF9307
:103ED000DF93CDB7DEB7CA1BDB0B0FB6F894DEBF9E
:103EE0000FBECDBF09942A88398848885F846E84C4
:103EF0007D848C849B84AA84B984C884DF80EE800E
:103F0000FD800C811B81AA81B981CE0FD11D0FB616
:103F1000F894DEBF0FBECDBFED010895A29FB001A2
:103F2000B39FC001A39F700D811D1124911DB29FED
:103F3000700D811D1124911D089597FB072E16F415
:103F4000009407D077FD09D00E94FF1F07FC05D021
:103F50003EF4909581959F4F0895709561957F4FA0
:103F60000895A1E21A2EAA1BBB1BFD010DC0AA1FBA
:103F7000BB1FEE1FFF1FA217B307E407F50720F0D2
:103F8000A21BB30BE40BF50B661F771F881F991F4D
:103F90001A9469F760957095809590959B01AC0196
:103FA000BD01CF010895052E97FB1EF400940E94D9
:103FB000EA1F57FD07D00E94B11F07FC03D04EF443
:103FC0000C94EA1F50954095309521953F4F4F4FE7
:103FD0005F4F089590958095709561957F4F8F4FB5
:103FE0009F4F0895EE0FFF1F0590F491E02D099467
:103FF0000E948E1FB7FF0895821B930B0895AA1B82
:10400000BB1B51E107C0AA1FBB1FA617B70710F0C3
:10401000A61BB70B881F991F5A95A9F780959095F5
:10402000BC01CD0108950F931F93CF93DF9382308E
:10403000910510F482E090E0E0913206F0913306B1
:1040400030E020E0B0E0A0E0309799F42115310590
:1040500009F44AC0281B390B24303105D8F58A8170
:104060009B816115710589F1FB0193838283FE01B8
:1040700011C0408151810281138148175907E0F036
:104080004817590799F4109761F012960C931297FC
:1040900013961C933296CF01DF91CF911F910F9110
:1040A00008950093320610933306F4CF211531059D
:1040B00051F04217530738F0A901DB019A01BD0105
:1040C000DF01F801C1CFEF01F9CF90933306809360
:1040D0003206CDCFFE01E20FF31F81939193225060
:1040E000310939832883D7CF2091300630913106AA
:1040F000232B41F4209117013091180130933106A0
:1041000020933006209115013091160121153105BB
:1041100041F42DB73EB74091190150911A01241B6B
:10412000350BE0913006F0913106E217F307A0F469
:104130002E1B3F0B2817390778F0AC014E5F5F4FFD
:104140002417350748F04E0F5F1F509331064093F8
:104150003006819391939FCFF0E0E0E09CCFCF9326
:10416000DF930097E9F0FC01329713821282A0914D
:104170003206B0913306ED0130E020E01097A1F453
:1041800020813181820F931F2091300630913106BA
:104190002817390709F061C0F0933106E093300623
:1041A000DF91CF910895EA01CE17DF07E8F54A8144
:1041B0005B819E0141155105B1F7E901FB83EA835B
:1041C00049915991C40FD51FEC17FD0761F4808107
:1041D00091810296840F951FE901998388838281DA
:1041E00093819B838A83F0E0E0E012968D919C910D
:1041F00013970097B9F52D913C911197CD01029637
:10420000820F931F2091300630913106281739070D
:1042100039F6309751F51092330610923206B0936A
:104220003106A0933006BCCFD383C2834081518135
:10423000840F951FC817D90761F44E5F5F4F8881BF
:104240009981480F591F518340838A819B819383B1
:1042500082832115310509F0B0CFF0933306E09346
:1042600032069ECFFD01DC01C0CF13821282D7CF70
:10427000B0E0A0E0EEE3F1E20C94591F8C0100974E
:1042800051F4CB010E9413208C01C801CDB7DEB7D9
:10429000E0E10C94751FFC01E60FF71F9C01225012
:1042A0003109E217F30708F49DC0D901CD91DC91E3
:1042B0001197C617D70798F0C530D10530F3CE0156
:1042C00004978617970708F3C61BD70B2297C1934D
:1042D000D1936D937C93CF010E94AF20D6CF5B0129
:1042E000AC1ABD0A4C018C0E9D1EA0913206B091F5
:1042F0003306512C412CF12CE12C109731F5809193
:104300003006909131068815990509F05CC0461673
:10431000570608F058C0809115019091160100973A
:1043200041F48DB79EB74091190150911A01841B39
:10433000950BE817F90708F055C0F0933106E093A4
:104340003006F90171836083A0CF8D919C91119704
:1043500012966C90129713967C901397A815B90536
:1043600059F56C0142E0C40ED11CCA14DB0420F1E3
:10437000AC014A195B09DA011296159780F0628246
:10438000738251834083D9016D937C93E114F104CE
:1043900071F0D7011396FC93EE93129776CF229685
:1043A0008C0F9D1FF90191838083F301EFCFF09370
:1043B0003306E093320669CF4816590608F42C01FB
:1043C0007D01D3019ACFCB010E9413207C0100977D
:1043D00049F0AE01B8010E94F521C8010E94AF204A
:1043E000870153CF10E000E050CFFB01DC0102C099
:1043F00001900D9241505040D8F70895DC0101C062
:104400006D9341505040E0F70895FB01DC018D9120
:10441000019080190110D9F3990B0895FB01DC017B
:1044200001900D920020E1F7089510E0C3E6D0E07E
:1044300004C0FE010E94F21F2196C436D107C9F7BD
:04444000F894FFCF1E
:104444000107090202000501000101FF1932C81425
:104454000203000400000034068000000040001441
:10446400005400050A0F142802050A14280A1932F8
:1044740064C8313233410034353642003738394369
:10448400002A302344001000200040008000FE0079
:10449400FD00FB00F7000000000036029601C30196
:1044A4008302F401D201E60100000000FC06CF06FD
:1044B4001908A506C806B506A60600000000110ADC
:1044C4009601190895010000000084079601190857
:1044D400A506E007F8076C070D0A004155544F2064
:1044E400004D414E55200052004F5520503100469A
:1044F40045205031004F552041420046452041425D
:10450400004F5520504F00464520504F004F552036
:104514005032004645205032004445504C41004D35
:104524004F544F4E00415458204D0041545820419F
:104534000020202020202020202020202020202097
:10454400202020202000544120494E204558204C52
:1045540043204C4420434D44003252203342203502
:1045640042203220203220205041524B004F6B0019
:104574005031204F2E2E2E005031204F50454E00EA
:10458400503120462E2E2E00503120436C6F73651F
:104594000041525500415255202120004155003020
:1045A4000053C3A972696500506F736974696F6EB3
:1045B40000506F7274657300426F75746F6E0045BE
:1045C400727265757220706F736974696F6E0050D2
:1045D4003132204F70656E00504F23005032204618
:1045E4002E2E2E0050313220462E2E2E00504623E1
:1045F40000503132204F2E2E2E0045727265757296
:10460400205061726B004465706C6163656D656E0A
:104614007420616272692E2E2E00416272692066D6
:1046240065726DC3A90044462300444F23004162D0
:104634007269206F75766572740031323334006D9F
:104644000061007000544E005450004D6175766155
:10465400697320636F646500436F6465204F4B008A
:10466400502B00502D00442B00442D004D41006D73
:104674002B006D2D00646400322B00322D00412B81
:1046840000582B00582D00412D00503F00443F009E
:10469400413F00702D00702B004D3F00452B00451D
:0C46A4002D00492B00492D00433F000071
:00000001FF
