:100000000C9464000C948C000C948C000C94B91427
:100010000C94B9140C94B9140C948C000C947612B2
:100020000C948C000C948C000C948C000C948C0020
:100030000C948C000C948C000C948C000C948C0010
:100040000C9450130C948C000C941E130C94F81206
:100050000C948C000C948C000C948C000C948C00F0
:100060000C949A130C948C000000000024002700CC
:100070002A0002000000080002010000030407003B
:1000800000000000000000000000002300260029FE
:100090000000000000250028002B000404040404D4
:1000A0000404040202020202020303030303030125
:1000B00002040810204080010204081020010204FC
:1000C000081020003115271F11241FBECFEFD8E0E4
:1000D000DEBFCDBF26E0A0E7B3E001C01D92A8338C
:1000E000B207E1F713E0A0E0B1E0EAE4F4E402C013
:1000F00005900D92A037B107D9F710E0C3E6D0E024
:1001000004C02197FE010E94F51FC236D107C9F72E
:100110000E94A3160C9418220C9400008F929F92B8
:10012000AF92BF92CF92DF92EF92FF920F931F9305
:10013000FC014B01AA24BB24C52ED62EE72EFF249A
:10014000BC2DA42F9091FA05B82C992391F0A92FDA
:10015000B0E0A89D9001A99D300DB89D300D1124EF
:10016000B32E9C9D60011124BD2D949F800111240C
:10017000A12F409100062091FB053091FC05809154
:10018000FD05481324C0CF01880F991F8E0F9F1FB4
:10019000820F931FE091FD05E80FF92FF11DB0824A
:1001A000E091FE05E80FF92FF11DB0832091FF05C6
:1001B000820F911DFC01A0831F910F91FF90EF9082
:1001C000DF90CF90BF90AF909F908F900895CF0118
:1001D000880F991F880F991F820F931FFC01E40F4E
:1001E000F11D1082D7CF20917D0481E0213208F0EB
:1001F00044C0809159048111FCCF80917C0492E02D
:100200009093590491E0909358049FEF9093570472
:100210001092560420935504ACE5B4E0E5E3F4E015
:1002200090E0291331C01092340490913404880F67
:10023000892B8093340480913304813049F51092E6
:100240003304809134048093BB008091BC0083FD13
:10025000F8CF85EC8093BC00809159048230E1F3A3
:10026000809157048F3FB1F0809157048032A1F004
:1002700080915704803391F084E010925B041092D7
:100280007D0410925A0408953D9131939F5FC9CF28
:1002900085EEE0CF80E0F1CF82E0EFCF83E0EDCFDD
:1002A000909159049111FCCF91E09093590490934F
:1002B00058042FEF2093570410925604260F2093D2
:1002C00055049093340490913404880F892B8093C3
:1002D0003404809133048130F9F410923304809116
:1002E00034048093BB008091BC0083FDF8CF85EC83
:1002F0008093BC00809159048130E1F380915604D1
:10030000861710F460915604A5E3B4E0E3E1F4E04D
:1003100080E0861303C0089585EEEACF9D91919306
:100320008F5FF7CF0895089508950895AF92BF9213
:10033000CF92DF92EF92FF920F931F93CF93DF93B1
:100340006C017B018B01040F151FEB015E01AE18E0
:10035000BF08C017D10759F06991D601ED91FC9102
:100360000190F081E02DC6010995892B79F7C5012F
:10037000DF91CF911F910F91FF90EF90DF90CF9081
:10038000BF90AF900895FC01538D448D252F30E030
:10039000842F90E0821B930B541710F0CF96089592
:1003A00001970895FC01918D828D981761F0A28DBF
:1003B000AE0FBF2FB11D5D968C91928D9F5F9F7385
:1003C000928F90E008958FEF9FEF0895FC01918D3B
:1003D000828D981731F0828DE80FF11D858D90E0A8
:1003E00008958FEF9FEF0895FC01918D228D892F45
:1003F00090E0805C9F4F821B91098F73992708952D
:100400008FE894E00E94F40121E0892B09F420E0B8
:10041000822F089580E090E0892B29F00E9400024D
:1004200081110C9400000895FC01A48DA80FB92F30
:10043000B11DA35ABF4F2C91848D90E001968F730C
:100440009927848FA689B7892C93A089B1898C912B
:10045000837080648C93938D848D981306C002887A
:10046000F389E02D80818F7D80830895EF92FF9244
:100470000F931F93CF93DF93EC0181E0888F9B8DC7
:100480008C8D98131AC0E889F989808185FF15C081
:100490009FB7F894EE89FF896083E889F9898081A4
:1004A0008370806480839FBF81E090E0DF91CF9173
:1004B0001F910F91FF90EF900895F62E0B8D10E095
:1004C0000F5F1F4F0F731127E02E8C8D8E110CC004
:1004D0000FB607FCFACFE889F989808185FFF5CF4F
:1004E000CE010E941402F1CFEB8DEC0FFD2FF11D18
:1004F000E35AFF4FF0829FB7F8940B8FEA89FB898C
:1005000080818062CFCFCF93DF93EC01888D8823E9
:10051000B9F0AA89BB89E889F9898C9185FD03C066
:10052000808186FD0DC00FB607FCF7CF8C9185FF4B
:10053000F2CF808185FFEDCFCE010E941402E9CF7A
:10054000DF91CF910895833081F028F4813099F0C4
:100550008230A9F008958730A9F08830C9F084303E
:10056000B1F4809180008F7D03C0809180008F77EF
:1005700080938000089584B58F7784BD089584B5F5
:100580008F7DFBCF8091B0008F778093B00008956E
:100590008091B0008F7DF9CFCF93DF93282F30E08B
:1005A000F901ED58FF4F8491F901E155FF4FD491C6
:1005B000F901E556FF4FC491CC23A1F081110E94AF
:1005C000A302EC2FF0E0EE0FFF1FE957FF4FA591BC
:1005D000B491EC91ED2381E090E009F480E0DF91AB
:1005E000CF91089580E090E0FACF1F93CF93DF93EF
:1005F000282F30E0F901ED58FF4F8491F901E155C2
:10060000FF4FD491F901E556FF4FC491CC23A9F0D7
:10061000162F81110E94A302EC2FF0E0EE0FFF1FB6
:10062000EF56FF4FA591B4918FB7F894EC9111114B
:1006300008C0D095DE23DC938FBFDF91CF911F914F
:100640000895DE2BF8CF109211041092100410922E
:100650005B0410927D041092590481E08093580449
:100660001092330461E082E10E94F50261E083E1CF
:100670000E94F502E9EBF0E080818E7F808380812B
:100680008D7F808388E48093B80085E48093BC00EC
:1006900082E991E090930F0480930E0483E991E046
:1006A00090930D0480930C040895CF93DF9390E012
:1006B000FC01E155FF4F249185569F4FFC01849129
:1006C0008823D1F090E0880F991FFC01E859FF4F73
:1006D000A591B491FC01EF56FF4FC591D4916111E2
:1006E0000EC09FB7F8948C91E22FE0958E238C93E7
:1006F0002881E223E8839FBFDF91CF9108958FB7D0
:10070000F894EC91E22BEC938FBFF6CFCF93DF936D
:10071000EC0161E083E00E945503209731F460E032
:1007200083E0DF91CF910C94F502CF3FD10511F416
:1007300061E0F6CFE6E7F0E0E491E33029F140F440
:10074000E130B1F0E230D9F0C038D1058CF7E7CF15
:10075000E73021F1E83051F1E430B1F780918000C9
:10076000806280938000D0938B00C0938A0004C085
:1007700084B5806884BDC7BDDF91CF91089584B5ED
:10078000806284BDC8BDF8CF80918000806880936E
:100790008000D0938900C0938800EECF8091B00094
:1007A00080688093B000C093B300E6CF8091B00022
:1007B00080628093B000C093B400DECF3FB7F8945E
:1007C0008091FC039091FD03A091FE03B091FF0383
:1007D00026B5A89B05C02F3F19F00196A11DB11D9C
:1007E0003FBFBA2FA92F982F8827BC01CD01620FD8
:1007F000711D811D911D42E0660F771F881F991F93
:100800004A95D1F708950F931F93CF93DF93CDB7F8
:10081000DEB729970FB6F894DEBF0FBECDBF80912B
:10082000FB059091FC05892B09F467C00E94DE034B
:1008300000910106109102062091030630910406F2
:10084000601B710B820B930B6C327140810591051B
:1008500068F3F8948091F6059091F7059A8389835F
:10086000E091FB05F091FC05DF01119680818987FD
:100870009091F205E0910506F09106068091070639
:10088000992309F445C09081982B98879081809591
:1008900089238F838F818C8388E08B8358856F8138
:1008A00049853B812C8189819A81508347FD252F81
:1008B0003A952083262F39F0441F00C00000608342
:1008C000000000C0F2CF38E04D9160830000019736
:1008D00061F7F0930606E093050649873B832C8376
:1008E0009A83898378940E94DE0360930106709353
:1008F0000206809303069093040629960FB6F89497
:10090000DEBF0FBECDBFDF91CF911F910F91089534
:100910009081982B98879081809589238F838F81F0
:100920008E8388E08D8358856F8149853D812E8136
:1009300089819A81508347FD252F00C000C0208304
:1009400000C000C000C000C000C060830000262FAF
:100950003A9541F0441F000000C000C000C000C034
:1009600000C0E8CF38E04D9100C0608300C001971F
:1009700009F7F0930606E093050649873D832E8329
:10098000AFCF8F929F92AF92BF92CF92DF92EF92B2
:10099000FF924B015C010E94DE036B017C010E940F
:1009A000DE036C197D098E099F09683E734081053D
:1009B0009105A8F321E0821A9108A108B10888EEF8
:1009C000C80E83E0D81EE11CF11C81149104A1041F
:1009D000B10429F7FF90EF90DF90CF90BF90AF90D8
:1009E0009F908F9008954F925F926F927F928F9217
:1009F0009F92AF92BF92EF92FF920F931F93CF936C
:100A00008C017B0180910B018131D9F08F3F09F47A
:100A10003FC068EC70E080E090E00E94C1048091EB
:100A20000F0190E0CF911F910F91FF90EF90BF9039
:100A3000AF909F908F907F906F905F904F900C94AD
:100A40008603E2E7F0E0C491C7FDE3CF61E081E116
:100A50000E945503C11132C02801012E000C660806
:100A6000770862E17AE780E090E0A30192010E94BA
:100A7000D61F49015A0181E0881A9108A108B108DE
:100A800096E0C1113BC085B5887F846085BDABC051
:100A900081E180930B01E2E7F0E0C491CF3F09F4DC
:100AA000B8CFC13009F44AC080F1C23009F464C043
:100AB000C7FDAFCF61E081E10E9455039801012E8F
:100AC000000C440B550BC23009F078C029013A01E3
:100AD00064E274EF80E090E00E94D61F49015A0161
:100AE00081E0881A9108A108B10895E08FEF881677
:100AF0009104A104B10411F00CF0B3CF8091B100C6
:100B0000887F892B8093B1006EC014BC15BC84B55E
:100B1000826084BD85B5816085BDECEAF0E0E4913A
:100B2000F0E0EE0FFF1FEF56FF4F85919491E0EC40
:100B3000F0E0E491E0938204C0E088CF109280005E
:100B40001092810080918100886080938100809163
:100B50008100816080938100ECEAF0E0E491F0E0B4
:100B6000EE0FFF1FEF56FF4F85919491E0ECF0E000
:100B7000E491E09381046ACF1092B0001092B1002A
:100B80008091B00082608093B0008091B10081605C
:100B90008093B100ECEAF0E0E491F0E0EE0FFF1F8B
:100BA000EF56FF4F859194919093800480937F043A
:100BB000E0ECF0E0E491E0937E0448CF60E072E185
:100BC0008AE790E00E94D61F49015A0181E0881A05
:100BD0009108A108B108C13031F480918100887F6B
:100BE0008160809381009801220F331FD7010E94FA
:100BF000FB1F28EE33E040E050E00E94B41FC130FC
:100C000099F0C23019F1C11104CF87BC20938B0435
:100C100030938C0440938D0450938E0480916E0029
:100C2000826080936E00F5CE909289008092880059
:100C300020938704309388044093890450938A0456
:100C400080916F00826080936F00E3CE8092B3004A
:100C50002093830430938404409385045093860446
:100C600080917000826080937000D3CE2FB7F8948B
:100C70006091F8037091F9038091FA039091FB035E
:100C80002FBF08950F931F930E9436066093970419
:100C9000709398048093990490939A048FE894E059
:100CA0000E94D20197FF1DC00E9436060091970452
:100CB000109198042091990430919A04601B710B53
:100CC000820B930B0091930410919404209195044E
:100CD000309196046017710782079307F8F28FEF3F
:100CE0009FEF1F910F91089585ED8093BC00809137
:100CF000BC0084FDFCCF1092590408952091D403C8
:100D0000260F3327331F21323105ECF4209159048B
:100D1000FC0190E080E0243069F082E00895A09129
:100D2000D4032191AC014C545C4FA40FB52FB11DDD
:100D30002C930196861798F38091D403680F6093E3
:100D4000D40380E0089581E008950895E0911104AE
:100D500080911004E81730F4F0E0ED5EFB4F8081E5
:100D600090E008958FEF9FEF089590911104809186
:100D700010042FEF3FEF981748F4E92FF0E0ED5EF5
:100D8000FB4F208130E09F5F90931104C9010895CB
:100D90008091100490911104891B990B0895CF92B2
:100DA000DF92EF92FF920F931F93CF93DF937C011B
:100DB000CB018A0120915A04222389F0EB016B01B7
:100DC000C40ED51ECC15DD0569F06991D701ED91F2
:100DD000FC910190F081E02DC7010995F3CF642FBC
:100DE0000E947E06C801DF91CF911F910F91FF9065
:100DF000EF90DF90CF900895CF93DF931F92CDB700
:100E0000DEB7698320915A042223F9F020917D04F2
:100E1000203258F021E030E0FC013383228390E05F
:100E200080E00F90DF91CF91089580915B04E82FCF
:100E3000F0E0E45AFB4F998190838F5F80935B04CD
:100E400080937D0481E090E0ECCF61E0CE010196DB
:100E50000E947E06F7CFCF93C62F90911204906226
:100E600021E020935A0490937C0410925B0410922A
:100E70007D04682F8CE295E00E94FC066C2F8CE2CA
:100E800095E00E94FC06CF910C94F300FC012481B4
:100E900031E030935A0420937C0410925B0410924A
:100EA0007D048485682B8CE295E00E94FC060C94FE
:100EB000F30060930A0470930B0491E090935A043A
:100EC00080937C0410925B0410927D048CE295E088
:100ED0000E94FC060C94F3002091B2033091B303FE
:100EE0002817390771F49091B1038091B0039817D6
:100EF00041F0E091B103F0E0E059FC4F808190E0D7
:100F000008958FEF9FEF0895EF92FF920F931F9335
:100F1000CF93DF93DC015C96ED90FC905D97E1143C
:100F2000F10479F481E090E013969C938E931297EC
:100F300090E080E0DF91CF911F910F91FF90EF90B3
:100F400008955196ED91FC91529750968C9150973F
:100F5000982F90950FB75E962C915E97122F127076
:100F600021FD6095F8942081112319F1282B20830D
:100F7000E7012197F1F728E0462F50E0308160FF2C
:100F80001AC0382B3083E7012197F1F7BA01759524
:100F90006795215089F7112381F08081892380830F
:100FA0000FBF5C968D919C910197F1F781E090E0E5
:100FB000C1CF2923DCCF3923E5CF9081892BEFCF17
:100FC0002091B2033091B3032817390771F480914F
:100FD000B0032091B10390E0805C9F4F821B910988
:100FE00060E470E00E94A01F089590E080E0089502
:100FF0002091B2033091B30328173907B9F49091C7
:10100000B1038091B003981789F0E091B103F0E04B
:10101000E059FC4F80812091B10330E02F5F3F4FBA
:101020002F7333272093B10390E008958FEF9FEF44
:10103000089590E080E0089560E08CE00E94F50261
:1010400068E572E080E090E00E94C10461E08CE01D
:101050000C94F50260E085E00E94F50260E47CE912
:1010600080E090E00E94C10461E085E00C94F5020C
:101070008F929F92AF92BF92FF920F931F93CF9345
:10108000DF93982F990F990F990F24E0F22EF90E04
:1010900098E0899FE00111242B96469F002D112492
:1010A00010E030E020E048015901A62A322F212F1C
:1010B000102F0027802A912AA22AB32A8F2D90E090
:1010C000C817D9077CF02091F4053091F5058217F7
:1010D000930720F4B501A4010E948E000E9403042E
:1010E000F394ECCFDF91CF911F910F91FF90BF90C0
:1010F000AF909F908F9008950F93362FE42F90E03C
:101100004091F4055091F5058417950740F4422F5E
:1011100050E070E060E05E2B632B0E948E000023A5
:1011200019F00F910C9403040F9108950F9380917F
:101130000004882361F001E020E040E060E080E00E
:101140000E947C0881E080930701109200040F91B7
:10115000089590911204906221E020935A04909394
:101160007C0410925B0410927D04682F8CE295E061
:101170000E94FC060E94F3008091120461E08062EC
:101180000E94500110921104809310048CE295E0AB
:101190000E94B5060895CF93C82FC770883060F0BD
:1011A00083E10E94A90890E002C095958795CA95B1
:1011B000E2F78170CF91089582E1F3CFCF93DF936F
:1011C000C82FD1E0883008F4D0E08D2F0E94A90804
:1011D000C77041E050E060E070E004C0440F551F6C
:1011E000661F771FCA95D2F7682F642B8D2FDF916A
:1011F000CF910C942B07CF93DF93C82FDDE088307D
:1012000008F4DCE08D2F0E94A908C77041E050E08F
:1012100060E070E004C0440F551F661F771FCA9539
:10122000D2F7682F642B8D2FDF91CF910C942B0771
:10123000CF92DF92EF92FF920F931F93CF93DF93A2
:10124000C0910804D0910904F0903805E090390568
:10125000FE01EE0FFF1FE25BFE4F608171818F2D5B
:101260009E2D0E94590796E4C92E91E0D92E10E0D8
:1012700000E080911101909112010817190784F57F
:1012800061E08F2D0E945001109211048093100490
:101290008CE295E00E94B506F601419151916F01F3
:1012A00020910A0430910B04822793278417950715
:1012B000A1F485E08C9FF0018D9FF00D1124EE5C70
:1012C000FE4FE00FF11F8081082E000C990B9093C8
:1012D00007048093060480E00DC00F5F1F4FC9CF45
:1012E0008091060490910704009769F0109207041A
:1012F00010920604DF91CF911F910F91FF90EF9014
:10130000DF90CF9008956FEF70E08F2D9E2D0E949B
:1013100059072196D0930904C093080480911301C2
:1013200090911401C817D907B1F6109209041092D0
:101330000804D1CF0F931F93CF938C01C62F0E9427
:1013400046076C2F6460C8010E9446076C2F6B7FB4
:10135000C8010E94460783EC90E00197F1F7CF9116
:101360001F910F9108950F931F93CF93DF938C01DB
:10137000D62FC42F607F642B0E949A0980E1D89FEA
:10138000B00111246C2BC801DF91CF911F910F91F7
:101390000C949A09CF93DF93CDB7DEB728970FB699
:1013A000F894DEBF0FBECDBF98E0EBE1F1E0DE01C7
:1013B000119601900D929A95E1F79091100696176B
:1013C00010F46FEF690F262F30E0220F331F41E03A
:1013D00050E04C0F5D1F240F351FF9016081680F2D
:1013E000606840E088E096E028960FB6F894DEBF8B
:1013F0000FBECDBFDF91CF910C94B30940E061E007
:1014000088E096E00E94B3098BE39FE10197F1F732
:1014100080911106882321F060E080E00C94CA09D5
:10142000089541E00E94B30981E090E00895CF93D0
:10143000DF93EC0188819981009711F00E94B2201E
:10144000198218821D821C821B821A82DF91CF9121
:101450000895FC0180819181009711F00C94B220D5
:1014600008951092140660E088E096E00E94460716
:10147000E2EFF5E04481558170E060E0818592857E
:101480000E9401220E94030461E08BE00E94F502A9
:1014900061E089E00E94F50261E08AE00E94F502C5
:1014A00068EE73E080E090E00E94C10481E08093E8
:1014B00001048093070110920004089560E086E023
:1014C0000E94F50260E47CE980E090E00E94C104A3
:1014D00061E086E00E94F5020C94310A20913E05FD
:1014E00030913F05232B39F421E0FC0180818823D2
:1014F00061F020E00AC0BC0180913A0590913B0563
:101500000E94082221E0892BA1F7822F0895FB0178
:1015100001900020E9F73197AF01461B570BDC0122
:10152000ED91FC910280F381E02D09948F929F92BE
:10153000AF92BF92EF92FF920F931F93CF93DF93DF
:10154000CDB7DEB7A1970FB6F894DEBF0FBECDBF03
:101550007C01FA01CB0119A2223008F42AE08E01A5
:101560000F5D1F4F822E912CB12CA12CBF01A50124
:1015700094010E94B41FF901CA016A300CF5605D44
:10158000D8016E938D01232B242B252B79F790E026
:1015900080E0109721F0BD01C7010E94870AA19643
:1015A0000FB6F894DEBF0FBECDBFDF91CF911F9174
:1015B0000F91FF90EF90BF90AF909F908F90089504
:1015C000695CDECF462F50E070E060E02AE00C94CA
:1015D000960AAB01770F660B770B2AE00C94960AFC
:1015E0000F931F93CF93DF93EC010E94870A8C0126
:1015F00068E971E0CE010E94870A800F911FDF9198
:10160000CF911F910F9108950C94870A0F93CF9358
:10161000C09106018C2F880F63E08C0F0E94CA09CD
:10162000C33008F06FC0EC2FF0E0E050FF4F808136
:10163000682F70E08530E8F16450710988E096E029
:101640000E94E90A6DEB71E088E096E00E94040BCD
:1016500020910601822F90E0FC01E85FFE4F31E00F
:101660003083FC01E050FF4FE081F0E0E85DFE4F89
:101670006081FC01E45FFE4F60838D5F9B4FFC0146
:101680008081689F602D112441E082E0821B0E94CE
:10169000380880910601982F990F63E0890F0E9406
:1016A000CA0968EC70E080E090E0CF910F910C9453
:1016B000C1046F5F7F4F88E096E00E94E90A65EA07
:1016C00071E088E096E00E94040B20910601822FD1
:1016D00090E0FC01E85FFE4F1082FC01E050FF4FFC
:1016E000E081F0E0E35DFE4F6081FC01E45FFE4FCE
:1016F00060838D5F9B4FFC018081689F602D11246A
:1017000040E0C3CFC43029F56091040188E096E041
:101710000E94E20AE0910601F0E0E050FF4FE08114
:10172000F0E0E85DFE4FC081C093100101E020E0D1
:1017300040E06C2F81E00E947C0881E00E94CB0891
:10174000C89F602D112420E040E082E00E947C08C8
:10175000A0CFC330B1F46091030188E096E00E940D
:10176000E20AE0910601F0E0E050FF4FE081F0E096
:10177000ED5DFE4F808180930F0190E00E94860313
:1017800088CFEC2FF0E0E050FF4FE081EE3008F022
:1017900080CFF0E0E253F44F0C94F51FDC0BE30B29
:1017A000E60BE90BEC0BEF0BF20BFB0BFE0B010C4A
:1017B000040C070C0A0C0D0C67EA71E088E096E057
:1017C0000E94040B66CF6DEA71E0F8CF63EB71E025
:1017D000F5CF69EB71E0F2CF6FEB71E0EFCF65EC25
:1017E00071E0ECCF809102046BE971E08111E6CFEA
:1017F00060EA71E0E3CF6BEC71E0E0CF61ED71E0A6
:10180000DDCF67ED71E0DACF6DED71E0D7CF63EE3C
:1018100071E0D4CF69EE71E0D1CF6FEE71E0CECF41
:101820000F931F93CF93DF938C01EB01FC01808119
:1018300091810097E1F06881798161157105A9F0C6
:10184000428153812C813D814217530770F00E94E1
:1018500011228C819D81F801958384831D821C82D5
:10186000DF91CF911F910F9108950E94B22088813E
:101870009981F801918380838A819B8193838283FC
:101880008C819D8195838483198218821B821A82A0
:10189000E5CF0F931F93CF93DF93EC01888199815C
:1018A000009759F02A813B812617370730F081E0F5
:1018B000DF91CF911F910F9108958B016F5F7F4F43
:1018C0000E943B21009759F0998388831B830A83E8
:1018D0002C813D81232B59F7FC011082E8CF80E059
:1018E000E7CFEF92FF920F931F93CF93DF93611592
:1018F000710541F480E0DF91CF911F910F91FF902E
:10190000EF90089541155105B1F07B01EC010C8178
:101910001D81040F151FB8010E94490C882351F343
:10192000288139818C819D81B701820F931F0E948C
:1019300011221D830C8381E0DECFEF92FF920F9383
:101940001F93CF93DF93EC017B018A01BA010E94C0
:10195000490C81110BC0CE010E94170ACE01DF9104
:10196000CF911F910F91FF90EF9008951D830C83ED
:10197000B701888199810E941122F0CFCF93DF9324
:10198000EC01FB018617970749F0608171816115B1
:10199000710541F0448155810E949D0CCE01DF917B
:1019A000CF9108950E94170AF9CFFC01118210828D
:1019B0001382128215821482FB0101900020E9F744
:1019C0003197AF01461B570B0C949D0CAF92BF9201
:1019D000CF92DF92EF92FF920F931F93CF93DF93FB
:1019E0007C016B015A0189012417350720F48B2DE6
:1019F0005901042F182F6AE971E0C7010E94D50C24
:101A0000D6011496CD91DC91AC16BD0620F50C17CD
:101A10001D0708F4E801D601ED91FC911197EC0F38
:101A2000FD1F108110826D917C916A0D7B1D6115E7
:101A30007105E9F0FB0101900020E9F73197AF0152
:101A4000461B570BC7010E949D0CF60180819181B6
:101A5000C80FD91F1883C701DF91CF911F910F9134
:101A6000FF90EF90DF90CF90BF90AF900895C701A7
:101A70000E94170AEACFEF92FF920F93CF93DF9362
:101A800000D000D000D0CDB7DEB77C01809110012E
:101A900001E0623009F449C0633009F44AC0282FDC
:101AA00040E0613009F043C020E040E0682F81E071
:101AB0000E947C0844E150E065EF71E0C7010E949C
:101AC000710C2FE030E050E040E0B701CE0101960C
:101AD0000E94E60CBE016F5F7F4FC7010E94100C91
:101AE000CE0101960E94290A61E080E00E94CA09A5
:101AF000F701448155816081718188E096E00E9400
:101B0000960180910601982F990F63E0890F0E943A
:101B1000CA0926960FB6F894DEBF0FBECDBFDF917F
:101B2000CF910F91FF90EF900895282F482F60E0FC
:101B3000BECF20E0FBCF0F931F93CF93DF9300D056
:101B400000D000D0CDB7DEB760E08AE00E94F50299
:101B500060ED77E080E090E00E94C10410911001F8
:101B600000E020E040E0612F81E00E947C0820E05E
:101B700040E0612F82E00E947C0801E02FE04FE00E
:101B80006FE080E00E947C0880910F0190E00E944D
:101B900086030E94FE0988E08093140660E088E0D6
:101BA00096E00E94460762E080E00E94CA096AE06F
:101BB00072E088E096E00E94040B63E080E00E94FF
:101BC000CA096DE172E088E096E00E94040B809102
:101BD0000601982F990F63E0890F0E94CA0960914E
:101BE0000E06862F816080930E06696040E088E0D3
:101BF00096E00E94B30961E372E0CE0101960E9473
:101C0000D50C61E0CE0101960E943B0DCE010196FC
:101C10000E94290A60E08BE00E94F50281E00E94A8
:101C2000CB0891E0811190E090930104109207019C
:101C30001092000426960FB6F894DEBF0FBECDBFFB
:101C4000DF91CF911F910F910895CF93DF9300D033
:101C500000D000D0CDB7DEB760E08AE00E94F50288
:101C600060ED77E080E090E00E94C10464E372E000
:101C7000CE0101960E94D50C60E0CE0101960E9433
:101C80003B0DCE0101960E94290A60E087E00E9488
:101C9000F50260E47CE980E090E00E94C1046CE31E
:101CA00072E0CE0101960E94D50C61E0CE01019652
:101CB0000E943B0DCE0101960E94290A61E087E057
:101CC0000E94F50226960FB6F894DEBF0FBECDBF78
:101CD000DF91CF910895CF93DF9300D000D000D053
:101CE000CDB7DEB764E472E0CE0101960E94D50C58
:101CF00060E0CE0101960E943B0DCE0101960E944C
:101D0000290A60E088E00E94F50260E47CE980E056
:101D100090E00E94C1046CE472E0CE0101960E9442
:101D2000D50C61E0CE0101960E943B0DCE010196DB
:101D30000E94290A61E088E00E94F50261E08AE0E1
:101D40000E94F50226960FB6F894DEBF0FBECDBFF7
:101D5000DF91CF9108950F931F93CF93DF93CDB76A
:101D6000DEB728970FB6F894DEBF0FBECDBF8C014B
:101D70008FE894E00E94F4016AE971E0892BD1F1C7
:101D8000CE0101960E94D50C0E94420697FD0FC01D
:101D90008332910561F08F83188641E050E0BE01E7
:101DA000695F7F4FCE0101960E94710CEDCFBE019D
:101DB0006F5F7F4F8AE395E00E94100CCE01019681
:101DC0000E94290AF8011182108213821282158260
:101DD00014826AE375E0C8010E94BE0CC80128960F
:101DE0000FB6F894DEBF0FBECDBFDF91CF911F912C
:101DF0000F910895C8010E94D50CF0CF0F931F9347
:101E0000CF93DF93CDB7DEB72C970FB6F894DEBF34
:101E10000FBECDBF8C0165E572E08FE894E00E94B3
:101E2000F00A61E089E00E94F50261E08BE00E9427
:101E3000F50261E08CE00E94F50261E088E00E941A
:101E4000F50261E087E00E94F50261E086E00E9411
:101E5000F50261E085E00E94F50261E08BE00E94FE
:101E6000F50281E08093020469E572E0CE010196FB
:101E70000E94D50CF8014481558160817181CE01A9
:101E800001960E94710C811104C0CE0101960E943E
:101E9000170A18861F821A8619861C861B86BE01A1
:101EA0006F5F7F4FCE0107960E94BE0C63E0CE01AC
:101EB00007960E943B0DCE0107960E94290ACE018B
:101EC00001960E94290A01E020E042E360E081E0FF
:101ED0000E947C0883E00E94CB08811107C064E661
:101EE00070E080E090E00E94C104F4CF2C960FB621
:101EF000F894DEBF0FBECDBFDF91CF911F910F9140
:101F000008957F928F929F92AF92BF92CF92DF926D
:101F1000EF92FF920F931F93CF93DF9300D000D0E7
:101F200000D0CDB7DEB74B015C01042F722E0E94AA
:101F300036066B017C0110E00E9436066C197D09A3
:101F40008E099F09681579058A059B0508F076C0FA
:101F5000CE0101960E94AB0EBE016F5F7F4F8AE3F8
:101F600095E00E94100CCE0101960E94290A80E69D
:101F700092E00E946E0A882349F163E672E08FE8DE
:101F800094E00E94F00A65E672E0CE0101960E949C
:101F9000D50CCE0101960E94FE0ECE0101960E9444
:101FA000290A80E026960FB6F894DEBF0FBECDBF9B
:101FB000DF91CF911F910F91FF90EF90DF90CF9025
:101FC000BF90AF909F908F907F90089581E00E9486
:101FD000CB08811106C0113019F465EC72E0D5CF41
:101FE00011E0002369F085E00E94CB08882341F0CE
:101FF00087E00E94CB08882319F06CE672E0C5CF19
:10200000772069F086E00E94CB08882319F065E705
:1020100072E0BBCF82E00E94CB088111F8CF83E051
:102020000E94CB08811103C06CE772E0AECF64E67A
:1020300070E080E090E00E94C1047ECF81E0B2CFEA
:102040000F931F93CF93DF9300D000D000D0CDB774
:10205000DEB7182F882309F4F0C086E00E94CB0871
:102060008111B0C082E00E94CB088111ABC063E84F
:1020700072E0CE0101960E94D50C62E0CE0101967D
:102080000E943B0DCE0101960E94290A10E0812F8B
:1020900026960FB6F894DEBF0FBECDBFDF91CF916D
:1020A0001F910F91089564E670E080E090E00E9437
:1020B000C10486E00E94CB088111F5CF82E00E9426
:1020C000CB088111F0CF68E873E180E090E00E94D6
:1020D000C10461E087E00E94F50261E085E00E94B2
:1020E000F50263E972E0CE0101960E94D50C61E031
:1020F000CE0101960E943B0DCE0101960E94290A55
:102100006CE972E085E196E00E94F00AC0CF609130
:10211000100101E020E0462F81E00E947C0861E090
:102120008BE00E94F50260EA72E0CE0101960E9407
:10213000D50C61E0CE0101960E943B0DCE010196C7
:102140000E94290A60E086E00E94F50220E041E05A
:1021500060E47FE180E090E00E94810F882309F431
:1021600096CF68EA72E0CE0101960E94D50C60E03D
:10217000CE0101960E943B0DCE0101960E94290AD4
:1021800060E088E00E94F50220E041E060E47CE944
:1021900080E090E00E94810F082F882309F477CF18
:1021A00061E088E00E94F50261E086E00E94F502AD
:1021B00061EB72E085E196E00E94F00A0E94310A2C
:1021C000102F65CF0E949B0D88E08093140660E07D
:1021D00088E096E00E94460764E372E0CE01019633
:1021E0000E94D50C60E0CE0101960E943B0DCE010D
:1021F00001960E94290A60E087E00E94F50268E8E3
:1022000073E180E090E00E94C10460E085E00E94FC
:10221000F50265EB72E0CE0101960E94D50C60E0FC
:10222000CE0101960E943B0DCE0101960E94290A23
:1022300060E375E780E090E03ACF84E00E94CB084D
:10224000811106C080E00E94CB08882309F40FCFDB
:1022500085E00E94CB08882309F459CF63E872E037
:10226000CE0101960E94D50C62E0CE0101960E943B
:102270003B0DCE0101960E94290A09CF0F931F93AF
:10228000CF93DF9300D000D000D0CDB7DEB7882346
:1022900009F42AC187E00E94CB0881111CC063E8C1
:1022A00072E0CE0101960E94D50C62E0CE0101964B
:1022B0000E943B0DCE0101960E94290A10E0812F59
:1022C00026960FB6F894DEBF0FBECDBFDF91CF913B
:1022D0001F910F91089581E00E94CB08811119C0D0
:1022E0006EEB72E0CE0101960E94D50C62E0CE0149
:1022F00001960E943B0DCE0101960E94290A81E0C1
:102300000E94CB08882379F181E00E94CB088823C2
:10231000A9F261E089E00E94F5026091100101E0FC
:1023200020E0462F81E00E947C0886E00E94CB08D6
:10233000811120C082E00E94CB0881111BC08BE07C
:102340000E94CC02892B11F160E08BE00E94F50223
:1023500020E041E060E177E280E090E00E94810FC0
:10236000811114C0ABCF60E177E280E090E00E9481
:10237000C104C5CF8BE00E94CC02892B21F060E024
:102380008BE00E94F50281E00E9420106AEC72E06E
:10239000CE0101960E94D50C60E0CE0101960E940C
:1023A0003B0DCE0101960E94290A41E064E682E0DD
:1023B0000E94380885E00E94CB08882309F456C0A3
:1023C00087E00E94CB08882309F450C021E040E058
:1023D00068EF7AE280E090E00E94810F882309F4A0
:1023E0006DCF85E00E94CB08811157C021E040E00D
:1023F00060ED77E080E090E00E94810F182F882345
:1024000009F45CCF41E060E082E00E94380887E098
:102410000E94CB08882309F44DC061E089E00E9446
:10242000F5026EED72E0CE0101960E94D50C61E0DE
:10243000CE0101960E943B0DCE0101960E94290A11
:1024400064EF71E080E090E00E94C10480E00E94AF
:1024500020106AEE72E085E196E00E94F00A68EED4
:1024600073E088EB91E00E94F30429CF60E08CE0F8
:102470000E94F50268E572E080E090E00E94C104ED
:1024800061E08CE00E94F50221E040E060EA7FE03C
:1024900080E090E00E94810F8DCF87E00E94CB0802
:1024A000882309F4A3CF21E040E068EE73E080E0E8
:1024B00090E092CF6EEE72E085E196E00E94F00A25
:1024C00062EF72E0CE0101960E94D50C61E0CE0170
:1024D00001960E943B0DCE0101960E94290A60E000
:1024E00089E00E94F502BBCF85E0D5CE1F920F9206
:1024F0000FB60F9211242F933F934F935F936F93D7
:102500007F938F939F93AF93BF93EF93FF938091AC
:10251000830490918404A0918504B0918604892B52
:102520008A2B8B2BD1F190917E04E0917F04F09166
:102530008004808189278083809183049091840422
:10254000A0918504B0918604181619061A061B0678
:102550009CF48091830490918404A0918504B091AF
:1025600086040197A109B1098093830490938404A0
:10257000A0938504B0938604FF91EF91BF91AF9132
:102580009F918F917F916F915F914F913F912F918B
:102590000F900FBE0F901F90189580910B01E2E7EE
:1025A000F0E0E4919FEF90930B01E13051F030F0B7
:1025B000E23069F060E00E94F502DECF10926E001A
:1025C000F9CF90916F009D7F90936F00F3CF909122
:1025D00070009D7F9093700091E09093B000909177
:1025E000B100987F94609093B1001092B300E2CF55
:1025F0001F920F920FB60F9211242F933F934F9378
:102600005F936F937F938F939F93AF93BF93EF935A
:10261000FF938FE894E00E941402FF91EF91BF9125
:10262000AF919F918F917F916F915F914F913F916A
:102630002F910F900FBE0F901F9018951F920F9221
:102640000FB60F9211242F938F939F93EF93FF93C5
:10265000E0919F04F091A0048081E091A504F091A5
:10266000A60482FD1BC090818091A8048F5F8F73A8
:102670002091A904821741F0E091A804F0E0E1570D
:10268000FB4F958F8093A804FF91EF919F918F91BD
:102690002F910F900FBE0F901F9018958081F4CF4F
:1026A0001F920F920FB60F9211242F933F938F9387
:1026B0009F93AF93BF938091F8039091F903A091FA
:1026C000FA03B091FB033091F70323E0230F2D377A
:1026D00058F50196A11DB11D2093F7038093F803CF
:1026E0009093F903A093FA03B093FB038091FC034A
:1026F0009091FD03A091FE03B091FF030196A11DEF
:10270000B11D8093FC039093FD03A093FE03B0934F
:10271000FF03BF91AF919F918F913F912F910F90A8
:102720000FBE0F901F90189526E8230F0296A11D4B
:10273000B11DD2CF1F920F920FB60F9211242F937B
:102740003F934F935F936F937F938F939F93AF9339
:10275000BF93EF93FF938091B900887F803609F48F
:102760004AC0F0F5883209F4A7C018F5803109F4A1
:102770009BC0B8F4882309F4F9C0883009F494C0E8
:10278000FF91EF91BF91AF919F918F917F916F9149
:102790005F914F913F912F910F900FBE0F901F901F
:1027A0001895883109F488C0803251F78093570416
:1027B00014C0803409F49DC040F48033B9F38833E9
:1027C000F9F68093570485ECB0C0803509F485C0D4
:1027D000883509F496C0883499F60E947406D0CFE3
:1027E000883909F48CC038F5883729F050F48836D8
:1027F00011F0803729F683E0809359041092F60394
:1028000057C0883809F47BC0803919F0803809F046
:10281000B7CF8091F603803208F071C0E091F603E3
:1028200081E08E0F8093F6038091BB00F0E0EA52C6
:10283000FC4F80833DC0803B39F0E0F4803A09F4DE
:1028400079C0883A09F09CCF84E0809359041092B3
:10285000D5031092D403E0910E04F0910F04099572
:102860008091D40381110FC081E08093D403109232
:10287000B40309C0803C09F4A6CF883C09F4A3CF77
:10288000883B09F07DCFE091D50381E08E0F8093E6
:10289000D503F0E0EC54FC4F80818093BB00909115
:1028A000D5038091D40329C0809134048093BB0068
:1028B00085EC8093BC0064CF9091560480915504C0
:1028C000981758F5E091560481E08E0F80935604D6
:1028D000F0E0EB5CFB4F8081E9CFE091560481E0B2
:1028E0008E0F809356048091BB00F0E0EB5CFB4FB1
:1028F000808390915604809155049817C8F285E81A
:10290000D8CFE091560481E08E0F809356048091D9
:10291000BB00F0E0EB5CFB4F808380915804811199
:102920005CCF81E08093330484EA8093BC001092F2
:10293000590426CF85EC8093BC00109259048091F5
:10294000F603803230F4E091F603F0E0EA52FC4FF7
:1029500010826091F60370E0E0910C04F0910D0498
:1029600086ED93E009951092F6030ACF1092570472
:1029700034CF1F920F920FB60F9211242F933F93D3
:102980004F935F936F937F938F939F93AF93BF9377
:10299000EF93FF93E091B203F091B303309749F0C6
:1029A000A685B7858585968D91FF14C09C91892356
:1029B000A1F4FF91EF91BF91AF919F918F917F9182
:1029C0006F915F914F913F912F910F900FBE0F909C
:1029D0001F9018959C91892361F7A389B4899C91D4
:1029E0008589809589238C93868997890197F1F74A
:1029F000608D718DA685B785558538E020E0CB01C7
:102A00000197F1F7822F90E095958795282F4C91AB
:102A1000452309F02068315091F7868D81FD20957E
:102A20008091B00390E001968F7399273091B103A4
:102A3000381799F0A091B003B0E0A059BC4F2C9387
:102A40008093B003828D938D0197F1F7A389B489A8
:102A50008C919589892B8C93ACCF868D8160868FE4
:102A6000F1CFCF93DF93109292041092910488EEED
:102A700093E0A0E0B0E08093930490939404A0933B
:102A80009504B09396042AE531E0309390042093A6
:102A90008F0425EC30E030939C0420939B0424ECBD
:102AA00030E030939E0420939D0420EC30E030937E
:102AB000A00420939F0421EC30E03093A2042093E3
:102AC000A10422EC30E03093A4042093A30426EC6C
:102AD00030E03093A6042093A5041092A80410922D
:102AE000A9041092AA041092AB0410922F05109220
:102AF0002E058093300590933105A0933205B09355
:102B000033052CE631E030932D0520932C051092EF
:102B10001806109217068093190690931A06A09330
:102B20001B06B0931C068AE891E0909316068093EA
:102B3000150610922C0610922B0610922E0610925B
:102B40002D061092300610922F0610923206109227
:102B50003106609133066E7F6D7F60933306669514
:102B6000617081E0682782E00E94F50261E082E006
:102B70000E945503E1EBF0E0E491E0932506EDE9D6
:102B8000F0E0E491F0E0EE0FFF1FEF56FF4F85916C
:102B90009491909327068093260660E080E10E943E
:102BA00055038091330681FD04C061E080E10E94FD
:102BB000F50280E180932106EFEBF0E0E491E093F1
:102BC0002206EBEAF0E0E491F0E0EE0FFF1FE95798
:102BD000FF4F85919491909324068093230686E27B
:102BE00090E0909339058093380584E090E09093CD
:102BF000140180931301909312018093110110929C
:102C00000B0610920A068EE791E0909309068093D6
:102C100008061092110687E280930C0684E18093E7
:102C2000120684E080931306109214061092F305A6
:102C30001092FA05109201061092020610920306F5
:102C40001092040681E0809300068093FD051092A7
:102C5000FE0582E08093FF051092F20584E590E086
:102C60009093F7058093F6050E9416209093FC053B
:102C70008093FB05009709F45DC024E5DC011D92FB
:102C80002A95E9F78CE190E09093F5058093F4059F
:102C900084E090E09093F9058093F8058091F30526
:102CA000882341F061E084E00E94550360E084E005
:102CB0000E94F502EFE9F0E0E491F0E0EE0FFF1F73
:102CC000EF56FF4F859194919093060680930506E9
:102CD000E3EBF0E0E491E09307060E943606C2EDD4
:102CE000D5E0EEE6F5E046E455E019921192119236
:102CF000DA016D937D938D939D93AD019F01225BCE
:102D00003F4FD9011D921C92B5E0E238FB0769F7ED
:102D10001092F1051092F0056EEF72E080E495E0FC
:102D20000E94D50C6AE971E08AE395E0DF91CF91CA
:102D30000C94D50C1092F7051092F6051092F5053B
:102D40001092F405A5CFCF93DF93CDB7DEB766978A
:102D50000FB6F894DEBF0FBECDBF789484B5826005
:102D600084BD84B5816084BD85B5826085BD85B52F
:102D7000816085BD80916E00816080936E001092AD
:102D80008100809181008260809381008091810028
:102D900081608093810080918000816080938000B9
:102DA0008091B10084608093B1008091B000816017
:102DB0008093B00080917A00846080937A00809143
:102DC0007A00826080937A0080917A00816080939B
:102DD0007A0080917A00806880937A001092C10016
:102DE000E0919F04F091A00482E08083E0919F0431
:102DF000F091A0041082E0919B04F0919C04108259
:102E0000E0919D04F0919E0480E180831092A704DC
:102E1000E091A304F091A40486E08083E091A104F2
:102E2000F091A204808180618083E091A104F091FF
:102E3000A204808188608083E091A104F091A204C3
:102E4000808180688083E091A104F091A204808158
:102E50008F7D8083109212040E9423036FEF80E025
:102E60000E942B076FEF81E00E942B076FEF70E04D
:102E700080913805909139050E94590710920904F4
:102E80001092080461E08AE00E94F50261E08AE0A5
:102E90000E94550361E089E00E94F50261E089E04B
:102EA0000E94550361E08BE00E94F50261E08BE037
:102EB0000E94550361E08CE00E94F50261E08CE025
:102EC0000E94550361E088E00E94F50261E088E01D
:102ED0000E94550361E087E00E94F50261E087E00F
:102EE0000E94550361E086E00E94F50261E086E001
:102EF0000E94550361E085E00E94F50261E085E0F3
:102F00000E94550361E08BE00E94F50287E00E9479
:102F1000DE0887E00E94FB0885E00E94DE0885E06D
:102F20000E94FB0886E00E94DE0886E00E94FB0803
:102F300084E00E94DE0884E00E94FB0882E00E9498
:102F4000DE0882E00E94FB0880E00E94DE0880E04C
:102F50000E94FB0883E00E94DE0883E00E94FB08D9
:102F600081E00E94DE0860E084E10E94550361E098
:102F700083E00E94550380910F0190E00E94860338
:102F80008DE00E94DE088DE00E94FB088BE00E942D
:102F9000DE088BE00E94FB088EE00E94DE088EE0D7
:102FA0000E94FB0888E00E94DE0888E00E94FB087F
:102FB00089E00E94DE0889E00E94FB088AE00E9406
:102FC000DE088AE00E94FB088091F8059091F905DF
:102FD00097FD08C061E00E94550360E08091F8050C
:102FE0000E94F50281E08093F3054091F60550912F
:102FF000F70570E060E08091FB059091FC050E9470
:1030000001220E9403040E94230310920D06809166
:103010001306823018F098E090930D068093100606
:1030200062E370E080E090E00E94C10460911406C9
:1030300088E096E00E94460768EE73E080E090E04A
:103040000E94C10460E388E096E00E949A090BE4C4
:1030500016E4C8010197F1F760E388E096E00E946A
:103060009A09C8010197F1F760E388E096E00E94B1
:103070009A0983E592E00197F1F760E288E096E033
:103080000E949A0960910D06606240E088E096E037
:103090000E94B30984E080930E0640E06CE088E073
:1030A00096E00E94B3090E94FE0982E080930F0619
:1030B00040E066E088E096E00E94B30940E062E00C
:1030C00088E096E00E94B3098BE39FE10197F1F756
:1030D00062E080E00E94CA096AE072E088E096E05F
:1030E0000E94040B63E080E00E94CA096DE172E077
:1030F00088E096E00E94040B80910601982F990FBA
:1031000063E0890F0E94CA0960910E06862F8160D4
:1031100080930E06696040E088E096E00E94B30963
:103120008091F0059091F1050A9774F4EEE6F5E0D0
:1031300010E000E081919191892B09F4E9C50F5FBE
:103140001F4F0A301105B1F786E00E94CB088111AC
:1031500016C182E00E94CB08811111C10E949B0D13
:1031600087E00E94CB08882309F40CC161E089E064
:103170000E94F50287E00E94CB08882341F085E099
:103180000E94CB08882319F081E0809302049E01FD
:103190002F5F3F4F790111E00E9436062B013C0161
:1031A0006EE675E0788B6F87B6E4CB2EB5E0DB2E4C
:1031B000DE8ACD8AFB01312C212C9F0122593F4F01
:1031C000D9011D921C92808191813296892BB9F18F
:1031D000AD89BE894D915D916D917C911397DC967F
:1031E0008D909D90AD90BC90DF97D301C201841B60
:1031F000950BA60BB70B88159905AA05BB05F8F02A
:10320000480D591D6A1D7B1DAD89BE894D935D9387
:103210006D937C931397C1018E529A4FDC018C9170
:10322000882369F082AD93AD009709F0B3C0CF0158
:1032300084599F4F21E030E0DC012D933C937FEFD8
:10324000271A370A8D899E8904969E8B8D8B9AE06A
:103250002916310409F0B1CFB12CA12C4601A6E901
:103260008A0E911CF401808191818130910509F4CD
:10327000B3C0029709F4B6C0BFEFAB1ABB0AE2E0D5
:10328000CE0ED11CFAE0AF16B10441F78DE00E94DA
:10329000CB0881111BC00091040401270093040492
:1032A00064E670E088EB91E00E94F30460910D0108
:1032B000069F602D11244091090181E00E94380889
:1032C0006CE271E080E090E00E94C1048EE00E9418
:1032D000CB0881111BC00091030401270093030454
:1032E00064E670E088EB91E00E94F30460910C01C9
:1032F000069F602D11244091080182E00E94380849
:103300006CE271E080E090E00E94C1048BE00E94DA
:10331000CB0881111BC0009105040127009305040F
:1033200064E670E088EB91E00E94F30460910E0186
:10333000069F602D112440910A0180E00E94380808
:103340006CE271E080E090E00E94C10488E00E949D
:10335000CB08811195C080910701882309F473C0BF
:1033600088E08093140660E088E096E00E944607BB
:103370001092070168EC70E080E090E0B5C10E9417
:10338000310AEECE85E00E94CB08882309F4EECE08
:1033900060E0EDCE5F013EE4A30EB11CD5014D917E
:1033A0005C91481759070CF04ACF9F0124593F4FB1
:1033B00061E070E0D9016D937C934F5F5F4FD50161
:1033C0004D935C93481759070CF439CF62E070E0D5
:1033D000D9016D937C9333CFD6019896ED91FC91F2
:1033E00009954ACFD6019896ED91FC910995809167
:1033F000F0059091F105009709F43ECFF60120A564
:1034000031A5232B09F438CF11A610A6F501EE52F1
:10341000FA4F1082D4011D921C92F501EE0FFF1F8E
:10342000EE0FFF1FEA5BFA4F14AE15AE16AE17AEE5
:10343000F601E858FF4F1182108201979093F10531
:103440008093F00519CFE0910601E53009F057C1EE
:10345000E0910501ED30A0F4F0E0EF5CF54E0C9446
:10346000F51F3E1A261B291B2D1B2F1B331B351B3B
:10347000461B4E1B561B5E1B681B771B0E94250EAE
:103480008AE00E94CB08811116C0809106018F5FEF
:10349000863008F040C18093060180910601982F84
:1034A000990F63E0890F0E94CA0968EC70E080E020
:1034B00090E00E94C10489E00E94CB0881112AC0DB
:1034C00080910601E82FF0E0E050FF4F90819F5F70
:1034D0009083953028F09DEF980F923008F4108279
:1034E0009081973040F0853031F490910204911131
:1034F00002C01092050190819D3020F0853011F4BA
:103500001092050190819A3018F0853008F41082ED
:103510000E94060B0E941809082F882309F469C02D
:1035200064E670E088EB91E00E94F304B09007013C
:10353000BB2009F47AC118861F821A8619861C8658
:103540001B8609831A82F70101900020E9F7319761
:10355000AF014E195F09B701CE0107960E949D0C7D
:103560000E9436062B013C0101E02FE04FE06FE0A6
:1035700080E00E947C088091000481111AC0809133
:10358000F0059091F1050A9794F4D12CC12CAF85E8
:10359000B8898D919D91B88BAF87892B09F4F3C3BE
:1035A000BFEFCB1ADB0AEAE0CE16D10481F7109305
:1035B00000040E943606641975098609970960316E
:1035C00077428105910508F4A9C06FE073E08FE8A8
:1035D00094E00E94F00A6CE271E08CED90E00E94B1
:1035E000F304B12CCE0107960E94290AB110109263
:1035F0000701C7010E94AB0EB7018AE395E00E9464
:10360000100CC7010E94290A8AE991E00E946E0A03
:1036100081118AC180910204811111C284E293E078
:103620000E946E0A882309F44BC181E00E94201099
:1036300086E00E94CB08811106C082E00E94CB0880
:10364000882309F452C163E672E051C10E946B0EF7
:1036500017CF81E00E943E1113CF80E0FBCF81E0C5
:103660000E9420100DCF80E0FBCF8091020401E08A
:1036700020E081278093020460911001462F811180
:1036800001C040E081E00E947C08FACE80910204F3
:10369000882309F4F5CE0E942A08F2CE8091020414
:1036A000882309F4EDCE0E945E0AEACE80910204DE
:1036B000882309F4E5CE0E941C08E2CE8091020422
:1036C000882309F4DDCE60E08BE00E94F502D8CEBD
:1036D00080910204882321F060E08AE00E94F502D4
:1036E00068EE73E080E090E00E94C104C9CE809152
:1036F0000204882309F4C4CE61E08AE0E6CFF0E05A
:10370000E050FF4F8081882309F4BACE8150808336
:103710000E94060B2FCE10920601BFCE0E94180900
:10372000D82E882309F445CF64E670E088EB91E059
:103730000E94F30401E02FE04FE060E080E00E948F
:103740007C0868EC70E080E090E00E94C1042FE00B
:103750004FE06FE080E00E947C081A8219821C8290
:103760001B821E821D82BE01695F7F4FC7010E94BE
:10377000BE0CDD861E8641E050E0BE01635F7F4FD8
:10378000C7010E94710C811103C0C7010E94170A72
:10379000B701CE0107960E94BE0CC7010E94290AFC
:1037A0002B853C854CEF420F2530310508F440E075
:1037B00050E0BE01695F7F4FC7010E94E60CB70170
:1037C000CE0107960E94100CC7010E94290A4B8562
:1037D0005C856F8178858FE894E00E94960168E9A6
:1037E00071E08FE894E00E94870A2B853C858091E8
:1037F0004405909145052817390709F0DACE8F81E5
:1038000098856091400570914105009709F4F7C2D1
:103810006115710539F4232B09F4FFC2FC01808185
:1038200090E0F8C20E940822F5C281E0013419F04C
:10383000023421F480E00E943E11DBCE81E00334AB
:1038400019F0043421F480E00E942010D2CE0A3214
:1038500019F40E94250ECDCE033219F40E946B0E8E
:10386000C8CE802F000F990BF1E0813B9F07B1F488
:103870006091050461276093050480910E01689FA3
:10388000602D112440910A0180E00E9438086CE20A
:1038900071E080E090E00E94C104ABCE855D914074
:1038A00009F0A7CE6091040461276093040480911D
:1038B0000D01689F602D11244091090181E0E5CF41
:1038C00087E293E00E946E0A882309F498C080E0A2
:1038D0000E94201086E00E94CB08811106C082E081
:1038E0000E94CB08882309F4AECE61EB71E08FE82B
:1038F00094E00E94F00A82E493E00E946E0A60E085
:103900008111DBC085E493E00E946E0A60E08111C2
:1039100008C088E493E00E946E0A882309F4C6C0B8
:1039200061E08AE00E94F502C0900104D12C81E0A0
:103930000E94CB088C151D0421F10091100181E03B
:103940000E94CB08089F602D112401E020E040E098
:1039500082E00E947C0881E00E94CB0891E0811106
:1039600001C090E09093010481E00E94CB0869E0DF
:1039700073E0811102C06CE073E085E196E00E9483
:10398000F00A80910204811115C085E00E94CB08E5
:10399000882381F087E00E94CB08882359F06CE6E9
:1039A00072E0C7010E94D50CC7010E94FE0EC7013C
:1039B0000E94290A86E480937C0080917A008064CA
:1039C00080937A0080917A0086FDFCCF90917800F8
:1039D000809179008927982789278C32914014F4A7
:1039E0000E94250E80E090E0892B09F4D5CB0E943F
:1039F0000002882309F4CFCB0E940000C8CB8AE2E2
:103A000093E00E946E0A882329F081E00E943E1113
:103A100087E014CE8DE293E00E946E0A882329F09D
:103A200080E00E943E1185E009CE80E393E00E9491
:103A30006E0A882309F45FCF109302045CCF81E201
:103A400093E00E946E0A882319F01092020453CF6B
:103A500083E393E00E946E0A60E0811107C086E371
:103A600093E00E946E0A882329F061E08BE00E94B7
:103A7000F50241CF89E393E00E946E0A882319F092
:103A80000E941C0838CF8CE393E00E946E0A8823C2
:103A900019F00E942A082FCF8FE393E00E946E0A4C
:103AA000882309F428CF0E945E0A25CF8BE493E097
:103AB0000E946E0A882359F061E089E00E94F502B5
:103AC00061EB71E08FE894E00E94F00A2DCF8EE464
:103AD00093E00E946E0A882369F086E00E94CB087A
:103AE000811105C082E00E94CB08882349F363E678
:103AF00072E0E8CF81E593E00E946E0A882331F0FE
:103B000085E00E94CB088111DBCFF1CF84E593E003
:103B10000E946E0A882331F089E00E94CC02892B32
:103B200031F7CECF87E593E00E946E0A882319F023
:103B30000E946B0EDCCF8AE593E00E946E0A882318
:103B400019F00E94250ED3CF80E692E00E946E0A03
:103B5000882391F063E672E08FE894E00E94F00A17
:103B600065E672E0C7010E94D50CC7010E94FE0EF7
:103B7000C7010E94290AD8CE8DE593E00E946E0A03
:103B8000882349F08091020463E073E081119ACFA9
:103B900065E073E097CF80E693E00E946E0A882389
:103BA00041F040910A0160910E0180E00E943808C6
:103BB00087CF83E693E00E946E0A882331F040E0CD
:103BC00060E080E00E94380892CF86E693E00E9491
:103BD0006E0A882331F04091090160910D0181E066
:103BE000E5CF89E693E00E946E0A882321F040E049
:103BF00060E081E0E7CF8CE693E00E946E0A8823C4
:103C000009F492CE85E00E94CB0861E070E0882341
:103C100011F070E060E08FE894E00E94E90A87E02C
:103C20000E94CB0861E070E0882311F070E060E052
:103C30008FE894E00E94E90A84E00E94CB08811199
:103C400004C00E94CB0861E0811160E070E08FE861
:103C500094E00E94E90A86E00E94CB08811105C029
:103C600082E00E94CB0861E0811160E070E08FE8A3
:103C700094E00E94E90A89E00E94CC0261E070E0D1
:103C8000892B11F070E060E08FE894E00E94E90A6F
:103C900081E00E94CB0867E073E0811102C06AE90D
:103CA00072E08FE894E00E94040B8091020463E0CC
:103CB00073E0811102C065E073E08FE894E00E9438
:103CC000F00A84E00E94CB08682F8FE894E00E94FD
:103CD000E20A80E00E94CB08682F8FE894E00E94FF
:103CE000E20A86E00E94CB08682F8FE894E00E94E9
:103CF000E20A82E00E94CB08682F8FE894E00E94DD
:103D0000E20A68E971E08FE894E00E94870A0CCE2D
:103D1000F801EE0FFF1FEE0FFF1FEE57FA4F88EE70
:103D200093E0A0E0B0E080839183A283B383F801A5
:103D3000EE0FFF1FE259FA4F84E991E091838083EF
:103D4000F801EE0FFF1FE655FA4F11821082F801BD
:103D5000EE52FA4F81E080830E943606000F111F59
:103D6000000F111FF801EA5BFA4F608371838283B1
:103D700093838091F0059091F10501969093F10560
:103D80008093F005E1C9F601EE0FFF1FEE0FFF1F54
:103D9000EE57FA4F60EE73E984E090E06083718340
:103DA00082839383F601EE0FFF1FE259FA4F86E9F3
:103DB00098E091838083F601EE0FFF1FE655FA4FDE
:103DC000A1E0B0E0B183A083F601EE52FA4F108378
:103DD0000E943606F601EE0FFF1FEE0FFF1FEA5B93
:103DE000FA4F60837183828393838091F005909171
:103DF000F10501969093F1058093F005D8CB6115FC
:103E0000710559F0232B49F0DB018C9190E09195DD
:103E100081959109892B09F0CCCB6CE173E08FE897
:103E200094E00E94F00A6CE271E088EB91E00E945D
:103E3000F30401E020E040E06FE080E00E947C08B5
:103E400064EF71E080E090E00E94C104CBCB8AE394
:103E500095E00E94290A80E495E00E94290A809159
:103E6000FB059091FC050E94B2208091F80590918D
:103E7000F90597FD03C060E00E9455038AE891E0D0
:103E800090931606809315068091B2039091B30328
:103E90008551964071F4E0912806F09129069081B1
:103EA00080912A068095892380831092B303109213
:103EB000B20308952F923F924F925F926F927F923A
:103EC0008F929F92AF92BF92CF92DF92EF92FF922A
:103ED0000F931F93CF93DF93CDB7DEB7CA1BDB0BD6
:103EE0000FB6F894DEBF0FBECDBF09942A8839887B
:103EF00048885F846E847D848C849B84AA84B98482
:103F0000C884DF80EE80FD800C811B81AA81B9818D
:103F1000CE0FD11D0FB6F894DEBF0FBECDBFED01A1
:103F20000895A29FB001B39FC001A39F700D811D92
:103F30001124911DB29F700D811D1124911D0895B2
:103F400097FB072E16F4009407D077FD09D00E9446
:103F5000022007FC05D03EF4909581959F4F08956F
:103F6000709561957F4F0895A1E21A2EAA1BBB1B85
:103F7000FD010DC0AA1FBB1FEE1FFF1FA217B30735
:103F8000E407F50720F0A21BB30BE40BF50B661F4B
:103F9000771F881F991F1A9469F76095709580950F
:103FA00090959B01AC01BD01CF010895052E97FBB3
:103FB0001EF400940E94ED1F57FD07D00E94B41F0D
:103FC00007FC03D04EF40C94ED1F509540953095AE
:103FD00021953F4F4F4F5F4F089590958095709575
:103FE00061957F4F8F4F9F4F0895EE0FFF1F0590F4
:103FF000F491E02D09940E94911FB7FF0895821B50
:10400000930B0895AA1BBB1B51E107C0AA1FBB1F3E
:10401000A617B70710F0A61BB70B881F991F5A9554
:10402000A9F780959095BC01CD0108950F931F933A
:10403000CF93DF938230910510F482E090E0E0911D
:104040003606F091370630E020E0B0E0A0E030978F
:1040500099F42115310509F44AC0281B390B243085
:104060003105D8F58A819B816115710589F1FB01C4
:1040700093838283FE0111C04081518102811381AB
:1040800048175907E0F04817590799F4109761F05D
:1040900012960C93129713961C933296CF01DF91D0
:1040A000CF911F910F910895009336061093370614
:1040B000F4CF2115310551F04217530738F0A9010B
:1040C000DB019A01BD01DF01F801C1CFEF01F9CF9A
:1040D0009093370680933606CDCFFE01E20FF31F93
:1040E000819391932250310939832883D7CF20912E
:1040F000340630913506232B41F42091170130917D
:104100001801309335062093340620911501309123
:1041100016012115310541F42DB73EB74091190123
:1041200050911A01241B350BE0913406F0913506AD
:10413000E217F307A0F42E1B3F0B2817390778F07E
:10414000AC014E5F5F4F2417350748F04E0F5F1FDD
:104150005093350640933406819391939FCFF0E0BE
:10416000E0E09CCFCF93DF930097E9F0FC0132971A
:1041700013821282A0913606B0913706ED0130E02D
:1041800020E01097A1F420813181820F931F2091AC
:104190003406309135062817390709F061C0F093CD
:1041A0003506E0933406DF91CF910895EA01CE17EA
:1041B000DF07E8F54A815B819E0141155105B1F7A2
:1041C000E901FB83EA8349915991C40FD51FEC178C
:1041D000FD0761F4808191810296840F951FE901AA
:1041E00099838883828193819B838A83F0E0E0E0D6
:1041F00012968D919C9113970097B9F52D913C9152
:104200001197CD010296820F931F209134063091B1
:1042100035062817390739F6309751F510923706C9
:1042200010923606B0933506A0933406BCCFD383E4
:10423000C28340815181840F951FC817D90761F44B
:104240004E5F5F4F88819981480F591F518340838A
:104250008A819B81938382832115310509F0B0CF38
:10426000F0933706E09336069ECFFD01DC01C0CF08
:1042700013821282D7CFB0E0A0E0E1E4F1E20C9427
:104280005C1F8C01009751F4CB010E9416208C0119
:10429000C801CDB7DEB7E0E10C94781FFC01E60F52
:1042A000F71F9C0122503109E217F30708F49DC063
:1042B000D901CD91DC911197C617D70798F0C53079
:1042C000D10530F3CE0104978617970708F3C61B74
:1042D000D70B2297C193D1936D937C93CF010E940A
:1042E000B220D6CF5B01AC1ABD0A4C018C0E9D1ECC
:1042F000A0913606B0913706512C412CF12CE12CBF
:10430000109731F5809134069091350688159905FE
:1043100009F05CC04616570608F058C08091150198
:1043200090911601009741F48DB79EB74091190105
:1043300050911A01841B950BE817F90708F055C036
:10434000F0933506E0933406F90171836083A0CFC2
:104350008D919C91119712966C90129713967C9068
:104360001397A815B90559F56C0142E0C40ED11C8C
:10437000CA14DB0420F1AC014A195B09DA01129678
:10438000159780F06282738251834083D9016D93C7
:104390007C93E114F10471F0D7011396FC93EE9332
:1043A000129776CF22968C0F9D1FF90191838083FF
:1043B000F301EFCFF0933706E093360669CF481646
:1043C000590608F42C017D01D3019ACFCB010E943C
:1043D00016207C01009749F0AE01B8010E94F82137
:1043E000C8010E94B220870153CF10E000E050CFF7
:1043F000FB01DC0102C001900D9241505040D8F702
:104400000895DC0101C06D9341505040E0F70895DC
:10441000FB01DC018D91019080190110D9F3990BFA
:104420000895FB01DC0101900D920020E1F7089551
:1044300010E0C3E6D0E004C0FE010E94F51F219603
:0A444000C436D107C9F7F894FFCF86
:10444A000107090202000501000101FF1932C8141F
:10445A000203000400000038068000000040001437
:10446A00005400050A0F142802050A14280A1932F2
:10447A0064C8313233410034353642003738394363
:10448A00002A302344001000200040008000FE0073
:10449A00FD00FB00F7000000000036029601C30190
:1044AA008302F401D201E60100000000FC06CF06F7
:1044BA001908A506C806B506A60600000000110AD6
:1044CA009601190895010000000084079601190851
:1044DA00A506E007F8076C070D0A004155544F007E
:1044EA004D414E550052004F55205031004645204F
:1044FA005031004F55204142004645204142004F6D
:10450A005520504F00464520504F004F55205032FD
:10451A00004645205032004445504C41004D4F540E
:10452A004F4E00415458204D0041545820410041FB
:10453A0055544F20002020202020202020202020F9
:10454A0020202020202020202000544120494E20D5
:10455A004558204C43204C4420434D4400325220BD
:10456A003342203542203220203220205041524B03
:10457A00004F6B005031204F2E2E2E005031204F0D
:10458A0050454E00503120462E2E2E0050312043E9
:10459A006C6F73650041525500415255202120002D
:1045AA00415500300053C3A972696500506F7369A1
:1045BA0074696F6E00506F7274657300426F757420
:1045CA006F6E0045727265757220706F73697469D7
:1045DA006F6E00503132204F70656E00504F2300CD
:1045EA00503220462E2E2E0050313220462E2E2EAC
:1045FA000050462300503132204F2E2E2E00457295
:10460A0072657572205061726B004465706C6163EB
:10461A00656D656E7420616272692E2E2E0041628C
:10462A007269206665726DC3A90044462300444F2F
:10463A00230041627269206F7576657274003132A7
:10464A003334006D0061007000544E005450004D28
:10465A0061757661697320636F646500436F646591
:10466A00204F4B00502B00502D00442B00442D00AE
:10467A004D41006D2B006D2D00646400322B003219
:10468A002D00412B00582B00582D00412D00503F82
:10469A0000443F00413F00702D00702B004D3F0049
:1046AA00452B00452D00492B00492D00433F0000B2
:00000001FF
