:100000000C9464000C948C000C948C000C94AD1433
:100010000C94AD140C94AD140C948C000C946A12D6
:100020000C948C000C948C000C948C000C948C0020
:100030000C948C000C948C000C948C000C948C0010
:100040000C9444130C948C000C9412130C94EC122A
:100050000C948C000C948C000C948C000C948C00F0
:100060000C948E130C948C000000000024002700D8
:100070002A0002000000080002010000030407003B
:1000800000000000000000000000002300260029FE
:100090000000000000250028002B000404040404D4
:1000A0000404040202020202020303030303030125
:1000B00002040810204080010204081020010204FC
:1000C000081020002515401F11241FBECFEFD8E0D7
:1000D000DEBFCDBF26E0AAE3B3E001C01D92A2308F
:1000E000B207E1F713E0A0E0B1E0ECE7F4E402C00E
:1000F00005900D92AA33B107D9F710E0C3E6D0E01E
:1001000004C02197FE010E940E20C236D107C9F714
:100110000E9497160C9431220C9400008F929F92AB
:10012000AF92BF92CF92DF92EF92FF920F931F9305
:10013000FC014B01AA24BB24C52ED62EE72EFF249A
:10014000BC2DA42F9091C405B82C992391F0A92F10
:10015000B0E0A89D9001A99D300DB89D300D1124EF
:10016000B32E9C9D60011124BD2D949F800111240C
:10017000A12F4091CA052091C5053091C6058091F7
:10018000C705481324C0CF01880F991F8E0F9F1FEA
:10019000820F931FE091C705E80FF92FF11DB08280
:1001A000E091C805E80FF92FF11DB0832091C90532
:1001B000820F911DFC01A0831F910F91FF90EF9082
:1001C000DF90CF90BF90AF909F908F900895CF0118
:1001D000880F991F880F991F820F931FFC01E40F4E
:1001E000F11D1082D7CF2091470481E0213208F021
:1001F00044C0809123048111FCCF8091460492E099
:100200009093230491E0909322049FEF9093210414
:100210001092200420931F04A6E2B4E0EFEFF3E075
:1002200090E0291331C01092FE039091FE03880FD5
:10023000892B8093FE038091FD03813049F5109254
:10024000FD038091FE038093BB008091BC0083FD81
:10025000F8CF85EC8093BC00809123048230E1F3D9
:10026000809121048F3FB1F0809121048032A1F070
:1002700080912104803391F084E010922504109243
:1002800047041092240408953D9131939F5FC9CF94
:1002900085EEE0CF80E0F1CF82E0EFCF83E0EDCFDD
:1002A000909123049111FCCF91E0909323049093BB
:1002B00022042FEF2093210410922004260F209374
:1002C0001F049093FE039091FE03880F892B809367
:1002D000FE038091FD038130F9F41092FD038091BB
:1002E000FE038093BB008091BC0083FDF8CF85ECBA
:1002F0008093BC00809123048130E1F3809120043D
:10030000861710F460912004AFEFB3E0EDEDF3E059
:1003100080E0861303C0089585EEEACF9D91919306
:100320008F5FF7CF0895089508950895AF92BF9213
:10033000CF92DF92EF92FF920F931F93CF93DF93B1
:100340006C017B018B01040F151FEB015E01AE18E0
:10035000BF08C017D10759F06991D601ED91FC9102
:100360000190F081E02DC6010995892B79F7C5012F
:10037000DF91CF911F910F91FF90EF90DF90CF9081
:10038000BF90AF900895FC01538D448D252F30E030
:10039000842F90E0821B930B541710F0CF96089592
:1003A00001970895FC01918D828D981761F0A28DBF
:1003B000AE0FBF2FB11D5D968C91928D9F5F9F7385
:1003C000928F90E008958FEF9FEF0895FC01918D3B
:1003D000828D981731F0828DE80FF11D858D90E0A8
:1003E00008958FEF9FEF0895FC01918D228D892F45
:1003F00090E0805C9F4F821B91098F73992708952D
:1004000089E594E00E94F40121E0892B09F420E0C1
:10041000822F089580E090E0892B29F00E9400024D
:1004200081110C9400000895FC01A48DA80FB92F30
:10043000B11DA35ABF4F2C91848D90E001968F730C
:100440009927848FA689B7892C93A089B1898C912B
:10045000837080648C93938D848D981306C002887A
:10046000F389E02D80818F7D80830895EF92FF9244
:100470000F931F93CF93DF93EC0181E0888F9B8DC7
:100480008C8D98131AC0E889F989808185FF15C081
:100490009FB7F894EE89FF896083E889F9898081A4
:1004A0008370806480839FBF81E090E0DF91CF9173
:1004B0001F910F91FF90EF900895F62E0B8D10E095
:1004C0000F5F1F4F0F731127E02E8C8D8E110CC004
:1004D0000FB607FCFACFE889F989808185FFF5CF4F
:1004E000CE010E941402F1CFEB8DEC0FFD2FF11D18
:1004F000E35AFF4FF0829FB7F8940B8FEA89FB898C
:1005000080818062CFCFCF93DF93EC01888D8823E9
:10051000B9F0AA89BB89E889F9898C9185FD03C066
:10052000808186FD0DC00FB607FCF7CF8C9185FF4B
:10053000F2CF808185FFEDCFCE010E941402E9CF7A
:10054000DF91CF910895833081F028F4813099F0C4
:100550008230A9F008958730A9F08830C9F084303E
:10056000B1F4809180008F7D03C0809180008F77EF
:1005700080938000089584B58F7784BD089584B5F5
:100580008F7DFBCF8091B0008F778093B00008956E
:100590008091B0008F7DF9CFCF93DF93282F30E08B
:1005A000F901ED58FF4F8491F901E155FF4FD491C6
:1005B000F901E556FF4FC491CC23A1F081110E94AF
:1005C000A302EC2FF0E0EE0FFF1FE957FF4FA591BC
:1005D000B491EC91ED2381E090E009F480E0DF91AB
:1005E000CF91089580E090E0FACF1F93CF93DF93EF
:1005F000282F30E0F901ED58FF4F8491F901E155C2
:10060000FF4FD491F901E556FF4FC491CC23A9F0D7
:10061000162F81110E94A302EC2FF0E0EE0FFF1FB6
:10062000EF56FF4FA591B4918FB7F894EC9111114B
:1006300008C0D095DE23DC938FBFDF91CF911F914F
:100640000895DE2BF8CF1092DB031092DA0310929C
:100650002504109247041092230481E08093220421
:100660001092FD0361E082E10E94F50261E083E106
:100670000E94F502E9EBF0E080818E7F808380812B
:100680008D7F808388E48093B80085E48093BC00EC
:1006900082E991E09093D9038093D80383E991E0B4
:1006A0009093D7038093D6030895CF93DF9390E080
:1006B000FC01E155FF4F249185569F4FFC01849129
:1006C0008823D1F090E0880F991FFC01E859FF4F73
:1006D000A591B491FC01EF56FF4FC591D4916111E2
:1006E0000EC09FB7F8948C91E22FE0958E238C93E7
:1006F0002881E223E8839FBFDF91CF9108958FB7D0
:10070000F894EC91E22BEC938FBFF6CFCF93DF936D
:10071000EC0161E083E00E945503209731F460E032
:1007200083E0DF91CF910C94F502CF3FD10511F416
:1007300061E0F6CFE6E7F0E0E491E33029F140F440
:10074000E130B1F0E230D9F0C038D1058CF7E7CF15
:10075000E73021F1E83051F1E430B1F780918000C9
:10076000806280938000D0938B00C0938A0004C085
:1007700084B5806884BDC7BDDF91CF91089584B5ED
:10078000806284BDC8BDF8CF80918000806880936E
:100790008000D0938900C0938800EECF8091B00094
:1007A00080688093B000C093B300E6CF8091B00022
:1007B00080628093B000C093B400DECF3FB7F8945E
:1007C0008091C2039091C303A091C403B091C5036B
:1007D00026B5A89B05C02F3F19F00196A11DB11D9C
:1007E0003FBFBA2FA92F982F8827BC01CD01620FD8
:1007F000711D811D911D42E0660F771F881F991F93
:100800004A95D1F708950F931F93CF93DF93CDB7F8
:10081000DEB729970FB6F894DEBF0FBECDBF80912B
:10082000C5059091C605892B09F467C00E94DE03B7
:100830000091CB051091CC052091CD053091CE05CE
:10084000601B710B820B930B6C327140810591051B
:1008500068F3F8948091C0059091C1059A838983CB
:10086000E091C505F091C605DF0111968081898769
:100870009091BC05E091CF05F091D0058091D10514
:10088000992309F445C09081982B98879081809591
:1008900089238F838F818C8388E08B8358856F8138
:1008A00049853B812C8189819A81508347FD252F81
:1008B0003A952083262F39F0441F00C00000608342
:1008C000000000C0F2CF38E04D9160830000019736
:1008D00061F7F093D005E093CF0549873B832C83E4
:1008E0009A83898378940E94DE036093CB0570938A
:1008F000CC058093CD059093CE0529960FB6F8943C
:10090000DEBF0FBECDBFDF91CF911F910F91089534
:100910009081982B98879081809589238F838F81F0
:100920008E8388E08D8358856F8149853D812E8136
:1009300089819A81508347FD252F00C000C0208304
:1009400000C000C000C000C000C060830000262FAF
:100950003A9541F0441F000000C000C000C000C034
:1009600000C0E8CF38E04D9100C0608300C001971F
:1009700009F7F093D005E093CF0549873D832E8397
:10098000AFCF8F929F92AF92BF92CF92DF92EF92B2
:10099000FF924B015C010E94DE036B017C010E940F
:1009A000DE036C197D098E099F09683E734081053D
:1009B0009105A8F321E0821A9108A108B10888EEF8
:1009C000C80E83E0D81EE11CF11C81149104A1041F
:1009D000B10429F7FF90EF90DF90CF90BF90AF90D8
:1009E0009F908F9008954F925F926F927F928F9217
:1009F0009F92AF92BF92EF92FF920F931F93CF936C
:100A00008C017B0180910B018131D1F08F3F09F482
:100A10003EC068EC70E080E090E00E94C10484E198
:100A200090E0CF911F910F91FF90EF90BF90AF900A
:100A30009F908F907F906F905F904F900C94860363
:100A4000E2E7F0E0C491C7FDE4CF61E081E10E94FC
:100A50005503C11132C02801012E000C6608770829
:100A600062E17AE780E090E0A30192010E94EF1F2B
:100A700049015A0181E0881A9108A108B10896E05D
:100A8000C1113BC085B5887F846085BDABC081E165
:100A900080930B01E2E7F0E0C491CF3F09F4B9CFB6
:100AA000C13009F44AC080F1C23009F464C0C7FD06
:100AB000B0CF61E081E10E9455039801012E000C46
:100AC000440B550BC23009F078C029013A0164E2A9
:100AD00074EF80E090E00E94EF1F49015A0181E02D
:100AE000881A9108A108B10895E08FEF8816910443
:100AF000A104B10411F00CF0B3CF8091B100887F54
:100B0000892B8093B1006EC014BC15BC84B5826083
:100B100084BD85B5816085BDECEAF0E0E491F0E04C
:100B2000EE0FFF1FEF56FF4F85919491E0ECF0E040
:100B3000E491E0934C04C0E088CF109280001092C2
:100B40008100809181008860809381008091810084
:100B5000816080938100ECEAF0E0E491F0E0EE0F38
:100B6000FF1FEF56FF4F85919491E0ECF0E0E49188
:100B7000E0934B046ACF1092B0001092B1008091C4
:100B8000B00082608093B0008091B100816080935A
:100B9000B100ECEAF0E0E491F0E0EE0FFF1FEF5659
:100BA000FF4F8591949190934A0480934904E0EC1F
:100BB000F0E0E491E093480448CF60E072E18AE716
:100BC00090E00E94EF1F49015A0181E0881A9108C4
:100BD000A108B108C13031F480918100887F816023
:100BE000809381009801220F331FD7010E941420A7
:100BF00028EE33E040E050E00E94CD1FC13099F074
:100C0000C23019F1C11105CF87BC20935504309330
:100C10005604409357045093580480916E008260AC
:100C200080936E00F6CE9092890080928800209387
:100C300051043093520440935304509354048091D0
:100C40006F00826080936F00E4CE8092B3002093A7
:100C50004D0430934E0440934F04509350048091C0
:100C60007000826080937000D4CE2FB7F8946091AA
:100C7000BE037091BF038091C0039091C1032FBF49
:100C800008950F931F93CF93DF93EC010E943506D5
:100C9000688779878A879B87E881F9810284F38551
:100CA000E02DCE01099597FF15C00E9435060885F5
:100CB00019852A853B85601B710B820B930B0C8178
:100CC0001D812E813F81601771078207930720F3F2
:100CD0008FEF9FEFDF91CF911F910F91089585EDD9
:100CE0008093BC008091BC0084FDFCCF1092230453
:100CF000089520919A03260F3327331F213231059F
:100D0000ECF420912304FC0190E080E0243069F0B1
:100D100082E00895A0919A032191AC0146585C4F5E
:100D2000A40FB52FB11D2C930196861798F38091CF
:100D30009A03680F60939A0380E0089581E0089514
:100D40000895E091DB038091DA03E81730F4F0E0D6
:100D5000E352FC4F808190E008958FEF9FEF08955C
:100D60009091DB038091DA032FEF3FEF981748F45F
:100D7000E92FF0E0E352FC4F208130E09F5F909339
:100D8000DB03C90108958091DA039091DB03891B8D
:100D9000990B0895CF92DF92EF92FF920F931F93DA
:100DA000CF93DF937C01CB018A012091240422237D
:100DB00089F0EB016B01C40ED51ECC15DD0569F081
:100DC0006991D701ED91FC910190F081E02DC7016F
:100DD0000995F3CF642F0E947906C801DF91CF9166
:100DE0001F910F91FF90EF90DF90CF900895CF93D8
:100DF000DF931F92CDB7DEB76983209124042223AD
:100E0000F9F020914704203258F021E030E0FC0155
:100E10003383228390E080E00F90DF91CF9108959B
:100E200080912504E82FF0E0EA5DFB4F99819083E3
:100E30008F5F809325048093470481E090E0ECCF9E
:100E400061E0CE0101960E947906F7CFCF93C62FBD
:100E50009091DC03906221E0209324049093460457
:100E60001092250410924704682F86EF94E00E94A8
:100E7000F7066C2F86EF94E00E94F706CF910C9452
:100E8000F300FC01248131E03093240420934604D4
:100E900010922504109247048485682B86EF94E015
:100EA0000E94F7060C94F3006093D4037093D5036B
:100EB00091E09093240480934604109225041092AC
:100EC000470486EF94E00E94F7060C94F30020910B
:100ED000C8033091C9032817390771F49091C603EC
:100EE0008091C703981741F0E091C603F0E0E65CFB
:100EF000FC4F808190E008958FEF9FEF0895EF926F
:100F0000FF920F931F93CF93DF93DC015C96ED90DC
:100F1000FC905D97E114F10479F481E090E0139680
:100F20009C938E93129790E080E0DF91CF911F9178
:100F30000F91FF90EF9008955196ED91FC9152978B
:100F400050968C915097982F90950FB75E962C9154
:100F50005E97122F127021FD6095F8942081112365
:100F600019F1282B2083E7012197F1F728E0462F7C
:100F700050E0308160FF1AC0382B3083E7012197A1
:100F8000F1F7BA0175956795215089F7112381F022
:100F90008081892380830FBF5C968D919C910197FE
:100FA000F1F781E090E0C1CF2923DCCF3923E5CFF1
:100FB0009081892BEFCF2091C8033091C903281766
:100FC000390771F48091C7032091C60390E0805CDB
:100FD0009F4F821B910960E470E00E94B91F089541
:100FE00090E080E008952091C8033091C90328174C
:100FF0003907B9F49091C6038091C703981789F017
:10100000E091C603F0E0E65CFC4F80812091C603CE
:1010100030E02F5F3F4F2F7333272093C60390E0BC
:1010200008958FEF9FEF089590E080E008958F92EC
:101030009F92AF92BF92FF920F931F93CF93DF9334
:10104000982F990F990F990F24E0F22EF90E98E03E
:10105000899FE00111242B96469F002D112410E05A
:1010600030E020E048015901A62A322F212F102F0D
:101070000027802A912AA22AB32A8F2D90E0C81730
:10108000D9077CF02091BE053091BF0582179307E8
:1010900020F4B501A4010E948E000E940304F39481
:1010A000ECCFDF91CF911F910F91FF90BF90AF9048
:1010B0009F908F9008950F93362FE42F90E04091EA
:1010C000BE055091BF058417950740F4422F50E0AC
:1010D00070E060E05E2B632B0E948E00002319F00D
:1010E0000F910C9403040F9108950F938091CA03FC
:1010F000882339F001E020E040E060E080E00E94D9
:101100005B081092CA030F9108950F93CF93DF935A
:1011100001E02FE04FE06FE080E00E945B088091EB
:10112000CA03811115C08091BA059091BB050A9739
:1011300064F4E8E3F5E0D0E0C0E081919191892B7F
:1011400059F02196CA30D105C1F781E08093CA03D6
:10115000DF91CF910F910895FE01EE0FFF1FEE0F6B
:10116000FF1FE45BFA4F80E395E7A0E0B0E08083E7
:101170009183A283B383FE01EE0FFF1FE85CFA4F59
:1011800085E798E091838083FE01EE0FFF1FEC5806
:10119000FA4F81E090E091838083FE01E456FA4F9C
:1011A00080830E943506CC0FDD1FCC0FDD1FC05F92
:1011B000DA4F688379838A839B838091BA05909103
:1011C000BB0501969093BB058093BA05BECF909165
:1011D000DC03906221E02093240490934604109253
:1011E000250410924704682F86EF94E00E94F706CA
:1011F0000E94F3008091DC0361E080620E94500154
:101200001092DB038093DA0386EF94E00E94B0062D
:101210000895CF93C82FC770883060F083E10E9493
:10122000E70890E002C095958795CA95E2F781702E
:10123000CF91089582E1F3CFCF93DF93C82FD1E010
:10124000883008F4D0E08D2F0E94E708C77041E095
:1012500050E060E070E004C0440F551F661F771F28
:10126000CA95D2F7682F642B8D2FDF91CF910C9404
:101270002607CF93DF93C82FDDE0883008F4DCE049
:101280008D2F0E94E708C77041E050E060E070E0F9
:1012900004C0440F551F661F771FCA95D2F7682FE9
:1012A000642B8D2FDF91CF910C942607CF92DF9284
:1012B000EF92FF920F931F93CF93DF93C091D203CE
:1012C000D091D303F0900205E0900305FE01EE0FEC
:1012D000FF1FE65CFE4F608171818F2D9E2D0E9465
:1012E000540792E3C92E91E0D92E10E000E08091DE
:1012F0000C0190910D010817190784F561E08F2DFD
:101300000E9450011092DB038093DA0386EF94E091
:101310000E94B006F601419151916F012091D403D2
:101320003091D5038227932784179507A1F485E090
:101330008C9FF0018D9FF00D1124E25EFE4FE00FB7
:10134000F11F8081082E000C990B9093D10380939C
:10135000D00380E00DC00F5F1F4FC9CF8091D00335
:101360009091D103009769F01092D1031092D003AD
:10137000DF91CF911F910F91FF90EF90DF90CF9071
:1013800008956FEF70E08F2D9E2D0E9454072196D7
:10139000D093D303C093D20380910E0190910F019B
:1013A000C817D907B1F61092D3031092D203D1CF48
:1013B0000F931F93CF938C01C62F0E9441076C2F70
:1013C0006460C8010E9441076C2F6B7FC8010E94B6
:1013D000410783EC90E00197F1F7CF911F910F91B6
:1013E00008950F931F93CF93DF938C01D62FC42FB3
:1013F000607F642B0E94D80980E1D89FB00111243E
:101400006C2BC801DF91CF911F910F910C94D809DB
:10141000CF93DF93CDB7DEB728970FB6F894DEBF32
:101420000FBECDBF98E0E6E1F1E0DE01119601903C
:101430000D929A95E1F79091DA05961710F46FEFF7
:10144000690F262F30E0220F331F41E050E04C0F90
:101450005D1F240F351FF9016081680F606840E04F
:1014600082ED95E028960FB6F894DEBF0FBECDBF93
:10147000DF91CF910C94F10940E061E082ED95E0BD
:101480000E94F1098BE39FE10197F1F78091DB0561
:10149000882321F060E080E00C94080A089541E080
:1014A0000E94F10981E090E00895CF93DF93EC0171
:1014B00088819981009711F00E94CB2019821882AF
:1014C0001D821C821B821A82DF91CF910895FC013C
:1014D000808191810C94CB201092DE0560E082ED3A
:1014E00095E00E944107ECEBF5E04481558170E006
:1014F00060E0818592850E941A220E94030461E0C7
:101500008BE00E94F50261E089E00E94F50281E033
:101510008093CB03809307010895209108053091B3
:101520000905232B39F421E0FC018081882361F037
:1015300020E00AC0BC0180910405909105050E943D
:10154000212221E0892BA1F7822F0895FB01019030
:101550000020E9F73197AF01461B570BDC01ED91F5
:10156000FC910280F381E02D0994CF93DF93FC017D
:10157000448155816081718189E594E00E949601E2
:10158000EC0164E871E089E594E00E94A60A8C0F02
:101590009D1FDF91CF9108956115710511F00C9495
:1015A000A60A90E080E008958F929F92AF92BF923A
:1015B000EF92FF920F931F93CF93DF93CDB7DEB7D8
:1015C000A1970FB6F894DEBF0FBECDBF7C01FA0124
:1015D000CB0119A2223008F42AE08E010F5D1F4FC3
:1015E000822E912CB12CA12CBF01A50194010E9447
:1015F000CD1FF901CA016A30ECF4605DD8016E9329
:101600008D01232B242B252B79F7BD01C7010E94C7
:10161000CC0AA1960FB6F894DEBF0FBECDBFDF9106
:10162000CF911F910F91FF90EF90BF90AF909F903F
:101630008F900895695CE2CF462F50E070E060E043
:101640002AE00C94D40AAB01770F660B770B2AE0E3
:101650000C94D40A0F931F93CF93DF93EC010E9455
:10166000CC0A8C0164E871E0CE010E94A60A800FCA
:10167000911FDF91CF911F910F9108950C94CC0A87
:101680000F93CF93C09106018C2F880F63E08C0FCE
:101690000E94080AEC2FF0E0E050FF4F6081C33059
:1016A00008F04CC06630A0F16550770B82ED95E0F4
:1016B0000E94230B65EA71E082ED95E00E943E0BEB
:1016C00090910601E92FF0E0E050FF4FE081F0E05B
:1016D000E85FFE4F81E080836091CF0384E6689FDE
:1016E000602D11244091090182E0891B0E94170896
:1016F00080910601982F990F63E0890F0E94080AD4
:1017000068EC70E080E090E0CF910F910C94C10400
:1017100082ED95E00E941C0B67E871E082ED95E098
:101720000E943E0B90910601E92FF0E0E050FF4F40
:10173000E081F0E0E85FFE4F1082CECFC530A8F424
:1017400082ED95E00E941C0B80910601833029F404
:1017500084E190E00E948603CBCF00E020E040E0EF
:101760006AE081E00E945B08C3CF673008F6E62F8D
:10177000F0E0E354F44F0C940E20C40BCB0BCE0BD3
:10178000D10BD40BD70BDA0B69E871E082ED95E051
:101790000E943E0BADCF6FE871E0F8CF65E971E0D4
:1017A000F5CF6BE971E0F2CF61EA71E0EFCF67EA64
:1017B00071E0ECCF6DEA71E0E9CF0F931F93CF9307
:1017C000DF938C01EB01FC01808191810097E1F0B6
:1017D0006881798161157105A9F0428153812C815D
:1017E0003D814217530770F00E942A228C819D810F
:1017F000F801958384831D821C82DF91CF911F9114
:101800000F9108950E94CB2088819981F8019183DE
:1018100080838A819B81938382838C819D81958340
:101820008483198218821B821A82E5CF0F931F933B
:10183000CF93DF93EC0188819981009759F02A8139
:101840003B812617370730F081E0DF91CF911F9160
:101850000F9108958B016F5F7F4F0E945421009775
:1018600059F0998388831B830A832C813D81232B24
:1018700059F7FC011082E8CF80E0E7CFEF92FF92AA
:101880000F931F93CF93DF936115710541F480E0AF
:10189000DF91CF911F910F91FF90EF900895411527
:1018A0005105B1F07B01EC010C811D81040F151F66
:1018B000B8010E94160C882351F3288139818C814C
:1018C0009D81B701820F931F0E942A221D830C83E2
:1018D00081E0DECFEF92FF920F931F93CF93DF93C0
:1018E000EC017B018A01BA010E94160C81110BC028
:1018F000CE010E94550ACE01DF91CF911F910F9129
:10190000FF90EF9008951D830C83B7018881998122
:101910000E942A22F0CFCF93DF93EC01FB018617C0
:10192000970749F0608171816115710541F044812B
:1019300055810E946A0CCE01DF91CF9108950E94DB
:10194000550AF9CFFC01118210821382128215828E
:101950001482FB0101900020E9F73197AF01461B8B
:10196000570B0C946A0CAF92BF92CF92DF92EF921A
:10197000FF920F931F93CF93DF937C016B015A016A
:1019800089012417350720F48B2D5901042F182FB6
:1019900066E871E0C7010E94A20CD6011496CD91B1
:1019A000DC91AC16BD0620F50C171D0708F4E80104
:1019B000D601ED91FC911197EC0FFD1F1081108263
:1019C0006D917C916A0D7B1D61157105E9F0FB013C
:1019D00001900020E9F73197AF01461B570BC70173
:1019E0000E946A0CF60180819181C80FD91F18836B
:1019F000C701DF91CF911F910F91FF90EF90DF9082
:101A0000CF90BF90AF900895C7010E94550AEACFCA
:101A1000EF92FF920F93CF93DF9300D000D000D0CE
:101A2000CDB7DEB77C0101E0623009F449C0633014
:101A300009F449C02AE040E0613009F046C020E0E6
:101A400040E06AE081E00E945B0844E150E063EB23
:101A500071E0C7010E943E0C2FE030E050E040E012
:101A6000B701CE0101960E94B30CBE016F5F7F4F9C
:101A7000C7010E94DD0BCE0101960E94670A61E05A
:101A800080E00E94080AF7014481558160817181DC
:101A900082ED95E00E94960180910601982F990FA2
:101AA00063E0890F0E94080A26960FB6F894DEBFFD
:101AB0000FBECDBFDF91CF910F91FF90EF900895B2
:101AC00020E04AE0BECF20E04AE060E0BBCFCF920A
:101AD000DF92EF92FF920F931F93CF93DF9300D08B
:101AE000CDB7DEB78C016B01E42E66E871E00E9491
:101AF000A20CC6010E9441060E2C000CFF0897FDA7
:101B000011C0E816F90671F089831A8241E050E0AD
:101B1000BE016F5F7F4FC8010E943E0CC6010E944C
:101B20004106EDCFC8010F900F90DF91CF911F912B
:101B30000F91FF90EF90DF90CF9008950F93CF9388
:101B4000DF9300D000D000D0CDB7DEB700E020E0BA
:101B500040E06AE081E00E945B0820E040E06AE04B
:101B600082E00E945B0801E02FE04FE06FE080E040
:101B70000E945B080E943C0A88E08093DE0560E0DA
:101B800082ED95E00E94410762E080E00E94080A31
:101B900068EC71E082ED95E00E943E0B63E080E02E
:101BA0000E94080A6BED71E082ED95E00E943E0B09
:101BB00080910601982F990F63E0890F0E94080A0F
:101BC0006091D805862F81608093D805696040E0D8
:101BD00082ED95E00E94F1096FEE71E0CE01019671
:101BE0000E94A20C61E0CE0101960E94080DCE0178
:101BF00001960E94670A60E089E00E94F50260E0B9
:101C00008BE00E94F50281E00E94090991E08111B8
:101C100090E09093CB031092070126960FB6F894AC
:101C2000DEBF0FBECDBFDF91CF910F910895CF934F
:101C3000DF9300D000D000D0CDB7DEB762EF71E007
:101C4000CE0101960E94A20C60E0CE0101960E9496
:101C5000080DCE0101960E94670A60E087E00E94AD
:101C6000F50260E47CE980E090E00E94C1046AEF44
:101C700071E0CE0101960E94A20C61E0CE010196B6
:101C80000E94080DCE0101960E94670A61E087E07C
:101C90000E94F50226960FB6F894DEBF0FBECDBFA8
:101CA000DF91CF910895CF93DF9300D000D000D083
:101CB000CDB7DEB762E072E0CE0101960E94A20CC1
:101CC00060E0CE0101960E94080DCE0101960E94AF
:101CD000670A60E088E00E94F50260E47CE980E049
:101CE00090E00E94C1046AE072E0CE0101960E9479
:101CF000A20C61E0CE0101960E94080DCE01019672
:101D00000E94670A61E088E00E94F50226960FB6FD
:101D1000F894DEBF0FBECDBFDF91CF9108950F9332
:101D20001F93CF93DF9300D000D000D0CDB7DEB7A4
:101D30008C0189E594E00E94F40143E269E574E0D6
:101D4000892B49F48FED95E00E94DB07892B51F137
:101D500043E26FED75E0CE0101960E94670DBE0172
:101D60006F5F7F4F84E095E00E94DD0BCE0101960E
:101D70000E94670AF8011182108213821282158272
:101D8000148264E075E0C8010E948B0CC80126969D
:101D90000FB6F894DEBF0FBECDBFDF91CF911F917C
:101DA0000F91089566E871E0C8010E94A20CEECF81
:101DB0000F931F93CF93DF93CDB7DEB72C970FB65A
:101DC000F894DEBF0FBECDBF8C0163E172E089E500
:101DD00094E00E942A0B61E089E00E94F50261E034
:101DE0008BE00E94F50261E08CE00E94F50261E068
:101DF00088E00E94F50261E087E00E94F50261E060
:101E000086E00E94F50261E085E00E94F50261E053
:101E10008BE00E94F50281E08093CC0367E172E0E1
:101E2000CE0101960E94A20CF80144815581608187
:101E30007181CE0101960E943E0C811104C0CE0139
:101E400001960E94550A18861F821A8619861C86DA
:101E50001B86BE016F5F7F4FCE0107960E948B0CE1
:101E600063E0CE0107960E94080DCE0107960E94FE
:101E7000670ACE0101960E94670A01E020E042E372
:101E800060E081E00E945B0883E00E940909811103
:101E900007C064E670E080E090E00E94C104F4CFE7
:101EA0002C960FB6F894DEBF0FBECDBFDF91CF9159
:101EB0001F910F9108957F928F929F92AF92BF9240
:101EC000CF92DF92EF92FF920F931F93CF93DF9306
:101ED00000D000D000D0CDB7DEB74B015C01042F9D
:101EE000722E0E9435066B017C0110E00E943506BF
:101EF0006C197D098E099F09681579058A059B056E
:101F000008F076C0CE0101960E948F0EBE016F5F71
:101F10007F4F84E095E00E94DD0BCE0101960E9488
:101F2000670A8EE192E00E948D0A882349F161E2FE
:101F300072E089E594E00E942A0B63E272E0CE0130
:101F400001960E94A20CCE0101960E94D80ECE01ED
:101F500001960E94670A80E026960FB6F894DEBFCD
:101F60000FBECDBFDF91CF911F910F91FF90EF90EA
:101F7000DF90CF90BF90AF909F908F907F9008950B
:101F800081E00E940909811106C0113019F46EE741
:101F900072E0D5CF11E0002369F085E00E940909C5
:101FA000882341F087E00E940909882319F06AE23A
:101FB00072E0C5CF772069F086E00E940909882386
:101FC00019F063E372E0BBCF82E00E94090981113E
:101FD000F8CF83E00E940909811103C06AE372E02F
:101FE000AECF64E670E080E090E00E94C1047ECF56
:101FF00081E0B2CF0F931F93CF93DF9300D000D037
:1020000000D0CDB7DEB7182F882309F403C186E0CE
:102010000E940909811180C082E00E940909811192
:102020007BC061E472E0CE0101960E94A20C62E0E6
:10203000CE0101960E94080DCE0101960E94670A0A
:1020400010E0812F26960FB6F894DEBF0FBECDBFED
:10205000DF91CF911F910F91089520E041E064E658
:1020600070E080E090E09BC001E020E04AE06AE0A0
:1020700081E00E945B0861E08BE00E94F50263E66C
:1020800072E0CE0101960E94A20C61E0CE010196A1
:102090000E94080DCE0101960E94670A60E086E06A
:1020A0000E94F50220E041E068E873E180E090E002
:1020B0000E945B0F882321F26BE672E0CE0101964D
:1020C0000E94A20C60E0CE0101960E94080DCE0194
:1020D00001960E94670A60E088E00E94F50220E015
:1020E00041E060E47CE980E090E00E945B0F182F03
:1020F000882309F4A5CF61E088E00E94F50261E041
:1021000086E00E94F50264E772E08FED95E00E94A0
:102110002A0B0E946C0A95CF60E08BE00E94F502CA
:1021200088E08093DE0560E082ED95E00E94410743
:1021300062EF71E0CE0101960E94A20C60E0CE0138
:1021400001960E94080DCE0101960E94670A60E088
:1021500087E00E94F50220E041E068E873E180E05A
:1021600090E00E945B0F882309F46ACF60E085E06D
:102170000E94F50261E572E0CE0101960E94A20C78
:1021800060E0CE0101960E94080DCE0101960E94EA
:10219000670A20E041E060E375E780E090E00E949C
:1021A0005B0F882309F44CCF86E00E940909811156
:1021B00054CF82E00E94090981114FCF20E041E015
:1021C00068E873E180E090E00E945B0F182F88239D
:1021D00009F436CF61E087E00E94F50261E085E016
:1021E0000E94F5026AE572E0CE0101960E94A20CFF
:1021F00061E0CE0101960E94080DCE0101960E9479
:10220000670A60EB71E08FED95E00E942A0B0E9457
:102210009E0D17CF84E00E940909811106C080E05D
:102220000E940909882309F4FCCE85E00E9409096F
:10223000882309F419CF61E472E0CE0101960E946F
:10224000A20C62E0CE0101960E94080DCE0101961B
:102250000E94670AF6CE0F931F93CF93DF9300D0AF
:1022600000D000D0CDB7DEB7882309F431C187E0B4
:102270000E94090981111CC061E472E0CE0101963F
:102280000E94A20C62E0CE0101960E94080DCE01D0
:1022900001960E94670A10E0812F26960FB6F894E7
:1022A000DEBF0FBECDBFDF91CF911F910F9108957B
:1022B00081E00E94090981112FC067E772E0CE0119
:1022C00001960E94A20C62E0CE0101960E94080DC8
:1022D000CE0101960E94670A63E872E08FED95E0F7
:1022E0000E94CC0A4DE06FED75E0CE0101960E9490
:1022F000670DCE0101960E94B50ACE0101960E949B
:10230000670A81E00E940909882379F181E00E942F
:102310000909882309F4BFCF61E089E00E94F50232
:1023200001E020E04AE06AE081E00E945B0886E08C
:102330000E940909811120C082E00E9409098111CF
:102340001BC08BE00E94CC02892B11F160E08BE076
:102350000E94F50220E041E060E177E280E090E059
:102360000E945B0F811114C096CF60E177E280E09C
:1023700090E00E94C104C5CF8BE00E94CC02892B63
:1023800021F060E08BE00E94F50281E00E94FA0FEC
:1023900067E872E0CE0101960E94A20C60E0CE01D7
:1023A00001960E94080DCE0101960E94670A85E001
:1023B0000E940909882309F451C087E00E94090995
:1023C000882309F44BC021E040E068EF7AE280E026
:1023D00090E00E945B0F882309F45DCF85E00E94A6
:1023E0000909811152C021E040E060ED77E080E012
:1023F00090E00E945B0F182F882309F44CCF87E0F0
:102400000E940909882309F44DC061E089E00E9417
:10241000F5026BE972E0CE0101960E94A20C61E028
:10242000CE0101960E94080DCE0101960E94670A16
:1024300064EF71E080E090E00E94C10480E00E94BF
:10244000FA0F67EA72E08FED95E00E942A0B68EEC2
:1024500073E088EB91E00E94F3041ECF60E08CE013
:102460000E94F50268E572E080E090E00E94C104FD
:1024700061E08CE00E94F50221E040E060EA7FE04C
:1024800080E090E00E945B0F92CF87E00E940909F4
:10249000882309F4A8CF21E040E068EE73E080E0F3
:1024A00090E097CF6AEA72E08FED95E00E942A0BE8
:1024B0006DEA72E0CE0101960E94A20C61E0CE01AD
:1024C00001960E94080DCE0101960E94670ABFCFB7
:1024D00085E0CECE1F920F920FB60F9211242F934C
:1024E0003F934F935F936F937F938F939F93AF939C
:1024F000BF93EF93FF9380914D0490914E04A09170
:102500004F04B0915004892B8A2B8B2BD1F19091E1
:102510004804E0914904F0914A048081892780832E
:1025200080914D0490914E04A0914F04B0915004BD
:10253000181619061A061B069CF480914D049091FA
:102540004E04A0914F04B09150040197A109B10924
:1025500080934D0490934E04A0934F04B093500485
:10256000FF91EF91BF91AF919F918F917F916F916B
:102570005F914F913F912F910F900FBE0F901F9041
:10258000189580910B01E2E7F0E0E4919FEF9093C2
:102590000B01E13051F030F0E23069F060E00E9470
:1025A000F502DECF10926E00F9CF90916F009D7F03
:1025B00090936F00F3CF909170009D7F9093700087
:1025C00091E09093B0009091B100987F94609093C7
:1025D000B1001092B300E2CF1F920F920FB60F928C
:1025E00011242F933F934F935F936F937F938F9318
:1025F0009F93AF93BF93EF93FF9389E594E00E947D
:102600001402FF91EF91BF91AF919F918F917F91B4
:102610006F915F914F913F912F910F900FBE0F904F
:102620001F9018951F920F920FB60F9211242F939F
:102630008F939F93EF93FF93E0916904F0916A0465
:102640008081E0916F04F091700482FD1BC0908145
:10265000809172048F5F8F7320917304821741F011
:10266000E0917204F0E0E75AFB4F958F809372047B
:10267000FF91EF919F918F912F910F900FBE0F902F
:102680001F9018958081F4CF1F920F920FB60F9272
:1026900011242F933F938F939F93AF93BF93809178
:1026A000BE039091BF03A091C003B091C1033091CC
:1026B000BD0323E0230F2D3758F50196A11DB11D51
:1026C0002093BD038093BE039093BF03A093C003E8
:1026D000B093C1038091C2039091C303A091C4033E
:1026E000B091C5030196A11DB11D8093C2039093C3
:1026F000C303A093C403B093C503BF91AF919F914F
:102700008F913F912F910F900FBE0F901F901895B2
:1027100026E8230F0296A11DB11DD2CF1F920F9262
:102720000FB60F9211242F933F934F935F936F93A4
:102730007F938F939F93AF93BF93EF93FF9380917A
:10274000B900887F803609F44AC0F0F5883209F470
:10275000A7C018F5803109F49BC0B8F4882309F4A8
:10276000F9C0883009F494C0FF91EF91BF91AF9107
:102770009F918F917F916F915F914F913F912F9199
:102780000F900FBE0F901F901895883109F488C0E4
:10279000803251F78093210414C0803409F49DC025
:1027A00040F48033B9F38833F9F68093210485EC43
:1027B000B0C0803509F485C0883509F496C08834E6
:1027C00099F60E946F06D0CF883909F48CC038F58D
:1027D000883729F050F4883611F0803729F683E0E5
:1027E000809323041092BC0357C0883809F47BC03F
:1027F000803919F0803809F0B7CF8091BC0380325E
:1028000008F071C0E091BC0381E08E0F8093BC039F
:102810008091BB00F0E0E456FC4F80833DC0803BDC
:1028200039F0E0F4803A09F479C0883A09F09CCF95
:1028300084E08093230410929B0310929A03E0910A
:10284000D803F091D903099580919A0381110FC0A3
:1028500081E080939A0310927A0309C0803C09F4C6
:10286000A6CF883C09F4A3CF883B09F07DCFE09147
:102870009B0381E08E0F80939B03F0E0E658FC4FB2
:1028800080818093BB0090919B0380919A0329C023
:102890008091FE038093BB0085EC8093BC0064CFE5
:1028A0009091200480911F04981758F5E09120041E
:1028B00081E08E0F80932004F0E0E150FC4F808196
:1028C000E9CFE091200481E08E0F80932004809175
:1028D000BB00F0E0E150FC4F808390912004809198
:1028E0001F049817C8F285E8D8CFE091200481E052
:1028F0008E0F809320048091BB00F0E0E150FC4FEC
:1029000080838091220481115CCF81E08093FD035C
:1029100084EA8093BC001092230426CF85EC809338
:10292000BC00109223048091BC03803230F4E0910B
:10293000BC03F0E0E456FC4F10826091BC0370E0F1
:10294000E091D603F091D7038CE993E009951092BA
:10295000BC030ACF1092210434CF1F920F920FB6FE
:102960000F9211242F933F934F935F936F937F9315
:102970008F939F93AF93BF93EF93FF93E091C8031F
:10298000F091C903309749F0A685B7858585968D66
:1029900091FF14C09C918923A1F4FF91EF91BF9105
:1029A000AF919F918F917F916F915F914F913F91E7
:1029B0002F910F900FBE0F901F9018959C91892317
:1029C00061F7A389B4899C918589809589238C932B
:1029D000868997890197F1F7608D718DA685B785F6
:1029E000558538E020E0CB010197F1F7822F90E088
:1029F00095958795282F4C91452309F020683150F3
:102A000091F7868D81FD20958091C70390E0019616
:102A10008F7399273091C603381799F0A091C70397
:102A2000B0E0A65CBC4F2C938093C703828D938D3E
:102A30000197F1F7A389B4898C919589892B8C939F
:102A4000ACCF868D8160868FF1CFCF93DF931092CC
:102A50005C0410925B0488EE93E0A0E0B0E0809309
:102A60005D0490935E04A0935F04B093600426E439
:102A700031E030935A042093590425EC30E0309330
:102A800066042093650424EC30E0309368042093BE
:102A9000670420EC30E030936A042093690421EC51
:102AA00030E030936C0420936B0422EC30E03093E0
:102AB0006E0420936D0426EC30E030937004209374
:102AC0006F041092720410927304109274041092A6
:102AD00075041092F9041092F8048093FA0490930C
:102AE000FB04A093FC04B093FD0428E531E030938F
:102AF000F7042093F6041092E2051092E10580930A
:102B0000E3059093E405A093E505B093E60586E719
:102B100091E09093E0058093DF051092F605109206
:102B2000F5051092F8051092F7051092FA0510922B
:102B3000F9051092FC051092FB056091FD056E7F72
:102B40006D7F6093FD056695617081E0682782E086
:102B50000E94F50261E082E00E945503E1EBF0E0A3
:102B6000E491E093EF05EDE9F0E0E491F0E0EE0FA1
:102B7000FF1FEF56FF4F859194919093F10580933D
:102B8000F00560E08DE00E9455038091FD0581FD18
:102B900004C061E08DE00E94F5028DE08093EB05BA
:102BA000ECEBF0E0E491E093EC05E8EAF0E0E4918E
:102BB000F0E0EE0FFF1FE957FF4F8591949190933E
:102BC000EE058093ED0586E290E0909303058093F7
:102BD000020584E090E090930F0180930E019093A2
:102BE0000D0180930C011092D5051092D4058AE650
:102BF00091E09093D3058093D2051092DB0587E294
:102C00008093D60584E18093DC0584E08093DD0524
:102C10001092DE051092BD051092C4051092CB05EE
:102C20001092CC051092CD051092CE0581E08093D4
:102C3000CA058093C7051092C80582E08093C90534
:102C40001092BC0584E590E09093C1058093C00587
:102C50000E942F209093C6058093C505009709F424
:102C60005DC024E5DC011D922A95E9F78CE190E036
:102C70009093BF058093BE0584E090E09093C305D8
:102C80008093C2058091BD05882341F061E084E016
:102C90000E94550360E084E00E94F502EFE9F0E055
:102CA000E491F0E0EE0FFF1FEF56FF4F85919491F6
:102CB0009093D0058093CF05E3EBF0E0E491E093AF
:102CC000D1050E943506CCE9D5E0E8E3F5E040E126
:102CD00055E0199211921192DA016D937D938D93C3
:102CE0009D93AD019F01225B3F4FD9011D921C9224
:102CF000B5E0EC34FB0769F71092BB051092BA05FA
:102D000069EB72E08AE095E00E94A20C66E871E04F
:102D100084E095E0DF91CF910C94A20C1092C10554
:102D20001092C0051092BF051092BE05A5CFCF939B
:102D3000DF93CDB7DEB764970FB6F894DEBF0FBE52
:102D4000CDBF789484B5826084BD84B5816084BD34
:102D500085B5826085BD85B5816085BD80916E0039
:102D6000816080936E00109281008091810082606A
:102D700080938100809181008160809381008091A7
:102D800080008160809380008091B1008460809396
:102D9000B1008091B00081608093B00080917A0092
:102DA000846080937A0080917A00826080937A00B8
:102DB00080917A00816080937A0080917A008068A7
:102DC00080937A001092C100E0916904F0916A0446
:102DD00082E08083E0916904F0916A041082E091BE
:102DE0006504F09166041082E0916704F091680434
:102DF00080E1808310927104E0916D04F0916E0483
:102E000086E08083E0916B04F0916C0480818061A6
:102E10008083E0916B04F0916C04808188608083F2
:102E2000E0916B04F0916C04808180688083E09174
:102E30006B04F0916C0480818F7D80831092FA0581
:102E40001092F9051092F8051092F7051092F60508
:102E50001092F5058DE991E09093FC058093FB05B8
:102E60009091EB05963108F047C02DEB30E03093A0
:102E7000F6052093F5052BE931E03093F805209312
:102E8000F7052CE231E03093FA052093F905209103
:102E9000680084E0983048F031E09E3008F430E07B
:102EA00081E001C0880F3A95EAF7822B8093680091
:102EB0002DE630E0983050F02BE630E09E3030F0D8
:102EC0002CE630E0963110F030E020E03093F3054E
:102ED0002093F205292F30E0983008F077C381E085
:102EE00001C0880F9A95EAF78093F4058091FB055D
:102EF0009091FC050197F1F78091F9059091FA0501
:102F0000892B49F1E091C803F091C90325E0EF3D19
:102F1000F20709F1309739F0A389B4899C9185892A
:102F2000809589238C938091FD058E7F8093FD058C
:102F30001092C7031092C6038FED95E09093C903DA
:102F40008093C803E091F205F091F30580819091A0
:102F5000F405892B80831092DC030E9423036FEF1A
:102F600080E00E9426076FEF81E00E9426076FEF46
:102F700070E080910205909103050E945407109221
:102F8000D3031092D20361E08AE00E94F50261E06F
:102F90008AE00E94550361E089E00E94F50261E049
:102FA00089E00E94550361E08BE00E94F50261E038
:102FB0008BE00E94550361E08CE00E94F50261E025
:102FC0008CE00E94550361E088E00E94F50261E018
:102FD00088E00E94550361E087E00E94F50261E00D
:102FE00087E00E94550361E086E00E94F50261E0FF
:102FF00086E00E94550361E085E00E94F50261E0F1
:1030000085E00E94550361E08BE00E94F50287E0B5
:103010000E941C0987E00E94390985E00E941C0972
:1030200085E00E94390986E00E941C0986E00E9422
:10303000390984E00E941C0984E00E94390982E079
:103040000E941C0982E00E94390980E00E941C094C
:1030500080E00E94390983E00E941C0983E00E94FD
:10306000390981E00E941C0960E084E10E94550357
:1030700061E083E00E94550384E190E00E948603B2
:103080008DE00E941C098DE00E9439098BE00E94AE
:103090001C098BE00E9439098EE00E941C098EE019
:1030A0000E94390988E00E941C0988E00E943909C1
:1030B00089E00E941C0989E00E9439098AE00E9487
:1030C0001C098AE00E9439098091C2059091C305CC
:1030D00097FD08C061E00E94550360E08091C20541
:1030E0000E94F50281E08093BD054091C00550919A
:1030F000C10570E060E08091C5059091C6050E9411
:103100001A220E9403040E9423031092D705809183
:10311000DD05823018F098E09093D7058093DA05AA
:1031200062E370E080E090E00E94C1046091DE05FF
:1031300082ED95E00E94410768EE73E080E090E048
:103140000E94C10460E382ED95E00E94D8090BE47F
:1031500016E4C8010197F1F760E382ED95E00E9463
:10316000D809C8010197F1F760E382ED95E00E946C
:10317000D80983E592E00197F1F760E282ED95E0EE
:103180000E94D8096091D705606240E082ED95E029
:103190000E94F10984E08093D80540E06CE082ED64
:1031A00095E00E94F1090E943C0A82E08093D905D3
:1031B00040E066E082ED95E00E94F10940E062E0C7
:1031C00082ED95E00E94F1098BE39FE10197F1F711
:1031D00062E080E00E94080A68EC71E082ED95E010
:1031E0000E943E0B63E080E00E94080A6BED71E0F4
:1031F00082ED95E00E943E0B80910601982F990F79
:1032000063E0890F0E94080A6091D805862F8160CB
:103210008093D805696040E082ED95E00E94F10955
:103220008091BA059091BB050A9774F4E8E3F5E044
:1032300010E000E081919191892B09F4BAC50F5FEC
:103240001F4F0A301105B1F786E00E94090981116C
:10325000CAC182E00E9409098111C5C10E949E0D68
:1032600087E00E940909882341F085E00E9409094E
:10327000882319F081E08093CC0311E0BE016F5FD9
:103280007F4F7B010E9435062B013C01E8E3F5E00E
:1032900050E1C52E55E0D52EDC8ACB8A312C212C6D
:1032A0009F0122593F4FD9011D921C92808191812B
:1032B0003296892BB9F1AB89BC894D915D916D91A5
:1032C0007C911397DC968D909D90AD90BC90DF978C
:1032D000D301C201841B950BA60BB70B881599056A
:1032E000AA05BB05F8F0480D591D6A1D7B1DAB8969
:1032F000BC894D935D936D937C931397C101845664
:103300009A4FDC018C91882369F082AD93AD0097D0
:1033100009F06CC1CF0184599F4F21E030E0DC01FE
:103320002D933C937FEF271A370A8B899C8904964B
:103330009C8B8B8B9AE02916310409F0B1CF912C2C
:10334000812C5601A6E9AA0EB11CF501808191815C
:103350008130910509F46CC1029709F46FC1BFEF88
:103360008B1A9B0AE2E0CE0ED11CFAE08F16910474
:1033700041F78DE00E94090981111AC00091CF0325
:1033800001270093CF0364E670E088EB91E00E9490
:10339000F30464E6069F602D11244091090181E049
:1033A0000E9417086CE271E080E090E00E94C10486
:1033B0008EE00E94090981111AC00091CE030127F5
:1033C0000093CE0364E670E088EB91E00E94F30482
:1033D00064E6069F602D11244091080182E00E945E
:1033E00017086CE271E080E090E00E94C1048BE07D
:1033F0000E94090981111AC00091CD030127009391
:10340000CD0364E670E088EB91E00E94F30464E68B
:10341000069F602D112440910A0180E00E94170848
:103420006CE271E080E090E00E94C10488E00E94BC
:103430000909811115C080910701882309F42FC162
:1034400088E08093DE0560E082ED95E00E94410710
:103450001092070168EC70E080E090E00E94C104E7
:103460008AE00E940909811116C0809106018F5FD0
:10347000863008F054C18093060180910601982F90
:10348000990F63E0890F0E94080A68EC70E080E001
:1034900090E00E94C10489E00E94090981111DC0C9
:1034A00090910601E92FF0E0E050FF4F80818F5F9F
:1034B0008083863028F08DEF890F823008F41083E6
:1034C0008081873020F0953011F4109205018081C1
:1034D0008B3008F010830E94400B0E945609082F81
:1034E000882309F446C064E670E088EB91E00E940E
:1034F000F304D0900701DD2009F491C118861F82E2
:103500001A8619861C861B8609831A82F701019088
:103510000020E9F73197AF014E195F09B701CE01DD
:1035200007960E946A0C0E9435064B015C010E94BE
:1035300085080E943506681979098A099B09603156
:1035400077428105910508F4EDC06AEC72E089E5E7
:1035500094E00E942A0B6CE271E08CED90E00E94F6
:10356000F304D12CCE0107960E94670AD110109265
:103570000701C7010E948F0EB70184E095E00E9409
:10358000DD0BC7010E94670A86E891E00E948D0A60
:10359000811184C28091CC038111D8C181EE92E067
:1035A0000E948D0A882309F483C181E00E94FA0FEA
:1035B00086E00E940909811106C082E00E94090983
:1035C000882309F489C161E272E088C19E3040F429
:1035D0002850310981E001C0880F2A95EAF784CC90
:1035E0002E503109F7CF0E946C0A3ACE5F013EE4BB
:1035F000A30EB11CD5014D915C91481759070CF0F1
:1036000091CE9F0124593F4F61E070E0D9016D9345
:103610007C934F5F5F4FD5014D935C9348175907DB
:103620000CF480CE62E070E0D9016D937C937ACE89
:10363000D6019896ED91FC91099591CED601989678
:10364000ED91FC9109958091BA059091BB05009789
:1036500009F485CEF60120A531A5232B09F47FCEF0
:1036600011A610A6F401E456FA4F1082D5011D925E
:103670001C92F401EE0FFF1FEE0FFF1FE05FFA4FE9
:1036800014AE15AE16AE17AEF601E858FF4F118214
:10369000108201979093BB058093BA0560CEE091AC
:1036A0000601E53081F5E0910501E73008F0D2CE62
:1036B000F0E0E35AF44E0C940E20641B711B741B53
:1036C000771B7B1B7D1B811B6EE772E089E594E015
:1036D0000E942A0B63E872E08FED95E00E94CC0A0D
:1036E000B9CE0E94170EB6CE0E94530EB3CE81E023
:1036F0000E942B11AFCE80E0FBCF81E00E94FA0F39
:10370000A9CE80E0FBCFF0E0E050FF4F808188231E
:1037100009F4A6CE815080830E94400BA1CE109266
:103720000601ABCE0E945609C82E882309F401CFAA
:1037300064E670E088EB91E00E94F30401E02FE082
:103740004FE060E080E00E945B0868EC70E080E0A1
:1037500090E00E94C1042FE04FE06FE080E00E9403
:103760005B081A8219821C821B821E821D82BE0186
:10377000695F7F4FC7010E948B0CCD861E8641E09A
:1037800050E0BE01635F7F4FC7010E943E0C811174
:1037900003C0C7010E94550AB701CE0107960E94D7
:1037A0008B0CC7010E94670A2B853C854CEF420FAA
:1037B0002530310508F440E050E0BE01695F7F4FDD
:1037C000C7010E94B30CB701CE0107960E94DD0B22
:1037D000C7010E94670ACE0107960E94B50A2B8591
:1037E0003C8580910E0590910F052817390709F047
:1037F000A0CE8F81988560910A0570910B05009786
:1038000009F412C36115710539F4232B09F41AC3A5
:10381000FC01808190E013C30E94212210C381E04B
:10382000013419F0023421F480E00E942B11A1CE62
:1038300081E0033419F0043421F480E00E94FA0F8F
:1038400098CE0A3219F40E94170E93CE033219F45F
:103850000E94530E8ECE802F000F990BF1E0893914
:103860009F07A9F46091CD0361276093CD0384E69F
:10387000689F602D112440910A0180E00E94170882
:103880006CE271E080E090E00E94C10472CE8F5D36
:10389000924009F06ECE6091CF0361276093CF0311
:1038A00084E6689F602D11244091090181E0E6CFF4
:1038B00084EE92E00E948D0A882349F180E00E9404
:1038C000FA0F86E00E940909811106C082E00E9479
:1038D0000909882309F477CE69E971E089E594E064
:1038E0000E942A0B8FEF92E00E948D0A60E0811106
:1038F00008C082E093E00E948D0A882309F47BC00F
:1039000061E089E00E94F50269E971E067C187EE34
:1039100092E00E948D0A882329F081E00E942B11F9
:1039200087E04CCE8AEE92E00E948D0A882329F02F
:1039300080E00E942B1185E041CE8DEE92E00E9446
:103940008D0A882379F21093CC03CCCF8CED92E0D2
:103950000E948D0A882319F01092CC03C3CF80EF08
:1039600092E00E948D0A60E0811107C083EF92E02F
:103970000E948D0A882329F061E08BE00E94F50205
:10398000B1CF86EF92E00E948D0A882369F060E053
:103990008CE00E94F50268E572E080E090E00E9411
:1039A000C10461E08CE0EACF89EF92E00E948D0AC9
:1039B000882369F060E085E00E94F50260E47CE91C
:1039C00080E090E00E94C10461E085E0D7CF8CEFF9
:1039D00092E00E948D0A882309F484CF60E086E09B
:1039E0000E94F50260E47CE980E090E00E94C1045E
:1039F00061E086E0C3CF85E093E00E948D0A8823D2
:103A000071F086E00E940909811106C082E00E94DF
:103A10000909882309F478CF61E272E0DFC088E009
:103A200093E00E948D0A882331F085E00E94090905
:103A300081116ACFF1CF8BE093E00E948D0A882339
:103A400031F089E00E94CC02892B31F75DCF8EE006
:103A500093E00E948D0A882319F00E94530EDCCF58
:103A600081E193E00E948D0A882319F00E94170ECD
:103A7000D3CF84E193E00E948D0A882309F488C0A3
:103A800060E08AE00E94F50268EE73E080E090E07A
:103A90000E94C10461E08AE00E94F502C090CB035D
:103AA000D12C81E00E9409098C151D0419F181E0D7
:103AB0000E9409096AE0869F602D112401E020E040
:103AC00040E082E00E945B0881E00E94090991E0E9
:103AD000811101C090E09093CB0381E00E9409091D
:103AE00064EC72E0811102C067EC72E08FED95E04A
:103AF0000E942A0B8091CC03811115C085E00E94A1
:103B00000909882381F087E00E940909882359F078
:103B10006AE272E0C7010E94A20CC7010E94D80E9F
:103B2000C7010E94670A83E00E94090981110BC046
:103B30006AE372E0C7010E94A20CC7010E94D80E7E
:103B4000C7010E94670A86E480937C0080917A0016
:103B5000806480937A0080917A0086FDFCCF9091FA
:103B60007800809179008927982789278C329140A5
:103B700014F40E94170E80E090E0892B09F482CBA8
:103B80000E940002882309F478CB0E94000075CBC4
:103B90008EE192E00E948D0A882391F061E272E04A
:103BA00089E594E00E942A0B63E272E0C7010E945B
:103BB000A20CC7010E94D80EC7010E94670A6ECFEF
:103BC00087E193E00E948D0A882369F08091CC03FD
:103BD0006EEB72E0811102C060EC72E089E594E066
:103BE0000E942A0B5BCF8AE193E00E948D0A882312
:103BF00039F040910A0164E680E00E94170884CE03
:103C00008DE193E00E948D0A882331F040E060E06E
:103C100080E00E94170800CF80E293E00E948D0AA6
:103C2000882329F04091090164E681E0E6CF83E230
:103C300093E00E948D0A882321F040E060E081E05B
:103C4000E8CF86E293E00E948D0A882381F063E842
:103C500072E08FED95E00E943E0B4DE06FED75E058
:103C6000C7010E94670DC7010E94B50AA5CF89E26E
:103C700093E00E948D0A6CE273E0811108C080E33A
:103C800093E00E948D0A882339F063E373E08FED9F
:103C900095E00E94CC0AE1CF87E393E00E948D0A71
:103CA000882309F4FBCE85E00E94090961E070E0F9
:103CB000882311F070E060E089E594E00E94230B16
:103CC00087E00E94090961E070E0882311F070E04C
:103CD00060E089E594E00E94230B84E00E940909DA
:103CE000811104C00E94090961E0811160E070E067
:103CF00089E594E00E94230B86E00E940909811166
:103D000005C082E00E94090961E0811160E070E075
:103D100089E594E00E94230B89E00E94CC0261E0D7
:103D200070E0892B11F070E060E089E594E00E947A
:103D3000230B81E00E94090962EC72E0811102C04C
:103D400061E672E089E594E00E943E0B8091CC032D
:103D50006EEB72E0811102C060EC72E089E594E0E4
:103D60000E942A0B84E00E940909682F89E594E0EB
:103D70000E941C0B80E00E940909682F89E594E0ED
:103D80000E941C0B86E00E940909682F89E594E0D7
:103D90000E941C0B82E00E940909682F89E594E0CB
:103DA0000E941C0B64E871E089E594E00E94A60A79
:103DB00075CEF801EE0FFF1FEE0FFF1FE45BFA4F09
:103DC00088EE93E0A0E0B0E080839183A283B38388
:103DD000F801EE0FFF1FE85CFA4F84E991E0918350
:103DE0008083F801EE0FFF1FEC58FA4F118210820A
:103DF000F801E456FA4F81E080830E943506000FF7
:103E0000111F000F111FF801E05FFA4F60837183EB
:103E1000828393838091BA059091BB05019690931C
:103E2000BB058093BA0510CA6115710559F0232BA3
:103E300049F0DB018C9190E0919581959109892B56
:103E400009F077CB67ED72E089E594E00E942A0BD8
:103E50006CE271E088EB91E00E94F30401E020E065
:103E60004FE060E080E00E945B0860ED77E080E07A
:103E700090E00E94C1040E9485081092CA0372CB90
:103E800084E095E00E94670A8AE095E00E94670A54
:103E90008091C5059091C6050E94CB208091C205F6
:103EA0009091C30597FD03C060E00E94550386E72B
:103EB00091E09093E0058093DF058091C803909195
:103EC000C9038F5D954071F4E091F205F091F3051F
:103ED00090818091F4058095892380831092C90395
:103EE0001092C80308952F923F924F925F926F9263
:103EF0007F928F929F92AF92BF92CF92DF92EF927A
:103F0000FF920F931F93CF93DF93CDB7DEB7CA1BFA
:103F1000DB0B0FB6F894DEBF0FBECDBF09942A8825
:103F2000398848885F846E847D848C849B84AA84CD
:103F3000B984C884DF80EE80FD800C811B81AA815A
:103F4000B981CE0FD11D0FB6F894DEBF0FBECDBF25
:103F5000ED010895A29FB001B39FC001A39F700D12
:103F6000811D1124911DB29F700D811D1124911D81
:103F7000089597FB072E16F4009407D077FD09D01B
:103F80000E941B2007FC05D03EF4909581959F4F21
:103F90000895709561957F4F0895A1E21A2EAA1B8E
:103FA000BB1BFD010DC0AA1FBB1FEE1FFF1FA217E9
:103FB000B307E407F50720F0A21BB30BE40BF50BE6
:103FC000661F771F881F991F1A9469F7609570956F
:103FD000809590959B01AC01BD01CF010895052E00
:103FE00097FB1EF400940E94062057FD07D00E9404
:103FF000CD1F07FC03D04EF40C940620509540953D
:10400000309521953F4F4F4F5F4F08959095809584
:10401000709561957F4F8F4F9F4F0895EE0FFF1F53
:104020000590F491E02D09940E94AA1FB7FF08950E
:10403000821B930B0895AA1BBB1B51E107C0AA1F4B
:10404000BB1FA617B70710F0A61BB70B881F991F39
:104050005A95A9F780959095BC01CD0108950F93CD
:104060001F93CF93DF938230910510F482E090E0AC
:10407000E0910006F091010630E020E0B0E0A0E021
:10408000309799F42115310509F44AC0281B390BE2
:1040900024303105D8F58A819B816115710589F13C
:1040A000FB0193838283FE0111C040815181028113
:1040B000138148175907E0F04817590799F41097EA
:1040C00061F012960C93129713961C933296CF01BF
:1040D000DF91CF911F910F910895009300061093E7
:1040E0000106F4CF2115310551F04217530738F07E
:1040F000A901DB019A01BD01DF01F801C1CFEF0188
:10410000F9CF9093010680930006CDCFFE01E20F18
:10411000F31F819391932250310939832883D7CF9C
:104120002091FE053091FF05232B41F420911201CF
:10413000309113013093FF052093FE05209110016B
:10414000309111012115310541F42DB73EB7409151
:10415000140150911501241B350BE091FE05F091DF
:10416000FF05E217F307A0F42E1B3F0B28173907B2
:1041700078F0AC014E5F5F4F2417350748F04E0FC3
:104180005F1F5093FF054093FE05819391939FCF4E
:10419000F0E0E0E09CCFCF93DF930097E9F0FC01E3
:1041A000329713821282A0910006B0910106ED01B0
:1041B00030E020E01097A1F420813181820F931F1D
:1041C0002091FE053091FF052817390709F061C0DD
:1041D000F093FF05E093FE05DF91CF910895EA018A
:1041E000CE17DF07E8F54A815B819E014115510535
:1041F000B1F7E901FB83EA8349915991C40FD51FB7
:10420000EC17FD0761F4808191810296840F951F60
:10421000E90199838883828193819B838A83F0E07B
:10422000E0E012968D919C9113970097B9F52D912E
:104230003C911197CD010296820F931F2091FE05AC
:104240003091FF052817390739F6309751F510924C
:10425000010610920006B093FF05A093FE05BCCFA7
:10426000D383C28340815181840F951FC817D9071A
:1042700061F44E5F5F4F88819981480F591F5183C8
:1042800040838A819B81938382832115310509F0C4
:10429000B0CFF0930106E09300069ECFFD01DC0154
:1042A000C0CF13821282D7CFB0E0A0E0EAE5F1E2FE
:1042B0000C94751F8C01009751F4CB010E942F20A4
:1042C0008C01C801CDB7DEB7E0E10C94911FFC0171
:1042D000E60FF71F9C0122503109E217F30708F49B
:1042E0009DC0D901CD91DC911197C617D70798F0E1
:1042F000C530D10530F3CE0104978617970708F330
:10430000C61BD70B2297C193D1936D937C93CF019A
:104310000E94CB20D6CF5B01AC1ABD0A4C018C0E9B
:104320009D1EA0910006B0910106512C412CF12C4C
:10433000E12C109731F58091FE059091FF058815CD
:10434000990509F05CC04616570608F058C08091E0
:10435000100190911101009741F48DB79EB74091E3
:10436000140150911501841B950BE817F90708F00B
:1043700055C0F093FF05E093FE05F901718360835A
:10438000A0CF8D919C91119712966C9012971396D5
:104390007C901397A815B90559F56C0142E0C40E3D
:1043A000D11CCA14DB0420F1AC014A195B09DA0103
:1043B0001296159780F06282738251834083D901EF
:1043C0006D937C93E114F10471F0D7011396FC9383
:1043D000EE93129776CF22968C0F9D1FF901918351
:1043E0008083F301EFCFF0930106E093000669CFDD
:1043F0004816590608F42C017D01D3019ACFCB0150
:104400000E942F207C01009749F0AE01B8010E9464
:104410001122C8010E94CB20870153CF10E000E099
:1044200050CFFB01DC0102C001900D924150504081
:10443000D8F70895DC0101C06D9341505040E0F77A
:104440000895FB01DC018D91019080190110D9F3D1
:10445000990B0895FB01DC0101900D920020E1F71A
:10446000089510E0C3E6D0E004C0FE010E940E20D3
:0C4470002196C436D107C9F7F894FFCF9D
:10447C0002080A0202000501010000FF030004000B
:10448C00000002068000000040001400540031328D
:10449C00334100343536420037383943002A302353
:1044AC0044001000200040008000FE00FD00FB00D6
:1044BC00F7000000000036029601C3018302F401EC
:1044CC00D201E60100000000F706CA061408A00697
:1044DC00C306B006A106000000004F0A960114089E
:1044EC009501000000007F0796011408A006DB0769
:1044FC00F30767070D0A0052005041524B20004F42
:10450C0055205031004645205031004F5520414236
:10451C00004645204142004F5520504F0046452053
:10452C00504F002020202020202020202020202040
:10453C002020202020202000544120494E20455886
:10454C00204C43204C4420434D44003252203342F3
:10455C00203542203220203220205041524B004F37
:10456C006B005031204F2E2E2E005031204F5045D5
:10457C004E00503120462E2E2E00503120436C6FB1
:10458C007365004152550041525520212000415580
:10459C0000300053C3A972696500506F7369746968
:1045AC006F6E00506F7274657300426F75746F6E2E
:1045BC000045727265757220706F736974696F6EE5
:1045CC0000503132204F2E2E2E00503132204F70A1
:1045DC00656E00503220462E2E2E00503132204671
:1045EC002E2E2E0050460045727265757220506159
:1045FC00726B00504123004465706C6163656D659E
:10460C006E7420616272692E2E2E004162726920D6
:10461C006665726DC3A900444600444F0041627246
:10462C0069206F75766572740031323334006D0019
:10463C0061007000544E005450004D6175766169F4
:10464C007320636F646500436F6465204F4B0032C9
:10465C0000502B00502D00442B00442D004D4100E8
:10466C006D2B006D2D00646400322B00322D004147
:10467C002B00412D00503F00443F00413F00702D66
:10468C0000702B005043004D3F00452B00452D0082
:10469C00492B00492D00504100484F00484F230042
:0A46AC00464E00464E2300433F0037
:107E0000112484B714BE81FFF0D085E080938100F7
:107E100082E08093C00088E18093C10086E0809377
:107E2000C20080E18093C4008EE0C9D0259A86E02C
:107E300020E33CEF91E0309385002093840096BBD3
:107E4000B09BFECF1D9AA8958150A9F7CC24DD24C4
:107E500088248394B5E0AB2EA1E19A2EF3E0BF2EE7
:107E6000A2D0813461F49FD0082FAFD0023811F036
:107E7000013811F484E001C083E08DD089C08234E0
:107E800011F484E103C0853419F485E0A6D080C0E4
:107E9000853579F488D0E82EFF2485D0082F10E0AE
:107EA000102F00270E291F29000F111F8ED06801E7
:107EB0006FC0863521F484E090D080E0DECF843638
:107EC00009F040C070D06FD0082F6DD080E0C81688
:107ED00080E7D80618F4F601B7BEE895C0E0D1E017
:107EE00062D089930C17E1F7F0E0CF16F0E7DF06D8
:107EF00018F0F601B7BEE89568D007B600FCFDCFD4
:107F0000A601A0E0B1E02C9130E011968C91119780
:107F100090E0982F8827822B932B1296FA010C0160
:107F200087BEE89511244E5F5F4FF1E0A038BF0790
:107F300051F7F601A7BEE89507B600FCFDCF97BE46
:107F4000E89526C08437B1F42ED02DD0F82E2BD052
:107F50003CD0F601EF2C8F010F5F1F4F84911BD097
:107F6000EA94F801C1F70894C11CD11CFA94CF0C13
:107F7000D11C0EC0853739F428D08EE10CD085E9AC
:107F80000AD08FE07ACF813511F488E018D01DD067
:107F900080E101D065CF982F8091C00085FFFCCF94
:107FA0009093C60008958091C00087FFFCCF809118
:107FB000C00084FD01C0A8958091C6000895E0E648
:107FC000F0E098E1908380830895EDDF803219F02E
:107FD00088E0F5DFFFCF84E1DECF1F93182FE3DFCA
:107FE0001150E9F7F2DF1F91089580E0E8DFEE27F6
:047FF000FF270994CA
:027FFE00040479
:0400000300007E007B
:00000001FF
