:100000000C9464000C948C000C948C000C94A4153B
:100010000C94A4150C94A4150C948C000C946113EE
:100020000C948C000C948C000C948C000C948C0020
:100030000C948C000C948C000C948C000C948C0010
:100040000C943B140C948C000C9409140C94E31342
:100050000C948C000C948C000C948C000C948C00F0
:100060000C9485140C948C000000000024002700E0
:100070002A0002000000080002010000030407003B
:1000800000000000000000000000002300260029FE
:100090000000000000250028002B000404040404D4
:1000A0000404040202020202020303030303030125
:1000B00002040810204080010204081020010204FC
:1000C000081020001C16B32011241FBECFEFD8E06B
:1000D000DEBFCDBF26E0A8E8B3E001C01D92A33586
:1000E000B207E1F713E0A0E0B1E0E2E6F7E402C016
:1000F00005900D92A838B107D9F710E0C3E6D0E01B
:1001000004C02197FE010E948121C236D107C9F7A0
:100110000E948E170C94A4230C9400008F929F923F
:10012000AF92BF92CF92DF92EF92FF920F931F9305
:10013000FC014B01AA24BB24C52ED62EE72EFF249A
:10014000BC2DA42F90911506B82C992391F0A92FBE
:10015000B0E0A89D9001A99D300DB89D300D1124EF
:10016000B32E9C9D60011124BD2D949F800111240C
:10017000A12F40911B062091160630911706809101
:100180001806481324C0CF01880F991F8E0F9F1F98
:10019000820F931FE0911806E80FF92FF11DB0822E
:1001A000E0911906E80FF92FF11DB08320911A068E
:1001B000820F911DFC01A0831F910F91FF90EF9082
:1001C000DF90CF90BF90AF909F908F900895CF0118
:1001D000880F991F880F991F820F931FFC01E40F4E
:1001E000F11D1082D7CF2091980481E0213208F0D0
:1001F00044C0809174048111FCCF8091970492E0F7
:100200009093740491E0909373049FEF9093720421
:100210001092710420937004A7E7B4E0E0E5F4E0E5
:1002200090E0291331C010924F0490914F04880F31
:10023000892B80934F0480914E04813049F51092B0
:100240004E0480914F048093BB008091BC0083FDDD
:10025000F8CF85EC8093BC00809174048230E1F388
:10026000809172048F3FB1F0809172048032A1F0CE
:1002700080917204803391F084E0109276041092A1
:1002800098041092750408953D9131939F5FC9CFF2
:1002900085EEE0CF80E0F1CF82E0EFCF83E0EDCFDD
:1002A000909174049111FCCF91E090937404909319
:1002B00073042FEF2093720410927104260F209381
:1002C000700490934F0490914F04880F892B809372
:1002D0004F0480914E048130F9F410924E048091C5
:1002E0004F048093BB008091BC0083FDF8CF85EC68
:1002F0008093BC00809174048130E1F3809171049B
:10030000861710F460917104A0E5B4E0EEE2F4E029
:1003100080E0861303C0089585EEEACF9D91919306
:100320008F5FF7CF0895089508950895AF92BF9213
:10033000CF92DF92EF92FF920F931F93CF93DF93B1
:100340006C017B018B01040F151FEB015E01AE18E0
:10035000BF08C017D10759F06991D601ED91FC9102
:100360000190F081E02DC6010995892B79F7C5012F
:10037000DF91CF911F910F91FF90EF90DF90CF9081
:10038000BF90AF900895FC01538D448D252F30E030
:10039000842F90E0821B930B541710F0CF96089592
:1003A00001970895FC01918D828D981761F0A28DBF
:1003B000AE0FBF2FB11D5D968C91928D9F5F9F7385
:1003C000928F90E008958FEF9FEF0895FC01918D3B
:1003D000828D981731F0828DE80FF11D858D90E0A8
:1003E00008958FEF9FEF0895FC01918D228D892F45
:1003F00090E0805C9F4F821B91098F73992708952D
:100400008AEA94E00E94F40121E0892B09F420E0BB
:10041000822F089580E090E0892B29F00E9400024D
:1004200081110C9400000895FC01A48DA80FB92F30
:10043000B11DA35ABF4F2C91848D90E001968F730C
:100440009927848FA689B7892C93A089B1898C912B
:10045000837080648C93938D848D981306C002887A
:10046000F389E02D80818F7D80830895EF92FF9244
:100470000F931F93CF93DF93EC0181E0888F9B8DC7
:100480008C8D98131AC0E889F989808185FF15C081
:100490009FB7F894EE89FF896083E889F9898081A4
:1004A0008370806480839FBF81E090E0DF91CF9173
:1004B0001F910F91FF90EF900895F62E0B8D10E095
:1004C0000F5F1F4F0F731127E02E8C8D8E110CC004
:1004D0000FB607FCFACFE889F989808185FFF5CF4F
:1004E000CE010E941402F1CFEB8DEC0FFD2FF11D18
:1004F000E35AFF4FF0829FB7F8940B8FEA89FB898C
:1005000080818062CFCFCF93DF93EC01888D8823E9
:10051000B9F0AA89BB89E889F9898C9185FD03C066
:10052000808186FD0DC00FB607FCF7CF8C9185FF4B
:10053000F2CF808185FFEDCFCE010E941402E9CF7A
:10054000DF91CF910895833081F028F4813099F0C4
:100550008230A9F008958730A9F08830C9F084303E
:10056000B1F4809180008F7D03C0809180008F77EF
:1005700080938000089584B58F7784BD089584B5F5
:100580008F7DFBCF8091B0008F778093B00008956E
:100590008091B0008F7DF9CFCF93DF93282F30E08B
:1005A000F901ED58FF4F8491F901E155FF4FD491C6
:1005B000F901E556FF4FC491CC23A1F081110E94AF
:1005C000A302EC2FF0E0EE0FFF1FE957FF4FA591BC
:1005D000B491EC91ED2381E090E009F480E0DF91AB
:1005E000CF91089580E090E0FACF1F93CF93DF93EF
:1005F000282F30E0F901ED58FF4F8491F901E155C2
:10060000FF4FD491F901E556FF4FC491CC23A9F0D7
:10061000162F81110E94A302EC2FF0E0EE0FFF1FB6
:10062000EF56FF4FA591B4918FB7F894EC9111114B
:1006300008C0D095DE23DC938FBFDF91CF911F914F
:100640000895DE2BF8CF10922C0410922B041092F8
:100650007604109298041092740481E080937304DD
:1006600010924E0461E082E10E94F50261E083E1B4
:100670000E94F502E9EBF0E080818E7F808380812B
:100680008D7F808388E48093B80085E48093BC00EC
:1006900082E991E090932A048093290483E991E010
:1006A00090932804809327040895CF93DF9390E0DC
:1006B000FC01E155FF4F249185569F4FFC01849129
:1006C0008823D1F090E0880F991FFC01E859FF4F73
:1006D000A591B491FC01EF56FF4FC591D4916111E2
:1006E0000EC09FB7F8948C91E22FE0958E238C93E7
:1006F0002881E223E8839FBFDF91CF9108958FB7D0
:10070000F894EC91E22BEC938FBFF6CFCF93DF936D
:10071000EC0161E083E00E945503209731F460E032
:1007200083E0DF91CF910C94F502CF3FD10511F416
:1007300061E0F6CFE6E7F0E0E491E33029F140F440
:10074000E130B1F0E230D9F0C038D1058CF7E7CF15
:10075000E73021F1E83051F1E430B1F780918000C9
:10076000806280938000D0938B00C0938A0004C085
:1007700084B5806884BDC7BDDF91CF91089584B5ED
:10078000806284BDC8BDF8CF80918000806880936E
:100790008000D0938900C0938800EECF8091B00094
:1007A00080688093B000C093B300E6CF8091B00022
:1007B00080628093B000C093B400DECF3FB7F8945E
:1007C0008091130490911404A0911504B091160423
:1007D00026B5A89B05C02F3F19F00196A11DB11D9C
:1007E0003FBFBA2FA92F982F8827BC01CD01620FD8
:1007F000711D811D911D42E0660F771F881F991F93
:100800004A95D1F708950F931F93CF93DF93CDB7F8
:10081000DEB729970FB6F894DEBF0FBECDBF80912B
:10082000160690911706892B09F467C00E94DE0313
:1008300000911C0610911D0620911E0630911F0686
:10084000601B710B820B930B6C327140810591051B
:1008500068F3F89480911106909112069A83898327
:10086000E0911606F0911706DF01119680818987C5
:1008700090910D06E0912006F091210680912206CC
:10088000992309F445C09081982B98879081809591
:1008900089238F838F818C8388E08B8358856F8138
:1008A00049853B812C8189819A81508347FD252F81
:1008B0003A952083262F39F0441F00C00000608342
:1008C000000000C0F2CF38E04D9160830000019736
:1008D00061F7F0932106E093200649873B832C8340
:1008E0009A83898378940E94DE0360931C06709338
:1008F0001D0680931E0690931F0629960FB6F89446
:10090000DEBF0FBECDBFDF91CF911F910F91089534
:100910009081982B98879081809589238F838F81F0
:100920008E8388E08D8358856F8149853D812E8136
:1009300089819A81508347FD252F00C000C0208304
:1009400000C000C000C000C000C060830000262FAF
:100950003A9541F0441F000000C000C000C000C034
:1009600000C0E8CF38E04D9100C0608300C001971F
:1009700009F7F0932106E093200649873D832E83F3
:10098000AFCF8F929F92AF92BF92CF92DF92EF92B2
:10099000FF924B015C010E94DE036B017C010E940F
:1009A000DE036C197D098E099F09683E734081053D
:1009B0009105A8F321E0821A9108A108B10888EEF8
:1009C000C80E83E0D81EE11CF11C81149104A1041F
:1009D000B10429F7FF90EF90DF90CF90BF90AF90D8
:1009E0009F908F9008954F925F926F927F928F9217
:1009F0009F92AF92BF92EF92FF920F931F93CF936C
:100A00008C017B0180910B018131D9F08F3F09F47A
:100A10003FC068EC70E080E090E00E94C1048091EB
:100A20000F0190E0CF911F910F91FF90EF90BF9039
:100A3000AF909F908F907F906F905F904F900C94AD
:100A40008603E2E7F0E0C491C7FDE3CF61E081E116
:100A50000E945503C11132C02801012E000C660806
:100A6000770862E17AE780E090E0A30192010E94BA
:100A7000622149015A0181E0881A9108A108B10850
:100A800096E0C1113BC085B5887F846085BDABC051
:100A900081E180930B01E2E7F0E0C491CF3F09F4DC
:100AA000B8CFC13009F44AC080F1C23009F464C043
:100AB000C7FDAFCF61E081E10E9455039801012E8F
:100AC000000C440B550BC23009F078C029013A01E3
:100AD00064E274EF80E090E00E94622149015A01D3
:100AE00081E0881A9108A108B10895E08FEF881677
:100AF0009104A104B10411F00CF0B3CF8091B100C6
:100B0000887F892B8093B1006EC014BC15BC84B55E
:100B1000826084BD85B5816085BDECEAF0E0E4913A
:100B2000F0E0EE0FFF1FEF56FF4F85919491E0EC40
:100B3000F0E0E491E0939D04C0E088CF1092800043
:100B40001092810080918100886080938100809163
:100B50008100816080938100ECEAF0E0E491F0E0B4
:100B6000EE0FFF1FEF56FF4F85919491E0ECF0E000
:100B7000E491E0939C046ACF1092B0001092B1000F
:100B80008091B00082608093B0008091B10081605C
:100B90008093B100ECEAF0E0E491F0E0EE0FFF1F8B
:100BA000EF56FF4F8591949190939B0480939A0404
:100BB000E0ECF0E0E491E093990448CF60E072E16A
:100BC0008AE790E00E94622149015A0181E0881A77
:100BD0009108A108B108C13031F480918100887F6B
:100BE0008160809381009801220F331FD7010E94FA
:100BF000872128EE33E040E050E00E944021C130E0
:100C000099F0C23019F1C11104CF87BC2093A6041A
:100C10003093A7044093A8045093A90480916E00D8
:100C2000826080936E00F5CE909289008092880059
:100C30002093A2043093A3044093A4045093A504EA
:100C400080916F00826080936F00E3CE8092B3004A
:100C500020939E0430939F044093A0045093A104DA
:100C600080917000826080937000D3CE2FB7F8948B
:100C700060910F04709110048091110490911204FE
:100C80002FBF08950F931F93CF93DF93EC010E9422
:100C90003606688779878A879B87E881F98102848D
:100CA000F385E02DCE01099597FF15C00E94360609
:100CB000088519852A853B85601B710B820B930B78
:100CC0000C811D812E813F81601771078207930778
:100CD00020F38FEF9FEFDF91CF911F910F91089538
:100CE00085ED8093BC008091BC0084FDFCCF109208
:100CF000740408952091EB03260F3327331F21320C
:100D00003105ECF420917404FC0190E080E0243083
:100D100069F082E00895A091EB032191AC01455365
:100D20005C4FA40FB52FB11D2C930196861798F335
:100D30008091EB03680F6093EB0380E0089581E0FE
:100D400008950895E0912C0480912B04E81730F465
:100D5000F0E0E25DFB4F808190E008958FEF9FEF20
:100D6000089590912C0480912B042FEF3FEF98175A
:100D700048F4E92FF0E0E25DFB4F208130E09F5F17
:100D800090932C04C901089580912B0490912C0418
:100D9000891B990B0895CF92DF92EF92FF920F93E8
:100DA0001F93CF93DF937C01CB018A0120917504BF
:100DB000222389F0EB016B01C40ED51ECC15DD0595
:100DC00069F06991D701ED91FC910190F081E02DDE
:100DD000C7010995F3CF642F0E947A06C801DF91FD
:100DE000CF911F910F91FF90EF90DF90CF900895DA
:100DF000CF93DF931F92CDB7DEB76983209175043F
:100E00002223F9F020919804203258F021E030E0BC
:100E1000FC013383228390E080E00F90DF91CF913B
:100E2000089580917604E82FF0E0E958FB4F99810E
:100E300090838F5F809376048093980481E090E0A4
:100E4000ECCF61E0CE0101960E947A06F7CFCF93F6
:100E5000C62F90912D04906221E020937504909309
:100E600097041092760410929804682F87E495E016
:100E70000E94F8066C2F87E495E00E94F806CF9157
:100E80000C94F300FC01248131E03093750420932D
:100E9000970410927604109298048485682B87E456
:100EA00095E00E94F8060C94F30088E080932F06EA
:100EB00060E083E296E00C9442076093250470930F
:100EC000260491E090937504809397041092760421
:100ED0001092980487E495E00E94F8060C94F300C1
:100EE0002091190430911A042817390771F4909150
:100EF000170480911804981741F0E0911704F0E06E
:100F0000E557FC4F808190E008958FEF9FEF0895A3
:100F1000EF92FF920F931F93CF93DF93DC015C96C8
:100F2000ED90FC905D97E114F10479F481E090E09C
:100F300013969C938E93129790E080E0DF91CF916F
:100F40001F910F91FF90EF9008955196ED91FC91B4
:100F5000529750968C915097982F90950FB75E9618
:100F60002C915E97122F127021FD6095F8942081CC
:100F7000112319F1282B2083E7012197F1F728E0AD
:100F8000462F50E0308160FF1AC0382B3083E701D4
:100F90002197F1F7BA0175956795215089F71123CB
:100FA00081F08081892380830FBF5C968D919C9115
:100FB0000197F1F781E090E0C1CF2923DCCF3923FD
:100FC000E5CF9081892BEFCF2091190430911A043D
:100FD0002817390771F4809118042091170490E0C4
:100FE000805C9F4F821B910960E470E00E942C217D
:100FF000089590E080E008952091190430911A043A
:1010000028173907B9F4909117048091180498179C
:1010100089F0E0911704F0E0E557FC4F80812091C2
:10102000170430E02F5F3F4F2F73332720931704AF
:1010300090E008958FEF9FEF089590E080E008958D
:1010400010928A0361E089E00E94F50264E670E094
:1010500080E090E00E94C10461E08AE00C94F50217
:1010600060E08CE00E94F50268E572E080E090E0CC
:101070000E94C10461E08CE00C94F50260E085E020
:101080000E94F50260E47CE980E090E00E94C104E7
:1010900061E085E00C94F5028F929F92AF92BF922F
:1010A000FF920F931F93CF93DF93982F990F990F70
:1010B000990F24E0F22EF90E98E0899FE0011124A7
:1010C0002B96469F002D112410E030E020E04801CF
:1010D0005901A62A322F212F102F0027802A912A6A
:1010E000A22AB32A8F2D90E0C817D9077CF020914F
:1010F0000F06309110068217930720F4B501A40162
:101100000E948E000E940304F394ECCFDF91CF91F4
:101110001F910F91FF90BF90AF909F908F90089577
:101120000F93362FE42F90E040910F065091100658
:101130008417950740F4422F50E070E060E05E2B8A
:10114000632B0E948E00002319F00F910C9403046E
:101150000F9108950F9380911B04882361F001E0A3
:1011600020E040E060E080E00E94900881E0809311
:10117000070110921B040F91089590912D04906225
:1011800021E02093750490939704109276041092B6
:101190009804682F87E495E00E94F8060E94F30007
:1011A00080912D0461E080620E94500110922C0415
:1011B00080932B0487E495E00E94B1060895CF93B5
:1011C000C82FC770883060F083E10E94BD0890E0AE
:1011D00002C095958795CA95E2F78170CF910895E1
:1011E00082E1F3CFCF93DF93C82FD1E0883008F4AA
:1011F000D0E08D2F0E94BD08C77041E050E060E054
:1012000070E004C0440F551F661F771FCA95D2F7C0
:10121000682F642B8D2FDF91CF910C942707CF93EC
:10122000DF93C82FDDE0883008F4DCE08D2F0E94CA
:10123000BD08C77041E050E060E070E004C0440FBA
:10124000551F661F771FCA95D2F7682F642B8D2F05
:10125000DF91CF910C942707CF92DF92EF92FF920C
:101260000F931F93CF93DF93C0912304D091240455
:10127000F0905305E0905405FE01EE0FFF1FE25B76
:10128000FE4F608171818F2D9E2D0E945D0796E437
:10129000C92E91E0D92E10E000E0809111019091CB
:1012A00012010817190784F561E08F2D0E94500183
:1012B00010922C0480932B0487E495E00E94B106E1
:1012C000F601419151916F0120912504309126043E
:1012D0008227932784179507A1F485E08C9FF0015E
:1012E0008D9FF00D1124EE5CFE4FE00FF11F808109
:1012F000082E000C990B909322048093210480E027
:101300000DC00F5F1F4FC9CF80912104909122041F
:10131000009769F01092220410922104DF91CF917E
:101320001F910F91FF90EF90DF90CF9008956FEF96
:1013300070E08F2D9E2D0E945D072196D09324048E
:10134000C09323048091130190911401C817D90709
:10135000B1F61092240410922304D1CF0F931F935F
:10136000CF938C01C62F0E9442076C2F6460C80186
:101370000E9442076C2F6B7FC8010E94420783ECDA
:1013800090E00197F1F7CF911F910F9108950F937E
:101390001F93CF93DF938C01D62FC42F607F642BD4
:1013A0000E94AE0980E1D89FB00111246C2BC801C6
:1013B000DF91CF911F910F910C94AE09CF93DF93E2
:1013C000CDB7DEB728970FB6F894DEBF0FBECDBFFE
:1013D00098E0EBE1F1E0DE01119601900D929A9513
:1013E000E1F790912B06961710F46FEF690F262FF7
:1013F00030E0220F331F41E050E04C0F5D1F240FFF
:10140000351FF9016081680F606840E083E296E073
:1014100028960FB6F894DEBF0FBECDBFDF91CF91F7
:101420000C94C70940E061E083E296E00E94C7099E
:101430008BE39FE10197F1F780912C06882321F03F
:1014400060E080E00C94DE09089541E00E94C70945
:1014500081E090E00895CF93DF93EC01888199813A
:10146000009711F00E943E22198218821D821C8270
:101470001B821A82DF91CF910895FC0180819181B6
:10148000009711F00C943E220895CF93DF931092B1
:101490002F0660E083E296E00E9442074091110629
:1014A0005091120670E060E0809116069091170648
:1014B0000E948D230E94030461E08BE00E94F502EC
:1014C00083E00E94CC02EC01892B49F580910B0648
:1014D00090910C060A9754F4E9E8F5E08191919116
:1014E000892B11F12196CA30D105C1F7CFEFDFEF7B
:1014F000D0938903C093880381E080938A0368EEC8
:1015000073E080E090E00E94C10481E080931C04BD
:101510008093070110921B04DF91CF91089561E041
:101520008AE00E94F502EBCFFE01EE0FFF1FEE0FE7
:10153000FF1FE356FA4F80EC94EDA1E0B0E080830A
:101540009183A283B383FE01EE0FFF1FE757FA4F8B
:1015500080E298E091838083FE01EE0FFF1FEB5342
:10156000FA4F81E090E091838083FE01E351FA4FCE
:1015700080830E943606FE01EE0FFF1FEE0FFF1F55
:10158000EF59FA4F608371838283938380910B06B6
:1015900090910C06019690930C0680930B06A8CFB1
:1015A00060E086E00E94F50260E47CE980E090E083
:1015B0000E94C10461E086E00E94F5020C94450A95
:1015C0002091590530915A05232B39F421E0FC0173
:1015D0008081882361F020E00AC0BC01809155051C
:1015E000909156050E94942321E0892BA1F7822F28
:1015F0000895FB0101900020E9F73197AF01461BE8
:10160000570BDC01ED91FC910280F381E02D0994F0
:101610008F929F92AF92BF92EF92FF920F931F9380
:10162000CF93DF93CDB7DEB7A1970FB6F894DEBFA7
:101630000FBECDBF7C01FA01CB0119A2223008F404
:101640002AE08E010F5D1F4F822E912CB12CA12C10
:10165000BF01A50194010E944021F901CA016A302D
:101660000CF5605DD8016E938D01232B242B252B67
:1016700079F790E080E0109721F0BD01C7010E944A
:10168000F90AA1960FB6F894DEBF0FBECDBFDF9169
:10169000CF911F910F91FF90EF90BF90AF909F90CF
:1016A0008F900895695CDECF462F50E070E060E0D7
:1016B0002AE00C94080BAB01770F660B770B2AE03E
:1016C0000C94080B0F931F93CF93DF93EC010E94B0
:1016D000F90A8C0168E971E0CE010E94F90A800FD5
:1016E000911FDF91CF911F910F9108950C94F90AEA
:1016F0000F93CF93C09106018C2F880F63E08C0F5E
:101700000E94DE09C33008F06FC0EC2FF0E0E0501B
:10171000FF4F8081682F70E08530E8F164507109D7
:1017200083E296E00E945B0B6FEB71E083E296E050
:101730000E94760B20910601822F90E0FC01E85F69
:10174000FE4F31E03083FC01E050FF4FE081F0E0DC
:10175000E85DFE4F6081FC01E45FFE4F6083825EC6
:101760009B4FFC018081689F602D112441E082E045
:10177000821B0E944C0880910601982F990F63E00C
:10178000890F0E94DE0968EC70E080E090E0CF9164
:101790000F910C94C1046F5F7F4F83E296E00E942B
:1017A0005B0B67EA71E083E296E00E94760B209182
:1017B0000601822F90E0FC01E85FFE4F1082FC01E1
:1017C000E050FF4FE081F0E0E35DFE4F6081FC01FF
:1017D000E45FFE4F6083825E9B4FFC018081689FC7
:1017E000602D112440E0C3CFC43029F5609104017D
:1017F00083E296E00E94540BE0910601F0E0E05095
:10180000FF4FE081F0E0E85DFE4FC081C093100122
:1018100001E020E040E06C2F81E00E94900881E030
:101820000E94DF08C89F602D112420E040E082E084
:101830000E949008A0CFC330B1F46091030183E20D
:1018400096E00E94540BE0910601F0E0E050FF4F5B
:10185000E081F0E0ED5DFE4F808180930F0190E02C
:101860000E94860388CFEC2FF0E0E050FF4FE0812C
:10187000EF3008F080CFF0E0E05CF34F0C94812172
:101880004F0C560C590C5C0C5F0C620C650C680C10
:10189000710C740C770C7A0C7D0C800C6E0C68E269
:1018A00072E083E296E00E94760B65CF69EA71E010
:1018B000F8CF6FEA71E0F5CF65EB71E0F2CF6BEB3B
:1018C00071E0EFCF61EC71E0ECCF67EC71E0E9CF54
:1018D00080911D0461EA71E0882319F36BE971E0DE
:1018E000E0CF6DEC71E0DDCF63ED71E0DACF69ED53
:1018F00071E0D7CF6FED71E0D4CF65EE71E0D1CF5D
:101900006BEE71E0CECF0F931F93CF93DF938C01DB
:10191000EB01FC01808191810097E1F06881798180
:1019200061157105A9F0428153812C813D814217D7
:10193000530770F00E949D238C819D81F80195834F
:1019400084831D821C82DF91CF911F910F91089596
:101950000E943E2288819981F801918380838A8147
:101960009B81938382838C819D819583848319825B
:1019700018821B821A82E5CF0F931F93CF93DF93B8
:10198000EC0188819981009759F02A813B812617C3
:10199000370730F081E0DF91CF911F910F910895CB
:1019A0008B016F5F7F4F0E94C722009759F0998388
:1019B00088831B830A832C813D81232B59F7FC01EB
:1019C0001082E8CF80E0E7CFEF92FF920F931F9352
:1019D000CF93DF936115710541F480E0DF91CF91E2
:1019E0001F910F91FF90EF90089541155105B1F0AF
:1019F0007B01EC010C811D81040F151FB8010E94B1
:101A0000BC0C882351F3288139818C819D81B701D9
:101A1000820F931F0E949D231D830C8381E0DECFE4
:101A2000EF92FF920F931F93CF93DF93EC017B0113
:101A30008A01BA010E94BC0C81110BC0CE010E9428
:101A40002B0ACE01DF91CF911F910F91FF90EF9064
:101A500008951D830C83B701888199810E949D237D
:101A6000F0CFCF93DF93EC01FB018617970749F086
:101A7000608171816115710541F0448155810E9439
:101A8000100DCE01DF91CF9108950E942B0AF9CF5E
:101A9000FC01118210821382128215821482FB01D2
:101AA00001900020E9F73197AF01461B570B0C94CA
:101AB000100DEF92FF920F931F93CF93DF9300D0FF
:101AC000CDB7DEB78C017B016AE971E00E94480D59
:101AD000C7010E94420697FD0EC08332910559F05E
:101AE00089831A8241E050E0BE016F5F7F4FC801D9
:101AF0000E94E40CEDCFC8010F900F90DF91CF91C1
:101B00001F910F91FF90EF900895AF92BF92CF92E7
:101B1000DF92EF92FF920F931F93CF93DF937C019D
:101B20006B015A0189012417350720F48B2D5901C7
:101B3000042F182F6AE971E0C7010E94480DD601F1
:101B40001496CD91DC91AC16BD0620F50C171D073F
:101B500008F4E801D601ED91FC911197EC0FFD1FFF
:101B6000108110826D917C916A0D7B1D611571054C
:101B7000E9F0FB0101900020E9F73197AF01461B26
:101B8000570BC7010E94100DF60180819181C80F8B
:101B9000D91F1883C701DF91CF911F910F91FF903B
:101BA000EF90DF90CF90BF90AF900895C7010E9453
:101BB0002B0AEACFEF92FF920F93CF93DF9300D0DF
:101BC00000D000D0CDB7DEB77C018091100101E0DC
:101BD000623009F449C0633009F44AC0282F40E05C
:101BE000613009F043C020E040E0682F81E00E94AE
:101BF000900844E150E061EF71E0C7010E94E40CFD
:101C00002FE030E050E040E0B701CE0101960E94A5
:101C1000850DBE016F5F7F4FC7010E94830CCE010F
:101C200001960E943D0A61E080E00E94DE09F70112
:101C3000448155816081718183E296E00E94960122
:101C400080910601982F990F63E0890F0E94DE09A9
:101C500026960FB6F894DEBF0FBECDBFDF91CF91B1
:101C60000F91FF90EF900895282F482F60E0BECF8E
:101C700020E0FBCF0F931F93CF93DF9300D000D0D2
:101C800000D0CDB7DEB780918A038823F1F110929E
:101C90008A0380918803909189038A309105ACF57D
:101CA00020910B0630910C062115310571F1FC01D4
:101CB000EE0FFF1FE757FA4F40815181452B29F165
:101CC00011821082FC01E351FA4F1082FC01EE0FE9
:101CD000FF1FE950FA4F11821082FC01EE0FFF1F27
:101CE000EE0FFF1FE356FA4F108211821282138209
:101CF000880F991FFC01E752FA4F11821082215080
:101D0000310930930C0620930B0660E08AE00E94B4
:101D1000F50260ED77E080E090E00E94C104109150
:101D2000100100E020E040E0612F81E00E94900877
:101D300020E040E0612F82E00E94900801E02FE067
:101D40004FE06FE080E00E94900880910F0190E0EA
:101D50000E9486030E94120A0E94550762E080E0FA
:101D60000E94DE0966E072E083E296E00E94760B54
:101D700063E080E00E94DE0969E172E083E296E0C0
:101D80000E94760B80910601982F990F63E0890FCE
:101D90000E94DE0960912906862F816080932906C2
:101DA000696040E083E296E00E94C7096EE272E05B
:101DB000CE0101960E94480D61E0CE0101960E947D
:101DC000DA0DCE0101960E943D0A60E08BE00E9490
:101DD000F50281E00E94DF0891E0811190E090938C
:101DE0001C041092070110921B0426960FB6F8945B
:101DF000DEBF0FBECDBFDF91CF911F910F91089530
:101E0000CF93DF9300D000D000D0CDB7DEB760E035
:101E10008AE00E94F50260ED77E080E090E00E94A9
:101E2000C10461E372E0CE0101960E94480D60E0BA
:101E3000CE0101960E94DA0DCE0101960E943D0A64
:101E400060E087E00E94F50260E47CE980E090E0D9
:101E50000E94C10469E372E0CE0101960E94480D20
:101E600061E0CE0101960E94DA0DCE0101960E943A
:101E70003D0A61E087E00E94F50226960FB6F894CD
:101E8000DEBF0FBECDBFDF91CF910895CF93DF931B
:101E900000D000D000D0CDB7DEB761E472E0CE0153
:101EA00001960E94480D60E0CE0101960E94DA0D75
:101EB000CE0101960E943D0A60E088E00E94F50292
:101EC00060E47CE980E090E00E94C10469E472E093
:101ED000CE0101960E94480D61E0CE0101960E945C
:101EE000DA0DCE0101960E943D0A61E088E00E9471
:101EF000F50261E08AE00E94F50226960FB6F8949A
:101F0000DEBF0FBECDBFDF91CF9108950F931F931A
:101F1000CF93DF9300D000D000D0CDB7DEB78C01D7
:101F20008AEA94E00E94F4016AEA74E0892B41F4A1
:101F300080E396E00E94E407892B49F160E376E0B4
:101F4000CE0101960E94590DBE016F5F7F4F85E55E
:101F500095E00E94830CCE0101960E943D0AF80193
:101F600011821082138212821582148265E575E057
:101F7000C8010E94310DC80126960FB6F894DEBF45
:101F80000FBECDBFDF91CF911F910F9108956AE9E8
:101F900071E0C8010E94480DEECF0F931F93CF93BD
:101FA000DF93CDB7DEB72C970FB6F894DEBF0FBE28
:101FB000CDBF8C0162E572E08AEA94E00E94620B78
:101FC00061E089E00E94F50261E08BE00E94F50289
:101FD00061E08CE00E94F50261E088E00E94F50279
:101FE00061E087E00E94F50261E086E00E94F50270
:101FF00061E085E00E94F50261E08BE00E94F5025D
:1020000081E080931D0466E572E0CE0101960E9496
:10201000480DF8014481558160817181CE0101969E
:102020000E94E40C811104C0CE0101960E942B0A8B
:1020300018861F821A8619861C861B86BE016F5F52
:102040007F4FCE0107960E94310D63E0CE010796C7
:102050000E94DA0DCE0107960E943D0ACE0101963C
:102060000E943D0A01E020E042E360E081E00E943E
:1020700090080E94550784E10E94DF08811107C083
:1020800064E670E080E090E00E94C104F4CF2C96FA
:102090000FB6F894DEBF0FBECDBFDF91CF911F9179
:1020A0000F9108957F928F929F92AF92BF92CF929D
:1020B000DF92EF92FF920F931F93CF93DF9300D0A5
:1020C00000D000D0CDB7DEB74B015C01042F722EDB
:1020D0000E9436066B017C0110E00E9436066C19E6
:1020E0007D098E099F09681579058A059B0508F009
:1020F0007BC0CE0101960E94860FBE016F5F7F4FAD
:1021000085E595E00E94830CCE0101960E943D0A70
:102110008DE592E00E94E00A882349F160E672E0D2
:102120008AEA94E00E94620B62E672E0CE010196B8
:102130000E94480DCE0101960E94CD0FCE0101965E
:102140000E943D0A80E026960FB6F894DEBF0FBECF
:10215000CDBFDF91CF911F910F91FF90EF90DF9056
:10216000CF90BF90AF909F908F907F90089581E027
:102170000E94DF0881110BC083E00E94CC02892BF2
:1021800031F0113019F462EC72E0D0CF11E000238D
:1021900069F085E00E94DF08882341F087E00E9413
:1021A000DF08882319F069E672E0C0CF772069F074
:1021B00086E00E94DF08882319F062E772E0B6CF5C
:1021C00082E00E94DF088111F8CF84E10E94DF08DD
:1021D000811103C069E772E0A9CF64E670E080E096
:1021E00090E00E94C10479CF81E0ADCF0F931F939F
:1021F000CF93DF9300D000D000D0CDB7DEB7182F3B
:10220000882309F4EAC086E00E94DF088111B0C08B
:1022100082E00E94DF088111ABC060E872E0CE016D
:1022200001960E94480D62E0CE0101960E94DA0DEF
:10223000CE0101960E943D0A10E0812F26960FB62E
:10224000F894DEBF0FBECDBFDF91CF911F910F91EC
:10225000089564E670E080E090E00E94C10486E0AA
:102260000E94DF088111F5CF82E00E94DF08811112
:10227000F0CF68E873E180E090E00E94C10461E083
:1022800087E00E94F50261E085E00E94F50260E9C6
:1022900072E0CE0101960E94480D61E0CE010196E8
:1022A0000E94DA0DCE0101960E943D0A69E972E0B2
:1022B00080E396E00E94620BC0CF6091100101E0C4
:1022C00020E0462F81E00E94900861E08BE00E94B0
:1022D000F5026DE972E0CE0101960E94480D61E0C1
:1022E000CE0101960E94DA0DCE0101960E943D0AB0
:1022F00060E086E00E94F50220E041E060E47FE1DA
:1023000080E090E00E945210882309F496CF65EA9D
:1023100072E0CE0101960E94480D60E0CE01019668
:102320000E94DA0DCE0101960E943D0A60E088E02D
:102330000E94F50220E041E060E47CE980E090E06A
:102340000E945210082F882309F477CF61E088E0BB
:102350000E94F50261E086E00E94F5026EEA72E0FA
:1023600080E396E00E94620B0E94450A102F65CF21
:102370000E943A0E0E94550761E372E0CE01019679
:102380000E94480D60E0CE0101960E94DA0DCE0158
:1023900001960E943D0A60E087E00E94F50268E82D
:1023A00073E180E090E00E94C10460E085E00E945B
:1023B000F50262EB72E0CE0101960E94480D60E0EA
:1023C000CE0101960E94DA0DCE0101960E943D0ACF
:1023D00060E375E780E090E040CF84E00E94DF0892
:1023E000811106C080E00E94DF08882309F415CF20
:1023F00085E00E94DF08882309F45FCF60E872E07F
:10240000CE0101960E94480D62E0CE0101960E9425
:10241000DA0DCE0101960E943D0A0FCF0F931F9354
:10242000CF93DF9300D000D000D0CDB7DEB78823A4
:1024300009F445C187E00E94DF0881111CC060E8F3
:1024400072E0CE0101960E94480D62E0CE01019635
:102450000E94DA0DCE0101960E943D0A10E0812F04
:1024600026960FB6F894DEBF0FBECDBFDF91CF9199
:102470001F910F91089581E00E94DF08882381F168
:1024800083E00E94CC02892B21F461E089E00E9464
:10249000F5026091100101E020E0462F81E00E94EA
:1024A000900886E00E94DF0881114AC082E00E9405
:1024B000DF08811145C08BE00E94CC02892B09F412
:1024C0004BC060E08BE00E94F50220E041E060E15B
:1024D00077E280E090E00E94521081113DC0BECFB3
:1024E0006BEB72E0CE0101960E94480D62E0CE01D6
:1024F00001960E94DA0DCE0101960E943D0A67EC1A
:1025000072E080E396E00E94F90A13E181E00E9404
:10251000DF08811102C0115061F481E00E94DF08E0
:102520008111AECF83E00E94CC02892B09F4A8CFA1
:1025300095CF60E177E280E090E00E94C104E6CFB1
:102540008BE00E94CC02892B21F060E08BE00E949E
:10255000F50281E00E94F6106BEC72E0CE0101966C
:102560000E94480D60E0CE0101960E94DA0DCE0176
:1025700001960E943D0A41E064E682E00E944C0818
:1025800085E00E94DF08882309F45BC087E00E9491
:10259000DF08882309F455C021E040E068EF7AE2C3
:1025A00080E090E00E945210882309F457CF85E024
:1025B0000E94DF0881115CC021E040E060ED77E01F
:1025C00080E090E00E945210182F882309F446CF33
:1025D00041E060E082E00E944C0887E00E94DF0852
:1025E000882309F452C083E00E94CC02892B21F495
:1025F00061E089E00E94F5026FED72E0CE01019684
:102600000E94480D61E0CE0101960E94DA0DCE01D4
:1026100001960E943D0A64EF71E080E090E00E9424
:10262000C10480E00E94F6106BEE72E080E396E059
:102630000E94620B68EE73E088EB91E00E94F30465
:102640000ECF60E08CE00E94F50268E572E080E069
:1026500090E00E94C10461E08CE00E94F50221E05C
:1026600040E060EA7FE080E090E00E94521088CF76
:1026700087E00E94DF08882309F49ECF21E040E034
:1026800068EE73E080E090E08DCF6FEE72E080E363
:1026900096E00E94620B63EF72E0CE0101960E9409
:1026A000480D61E0CE0101960E94DA0DCE0101963F
:1026B0000E943D0A60E089E00E94F502BBCF85E000
:1026C000BACE1F920F920FB60F9211242F933F9301
:1026D0004F935F936F937F938F939F93AF93BF932A
:1026E000EF93FF9380919E0490919F04A091A0048A
:1026F000B091A104892B8A2B8B2BD1F19091990455
:10270000E0919A04F0919B048081892780838091D5
:102710009E0490919F04A091A004B091A10418166A
:1027200019061A061B069CF480919E0490919F0442
:10273000A091A004B091A1040197A109B1098093CF
:102740009E0490939F04A093A004B093A104FF91D2
:10275000EF91BF91AF919F918F917F916F915F9119
:102760004F913F912F910F900FBE0F901F90189592
:1027700080910B01E2E7F0E0E4919FEF90930B0171
:10278000E13051F030F0E23069F060E00E94F50293
:10279000DECF10926E00F9CF90916F009D7F9093E5
:1027A0006F00F3CF909170009D7F9093700091E047
:1027B0009093B0009091B100987F94609093B10095
:1027C0001092B300E2CF1F920F920FB60F92112416
:1027D0002F933F934F935F936F937F938F939F9329
:1027E000AF93BF93EF93FF938AEA94E00E941402A1
:1027F000FF91EF91BF91AF919F918F917F916F91D9
:102800005F914F913F912F910F900FBE0F901F90AE
:1028100018951F920F920FB60F9211242F938F933A
:102820009F93EF93FF93E091BA04F091BB048081F2
:10283000E091C004F091C10482FD1BC090818091A1
:10284000C3048F5F8F732091C404821741F0E0911D
:10285000C304F0E0E655FB4F958F8093C304FF91CE
:10286000EF919F918F912F910F900FBE0F901F901E
:1028700018958081F4CF1F920F920FB60F921124FA
:102880002F933F938F939F93AF93BF9380910F04A8
:1028900090911004A0911104B091120430910E0493
:1028A00023E0230F2D3758F50196A11DB11D20936C
:1028B0000E0480930F0490931004A0931104B0931E
:1028C00012048091130490911404A0911504B09106
:1028D00016040196A11DB11D809313049093140456
:1028E000A0931504B0931604BF91AF919F918F915F
:1028F0003F912F910F900FBE0F901F90189526E8D3
:10290000230F0296A11DB11DD2CF1F920F920FB6B9
:102910000F9211242F933F934F935F936F937F9365
:102920008F939F93AF93BF93EF93FF938091B900E1
:10293000887F803609F44AC0F0F5883209F4A7C0D0
:1029400018F5803109F49BC0B8F4882309F4F9C064
:10295000883009F494C0FF91EF91BF91AF919F919E
:102960008F917F916F915F914F913F912F910F9038
:102970000FBE0F901F901895883109F488C08032DF
:1029800051F78093720414C0803409F49DC040F460
:102990008033B9F38833F9F68093720485ECB0C0C4
:1029A000803509F485C0883509F496C0883499F6D5
:1029B0000E947006D0CF883909F48CC038F588376A
:1029C00029F050F4883611F0803729F683E080939F
:1029D000740410920D0457C0883809F47BC0803904
:1029E00019F0803809F0B7CF80910D04803208F0DB
:1029F00071C0E0910D0481E08E0F80930D048091F1
:102A0000BB00F0E0E351FC4F80833DC0803B39F0D8
:102A1000E0F4803A09F479C0883A09F09CCF84E068
:102A2000809374041092EC031092EB03E09129045C
:102A3000F0912A0409958091EB0381110FC081E088
:102A40008093EB031092CB0309C0803C09F4A6CF1E
:102A5000883C09F4A3CF883B09F07DCFE091EC03DB
:102A600081E08E0F8093EC03F0E0E553FC4F808112
:102A70008093BB009091EC038091EB0329C080917F
:102A80004F048093BB0085EC8093BC0064CF909191
:102A9000710480917004981758F5E091710481E0F9
:102AA0008E0F80937104F0E0E05BFB4F8081E9CFF3
:102AB000E091710481E08E0F809371048091BB00DE
:102AC000F0E0E05BFB4F8083909171048091700493
:102AD0009817C8F285E8D8CFE091710481E08E0F95
:102AE000809371048091BB00F0E0E05BFB4F80833A
:102AF0008091730481115CCF81E080934E0484EA5D
:102B00008093BC001092740426CF85EC8093BC00A7
:102B10001092740480910D04803230F4E0910D0421
:102B2000F0E0E351FC4F108260910D0470E0E09101
:102B30002704F09128048DEE93E0099510920D047E
:102B40000ACF1092720434CF1F920F920FB60F92D9
:102B500011242F933F934F935F936F937F938F93A2
:102B60009F93AF93BF93EF93FF93E0911904F0917C
:102B70001A04309749F0A685B7858585968D91FF13
:102B800014C09C918923A1F4FF91EF91BF91AF9163
:102B90009F918F917F916F915F914F913F912F9175
:102BA0000F900FBE0F901F9018959C91892361F78D
:102BB000A389B4899C918589809589238C93868982
:102BC00097890197F1F7608D718DA685B785558539
:102BD00038E020E0CB010197F1F7822F90E0959546
:102BE0008795282F4C91452309F02068315091F7A3
:102BF000868D81FD20958091180490E001968F7359
:102C0000992730911704381799F0A0911804B0E073
:102C1000A557BC4F2C9380931804828D938D0197F8
:102C2000F1F7A389B4898C919589892B8C93ACCFCA
:102C3000868D8160868FF1CFCF93DF931092AD04A4
:102C40001092AC0488EE93E0A0E0B0E08093AE0474
:102C50009093AF04A093B004B093B1042AE531E09F
:102C60003093AB042093AA0425EC30E03093B704F2
:102C70002093B60424EC30E03093B9042093B804D8
:102C800020EC30E03093BB042093BA0421EC30E018
:102C90003093BD042093BC0422EC30E03093BF0499
:102CA0002093BE0426EC30E03093C1042093C0048E
:102CB0001092C3041092C4041092C5041092C6046A
:102CC00010924A051092490580934B0590934C054C
:102CD000A0934D05B0934E052CE631E030934805A6
:102CE00020934705109233061092320680933406E3
:102CF00090933506A0933606B09337068AE891E0A4
:102D00009093310680933006109247061092460643
:102D1000109249061092480610924B0610924A06ED
:102D200010924D0610924C0660914E066E7F6D7F9C
:102D300060934E066695617081E0682782E00E948C
:102D4000F50261E082E00E945503E1EBF0E0E491DE
:102D5000E0934006EDE9F0E0E491F0E0EE0FFF1FB4
:102D6000EF56FF4F859194919093420680934106D0
:102D700060E080E10E94550380914E0681FD04C011
:102D800061E080E10E94F50280E180933C06EFEB78
:102D9000F0E0E491E0933D06EBEAF0E0E491F0E04E
:102DA000EE0FFF1FE957FF4F8591949190933F06D7
:102DB00080933E0686E290E09093540580935305FD
:102DC00084E090E09093140180931301909312019A
:102DD0008093110110922606109225068EE791E04D
:102DE000909324068093230610922C0687E280930A
:102DF000270684E180932D0684E080932E061092AE
:102E00002F0610920E061092150610921C061092B4
:102E10001D0610921E0610921F0681E080931B066D
:102E2000809318061092190682E080931A06109279
:102E30000D0684E590E090931206809311060E949F
:102E4000A2219093170680931606009709F45DC09F
:102E500024E5DC011D922A95E9F78CE190E090933E
:102E6000100680930F0684E090E090931406809300
:102E7000130680910E06882341F061E084E00E94F1
:102E8000550360E084E00E94F502EFE9F0E0E49190
:102E9000F0E0EE0FFF1FEF56FF4F85919491909356
:102EA000210680932006E3EBF0E0E491E093220614
:102EB0000E943606CDEED5E0E9E8F5E041E655E0C2
:102EC000199211921192DA016D937D938D939D93D6
:102ED000AD019F01225B3F4FD9011D921C92B5E0CD
:102EE000ED39FB0769F710920C0610920B066FEF95
:102EF00072E08BE595E00E94480D6AE971E085E596
:102F000095E0DF91CF910C94480D1092120610922B
:102F100011061092100610920F06A5CFCF93DF93E3
:102F2000CDB7DEB766970FB6F894DEBF0FBECDBF44
:102F3000789484B5826084BD84B5816084BD85B594
:102F4000826085BD85B5816085BD80916E008160A0
:102F500080936E0010928100809181008260809346
:102F60008100809181008160809381008091800048
:102F70008160809380008091B10084608093B10073
:102F80008091B00081608093B00080917A0084606D
:102F900080937A0080917A00826080937A00809199
:102FA0007A00816080937A0080917A0080688093B3
:102FB0007A001092C100E091BA04F091BB0482E063
:102FC0008083E091BA04F091BB041082E091B604D2
:102FD000F091B7041082E091B804F091B90480E157
:102FE00080831092C204E091BE04F091BF0486E099
:102FF0008083E091BC04F091BD0480818061808376
:10300000E091BC04F091BD04808188608083E091F0
:10301000BC04F091BD04808180688083E091BC0491
:10302000F091BD0480818F7D808310924B061092B9
:103030004A061092490610924806109247061092CE
:1030400046068DE991E090934D0680934C06909151
:103050003C06963108F047C02DEB30E03093470630
:10306000209346062BE931E0309349062093480629
:103070002CE231E030934B0620934A062091680001
:1030800084E0983048F031E09E3008F430E081E090
:1030900001C0880F3A95EAF7822B809368002DE6ED
:1030A00030E0983050F02BE630E09E3030F02CE6E7
:1030B00030E0963110F030E020E030934406209369
:1030C0004306292F30E0983008F0CCC281E001C0DF
:1030D000880F9A95EAF78093450680914C06909167
:1030E0004D060197F1F780914A0690914B06892B86
:1030F00049F1E0911904F0911A0426E0E033F20757
:1031000009F1309739F0A389B4899C91858980951C
:1031100089238C9380914E068E7F80934E06109269
:1031200018041092170480E396E090931A04809399
:103130001904E0914306F091440680819091450680
:10314000892B808310922D040E9423036FEF80E06F
:103150000E9427076FEF81E00E9427076FEF70E062
:1031600080915305909154050E945D0710922404AC
:103170001092230461E08AE00E94F50261E08AE097
:103180000E94550361E089E00E94F50261E089E058
:103190000E94550361E08BE00E94F50261E08BE044
:1031A0000E94550361E08CE00E94F50261E08CE032
:1031B0000E94550361E088E00E94F50261E088E02A
:1031C0000E94550361E087E00E94F50261E087E01C
:1031D0000E94550361E086E00E94F50261E086E00E
:1031E0000E94550361E085E00E94F50261E085E000
:1031F0000E94550361E08BE00E94F50287E00E9487
:10320000F20887E00E940F0985E00E94F20885E03D
:103210000E940F0986E00E94F20886E00E940F09D2
:1032200084E00E94F20884E00E940F0982E00E947C
:10323000F20882E00E940F0980E00E94F20880E01C
:103240000E940F0984E10E94F20884E10E940F09A4
:1032500081E00E94F20861E083E00E9455038091C2
:103260000F0190E00E9486038DE00E94F2088DE03D
:103270000E940F098BE00E94F2088BE00E940F0968
:103280008EE00E94F2088EE00E940F0988E00E9402
:10329000F20888E00E940F0989E00E94F20889E0A4
:1032A0000E940F098AE00E94F2088AE00E940F093A
:1032B000809113069091140697FD08C061E00E946A
:1032C000550360E0809113060E94F50281E080932F
:1032D0000E06409111065091120670E060E0809158
:1032E0001606909117060E948D230E9403040E94E7
:1032F00023031092280680912E06823018F098E061
:103300009093280680932B0662E370E080E090E0C3
:103310000E94C10460912F0683E296E00E9442075A
:1033200068EE73E080E090E00E94C10460E383E215
:1033300096E00E94AE090BE416E4C8010197F1F78C
:1033400060E383E296E00E94AE09C8010197F1F7BD
:1033500060E383E296E00E94AE0983E592E0019784
:10336000F1F760E283E296E00E94AE0960912806E0
:10337000606240E083E296E00E94C70984E08093A7
:10338000290640E06CE083E296E00E94C7090E94B3
:10339000120A82E080932A0640E066E083E296E02B
:1033A0000E94C70940E062E083E296E00E94C709FC
:1033B0008BE39FE10197F1F762E080E00E94DE0974
:1033C00066E072E083E296E00E94760B63E080E0C4
:1033D0000E94DE0960E173E083E296E00E94760BD2
:1033E00080910601982F990F63E0890F0E94DE09F2
:1033F00060912906862F816080932906696040E0EC
:1034000083E296E00E94C70980910B0690910C061A
:103410000A9774F4E9E8F5E010E000E081919191F9
:10342000892B09F401C60F5F1F4F0A301105B1F750
:1034300086E00E94DF08811122C182E00E94DF083D
:1034400081111DC10E943A0E89E00E94CC02892B95
:10345000B9F487E00E94DF08882309F413C161E012
:1034600089E00E94F50287E00E94DF08882341F08E
:1034700085E00E94DF08882319F081E080931D0415
:10348000BE016F5F7F4F7B0111E00E9436062B016A
:103490003C0189E895E0988B8F87B1E6CB2EB5E0AB
:1034A000DB2EDE8ACD8AFC01312C212C9F01225992
:1034B0003F4FD9011D921C92808191813296892BB8
:1034C000B9F1AD89BE894D915D916D917C91139754
:1034D000DC968D909D90AD90BC90DF97D301C2019A
:1034E000841B950BA60BB70B88159905AA05BB0580
:1034F000F8F0480D591D6A1D7B1DAD89BE894D939D
:103500005D936D937C931397C10183519A4FDC01B6
:103510008C91882369F082AD93AD009709F0BAC011
:10352000CF0184599F4F21E030E0DC012D933C9383
:103530007FEF271A370A8D899E8904969E8B8D8B83
:103540009AE02916310409F0B1CFB12CA12C460123
:10355000A6E98A0E911CF401808191818130910548
:1035600009F4BAC0029709F4BDC0BFEFAB1ABB0A99
:10357000E2E0CE0ED11CFAE0AF16B10441F78DE0C7
:103580000E94DF0881111BC000911F0401270093D6
:103590001F0464E670E088EB91E00E94F304609100
:1035A0000D01069F602D11244091090181E00E94C8
:1035B0004C086CE271E080E090E00E94C1048EE073
:1035C0000E94DF0881111BC000911E040127009397
:1035D0001E0464E670E088EB91E00E94F3046091C1
:1035E0000C01069F602D11244091080182E00E9489
:1035F0004C086CE271E080E090E00E94C1048BE036
:103600000E94DF0881111BC0009120040127009354
:10361000200464E670E088EB91E00E94F30460917E
:103620000E01069F602D112440910A0180E00E9446
:103630004C086CE271E080E090E00E94C10488E0F8
:103640000E94DF088111A7C080910701882309F437
:103650007AC00E9455071092070168EC70E080E084
:1036600090E0A7C19E3040F42850310981E001C0AC
:10367000880F2A95EAF72FCD2E503109F7CF0E94F7
:10368000450AE2CE85E00E94DF08882309F4E7CEF0
:1036900060E0E6CE5F013EE4A30EB11CD5014D9182
:1036A0005C91481759070CF043CF9F0124593F4FB5
:1036B00061E070E0D9016D937C934F5F5F4FD5015E
:1036C0004D935C93481759070CF432CF62E070E0D9
:1036D000D9016D937C932CCFD6019896ED91FC91F6
:1036E000099543CFD6019896ED91FC91099580916B
:1036F0000B0690910C06009709F437CFF60120A530
:1037000031A5232B09F431CF11A610A6F501E35101
:10371000FA4F1082D4011D921C92F501EE0FFF1F8B
:10372000EE0FFF1FEF59FA4F14AE15AE16AE17AEDF
:10373000F601E858FF4F11821082019790930C0612
:1037400080930B0612CFE0910601E53009F06BC1C2
:10375000E0910501EE30F8F4F0E0EF54F44E0C94F3
:103760008121BF1BB11CB41CB71CBB1CBD1CC11CE0
:10377000C31CDC1CE41CEC1CF41CFE1C0B1D62ECCA
:1037800072E08AEA94E00E94620B67EC72E080E3E8
:1037900096E00E94F90A8AE00E94DF08811116C0B3
:1037A000809106018F5F863008F049C18093060141
:1037B00080910601982F990F63E0890F0E94DE091E
:1037C00068EC70E080E090E00E94C10489E00E9413
:1037D000DF0881112AC080910601E82FF0E0E05057
:1037E000FF4F90819F5F9083953028F09DEF980F59
:1037F000923008F410829081983040F0853031F496
:1038000090911D04911102C01092050190819E308B
:1038100020F0853011F41092050190819A3018F053
:10382000853008F410820E94780B0E942C09082F22
:10383000882309F469C064E670E088EB91E00E9497
:10384000F304B0900701BB2009F483C118861F82DE
:103850001A8619861C861B8609831A82F701019035
:103860000020E9F73197AF014E195F09B701CE018A
:1038700007960E94100D0E9436062B013C0101E0C4
:103880002FE04FE06FE080E00E94900880911B04E1
:1038900081111AC080910B0690910C060A9794F43E
:1038A000D12CC12CAF85B8898D919D91B88BAF87F4
:1038B000892B09F4F4C3BFEFCB1ADB0AEAE0CE167A
:1038C000D10481F710931B040E9436066419750910
:1038D00086099709603177428105910508F4B2C0E5
:1038E00064E273E08AEA94E00E94620B6CE271E0A9
:1038F0008CED90E00E94F304B12CCE0107960E945B
:103900003D0AB11010920701C7010E94860FB7014E
:1039100085E595E00E94830CC7010E943D0A8AE973
:1039200091E00E94E00A811193C180911D048111F0
:1039300007C289E393E00E94E00A882309F454C196
:1039400081E00E94F61086E00E94DF08811106C027
:1039500082E00E94DF08882309F45BC160E672E020
:103960005AC10E94000F17CF0E94460F14CF81E06A
:103970000E940E1210CF80E0FBCF81E00E94F61073
:103980000ACF80E0FBCF80911D0401E020E0812779
:1039900080931D0460911001462F811101C040E009
:1039A00081E00E9490080E94780B60E273E080E062
:1039B00090E00E94C104EFCE80911D04882309F499
:1039C000EACE0E943E08E7CE80911D04882309F4C8
:1039D000E2CE0E94D00ADFCE80911D04882309F434
:1039E000DACE0E943008D7CE80911D04882309F4D6
:1039F000D2CE60E08BE00E94F502CDCE80911D0416
:103A0000882321F060E08AE00E94F50268EE73E00E
:103A100080E090E0CECF80911D04882309F4BBCED6
:103A200061E08AE0E8CFF0E0E050FF4F808188233A
:103A300009F4B1CE815080830E94780B0ECE109293
:103A40000601B6CE0E942C09D82E882309F43CCF5B
:103A500064E670E088EB91E00E94F30401E02FE05F
:103A60004FE060E080E00E94900868EC70E080E049
:103A700090E00E94C1042FE04FE06FE080E00E94E0
:103A800090081A8219821C821B821E821D82BE012E
:103A9000695F7F4FC7010E94310DDD861E8641E0C0
:103AA00050E0BE01635F7F4FC7010E94E40C8111AB
:103AB00003C0C7010E942B0AB701CE0107960E94DE
:103AC000310DC7010E943D0A2B853C854CEF420F0A
:103AD0002530310508F440E050E0BE01695F7F4FBA
:103AE000C7010E94850DB701CE0107960E94830C85
:103AF000C7010E943D0A4B855C856F8178858AEA03
:103B000094E00E94960168E971E08AEA94E00E94DC
:103B1000F90A2B853C8580915F05909160052817F7
:103B2000390709F0D1CE8F81988560915B0570913E
:103B30005C05009709F4EFC26115710539F4232B78
:103B400009F4F7C2FC01808190E0F0C20E94942346
:103B5000EDC281E0053319F0063321F480E00E94C4
:103B60000E12D2CE81E0083319F0093321F480E03F
:103B70000E94F610C9CE0A3219F40E94000FC4CE7A
:103B8000033219F40E94460FBFCE802F000F990B0D
:103B9000F1E0833B9F07B1F46091200461276093BB
:103BA000200480910E01689F602D112440910A012C
:103BB00080E00E944C086CE271E080E090E00E949E
:103BC000C104A2CE875D914009F09ECE60911F0492
:103BD000612760931F0480910D01689F602D11245F
:103BE0004091090181E0E5CF8CE393E00E94E00A77
:103BF000882309F485C080E00E94F61086E00E94C8
:103C0000DF08811106C082E00E94DF08882309F4E2
:103C1000A5CE63EB71E08AEA94E00E94620B87E52F
:103C200093E00E94E00A60E08111C8C08AE593E059
:103C30000E94E00A60E0811108C08DE593E00E94D7
:103C4000E00A882309F4B3C061E08AE00E94F5022B
:103C5000C0901C04D12C81E00E94DF088C151D044B
:103C600021F10091100181E00E94DF08089F602D82
:103C7000112401E020E040E082E00E94900881E011
:103C80000E94DF0891E0811101C090E090931C0434
:103C900081E00E94DF086AE073E0811102C06DE0FC
:103CA00073E080E396E00E94620B89E00E94CC0200
:103CB000892BC9F480911D04811115C085E00E94F3
:103CC000DF08882381F087E00E94DF08882359F00D
:103CD00069E672E0C7010E94480DC7010E94CD0F3E
:103CE000C7010E943D0A80E090E0892B09F4CDCB0A
:103CF0000E940002882309F4C7CB0E940000C0CBB9
:103D00008FE393E00E94E00A882329F081E00E947B
:103D10000E1287E01ECE82E493E00E94E00A882320
:103D200029F080E00E940E1285E013CE85E493E036
:103D30000E94E00A882309F472CF10931D046FCF0C
:103D400086E393E00E94E00A882319F010921D0494
:103D500066CF88E493E00E94E00A60E0811107C02A
:103D60008BE493E00E94E00A882329F061E08BE075
:103D70000E94F50254CF8EE493E00E94E00A88236B
:103D800019F00E9430084BCF81E593E00E94E00AD1
:103D9000882319F00E943E0842CF84E593E00E94F8
:103DA000E00A882309F43BCF0E94D00A38CF80E68E
:103DB00093E00E94E00A882359F061E089E00E94C4
:103DC000F50263EB71E08AEA94E00E94620B40CF57
:103DD00083E693E00E94E00A882369F086E00E946F
:103DE000DF08811105C082E00E94DF08882349F3C3
:103DF00060E672E0E8CF86E693E00E94E00A88235E
:103E000031F085E00E94DF088111DBCFF1CF89E638
:103E100093E00E94E00A882331F089E00E94CC02FE
:103E2000892B31F7CECF8CE693E00E94E00A8823FD
:103E300019F00E94460FDCCF8FE693E00E94E00A63
:103E4000882319F00E94000FD3CF8DE592E00E94E5
:103E5000E00A882391F060E672E08AEA94E00E942A
:103E6000620B62E672E0C7010E94480DC7010E9422
:103E7000CD0FC7010E943D0AEBCE82E793E00E947E
:103E8000E00A882349F080911D0464E073E0811109
:103E90009ACF66E073E097CF85E793E00E94E00A4F
:103EA000882341F040910A0160910E0180E00E9458
:103EB0004C0887CF88E793E00E94E00A882331F01E
:103EC00040E060E080E00E944C0892CF8BE793E0F6
:103ED0000E94E00A882331F04091090160910D01B0
:103EE00081E0E5CF8EE793E00E94E00A882321F08D
:103EF00040E060E081E0E7CF81E893E00E94E00AE3
:103F0000882329F067EC72E080E396E05ECF84E8D6
:103F100093E00E94E00A882309F49ACE85E00E948B
:103F2000DF0861E070E0882311F070E060E08AEA69
:103F300094E00E945B0B87E00E94DF0861E070E084
:103F4000882311F070E060E08AEA94E00E945B0B45
:103F500084E00E94DF08811104C00E94DF0861E054
:103F6000811160E070E08AEA94E00E945B0B86E0D9
:103F70000E94DF08811105C082E00E94DF0861E035
:103F8000811160E070E08AEA94E00E945B0B89E0B6
:103F90000E94CC0261E070E0892B11F070E060E0DB
:103FA0008AEA94E00E945B0B81E00E94DF0868E0EF
:103FB00073E0811102C067E972E08AEA94E00E942E
:103FC000760B80911D0464E073E0811102C066E00D
:103FD00073E08AEA94E00E94620B84E00E94DF08AA
:103FE000682F8AEA94E00E94540B80E00E94DF0868
:103FF000682F8AEA94E00E94540B86E00E94DF0852
:10400000682F8AEA94E00E94540B82E00E94DF0845
:10401000682F8AEA94E00E94540B68E971E08AEA0A
:1040200094E00E94F90A14CEF801EE0FFF1FEE0F84
:10403000FF1FE356FA4F88EE93E0A0E0B0E08083E4
:104040009183A283B383F801EE0FFF1FE757FA4F66
:1040500084E991E091838083F801EE0FFF1FEB5319
:10406000FA4F11821082F801E351FA4F81E0808308
:104070000E943606000F111F000F111FF801EF59A3
:10408000FA4F608371838283938380910B069091B2
:104090000C06019690930C0680930B06C9C9F60195
:1040A000EE0FFF1FEE0FFF1FE356FA4F60EE73E9AE
:1040B00084E090E06083718382839383F601EE0F46
:1040C000FF1FE757FA4F8AEA98E091838083F60151
:1040D000EE0FFF1FEB53FA4FA1E0B0E0B183A083D6
:1040E000F601E351FA4F10830E943606F601EE0FF7
:1040F000FF1FEE0FFF1FEF59FA4F6083718382831A
:10410000938380910B0690910C06019690930C0678
:1041100080930B06D7CB6115710559F0232B49F01D
:10412000DB018C9190E0919581959109892B09F0A3
:10413000CBCB61E373E08AEA94E00E94620B6CE20D
:1041400071E088EB91E00E94F30401E020E040E0A0
:104150006FE080E00E94900864EF71E080E090E002
:104160000E94C104CACB85E595E00E943D0A8BE51B
:1041700095E00E943D0A80911606909117060E94D4
:104180003E22809113069091140697FD03C060E0D3
:104190000E9455038AE891E090933106809330069F
:1041A0008091190490911A048053964071F4E09123
:1041B0004306F091440690818091450680958923BD
:1041C000808310921A041092190408952F923F923E
:1041D0004F925F926F927F928F929F92AF92BF9217
:1041E000CF92DF92EF92FF920F931F93CF93DF93C3
:1041F000CDB7DEB7CA1BDB0B0FB6F894DEBF0FBE20
:10420000CDBF09942A88398848885F846E847D846C
:104210008C849B84AA84B984C884DF80EE80FD806E
:104220000C811B81AA81B981CE0FD11D0FB6F894E4
:10423000DEBF0FBECDBFED010895A29FB001B39FB9
:10424000C001A39F700D811D1124911DB29F700D9F
:10425000811D1124911D089597FB072E16F40094DB
:1042600007D077FD09D00E948E2107FC05D03EF4CF
:10427000909581959F4F0895709561957F4F089512
:10428000A1E21A2EAA1BBB1BFD010DC0AA1FBB1F5A
:10429000EE1FFF1FA217B307E407F50720F0A21BCC
:1042A000B30BE40BF50B661F771F881F991F1A9439
:1042B00069F760957095809590959B01AC01BD0163
:1042C000CF010895052E97FB1EF400940E947921DA
:1042D00057FD07D00E94402107FC03D04EF40C94F8
:1042E000792150954095309521953F4F4F4F5F4F25
:1042F000089590958095709561957F4F8F4F9F4F52
:104300000895EE0FFF1F0590F491E02D09940E948F
:104310001D21B7FF0895821B930B0895AA1BBB1B99
:1043200051E107C0AA1FBB1FA617B70710F0A61BB5
:10433000B70B881F991F5A95A9F780959095BC01D6
:10434000CD0108950F931F93CF93DF938230910592
:1043500010F482E090E0E0915106F091520630E0D6
:1043600020E0B0E0A0E0309799F42115310509F480
:104370004AC0281B390B24303105D8F58A819B812E
:104380006115710589F1FB0193838283FE0111C0E0
:10439000408151810281138148175907E0F0481785
:1043A000590799F4109761F012960C93129713968F
:1043B0001C933296CF01DF91CF911F910F910895F9
:1043C0000093510610935206F4CF2115310551F098
:1043D0004217530738F0A901DB019A01BD01DF0143
:1043E000F801C1CFEF01F9CF9093520680935106A7
:1043F000CDCFFE01E20FF31F81939193225031093B
:1044000039832883D7CF20914F0630915006232B34
:1044100041F42091170130911801309350062093F8
:104420004F0620911501309116012115310541F4F7
:104430002DB73EB74091190150911A01241B350B3D
:10444000E0914F06F0915006E217F307A0F42E1BFF
:104450003F0B2817390778F0AC014E5F5F4F2417E8
:10446000350748F04E0F5F1F5093500640934F069C
:10447000819391939FCFF0E0E0E09CCFCF93DF93C7
:104480000097E9F0FC01329713821282A091510645
:10449000B0915206ED0130E020E01097A1F42081A8
:1044A0003181820F931F20914F06309150062817BB
:1044B000390709F061C0F0935006E0934F06DF9191
:1044C000CF910895EA01CE17DF07E8F54A815B81B5
:1044D0009E0141155105B1F7E901FB83EA8349913A
:1044E0005991C40FD51FEC17FD0761F480819181AC
:1044F0000296840F951FE9019983888382819381B5
:104500009B838A83F0E0E0E012968D919C91139753
:104510000097B9F52D913C911197CD010296820F2C
:10452000931F20914F06309150062817390739F60E
:10453000309751F51092520610925106B0935006E2
:10454000A0934F06BCCFD383C28340815181840F97
:10455000951FC817D90761F44E5F5F4F8881998115
:10456000480F591F518340838A819B8193838283A3
:104570002115310509F0B0CFF0935206E0935106B2
:104580009ECFFD01DC01C0CF13821282D7CFB0E0F5
:10459000A0E0EDECF2E20C94E8208C01009751F4DD
:1045A000CB010E94A2218C01C801CDB7DEB7E0E1AA
:1045B0000C940421FC01E60FF71F9C0122503109E5
:1045C000E217F30708F49DC0D901CD91DC91119752
:1045D000C617D70798F0C530D10530F3CE01049740
:1045E0008617970708F3C61BD70B2297C193D19361
:1045F0006D937C93CF010E943E22D6CF5B01AC1A13
:10460000BD0A4C018C0E9D1EA0915106B091520620
:10461000512C412CF12CE12C109731F580914F0653
:10462000909150068815990509F05CC0461657060A
:1046300008F058C08091150190911601009741F43F
:104640008DB79EB74091190150911A01841B950BAB
:10465000E817F90708F055C0F0935006E0934F06AD
:10466000F90171836083A0CF8D919C91119712966F
:104670006C90129713967C901397A815B90559F56D
:104680006C0142E0C40ED11CCA14DB0420F1AC0161
:104690004A195B09DA011296159780F062827382DB
:1046A00051834083D9016D937C93E114F10471F03F
:1046B000D7011396FC93EE93129776CF22968C0F28
:1046C0009D1FF90191838083F301EFCFF093520690
:1046D000E093510669CF4816590608F42C017D0174
:1046E000D3019ACFCB010E94A2217C01009749F00F
:1046F000AE01B8010E948423C8010E943E228701B6
:1047000053CF10E000E050CFFB01DC0102C001906C
:104710000D9241505040D8F70895DC0101C06D93CF
:1047200041505040E0F70895FB01DC018D9101906C
:1047300080190110D9F3990B0895FB01DC01019058
:104740000D920020E1F7089510E0C3E6D0E004C028
:10475000FE010E9481212196C436D107C9F7F89441
:02476000FFCF89
:104762000107090202000501000101FF1932C81404
:104772000203000400000053068000000040001401
:10478200005400050A0F142802050A14280A1932D7
:1047920064C8313233410034353642003738394348
:1047A200002A302344001000200040008000FE0058
:1047B200FD00FB00F7000000000036029601C30175
:1047C2008302F401D201E60100000000F806CB06E4
:1047D2001D08A106C406B106A20600000000250AB3
:1047E20096011D08950100000000880796011D082A
:1047F200A106E407FC0770070D0A004155544F203B
:10480200004D414E55200052004F55205031004678
:1048120045205031004F552041420046452041423B
:10482200004F5520504F00464520504F004F552015
:104832005032004645205032004445504C41004D14
:104842004F544F4E00415458204D0041545820417E
:104852000020202020202020202020202020202076
:10486200202020202000544120494E204558204C31
:1048720043204C4420434D440032522033422035E1
:1048820042203220203220205041524B20004F6BD8
:10489200005031204F2E2E2E005031204F50454EC9
:1048A20000503120462E2E2E00503120436C6F7363
:1048B20065004152550041525520212000415500CA
:1048C200300053C3A972696500506F736974696FD0
:1048D2006E00506F7274657300426F75746F6E0074
:1048E20045727265757220706F736974696F6E00BC
:1048F200503132204F70656E00504F2300503220ED
:10490200462E2E2E0050313220462E2E2E0050469C
:104912002300503132204F2E2E2E004572726575C3
:1049220072205061726B00504123004465706C61CB
:1049320063656D656E7420616272692E2E2E004170
:10494200627269206665726DC3A900444623004401
:104952004F230041627269206F757665727400316F
:10496200323334006D0061007000544E0054500028
:104972003252203342203542203220203220205031
:1049820041524B004D61757661697320636F6465B6
:1049920000436F6465204F4B00502B00502D0044A4
:1049A2002B00442D004D41006D2B006D2D006464E1
:1049B20000322B00322D00412B00582B00582D00C5
:1049C200412D00503F00443F00413F00702D0070D8
:1049D2002B004D3F00452B00452D00492B00492D52
:0849E20000504100433F0000BA
:00000001FF
