:100000000C9464000C948C000C948C000C940B15D4
:100010000C940B150C940B150C948C000C94C812BA
:100020000C948C000C948C000C948C000C948C0020
:100030000C948C000C948C000C948C000C948C0010
:100040000C94A2130C948C000C9470130C944A130F
:100050000C948C000C948C000C948C000C948C00F0
:100060000C94EC130C948C0000000000240027007A
:100070002A0002000000080002010000030407003B
:1000800000000000000000000000002300260029FE
:100090000000000000250028002B000404040404D4
:1000A0000404040202020202020303030303030125
:1000B00002040810204080010204081020010204FC
:1000C0000810200083152F2011241FBECFEFD8E089
:1000D000DEBFCDBF26E0A2E9B3E001C01D92AB3583
:1000E000B207E1F713E0A0E0B1E0EAE5F6E402C010
:1000F00005900D92A239B107D9F710E0C3E6D0E020
:1001000004C02197FE010E94FD20C236D107C9F725
:100110000E94F5160C9420230C9400008F929F925D
:10012000AF92BF92CF92DF92EF92FF920F931F9305
:10013000FC014B01AA24BB24C52ED62EE72EFF249A
:10014000BC2DA42F90911D06B82C992391F0A92FB6
:10015000B0E0A89D9001A99D300DB89D300D1124EF
:10016000B32E9C9D60011124BD2D949F800111240C
:10017000A12F4091230620911E0630911F068091E9
:100180002006481324C0CF01880F991F8E0F9F1F90
:10019000820F931FE0912006E80FF92FF11DB08226
:1001A000E0912106E80FF92FF11DB083209122067E
:1001B000820F911DFC01A0831F910F91FF90EF9082
:1001C000DF90CF90BF90AF909F908F900895CF0118
:1001D000880F991F880F991F820F931FFC01E40F4E
:1001E000F11D1082D7CF2091A00481E0213208F0C8
:1001F00044C080917C048111FCCF80919F0492E0E7
:1002000090937C0491E090937B049FEF90937A0409
:100210001092790420937804AFE7B4E0E8E5F4E0C5
:1002200090E0291331C01092570490915704880F21
:10023000892B8093570480915604813049F51092A0
:100240005604809157048093BB008091BC0083FDCD
:10025000F8CF85EC8093BC0080917C048230E1F380
:1002600080917A048F3FB1F080917A048032A1F0BE
:1002700080917A04803391F084E010927E04109291
:10028000A00410927D0408953D9131939F5FC9CFE2
:1002900085EEE0CF80E0F1CF82E0EFCF83E0EDCFDD
:1002A00090917C049111FCCF91E090937C04909309
:1002B0007B042FEF20937A0410927904260F209369
:1002C00078049093570490915704880F892B80935A
:1002D0005704809156048130F9F4109256048091AD
:1002E00057048093BB008091BC0083FDF8CF85EC60
:1002F0008093BC0080917C048130E1F3809179048B
:10030000861710F460917904A8E5B4E0E6E3F4E020
:1003100080E0861303C0089585EEEACF9D91919306
:100320008F5FF7CF0895089508950895AF92BF9213
:10033000CF92DF92EF92FF920F931F93CF93DF93B1
:100340006C017B018B01040F151FEB015E01AE18E0
:10035000BF08C017D10759F06991D601ED91FC9102
:100360000190F081E02DC6010995892B79F7C5012F
:10037000DF91CF911F910F91FF90EF90DF90CF9081
:10038000BF90AF900895FC01538D448D252F30E030
:10039000842F90E0821B930B541710F0CF96089592
:1003A00001970895FC01918D828D981761F0A28DBF
:1003B000AE0FBF2FB11D5D968C91928D9F5F9F7385
:1003C000928F90E008958FEF9FEF0895FC01918D3B
:1003D000828D981731F0828DE80FF11D858D90E0A8
:1003E00008958FEF9FEF0895FC01918D228D892F45
:1003F00090E0805C9F4F821B91098F73992708952D
:1004000082EB94E00E94F40121E0892B09F420E0C2
:10041000822F089580E090E0892B29F00E9400024D
:1004200081110C9400000895FC01A48DA80FB92F30
:10043000B11DA35ABF4F2C91848D90E001968F730C
:100440009927848FA689B7892C93A089B1898C912B
:10045000837080648C93938D848D981306C002887A
:10046000F389E02D80818F7D80830895EF92FF9244
:100470000F931F93CF93DF93EC0181E0888F9B8DC7
:100480008C8D98131AC0E889F989808185FF15C081
:100490009FB7F894EE89FF896083E889F9898081A4
:1004A0008370806480839FBF81E090E0DF91CF9173
:1004B0001F910F91FF90EF900895F62E0B8D10E095
:1004C0000F5F1F4F0F731127E02E8C8D8E110CC004
:1004D0000FB607FCFACFE889F989808185FFF5CF4F
:1004E000CE010E941402F1CFEB8DEC0FFD2FF11D18
:1004F000E35AFF4FF0829FB7F8940B8FEA89FB898C
:1005000080818062CFCFCF93DF93EC01888D8823E9
:10051000B9F0AA89BB89E889F9898C9185FD03C066
:10052000808186FD0DC00FB607FCF7CF8C9185FF4B
:10053000F2CF808185FFEDCFCE010E941402E9CF7A
:10054000DF91CF910895833081F028F4813099F0C4
:100550008230A9F008958730A9F08830C9F084303E
:10056000B1F4809180008F7D03C0809180008F77EF
:1005700080938000089584B58F7784BD089584B5F5
:100580008F7DFBCF8091B0008F778093B00008956E
:100590008091B0008F7DF9CFCF93DF93282F30E08B
:1005A000F901ED58FF4F8491F901E155FF4FD491C6
:1005B000F901E556FF4FC491CC23A1F081110E94AF
:1005C000A302EC2FF0E0EE0FFF1FE957FF4FA591BC
:1005D000B491EC91ED2381E090E009F480E0DF91AB
:1005E000CF91089580E090E0FACF1F93CF93DF93EF
:1005F000282F30E0F901ED58FF4F8491F901E155C2
:10060000FF4FD491F901E556FF4FC491CC23A9F0D7
:10061000162F81110E94A302EC2FF0E0EE0FFF1FB6
:10062000EF56FF4FA591B4918FB7F894EC9111114B
:1006300008C0D095DE23DC938FBFDF91CF911F914F
:100640000895DE2BF8CF10923404109233041092E8
:100650007E041092A00410927C0481E080937B04BD
:100660001092560461E082E10E94F50261E083E1AC
:100670000E94F502E9EBF0E080818E7F808380812B
:100680008D7F808388E48093B80085E48093BC00EC
:1006900082E991E0909332048093310483E991E000
:1006A0009093300480932F040895CF93DF9390E0CC
:1006B000FC01E155FF4F249185569F4FFC01849129
:1006C0008823D1F090E0880F991FFC01E859FF4F73
:1006D000A591B491FC01EF56FF4FC591D4916111E2
:1006E0000EC09FB7F8948C91E22FE0958E238C93E7
:1006F0002881E223E8839FBFDF91CF9108958FB7D0
:10070000F894EC91E22BEC938FBFF6CFCF93DF936D
:10071000EC0161E083E00E945503209731F460E032
:1007200083E0DF91CF910C94F502CF3FD10511F416
:1007300061E0F6CFE6E7F0E0E491E33029F140F440
:10074000E130B1F0E230D9F0C038D1058CF7E7CF15
:10075000E73021F1E83051F1E430B1F780918000C9
:10076000806280938000D0938B00C0938A0004C085
:1007700084B5806884BDC7BDDF91CF91089584B5ED
:10078000806284BDC8BDF8CF80918000806880936E
:100790008000D0938900C0938800EECF8091B00094
:1007A00080688093B000C093B300E6CF8091B00022
:1007B00080628093B000C093B400DECF3FB7F8945E
:1007C00080911B0490911C04A0911D04B0911E0403
:1007D00026B5A89B05C02F3F19F00196A11DB11D9C
:1007E0003FBFBA2FA92F982F8827BC01CD01620FD8
:1007F000711D811D911D42E0660F771F881F991F93
:100800004A95D1F708950F931F93CF93DF93CDB7F8
:10081000DEB729970FB6F894DEBF0FBECDBF80912B
:100820001E0690911F06892B09F467C00E94DE0303
:100830000091240610912506209126063091270666
:10084000601B710B820B930B6C327140810591051B
:1008500068F3F8948091190690911A069A83898317
:10086000E0911E06F0911F06DF01119680818987B5
:1008700090911506E0912806F091290680912A06AC
:10088000992309F445C09081982B98879081809591
:1008900089238F838F818C8388E08B8358856F8138
:1008A00049853B812C8189819A81508347FD252F81
:1008B0003A952083262F39F0441F00C00000608342
:1008C000000000C0F2CF38E04D9160830000019736
:1008D00061F7F0932906E093280649873B832C8330
:1008E0009A83898378940E94DE0360932406709330
:1008F0002506809326069093270629960FB6F8942E
:10090000DEBF0FBECDBFDF91CF911F910F91089534
:100910009081982B98879081809589238F838F81F0
:100920008E8388E08D8358856F8149853D812E8136
:1009300089819A81508347FD252F00C000C0208304
:1009400000C000C000C000C000C060830000262FAF
:100950003A9541F0441F000000C000C000C000C034
:1009600000C0E8CF38E04D9100C0608300C001971F
:1009700009F7F0932906E093280649873D832E83E3
:10098000AFCF8F929F92AF92BF92CF92DF92EF92B2
:10099000FF924B015C010E94DE036B017C010E940F
:1009A000DE036C197D098E099F09683E734081053D
:1009B0009105A8F321E0821A9108A108B10888EEF8
:1009C000C80E83E0D81EE11CF11C81149104A1041F
:1009D000B10429F7FF90EF90DF90CF90BF90AF90D8
:1009E0009F908F9008954F925F926F927F928F9217
:1009F0009F92AF92BF92EF92FF920F931F93CF936C
:100A00008C017B0180910B018131D9F08F3F09F47A
:100A10003FC068EC70E080E090E00E94C1048091EB
:100A20000F0190E0CF911F910F91FF90EF90BF9039
:100A3000AF909F908F907F906F905F904F900C94AD
:100A40008603E2E7F0E0C491C7FDE3CF61E081E116
:100A50000E945503C11132C02801012E000C660806
:100A6000770862E17AE780E090E0A30192010E94BA
:100A7000DE2049015A0181E0881A9108A108B108D5
:100A800096E0C1113BC085B5887F846085BDABC051
:100A900081E180930B01E2E7F0E0C491CF3F09F4DC
:100AA000B8CFC13009F44AC080F1C23009F464C043
:100AB000C7FDAFCF61E081E10E9455039801012E8F
:100AC000000C440B550BC23009F078C029013A01E3
:100AD00064E274EF80E090E00E94DE2049015A0158
:100AE00081E0881A9108A108B10895E08FEF881677
:100AF0009104A104B10411F00CF0B3CF8091B100C6
:100B0000887F892B8093B1006EC014BC15BC84B55E
:100B1000826084BD85B5816085BDECEAF0E0E4913A
:100B2000F0E0EE0FFF1FEF56FF4F85919491E0EC40
:100B3000F0E0E491E093A504C0E088CF109280003B
:100B40001092810080918100886080938100809163
:100B50008100816080938100ECEAF0E0E491F0E0B4
:100B6000EE0FFF1FEF56FF4F85919491E0ECF0E000
:100B7000E491E093A4046ACF1092B0001092B10007
:100B80008091B00082608093B0008091B10081605C
:100B90008093B100ECEAF0E0E491F0E0EE0FFF1F8B
:100BA000EF56FF4F859194919093A3048093A204F4
:100BB000E0ECF0E0E491E093A10448CF60E072E162
:100BC0008AE790E00E94DE2049015A0181E0881AFC
:100BD0009108A108B108C13031F480918100887F6B
:100BE0008160809381009801220F331FD7010E94FA
:100BF000032128EE33E040E050E00E94BC20C130E9
:100C000099F0C23019F1C11104CF87BC2093AE0412
:100C10003093AF044093B0045093B10480916E00C0
:100C2000826080936E00F5CE909289008092880059
:100C30002093AA043093AB044093AC045093AD04CA
:100C400080916F00826080936F00E3CE8092B3004A
:100C50002093A6043093A7044093A8045093A904BA
:100C600080917000826080937000D3CE2FB7F8948B
:100C700060911704709118048091190490911A04DE
:100C80002FBF08950F931F93CF93DF93EC010E9422
:100C90003606688779878A879B87E881F98102848D
:100CA000F385E02DCE01099597FF15C00E94360609
:100CB000088519852A853B85601B710B820B930B78
:100CC0000C811D812E813F81601771078207930778
:100CD00020F38FEF9FEFDF91CF911F910F91089538
:100CE00085ED8093BC008091BC0084FDFCCF109208
:100CF0007C0408952091F303260F3327331F2132FC
:100D00003105ECF420917C04FC0190E080E024307B
:100D100069F082E00895A091F3032191AC014D5256
:100D20005C4FA40FB52FB11D2C930196861798F335
:100D30008091F303680F6093F30380E0089581E0EE
:100D400008950895E091340480913304E81730F455
:100D5000F0E0EA5CFB4F808190E008958FEF9FEF19
:100D6000089590913404809133042FEF3FEF98174A
:100D700048F4E92FF0E0EA5CFB4F208130E09F5F10
:100D800090933404C9010895809133049091340400
:100D9000891B990B0895CF92DF92EF92FF920F93E8
:100DA0001F93CF93DF937C01CB018A0120917D04B7
:100DB000222389F0EB016B01C40ED51ECC15DD0595
:100DC00069F06991D701ED91FC910190F081E02DDE
:100DD000C7010995F3CF642F0E947A06C801DF91FD
:100DE000CF911F910F91FF90EF90DF90CF900895DA
:100DF000CF93DF931F92CDB7DEB7698320917D0437
:100E00002223F9F02091A004203258F021E030E0B4
:100E1000FC013383228390E080E00F90DF91CF913B
:100E2000089580917E04E82FF0E0E158FB4F99810E
:100E300090838F5F80937E048093A00481E090E094
:100E4000ECCF61E0CE0101960E947A06F7CFCF93F6
:100E5000C62F90913504906221E020937D049093F9
:100E60009F0410927E041092A004682F8FE495E0F6
:100E70000E94F8066C2F8FE495E00E94F806CF914F
:100E80000C94F300FC01248131E030937D04209325
:100E90009F0410927E041092A0048485682B8FE436
:100EA00095E00E94F8060C94F30060932D04709373
:100EB0002E0491E090937D0480939F0410927E0411
:100EC0001092A0048FE495E00E94F8060C94F300C1
:100ED00020912104309122042817390771F4909150
:100EE0001F0480912004981741F0E0911F04F0E066
:100EF000ED56FC4F808190E008958FEF9FEF0895AD
:100F0000EF92FF920F931F93CF93DF93DC015C96D8
:100F1000ED90FC905D97E114F10479F481E090E0AC
:100F200013969C938E93129790E080E0DF91CF917F
:100F30001F910F91FF90EF9008955196ED91FC91C4
:100F4000529750968C915097982F90950FB75E9628
:100F50002C915E97122F127021FD6095F8942081DC
:100F6000112319F1282B2083E7012197F1F728E0BD
:100F7000462F50E0308160FF1AC0382B3083E701E4
:100F80002197F1F7BA0175956795215089F71123DB
:100F900081F08081892380830FBF5C968D919C9125
:100FA0000197F1F781E090E0C1CF2923DCCF39230D
:100FB000E5CF9081892BEFCF20912104309122043D
:100FC0002817390771F48091200420911F0490E0C4
:100FD000805C9F4F821B910960E470E00E94A82012
:100FE000089590E080E0089520912104309122043A
:100FF00028173907B9F490911F048091200498179D
:1010000089F0E0911F04F0E0ED56FC4F80812091C3
:101010001F0430E02F5F3F4F2F73332720931F04AF
:1010200090E008958FEF9FEF089590E080E008959D
:1010300060E08CE00E94F50268E572E080E090E0FC
:101040000E94C10461E08CE00C94F50260E085E050
:101050000E94F50260E47CE980E090E00E94C10417
:1010600061E085E00C94F5028F929F92AF92BF925F
:10107000FF920F931F93CF93DF93982F990F990FA0
:10108000990F24E0F22EF90E98E0899FE0011124D7
:101090002B96469F002D112410E030E020E04801FF
:1010A0005901A62A322F212F102F0027802A912A9A
:1010B000A22AB32A8F2D90E0C817D9077CF020917F
:1010C0001706309118068217930720F4B501A40182
:1010D0000E948E000E940304F394ECCFDF91CF9125
:1010E0001F910F91FF90BF90AF909F908F900895A8
:1010F0000F93362FE42F90E0409117065091180679
:101100008417950740F4422F50E070E060E05E2BBA
:10111000632B0E948E00002319F00F910C9403049E
:101120000F9108950F9380912304882361F001E0CB
:1011300020E040E060E080E00E94780881E0809359
:101140000701109223040F91089590913504906245
:1011500021E020937D0490939F0410927E041092CE
:10116000A004682F8FE495E00E94F8060E94F30027
:101170008091350461E080620E9450011092340435
:10118000809333048FE495E00E94B1060895CF93D5
:10119000C82FC770883060F083E10E94A50890E0F6
:1011A00002C095958795CA95E2F78170CF91089511
:1011B00082E1F3CFCF93DF93C82FD1E0883008F4DA
:1011C000D0E08D2F0E94A508C77041E050E060E09C
:1011D00070E004C0440F551F661F771FCA95D2F7F1
:1011E000682F642B8D2FDF91CF910C942707CF931D
:1011F000DF93C82FDDE0883008F4DCE08D2F0E94FB
:10120000A508C77041E050E060E070E004C0440F02
:10121000551F661F771FCA95D2F7682F642B8D2F35
:10122000DF91CF910C942707CF92DF92EF92FF923C
:101230000F931F93CF93DF93C0912B04D0912C0475
:10124000F0905B05E0905C05FE01EE0FFF1FE25B96
:10125000FE4F608171818F2D9E2D0E94550796E46F
:10126000C92E91E0D92E10E000E0809111019091FB
:1012700012010817190784F561E08F2D0E945001B3
:1012800010923404809333048FE495E00E94B106F9
:10129000F601419151916F0120912D0430912E045E
:1012A0008227932784179507A1F485E08C9FF0018E
:1012B0008D9FF00D1124EE5CFE4FE00FF11F808139
:1012C000082E000C990B90932A048093290480E047
:1012D0000DC00F5F1F4FC9CF8091290490912A0440
:1012E000009769F010922A0410922904DF91CF919F
:1012F0001F910F91FF90EF90DF90CF9008956FEFC7
:1013000070E08F2D9E2D0E9455072196D0932C04BE
:10131000C0932B048091130190911401C817D90731
:10132000B1F610922C0410922B04D1CF0F931F937F
:10133000CF938C01C62F0E9442076C2F6460C801B6
:101340000E9442076C2F6B7FC8010E94420783EC0A
:1013500090E00197F1F7CF911F910F9108950F93AE
:101360001F93CF93DF938C01D62FC42F607F642B04
:101370000E94960980E1D89FB00111246C2BC8010E
:10138000DF91CF911F910F910C949609CF93DF932A
:10139000CDB7DEB728970FB6F894DEBF0FBECDBF2E
:1013A00098E0EBE1F1E0DE01119601900D929A9543
:1013B000E1F790913306961710F46FEF690F262F1F
:1013C00030E0220F331F41E050E04C0F5D1F240F2F
:1013D000351FF9016081680F606840E08BE296E09C
:1013E00028960FB6F894DEBF0FBECDBFDF91CF9128
:1013F0000C94AF0940E061E08BE296E00E94AF09F7
:101400008BE39FE10197F1F780913406882321F067
:1014100060E080E00C94C609089541E00E94AF09A5
:1014200081E090E00895CF93DF93EC01888199816A
:10143000009711F00E94BA21198218821D821C8225
:101440001B821A82DF91CF910895FC0180819181E6
:10145000009711F00C94BA2108951092370660E0BD
:101460008BE296E00E944207E5E1F6E04481558177
:1014700070E060E0818592850E9409230E94030448
:1014800061E08BE00E94F50261E08AE00E94F502D3
:1014900068EE73E080E090E00E94C10481E08093F8
:1014A00024048093070110922304089560E086E0ED
:1014B0000E94F50260E47CE980E090E00E94C104B3
:1014C00061E086E00E94F5020C942D0A20916105EE
:1014D00030916205232B39F421E0FC0180818823BF
:1014E00061F020E00AC0BC0180915D0590915E052D
:1014F0000E94102321E0892BA1F7822F0895FB0180
:1015000001900020E9F73197AF01461B570BDC0132
:10151000ED91FC910280F381E02D09948F929F92CE
:10152000AF92BF92EF92FF920F931F93CF93DF93EF
:10153000CDB7DEB7A1970FB6F894DEBF0FBECDBF13
:101540007C01FA01CB0119A2223008F42AE08E01B5
:101550000F5D1F4F822E912CB12CA12CBF01A50134
:1015600094010E94BC20F901CA016A300CF5605D4B
:10157000D8016E938D01232B242B252B79F790E036
:1015800080E0109721F0BD01C7010E947F0AA1965B
:101590000FB6F894DEBF0FBECDBFDF91CF911F9184
:1015A0000F91FF90EF90BF90AF909F908F90089514
:1015B000695CDECF462F50E070E060E02AE00C94DA
:1015C0008E0AAB01770F660B770B2AE00C948E0A1C
:1015D0000F931F93CF93DF93EC010E947F0A8C013E
:1015E00068E971E0CE010E947F0A800F911FDF91B0
:1015F000CF911F910F9108950C947F0A0F93CF9371
:10160000C09106018C2F880F63E08C0F0E94C609E1
:10161000C33008F06FC0EC2FF0E0E050FF4F808146
:10162000682F70E08530E8F1645071098BE296E034
:101630000E94E10A6FEB71E08BE296E00E94FC0AE7
:1016400020910601822F90E0FC01E85FFE4F31E01F
:101650003083FC01E050FF4FE081F0E0E85DFE4F99
:101660006081FC01E45FFE4F60838A5D9B4FFC015B
:101670008081689F602D112441E082E0821B0E94DE
:10168000340880910601982F990F63E0890F0E941A
:10169000C60968EC70E080E090E0CF910F910C9467
:1016A000C1046F5F7F4F8BE296E00E94E10A67EA18
:1016B00071E08BE296E00E94FC0A20910601822FE5
:1016C00090E0FC01E85FFE4F1082FC01E050FF4F0C
:1016D000E081F0E0E35DFE4F6081FC01E45FFE4FDE
:1016E00060838A5D9B4FFC018081689F602D11247F
:1016F00040E0C3CFC43029F5609104018BE296E04D
:101700000E94DA0AE0910601F0E0E050FF4FE0812C
:10171000F0E0E85DFE4FC081C093100101E020E0E1
:1017200040E06C2F81E00E94780881E00E94C708A9
:10173000C89F602D112420E040E082E00E947808DC
:10174000A0CFC330B1F4609103018BE296E00E9418
:10175000DA0AE0910601F0E0E050FF4FE081F0E0AE
:10176000ED5DFE4F808180930F0190E00E94860323
:1017700088CFEC2FF0E0E050FF4FE081EF3008F031
:1017800080CFF0E0EA53F44F0C94FD20D50BDC0B36
:10179000DF0BE20BE50BE80BEB0BEE0BF70BFA0B99
:1017A000FD0B000C030C060CF40B68E272E08BE2FC
:1017B00096E00E94FC0A65CF69EA71E0F8CF6FEA13
:1017C00071E0F5CF65EB71E0F2CF6BEB71E0EFCF3D
:1017D00061EC71E0ECCF67EC71E0E9CF809125041A
:1017E00061EA71E0882319F36BE971E0E0CF6DECF9
:1017F00071E0DDCF63ED71E0DACF69ED71E0D7CF55
:101800006FED71E0D4CF65EE71E0D1CF6BEE71E09A
:10181000CECF0F931F93CF93DF938C01EB01FC018D
:10182000808191810097E1F068817981611571056E
:10183000A9F0428153812C813D814217530770F0FA
:101840000E9419238C819D81F801958384831D82D8
:101850001C82DF91CF911F910F9108950E94BA21B0
:1018600088819981F801918380838A819B81938308
:1018700082838C819D8195838483198218821B8247
:101880001A82E5CF0F931F93CF93DF93EC018881EA
:101890009981009759F02A813B812617370730F04C
:1018A00081E0DF91CF911F910F9108958B016F5FC0
:1018B0007F4F0E944322009759F0998388831B83AE
:1018C0000A832C813D81232B59F7FC011082E8CF3C
:1018D00080E0E7CFEF92FF920F931F93CF93DF93B8
:1018E0006115710541F480E0DF91CF911F910F9157
:1018F000FF90EF90089541155105B1F07B01EC0187
:101900000C811D81040F151FB8010E94420C882311
:1019100051F3288139818C819D81B701820F931FFA
:101920000E9419231D830C8381E0DECFEF92FF928A
:101930000F931F93CF93DF93EC017B018A01BA01D0
:101940000E94420C81110BC0CE010E94130ACE01ED
:10195000DF91CF911F910F91FF90EF9008951D831C
:101960000C83B701888199810E941923F0CFCF930E
:10197000DF93EC01FB018617970749F060817181C5
:101980006115710541F0448155810E94960CCE018C
:10199000DF91CF9108950E94130AF9CFFC011182C3
:1019A00010821382128215821482FB0101900020A2
:1019B000E9F73197AF01461B570B0C94960CEF9249
:1019C000FF920F931F93CF93DF9300D0CDB7DEB775
:1019D0008C017B016AE971E00E94CE0CC7010E9474
:1019E000420697FD0EC08332910559F089831A8211
:1019F00041E050E0BE016F5F7F4FC8010E946A0C5A
:101A0000EDCFC8010F900F90DF91CF911F910F91F3
:101A1000FF90EF900895AF92BF92CF92DF92EF9236
:101A2000FF920F931F93CF93DF937C016B015A01B9
:101A300089012417350720F48B2D5901042F182F05
:101A40006AE971E0C7010E94CE0CD6011496CD91CF
:101A5000DC91AC16BD0620F50C171D0708F4E80153
:101A6000D601ED91FC911197EC0FFD1F10811082B2
:101A70006D917C916A0D7B1D61157105E9F0FB018B
:101A800001900020E9F73197AF01461B570BC701C2
:101A90000E94960CF60180819181C80FD91F18838E
:101AA000C701DF91CF911F910F91FF90EF90DF90D1
:101AB000CF90BF90AF900895C7010E94130AEACF5C
:101AC000EF92FF920F93CF93DF9300D000D000D01E
:101AD000CDB7DEB77C018091100101E0623009F4DE
:101AE00049C0633009F44AC0282F40E0613009F052
:101AF00043C020E040E0682F81E00E94780844E184
:101B000050E061EF71E0C7010E946A0C2FE030E005
:101B100050E040E0B701CE0101960E940B0DBE01DE
:101B20006F5F7F4FC7010E94090CCE0101960E9492
:101B3000250A61E080E00E94C609F70144815581D1
:101B4000608171818BE296E00E949601809106018E
:101B5000982F990F63E0890F0E94C60926960FB649
:101B6000F894DEBF0FBECDBFDF91CF910F91FF90F4
:101B7000EF900895282F482F60E0BECF20E0FBCFE4
:101B80000F931F93CF93DF9300D000D000D0CDB739
:101B9000DEB780919203882349F1109292038091DD
:101BA000130690911406009709F120919105309148
:101BB0009205232BD9F01092920510929105109264
:101BC000F505109200061092FF051092A5051092DF
:101BD000A6051092A7051092A8051092E205109292
:101BE000E1050197909314068093130660E08AE064
:101BF0000E94F50260ED77E080E090E00E94C10471
:101C00001091100100E020E040E0612F81E00E948F
:101C1000780820E040E0612F82E00E94780801E02F
:101C20002FE04FE06FE080E00E94780880910F0184
:101C300090E00E9486030E94FA0988E080933706AC
:101C400060E08BE296E00E94420762E080E00E9442
:101C5000C60966E072E08BE296E00E94FC0A63E04F
:101C600080E00E94C60969E172E08BE296E00E9482
:101C7000FC0A80910601982F990F63E0890F0E945A
:101C8000C60960913106862F8160809331066960B4
:101C900040E08BE296E00E94AF096EE272E0CE0176
:101CA00001960E94CE0C61E0CE0101960E94600D6B
:101CB000CE0101960E94250A60E08BE00E94F502A9
:101CC00081E00E94C70891E0811190E09093240484
:101CD000109207011092230426960FB6F894DEBFE7
:101CE0000FBECDBFDF91CF911F910F910895CF937C
:101CF000DF9300D000D000D0CDB7DEB760E08AE03F
:101D00000E94F50260ED77E080E090E00E94C1045F
:101D100061E372E0CE0101960E94CE0C60E0CE013C
:101D200001960E94600DCE0101960E94250A60E096
:101D300087E00E94F50260E47CE980E090E00E9488
:101D4000C10469E372E0CE0101960E94CE0C61E00D
:101D5000CE0101960E94600DCE0101960E94250AD7
:101D600061E087E00E94F50226960FB6F894DEBF88
:101D70000FBECDBFDF91CF910895CF93DF9300D0F9
:101D800000D000D0CDB7DEB761E472E0CE0101969D
:101D90000E94CE0C60E0CE0101960E94600DCE0143
:101DA00001960E94250A60E088E00E94F50260E446
:101DB0007CE980E090E00E94C10469E472E0CE0119
:101DC00001960E94CE0C61E0CE0101960E94600D4A
:101DD000CE0101960E94250A61E088E00E94F5028A
:101DE00061E08AE00E94F50226960FB6F894DEBF05
:101DF0000FBECDBFDF91CF9108950F931F93CF9367
:101E0000DF9300D000D000D0CDB7DEB78C0182EBDD
:101E100094E00E94F40162EB74E0892B41F488E3C2
:101E200096E00E94DC07892B49F168E376E0CE0159
:101E300001960E94DF0CBE016F5F7F4F8DE595E03C
:101E40000E94090CCE0101960E94250AF801118218
:101E5000108213821282158214826DE575E0C8012A
:101E60000E94B70CC80126960FB6F894DEBF0FBECD
:101E7000CDBFDF91CF911F910F9108956AE971E075
:101E8000C8010E94CE0CEECF0F931F93CF93DF9328
:101E9000CDB7DEB72C970FB6F894DEBF0FBECDBF1F
:101EA0008C0162E572E082EB94E00E94E80A61E056
:101EB00089E00E94F50261E08BE00E94F50261E09A
:101EC0008CE00E94F50261E088E00E94F50261E08A
:101ED00087E00E94F50261E086E00E94F50261E081
:101EE00085E00E94F50261E08BE00E94F50281E04E
:101EF0008093250466E572E0CE0101960E94CE0C27
:101F0000F8014481558160817181CE0101960E9462
:101F10006A0C811104C0CE0101960E94130A188632
:101F20001F821A8619861C861B86BE016F5F7F4F33
:101F3000CE0107960E94B70C63E0CE0107960E947F
:101F4000600DCE0107960E94250ACE0101960E94DF
:101F5000250A01E020E042E360E081E00E94780889
:101F600083E00E94C708811107C064E670E080E04A
:101F700090E00E94C104F4CF2C960FB6F894DEBF17
:101F80000FBECDBFDF91CF911F910F9108957F922A
:101F90008F929F92AF92BF92CF92DF92EF92FF9279
:101FA0000F931F93CF93DF9300D000D000D0CDB715
:101FB000DEB74B015C01042F722E0E9436066B01C6
:101FC0007C0110E00E9436066C197D098E099F097C
:101FD000681579058A059B0508F076C0CE01019643
:101FE0000E94FD0EBE016F5F7F4F8DE595E00E9460
:101FF000090CCE0101960E94250A8DE592E00E940F
:10200000660A882349F160E672E082EB94E00E9460
:10201000E80A62E672E0CE0101960E94CE0CCE0183
:1020200001960E94440FCE0101960E94250A80E08D
:1020300026960FB6F894DEBF0FBECDBFDF91CF91CD
:102040001F910F91FF90EF90DF90CF90BF90AF90D6
:102050009F908F907F90089581E00E94C708811122
:1020600006C0113019F462EC72E0D5CF11E0002304
:1020700069F085E00E94C708882341F087E00E944C
:10208000C708882319F069E672E0C5CF772069F0A8
:1020900086E00E94C708882319F062E772E0BBCF90
:1020A00082E00E94C7088111F8CF83E00E94C70830
:1020B000811103C069E772E0AECF64E670E080E0B2
:1020C00090E00E94C1047ECF81E0B2CF0F931F93B6
:1020D000CF93DF9300D000D000D0CDB7DEB7182F5C
:1020E000882309F4F0C086E00E94C7088111B0C0BF
:1020F00082E00E94C7088111ABC060E872E0CE01A7
:1021000001960E94CE0C62E0CE0101960E94600D05
:10211000CE0101960E94250A10E0812F26960FB667
:10212000F894DEBF0FBECDBFDF91CF911F910F910D
:10213000089564E670E080E090E00E94C10486E0CB
:102140000E94C7088111F5CF82E00E94C708811163
:10215000F0CF68E873E180E090E00E94C10461E0A4
:1021600087E00E94F50261E085E00E94F50260E9E7
:1021700072E0CE0101960E94CE0C61E0CE01019684
:102180000E94600DCE0101960E94250A69E972E065
:1021900088E396E00E94E80AC0CF6091100101E058
:1021A00020E0462F81E00E94780861E08BE00E94E9
:1021B000F5026DE972E0CE0101960E94CE0C61E05D
:1021C000CE0101960E94600DCE0101960E94250A63
:1021D00060E086E00E94F50220E041E060E47FE1FB
:1021E00080E090E00E94C70F882309F496CF65EA4B
:1021F00072E0CE0101960E94CE0C60E0CE01019605
:102200000E94600DCE0101960E94250A60E088E0E0
:102210000E94F50220E041E060E47CE980E090E08B
:102220000E94C70F082F882309F477CF61E088E068
:102230000E94F50261E086E00E94F5026EEA72E01B
:1022400088E396E00E94E80A0E942D0A102F65CFCD
:102250000E94C00D88E08093370660E08BE296E034
:102260000E94420761E372E0CE0101960E94CE0C0B
:1022700060E0CE0101960E94600DCE0101960E94A1
:10228000250A60E087E00E94F50268E873E180E0DB
:1022900090E00E94C10460E085E00E94F50262EBDC
:1022A00072E0CE0101960E94CE0C60E0CE01019654
:1022B0000E94600DCE0101960E94250A60E375E739
:1022C00080E090E03ACF84E00E94C708811106C008
:1022D00080E00E94C708882309F40FCF85E00E94A0
:1022E000C708882309F459CF60E872E0CE0101964F
:1022F0000E94CE0C62E0CE0101960E94600DCE01DC
:1023000001960E94250A09CF0F931F93CF93DF9365
:1023100000D000D000D0CDB7DEB7882309F436C195
:1023200087E00E94C70881111CC060E872E0CE01FE
:1023300001960E94CE0C62E0CE0101960E94600DD3
:10234000CE0101960E94250A10E0812F26960FB635
:10235000F894DEBF0FBECDBFDF91CF911F910F91DB
:10236000089581E00E94C708811125C06BEB72E0DF
:10237000CE0101960E94CE0C62E0CE0101960E9431
:10238000600DCE0101960E94250A67EC72E088E399
:1023900096E00E947F0A6BEC72E082EB94E00E9470
:1023A000E80A81E00E94C708882379F181E00E9451
:1023B000C708882349F261E089E00E94F502609134
:1023C000100101E020E0462F81E00E94780886E0BD
:1023D0000E94C708811120C082E00E94C7088111B5
:1023E0001BC08BE00E94CC02892B11F160E08BE0D6
:1023F0000E94F50220E041E060E177E280E090E0B9
:102400000E94C70F811114C09FCF60E177E280E086
:1024100090E00E94C104C5CF8BE00E94CC02892BC2
:1024200021F060E08BE00E94F50281E00E946610DE
:1024300066ED72E0CE0101960E94CE0C60E0CE0106
:1024400001960E94600DCE0101960E94250A41E08E
:1024500064E682E00E94340885E00E94C708882371
:1024600009F456C087E00E94C708882309F450C0C9
:1024700021E040E068EF7AE280E090E00E94C70F40
:10248000882309F461CF85E00E94C708811157C0F5
:1024900021E040E060ED77E080E090E00E94C70F2F
:1024A000182F882309F450CF41E060E082E00E94B9
:1024B000340887E00E94C708882309F44DC061E012
:1024C00089E00E94F5026AEE72E0CE0101960E9458
:1024D000CE0C61E0CE0101960E94600DCE01019606
:1024E0000E94250A64EF71E080E090E00E94C10440
:1024F00080E00E94661066EF72E088E396E00E943A
:10250000E80A68EE73E088EB91E00E94F3041DCFC7
:1025100060E08CE00E94F50268E572E080E090E007
:102520000E94C10461E08CE00E94F50221E040E0DD
:1025300060EA7FE080E090E00E94C70F8DCF87E0E7
:102540000E94C708882309F4A3CF21E040E068EE89
:1025500073E080E090E092CF6AEF72E088E396E06B
:102560000E94E80A6EEF72E0CE0101960E94CE0C46
:1025700061E0CE0101960E94600DCE0101960E949D
:10258000250A60E089E00E94F502BBCF85E0C9CE54
:102590001F920F920FB60F9211242F933F934F93D8
:1025A0005F936F937F938F939F93AF93BF93EF93BB
:1025B000FF938091A6049091A704A091A804B091E4
:1025C000A904892B8A2B8B2BD1F19091A104E09146
:1025D000A204F091A3048081892780838091A604BE
:1025E0009091A704A091A804B091A9041816190607
:1025F0001A061B069CF48091A6049091A704A09152
:10260000A804B091A9040197A109B1098093A60477
:102610009093A704A093A804B093A904FF91EF910D
:10262000BF91AF919F918F917F916F915F914F91EA
:102630003F912F910F900FBE0F901F901895809192
:102640000B01E2E7F0E0E4919FEF90930B01E130A2
:1026500051F030F0E23069F060E00E94F502DECF28
:1026600010926E00F9CF90916F009D7F90936F0054
:10267000F3CF909170009D7F9093700091E09093C4
:10268000B0009091B100987F94609093B100109247
:10269000B300E2CF1F920F920FB60F9211242F9327
:1026A0003F934F935F936F937F938F939F93AF93DA
:1026B000BF93EF93FF9382EB94E00E941402FF918B
:1026C000EF91BF91AF919F918F917F916F915F91AA
:1026D0004F913F912F910F900FBE0F901F90189523
:1026E0001F920F920FB60F9211242F938F939F93E7
:1026F000EF93FF93E091C204F091C3048081E091D5
:10270000C804F091C90482FD1BC090818091CB0464
:102710008F5F8F732091CC04821741F0E091CB043E
:10272000F0E0EE54FB4F958F8093CB04FF91EF9137
:102730009F918F912F910F900FBE0F901F90189522
:102740008081F4CF1F920F920FB60F9211242F9316
:102750003F938F939F93AF93BF9380911704909172
:102760001804A0911904B0911A043091160423E0C2
:10277000230F2D3758F50196A11DB11D2093160486
:102780008093170490931804A0931904B0931A042B
:1027900080911B0490911C04A0911D04B0911E0413
:1027A0000196A11DB11D80931B0490931C04A0935E
:1027B0001D04B0931E04BF91AF919F918F913F91E3
:1027C0002F910F900FBE0F901F90189526E8230FA2
:1027D0000296A11DB11DD2CF1F920F920FB60F927C
:1027E00011242F933F934F935F936F937F938F9316
:1027F0009F93AF93BF93EF93FF938091B900887F2E
:10280000803609F44AC0F0F5883209F4A7C018F5FB
:10281000803109F49BC0B8F4882309F4F9C08830EA
:1028200009F494C0FF91EF91BF91AF919F918F9167
:102830007F916F915F914F913F912F910F900FBEBC
:102840000F901F901895883109F488C0803251F795
:1028500080937A0414C0803409F49DC040F480331E
:10286000B9F38833F9F680937A0485ECB0C08035EB
:1028700009F485C0883509F496C0883499F60E9419
:102880007006D0CF883909F48CC038F5883729F024
:1028900050F4883611F0803729F683E080937C0469
:1028A0001092150457C0883809F47BC0803919F09C
:1028B000803809F0B7CF80911504803208F071C0DC
:1028C000E091150481E08E0F809315048091BB0088
:1028D000F0E0EB50FC4F80833DC0803B39F0E0F4EA
:1028E000803A09F479C0883A09F09CCF84E080935B
:1028F0007C041092F4031092F303E0913104F09100
:10290000320409958091F30381110FC081E0809317
:10291000F3031092D30309C0803C09F4A6CF883C8E
:1029200009F4A3CF883B09F07DCFE091F40381E067
:102930008E0F8093F403F0E0ED52FC4F8081809382
:10294000BB009091F4038091F30329C08091570458
:102950008093BB0085EC8093BC0064CF9091790498
:1029600080917804981758F5E091790481E08E0FF2
:1029700080937904F0E0E85AFB4F8081E9CFE09141
:10298000790481E08E0F809379048091BB00F0E0A0
:10299000E85AFB4F808390917904809178049817CE
:1029A000C8F285E8D8CFE091790481E08E0F80935A
:1029B00079048091BB00F0E0E85AFB4F808380915E
:1029C0007B0481115CCF81E08093560484EA80937C
:1029D000BC0010927C0426CF85EC8093BC00109242
:1029E0007C0480911504803230F4E0911504F0E00D
:1029F000EB50FC4F10826091150470E0E0912F04C1
:102A0000F091300485EF93E00995109215040ACFF8
:102A100010927A0434CF1F920F920FB60F921124A6
:102A20002F933F934F935F936F937F938F939F93D6
:102A3000AF93BF93EF93FF93E0912104F0912204B1
:102A4000309749F0A685B7858585968D91FF14C08E
:102A50009C918923A1F4FF91EF91BF91AF919F9138
:102A60008F917F916F915F914F913F912F910F9037
:102A70000FBE0F901F9018959C91892361F7A38931
:102A8000B4899C918589809589238C9386899789BF
:102A90000197F1F7608D718DA685B785558538E072
:102AA00020E0CB010197F1F7822F90E09595879573
:102AB000282F4C91452309F02068315091F7868DDD
:102AC00081FD20958091200490E001968F739927D5
:102AD00030911F04381799F0A0912004B0E0AD5652
:102AE000BC4F2C9380932004828D938D0197F1F736
:102AF000A389B4898C919589892B8C93ACCF868DD1
:102B00008160868FF1CFCF93DF931092B50410923E
:102B1000B40488EE93E0A0E0B0E08093B604909314
:102B2000B704A093B804B093B9042AE531E0309318
:102B3000B3042093B20425EC30E03093BF0420931B
:102B4000BE0424EC30E03093C1042093C00420EC98
:102B500030E03093C3042093C20421EC30E0309382
:102B6000C5042093C40422EC30E03093C7042093C2
:102B7000C60426EC30E03093C9042093C8041092B8
:102B8000CB041092CC041092CD041092CE0410927B
:102B90005205109251058093530590935405A093CC
:102BA0005505B09356052CE631E03093500520933F
:102BB0004F0510923B0610923A0680933C06909384
:102BC0003D06A0933E06B0933F068AE891E09093BD
:102BD00039068093380610924F0610924E061092D6
:102BE00051061092500610925306109252061092FF
:102BF000550610925406609156066E7F6D7F609365
:102C000056066695617081E0682782E00E94F502B1
:102C100061E082E00E945503E1EBF0E0E491E09393
:102C20004806EDE9F0E0E491F0E0EE0FFF1FEF560B
:102C3000FF4F8591949190934A068093490660E0F6
:102C400080E10E9455038091560681FD04C061E039
:102C500080E10E94F50280E180934406EFEBF0E012
:102C6000E491E0934506EBEAF0E0E491F0E0EE0F4A
:102C7000FF1FE957FF4F85919491909347068093EA
:102C8000460686E290E090935C0580935B0584E0C5
:102C900090E090931401809313019093120180931C
:102CA000110110922E0610922D068EE791E090935E
:102CB0002C0680932B061092340687E280932F0611
:102CC00084E18093350684E08093360610923706BF
:102CD0001092160610921D061092240610922506D8
:102CE000109226061092270681E080932306809397
:102CF00020061092210682E080932206109215068B
:102D000084E590E090931A06809319060E941E2194
:102D100090931F0680931E06009709F45DC024E57A
:102D2000DC011D922A95E9F78CE190E0909318065A
:102D30008093170684E090E090931C0680931B0616
:102D400080911606882341F061E084E00E945503DB
:102D500060E084E00E94F502EFE9F0E0E491F0E049
:102D6000EE0FFF1FEF56FF4F859194919093290628
:102D700080932806E3EBF0E0E491E0932A060E94BA
:102D80003606C5EFD5E0E1E9F5E049E655E01992F0
:102D900011921192DA016D937D938D939D93AD0104
:102DA0009F01225B3F4FD9011D921C92B5E0E53A8D
:102DB000FB0769F710921406109213066AE073E09D
:102DC00083E695E00E94CE0C6AE971E08DE595E01E
:102DD000DF91CF910C94CE0C10921A061092190626
:102DE0001092180610921706A5CFCF93DF93CDB798
:102DF000DEB766970FB6F894DEBF0FBECDBF7894EE
:102E000084B5826084BD84B5816084BD85B58260EF
:102E100085BD85B5816085BD80916E0081608093A0
:102E20006E00109281008091810082608093810009
:102E30008091810081608093810080918000816019
:102E4000809380008091B10084608093B100809174
:102E5000B00081608093B00080917A00846080939C
:102E60007A0080917A00826080937A0080917A0063
:102E7000816080937A0080917A00806880937A00E4
:102E80001092C100E091C204F091C30482E08083FB
:102E9000E091C204F091C3041082E091BE04F0916D
:102EA000BF041082E091C004F091C10480E18083EE
:102EB0001092CA04E091C604F091C70486E08083B2
:102EC000E091C404F091C504808180618083E09129
:102ED000C404F091C504808188608083E091C404BB
:102EE000F091C504808180688083E091C404F091F2
:102EF000C50480818F7D8083109253061092520604
:102F0000109251061092500610924F0610924E06E3
:102F10008DE991E090935506809354069091440674
:102F2000963108F047C02DEB30E030934F062093E8
:102F30004E062BE931E030935106209350062CE2E7
:102F400031E030935306209352062091680084E0CC
:102F5000983048F031E09E3008F430E081E001C064
:102F6000880F3A95EAF7822B809368002DE630E0CF
:102F7000983050F02BE630E09E3030F02CE630E018
:102F8000963110F030E020E030934C0620934B0651
:102F9000292F30E0983008F0D1C281E001C0880FBD
:102FA0009A95EAF780934D068091540690915506C4
:102FB0000197F1F78091520690915306892B49F1C0
:102FC000E0912104F091220426E0E833F20709F1B0
:102FD000309739F0A389B4899C918589809589239C
:102FE0008C93809156068E7F809356061092200413
:102FF00010921F0488E396E09093220480932104AA
:10300000E0914B06F0914C06808190914D06892B02
:103010008083109235040E9423036FEF80E00E94AA
:1030200027076FEF81E00E9427076FEF70E0809124
:103030005B0590915C050E94550710922C0410923C
:103040002B0461E08AE00E94F50261E08AE00E94C0
:10305000550361E089E00E94F50261E089E00E9489
:10306000550361E08BE00E94F50261E08BE00E9475
:10307000550361E08CE00E94F50261E08CE00E9463
:10308000550361E088E00E94F50261E088E00E945B
:10309000550361E087E00E94F50261E087E00E944D
:1030A000550361E086E00E94F50261E086E00E943F
:1030B000550361E085E00E94F50261E085E00E9431
:1030C000550361E08BE00E94F50287E00E94DA0878
:1030D00087E00E94F70885E00E94DA0885E00E94F8
:1030E000F70886E00E94DA0886E00E94F70884E08C
:1030F0000E94DA0884E00E94F70882E00E94DA0861
:1031000082E00E94F70880E00E94DA0880E00E94D6
:10311000F70883E00E94DA0883E00E94F70881E064
:103120000E94DA0860E084E10E94550361E083E0D8
:103130000E94550380910F0190E00E9486038DE06C
:103140000E94DA088DE00E94F7088BE00E94DA08FE
:103150008BE00E94F7088EE00E94DA088EE00E9461
:10316000F70888E00E94DA0888E00E94F70889E002
:103170000E94DA0889E00E94F7088AE00E94DA08D3
:103180008AE00E94F70880911B0690911C0697FD2B
:1031900008C061E00E94550360E080911B060E9418
:1031A000F50281E0809316064091190650911A06A7
:1031B00070E060E080911E0690911F060E94092336
:1031C0000E9403040E942303109230068091360669
:1031D000823018F098E0909330068093330662E3D3
:1031E00070E080E090E00E94C104609137068BE2BD
:1031F00096E00E94420768EE73E080E090E00E9453
:10320000C10460E38BE296E00E9496090BE416E4A9
:10321000C8010197F1F760E38BE296E00E949609FE
:10322000C8010197F1F760E38BE296E00E949609EE
:1032300083E592E00197F1F760E28BE296E00E946D
:10324000960960913006606240E08BE296E00E9451
:10325000AF0984E08093310640E06CE08BE296E0B9
:103260000E94AF090E94FA0982E08093320640E092
:1032700066E08BE296E00E94AF0940E062E08BE2FC
:1032800096E00E94AF098BE39FE10197F1F762E0BE
:1032900080E00E94C60966E072E08BE296E00E9440
:1032A000FC0A63E080E00E94C6096BE173E08BE2F8
:1032B00096E00E94FC0A80910601982F990F63E026
:1032C000890F0E94C60960913106862F8160809324
:1032D0003106696040E08BE296E00E94AF09809180
:1032E0001306909114060A9774F4E1E9F5E010E0F2
:1032F00000E081919191892B09F412C60F5F1F4F55
:103300000A301105B1F786E00E94C708811123C178
:1033100082E00E94C70881111EC10E94C00D87E093
:103320000E94C708882309F419C161E089E00E945E
:10333000F50287E00E94C708882341F085E00E94DB
:10334000C708882319F081E080932504BE016F5FD0
:103350007F4F7B0111E00E9436062B013C0181E981
:1033600095E0988B8F87B9E6CB2EB5E0DB2EDE8A11
:10337000CD8AFC01312C212C9F0122593F4FD901CC
:103380001D921C92808191813296892BB9F1AD8971
:10339000BE894D915D916D917C911397DC968D90D6
:1033A0009D90AD90BC90DF97D301C201841B950B1B
:1033B000A60BB70B88159905AA05BB05F8F0480DB3
:1033C000591D6A1D7B1DAD89BE894D935D936D931B
:1033D0007C931397C1018B509A4FDC018C91882309
:1033E00069F082AD93AD009709F0C0C0CF01845958
:1033F0009F4F21E030E0DC012D933C937FEF271AB3
:10340000370A8D899E8904969E8B8D8B9AE02916AA
:10341000310409F0B1CFB12CA12C4601A6E98A0EE6
:10342000911CF401808191818130910509F4C0C023
:10343000029709F4C3C0BFEFAB1ABB0AE2E0CE0E9D
:10344000D11CFAE0AF16B10441F78DE00E94C70825
:1034500081111BC00091270401270093270464E613
:1034600070E088EB91E00E94F30460910D01069FEB
:10347000602D11244091090181E00E9434086CE222
:1034800071E080E090E00E94C1048EE00E94C708D5
:1034900081111BC00091260401270093260464E6D5
:1034A00070E088EB91E00E94F30460910C01069FAC
:1034B000602D11244091080182E00E9434086CE2E2
:1034C00071E080E090E00E94C1048BE00E94C70898
:1034D00081111BC00091280401270093280464E691
:1034E00070E088EB91E00E94F30460910E01069F6A
:1034F000602D112440910A0180E00E9434086CE2A2
:1035000071E080E090E00E94C10488E00E94C7085A
:103510008111ADC080910701882309F480C088E043
:103520008093370660E08BE296E00E94420710929B
:10353000070168EC70E080E090E0A7C19E3040F4A5
:103540002850310981E001C0880F2A95EAF72ACD79
:103550002E503109F7CF0E942D0AE1CE85E00E945E
:10356000C708882309F4E1CE60E0E0CE5F013EE4C5
:10357000A30EB11CD5014D915C91481759070CF071
:103580003DCF9F0124593F4F61E070E0D9016D9319
:103590007C934F5F5F4FD5014D935C93481759075C
:1035A0000CF42CCF62E070E0D9016D937C9326CFB0
:1035B000D6019896ED91FC9109953DCFD60198964C
:1035C000ED91FC9109958091130690911406009756
:1035D00009F431CFF60120A531A5232B09F42BCF17
:1035E00011A610A6F501EB50FA4F1082D4011D92DE
:1035F0001C92F501EE0FFF1FEE0FFF1FE759FA4F68
:1036000014AE15AE16AE17AEF601E858FF4F118294
:103610001082019790931406809313060CCFE091CB
:103620000601E53009F06BC1E0910501EE30F8F4D8
:10363000F0E0E35EF44E0C94FD202B1B1D1C201CBF
:10364000231C271C291C2D1C2F1C481C501C581CDB
:10365000601C6A1C771C62EC72E082EB94E00E94B2
:10366000E80A67EC72E088E396E00E947F0A8AE04D
:103670000E94C708811116C0809106018F5F8630B5
:1036800008F049C18093060180910601982F990F97
:1036900063E0890F0E94C60968EC70E080E090E06A
:1036A0000E94C10489E00E94C70881112AC080914C
:1036B0000601E82FF0E0E050FF4F90819F5F90837C
:1036C000953028F09DEF980F923008F41082908189
:1036D000973040F0853031F490912504911102C06B
:1036E0001092050190819E3020F0853011F41092E7
:1036F000050190819A3018F0853008F410820E94FC
:10370000FE0A0E941409082F882309F469C064E6A0
:1037100070E088EB91E00E94F304B0900701BB20B9
:1037200009F483C118861F821A8619861C861B8697
:1037300009831A82F70101900020E9F73197AF0160
:103740004E195F09B701CE0107960E94960C0E94A0
:1037500036062B013C0101E02FE04FE06FE080E0F6
:103760000E9478088091230481111AC08091130669
:10377000909114060A9794F4D12CC12CAF85B88986
:103780008D919D91B88BAF87892B09F404C4BFEF4D
:10379000CB1ADB0AEAE0CE16D10481F7109323049A
:1037A0000E943606641975098609970960317742C7
:1037B0008105910508F4B2C06FE273E082EB94E0FA
:1037C0000E94E80A6CE271E08CED90E00E94F30444
:1037D000B12CCE0107960E94250AB1101092070164
:1037E000C7010E94FD0EB7018DE595E00E94090C0E
:1037F000C7010E94250A8AE991E00E94660A8111A8
:1038000093C18091250481111AC284E493E00E943F
:10381000660A882309F454C181E00E94661086E09C
:103820000E94C708811106C082E00E94C708882351
:1038300009F45BC160E672E05AC10E94770E17CFAF
:103840000E94BD0E14CF81E00E94841110CF80E051
:10385000FBCF81E00E9466100ACF80E0FBCF809111
:10386000250401E020E08127809325046091100168
:10387000462F811101C040E081E00E9478080E943B
:10388000FE0A60E273E080E090E00E94C104EFCEA7
:1038900080912504882309F4EACE0E942608E7CE09
:1038A00080912504882309F4E2CE0E94560ADFCED7
:1038B00080912504882309F4DACE0E941808D7CE17
:1038C00080912504882309F4D2CE60E08BE00E9429
:1038D000F502CDCE80912504882321F060E08AE0B6
:1038E0000E94F50268EE73E080E090E0CECF809118
:1038F0002504882309F4BBCE61E08AE0E8CFF0E03C
:10390000E050FF4F8081882309F4B1CE815080833D
:103910000E94FE0A0ECE10920601B6CE0E94140935
:10392000D82E882309F43CCF64E670E088EB91E060
:103930000E94F30401E02FE04FE060E080E00E948D
:10394000780868EC70E080E090E00E94C1042FE00D
:103950004FE06FE080E00E9478081A8219821C8292
:103960001B821E821D82BE01695F7F4FC7010E94BC
:10397000B70CDD861E8641E050E0BE01635F7F4FDD
:10398000C7010E946A0C811103C0C7010E94130A7B
:10399000B701CE0107960E94B70CC7010E94250A05
:1039A0002B853C854CEF420F2530310508F440E073
:1039B00050E0BE01695F7F4FC7010E940B0DB70148
:1039C000CE0107960E94090CC7010E94250A4B856B
:1039D0005C856F81788582EB94E00E94960168E9AE
:1039E00071E082EB94E00E947F0A2B853C858091F8
:1039F0006705909168052817390709F0D1CE8F81A6
:103A000098856091630570916405009709F4FFC281
:103A10006115710539F4232B09F407C3FC0180817A
:103A200090E000C30E941023FDC281E0053319F02D
:103A3000063321F480E00E948411D2CE81E0083365
:103A400019F0093321F480E00E946610C9CE0A32D1
:103A500019F40E94770EC4CE033219F40E94BD0EF1
:103A6000BFCE802F000F990BF1E0833B9F07B1F48D
:103A70006091280461276093280480910E01689F5B
:103A8000602D112440910A0180E00E9434086CE20C
:103A900071E080E090E00E94C104A2CE875D914079
:103AA00009F09ECE609127046127609327048091DE
:103AB0000D01689F602D11244091090181E0E5CF3F
:103AC00087E493E00E94660A882309F498C080E0A6
:103AD0000E94661086E00E94C708811106C082E03D
:103AE0000E94C708882309F4A5CE63EB71E082EB3E
:103AF00094E00E94E80A82E693E00E94660A60E091
:103B00008111DBC085E693E00E94660A60E08111C6
:103B100008C088E693E00E94660A882309F4C6C0BC
:103B200061E08AE00E94F502C0902404D12C81E07B
:103B30000E94C7088C151D0421F10091100181E03D
:103B40000E94C708089F602D112401E020E040E09A
:103B500082E00E94780881E00E94C70891E081110C
:103B600001C090E09093240481E00E94C70865E1C1
:103B700073E0811102C068E173E088E396E00E947F
:103B8000E80A80912504811115C085E00E94C708CC
:103B9000882381F087E00E94C708882359F069E6EE
:103BA00072E0C7010E94CE0CC7010E94440FC701FA
:103BB0000E94250A86E480937C0080917A008064CC
:103BC00080937A0080917A0086FDFCCF90917800F6
:103BD000809179008927982789278C32914014F4A5
:103BE0000E94770E80E090E0892B09F4B4CB0E940C
:103BF0000002882309F4AECB0E940000A7CB8AE420
:103C000093E00E94660A882329F081E00E948411D3
:103C100087E00BCE8DE493E00E94660A882329F0AA
:103C200080E00E94841185E000CE80E593E00E9450
:103C3000660A882309F45FCF109325045CCF81E4E2
:103C400093E00E94660A882319F01092250453CF4E
:103C500083E593E00E94660A60E0811107C086E573
:103C600093E00E94660A882329F061E08BE00E94BD
:103C7000F50241CF89E593E00E94660A882319F096
:103C80000E94180838CF8CE593E00E94660A8823CA
:103C900019F00E9426082FCF8FE593E00E94660A54
:103CA000882309F428CF0E94560A25CF8BE693E09B
:103CB0000E94660A882359F061E089E00E94F502BB
:103CC00063EB71E082EB94E00E94E80A2DCF8EE670
:103CD00093E00E94660A882369F086E00E94C70884
:103CE000811105C082E00E94C708882349F360E67D
:103CF00072E0E8CF81E793E00E94660A882331F002
:103D000085E00E94C7088111DBCFF1CF84E793E003
:103D10000E94660A882331F089E00E94CC02892B38
:103D200031F7CECF87E793E00E94660A882319F027
:103D30000E94BD0EDCCF8AE793E00E94660A8823CA
:103D400019F00E94770ED3CF8DE592E00E94660AAB
:103D5000882391F060E672E082EB94E00E94E80A2A
:103D600062E672E0C7010E94CE0CC7010E94440FB8
:103D7000C7010E94250AD8CE8DE793E00E94660A0B
:103D8000882349F0809125046FE073E081119ACF78
:103D900061E173E097CF80E893E00E94660A882390
:103DA00041F040910A0160910E0180E00E943408C8
:103DB00087CF83E893E00E94660A882331F040E0D1
:103DC00060E080E00E94340892CF86E893E00E9491
:103DD000660A882331F04091090160910D0181E06C
:103DE000E5CF89E893E00E94660A882321F040E04D
:103DF00060E081E0E7CF8CE893E00E94660A6BEC1C
:103E000072E081115FCF8FE893E00E94660A8823F9
:103E100009F48ACE85E00E94C70861E070E088233B
:103E200011F070E060E082EB94E00E94E10A87E02C
:103E30000E94C70861E070E0882311F070E060E044
:103E400082EB94E00E94E10A84E00E94C70881119D
:103E500004C00E94C70861E0811160E070E082EB5D
:103E600094E00E94E10A86E00E94C708811105C023
:103E700082E00E94C70861E0811160E070E082EB9F
:103E800094E00E94E10A89E00E94CC0261E070E0C7
:103E9000892B11F070E060E082EB94E00E94E10A6F
:103EA00081E00E94C70863E173E0811102C067E905
:103EB00072E082EB94E00E94FC0A809125046FE09E
:103EC00073E0811102C061E173E082EB94E00E9433
:103ED000E80A84E00E94C708682F82EB94E00E9401
:103EE000DA0A80E00E94C708682F82EB94E00E9403
:103EF000DA0A86E00E94C708682F82EB94E00E94ED
:103F0000DA0A82E00E94C708682F82EB94E00E94E0
:103F1000DA0A68E971E082EB94E00E947F0A04CE3D
:103F2000F801EE0FFF1FEE0FFF1FEB55FA4F88EE63
:103F300093E0A0E0B0E080839183A283B383F80193
:103F4000EE0FFF1FEF56FA4F84E991E091838083D3
:103F5000F801EE0FFF1FE353FA4F11821082F801B0
:103F6000EB50FA4F81E080830E943606000F111F4C
:103F7000000F111FF801E759FA4F608371838283A4
:103F800093838091130690911406019690931406E2
:103F900080931306B8C9F601EE0FFF1FEE0FFF1F47
:103FA000EB55FA4F60EE73E984E090E06083718333
:103FB00082839383F601EE0FFF1FEF56FA4F82E9DB
:103FC00098E091838083F601EE0FFF1FE353FA4FD1
:103FD000A1E0B0E0B183A083F601EB50FA4F10836B
:103FE0000E943606F601EE0FFF1FEE0FFF1FE75986
:103FF000FA4F60837183828393838091130690913B
:10400000140601969093140680931306C7CB61158E
:10401000710559F0232B49F0DB018C9190E09195CB
:1040200081959109892B09F0BBCB6CE373E082EB9E
:1040300094E00E94E80A6CE271E088EB91E00E9453
:10404000F30401E020E040E06FE080E00E947808A7
:1040500064EF71E080E090E00E94C104BACB8DE58E
:1040600095E00E94250A83E695E00E94250A80914A
:104070001E0690911F060E94BA2180911B06909106
:104080001C0697FD03C060E00E9455038AE891E09A
:1040900090933906809338068091210490912204F0
:1040A0008853964071F4E0914B06F0914C06908154
:1040B00080914D068095892380831092220410926E
:1040C000210408952F923F924F925F926F927F92B8
:1040D0008F929F92AF92BF92CF92DF92EF92FF9218
:1040E0000F931F93CF93DF93CDB7DEB7CA1BDB0BC4
:1040F0000FB6F894DEBF0FBECDBF09942A88398869
:1041000048885F846E847D848C849B84AA84B9846F
:10411000C884DF80EE80FD800C811B81AA81B9817B
:10412000CE0FD11D0FB6F894DEBF0FBECDBFED018F
:104130000895A29FB001B39FC001A39F700D811D80
:104140001124911DB29F700D811D1124911D0895A0
:1041500097FB072E16F4009407D077FD09D00E9434
:104160000A2107FC05D03EF4909581959F4F089554
:10417000709561957F4F0895A1E21A2EAA1BBB1B73
:10418000FD010DC0AA1FBB1FEE1FFF1FA217B30723
:10419000E407F50720F0A21BB30BE40BF50B661F39
:1041A000771F881F991F1A9469F7609570958095FD
:1041B00090959B01AC01BD01CF010895052E97FBA1
:1041C0001EF400940E94F52057FD07D00E94BC20E9
:1041D00007FC03D04EF40C94F52050954095309593
:1041E00021953F4F4F4F5F4F089590958095709563
:1041F00061957F4F8F4F9F4F0895EE0FFF1F0590E2
:10420000F491E02D09940E949920B7FF0895821B34
:10421000930B0895AA1BBB1B51E107C0AA1FBB1F2C
:10422000A617B70710F0A61BB70B881F991F5A9542
:10423000A9F780959095BC01CD0108950F931F9328
:10424000CF93DF938230910510F482E090E0E0910B
:104250005906F0915A0630E020E0B0E0A0E0309737
:1042600099F42115310509F44AC0281B390B243073
:104270003105D8F58A819B816115710589F1FB01B2
:1042800093838283FE0111C0408151810281138199
:1042900048175907E0F04817590799F4109761F04B
:1042A00012960C93129713961C933296CF01DF91BE
:1042B000CF911F910F9108950093590610935A06BC
:1042C000F4CF2115310551F04217530738F0A901F9
:1042D000DB019A01BD01DF01F801C1CFEF01F9CF88
:1042E00090935A0680935906CDCFFE01E20FF31F3B
:1042F000819391932250310939832883D7CF20911C
:10430000570630915806232B41F420911701309124
:1043100018013093580620935706209115013091CB
:1043200016012115310541F42DB73EB74091190111
:1043300050911A01241B350BE0915706F091580655
:10434000E217F307A0F42E1B3F0B2817390778F06C
:10435000AC014E5F5F4F2417350748F04E0F5F1FCB
:104360005093580640935706819391939FCFF0E066
:10437000E0E09CCFCF93DF930097E9F0FC01329708
:1043800013821282A0915906B0915A06ED0130E0D5
:1043900020E01097A1F420813181820F931F20919A
:1043A0005706309158062817390709F061C0F09375
:1043B0005806E0935706DF91CF910895EA01CE1792
:1043C000DF07E8F54A815B819E0141155105B1F790
:1043D000E901FB83EA8349915991C40FD51FEC177A
:1043E000FD0761F4808191810296840F951FE90198
:1043F00099838883828193819B838A83F0E0E0E0C4
:1044000012968D919C9113970097B9F52D913C913F
:104410001197CD010296820F931F2091570630917C
:1044200058062817390739F6309751F510925A0671
:1044300010925906B0935806A0935706BCCFD38369
:10444000C28340815181840F951FC817D90761F439
:104450004E5F5F4F88819981480F591F5183408378
:104460008A819B81938382832115310509F0B0CF26
:10447000F0935A06E09359069ECFFD01DC01C0CFB0
:1044800013821282D7CFB0E0A0E0E9E4F2E20C940C
:1044900064208C01009751F4CB010E941E218C01F5
:1044A000C801CDB7DEB7E0E10C948020FC01E60F37
:1044B000F71F9C0122503109E217F30708F49DC051
:1044C000D901CD91DC911197C617D70798F0C53067
:1044D000D10530F3CE0104978617970708F3C61B62
:1044E000D70B2297C193D1936D937C93CF010E94F8
:1044F000BA21D6CF5B01AC1ABD0A4C018C0E9D1EB1
:10450000A0915906B0915A06512C412CF12CE12C66
:10451000109731F5809157069091580688159905A6
:1045200009F05CC04616570608F058C08091150186
:1045300090911601009741F48DB79EB740911901F3
:1045400050911A01841B950BE817F90708F055C024
:10455000F0935806E0935706F90171836083A0CF6A
:104560008D919C91119712966C90129713967C9056
:104570001397A815B90559F56C0142E0C40ED11C7A
:10458000CA14DB0420F1AC014A195B09DA01129666
:10459000159780F06282738251834083D9016D93B5
:1045A0007C93E114F10471F0D7011396FC93EE9320
:1045B000129776CF22968C0F9D1FF90191838083ED
:1045C000F301EFCFF0935A06E093590669CF4816EE
:1045D000590608F42C017D01D3019ACFCB010E942A
:1045E0001E217C01009749F0AE01B8010E94002312
:1045F000C8010E94BA21870153CF10E000E050CFDC
:10460000FB01DC0102C001900D9241505040D8F7EF
:104610000895DC0101C06D9341505040E0F70895CA
:10462000FB01DC018D91019080190110D9F3990BE8
:104630000895FB01DC0101900D920020E1F708953F
:1046400010E0C3E6D0E004C0FE010E94FD202196E8
:0A465000C436D107C9F7F894FFCF74
:10465A000107090202000501000101FF1932C8140D
:10466A00020300040000005B068000000040001402
:10467A00005400050A0F142802050A14280A1932E0
:10468A0064C8313233410034353642003738394351
:10469A00002A302344001000200040008000FE0061
:1046AA00FD00FB00F7000000000036029601C3017E
:1046BA008302F401D201E60100000000F806CB06ED
:1046CA001508A106C406B106A206000000000D0ADC
:1046DA00960115089501000000008007960115084B
:1046EA00A106DC07F40768070D0A004155544F205C
:1046FA00004D414E55200052004F55205031004682
:10470A0045205031004F5520414200464520414244
:10471A00004F5520504F00464520504F004F55201E
:10472A005032004645205032004445504C41004D1D
:10473A004F544F4E00415458204D00415458204187
:10474A00002020202020202020202020202020207F
:10475A00202020202000544120494E204558204C3A
:10476A0043204C4420434D440032522033422035EA
:10477A0042203220203220205041524B20004F6BE1
:10478A00005031204F2E2E2E005031204F50454ED2
:10479A0000503120462E2E2E00503120436C6F736C
:1047AA0065004152550041525520212000415500D3
:1047BA00300053C3A972696500506F736974696FD9
:1047CA006E00506F7274657300426F75746F6E007D
:1047DA0045727265757220706F736974696F6E00C5
:1047EA00503132204F70656E00504F2300503220F6
:1047FA00462E2E2E0050313220462E2E2E005046A6
:10480A002300503132204F2E2E2E004572726575CC
:10481A0072205061726B00504123002B5061726B01
:10482A004D6F756E74004465706C6163656D656E7D
:10483A007420616272692E2E2E00416272692066AE
:10484A0065726DC3A90044462300444F23004162A8
:10485A007269206F75766572740031323334006D77
:10486A000061007000544E0054500032522033420E
:10487A00203542203220203220205041524B004D18
:10488A0061757661697320636F646500436F64655F
:10489A00204F4B00502B00502D00442B00442D007C
:1048AA004D41006D2B006D2D00646400322B0032E7
:1048BA002D00412B00582B00582D00412D00503F50
:1048CA0000443F00413F00702D00702B004D3F0017
:1048DA00452B00452D00492B00492D00504100432E
:0248EA003F008D
:107800000C94343C0C94513C0C94513C0C94513CE1
:107810000C94513C0C94513C0C94513C0C94513CB4
:107820000C94513C0C94513C0C94513C0C94513CA4
:107830000C94513C0C94513C0C94513C0C94513C94
:107840000C94513C0C94513C0C94513C0C94513C84
:107850000C94513C0C94513C0C94513C0C94513C74
:107860000C94513C0C94513C11241FBECFEFD8E036
:10787000DEBFCDBF11E0A0E0B1E0ECE9FFE702C060
:1078800005900D92A230B107D9F712E0A2E0B1E065
:1078900001C01D92AD30B107E1F70E942D3D0C945F
:1078A000CC3F0C94003C982F959595959595959582
:1078B000905D8F708A307CF0282F295A8091C0000B
:1078C00085FFFCCF9093C6008091C00085FFFCCF60
:1078D0002093C6000895282F205DF0CF982F809127
:1078E000C00085FFFCCF9093C6000895EF92FF92F1
:1078F0000F931F93EE24FF2487018091C00087FD22
:1079000017C00894E11CF11C011D111D81E4E8164B
:1079100082E4F8068FE0080780E0180770F3E09132
:107920000401F091050109958091C00087FFE9CF1E
:107930008091C6001F910F91FF90EF9008950E94D3
:10794000763C982F8091C00085FFFCCF9093C600B5
:1079500091362CF490330CF09053892F089597555D
:10796000892F08951F930E949F3C182F0E949F3CCF
:107970001295107F810F1F9108951F93182F882350
:1079800021F00E94763C1150E1F71F9108951F935A
:10799000182F0E94763C803249F0809103018F5F5E
:1079A000809303018530C1F01F9108958091C0003C
:1079B00085FFFCCF84E18093C6008091C00085FFE5
:1079C000FCCF1093C6008091C00085FFFCCF80E102
:1079D0008093C6001F910895E0910401F091050184
:1079E00009951F9108950E94763C803241F0809164
:1079F00003018F5F80930301853081F008958091AA
:107A0000C00085FFFCCF84E18093C6008091C00058
:107A100085FFFCCF80E18093C6000895E0910401CA
:107A2000F09105010995089540E951E08823A1F0FE
:107A30002D9A28EE33E0FA013197F1F721503040CA
:107A4000D1F72D9828EE33E0FA013197F1F7215064
:107A50003040D1F7815061F708953F924F925F9285
:107A60006F927F928F929F92AF92BF92CF92DF924E
:107A7000EF92FF920F931F93CF93DF93000080E16B
:107A80008093C4001092C50088E18093C10086E015
:107A90008093C2005098589A259A81E00E94143D24
:107AA00024E1F22E9EE1E92E85E9D82E0FE0C02ECA
:107AB00010E1B12EAA24A394B1E49B2EA6E58A2E50
:107AC000F2E57F2EE0E26E2E79E4572E63E5462E36
:107AD00050E5352E0E94763C8033B1F18133B9F107
:107AE000803409F46FC0813409F476C0823409F41B
:107AF00085C0853409F488C0803531F1823521F1A3
:107B0000813511F1853509F485C0863509F48DC0BC
:107B1000843609F496C0843709F403C1853709F423
:107B200072C1863709F466C0809103018F5F80932C
:107B30000301853079F6E0910401F0910501099582
:107B40000E94763C803351F60E94F33CC3CF0E94E2
:107B5000763C803249F78091C00085FFFCCFF092DF
:107B6000C6008091C00085FFFCCF9092C600809136
:107B7000C00085FFFCCF8092C6008091C00085FFC9
:107B8000FCCF7092C6008091C00085FFFCCF609250
:107B9000C6008091C00085FFFCCF5092C600809146
:107BA000C00085FFFCCF4092C6008091C00085FFD9
:107BB000FCCF3092C6008091C00085FFFCCFB09210
:107BC000C60088CF0E94763C863808F4BDCF0E945C
:107BD000763C0E94F33C7ECF0E94763C803809F4CC
:107BE0009CC0813809F40BC1823809F43CC1883942
:107BF00009F48FC080E00E94C73C6CCF84E10E94F2
:107C0000BD3C0E94F33C66CF85E00E94BD3C0E94D3
:107C1000F33C60CF0E94763C809306010E94763C44
:107C2000809307010E94F33C55CF0E94763C80333D
:107C300009F41DC183E00E94BD3C80E00E94C73C66
:107C400049CF0E94763C809309020E94763C809343
:107C5000080280910C028E7F80930C020E94763C79
:107C6000853409F415C18091080290910902892B8D
:107C700089F000E010E00E94763CF801E85FFE4FDA
:107C800080830F5F1F4F80910802909109020817AF
:107C9000190788F30E94763C803209F045CF809125
:107CA0000C0280FF01C16091060170910701660F0F
:107CB000771F7093070160930601A0910802B091AD
:107CC00009021097C9F0E8E0F1E09B01AD014E0F09
:107CD0005F1FF999FECF32BD21BD819180BDFA9A17
:107CE000F99A2F5F3F4FE417F50799F76A0F7B1F4B
:107CF00070930701609306018091C00085FFFCCF5F
:107D0000F092C6008091C00085FFFCCFB092C60003
:107D1000E1CE83E00E94C73CDDCE82E00E94C73CFA
:107D2000D9CE0E94763C809309020E94763C8093D3
:107D300008028091060190910701880F991F909386
:107D40000701809306010E94763C853409F4A6C0A1
:107D500080910C028E7F80930C020E94763C8032D0
:107D600009F0B8CE8091C00085FFFCCFF092C6002C
:107D7000609108027091090261157105B9F140E046
:107D800050E080910C02A82FA170B82FB27011C0E2
:107D9000BB2309F45CC0E0910601F0910701319624
:107DA000F0930701E09306014F5F5F4F46175707B7
:107DB000E8F4AA2369F3F999FECF209106013091E6
:107DC000070132BD21BDF89A90B58091C00085FFB2
:107DD000FCCF9093C6002F5F3F4F30930701209355
:107DE00006014F5F5F4F4617570718F38091C00099
:107DF00085FDE5CE8091C00085FFF8CFE0CE81E023
:107E00000E94C73C67CE0E94763C803209F08CCE3F
:107E10008091C00085FFFCCFF092C6008091C00029
:107E200085FFFCCFE092C6008091C00085FFFCCFAB
:107E3000D092C6008091C00085FFFCCFC092C600E2
:107E40008091C00085FFFCCFB092C60043CEE09188
:107E50000601F091070194918091C00085FFFCCF4D
:107E60009093C6009CCF80E10E94C73C33CE0E9415
:107E7000763C0E94763C182F0E94763C112309F430
:107E800083C0113009F484C08FE00E94C73C22CE29
:107E900080910C02816080930C02E5CE80910C02EF
:107EA000816080930C0259CF809107018823880F4D
:107EB000880B8A2180930B02809106019091070123
:107EC000880F991F90930701809306018091080203
:107ED00080FF09C080910802909109020196909359
:107EE000090280930802F894F999FECF1127E091D6
:107EF0000601F0910701C8E0D1E08091080290915D
:107F00000902103091F40091570001700130D9F34B
:107F100003E000935700E89500915700017001308D
:107F2000D9F301E100935700E89509901990009169
:107F3000570001700130D9F301E000935700E89534
:107F40001395103498F011270091570001700130FB
:107F5000D9F305E000935700E895009157000170B0
:107F60000130D9F301E100935700E895329602976A
:107F700009F0C7CF103011F00296E5CF112480919F
:107F8000C00085FFB9CEBCCE8EE10E94C73CA2CD19
:0C7F900085E90E94C73C9ECDF894FFCF0D
:027F9C00800063
:040000030000780081
:00000001FF
