:100000000C9464000C948C000C948C000C94CA0F1B
:100010000C94CA0F0C94CA0F0C948C000C94870D8E
:100020000C948C000C948C000C948C000C948C0020
:100030000C948C000C948C000C948C000C948C0010
:100040000C94610E0C948C000C942F0E0C94090EE1
:100050000C948C000C948C000C948C000C948C00F0
:100060000C94AB0E0C948C000000000024002700C0
:100070002A0002000000080002010000030407003B
:1000800000000000000000000000002300260029FE
:100090000000000000250028002B000404040404D4
:1000A0000404040202020202020303030303030125
:1000B00002040810204080010204081020010204FC
:1000C000081020008D10261811241FBECFEFD8E095
:1000D000DEBFCDBF24E0A4E9B2E001C01D92A63A84
:1000E000B207E1F712E0A0E0B1E0E6EDF5E302C00F
:1000F00005900D92A439B107D9F710E0C3E6D0E01E
:1001000004C02197FE010E94D618C236D107C9F754
:100110000E94D6110C94DE1A0C9400002091AE03BC
:1001200081E0213208F044C080918A038111FCCF24
:100130008091AD0392E090938A0391E090938903BC
:100140009FEF909388031092870320938603ADE876
:10015000B3E0E6E6F3E090E0291331C010926503C6
:1001600090916503880F892B8093650380916403C8
:10017000813049F510926403809165038093BB0040
:100180008091BC0083FDF8CF85EC8093BC0080910A
:100190008A038230E1F3809188038F3FB1F0809130
:1001A00088038032A1F080918803803391F084E04D
:1001B00010928C031092AE0310928B0308953D9120
:1001C00031939F5FC9CF85EEE0CF80E0F1CF82E031
:1001D000EFCF83E0EDCF90918A039111FCCF91E0B6
:1001E00090938A03909389032FEF209388031092B2
:1001F0008703260F209386039093650390916503F0
:10020000880F892B80936503809164038130F9F412
:1002100010926403809165038093BB008091BC00C1
:1002200083FDF8CF85EC8093BC0080918A038130F8
:10023000E1F380918703861710F460918703A6E6A7
:10024000B3E0E4E4F3E080E0861303C0089585EEB4
:10025000EACF9D9191938F5FF7CF8F929F92AF924C
:10026000BF92CF92DF92EF92FF92CF9320916204E0
:100270003091630482179307E8F54B01AA24BB244D
:10028000C82DC52ED62EE72EFF24BC2DA42F2091DD
:100290006804222361F0829E40011124C92D2C9D07
:1002A00060011124BD2D249FF0011124AF2FE09196
:1002B0006E04E0906904F0906A0430916B04E313DB
:1002C00023C09C01220F331F820F931F8E0D9F1D91
:1002D000E0916B04E80FF92FF11DC083E0916C04ED
:1002E000E80FF92FF11DB08320916D04820F911D4D
:1002F000FC01A083CF91FF90EF90DF90CF90BF9053
:10030000AF909F908F900895880F991F880F991F25
:100310008E0D9F1D472F552766277727222349F0EB
:1003200030E0249F7001259FF00C349FF00C1124C5
:100330004F2DE80FF92FF11D4083CACF089508957E
:100340000895AF92BF92CF92DF92EF92FF920F93F8
:100350001F93CF93DF936C017B018B01040F151F5B
:10036000EB015E01AE18BF08C017D10759F06991C3
:10037000D601ED91FC910190F081E02DC601099527
:10038000892B79F7C501DF91CF911F910F91FF90D4
:10039000EF90DF90CF90BF90AF900895FC01538D08
:1003A000448D252F30E0842F90E0821B930B54174F
:1003B00010F0CF96089501970895FC01918D828DDC
:1003C000981761F0A28DAE0FBF2FB11D5D968C9175
:1003D000928D9F5F9F73928F90E008958FEF9FEFB4
:1003E0000895FC01918D828D981731F0828DE80F70
:1003F000F11D858D90E008958FEF9FEF0895FC012A
:10040000918D228D892F90E0805C9F4F821B9109F6
:100410008F73992708958FEA93E00E94FF0121E0EE
:10042000892B09F420E0822F089580E090E0892B49
:1004300029F00E940B0281110C9400000895FC0128
:10044000A48DA80FB92FB11DA35ABF4F2C91848D35
:1004500090E001968F739927848FA689B7892C9392
:10046000A089B1898C91837080648C93938D848DE5
:10047000981306C00288F389E02D80818F7D8083E8
:100480000895EF92FF920F931F93CF93DF93EC01A8
:1004900081E0888F9B8D8C8D98131AC0E889F9892B
:1004A000808185FF15C09FB7F894EE89FF8960832E
:1004B000E889F98980818370806480839FBF81E0AF
:1004C00090E0DF91CF911F910F91FF90EF900895F1
:1004D000F62E0B8D10E00F5F1F4F0F731127E02ECC
:1004E0008C8D8E110CC00FB607FCFACFE889F98904
:1004F000808185FFF5CFCE010E941F02F1CFEB8DE9
:10050000EC0FFD2FF11DE35AFF4FF0829FB7F894D7
:100510000B8FEA89FB8980818062CFCFCF93DF93F5
:10052000EC01888D8823B9F0AA89BB89E889F9890B
:100530008C9185FD03C0808186FD0DC00FB607FC40
:10054000F7CF8C9185FFF2CF808185FFEDCFCE0173
:100550000E941F02E9CFDF91CF910895833081F08F
:1005600028F4813099F08230A9F008958730A9F0FD
:100570008830C9F08430B1F4809180008F7D03C051
:10058000809180008F7780938000089584B58F7765
:1005900084BD089584B58F7DFBCF8091B0008F77A7
:1005A0008093B00008958091B0008F7DF9CFCF93F4
:1005B000DF93282F30E0F901ED58FF4F8491F901C6
:1005C000E155FF4FD491F901E556FF4FC491CC237B
:1005D000A1F081110E94AE02EC2FF0E0EE0FFF1FA0
:1005E000E957FF4FA591B491EC91ED2381E090E0A4
:1005F00009F480E0DF91CF91089580E090E0FACF98
:100600001F93CF93DF93282F30E0F901ED58FF4F70
:100610008491F901E155FF4FD491F901E556FF4F5F
:10062000C491CC23A9F0162F81110E94AE02EC2FA9
:10063000F0E0EE0FFF1FEF56FF4FA591B4918FB77B
:10064000F894EC91111108C0D095DE23DC938FBF94
:10065000DF91CF911F910895DE2BF8CF10924203C6
:100660001092410310928C031092AE0310928A03F1
:1006700081E0809389031092640361E082E10E942B
:10068000000361E083E10E940003E9EBF0E0808178
:100690008E7F808380818D7F808388E48093B80003
:1006A00085E48093BC008EE991E0909340038093B1
:1006B0003F038FE991E090933E0380933D030895BB
:1006C000CF93DF9390E0FC01E155FF4F24918556D5
:1006D0009F4FFC0184918823D1F090E0880F991FEF
:1006E000FC01E859FF4FA591B491FC01EF56FF4F73
:1006F000C591D49161110EC09FB7F8948C91E22FEF
:10070000E0958E238C932881E223E8839FBFDF91BD
:10071000CF9108958FB7F894EC91E22BEC938FBFB3
:10072000F6CFCF93DF93EC0161E083E00E9460039A
:10073000209731F460E083E0DF91CF910C940003C7
:10074000CF3FD10511F461E0F6CFE6E7F0E0E491A8
:10075000E33029F140F4E130B1F0E230D9F0C038B3
:10076000D1058CF7E7CFE73021F1E83051F1E430E3
:10077000B1F780918000806280938000D0938B00DD
:10078000C0938A0004C084B5806884BDC7BDDF9172
:10079000CF91089584B5806284BDC8BDF8CF8091A3
:1007A0008000806880938000D0938900C093880087
:1007B000EECF8091B00080688093B000C093B3000A
:1007C000E6CF8091B00080628093B000C093B40007
:1007D000DECF3FB7F89480911C0390911D03A09148
:1007E0001E03B0911F0326B5A89B05C02F3F19F02B
:1007F0000196A11DB11D3FBFBA2FA92F982F8827A1
:10080000BC01CD01620F711D811D911D42E0660F7B
:10081000771F881F991F4A95D1F708950F931F934B
:10082000CF93DF93CDB7DEB729970FB6F894DEBF2D
:100830000FBECDBF8091690490916A04892B09F4A1
:1008400067C00E94E90300916F0410917004209129
:10085000710430917204601B710B820B930B6C322C
:1008600071408105910568F3F8948091640490913A
:1008700065049A838983E0916904F0916A04DF0139
:1008800011968081898790916004E0917304F091C2
:10089000740480917504992309F445C09081982BC4
:1008A00098879081809589238F838F818C8388E0BE
:1008B0008B8358856F8149853B812C8189819A8101
:1008C000508347FD252F3A952083262F39F0441F6A
:1008D00000C000006083000000C0F2CF38E04D91FE
:1008E00060830000019761F7F0937404E093730450
:1008F00049873B832C839A83898378940E94E903F8
:1009000060936F04709370048093710490937204E9
:1009100029960FB6F894DEBF0FBECDBFDF91CF9101
:100920001F910F9108959081982B988790818095C1
:1009300089238F838F818E8388E08D8358856F8193
:1009400049853D812E8189819A81508347FD252FDC
:1009500000C000C0208300C000C000C000C000C0B4
:1009600060830000262F3A9541F0441F000000C02C
:1009700000C000C000C000C0E8CF38E04D9100C00A
:10098000608300C0019709F7F0937404E093730447
:1009900049873D832E83AFCF8F929F92AF92BF92B4
:1009A000CF92DF92EF92FF924B015C010E94E9032C
:1009B0006B017C010E94E9036C197D098E099F0976
:1009C000683E734081059105A8F321E0821A9108E1
:1009D000A108B10888EEC80E83E0D81EE11CF11C06
:1009E00081149104A104B10429F7FF90EF90DF90E6
:1009F000CF90BF90AF909F908F9008952FB7F894AD
:100A0000609118037091190380911A0390911B0350
:100A10002FBF08950F931F93CF93DF93EC010E9494
:100A2000FE04688779878A879B87E881F981028439
:100A3000F385E02DCE01099597FF15C00E94FE04B5
:100A4000088519852A853B85601B710B820B930BEA
:100A50000C811D812E813F816017710782079307EA
:100A600020F38FEF9FEFDF91CF911F910F910895AA
:100A700085ED8093BC008091BC0084FDFCCF10927A
:100A80008A0308952091F402260F3327331F213261
:100A90003105ECF420918A03FC0190E080E02430E1
:100AA00069F082E00895A091F4022191AC014C52CA
:100AB0005D4FA40FB52FB11D2C930196861798F3A7
:100AC0008091F402680F6093F40280E0089581E061
:100AD00008950895E091420380914103E81730F4AE
:100AE000F0E0EC5BFC4F808190E008958FEF9FEF8A
:100AF000089590914203809141032FEF3FEF9817A3
:100B000048F4E92FF0E0EC5BFC4F208130E09F5F80
:100B100090934203C901089580914103909142034B
:100B2000891B990B0895CF92DF92EF92FF920F935A
:100B30001F93CF93DF937C01CB018A0120918B031C
:100B4000222389F0EB016B01C40ED51ECC15DD0507
:100B500069F06991D701ED91FC910190F081E02D50
:100B6000C7010995F3CF642F0E944205C801DF91A8
:100B7000CF911F910F91FF90EF90DF90CF9008954C
:100B8000CF93DF931F92CDB7DEB7698320918B039C
:100B90002223F9F02091AE03203258F021E030E01A
:100BA000FC013383228390E080E00F90DF91CF91AE
:100BB000089580918C03E82FF0E0E357FC4F998172
:100BC00090838F5F80938C038093AE0381E090E0ED
:100BD000ECCF61E0CE0101960E944205F7CFCF93A2
:100BE000C62F90914303906221E020938B03909352
:100BF000AD0310928C031092AE03682F8CE494E046
:100C00000E94C0056C2F8CE494E00E94C005CF9137
:100C10000C948E00FC01248131E030938B032093EF
:100C2000AD0310928C031092AE038485682B8CE484
:100C300094E00E94C0050C948E0060933B03709377
:100C40003C0391E090938B038093AD0310928C034F
:100C50001092AE038CE494E00E94C0050C948E00C8
:100C600020912203309123032817390771F49091C2
:100C7000200380912103981741F0E0912003F0E0D8
:100C8000EC56FD4F808190E008958FEF9FEF08951F
:100C9000EF92FF920F931F93CF93DF93DC015C964B
:100CA000ED90FC905D97E114F10479F481E090E01F
:100CB00013969C938E93129790E080E0DF91CF91F2
:100CC0001F910F91FF90EF9008955196ED91FC9137
:100CD000529750968C915097982F90950FB75E969B
:100CE0002C915E97122F127021FD6095F89420814F
:100CF000112319F1282B2083E7012197F1F728E030
:100D0000462F50E0308160FF1AC0382B3083E70156
:100D10002197F1F7BA0175956795215089F711234D
:100D200081F08081892380830FBF5C968D919C9197
:100D30000197F1F781E090E0C1CF2923DCCF39237F
:100D4000E5CF9081892BEFCF2091220330912303AF
:100D50002817390771F4809121032091200390E036
:100D6000805C9F4F821B910960E470E00E948C18A8
:100D7000089590E080E008952091220330912303AC
:100D800028173907B9F4909120038091210398170F
:100D900089F0E0912003F0E0EC56FD4F8081209136
:100DA000200330E02F5F3F4F2F7333272093200322
:100DB00090E008958FEF9FEF089590E080E0089510
:100DC00090914303906221E020938B039093AD03B5
:100DD00010928C031092AE03682F8CE494E00E9472
:100DE000C0050E948E008091430361E080620E94F2
:100DF000EB0010924203809341038CE494E00E9444
:100E000079050895CF93C82F82E10E94E00690E013
:100E100002C095958795CA95E2F78170CF910895A4
:100E2000CF93C82F80E00E94E00641E050E060E0F0
:100E300070E004C0440F551F661F771FCA95D2F794
:100E4000682F642B80E0CF910C94EF05CF93C82FCF
:100E50008CE00E94E00641E050E060E070E004C0F9
:100E6000440F551F661F771FCA95D2F7682F642B52
:100E70008CE0CF910C94EF050F931F93CF938C01CF
:100E8000C62F0E940A066C2F6460C8010E940A06E1
:100E90006C2F6B7FC8010E940A0683EC90E00197DB
:100EA000F1F7CF911F910F9108950F931F93CF9357
:100EB000DF938C01D62FC42F607F642B0E943C07E8
:100EC00080E1D89FB00111246C2BC801DF91CF9134
:100ED0001F910F910C943C07CF93DF93CDB7DEB7F2
:100EE00028970FB6F894DEBF0FBECDBF98E0EBE0B9
:100EF000F1E0DE01119601900D929A95E1F7909143
:100F00007E04981708F48FEF90E0880F991F21E076
:100F100030E02C0F3D1F820F931FFC016081606841
:100F200040E086E794E028960FB6F894DEBF0FBE47
:100F3000CDBFDF91CF910C94550740E061E086E78B
:100F400094E00E9455078BE39FE10197F1F78091B0
:100F50007F04882319F080E00C946C07089541E029
:100F60000E94550781E090E00895FC018081918105
:100F70000C94781920915E0430915F04232B39F48E
:100F800021E0FC018081882361F020E00AC0BC01DF
:100F900080915A0490915B040E94CE1A21E0892B23
:100FA000A1F7822F0895FC0101900020E9F7319705
:100FB000AF01481B590BBC018FEA93E00C94A101CF
:100FC000CF93DF930E94D307EC0189E791E00E9461
:100FD000D3078C0F9D1FDF91CF9108950F931F931F
:100FE000CF93DF938C01EB01FC018081918100970D
:100FF000E1F06881798161157105A9F04281538121
:101000002C813D814217530770F00E94D71A8C81C2
:101010009D81F801958384831D821C82DF91CF918D
:101020001F910F9108950E94781988819981F80184
:10103000918380838A819B81938382838C819D812C
:1010400095838483198218821B821A82E5CF0F93BD
:101050001F93CF93DF93EC0188819981009759F01A
:101060002A813B812617370730F081E0DF91CF914D
:101070001F910F9108958B016F5F7F4F0E94011A9E
:10108000009759F0998388831B830A832C813D81C3
:10109000232B59F7FC011082E8CF80E0E7CFEF92D5
:1010A000FF920F931F93CF93DF93EC017B018A0193
:1010B000BA010E94270828813981811114C02115A5
:1010C000310519F0C9010E947819198218821D8210
:1010D0001C821B821A82CE01DF91CF911F910F914A
:1010E000FF90EF9008951D830C83B701C9010E9402
:1010F000D71AF1CFFC01118210821382128215825D
:101100001482F4E08A359F0769F060915A04709167
:101110005B046115710531F040915E0450915F04EC
:101120000C944F080895FC011182108213821282E0
:1011300015821482FB0101900020E9F73197AF017D
:10114000461B570B0C944F08CF92DF92EF92FF9201
:101150000F931F93CF93DF9300D0CDB7DEB78C01F1
:101160006B016BE771E00E949308C6010E940A05BB
:1011700097FD21C083329105F1F089831A82F8012D
:10118000E480F580FFEFEF1AFF0AB701C8010E9463
:101190002708882351F3F8012081318184819581CA
:1011A000BE016F5F7F4F820F931F0E94D71AF80115
:1011B000F582E482DACFC8010F900F90DF91CF91D2
:1011C0001F910F91FF90EF90DF90CF9008950F93B4
:1011D0001F93CF93DF9300D000D000D0CDB7DEB700
:1011E0008C018FEA93E00E94FF016FEA73E0892B84
:1011F00041F483E894E00E94A406892B01F163E89E
:1012000074E0CE0101960E94A408BE016F5F7F4F7B
:101210008AE594E00E94EE07CE0101960E94B50790
:10122000C8010E947A08C80126960FB6F894DEBF5E
:101230000FBECDBFDF91CF911F910F9108956BE746
:1012400071E0C8010E949308EECFDF92EF92FF9207
:101250000F931F93CF93DF9300D000D000D0CDB772
:10126000DEB78C01FC01E480F580F4E1EF0EF11CA7
:10127000B7010E942708882371F0F801208131818D
:10128000848195816CE771E0820F931F0E94D71AC9
:10129000F801F582E4826BE771E0CE0101960E94CD
:1012A0009308F801E480F580E114F10429F1FFE0EE
:1012B000EF16F10418F08FE0E82EF12CF8016081B0
:1012C0007181FB01EE0DFF1DD0801082611571054B
:1012D000B9F1FB0101900020E9F73197AF01461BFE
:1012E000570BCE0101960E944F08F8018081918131
:1012F000E80EF91EF701D082BE016F5F7F4FC80173
:101300000E94EE07CE0101960E94B50781E00E947F
:101310006C07F801448155816081718186E794E012
:101320000E94A10126960FB6F894DEBF0FBECDBF76
:10133000DF91CF911F910F91FF90EF90DF90089573
:1013400089819A81009711F00E9478191A82198276
:101350001E821D821C821B82C8CFCF93DF9300D0D8
:1013600000D000D0CDB7DEB781E991E00E94E00760
:1013700061E089E00E94000361E08BE00E940003CD
:1013800061E08CE00E94000361E088E00E940003BD
:1013900061E087E00E94000361E086E00E940003B4
:1013A00061E085E00E94000361E08BE00E940003A1
:1013B00081E080933A0365E971E0CE0101960E94D5
:1013C0009308CE0101960E942509CE0101960E9444
:1013D000B50740E05FE060E070E090E080E00E94F0
:1013E0002D0183E00E940207811107C064E670E0CE
:1013F00080E090E00E94CC04F4CF26960FB6F894DB
:10140000DEBF0FBECDBFDF91CF9108958F929F9227
:10141000AF92BF92CF92DF92EF92FF920F931F9302
:10142000CF93DF9300D000D000D0CDB7DEB74B0113
:101430005C010E94FE046B017C0110E000E00E9450
:10144000FE046C197D098E099F09681579058A05C6
:101450009B0508F04FC0CE0101960E94E708BE012F
:101460006F5F7F4F8AE594E00E94EE07CE01019600
:101470000E94B5078BE991E00E94BA078823D1F05A
:101480008EE991E00E94E0070E94AD0980E0269677
:101490000FB6F894DEBF0FBECDBFDF91CF911F9185
:1014A0000F91FF90EF90DF90CF90BF90AF909F9003
:1014B0008F90089581E00E940207811105C00130DC
:1014C000110511F301E010E085E00E940207882376
:1014D00029F087E00E9402078111D6CF83E00E94A5
:1014E0000207882389F264E670E080E090E00E94C1
:1014F000CC04A5CF81E0CBCF8F929F92AF92BF92C9
:10150000CF92DF92EF92FF920F931F93CF93DF93CF
:1015100000D000D000D0CDB7DEB74B015C010E94F7
:10152000FE046B017C0110E000E00E94FE046C19D7
:101530007D098E099F09681579058A059B0508F0C4
:1015400045C0CE0101960E94E708BE016F5F7F4F44
:101550008AE594E00E94EE07CE0101960E94B5074D
:101560008BE991E00E94BA078823D1F08EE991E0DF
:101570000E94E0070E94AD0980E026960FB6F8941D
:10158000DEBF0FBECDBFDF91CF911F910F91FF90B6
:10159000EF90DF90CF90BF90AF909F908F90089585
:1015A00081E00E940207811105C00130110511F38D
:1015B00001E010E083E00E9402078823D9F264E68C
:1015C00070E080E090E00E94CC04AFCF81E0D5CF06
:1015D0001F93CF93DF9300D000D000D0CDB7DEB7FC
:1015E000182F882309F412C186E00E940207811196
:1015F00084C082E00E94020781117FC060EA71E02E
:10160000CE0101960E949308CE0101960E94250901
:10161000CE0101960E94B50710E0812F26960FB6E5
:10162000F894DEBF0FBECDBFDF91CF911F9108951B
:1016300064E670E080E090E0A7C040E05FE06FE02B
:1016400070E090E080E00E942D010E940E0461E0B5
:101650008BE00E9400036AEC71E0CE0101960E94CB
:101660009308CE0101960E942509CE0101960E94A1
:10167000B50760E086E00E94000368E873E180E05F
:1016800090E00E94060A882339F262ED71E0CE01F3
:1016900001960E949308CE0101960E942509CE0171
:1016A00001960E94B50760E088E00E94000360E4B4
:1016B0007CE980E090E00E94060A182F882309F454
:1016C000ABCF61E088E00E94000361E086E00E9409
:1016D00000031092820460E086E794E00E940A060C
:1016E000409164045091650470E060E08091690469
:1016F00090916A040E94C71A86C060E08BE00E9445
:10170000000340E05FE06FE070E090E080E00E9466
:101710002D010E940E0488E08093820460E086E739
:1017200094E00E940A066BED71E0CE0101960E94E2
:101730009308CE0101960E942509CE0101960E94D0
:10174000B50760E087E00E94000368E873E180E08D
:1017500090E00E94060A882309F45ECF60E085E0ED
:101760000E94000360EB71E0CE0101960E94930895
:10177000CE0101960E942509CE0101960E94B5076F
:1017800060E375E780E090E00E94060A882309F490
:1017900043CF86E00E94020781114ACF82E00E9477
:1017A0000207811145CF68E873E180E090E00E9474
:1017B000060A182F882309F42FCF61E087E00E94E2
:1017C000000361E085E00E94000369EB71E0CE0157
:1017D00001960E949308CE0101960E942509CE0130
:1017E00001960E94B50781E00E94020791E08111F5
:1017F00090E09093390340E050E06FE070E090E0BB
:1018000080E00E942D010E940E0407CF84E00E9418
:101810000207811106C080E00E940207882309F4B4
:10182000EDCE85E00E940207882309F406CF62EC22
:1018300071E0CE0101960E949308CE0101960E94AC
:101840002509CE0101960E94B507E7CE1F93CF93DD
:10185000DF9300D000D000D0CDB7DEB7882309F4E5
:10186000E0C087E00E94020763EE71E0882339F050
:1018700081E00E94020781111AC06BEE71E0CE0177
:1018800001960E949308CE0101960E942509CE017F
:1018900001960E94B50710E0812F26960FB6F894A6
:1018A000DEBF0FBECDBFDF91CF911F91089561E0E4
:1018B00089E00E94000340E05FE06FE070E090E0AC
:1018C00080E00E942D010E940E0486E00E94020723
:1018D000811117C082E00E940207811112C08BE0C3
:1018E0000E94D702892BC9F060E08BE00E940003C0
:1018F00060E47CE980E090E00E94060A81110DC05E
:10190000CACF8BE00E94D702892B21F060E08BE0E8
:101910000E94000381E00E94E80A64EF71E0CE01BA
:1019200001960E949308CE0101960E942509CE01DE
:1019300001960E94B50760E08CE00E94000368E514
:1019400072E080E090E00E94CC0461E08CE00E94B4
:10195000000368E97AE380E090E00E947C0A882333
:1019600009F499CF85E00E94020781112CC060ED37
:1019700077E080E090E00E947C0A182F882309F429
:101980008ACF87E00E940207811127C068E072E0D9
:10199000CE0101960E949308CE0101960E9425096E
:1019A000CE0101960E94B50760E089E00E94000325
:1019B00040E050E06FE070E090E080E00E942D0198
:1019C0000E940E0469CF87E00E940207882379F203
:1019D00068EE73E080E090E0C0CF61E089E00E94B3
:1019E000000364E172E0CE0101960E949308CE01EB
:1019F00001960E942509CE0101960E94B50764EF69
:101A000071E080E090E00E94CC0480E00E94E80A4F
:101A100061E08BE00E94000361E089E00E94000326
:101A20003BCF85E01FCFCF93DF9300D000D000D015
:101A3000CDB7DEB76BED71E0CE0101960E94930841
:101A4000CE0101960E942509CE0101960E94B5079C
:101A500060E087E00E94000360E47CE980E090E0C1
:101A60000E94CC0460E272E0CE0101960E949308CD
:101A7000CE0101960E942509CE0101960E94B5076C
:101A800061E087E00E94000326960FB6F894DEBF5F
:101A90000FBECDBFDF91CF910895CF93DF9300D0DC
:101AA00000D000D0CDB7DEB768E272E0CE0101967B
:101AB0000E949308CE0101960E942509CE0101964D
:101AC0000E94B50760E088E00E94000360E47CE9C2
:101AD00080E090E00E94CC0460E372E0CE010196C9
:101AE0000E949308CE0101960E942509CE0101961D
:101AF0000E94B50761E088E00E94000326960FB6B9
:101B0000F894DEBF0FBECDBFDF91CF9108951F9235
:101B10000F920FB60F9211242F933F934F935F9321
:101B20006F937F938F939F93AF93BF93EF93FF93A5
:101B300080912D0390912E03A0912F03B09130033B
:101B4000892B8A2B8B2BD1F190912803E0912903CB
:101B5000F0912A0380818927808380912D039091C1
:101B60002E03A0912F03B0913003181619061A0600
:101B70001B069CF480912D0390912E03A0912F03BE
:101B8000B09130030197A109B10980932D0390937F
:101B90002E03A0932F03B0933003FF91EF91BF91D9
:101BA000AF919F918F917F916F915F914F913F91F5
:101BB0002F910F900FBE0F901F90189580910001EC
:101BC000E2E7F0E0E4919FEF90930001E13051F003
:101BD00030F0E23069F060E00E940003DECF109246
:101BE0006E00F9CF90916F009D7F90936F00F3CFBF
:101BF000909170009D7F9093700091E09093B00061
:101C00009091B100987F94609093B1001092B300CE
:101C1000E2CF1F920F920FB60F9211242F933F9392
:101C20004F935F936F937F938F939F93AF93BF93E4
:101C3000EF93FF938FEA93E00E941F02FF91EF91D1
:101C4000BF91AF919F918F917F916F915F914F91D4
:101C50003F912F910F900FBE0F901F9018951F92DC
:101C60000F920FB60F9211242F938F939F93EF93A0
:101C7000FF93E091BF03F091C0038081E091C50321
:101C8000F091C60382FD1BC090818091C8038F5FD5
:101C90008F732091C903821741F0E091C803F0E0EF
:101CA000E155FC4F958F8093C803FF91EF919F9171
:101CB0008F912F910F900FBE0F901F9018958081DC
:101CC000F4CF1F920F920FB60F9211242F933F93D0
:101CD0008F939F93AF93BF938091180390911903B3
:101CE000A0911A03B0911B033091170323E0230F37
:101CF0002D3758F50196A11DB11D20931703809330
:101D0000180390931903A0931A03B0931B038091B7
:101D10001C0390911D03A0911E03B0911F03019617
:101D2000A11DB11D80931C0390931D03A0931E035E
:101D3000B0931F03BF91AF919F918F913F912F91CE
:101D40000F900FBE0F901F90189526E8230F029654
:101D5000A11DB11DD2CF1F920F920FB60F92112469
:101D60002F933F934F935F936F937F938F939F93A3
:101D7000AF93BF93EF93FF938091B900887F803634
:101D800009F44AC0F0F5883209F4A7C018F580318B
:101D900009F49BC0B8F4882309F4F9C0883009F429
:101DA00094C0FF91EF91BF91AF919F918F917F91DF
:101DB0006F915F914F913F912F910F900FBE0F90B8
:101DC0001F901895883109F488C0803251F78093AC
:101DD000880314C0803409F49DC040F48033B9F303
:101DE0008833F9F68093880385ECB0C0803509F418
:101DF00085C0883509F496C0883499F60E94380564
:101E0000D0CF883909F48CC038F5883729F050F4E0
:101E1000883611F0803729F683E080938A03109288
:101E2000160357C0883809F47BC0803919F0803810
:101E300009F0B7CF80911603803208F071C0E091AD
:101E4000160381E08E0F809316038091BB00F0E0B3
:101E5000EA50FD4F80833DC0803B39F0E0F4803A8A
:101E600009F479C0883A09F09CCF84E080938A0312
:101E70001092F5021092F402E0913F03F0914003BA
:101E800009958091F40281110FC081E08093F402E2
:101E90001092D40209C0803C09F4A6CF883C09F412
:101EA000A3CF883B09F07DCFE091F50281E08E0F52
:101EB0008093F502F0E0EC52FD4F80818093BB00EF
:101EC0009091F5028091F40229C08091650380937E
:101ED000BB0085EC8093BC0064CF90918703809118
:101EE0008603981758F5E091870381E08E0F809361
:101EF0008703F0E0EA59FC4F8081E9CFE091870346
:101F000081E08E0F809387038091BB00F0E0EA5957
:101F1000FC4F808390918703809186039817C8F2C5
:101F200085E8D8CFE091870381E08E0F8093870307
:101F30008091BB00F0E0EA59FC4F808380918903D7
:101F400081115CCF81E08093640384EA8093BC00BC
:101F500010928A0326CF85EC8093BC0010928A03EE
:101F600080911603803230F4E0911603F0E0EA50DD
:101F7000FD4F10826091160370E0E0913D03F091F7
:101F80003E0386EF92E00995109216030ACF109255
:101F9000880334CF1F920F920FB60F9211242F9304
:101FA0003F934F935F936F937F938F939F93AF93E1
:101FB000BF93EF93FF93E0912203F09123033097B7
:101FC00049F0A685B7858585968D91FF14C09C91B3
:101FD0008923A1F4FF91EF91BF91AF919F918F91D0
:101FE0007F916F915F914F913F912F910F900FBE15
:101FF0000F901F9018959C91892361F7A389B4894C
:102000009C918589809589238C93868997890197EE
:10201000F1F7608D718DA685B785558538E020E094
:10202000CB010197F1F7822F90E095958795282FA6
:102030004C91452309F02068315091F7868D81FD40
:1020400020958091210390E001968F73992730911C
:102050002003381799F0A0912103B0E0AC56BD4F92
:102060002C9380932103828D938D0197F1F7A3899F
:10207000B4898C919589892B8C93ACCF868D8160A6
:10208000868FF1CF8F929F92AF92BF920F931F9343
:10209000CF93DF93CDB7DEB7A1970FB6F894DEBF2D
:1020A0000FBECDBF19A2423008F44AE08E010F5D89
:1020B0001F4F842E912CB12CA12CA50194010E94BC
:1020C000A018E62FB901CA01EA30F4F4E05DD801A6
:1020D000EE938D01232B242B252B79F790E080E0C4
:1020E000109719F0CD010E94D307A1960FB6F8946E
:1020F000DEBF0FBECDBFDF91CF911F910F91BF907B
:10210000AF909F908F900895E95CE1CFBC01990F4B
:10211000880B990B4AE00C9442101092B203109273
:10212000B10388EE93E0A0E0B0E08093B303909316
:10213000B403A093B503B093B6032BE331E030931F
:10214000B0032093AF0325EC30E03093BC03209321
:10215000BB0324EC30E03093BE032093BD0320EC9E
:1021600030E03093C0032093BF0321EC30E0309384
:10217000C2032093C10322EC30E03093C4032093C8
:10218000C30326EC30E03093C6032093C5031092BE
:10219000C8031092C9031092CA031092CB03109285
:1021A0004F0410924E048093500490935104A093D6
:1021B0005204B09353042DE431E030934D04209346
:1021C0004C041092860410928504809387049093A7
:1021D0008804A0938904B0938A048BE691E09093DD
:1021E00084048093830410929A04109299041092AC
:1021F0009C0410929B0410929E0410929D041092D5
:10220000A00410929F046091A1046E7F6D7F609383
:10221000A1046695617081E0682782E00E94000356
:1022200061E082E00E946003E1EBF0E0E491E09382
:102230009304EDE9F0E0E491F0E0EE0FFF1FEF56BC
:10224000FF4F85919491909395048093940460E05E
:102250008DE00E9460038091A10481FD04C061E0D3
:102260008DE00E9400038DE080938F04ECEBF0E0A2
:10227000E491E0939004E8EAF0E0E491F0E0EE0FFE
:10228000FF1FE957FF4F859194919093920480939B
:10229000910486E290E0909359048093580484E07E
:1022A00090E0909304018093030190930201809346
:1022B000010110927904109278048FE591E09093D7
:1022C00077048093760410927F0487E280937A04E7
:1022D00084E18093800484E08093810410928204DE
:1022E000109261041092680410926F0410927004AE
:1022F000109271041092720481E080936E048093B6
:102300006B0410926C0492E090936D0480936004CF
:1023100089E090E090936504809364040E94DC1847
:1023200090936A0480936904009709F436C029E009
:10233000FC0111922A95E9F783E090E09093630401
:102340008093620484E090E0909367048093660435
:1023500080916104882341F061E084E00E94600381
:1023600060E084E00E940003EFE9F0E0E491F0E037
:10237000EE0FFF1FEF56FF4F8591949190937404D9
:1023800080937304E3EBF0E0E491E09375046BE772
:1023900071E08AE594E00C94930810926504109221
:1023A00064041092630410926204CCCFCF93DF9345
:1023B00000D000D000D0CDB7DEB7789484B582606D
:1023C00084BD84B5816084BD85B5826085BD85B5D9
:1023D000816085BD80916E00816080936E00109257
:1023E00081008091810082608093810080918100D2
:1023F0008160809381008091800081608093800063
:102400008091B10084608093B1008091B0008160C0
:102410008093B00080917A00846080937A008091EC
:102420007A00826080937A0080917A008160809344
:102430007A0080917A00806880937A001092C100BF
:10244000E091BF03F091C00382E08083E091BF037D
:10245000F091C0031082E091BB03F091BC031082A5
:10246000E091BD03F091BE0380E180831092C70329
:10247000E091C303F091C40386E08083E091C1033F
:10248000F091C203808180618083E091C103F0916B
:10249000C203808188608083E091C103F091C20310
:1024A000808180688083E091C103F091C2038081C4
:1024B0008F7D808310929E0410929D0410929C0444
:1024C00010929B0410929A04109299048DE991E065
:1024D0009093A00480939F0490918F04963108F00C
:1024E00047C02DEB30E030939A04209399042BE9F8
:1024F00031E030939C0420939B042CE231E0309334
:102500009E0420939D042091680084E0983048F058
:1025100031E09E3008F430E081E001C0880F3A9548
:10252000EAF7822B809368002DE630E0983050F077
:102530002BE630E09E3030F02CE630E0963110F0A3
:1025400030E020E03093970420939604292F30E068
:10255000983008F034C281E001C0880F9A95EAF7FC
:102560008093980480919F049091A0040197F1F7C3
:1025700080919D0490919E04892B49F1E091220362
:10258000F091230324E0E338F20709F1309739F0A2
:10259000A389B4899C918589809589238C938091A6
:1025A000A1048E7F8093A104109221031092200336
:1025B00083E894E09093230380932203E0919604B0
:1025C000F0919704808190919804892B80831092D8
:1025D00043030E942E036FEF80E00E94EF056FEF30
:1025E00081E00E94EF056FEF70E0809158049091B8
:1025F00059040E941D06109227031092260361E0E1
:102600008AE00E94000361E08AE00E94600361E0CA
:1026100089E00E94000361E089E00E94600361E0BC
:102620008BE00E94000361E08BE00E94600361E0A8
:102630008CE00E94000361E08CE00E94600361E096
:1026400088E00E94000361E088E00E94600361E08E
:1026500087E00E94000361E087E00E94600361E080
:1026600086E00E94000361E086E00E94600361E072
:1026700085E00E94000361E085E00E94600361E064
:102680008BE00E94000387E00E94100787E00E9411
:10269000260785E00E94100785E00E94260786E055
:1026A0000E94100786E00E94260784E00E9410071F
:1026B00084E00E94260782E00E94100782E00E94C8
:1026C000260780E00E94100780E00E94260783E032
:1026D0000E94100783E00E94260781E00E941007F5
:1026E00060E084E10E94600361E083E00E94600397
:1026F00084E190E00E9491030E942E0310927B04DB
:1027000080918104823018F098E090937B0480934C
:102710007E0462E370E080E090E00E94CC0460916F
:10272000820486E794E00E940A0668EE73E080E087
:1027300090E00E94CC0460E386E794E00E943C07AE
:102740000BE416E4C8010197F1F760E386E794E033
:102750000E943C07C8010197F1F760E386E794E027
:102760000E943C0783E592E00197F1F760E286E77B
:1027700094E00E943C0760917B04606240E086E741
:1027800094E00E94550784E080937C0440E06CE074
:1027900086E794E00E9455070E949D0782E080939F
:1027A0007D0440E066E086E794E00E94550740E043
:1027B00062E086E794E00E9455078BE39FE1019772
:1027C000F1F786E00E94020781110DC082E00E94AD
:1027D0000207811108C088E08093820460E086E7E8
:1027E00094E00E940A0661E472E0CE0101960E9424
:1027F0009308CE0101960E942509CE0101960E9400
:10280000B507809166049091670497FD08C061E068
:102810000E94600360E0809166040E94000381E0F2
:1028200080936104409164045091650470E060E01D
:102830008091690490916A040E94C71A86E00E9400
:102840000207882309F4C8C081E0809339030E94FD
:102850000E0487E00E940207882341F085E00E9471
:102860000207882319F081E080933A0387E00E94F1
:102870000207811108C060E089E00E94000360E067
:102880008BE00E9400030E949D0761E572E0CE018B
:1028900001960E949308CE0101960E942509CE015F
:1028A00001960E94B5076CEAC62E60E0D62E70EC49
:1028B000A72E70E0B72EE8E54E2E512C612C712C1E
:1028C000009126031091270330905804209059045A
:1028D000F801EE0FFF1FE15DFE4F60817181832DD6
:1028E000922D0E941D0657E2852E51E0952EF12C67
:1028F000E12C8091010190910201E816F9060CF09B
:1029000085C061E0832D0E94EB001092420380930A
:1029100041038CE494E00E947905F40141915191C6
:102920004F0120913B0330913C038227932784176A
:10293000950709F067C025E0209FC001219F900DF9
:1029400011248D5E9E4FE80EF91EF7018081082E3E
:10295000000C990B9093250380932403CE010196DC
:102960000E94E708BE016F5F7F4F8AE594E00E94F6
:10297000EE07CE0101960E94B5078BE791E00E9419
:10298000BA07811191C180913A0381110EC284E589
:1029900092E00E94BA07882309F457C181E00E949F
:1029A000E80A86E00E940207811106C082E00E94C8
:1029B0000207882309F45EC18EE991E05DC19E3073
:1029C00040F42850310981E001C0880F2A95EAF7C8
:1029D000C7CD2E503109F7CF82E00E940207811146
:1029E00033CF40E050E06FE070E090E080E00E9484
:1029F0002D0140E05FE060E070E081E090E00E9447
:102A00002D0125CFFFEFEF1AFF0A73CF809124032A
:102A100090912503009799F11092250310922403B9
:102A2000082F882309F49ACF80910001813109F0A1
:102A30003FC0E2E7F0E0149117FDD8C061E081E10A
:102A40000E946003112309F4A2C0123009F0B3C040
:102A50008091B100887F85608093B1008DE880937C
:102A6000B30040922D0350922E0360922F03709278
:102A7000300380917000826080937000B7C06FEF68
:102A800070E0832D922D0E941D060F5F1F4F109343
:102A900027030093260380910301909104010817F6
:102AA000190709F05BCF109227031092260356CF27
:102AB0008F3F09F09BC081E180930001E2E7F0E0E5
:102AC00014911F3F09F492C0113019F150F01230E7
:102AD00009F43CC017FD8AC061E081E10E946003F7
:102AE000B4CF14BC15BC84B5826084BD85B581604B
:102AF00085BDF6018491E82FF0E0EE0FFF1FEF5641
:102B0000FF4F85919491F501849180932C0310E0FF
:102B100095CF109280001092810080918100886092
:102B20008093810080918100816080938100F60113
:102B30008491E82FF0E0EE0FFF1FEF56FF4F8591D5
:102B40009491F501849180932B0378CF1092B0007B
:102B50001092B1008091B00082608093B0008091AB
:102B6000B10081608093B100F6018491E82FF0E01C
:102B7000EE0FFF1FEF56FF4F8591949190932A031C
:102B800080932903F50184918093280357CF85B55D
:102B9000887F846085BD86E487BD4092350350926E
:102BA0003603609237037092380380916E00826022
:102BB00080936E001BC0113061F580918100887F89
:102BC00081608093810084E097E4909389008093F2
:102BD0008800409231035092320360923303709226
:102BE000340380916F00826080936F0068EC70E026
:102BF00080E090E00E94CC0484E190E00E94910388
:102C000081E0013419F0023461F480E00E94260C66
:102C1000A5CE123021F01111E9CF84E0BDCF84E0C0
:102C20001ECF81E0033419F0043421F480E00E94C7
:102C3000E80A94CE0A3219F40E94130D8FCE0332A3
:102C400009F08CCE0E944D0D89CE87E592E00E945E
:102C5000BA07882309F488C080E00E94E80A86E069
:102C60000E940207811106C082E00E9402078823A9
:102C700009F4A2CE89E392E00E94E00785E792E0A2
:102C80000E94BA0760E0811108C088E792E00E94C4
:102C9000BA07882309F4DEC061E089E00E940003DE
:102CA00089E392E00E94E0070091390310E081E09F
:102CB0000E94020780171106E1F081E00E940207DE
:102CC0004FE0849F402D112450E070E060E0BA0195
:102CD0005527442781E090E00E942D010E940E04B8
:102CE00081E00E94020791E0811101C090E0909381
:102CF000390380913A0381110BC085E00E940207DD
:102D0000882331F087E00E94020781110E94AD09FB
:102D100083E00E940207811102C00E94AD0996E47F
:102D200090937C0080917A00806480937A008091F7
:102D30007A0086FDFCCF90917800809179008927F8
:102D4000982789278C32914014F40E94130D80E05B
:102D500090E0892B09F4B4CD0E940B02882309F47A
:102D6000AFCD0E940000ACCD8AE592E00E94BA0788
:102D7000882329F081E00E94260C87E018CE8DE59B
:102D800092E00E94BA07882329F080E00E94260C76
:102D900085E00DCE80E692E00E94BA07882309F410
:102DA0006DCF81E080933A0369CF83E692E00E9481
:102DB000BA07882319F010923A0360CF86E692E0B2
:102DC0000E94BA0760E0811107C089E692E00E9484
:102DD000BA07882329F061E08BE00E9400034ECF00
:102DE0008CE692E00E94BA07882369F060E08CE0EC
:102DF0000E94000368E572E080E090E00E94CC044D
:102E000061E08CE0EACF8FE692E00E94BA07882367
:102E100069F060E085E00E94000360E47CE980E006
:102E200090E00E94CC0461E085E0D7CF82E792E099
:102E30000E94BA07882309F421CF60E086E00E944F
:102E4000000360E47CE980E090E00E94CC0461E053
:102E500086E0C3CF8BE792E00E94BA07882371F027
:102E600086E00E940207811106C082E00E940207EC
:102E7000882309F415CF8EE991E014CF8EE792E014
:102E80000E94BA07882331F085E00E940207811171
:102E900007CFF1CF81E892E00E94BA07882331F092
:102EA00089E00E94D702892B31F7FACE84E892E0BC
:102EB0000E94BA07882319F00E944D0DDCCF87E8E5
:102EC00092E00E94BA07882319F00E94130DD3CF15
:102ED0008AE892E00E94BA07882379F060E08AE0ED
:102EE0000E94000368EE73E080E090E00E94CC0452
:102EF00061E08AE00E940003D7CE8BE991E00E9456
:102F0000BA07882339F08EE991E00E94E0070E9419
:102F1000AD09CACE8DE892E00E94BA07882351F02D
:102F200080913A03882319F08BE392E0BBCE8DE3C6
:102F300092E0B8CE80E992E00E94BA07882309F4B3
:102F4000B3CE85E00E94020721E030E0882311F033
:102F500030E020E0C9010E94861087E00E9402074D
:102F600021E030E0882311F030E020E0C9010E9428
:102F7000861084E00E940207811104C00E940207AB
:102F800091E0811190E0892F90E00E94861086E008
:102F90000E940207811105C082E00E94020791E0B1
:102FA000811190E0892F90E00E94861089E00E94B4
:102FB000D70221E030E0892B11F030E020E0C90198
:102FC0000E94861081E00E94020781113CC080ECC3
:102FD00091E00E94D30780913A03882319F08BE394
:102FE00092E002C08DE392E00E94E00784E00E943C
:102FF0000207682F70E090E080E04AE00E944210F3
:1030000080E00E940207682F70E090E080E04AE0D4
:103010000E94421086E00E940207682F70E090E054
:1030200080E04AE00E94421082E00E940207682F7E
:1030300070E090E080E04AE00E94421089E791E071
:103040000E94D30731CE8FE392E0C3CF8AE594E0AC
:103050000E94B5078091690490916A040E947819D2
:10306000809166049091670497FD03C060E00E9420
:1030700060038BE691E090938404809383048091B5
:103080002203909123038358944071F4E0919604B5
:10309000F091970490818091980480958923808392
:1030A000109223031092220308952F923F924F9281
:1030B0005F926F927F928F929F92AF92BF92CF92C8
:1030C000DF92EF92FF920F931F93CF93DF93CDB7D1
:1030D000DEB7CA1BDB0B0FB6F894DEBF0FBECDBF49
:1030E00009942A88398848885F846E847D848C841A
:1030F0009B84AA84B984C884DF80EE80FD800C8123
:103100001B81AA81B981CE0FD11D0FB6F894DEBF05
:103110000FBECDBFED01089597FB072E16F4009466
:1031200007D077FD09D00E94C21807FC05D03EF4F5
:10313000909581959F4F0895709561957F4F089563
:10314000A1E21A2EAA1BBB1BFD010DC0AA1FBB1FAB
:10315000EE1FFF1FA217B307E407F50720F0A21B1D
:10316000B30BE40BF50B661F771F881F991F1A948A
:1031700069F760957095809590959B01AC01BD01B4
:10318000CF010895AA1BBB1B51E107C0AA1FBB1F9B
:10319000A617B70710F0A61BB70B881F991F5A95E3
:1031A000A9F780959095BC01CD010895EE0FFF1F02
:1031B0000590F491E02D09940F931F93CF93DF9323
:1031C0008230910510F482E090E0E091A404F09147
:1031D000A50430E020E0B0E0A0E0309799F421159C
:1031E000310509F44AC0281B390B24303105D8F5C4
:1031F0008A819B816115710589F1FB01938382832B
:10320000FE0111C040815181028113814817590785
:10321000E0F04817590799F4109761F012960C9353
:10322000129713961C933296CF01DF91CF911F9185
:103230000F9108950093A4041093A504F4CF2115D1
:10324000310551F04217530738F0A901DB019A010B
:10325000BD01DF01F801C1CFEF01F9CF9093A504C3
:103260008093A404CDCFFE01E20FF31F81939193CD
:103270002250310939832883D7CF2091A20430917D
:10328000A304232B41F420910701309108013093CE
:10329000A3042093A2042091050130910601211579
:1032A000310541F42DB73EB74091090150910A0113
:1032B000241B350BE091A204F091A304E217F3075D
:1032C000A0F42E1B3F0B2817390778F0AC014E5F96
:1032D0005F4F2417350748F04E0F5F1F5093A3042C
:1032E0004093A204819391939FCFF0E0E0E09CCFC4
:1032F000CF93DF930097E9F0FC013297138212829B
:10330000A091A404B091A504ED0130E020E0109755
:10331000A1F420813181820F931F2091A20430916A
:10332000A3042817390709F061C0F093A304E093C0
:10333000A204DF91CF910895EA01CE17DF07E8F5E7
:103340004A815B819E0141155105B1F7E901FB837B
:10335000EA8349915991C40FD51FEC17FD0761F419
:10336000808191810296840F951FE901998388835A
:10337000828193819B838A83F0E0E0E012968D91B5
:103380009C9113970097B9F52D913C911197CD0120
:103390000296820F931F2091A2043091A304281754
:1033A000390739F6309751F51092A5041092A4040C
:1033B000B093A304A093A204BCCFD383C283408163
:1033C0005181840F951FC817D90761F44E5F5F4F75
:1033D00088819981480F591F518340838A819B813D
:1033E000938382832115310509F0B0CFF093A504B2
:1033F000E093A4049ECFFD01DC01C0CF13821282B2
:10340000D7CFB0E0A0E0E7E0FAE10C9457188C01C8
:10341000009751F4CB010E94DC188C01C801CDB794
:10342000DEB7E0E10C947318FC01E60FF71F9C0176
:1034300022503109E217F30708F49DC0D901CD915C
:10344000DC911197C617D70798F0C530D10530F336
:10345000CE0104978617970708F3C61BD70B229750
:10346000C193D1936D937C93CF010E947819D6CFED
:103470005B01AC1ABD0A4C018C0E9D1EA091A404E8
:10348000B091A504512C412CF12CE12C109731F571
:103490008091A2049091A3048815990509F05CC05D
:1034A0004616570608F058C0809105019091060114
:1034B000009741F48DB79EB74091090150910A01E0
:1034C000841B950BE817F90708F055C0F093A30487
:1034D000E093A204F90171836083A0CF8D919C9148
:1034E000119712966C90129713967C901397A815CB
:1034F000B90559F56C0142E0C40ED11CCA14DB04B5
:1035000020F1AC014A195B09DA011296159780F097
:103510006282738251834083D9016D937C93E1145D
:10352000F10471F0D7011396FC93EE93129776CFC6
:1035300022968C0F9D1FF90191838083F301EFCFB9
:10354000F093A504E093A40469CF4816590608F443
:103550002C017D01D3019ACFCB010E94DC187C01A4
:10356000009749F0AE01B8010E94BE1AC8010E943E
:103570007819870153CF10E000E050CFFB01DC0148
:1035800002C001900D9241505040D8F70895DC01DF
:1035900001C06D9341505040E0F70895FB01DC01FC
:1035A0008D91019080190110D9F3990B0895FB01B9
:1035B000DC0101900D920020E1F7089510E0C3E6D0
:1035C000D0E004C0FE010E94D6182196C436D1076F
:0635D000C9F7F894FFCFDB
:1035D600FF030004000000A6048000000040001461
:1035E6000054003132334100343536420037383921
:1035F60043002A302344001000200040008000FED3
:1036060000FD00FB00F700000000004102A101CE12
:10361600018E02FF01DD01F10100000000C00593EB
:1036260005DD0669058C0579056A0500000000AF11
:1036360007A101DD06A001000000004806A101DD8A
:10364600066905A406BC0630060D0A0020202020C7
:103656002020202020202020202020202020202064
:10366600004152550041525520210041550030007D
:1036760045727265757220706F736974696F6E003A
:10368600503132204F2E2E2E00503132204F706591
:103696006E0045727220504F7300503220462E2E17
:1036A6002E0050313220462E2E2E005031204F2E25
:1036B6002E2E0045727220504F53004572722050D4
:1036C60041726B004465706C6163656D656E742054
:1036D600616272692E2E2E0041627269206F7576C4
:1036E6006572740041627269206665726DC3A900D5
:1036F6005031204F50454E00503120462E2E2E0080
:10370600503120436C6F73650031006D00610070AD
:103716000044656D6172726167652E2E2E20202031
:10372600004F6B00502B00502D00442B00442D0001
:103736004D41004F4B006D2B006D2D00646400322F
:103746002B00322D00412B00412D00503F00443FFD
:1037560000413F00702D00702B005043004D3F008C
:04376600433F0000DD
:00000001FF
