:100000000C9464000C948C000C948C000C94B7132A
:100010000C94B7130C94B7130C948C000C947411BB
:100020000C948C000C948C000C948C000C948C0020
:100030000C948C000C948C000C948C000C948C0010
:100040000C944E120C948C000C941C120C94F6110F
:100050000C948C000C948C000C948C000C948C00F0
:100060000C9498120C948C000000000024002700CF
:100070002A0002000000080002010000030407003B
:1000800000000000000000000000002300260029FE
:100090000000000000250028002B000404040404D4
:1000A0000404040202020202020303030303030125
:1000B00002040810204080010204081020010204FC
:1000C000081020002F14AA1E11241FBECFEFD8E065
:1000D000DEBFCDBF26E0A0E1B3E001C01D92A53890
:1000E000B207E1F713E0A0E0B1E0E0E5F3E402C01D
:1000F00005900D92A031B107D9F710E0C3E6D0E02A
:1001000004C02197FE010E94781FC236D107C9F7AB
:100110000E94E3150C949B210C9400008F929F92F7
:10012000AF92BF92CF92DF92EF92FF920F931F9305
:10013000FC014B01AA24BB24C52ED62EE72EFF249A
:10014000BC2DA42F90914706B82C992391F0A92F8C
:10015000B0E0A89D9001A99D300DB89D300D1124EF
:10016000B32E9C9D60011124BD2D949F800111240C
:10017000A12F40914D06209148063091490680916B
:100180004A06481324C0CF01880F991F8E0F9F1F66
:10019000820F931FE0914A06E80FF92FF11DB082FC
:1001A000E0914B06E80FF92FF11DB08320914C062A
:1001B000820F911DFC01A0831F910F91FF90EF9082
:1001C000DF90CF90BF90AF909F908F900895CF0118
:1001D000880F991F880F991F820F931FFC01E40F4E
:1001E000F11D1082D7CF20911D0481E0213208F04B
:1001F00044C08091F9038111FCCF80911C0492E0EE
:100200009093F90391E09093F8039FEF9093F70395
:100210001092F6032093F503ACEFB3E0E5EDF3E0C5
:1002200090E0291331C01092D4039091D403880F29
:10023000892B8093D4038091D303813049F51092A8
:10024000D3038091D4038093BB008091BC0083FDD5
:10025000F8CF85EC8093BC008091F9038230E1F304
:100260008091F7038F3FB1F08091F7038032A1F0C6
:100270008091F703803391F084E01092FB03109299
:100280001D041092FA0308953D9131939F5FC9CFE9
:1002900085EEE0CF80E0F1CF82E0EFCF83E0EDCFDD
:1002A0009091F9039111FCCF91E09093F903909311
:1002B000F8032FEF2093F7031092F603260F2093F5
:1002C000F5039093D4039091D403880F892B8093E6
:1002D000D4038091D3038130F9F41092D303809139
:1002E000D4038093BB008091BC0083FDF8CF85ECE4
:1002F0008093BC008091F9038130E1F38091F60393
:10030000861710F46091F603A5EDB3E0E3EBF3E09C
:1003100080E0861303C0089585EEEACF9D91919306
:100320008F5FF7CF0895089508950895AF92BF9213
:10033000CF92DF92EF92FF920F931F93CF93DF93B1
:100340006C017B018B01040F151FEB015E01AE18E0
:10035000BF08C017D10759F06991D601ED91FC9102
:100360000190F081E02DC6010995892B79F7C5012F
:10037000DF91CF911F910F91FF90EF90DF90CF9081
:10038000BF90AF900895FC01538D448D252F30E030
:10039000842F90E0821B930B541710F0CF96089592
:1003A00001970895FC01918D828D981761F0A28DBF
:1003B000AE0FBF2FB11D5D968C91928D9F5F9F7385
:1003C000928F90E008958FEF9FEF0895FC01918D3B
:1003D000828D981731F0828DE80FF11D858D90E0A8
:1003E00008958FEF9FEF0895FC01918D228D892F45
:1003F00090E0805C9F4F821B91098F73992708952D
:100400008CE095E00E94F40121E0892B09F420E0C2
:10041000822F089580E090E0892B29F00E9400024D
:1004200081110C9400000895FC01A48DA80FB92F30
:10043000B11DA35ABF4F2C91848D90E001968F730C
:100440009927848FA689B7892C93A089B1898C912B
:10045000837080648C93938D848D981306C002887A
:10046000F389E02D80818F7D80830895EF92FF9244
:100470000F931F93CF93DF93EC0181E0888F9B8DC7
:100480008C8D98131AC0E889F989808185FF15C081
:100490009FB7F894EE89FF896083E889F9898081A4
:1004A0008370806480839FBF81E090E0DF91CF9173
:1004B0001F910F91FF90EF900895F62E0B8D10E095
:1004C0000F5F1F4F0F731127E02E8C8D8E110CC004
:1004D0000FB607FCFACFE889F989808185FFF5CF4F
:1004E000CE010E941402F1CFEB8DEC0FFD2FF11D18
:1004F000E35AFF4FF0829FB7F8940B8FEA89FB898C
:1005000080818062CFCFCF93DF93EC01888D8823E9
:10051000B9F0AA89BB89E889F9898C9185FD03C066
:10052000808186FD0DC00FB607FCF7CF8C9185FF4B
:10053000F2CF808185FFEDCFCE010E941402E9CF7A
:10054000DF91CF910895833081F028F4813099F0C4
:100550008230A9F008958730A9F08830C9F084303E
:10056000B1F4809180008F7D03C0809180008F77EF
:1005700080938000089584B58F7784BD089584B5F5
:100580008F7DFBCF8091B0008F778093B00008956E
:100590008091B0008F7DF9CFCF93DF93282F30E08B
:1005A000F901ED58FF4F8491F901E155FF4FD491C6
:1005B000F901E556FF4FC491CC23A1F081110E94AF
:1005C000A302EC2FF0E0EE0FFF1FE957FF4FA591BC
:1005D000B491EC91ED2381E090E009F480E0DF91AB
:1005E000CF91089580E090E0FACF1F93CF93DF93EF
:1005F000282F30E0F901ED58FF4F8491F901E155C2
:10060000FF4FD491F901E556FF4FC491CC23A9F0D7
:10061000162F81110E94A302EC2FF0E0EE0FFF1FB6
:10062000EF56FF4FA591B4918FB7F894EC9111114B
:1006300008C0D095DE23DC938FBFDF91CF911F914F
:100640000895DE2BF8CF1092B1031092B0031092F0
:10065000FB0310921D041092F90381E08093F803CC
:100660001092D30361E082E10E94F50261E083E130
:100670000E94F502E9EBF0E080818E7F808380812B
:100680008D7F808388E48093B80085E48093BC00EC
:1006900082E991E09093AF038093AE0383E991E008
:1006A0009093AD038093AC030895CF93DF9390E0D4
:1006B000FC01E155FF4F249185569F4FFC01849129
:1006C0008823D1F090E0880F991FFC01E859FF4F73
:1006D000A591B491FC01EF56FF4FC591D4916111E2
:1006E0000EC09FB7F8948C91E22FE0958E238C93E7
:1006F0002881E223E8839FBFDF91CF9108958FB7D0
:10070000F894EC91E22BEC938FBFF6CFCF93DF936D
:10071000EC0161E083E00E945503209731F460E032
:1007200083E0DF91CF910C94F502CF3FD10511F416
:1007300061E0F6CFE6E7F0E0E491E33029F140F440
:10074000E130B1F0E230D9F0C038D1058CF7E7CF15
:10075000E73021F1E83051F1E430B1F780918000C9
:10076000806280938000D0938B00C0938A0004C085
:1007700084B5806884BDC7BDDF91CF91089584B5ED
:10078000806284BDC8BDF8CF80918000806880936E
:100790008000D0938900C0938800EECF8091B00094
:1007A00080688093B000C093B300E6CF8091B00022
:1007B00080628093B000C093B400DECF3FB7F8945E
:1007C0008091990390919A03A0919B03B0919C030F
:1007D00026B5A89B05C02F3F19F00196A11DB11D9C
:1007E0003FBFBA2FA92F982F8827BC01CD01620FD8
:1007F000711D811D911D42E0660F771F881F991F93
:100800004A95D1F708950F931F93CF93DF93CDB7F8
:10081000DEB729970FB6F894DEBF0FBECDBF80912B
:10082000480690914906892B09F467C00E94DE03AF
:1008300000914E0610914F062091500630915106BE
:10084000601B710B820B930B6C327140810591051B
:1008500068F3F89480914306909144069A838983C3
:10086000E0914806F0914906DF0111968081898761
:1008700090913F06E0915206F09153068091540604
:10088000992309F445C09081982B98879081809591
:1008900089238F838F818C8388E08B8358856F8138
:1008A00049853B812C8189819A81508347FD252F81
:1008B0003A952083262F39F0441F00C00000608342
:1008C000000000C0F2CF38E04D9160830000019736
:1008D00061F7F0935306E093520649873B832C83DC
:1008E0009A83898378940E94DE0360934E06709306
:1008F0004F06809350069093510629960FB6F894B0
:10090000DEBF0FBECDBFDF91CF911F910F91089534
:100910009081982B98879081809589238F838F81F0
:100920008E8388E08D8358856F8149853D812E8136
:1009300089819A81508347FD252F00C000C0208304
:1009400000C000C000C000C000C060830000262FAF
:100950003A9541F0441F000000C000C000C000C034
:1009600000C0E8CF38E04D9100C0608300C001971F
:1009700009F7F0935306E093520649873D832E838F
:10098000AFCF8F929F92AF92BF92CF92DF92EF92B2
:10099000FF924B015C010E94DE036B017C010E940F
:1009A000DE036C197D098E099F09683E734081053D
:1009B0009105A8F321E0821A9108A108B10888EEF8
:1009C000C80E83E0D81EE11CF11C81149104A1041F
:1009D000B10429F7FF90EF90DF90CF90BF90AF90D8
:1009E0009F908F9008954F925F926F927F928F9217
:1009F0009F92AF92BF92EF92FF920F931F93CF936C
:100A00008C017B0180910B018131D1F08F3F09F482
:100A10003EC068EC70E080E090E00E94C10484E198
:100A200090E0CF911F910F91FF90EF90BF90AF900A
:100A30009F908F907F906F905F904F900C94860363
:100A4000E2E7F0E0C491C7FDE4CF61E081E10E94FC
:100A50005503C11132C02801012E000C6608770829
:100A600062E17AE780E090E0A30192010E94591FC1
:100A700049015A0181E0881A9108A108B10896E05D
:100A8000C1113BC085B5887F846085BDABC081E165
:100A900080930B01E2E7F0E0C491CF3F09F4B9CFB6
:100AA000C13009F44AC080F1C23009F464C0C7FD06
:100AB000B0CF61E081E10E9455039801012E000C46
:100AC000440B550BC23009F078C029013A0164E2A9
:100AD00074EF80E090E00E94591F49015A0181E0C3
:100AE000881A9108A108B10895E08FEF8816910443
:100AF000A104B10411F00CF0B3CF8091B100887F54
:100B0000892B8093B1006EC014BC15BC84B5826083
:100B100084BD85B5816085BDECEAF0E0E491F0E04C
:100B2000EE0FFF1FEF56FF4F85919491E0ECF0E040
:100B3000E491E0932204C0E088CF109280001092EC
:100B40008100809181008860809381008091810084
:100B5000816080938100ECEAF0E0E491F0E0EE0F38
:100B6000FF1FEF56FF4F85919491E0ECF0E0E49188
:100B7000E09321046ACF1092B0001092B1008091EE
:100B8000B00082608093B0008091B100816080935A
:100B9000B100ECEAF0E0E491F0E0EE0FFF1FEF5659
:100BA000FF4F859194919093200480931F04E0EC73
:100BB000F0E0E491E0931E0448CF60E072E18AE740
:100BC00090E00E94591F49015A0181E0881A91085A
:100BD000A108B108C13031F480918100887F816023
:100BE000809381009801220F331FD7010E947E1F3E
:100BF00028EE33E040E050E00E94371FC13099F00A
:100C0000C23019F1C11105CF87BC20932B0430935A
:100C10002C0440932D0450932E0480916E0082602A
:100C200080936E00F6CE9092890080928800209387
:100C30002704309328044093290450932A04809178
:100C40006F00826080936F00E4CE8092B3002093A7
:100C50002304309324044093250450932604809168
:100C60007000826080937000D4CE2FB7F8946091AA
:100C700095037091960380919703909198032FBFED
:100C800008950F931F93CF93DF93EC010E943506D5
:100C9000688779878A879B87E881F9810284F38551
:100CA000E02DCE01099597FF15C00E9435060885F5
:100CB00019852A853B85601B710B820B930B0C8178
:100CC0001D812E813F81601771078207930720F3F2
:100CD0008FEF9FEFDF91CF911F910F91089585EDD9
:100CE0008093BC008091BC0084FDFCCF1092F9037E
:100CF000089520917103260F3327331F21323105C8
:100D0000ECF42091F903FC0190E080E0243069F0DC
:100D100082E00895A09171032191AC014F5A5C4F7C
:100D2000A40FB52FB11D2C930196861798F38091CF
:100D30007103680F6093710380E0089581E0089566
:100D40000895E091B1038091B003E81730F4F0E02A
:100D5000ED54FC4F808190E008958FEF9FEF089550
:100D60009091B1038091B0032FEF3FEF981748F4B3
:100D7000E92FF0E0ED54FC4F208130E09F5F90932D
:100D8000B103C90108958091B0039091B103891B0B
:100D9000990B0895CF92DF92EF92FF920F931F93DA
:100DA000CF93DF937C01CB018A012091FA032223A8
:100DB00089F0EB016B01C40ED51ECC15DD0569F081
:100DC0006991D701ED91FC910190F081E02DC7016F
:100DD0000995F3CF642F0E947906C801DF91CF9166
:100DE0001F910F91FF90EF90DF90CF900895CF93D8
:100DF000DF931F92CDB7DEB769832091FA032223D8
:100E0000F9F020911D04203258F021E030E0FC017F
:100E10003383228390E080E00F90DF91CF9108959B
:100E20008091FB03E82FF0E0E450FC4F9981908320
:100E30008F5F8093FB0380931D0481E090E0ECCFF3
:100E400061E0CE0101960E947906F7CFCF93C62FBD
:100E50009091B203906221E02093FA0390931C04D6
:100E60001092FB0310921D04682F8FE294E00E9401
:100E7000F7066C2F8FE294E00E94F706CF910C9456
:100E8000F300FC01248131E03093FA0320931C0429
:100E90001092FB0310921D048485682B8FE294E06E
:100EA0000E94F7060C94F3006093AA037093AB03BF
:100EB00091E09093FA0380931C041092FB0310922C
:100EC0001D048FE294E00E94F7060C94F300209139
:100ED0009F033091A0032817390771F490919D0367
:100EE00080919E03981741F0E0919D03F0E0EF5E42
:100EF000FC4F808190E008958FEF9FEF0895EF926F
:100F0000FF920F931F93CF93DF93DC015C96ED90DC
:100F1000FC905D97E114F10479F481E090E0139680
:100F20009C938E93129790E080E0DF91CF911F9178
:100F30000F91FF90EF9008955196ED91FC9152978B
:100F400050968C915097982F90950FB75E962C9154
:100F50005E97122F127021FD6095F8942081112365
:100F600019F1282B2083E7012197F1F728E0462F7C
:100F700050E0308160FF1AC0382B3083E7012197A1
:100F8000F1F7BA0175956795215089F7112381F022
:100F90008081892380830FBF5C968D919C910197FE
:100FA000F1F781E090E0C1CF2923DCCF3923E5CFF1
:100FB0009081892BEFCF20919F033091A0032817B8
:100FC000390771F480919E0320919D0390E0805C2D
:100FD0009F4F821B910960E470E00E94231F0895D7
:100FE00090E080E0089520919F033091A00328179E
:100FF0003907B9F490919D0380919E03981789F069
:10100000E0919D03F0E0EF5EFC4F808120919D0315
:1010100030E02F5F3F4F2F73332720939D0390E0E5
:1010200008958FEF9FEF089590E080E008958F92EC
:101030009F92AF92BF92FF920F931F93CF93DF9334
:10104000982F990F990F990F24E0F22EF90E98E03E
:10105000899FE00111242B96469F002D112410E05A
:1010600030E020E048015901A62A322F212F102F0D
:101070000027802A912AA22AB32A8F2D90E0C81730
:10108000D9077CF0209141063091420682179307E0
:1010900020F4B501A4010E948E000E940304F39481
:1010A000ECCFDF91CF911F910F91FF90BF90AF9048
:1010B0009F908F9008950F93362FE42F90E04091EA
:1010C0004106509142068417950740F4422F50E0A4
:1010D00070E060E05E2B632B0E948E00002319F00D
:1010E0000F910C9403040F9108950F9301E020E0F9
:1010F00040E060E080E00E945B08109210030F91D6
:1011000008950F93CF93DF9301E02FE04FE06FE05E
:1011100080E00E945B0880911003811115C08091CE
:10112000F3049091F4040A9764F4E1E7F4E0D0E06A
:10113000C0E081919191892B59F02196CA30D10557
:10114000C1F781E080931003DF91CF910F91089553
:10115000FE01EE0FFF1FEE0FFF1FEB57FB4F80E36B
:1011600095E7A0E0B0E080839183A283B383FE0182
:10117000EE0FFF1FEF58FB4F85E798E091838083C8
:10118000FE01EE0FFF1FE355FB4F81E090E09183DE
:101190008083FE01EB52FB4F80830E943506CC0F0B
:1011A000DD1FCC0FDD1FC75BDB4F688379838A832C
:1011B0009B838091F3049091F40401969093F4043E
:1011C0008093F304BECF9091B203906221E020930C
:1011D000FA0390931C041092FB0310921D04682FD5
:1011E0008FE294E00E94F7060E94F3008091B20320
:1011F00061E080620E9450011092B1038093B003BD
:101200008FE294E00E94B0060895CF93C82FC77074
:10121000883060F083E10E94E30890E002C0959579
:101220008795CA95E2F78170CF91089582E1F3CF57
:10123000CF93DF93C82FD1E0883008F4D0E08D2F12
:101240000E94E308C77041E050E060E070E004C035
:10125000440F551F661F771FCA95D2F7682F642B5E
:101260008D2FDF91CF910C942607CF93DF93C82F5A
:10127000DDE0883008F4DCE08D2F0E94E308C770C1
:1012800041E050E060E070E004C0440F551F661F6D
:10129000771FCA95D2F7682F642B8D2FDF91CF91DE
:1012A0000C942607CF92DF92EF92FF920F931F9339
:1012B000CF93DF93C091A803D091A903F0903B0492
:1012C000E0903C04FE01EE0FFF1FE65CFE4F6081E4
:1012D00071818F2D9E2D0E94540792E3C92E91E0BB
:1012E000D92E10E000E080910C0190910D010817BB
:1012F000190784F561E08F2D0E9450011092B1030F
:101300008093B0038FE294E00E94B006F601419111
:1013100051916F012091AA033091AB03822793274B
:1013200084179507A1F485E08C9FF0018D9FF00D47
:101330001124E25EFE4FE00FF11F8081082E000CA9
:10134000990B9093A7038093A60380E00DC00F5FD5
:101350001F4FC9CF8091A6039091A703009769F012
:101360001092A7031092A603DF91CF911F910F91C6
:10137000FF90EF90DF90CF9008956FEF70E08F2D8A
:101380009E2D0E9454072196D093A903C093A803D1
:1013900080910E0190910F01C817D907B1F61092F4
:1013A000A9031092A803D1CF0F931F93CF938C0161
:1013B000C62F0E9441076C2F6460C8010E9441073C
:1013C0006C2F6B7FC8010E94410783EC90E001976E
:1013D000F1F7CF911F910F9108950F931F93CF9322
:1013E000DF938C01D62FC42F607F642B0E94D40919
:1013F00080E1D89FB00111246C2BC801DF91CF91FF
:101400001F910F910C94D409CF93DF93CDB7DEB722
:1014100028970FB6F894DEBF0FBECDBF98E0E6E187
:10142000F1E0DE01119601900D929A95E1F790910D
:101430005D06961710F46FEF690F262F30E0220F2C
:10144000331F41E050E04C0F5D1F240F351FF901A1
:101450006081680F606840E085E596E028960FB6E9
:10146000F894DEBF0FBECDBFDF91CF910C94ED0994
:1014700040E061E085E596E00E94ED098BE39FE1A5
:101480000197F1F780915E06882321F060E080E00B
:101490000C94040A089541E00E94ED0981E090E077
:1014A0000895CF93DF93EC0188819981009711F023
:1014B0000E943520198218821D821C821B821A828A
:1014C000DF91CF910895FC01808191810C943520AA
:1014D0001092610660E085E596E00E944107EFE327
:1014E000F6E04481558170E060E0818592850E943C
:1014F00084210E94030461E08BE00E94F50261E018
:1015000089E00E94F50281E08093A10380930701A6
:1015100008952091410430914204232B39F421E0B5
:10152000FC018081882361F020E00AC0BC01809129
:101530003D0490913E040E948B2121E0892BA1F76C
:10154000822F08956115710579F0FB01019000204B
:10155000E9F73197AF01461B570BDC01ED91FC9188
:101560000280F381E02D099490E080E008958F924D
:101570009F92AF92BF92EF92FF920F931F93CF93E0
:10158000DF93CDB7DEB7A1970FB6F894DEBF0FBEDD
:10159000CDBF7C01FA01CB0119A2223008F42AE068
:1015A0008E010F5D1F4F822E912CB12CA12CBF01FB
:1015B000A50194010E94371FF901CA016A30ECF4B9
:1015C000605DD8016E938D01232B242B252B79F799
:1015D000BD01C7010E94A20AA1960FB6F894DEBF12
:1015E0000FBECDBFDF91CF911F910F91FF90EF9074
:1015F000BF90AF909F908F900895695CE2CF462F87
:1016000050E070E060E02AE00C94B70AAB01770F7D
:10161000660B770B2AE00C94B70A0C94A20A42E0FE
:1016200050E064E871E08CE095E00C949601CF9373
:10163000DF93BC018CE095E00E94A20AEC010E94BD
:101640000F0B8C0F9D1FDF91CF910895CF93DF93E8
:10165000FC0144815581608171818CE095E00E949C
:101660009601EC010E940F0B8C0F9D1FDF91CF9113
:1016700008950F931F93CF93DF938C01EB01FC012F
:10168000808191810097E1F0688179816115710510
:10169000A9F0428153812C813D814217530770F09C
:1016A0000E9494218C819D81F801958384831D8201
:1016B0001C82DF91CF911F910F9108950E943520D8
:1016C00088819981F801918380838A819B819383AA
:1016D00082838C819D8195838483198218821B82E9
:1016E0001A82E5CF0F931F93CF93DF93EC0188818C
:1016F0009981009759F02A813B812617370730F0EE
:1017000081E0DF91CF911F910F9108958B016F5F61
:101710007F4F0E94BE20009759F0998388831B83D6
:101720000A832C813D81232B59F7FC011082E8CFDD
:1017300080E0E7CFEF92FF920F931F93CF93DF9359
:1017400041155105B1F07B01EC010C811D81040FA5
:10175000151FB8010E94720B882361F0288139811E
:101760008C819D81B701820F931F0E9494211D835C
:101770000C8381E0DF91CF911F910F91FF90EF904B
:101780000895EF92FF920F931F93CF93DF93EC0195
:101790007B018A01BA010E94720B81110BC0CE013C
:1017A0000E94510ACE01DF91CF911F910F91FF90BE
:1017B000EF9008951D830C83B701888199810E9461
:1017C0009421F0CFCF93DF93EC01FB0186179707AD
:1017D00049F0608171816115710541F04481558145
:1017E0000E94C10BCE01DF91CF9108950E94510A52
:1017F000F9CFFC01118210821382128215821482A9
:10180000FB0101900020E9F73197AF01461B570B10
:101810000C94C10BAF92BF92CF92DF92EF92FF92E6
:101820000F931F93CF93DF937C016B015A018901C2
:101830002417350720F48B2D5901042F182F66E843
:1018400071E0C7010E94F90BD6011496CD91DC918D
:10185000AC16BD0620F50C171D0708F4E801D601EB
:10186000ED91FC911197EC0FFD1F108110826D918D
:101870007C916A0D7B1D61157105E9F0FB010190FA
:101880000020E9F73197AF01461B570BC7010E94B3
:10189000C10BF60180819181C80FD91F1883C70140
:1018A000DF91CF911F910F91FF90EF90DF90CF903C
:1018B000BF90AF900895C7010E94510AEACF0F93DD
:1018C0001F93CF93DF9300D000D000D0CDB7DEB709
:1018D0008C0144E150E067E871E00E949A0B2FE030
:1018E00030E050E040E0B801CE0101960E940A0CC1
:1018F000BE016F5F7F4FC8010E94390BCE01019678
:101900000E94630A61E080E00E94040AF8014481B9
:1019100055816081718185E596E00E9496018091F4
:101920000601982F990F63E0890F0E94040A2696FA
:101930000FB6F894DEBF0FBECDBFDF91CF911F91E0
:101940000F910895CF92DF92EF92FF920F931F9322
:10195000CF93DF9300D0CDB7DEB78C016B01E42EBF
:1019600066E871E00E94F90BC6010E9441060E2C48
:10197000000CFF0897FD11C0E816F90671F0898385
:101980001A8241E050E0BE016F5F7F4FC8010E94A4
:101990009A0BC6010E944106EDCFC8010F900F902F
:1019A000DF91CF911F910F91FF90EF90DF90CF903B
:1019B00008950F93CF93DF9300D000D000D0CDB720
:1019C000DEB700E020E040E06AE081E00E945B08D2
:1019D00020E040E06AE082E00E945B0801E02FE046
:1019E0004FE06FE080E00E945B080E94380A88E0C8
:1019F0008093610660E085E596E00E94410762E021
:101A000080E00E94040A6CE971E085E596E00E949E
:101A10000D0B63E080E00E94040A6FEA71E085E547
:101A200096E00E940D0B80910601982F990F63E0BC
:101A3000890F0E94040A60915B06862F8160809363
:101A40005B06696040E085E596E00E94ED0963EC85
:101A500071E0CE0101960E94F90BCE0101960E9421
:101A60005F0CCE0101960E94630A60E089E00E944B
:101A7000F50260E08BE00E94F50281E00E9405091A
:101A800091E0811190E09093A103109207012696B6
:101A90000FB6F894DEBF0FBECDBFDF91CF910F918F
:101AA00008950F93CF93DF9300D000D000D0CDB72F
:101AB000DEB786EC91E00E94170B61E089E00E949E
:101AC000F50261E08BE00E94F50261E08CE00E948B
:101AD000F50261E088E00E94F50261E087E00E9483
:101AE000F50261E086E00E94F50261E085E00E9477
:101AF000F50261E08BE00E94F50281E08093A20391
:101B00006AEC71E0CE0101960E94F90BCE010196BC
:101B10000E945F0CCE0101960E94630A01E020E062
:101B200042E360E081E00E945B0883E00E940509D7
:101B3000811107C064E670E080E090E00E94C1047B
:101B4000F4CF26960FB6F894DEBF0FBECDBFDF915F
:101B5000CF910F910895CF93DF9300D000D000D0A4
:101B6000CDB7DEB760ED71E0CE0101960E94F90BB2
:101B7000CE0101960E945F0CCE0101960E94630A7D
:101B800060E087E00E94F50260E47CE980E090E09C
:101B90000E94C10468ED71E0CE0101960E94F90B2C
:101BA000CE0101960E945F0CCE0101960E94630A4D
:101BB00061E087E00E94F50226960FB6F894DEBF3A
:101BC0000FBECDBFDF91CF910895CF93DF9300D0AB
:101BD00000D000D0CDB7DEB760EE71E0CE01019647
:101BE0000E94F90BCE0101960E945F0CCE01019676
:101BF0000E94630A60E088E00E94F50260E47CE9EC
:101C000080E090E00E94C10468EE71E0CE01019690
:101C10000E94F90BCE0101960E945F0CCE01019645
:101C20000E94630A61E088E00E94F50226960FB6E2
:101C3000F894DEBF0FBECDBFDF91CF9108950F9313
:101C40001F93CF93DF9300D000D000D0CDB7DEB785
:101C50008C018CE095E00E94F40143E26CE075E0B9
:101C6000892B49F482E696E00E94DB07892B51F12B
:101C700043E262E676E0CE0101960E94A20CBE012C
:101C80006F5F7F4F8DE394E00E94390BCE01019688
:101C90000E94630AF8011182108213821282158257
:101CA00014826DE374E0C8010E94E20BC80126961D
:101CB0000FB6F894DEBF0FBECDBFDF91CF911F915D
:101CC0000F91089566E871E0C8010E94F90BEECF0C
:101CD0008F929F92AF92BF92CF92DF92EF92FF923C
:101CE0001F93CF93DF9300D000D000D0CDB7DEB7E5
:101CF0004B015C010E9435066B017C0110E00E94E3
:101D000035066C197D098E099F09681579058A05C4
:101D10009B0508F04CC0CE0101960E941F0EBE012B
:101D20006F5F7F4F8DE394E00E94390BCE010196E7
:101D30000E94630A81EF91E00E94890A8823C9F01A
:101D400084EF91E00E94170B0E94510D80E02696CF
:101D50000FB6F894DEBF0FBECDBFDF91CF911F91BC
:101D6000FF90EF90DF90CF90BF90AF909F908F90BB
:101D7000089581E00E940509811103C0113021F30B
:101D800011E085E00E940509882329F087E00E9480
:101D900005098111D9CF83E00E9405098823A1F2AA
:101DA00064E670E080E090E00E94C104A8CF81E08A
:101DB000CECF0F931F93CF93DF9300D000D000D0EE
:101DC000CDB7DEB7182F882309F4ECC086E00E9457
:101DD0000509811171C082E00E94050981116CC062
:101DE00066EF71E0CE0101960E94F90BCE010196DB
:101DF0000E945F0CCE0101960E94630A10E0812FC1
:101E000026960FB6F894DEBF0FBECDBFDF91CF91FF
:101E10001F910F91089564E670E080E090E090C01B
:101E200001E020E04AE06AE081E00E945B0861E0B6
:101E30008BE00E94F50260E272E0CE0101960E9402
:101E4000F90BCE0101960E945F0CCE0101960E9413
:101E5000630A60E086E00E94F50268E873E180E0D2
:101E600090E00E94680E882349F268E272E0CE0199
:101E700001960E94F90BCE0101960E945F0CCE01E3
:101E800001960E94630A60E088E00E94F50260E427
:101E90007CE980E090E00E94680E182F882309F406
:101EA000ADCF61E088E00E94F50261E086E00E942B
:101EB000F5020E94680AA3CF60E08BE00E94F50261
:101EC00001E020E04AE06AE081E00E945B0888E0EF
:101ED0008093610660E085E596E00E94410760ED31
:101EE00071E0CE0101960E94F90BCE0101960E948D
:101EF0005F0CCE0101960E94630A60E087E00E94B9
:101F0000F50268E873E180E090E00E94680E8823A3
:101F100009F474CF60E085E00E94F50266E072E0AB
:101F2000CE0101960E94F90BCE0101960E945F0C32
:101F3000CE0101960E94630A60E375E780E090E0BD
:101F40000E94680E882309F459CF86E00E94050993
:101F5000811161CF82E00E94050981115CCF68E8A0
:101F600073E180E090E00E94680E182F882309F446
:101F700045CF61E087E00E94F50261E085E00E94C4
:101F8000F5026FE072E0CE0101960E94F90BCE01DE
:101F900001960E945F0CCE0101960E94630A0E9486
:101FA000D90C2DCF84E00E940509811106C080E084
:101FB0000E940509882309F413CF85E00E940509D2
:101FC000882309F42DCF68E172E0CE0101960E94CA
:101FD000F90BCE0101960E945F0CCE0101960E9482
:101FE000630A0DCF8F929F92AF92BF92CF92DF92F2
:101FF000EF92FF921F93CF93DF9300D000D000D0D9
:10200000CDB7DEB74B015C010E9435066B017C0148
:1020100010E00E9435066C197D098E099F0968152C
:1020200079058A059B0508F042C0CE0101960E9401
:102030001F0EBE016F5F7F4F8DE394E00E94390B4E
:10204000CE0101960E94630A81EF91E00E94890A05
:102050008823C9F084EF91E00E94170B0E94510D74
:1020600080E026960FB6F894DEBF0FBECDBFDF919D
:10207000CF911F91FF90EF90DF90CF90BF90AF90E6
:102080009F908F90089581E00E940509811103C0FF
:10209000113021F311E083E00E9405098823F1F259
:1020A00064E670E080E090E00E94C104B2CF81E07D
:1020B000D8CF0F931F93CF93DF9300D000D000D0E1
:1020C000CDB7DEB7882309F40DC187E00E9405096A
:1020D00081111BC061E372E0CE0101960E94F90BF1
:1020E000CE0101960E945F0CCE0101960E94630A08
:1020F00010E0812F26960FB6F894DEBF0FBECDBF3D
:10210000DF91CF911F910F91089581E00E94050901
:1021100081112DC069E372E0CE0101960E94F90B96
:10212000CE0101960E945F0CCE0101960E94630AC7
:1021300062E472E082E696E00E94A20A4DE062E666
:1021400076E0CE0101960E94A20CCE0101960E947B
:10215000260BCE0101960E94630A81E00E940509C8
:10216000882361F181E00E940509882309F261E07A
:1021700089E00E94F50201E020E04AE06AE081E0A7
:102180000E945B0886E00E94050981111EC082E062
:102190000E940509811119C08BE00E94CC02892B95
:1021A00001F160E08BE00E94F50260E177E280E0FF
:1021B00090E00E94680E811114C09ACF60E177E22E
:1021C00080E090E00E94C104C8CF8BE00E94CC0266
:1021D000892B21F060E08BE00E94F50281E00E94F3
:1021E000D90E66E472E0CE0101960E94F90BCE0191
:1021F00001960E945F0CCE0101960E94630A85E061
:102200000E940509882359F187E00E940509882367
:1022100031F168EF7AE280E090E00E94F20F8823CB
:1022200009F466CF85E00E94050981112DC060ED9B
:1022300077E080E090E00E94F20F182F882309F4E5
:1022400057CF87E00E940509811128C00E94D90C50
:1022500068EE73E088EB91E00E94F3044ACF60E0FF
:102260008CE00E94F50268E572E080E090E00E9458
:10227000C10461E08CE00E94F50260EA7FE080E04A
:1022800090E00E94F20FBBCF87E00E9405098823EF
:1022900071F268EE73E080E090E0BFCF61E089E02A
:1022A0000E94F5026AE572E0CE0101960E94F90BE8
:1022B000CE0101960E945F0CCE0101960E94630A36
:1022C00064EF71E080E090E00E94C10480E00E9431
:1022D000D90E61E08BE00E94F50261E089E00E9486
:1022E000F502B6CF85E0F2CE1F920F920FB60F9295
:1022F00011242F933F934F935F936F937F938F930B
:102300009F93AF93BF93EF93FF938091230490919A
:102310002404A0912504B0912604892B8A2B8B2BB1
:10232000D1F190911E04E0911F04F091200480816E
:10233000892780838091230490912404A09125040F
:10234000B0912604181619061A061B069CF48091F3
:10235000230490912404A0912504B09126040197B0
:10236000A109B1098093230490932404A093250428
:10237000B0932604FF91EF91BF91AF919F918F9100
:102380007F916F915F914F913F912F910F900FBE71
:102390000F901F90189580910B01E2E7F0E0E49117
:1023A0009FEF90930B01E13051F030F0E23069F093
:1023B00060E00E94F502DECF10926E00F9CF90919E
:1023C0006F009D7F90936F00F3CF909170009D7F81
:1023D0009093700091E09093B0009091B100987F3D
:1023E00094609093B1001092B300E2CF1F920F92CD
:1023F0000FB60F9211242F933F934F935F936F93D8
:102400007F938F939F93AF93BF93EF93FF938CE052
:1024100095E00E941402FF91EF91BF91AF919F91BF
:102420008F917F916F915F914F913F912F910F907D
:102430000FBE0F901F9018951F920F920FB60F921C
:1024400011242F938F939F93EF93FF93E0911C059B
:10245000F0911D058081E0912205F091230582FD18
:102460001BC09081809125058F5F8F732091260579
:10247000821741F0E0912505F0E0E45FFA4F958F77
:1024800080932505FF91EF919F918F912F910F9050
:102490000FBE0F901F9018958081F4CF1F920F925E
:1024A0000FB60F9211242F933F938F939F93AF9367
:1024B000BF938091950390919603A0919703B0915B
:1024C00098033091940323E0230F2D3758F501969C
:1024D000A11DB11D209394038093950390939603BF
:1024E000A0939703B09398038091990390919A03D6
:1024F000A0919B03B0919C030196A11DB11D8093F7
:10250000990390939A03A0939B03B0939C03BF916C
:10251000AF919F918F913F912F910F900FBE0F9090
:102520001F90189526E8230F0296A11DB11DD2CF4A
:102530001F920F920FB60F9211242F933F934F9338
:102540005F936F937F938F939F93AF93BF93EF931B
:10255000FF938091B900887F803609F44AC0F0F576
:10256000883209F4A7C018F5803109F49BC0B8F48B
:10257000882309F4F9C0883009F494C0FF91EF91E1
:10258000BF91AF919F918F917F916F915F914F918B
:102590003F912F910F900FBE0F901F90189588318B
:1025A00009F488C0803251F78093F70314C0803457
:1025B00009F49DC040F48033B9F38833F9F6809371
:1025C000F70385ECB0C0803509F485C0883509F47F
:1025D00096C0883499F60E946F06D0CF883909F4E6
:1025E0008CC038F5883729F050F4883611F08037E0
:1025F00029F683E08093F9031092930357C088383B
:1026000009F47BC0803919F0803809F0B7CF809188
:102610009303803208F071C0E091930381E08E0F44
:10262000809393038091BB00F0E0ED58FC4F8083D2
:102630003DC0803B39F0E0F4803A09F479C0883A33
:1026400009F09CCF84E08093F903109272031092FA
:102650007103E091AE03F091AF030995809171038E
:1026600081110FC081E0809371031092510309C062
:10267000803C09F4A6CF883C09F4A3CF883B09F03D
:102680007DCFE091720381E08E0F80937203F0E0C2
:10269000EF5AFC4F80818093BB0090917203809130
:1026A000710329C08091D4038093BB0085EC809393
:1026B000BC0064CF9091F6038091F503981758F50C
:1026C000E091F60381E08E0F8093F603F0E0EB5289
:1026D000FC4F8081E9CFE091F60381E08E0F80937B
:1026E000F6038091BB00F0E0EB52FC4F80839091A9
:1026F000F6038091F5039817C8F285E8D8CFE091EA
:10270000F60381E08E0F8093F6038091BB00F0E02A
:10271000EB52FC4F80838091F80381115CCF81E004
:102720008093D30384EA8093BC001092F90326CFF0
:1027300085EC8093BC001092F90380919303803262
:1027400030F4E0919303F0E0ED58FC4F108260917B
:10275000930370E0E091AC03F091AD0383E793E065
:102760000995109293030ACF1092F70334CF1F926A
:102770000F920FB60F9211242F933F934F935F93B5
:102780006F937F938F939F93AF93BF93EF93FF9339
:10279000E0919F03F091A003309749F0A685B7859B
:1027A0008585968D91FF14C09C918923A1F4FF919A
:1027B000EF91BF91AF919F918F917F916F915F91B9
:1027C0004F913F912F910F900FBE0F901F90189532
:1027D0009C91892361F7A389B4899C91858980950F
:1027E00089238C93868997890197F1F7608D718D84
:1027F000A685B785558538E020E0CB010197F1F734
:10280000822F90E095958795282F4C91452309F0CC
:102810002068315091F7868D81FD209580919E032F
:1028200090E001968F73992730919D03381799F0A6
:10283000A0919E03B0E0AF5EBC4F2C9380939E03AB
:10284000828D938D0197F1F7A389B4898C91958935
:10285000892B8C93ACCF868D8160868FF1CFCF93FF
:10286000DF9310920F0510920E0588EE93E0A0E022
:10287000B0E08093100590931105A0931205B093DA
:10288000130526E431E030930D0520930C0525EC6B
:1028900030E0309319052093180524EC30E0309394
:1028A0001B0520931A0520EC30E030931D05209382
:1028B0001C0521EC30E030931F0520931E0522EC0F
:1028C00030E0309321052093200526EC30E0309352
:1028D00023052093220510922505109226051092BB
:1028E000270510922805109232041092310480932B
:1028F000330490933404A0933504B093360428E550
:1029000031E03093300420932F041092650610922A
:1029100064068093660690936706A0936806B0935A
:10292000690686E791E090936306809362061092B1
:1029300079061092780610927B0610927A06109211
:102940007D0610927C0610927F0610927E066091A2
:1029500080066E7F6D7F609380066695617081E072
:10296000682782E00E94F50261E082E00E94550340
:10297000E1EBF0E0E491E0937206EDE9F0E0E49140
:10298000F0E0EE0FFF1FEF56FF4F8591949190936B
:1029900074068093730660E08DE00E945503809179
:1029A000800681FD04C061E08DE00E94F5028DE0AB
:1029B00080936E06ECEBF0E0E491E0936F06E8EABA
:1029C000F0E0E491F0E0EE0FFF1FE957FF4F859133
:1029D0009491909371068093700686E290E09093B4
:1029E0003C0480933B0484E090E090930F0180933B
:1029F0000E0190930D0180930C01109258061092D5
:102A000057068AE691E090935606809355061092F9
:102A10005E0687E28093590684E180935F0684E036
:102A2000809360061092610610924006109247064D
:102A300010924E0610924F061092500610925106B8
:102A400081E080934D0680934A0610924B0682E007
:102A500080934C0610923F0684E590E090934406E4
:102A6000809343060E94991F9093490680934806DD
:102A7000009709F49FC024E5DC011D922A95E9F72F
:102A80008CE190E0909342068093410684E090E0D0
:102A9000909346068093450680914006882341F036
:102AA00061E084E00E94550360E084E00E94F5024A
:102AB000EFE9F0E0E491F0E0EE0FFF1FEF56FF4F7B
:102AC000859194919093530680935206E3EBF0E046
:102AD000E491E09354068CE095E09093AA058093EE
:102AE000A9051092AC051092AB051092AE0510929C
:102AF000AD059093B4058093B30581E08093B5054F
:102B00008FEB95E09093B9058093B80580E890E04D
:102B10009093BB058093BA051092BD051092BC0539
:102B20001092BE051092FC041092FB041092FE0459
:102B30001092FD041092030589EA95E09093FA043F
:102B40008093F9048FEF9FEFDC018093F50490935D
:102B5000F604A093F704B093F8040E943506C5ED7F
:102B6000D4E0E1E7F4E049E454E0199211921192C3
:102B7000DA016D937D938D939D93AD019F01225B4F
:102B80003F4FD9011D921C92B4E0E538FB0769F76D
:102B90001092F4041092F30466E672E083E494E089
:102BA0000E94F90B66E871E08DE394E0DF91CF912C
:102BB0000C94F90B109244061092430610924206B0
:102BC0001092410663CFCF93DF93CDB7DEB7649702
:102BD0000FB6F894DEBF0FBECDBF789484B5826087
:102BE00084BD84B5816084BD85B5826085BD85B5B1
:102BF000816085BD80916E00816080936E0010922F
:102C000081008091810082608093810080918100A9
:102C1000816080938100809180008160809380003A
:102C20008091B10084608093B1008091B000816098
:102C30008093B00080917A00846080937A008091C4
:102C40007A00826080937A0080917A00816080931C
:102C50007A0080917A00806880937A001092C10097
:102C6000E0911C05F0911D0582E08083E0911C0538
:102C7000F0911D051082E0911805F0911905108260
:102C8000E0911A05F0911B0580E1808310922405E4
:102C9000E0912005F091210586E08083E0911E05FA
:102CA000F0911F05808180618083E0911E05F09185
:102CB0001F05808188608083E0911E05F0911F05CB
:102CC000808180688083E0911E05F0911F058081DE
:102CD0008F7D808310927D0610927C0610927B0679
:102CE00010927A0610927906109278068DE991E09A
:102CF00090937F0680937E0690916E06963108F041
:102D000047C02DEB30E030937906209378062BE90D
:102D100031E030937B0620937A062CE231E0309349
:102D20007D0620937C062091680084E0983048F06E
:102D300031E09E3008F430E081E001C0880F3A9520
:102D4000EAF7822B809368002DE630E0983050F04F
:102D50002BE630E09E3030F02CE630E0963110F07B
:102D600030E020E03093760620937506292F30E07E
:102D7000983008F0B1C381E001C0880F9A95EAF756
:102D80008093770680917E0690917F060197F1F7F8
:102D900080917C0690917D06892B49F1E0919F03FB
:102DA000F091A00326E0E236F20709F1309739F0FE
:102DB000A389B4899C918589809589238C9380917E
:102DC00080068E7F8093800610929E0310929D0352
:102DD00082E696E09093A00380939F03E0917506AE
:102DE000F0917606808190917706892B80831092EE
:102DF000B2030E9423036FEF80E00E9426076FEF6B
:102E000081E00E9426076FEF70E080913B04909173
:102E10003C040E9454071092A9031092A80361E099
:102E20008AE00E94F50261E08AE00E94550361E0B9
:102E300089E00E94F50261E089E00E94550361E0AB
:102E40008BE00E94F50261E08BE00E94550361E097
:102E50008CE00E94F50261E08CE00E94550361E085
:102E600088E00E94F50261E088E00E94550361E07D
:102E700087E00E94F50261E087E00E94550361E06F
:102E800086E00E94F50261E086E00E94550361E061
:102E900085E00E94F50261E085E00E94550361E053
:102EA0008BE00E94F50287E00E94180987E00E94EB
:102EB000350985E00E94180985E00E94350986E001
:102EC0000E94180986E00E94350984E00E941809D2
:102ED00084E00E94350982E00E94180982E00E9485
:102EE000350980E00E94180980E00E94350983E0DE
:102EF0000E94180983E00E94350981E00E941809A8
:102F000060E084E10E94550361E083E00E94550384
:102F100084E190E00E9486038DE00E9418098DE014
:102F20000E9435098BE00E9418098BE00E94350948
:102F30008EE00E9418098EE00E94350988E00E9408
:102F4000180988E00E94350989E00E94180989E083
:102F50000E9435098AE00E9418098AE00E9435091A
:102F6000809145069091460697FD08C061E00E9459
:102F7000550360E0809145060E94F50281E0809350
:102F80004006409143065091440670E060E0809115
:102F90004806909149060E9484210E9423031092C2
:102FA0005A0680916006823018F098E090935A0695
:102FB00080935D0662E370E080E090E00E94C104CF
:102FC0006091610685E596E00E94410768EE73E036
:102FD00080E090E00E94C10460E385E596E00E94F5
:102FE000D4090BE416E4C8010197F1F760E385E525
:102FF00096E00E94D409C8010197F1F760E385E5E6
:1030000096E00E94D40983E592E00197F1F760E22F
:1030100085E596E00E94D40960915A06606240E01E
:1030200085E596E00E94ED0984E080935B0640E030
:103030006CE085E596E00E94ED090E94380A82E086
:1030400080935C0640E066E085E596E00E94ED092D
:1030500040E062E085E596E00E94ED098BE39FE1A8
:103060000197F1F762E080E00E94040A6CE971E0E8
:1030700085E596E00E940D0B63E080E00E94040A63
:103080006FEA71E085E596E00E940D0B80910601E4
:10309000982F990F63E0890F0E94040A60915B06E4
:1030A000862F816080935B06696040E085E596E04D
:1030B0000E94ED098091F3049091F4040A9774F44E
:1030C000E1E7F4E010E000E081919191892B09F4AF
:1030D000DEC50F5F1F4F0A301105B1F786E00E9471
:1030E0000509811106C282E00E940509811101C211
:1030F0000E94D90C87E00E940509882341F085E0F1
:103100000E940509882319F081E08093A203DD2441
:10311000D394BE016F5F7F4F7B010E9435062B0168
:103120003C01E1E7F4E009E414E01C8B0B8B312C4B
:10313000212C9F0122593F4FD9011D921C92808161
:1031400091813296892BB9F1AB89BC894D915D9102
:103150006D917C911397DC968D909D90AD90BC9075
:10316000DF97D301C201841B950BA60BB70B881503
:103170009905AA05BB05F8F0480D591D6A1D7B1D70
:10318000AB89BC894D935D936D937C931397C1017B
:103190008B529B4FDC018C91882369F082AD93ADFB
:1031A000009709F0A9C1CF0184599F4F21E030E079
:1031B000DC012D933C937FEF271A370A8B899C897A
:1031C00004969C8B8B8B9AE02916310409F0B1CFC1
:1031D000912C812C5801A6E9AA0EB11CF501808121
:1031E00091818130910509F4A9C1029709F4ACC11C
:1031F000BFEF8B1A9B0A0E5F1F4FEAE08E169104F9
:1032000049F78DE00E94050981111AC01091A503AC
:103210001D251093A50364E670E088EB91E00E9401
:10322000F30464E6169F602D11244091090181E0AA
:103230000E9417086CE271E080E090E00E94C104F7
:103240008EE00E94050981111AC01091A4031D256A
:103250001093A40364E670E088EB91E00E94F3040D
:1032600064E6169F602D11244091080182E00E94BF
:1032700017086CE271E080E090E00E94C1048BE0EE
:103280000E940509811117C08091A3038D258093A9
:10329000A30364E670E088EB91E00E94F3044091A0
:1032A0000A0160E180E00E9417086CE271E080E0B2
:1032B00090E00E94C10488E00E940509811115C0B8
:1032C00080910701882309F470C188E0809361062A
:1032D00060E085E596E00E9441071092070168ECE6
:1032E00070E080E090E00E94C1048AE00E94CC027D
:1032F000892BB1F4809106018F5F863008F082C17E
:103300008093060180910601982F990F63E0890F41
:103310000E94040A68EC70E080E090E00E94C10422
:1033200089E00E94CC02892B09F05FC0B0900601B1
:103330000B2D10E000501F4FD8018C918F5F8C93A4
:10334000863028F08DEF8B0D823008F4DC92F80186
:103350008081873028F0F5E0BF1202C0109205018D
:10336000D8018C918B3008F0DC9263E08B2D880FB4
:103370008B0D0E94040AF8016081F2E0FB1508F44D
:103380005AC1663008F441C16550770B85E596E077
:103390000E94060B64E972E085E596E00E940D0B41
:1033A00090910601E92FF0E0E050FF4FE081F0E05E
:1033B000E85FFE4FD0826091A50384E6689F602D90
:1033C00011244091090182E0891B0E941708809115
:1033D0000601982F990F63E0890F0E94040A68EC98
:1033E00070E080E090E00E94C1040E945209082F22
:1033F000882309F444C064E670E088EB91E00E9401
:10340000F30410910701112309F4D3C118861F8218
:103410001A8619861C861B8609831A82F701019079
:103420000020E9F73197AF014E195F09B701CE01CE
:1034300007960E94C10B0E9435064B015C010E9459
:1034400081080E943506681979098A099B0960314B
:1034500077428105910508F42FC182EA92E00E942B
:10346000170B6CE271E08CED90E00E94F30410E029
:10347000CE0107960E94630A111110920701C7013D
:103480000E941F0EB7018DE394E00E94390BC70123
:103490000E94630A86E891E00E94890A81119AC21B
:1034A0008091A2038111EEC187EB92E00E94890A0C
:1034B000882309F49BC181E00E94D90E86E00E9416
:1034C0000509811106C082E00E940509882309F4DC
:1034D000A1C184EF91E0A0C19E3040F42850310991
:1034E00081E001C0880F2A95EAF74ACC2E503109B5
:1034F000F7CF0E94680AFECD5F013EE4A30EB11C27
:10350000D5014D915C91481759070CF054CE9F019D
:1035100024593F4F61E070E0D9016D937C934F5F78
:103520005F4FD5014D935C93481759070CF443CE78
:1035300062E070E0D9016D937C933DCED8019896FE
:10354000ED91FC91099554CED8019896ED91FC919E
:1035500009958091F3049091F404009709F448CE02
:10356000F80120A531A5232B09F442CE11A610A6FF
:10357000F401EB52FB4F1082D5011D921C92F40115
:10358000EE0FFF1FEE0FFF1FE75BFB4F14AE15AEF4
:1035900016AE17AEF801E858FF4F1182108201975E
:1035A0009093F4048093F30423CE80910601853038
:1035B00009F09BCEE0910501E73008F090CEF0E0F5
:1035C000EC51F54E0C94781FEB1AF61AFA1AFC1A05
:1035D000001BF61AFA1A81E792E00E94170B62E4C8
:1035E00072E082E696E00E94A20A79CE81E00E9413
:1035F000D90E75CE80E0FBCF81E00E9459106FCECE
:1036000080E0FBCF109206017DCE85E596E00E941A
:10361000FF0A66E772E085E596E00E940D0B909147
:103620000601E92FF0E0E050FF4FE081F0E0E85FB5
:10363000FE4F1082C0CE24E02B15A8F085E596E061
:103640000E94FF0A80910601833029F484E190E012
:103650000E948603BCCE00E020E040E06AE081E00A
:103660000E945B08B4CE673008F0B1CEE62FF0E0E0
:10367000E45CF44E0C94781F431B4A1B4D1B501BFB
:10368000531B561B591B68E772E085E596E00E94C4
:103690000D0B9DCE6EE772E0F8CF64E872E0F5CFD7
:1036A0006AE872E0F2CF60E972E0EFCF66E972E0BB
:1036B000ECCF6CE972E0E9CF0E945209782E8823A2
:1036C00009F4BFCE64E670E088EB91E00E94F30459
:1036D00001E02FE04FE060E080E00E945B0868ECD2
:1036E00070E080E090E00E94C1042FE04FE06FE0C6
:1036F00080E00E945B081A8219821C821B821E8253
:103700001D82BE01695F7F4FC7010E94E20B7D866B
:103710001E8641E050E0BE01635F7F4FC7010E94FB
:103720009A0B811103C0C7010E94510AB701CE0153
:1037300007960E94E20BC7010E94630A2B853C8515
:103740004CEF420F2530310508F440E050E0BE0157
:10375000695F7F4FC7010E940A0CB701CE0107962F
:103760000E94390BC7010E94630ACE0107960E948E
:10377000260B2B853C85809147049091480428179F
:10378000390709F05ECE8F8198856091430470916E
:103790004404009709F4B6C26115710539F4232B6E
:1037A00009F4BEC2FC01808190E0B7C20E948B2167
:1037B000B4C281E0013419F0023421F480E00E94A7
:1037C00059105DCE81E0033419F0043421F480E017
:1037D0000E94D90E54CE0A3219F40E94AB0D4FCE7E
:1037E000033209F04CCE0E94E50D49CE8AEB92E0FF
:1037F0000E94890A882339F180E00E94D90E86E070
:103800000E940509811106C082E00E9405098823F3
:1038100009F45FCE88E892E00E94170B85ED92E0F4
:103820000E94890A60E0811108C088ED92E00E9440
:10383000890A882309F47BC061E089E00E94F502CF
:1038400088E892E03AC18DEB92E00E94890A8823D1
:1038500029F081E00E94591087E036CE80EC92E09A
:103860000E94890A882329F080E00E94591085E08F
:103870002BCE83EC92E00E94890A882379F2D092C1
:10388000A203CCCF84EB92E00E94890A882319F02E
:103890001092A203C3CF86EC92E00E94890A60E0F6
:1038A000811107C089EC92E00E94890A882329F0DF
:1038B00061E08BE00E94F502B1CF8CEC92E00E94B7
:1038C000890A882369F060E08CE00E94F50268E5CF
:1038D00072E080E090E00E94C10461E08CE0EACFF9
:1038E0008FEC92E00E94890A882369F060E085E00D
:1038F0000E94F50260E47CE980E090E00E94C1044F
:1039000061E085E0D7CF82ED92E00E94890A8823AA
:1039100009F484CF60E086E00E94F50260E47CE96F
:1039200080E090E00E94C10461E086E0C3CF8BEDAF
:1039300092E00E94890A882371F086E00E940509BE
:10394000811106C082E00E940509882309F478CF1E
:1039500084EF91E0B2C08EED92E00E94890A882344
:1039600031F085E00E94050981116ACFF1CF81EE27
:1039700092E00E94890A882331F089E00E94CC02FB
:10398000892B31F75DCF84EE92E00E94890A88236B
:1039900019F00E94E50DDCCF87EE92E00E94890AC3
:1039A000882319F00E94AB0DD3CF8AEE92E00E94DB
:1039B000890A882309F468C060E08AE00E94F50261
:1039C00068EE73E080E090E00E94C10461E08AE06C
:1039D0000E94F5020091A10310E081E00E94050918
:1039E00080171106B1F081E00E9405096AE0869F08
:1039F000602D112401E020E040E082E00E945B089D
:103A000081E00E94050991E0811101C090E090934E
:103A1000A1038091A20381110BC085E00E940509DA
:103A2000882331F087E00E94050981110E94510D21
:103A300083E00E940509811102C00E94510D86E4B5
:103A400080937C0080917A00806480937A008091DA
:103A50007A0086FDFCCF90917800809179008927CB
:103A6000982789278C32914014F40E94AB0D80E096
:103A700090E0892B09F451CB0E940002882309F4BD
:103A800046CB0E94000043CB81EF91E00E94890A5F
:103A9000882339F084EF91E00E94170B0E94510DAA
:103AA00099CF8DEE92E00E94890A882361F080917F
:103AB000A203882329F08BE692E00E94170B8ACF9D
:103AC0008DE692E0FACF80EF92E00E94890A882387
:103AD00039F040910A0164E680E00E941708B0CEF8
:103AE00083EF92E00E94890A882331F040E060E091
:103AF00080E00E9417082CCF86EF92E00E94890A8E
:103B0000882329F04091090164E681E0E6CF89EF3E
:103B100092E00E94890A882321F040E060E081E081
:103B2000E8CF8CEF92E00E94890A882399F062E442
:103B300072E082E696E00E940D0B4DE062E676E0D0
:103B4000C7010E94A20CC7010E94260BC7010E9458
:103B5000630A40CF8FEF92E00E94890A62E073E02F
:103B6000811108C086E093E00E94890A882339F019
:103B700069E073E082E696E00E94A20ADECF8DE063
:103B800093E00E94890A882309F424CF85E00E94EB
:103B9000050961E070E0882311F070E060E08CE0DE
:103BA00095E00E94060B87E00E94050961E070E045
:103BB000882311F070E060E08CE095E00E94060B35
:103BC00084E00E940509811104C00E94050961E09A
:103BD000811160E070E08CE095E00E94060B86E0C9
:103BE0000E940509811105C082E00E94050961E07B
:103BF000811160E070E08CE095E00E94060B89E0A6
:103C00000E94CC0261E070E0892B11F070E060E06E
:103C10008CE095E00E94060B81E00E9405096FE6AA
:103C200072E0811102C066E172E08CE095E00E94D2
:103C30000D0B8091A203882339F18BE692E00E945C
:103C4000170B84E00E940509682F8CE095E00E9424
:103C5000FF0A80E00E940509682F8CE095E00E9431
:103C6000FF0A86E00E940509682F8CE095E00E941B
:103C7000FF0A82E00E940509682F8CE095E00E940F
:103C8000FF0A0E940F0BA6CE8DE692E0D8CFF80176
:103C9000EE0FFF1FEE0FFF1FEB57FB4F88EE93E079
:103CA000A0E0B0E080839183A283B383F801EE0F9C
:103CB000FF1FEF58FB4F84E991E091838083F80167
:103CC000EE0FFF1FE355FB4F11821082F801EB52FC
:103CD000FB4F81E080830E943506000F111F000F0B
:103CE000111FF801E75BFB4F60837183828393832D
:103CF0008091F3049091F40401969093F4048093DE
:103D0000F304ECC96115710559F0232B49F0DB016F
:103D10008C9190E0919581959109892B09F091CB37
:103D20008FEA92E00E94170B6CE271E088EB91E061
:103D30000E94F30401E020E04FE060E080E00E9498
:103D40005B0860ED77E080E090E00E94C1040E9493
:103D500081088ECB8DE394E00E94630A83E494E0B3
:103D60000E94630A80914806909149060E9435207E
:103D7000809145069091460697FD03C060E00E9441
:103D8000550386E791E090936306809362068091E5
:103D90009F039091A0038256964071F4E0917506BE
:103DA000F0917606908180917706809589238083B3
:103DB0001092A00310929F0308952F923F924F926A
:103DC0005F926F927F928F929F92AF92BF92CF92AB
:103DD000DF92EF92FF920F931F93CF93DF93CDB7B4
:103DE000DEB7CA1BDB0B0FB6F894DEBF0FBECDBF2C
:103DF00009942A88398848885F846E847D848C84FD
:103E00009B84AA84B984C884DF80EE80FD800C8105
:103E10001B81AA81B981CE0FD11D0FB6F894DEBFE8
:103E20000FBECDBFED010895A29FB001B39FC001A9
:103E3000A39F700D811D1124911DB29F700D811DD6
:103E40001124911D089597FB072E16F4009407D0B6
:103E500077FD09D00E94851F07FC05D03EF49095A0
:103E600081959F4F0895709561957F4F0895A1E2C8
:103E70001A2EAA1BBB1BFD010DC0AA1FBB1FEE1FE4
:103E8000FF1FA217B307E407F50720F0A21BB30B2F
:103E9000E40BF50B661F771F881F991F1A9469F7AB
:103EA00060957095809590959B01AC01BD01CF0107
:103EB0000895052E97FB1EF400940E94701F57FD75
:103EC00007D00E94371F07FC03D04EF40C94701FDC
:103ED00050954095309521953F4F4F4F5F4F089536
:103EE00090958095709561957F4F8F4F9F4F089566
:103EF000EE0FFF1F0590F491E02D09940E94141F0E
:103F0000B7FF0895821B930B0895AA1BBB1B51E1B9
:103F100007C0AA1FBB1FA617B70710F0A61BB70B39
:103F2000881F991F5A95A9F780959095BC01CD01DE
:103F300008950F931F93CF93DF938230910510F470
:103F400082E090E0E0918306F091840630E020E08A
:103F5000B0E0A0E0309799F42115310509F44AC08A
:103F6000281B390B24303105D8F58A819B816115D6
:103F7000710589F1FB0193838283FE0111C04081A9
:103F800051810281138148175907E0F048175907FA
:103F900099F4109761F012960C93129713961C9354
:103FA0003296CF01DF91CF911F910F910895009329
:103FB000830610938406F4CF2115310551F0421782
:103FC000530738F0A901DB019A01BD01DF01F801B7
:103FD000C1CFEF01F9CF9093840680938306CDCFB4
:103FE000FE01E20FF31F819391932250310939832F
:103FF0002883D7CF2091810630918206232B41F46C
:104000002091120130911301309382062093810692
:1040100020911001309111012115310541F42DB786
:104020003EB74091140150911501241B350BE091CE
:104030008106F0918206E217F307A0F42E1B3F0BD6
:104040002817390778F0AC014E5F5F4F241735070A
:1040500048F04E0F5F1F5093820640938106819374
:1040600091939FCFF0E0E0E09CCFCF93DF93009758
:10407000E9F0FC01329713821282A0918306B0917D
:104080008406ED0130E020E01097A1F42081318119
:10409000820F931F209181063091820628173907DD
:1040A00009F061C0F0938206E0938106DF91CF9121
:1040B0000895EA01CE17DF07E8F54A815B819E018A
:1040C00041155105B1F7E901FB83EA834991599103
:1040D000C40FD51FEC17FD0761F480819181029612
:1040E000840F951FE90199838883828193819B8343
:1040F0008A83F0E0E0E012968D919C9113970097EF
:10410000B9F52D913C911197CD010296820F931F25
:1041100020918106309182062817390739F63097A9
:1041200051F51092840610928306B0938206A093F4
:104130008106BCCFD383C28340815181840F951FF8
:10414000C817D90761F44E5F5F4F88819981480F86
:10415000591F518340838A819B81938382832115D8
:10416000310509F0B0CFF0938406E09383069ECF2B
:10417000FD01DC01C0CF13821282D7CFB0E0A0E0F6
:10418000E4ECF0E20C94DF1E8C01009751F4CB01BB
:104190000E94991F8C01C801CDB7DEB7E0E10C94F5
:1041A000FB1EFC01E60FF71F9C0122503109E217AC
:1041B000F30708F49DC0D901CD91DC911197C61782
:1041C000D70798F0C530D10530F3CE010497861794
:1041D000970708F3C61BD70B2297C193D1936D9312
:1041E0007C93CF010E943520D6CF5B01AC1ABD0A6B
:1041F0004C018C0E9D1EA0918306B0918406512C1B
:10420000412CF12CE12C109731F580918106909191
:1042100082068815990509F05CC04616570608F015
:1042200058C08091100190911101009741F48DB711
:104230009EB74091140150911501841B950BE8170E
:10424000F90708F055C0F0938206E0938106F90162
:1042500071836083A0CF8D919C91119712966C9081
:10426000129713967C901397A815B90559F56C0110
:1042700042E0C40ED11CCA14DB0420F1AC014A197F
:104280005B09DA011296159780F06282738251837E
:104290004083D9016D937C93E114F10471F0D7014F
:1042A0001396FC93EE93129776CF22968C0F9D1F58
:1042B000F90191838083F301EFCFF0938406E093BB
:1042C000830669CF4816590608F42C017D01D301F5
:1042D0009ACFCB010E94991F7C01009749F0AE0153
:1042E000B8010E947B21C8010E943520870153CF6D
:1042F00010E000E050CFFB01DC0102C001900D9204
:1043000041505040D8F70895DC0101C06D934150F1
:104310005040E0F70895FB01DC018D910190801978
:104320000110D9F3990B0895FB01DC0101900D9266
:104330000020E1F7089510E0C3E6D0E004C0FE01DC
:104340000E94781F2196C436D107C9F7F894FFCF91
:1043500002080A0202000501010000FF0300040038
:104360000000850680000000400014005400313237
:10437000334100343536420037383943002A302380
:1043800044001000200040008000FE00FD00FB0003
:10439000F7000000000036029601C3018302F40119
:1043A000D201E60100000000F706CA061408A006C4
:1043B000C306B006A106000000004B0A96011408CF
:1043C0009501000000007F0796011408A006DB0796
:1043D000F30767070D0A002020202020202020203E
:1043E000202020202020202020202000544120496F
:1043F0004E204558204C43204C4420434D4400322D
:104400005220334220354220322020322020504199
:10441000524B004F6B004152550041525520210034
:104420005031204F2E2E2E005031204F50454E003F
:10443000503120462E2E2E00503120436C6F736574
:1044400000415500300045727265757220706F73BF
:104450006974696F6E00503132204F2E2E2E00503D
:104460003132204F70656E0045727220504F7300DC
:10447000503220462E2E2E0050313220462E2E2E27
:104480000045727220504F530045727220504172A5
:104490006B00504123004465706C6163656D656E0F
:1044A0007420616272692E2E2E004162726920664C
:1044B00065726DC3A90031323334006D0061007044
:1044C000005061726B0052005041524B20004F551A
:1044D000205031004645205031004F5520414200C8
:1044E0004645204142004F5520504F004645205040
:1044F0004F004D61757661697320636F6465004399
:104500006F6465204F4B00502B00502D00442B0052
:10451000442D004D41006D2B006D2D006464003270
:104520002B00322D00412B00412D00503F00443F15
:1045300000413F00702D00702B005043004D3F00A4
:10454000452B00452D00492B00492D0050410048C6
:104550004F00484F2300464E00464E2300433F0085
:107800000C94343C0C94513C0C94513C0C94513CE1
:107810000C94513C0C94513C0C94513C0C94513CB4
:107820000C94513C0C94513C0C94513C0C94513CA4
:107830000C94513C0C94513C0C94513C0C94513C94
:107840000C94513C0C94513C0C94513C0C94513C84
:107850000C94513C0C94513C0C94513C0C94513C74
:107860000C94513C0C94513C11241FBECFEFD8E036
:10787000DEBFCDBF11E0A0E0B1E0ECE9FFE702C060
:1078800005900D92A230B107D9F712E0A2E0B1E065
:1078900001C01D92AD30B107E1F70E942D3D0C945F
:1078A000CC3F0C94003C982F959595959595959582
:1078B000905D8F708A307CF0282F295A8091C0000B
:1078C00085FFFCCF9093C6008091C00085FFFCCF60
:1078D0002093C6000895282F205DF0CF982F809127
:1078E000C00085FFFCCF9093C6000895EF92FF92F1
:1078F0000F931F93EE24FF2487018091C00087FD22
:1079000017C00894E11CF11C011D111D81E4E8164B
:1079100082E4F8068FE0080780E0180770F3E09132
:107920000401F091050109958091C00087FFE9CF1E
:107930008091C6001F910F91FF90EF9008950E94D3
:10794000763C982F8091C00085FFFCCF9093C600B5
:1079500091362CF490330CF09053892F089597555D
:10796000892F08951F930E949F3C182F0E949F3CCF
:107970001295107F810F1F9108951F93182F882350
:1079800021F00E94763C1150E1F71F9108951F935A
:10799000182F0E94763C803249F0809103018F5F5E
:1079A000809303018530C1F01F9108958091C0003C
:1079B00085FFFCCF84E18093C6008091C00085FFE5
:1079C000FCCF1093C6008091C00085FFFCCF80E102
:1079D0008093C6001F910895E0910401F091050184
:1079E00009951F9108950E94763C803241F0809164
:1079F00003018F5F80930301853081F008958091AA
:107A0000C00085FFFCCF84E18093C6008091C00058
:107A100085FFFCCF80E18093C6000895E0910401CA
:107A2000F09105010995089540E951E08823A1F0FE
:107A30002D9A28EE33E0FA013197F1F721503040CA
:107A4000D1F72D9828EE33E0FA013197F1F7215064
:107A50003040D1F7815061F708953F924F925F9285
:107A60006F927F928F929F92AF92BF92CF92DF924E
:107A7000EF92FF920F931F93CF93DF93000080E16B
:107A80008093C4001092C50088E18093C10086E015
:107A90008093C2005098589A259A81E00E94143D24
:107AA00024E1F22E9EE1E92E85E9D82E0FE0C02ECA
:107AB00010E1B12EAA24A394B1E49B2EA6E58A2E50
:107AC000F2E57F2EE0E26E2E79E4572E63E5462E36
:107AD00050E5352E0E94763C8033B1F18133B9F107
:107AE000803409F46FC0813409F476C0823409F41B
:107AF00085C0853409F488C0803531F1823521F1A3
:107B0000813511F1853509F485C0863509F48DC0BC
:107B1000843609F496C0843709F403C1853709F423
:107B200072C1863709F466C0809103018F5F80932C
:107B30000301853079F6E0910401F0910501099582
:107B40000E94763C803351F60E94F33CC3CF0E94E2
:107B5000763C803249F78091C00085FFFCCFF092DF
:107B6000C6008091C00085FFFCCF9092C600809136
:107B7000C00085FFFCCF8092C6008091C00085FFC9
:107B8000FCCF7092C6008091C00085FFFCCF609250
:107B9000C6008091C00085FFFCCF5092C600809146
:107BA000C00085FFFCCF4092C6008091C00085FFD9
:107BB000FCCF3092C6008091C00085FFFCCFB09210
:107BC000C60088CF0E94763C863808F4BDCF0E945C
:107BD000763C0E94F33C7ECF0E94763C803809F4CC
:107BE0009CC0813809F40BC1823809F43CC1883942
:107BF00009F48FC080E00E94C73C6CCF84E10E94F2
:107C0000BD3C0E94F33C66CF85E00E94BD3C0E94D3
:107C1000F33C60CF0E94763C809306010E94763C44
:107C2000809307010E94F33C55CF0E94763C80333D
:107C300009F41DC183E00E94BD3C80E00E94C73C66
:107C400049CF0E94763C809309020E94763C809343
:107C5000080280910C028E7F80930C020E94763C79
:107C6000853409F415C18091080290910902892B8D
:107C700089F000E010E00E94763CF801E85FFE4FDA
:107C800080830F5F1F4F80910802909109020817AF
:107C9000190788F30E94763C803209F045CF809125
:107CA0000C0280FF01C16091060170910701660F0F
:107CB000771F7093070160930601A0910802B091AD
:107CC00009021097C9F0E8E0F1E09B01AD014E0F09
:107CD0005F1FF999FECF32BD21BD819180BDFA9A17
:107CE000F99A2F5F3F4FE417F50799F76A0F7B1F4B
:107CF00070930701609306018091C00085FFFCCF5F
:107D0000F092C6008091C00085FFFCCFB092C60003
:107D1000E1CE83E00E94C73CDDCE82E00E94C73CFA
:107D2000D9CE0E94763C809309020E94763C8093D3
:107D300008028091060190910701880F991F909386
:107D40000701809306010E94763C853409F4A6C0A1
:107D500080910C028E7F80930C020E94763C8032D0
:107D600009F0B8CE8091C00085FFFCCFF092C6002C
:107D7000609108027091090261157105B9F140E046
:107D800050E080910C02A82FA170B82FB27011C0E2
:107D9000BB2309F45CC0E0910601F0910701319624
:107DA000F0930701E09306014F5F5F4F46175707B7
:107DB000E8F4AA2369F3F999FECF209106013091E6
:107DC000070132BD21BDF89A90B58091C00085FFB2
:107DD000FCCF9093C6002F5F3F4F30930701209355
:107DE00006014F5F5F4F4617570718F38091C00099
:107DF00085FDE5CE8091C00085FFF8CFE0CE81E023
:107E00000E94C73C67CE0E94763C803209F08CCE3F
:107E10008091C00085FFFCCFF092C6008091C00029
:107E200085FFFCCFE092C6008091C00085FFFCCFAB
:107E3000D092C6008091C00085FFFCCFC092C600E2
:107E40008091C00085FFFCCFB092C60043CEE09188
:107E50000601F091070194918091C00085FFFCCF4D
:107E60009093C6009CCF80E10E94C73C33CE0E9415
:107E7000763C0E94763C182F0E94763C112309F430
:107E800083C0113009F484C08FE00E94C73C22CE29
:107E900080910C02816080930C02E5CE80910C02EF
:107EA000816080930C0259CF809107018823880F4D
:107EB000880B8A2180930B02809106019091070123
:107EC000880F991F90930701809306018091080203
:107ED00080FF09C080910802909109020196909359
:107EE000090280930802F894F999FECF1127E091D6
:107EF0000601F0910701C8E0D1E08091080290915D
:107F00000902103091F40091570001700130D9F34B
:107F100003E000935700E89500915700017001308D
:107F2000D9F301E100935700E89509901990009169
:107F3000570001700130D9F301E000935700E89534
:107F40001395103498F011270091570001700130FB
:107F5000D9F305E000935700E895009157000170B0
:107F60000130D9F301E100935700E895329602976A
:107F700009F0C7CF103011F00296E5CF112480919F
:107F8000C00085FFB9CEBCCE8EE10E94C73CA2CD19
:0C7F900085E90E94C73C9ECDF894FFCF0D
:027F9C00800063
:040000030000780081
:00000001FF
