:020000040000FA
:100000000C9464000C948C000C948C000C945B1782
:100010000C945B170C945B170C948C000C941815C3
:100020000C948C000C948C000C948C000C948C0020
:100030000C948C000C948C000C948C000C948C0010
:100040000C94F2150C948C000C94C0150C949A1519
:100050000C948C000C948C000C948C000C948C00F0
:100060000C943C160C948C00000000002400270027
:100070002A0002000000080002010000030407003B
:1000800000000000000000000000002300260029FE
:100090000000000000250028002B000404040404D4
:1000A0000404040202020202020303030303030125
:1000B00002040810204080010204081020010204FC
:1000C00008102000D317732211241FBECFEFD8E0F1
:1000D000DEBFCDBF26E0A8E9B3E001C01D92A9367E
:1000E000B207E1F713E0A0E0B1E0E2EEFAE402C00B
:1000F00005900D92A839B107D9F710E0C3E6D0E01A
:1001000004C02197FE010E944123C236D107C9F7DE
:100110000E9445190C9464250C9400008F929F92C4
:10012000AF92BF92CF92DF92EF92FF920F931F9305
:10013000FC014B01AA24BB24C52ED62EE72EFF249A
:10014000BC2DA42F90912B06B82C992391F0A92FA8
:10015000B0E0A89D9001A99D300DB89D300D1124EF
:10016000B32E9C9D60011124BD2D949F800111240C
:10017000A12F4091310620912C0630912D068091BF
:100180002E06481324C0CF01880F991F8E0F9F1F82
:10019000820F931FE0912E06E80FF92FF11DB08218
:1001A000E0912F06E80FF92FF11DB0832091300662
:1001B000820F911DFC01A0831F910F91FF90EF9082
:1001C000DF90CF90BF90AF909F908F900895CF0118
:1001D000880F991F880F991F820F931FFC01E40F4E
:1001E000F11D1082D7CF089508950895AF92BF9260
:1001F000CF92DF92EF92FF920F931F93CF93DF93F3
:100200006C017B018B01040F151FEB015E01AE1821
:10021000BF08C017D10759F06991D601ED91FC9143
:100220000190F081E02DC6010995892B79F7C50170
:10023000DF91CF911F910F91FF90EF90DF90CF90C2
:10024000BF90AF900895FC01538D448D252F30E071
:10025000842F90E0821B930B541710F0CF960895D3
:1002600001970895FC01918D828D981761F0A28D00
:10027000AE0FBF2FB11D5D968C91928D9F5F9F73C6
:10028000928F90E008958FEF9FEF0895FC01918D7C
:10029000828D981731F0828DE80FF11D858D90E0E9
:1002A00008958FEF9FEF0895FC01918D228D892F86
:1002B00090E0805C9F4F821B91098F73992708956E
:1002C00080EC94E00E94540121E0892B09F420E0A5
:1002D000822F089580E090E0892B29F00E94600130
:1002E00081110C9400000895FC01A48DA80FB92F72
:1002F000B11DA35ABF4F2C91848D90E001968F734E
:100300009927848FA689B7892C93A089B1898C916C
:10031000837080648C93938D848D981306C00288BB
:10032000F389E02D80818F7D80830895EF92FF9285
:100330000F931F93CF93DF93EC0181E0888F9B8D08
:100340008C8D98131AC0E889F989808185FF15C0C2
:100350009FB7F894EE89FF896083E889F9898081E5
:100360008370806480839FBF81E090E0DF91CF91B4
:100370001F910F91FF90EF900895F62E0B8D10E0D6
:100380000F5F1F4F0F731127E02E8C8D8E110CC045
:100390000FB607FCFACFE889F989808185FFF5CF90
:1003A000CE010E947401F1CFEB8DEC0FFD2FF11DFA
:1003B000E35AFF4FF0829FB7F8940B8FEA89FB89CD
:1003C00080818062CFCFCF93DF93EC01888D88232B
:1003D000B9F0AA89BB89E889F9898C9185FD03C0A8
:1003E000808186FD0DC00FB607FCF7CF8C9185FF8D
:1003F000F2CF808185FFEDCFCE010E947401E9CF5D
:10040000DF91CF910895833081F028F4813099F005
:100410008230A9F008958730A9F08830C9F084307F
:10042000B1F4809180008F7D03C0809180008F7730
:1004300080938000089584B58F7784BD089584B536
:100440008F7DFBCF8091B0008F778093B0000895AF
:100450008091B0008F7DF9CFCF93DF93282F30E0CC
:10046000F901ED58FF4F8491F901E155FF4FD49107
:10047000F901E556FF4FC491CC23A1F081110E94F0
:100480000302EC2FF0E0EE0FFF1FE957FF4FA5919D
:10049000B491EC91ED2381E090E009F480E0DF91EC
:1004A000CF91089580E090E0FACF1F93CF93DF9330
:1004B000282F30E0F901ED58FF4F8491F901E15503
:1004C000FF4FD491F901E556FF4FC491CC23A9F019
:1004D000162F81110E940302EC2FF0E0EE0FFF1F98
:1004E000EF56FF4FA591B4918FB7F894EC9111118D
:1004F00008C0D095DE23DC938FBFDF91CF911F9191
:100500000895DE2BF8CFCF93DF9390E0FC01E15507
:10051000FF4F249185569F4FFC0184918823D1F091
:1005200090E0880F991FFC01E859FF4FA591B49105
:10053000FC01EF56FF4FC591D49161110EC09FB7DA
:10054000F8948C91E22FE0958E238C932881E223FE
:10055000E8839FBFDF91CF9108958FB7F894EC9116
:10056000E22BEC938FBFF6CFCF93DF93EC0161E0EA
:1005700083E00E948302209731F460E083E0DF9102
:10058000CF910C945502CF3FD10511F461E0F6CF25
:10059000E6E7F0E0E491E33029F140F4E130B1F036
:1005A000E230D9F0C038D1058CF7E7CFE73021F140
:1005B000E83051F1E430B1F780918000806280939F
:1005C0008000D0938B00C0938A0004C084B58068FB
:1005D00084BDC7BDDF91CF91089584B5806284BD8D
:1005E000C8BDF8CF80918000806880938000D09350
:1005F0008900C0938800EECF8091B000806880931E
:10060000B000C093B300E6CF8091B00080628093C9
:10061000B000C093B400DECF3FB7F89480912404BB
:1006200090912504A0912604B091270426B5A89B9B
:1006300005C02F3F19F00196A11DB11D3FBFBA2F74
:10064000A92F982F8827BC01CD01620F711D811D34
:10065000911D42E0660F771F881F991F4A95D1F7B9
:100660000895CF92DF92EF92FF920F931F93CF9353
:10067000DF93CDB7DEB729970FB6F894DEBF0FBE74
:10068000CDBF80912C0690912D06892B09F480C056
:10069000C0903206D0903306E0903406F0903506D4
:1006A0000E940C036C157D058E059F0550F40E9479
:1006B0000C03609332067093330680933406909354
:1006C00035060E940C0300913206109133062091EA
:1006D000340630913506601B710B820B930B6C3224
:1006E000714081059105A0F2F894809127069091C0
:1006F00028069A838983E0912C06F0912D06DF016C
:1007000011968081898790912306E0913606F091B9
:10071000370680913806992309F449C09081982BB7
:1007200098879081809589238F838F818C8388E03F
:100730008B8358856F8149853B812C8189819A8182
:10074000508347FD252F3A952083262F39F0441FEB
:1007500000C000006083000000C0F2CF38E04D917F
:1007600060830000019761F7F0933706E093360647
:1007700049873B832C839A83898378940E940C0356
:100780006093320670933306809334069093350657
:1007900029960FB6F894DEBF0FBECDBFDF91CF9183
:1007A0001F910F91FF90EF90DF90CF90089590816F
:1007B000982B98879081809589238F838F818E8352
:1007C00088E08D8358856F8149853D812E8189819F
:1007D0009A81508347FD252F00C000C0208300C0B0
:1007E00000C000C000C000C060830000262F3A9502
:1007F00041F0441F000000C000C000C000C000C0A5
:10080000E8CF38E04D9100C0608300C0019709F740
:10081000F0933706E093360649873D832E83ABCFAE
:100820008F929F92AF92BF92CF92DF92EF92FF9200
:100830004B015C010E940C036B017C010E940C03C4
:100840006C197D098E099F09683E734081059105E9
:10085000A8F321E0821A9108A108B10888EEC80E19
:1008600083E0D81EE11CF11C81149104A104B104A1
:1008700029F7FF90EF90DF90CF90BF90AF909F90BF
:100880008F9008954F925F926F927F928F929F9276
:10089000AF92BF92EF92FF920F931F93CF938C0171
:1008A0007B0180910B018131D9F08F3F09F43FC06A
:1008B00068EC70E080E090E00E94100480910F01ED
:1008C00090E0CF911F910F91FF90EF90BF90AF906C
:1008D0009F908F907F906F905F904F900C94B40298
:1008E000E2E7F0E0C491C7FDE3CF61E081E10E945F
:1008F0008302C11132C02801012E000C660877085E
:1009000062E17AE780E090E0A30192010E94222355
:1009100049015A0181E0881A9108A108B10896E0BE
:10092000C1113BC085B5887F846085BDABC081E1C6
:1009300080930B01E2E7F0E0C491CF3F09F4B8CF18
:10094000C13009F44AC080F1C23009F464C0C7FD67
:10095000AFCF61E081E10E9483029801012E000C7B
:10096000440B550BC23009F078C029013A0164E20A
:1009700074EF80E090E00E94222349015A0181E057
:10098000881A9108A108B10895E08FEF88169104A4
:10099000A104B10411F00CF0B3CF8091B100887FB5
:1009A000892B8093B1006EC014BC15BC84B58260E5
:1009B00084BD85B5816085BDECEAF0E0E491F0E0AE
:1009C000EE0FFF1FEF56FF4F85919491E0ECF0E0A2
:1009D000E491E093B304C0E088CF109280001092BD
:1009E00081008091810088608093810080918100E6
:1009F000816080938100ECEAF0E0E491F0E0EE0F9A
:100A0000FF1FEF56FF4F85919491E0ECF0E0E491E9
:100A1000E093B2046ACF1092B0001092B1008091BE
:100A2000B00082608093B0008091B10081608093BB
:100A3000B100ECEAF0E0E491F0E0EE0FFF1FEF56BA
:100A4000FF4F859194919093B1048093B004E0ECB2
:100A5000F0E0E491E093AF0448CF60E072E18AE710
:100A600090E00E94222349015A0181E0881A9108EE
:100A7000A108B108C13031F480918100887F816084
:100A8000809381009801220F331FD7010E944723D2
:100A900028EE33E040E050E00E940023C13099F09E
:100AA000C23019F1C11104CF87BC2093BC0430932C
:100AB000BD044093BE045093BF0480916E008260D9
:100AC00080936E00F5CE90928900809288002093EA
:100AD000B8043093B9044093BA045093BB04809196
:100AE0006F00826080936F00E3CE8092B30020930A
:100AF000B4043093B5044093B6045093B704809186
:100B00007000826080937000D3CE2FB7F89460910C
:100B100020047091210480912204909123042FBF1E
:100B200008950F931F93CF93DF93EC010E948505E7
:100B3000688779878A879B87E881F9810284F385B2
:100B4000E02DCE01099597FF15C00E948505088507
:100B500019852A853B85601B710B820B930B0C81D9
:100B60001D812E813F81601771078207930720F353
:100B70008FEF9FEFDF91CF911F910F9108952091FB
:100B8000FC03260F3327331F21323105ECF420916B
:100B90008504FC0190E080E0243069F082E0089553
:100BA000A091FC032191AC0144525C4FA40FB52FDE
:100BB000B11D2C930196861798F38091FC03680F62
:100BC0006093FC0380E0089581E00895109285040D
:100BD00081E08093840410925F0461E082E10E94CE
:100BE000550261E083E10E945502E9EBF0E080816B
:100BF0008E7F808380818D7F808388E48093B8009E
:100C000085E48093BC000895CF93DF9391E09093A7
:100C1000DB038823B9F0C091B800D091BA0080916D
:100C2000BC008A7B8093BC0060E082E10E94550298
:100C300060E083E10E9455020E94E605D093BA006D
:100C4000C093B800DF91CF910895CF92DF92EF92D9
:100C5000FF920F931F93CF93DF93D091AE0481E067
:100C6000D13208F09CC0C091AD040E940C036B010E
:100C70007C018091850481116CC082E080938504A1
:100C800081E0809384048FEF809383041092820428
:100C9000D0938104ADE8B4E0E1E6F4E080E0D8135D
:100CA0008DC01092600480916004CC0FC82BC0935B
:100CB000600480915F04813009F084C010925F0469
:100CC0000E940C036B017C01809160048093BB0047
:100CD0008091870490918804A0918904B0918A043E
:100CE000892B8A2B8B2BA1F00E940C030091870487
:100CF000109188042091890430918A046C197D092F
:100D00008E099F09061717072807390708F442C0FC
:100D10008091BC0083FDD8CF85EC8093BC000E94FD
:100D20000C036B017C0180918504823009F44CC076
:100D3000809183048F3F09F469C0809183048032DD
:100D400009F466C080918304803309F463C084E0B1
:100D500026C08091870490918804A0918904B09165
:100D60008A04892B8A2B8B2B09F483CF0E940C03D6
:100D700000918704109188042091890430918A049D
:100D80006C197D098E099F0906171707280739076F
:100D900008F06FCF809186040E94040685E01092CF
:100DA0008C041092AE0410928B04DF91CF911F91AE
:100DB0000F91FF90EF90DF90CF9008959D919193C8
:100DC0008F5F6DCF85EEA9CF8091870490918804C5
:100DD000A0918904B0918A04892B8A2B8B2B09F46A
:100DE000A2CF0E940C0300918704109188042091E7
:100DF000890430918A046C197D098E099F090617B0
:100E000017072807390708F08ECFC4CF80E0C7CF77
:100E100082E0C5CF83E0C3CFCF92DF92EF92FF9203
:100E20000F931F93CF93DF93D82FC62F613208F013
:100E300098C00E940C036B017C0180918504811194
:100E40006BC081E080938504809384049FEF90932E
:100E50008304109282049C0F909381048093600419
:100E600080916004DD0FD82BD093600480915F04E3
:100E7000813009F078C010925F040E940C036B016E
:100E80007C01809160048093BB00809187049091E5
:100E90008804A0918904B0918A04892B8A2B8B2B1A
:100EA000A1F00E940C030091870410918804209106
:100EB000890430918A046C197D098E099F090617EF
:100EC00017072807390708F448C08091BC0083FD44
:100ED000D8CF85EC8093BC000E940C036B017C0191
:100EE00080918504813009F440C0809182048C1780
:100EF00010F4C0918204E1E6F4E0AFE3B4E080E0F6
:100F00008C1355C08C2FDF91CF911F910F91FF90C3
:100F1000EF90DF90CF90089580918704909188049E
:100F2000A0918904B0918A04892B8A2B8B2B09F418
:100F300084CF0E940C0300918704109188042091B3
:100F4000890430918A046C197D098E099F0906175E
:100F500017072807390708F070CF809186040E9490
:100F60000406C0E0CFCF85EEB5CF80918704909185
:100F70008804A0918904B0918A04892B8A2B8B2B39
:100F800009F4AECF0E940C030091870410918804ED
:100F90002091890430918A046C197D098E099F097A
:100FA000061717072807390708F09ACFD6CF91916F
:100FB0009D938F5FA5CF0895E0913D0480913C04FF
:100FC000E81730F4F0E0E15CFB4F808190E0089599
:100FD0008FEF9FEF089590913D0480913C042FEF97
:100FE0003FEF981748F4E92FF0E0E15CFB4F2081D8
:100FF00030E09F5F90933D04C901089580913C04C7
:1010000090913D04891B990B0895CF92DF92EF9246
:10101000FF920F931F93CF93DF937C01CB018A0143
:1010200020918B04222389F0EB016B01C40ED51EA5
:10103000CC15DD0569F06991D701ED91FC91019026
:10104000F081E02DC7010995F3CF642F0E94BF0501
:10105000C801DF91CF911F910F91FF90EF90DF902A
:10106000CF900895CF93DF931F92CDB7DEB76983FA
:1010700020918B042223F9F02091AE04203258F005
:1010800021E030E0FC013383228390E080E00F9088
:10109000DF91CF91089580918C04E82FF0E0E35721
:1010A000FB4F998190838F5F80938C048093AE0473
:1010B00081E090E0ECCF61E0CE0101960E94BF0597
:1010C000F7CFCF93C62F90913E04906221E02093FA
:1010D0008B049093AD0410928C041092AE04682F90
:1010E0008DE595E00E9432086C2F8DE595E00E9419
:1010F0003208CF910C942506FC01248131E0309315
:101100008B042093AD0410928C041092AE0484855D
:10111000682B8DE595E00E9432080C94250688E046
:101120008093450660E089E396E00C947C08609328
:101130003A0470933B0491E090938B048093AD0448
:1011400010928C041092AE048DE595E00E94320856
:101150000C94250620912A0430912B042817390776
:1011600071F49091280480912904981741F0E0913E
:101170002804F0E0E556FC4F808190E008958FEF61
:101180009FEF0895EF92FF920F931F93CF93DF93FA
:10119000DC015C96ED90FC905D97E114F10479F42C
:1011A00081E090E013969C938E93129790E080E0FC
:1011B000DF91CF911F910F91FF90EF90089551967D
:1011C000ED91FC91529750968C915097982F909555
:1011D0000FB75E962C915E97122F127021FD6095CD
:1011E000F8942081112319F1282B2083E7012197FE
:1011F000F1F728E0462F50E0308160FF1AC0382B0D
:101200003083E7012197F1F7BA0175956795215071
:1012100089F7112381F08081892380830FBF5C9639
:101220008D919C910197F1F781E090E0C1CF292346
:10123000DCCF3923E5CF9081892BEFCF20912A0491
:1012400030912B042817390771F4809129042091DB
:10125000280490E0805C9F4F821B910960E470E05D
:101260000E94EC22089590E080E0089520912A04E5
:1012700030912B0428173907B9F4909128048091F4
:101280002904981789F0E0912804F0E0E556FC4F16
:1012900080812091280430E02F5F3F4F2F73332748
:1012A0002093280490E008958FEF9FEF089590E039
:1012B00080E0089510929A0361E089E00E9455024F
:1012C00064E670E080E090E00E94100461E08AE053
:1012D0000C94550260E08CE00E94550268E572E0D3
:1012E00080E090E00E94100461E08CE00C945502D4
:1012F00060E085E00E94550260E47CE980E090E0D7
:101300000E94100461E085E00C9455028F929F9238
:10131000AF92BF92FF920F931F93CF93DF93982FBB
:10132000990F990F990F24E0F22EF90E98E0899FFA
:10133000E00111242B96469F002D112410E030E08F
:1013400020E048015901A62A322F212F102F002713
:10135000802A912AA22AB32A8F2D90E0C817D90794
:101360007CF020912506309126068217930720F401
:10137000B501A4010E948E000E943103F394ECCFCA
:10138000DF91CF911F910F91FF90BF90AF909F90F1
:101390008F9008950F93362FE42F90E0409125060B
:1013A000509126068417950740F4422F50E070E0D4
:1013B00060E05E2B632B0E948E00002319F00F91DA
:1013C0000C9431030F9108950F938091300488237A
:1013D00061F001E020E040E060E080E00E94CA09A6
:1013E00081E080930701109230040F91089590914D
:1013F0003E04906221E020938B049093AD04109200
:101400008C041092AE04682F8DE595E00E9432089E
:101410000E94250680913E0461E080620E940C07D4
:1014200010923D0480933C048DE595E00E94EB070B
:101430000895CF93C82FC770883060F083E10E9471
:10144000F70990E002C095958795CA95E2F78170FB
:10145000CF91089582E1F3CFCF93DF93C82FD1E0EE
:10146000883008F4D0E08D2F0E94F709C77041E062
:1014700050E060E070E004C0440F551F661F771F06
:10148000CA95D2F7682F642B8D2FDF91CF910C94E2
:101490006108CF93DF93C82FDDE0883008F4DCE0EB
:1014A0008D2F0E94F709C77041E050E060E070E0C6
:1014B00004C0440F551F661F771FCA95D2F7682FC7
:1014C000642B8D2FDF91CF910C946108CF92DF9226
:1014D000EF92FF920F931F93CF93DF93C091380445
:1014E000D0913904F0906905E0906A05FE01EE0F95
:1014F000FF1FE25BFE4F608171818F2D9E2D0E9448
:10150000970896E4C92E91E0D92E10E000E0809172
:101510001101909112010817190784F561E08F2DD0
:101520000E940C0710923D0480933C048DE595E0E9
:101530000E94EB07F601419151916F0120913A040D
:1015400030913B048227932784179507A1F485E007
:101550008C9FF0018D9FF00D1124EE5CFE4FE00F8B
:10156000F11F8081082E000C990B90933704809313
:10157000360480E00DC00F5F1F4FC9CF8091360445
:1015800090913704009769F0109237041092360456
:10159000DF91CF911F910F91FF90EF90DF90CF904F
:1015A00008956FEF70E08F2D9E2D0E949708219671
:1015B000D0933904C09338048091130190911401A1
:1015C000C817D907B1F61092390410923804D1CF58
:1015D0000F931F93CF938C01C62F0E947C086C2F12
:1015E0006460C8010E947C086C2F6B7FC8010E9458
:1015F0007C0883EC90E00197F1F7CF911F910F9158
:1016000008950F931F93CF93DF938C01D62FC42F90
:10161000607F642B0E94E80A80E1D89FB00111240A
:101620006C2BC801DF91CF911F910F910C94E80AA8
:10163000CF93DF93CDB7DEB728970FB6F894DEBF10
:101640000FBECDBF98E0EBE1F1E0DE011196019015
:101650000D929A95E1F790914106961710F46FEF6D
:10166000690F262F30E0220F331F41E050E04C0F6E
:101670005D1F240F351FF9016081680F606840E02D
:1016800089E396E028960FB6F894DEBF0FBECDBF73
:10169000DF91CF910C94010B40E061E089E396E08B
:1016A0000E94010B8BE39FE10197F1F780914206C5
:1016B000882321F060E080E00C94180B089541E04D
:1016C0000E94010B81E090E00895CF93DF93EC013D
:1016D00088819981009711F00E94FE231982188257
:1016E0001D821C821B821A82DF91CF910895FC011A
:1016F00080819181009711F00C94FE230895CF937F
:10170000DF931092450660E089E396E00E947C0832
:10171000409127065091280670E060E080912C06E9
:1017200090912D060E944D250E94310361E08BE0CF
:101730000E94550283E00E94190A882359F1809182
:101740002106909122060A9764F4EFE9F5E0D0E0D3
:10175000C0E081919191892B31F12196CA30D10558
:10176000C1F7CFEFDFEFD0939903C093980381E0E7
:1017700080939A0368EE73E080E090E00E9410048A
:1017800081E0809331048093070110923004DF914F
:10179000CF91089561E08AE00E94550261E089E0FE
:1017A0000E945502E7CFFE01EE0FFF1FEE0FFF1F55
:1017B000ED54FA4F80EC94EDA1E0B0E0808391838A
:1017C000A283B383FE01EE0FFF1FE156FA4F8AE5B5
:1017D00099E091838083FE01EE0FFF1FE552FA4FDF
:1017E00081E090E091838083FE01ED5FF94F80837B
:1017F0000E948505FE01EE0FFF1FEE0FFF1FE95847
:10180000FA4F608371838283938380912106909144
:10181000220601969093220680932106A4CF60E0D1
:1018200086E00E94550260E47CE980E090E00E943E
:10183000100461E086E00E9455020C947F0B209119
:101840006F0530917005232B39F421E0FC01808174
:10185000882361F020E00AC0BC0180916B05909163
:101860006C050E94542521E0892BA1F7822F089551
:10187000FB0101900020E9F73197AF01461B570BA0
:10188000DC01ED91FC910280F381E02D0994CF936E
:10189000DF93FC01448155816081718180EC94E08B
:1018A0000E94F600EC0168E971E080EC94E00E948F
:1018B000380C8C0F9D1FDF91CF9108958F929F92CE
:1018C000AF92BF92EF92FF920F931F93CF93DF934C
:1018D000CDB7DEB7A1970FB6F894DEBF0FBECDBF70
:1018E0007C01FA01CB0119A2223008F42AE08E0112
:1018F0000F5D1F4F822E912CB12CA12CBF01A50191
:1019000094010E940023F901CA016A300CF5605D60
:10191000D8016E938D01232B242B252B79F790E092
:1019200080E0109721F0BD01C7010E94380CA196FC
:101930000FB6F894DEBF0FBECDBFDF91CF911F91E0
:101940000F91FF90EF90BF90AF909F908F90089570
:10195000695CDECF462F50E070E060E02AE00C9436
:101960005E0CAB01770F660B770B2AE00C945E0CD4
:101970000F931F93CF93DF93EC010E94380C8C01DF
:1019800068E971E0CE010E94380C800F911FDF9151
:10199000CF911F910F9108950C94380C0F93CF9312
:1019A000C09106018C2F880F63E08C0F0E94180BEA
:1019B000C33008F06FC0EC2FF0E0E050FF4F8081A3
:1019C000682F70E08530E8F16450710989E396E092
:1019D0000E94B10C6FEB71E089E396E00E94CC0CA1
:1019E00020910601822F90E0FC01E85FFE4F31E07C
:1019F0003083FC01E050FF4FE081F0E0E85DFE4FF6
:101A00006081FC01E45FFE4F60838D5C9B4FFC01B5
:101A10008081689F602D112441E082E0821B0E943A
:101A2000860980910601982F990F63E0890F0E9423
:101A3000180B68EC70E080E090E0CF910F910C946F
:101A400010046F5F7F4F89E396E00E94B10C67EA54
:101A500071E089E396E00E94CC0C20910601822F70
:101A600090E0FC01E85FFE4F1082FC01E050FF4F68
:101A7000E081F0E0E35DFE4F6081FC01E45FFE4F3A
:101A800060838D5C9B4FFC018081689F602D1124D9
:101A900040E0C3CFC43029F56091040189E396E0AA
:101AA0000E94AA0CE0910601F0E0E050FF4FE081B7
:101AB000F0E0E85DFE4FC081C093100101E020E03E
:101AC00040E06C2F81E00E94CA0981E00E94190A5F
:101AD000C89F602D112420E040E082E00E94CA09E6
:101AE000A0CFC330B1F46091030189E396E00E9476
:101AF000AA0CE0910601F0E0E050FF4FE081F0E039
:101B0000ED5DFE4F808180930F0190E00E94B40252
:101B100088CFEC2FF0E0E050FF4FE081EF3008F08D
:101B200080CFF0E0EA56F24F0C944123A50DAC0DA6
:101B3000AF0DB20DB50DB80DBB0DBE0DC70DCA0D65
:101B4000CD0DD00DD30DD60DC40D68E272E089E342
:101B500096E00E94CC0C65CF69EA71E0F8CF6FEA9D
:101B600071E0F5CF65EB71E0F2CF6BEB71E0EFCF99
:101B700061EC71E0ECCF67EC71E0E9CF8091320469
:101B800061EA71E0882319F36BE971E0E0CF6DEC55
:101B900071E0DDCF63ED71E0DACF69ED71E0D7CFB1
:101BA0006FED71E0D4CF65EE71E0D1CF6BEE71E0F7
:101BB000CECF0F931F93CF93DF938C01EB01FC01EA
:101BC000808191810097E1F06881798161157105CB
:101BD000A9F0428153812C813D814217530770F057
:101BE0000E945D258C819D81F801958384831D82EF
:101BF0001C82DF91CF911F910F9108950E94FE23C7
:101C000088819981F801918380838A819B81938364
:101C100082838C819D8195838483198218821B82A3
:101C20001A82E5CF0F931F93CF93DF93EC01888146
:101C30009981009759F02A813B812617370730F0A8
:101C400081E0DF91CF911F910F9108958B016F5F1C
:101C50007F4F0E948724009759F0998388831B83C4
:101C60000A832C813D81232B59F7FC011082E8CF98
:101C700080E0E7CFEF92FF920F931F93CF93DF9314
:101C80006115710541F480E0DF91CF911F910F91B3
:101C9000FF90EF90089541155105B1F07B01EC01E3
:101CA0000C811D81040F151FB8010E94120E88239C
:101CB00051F3288139818C819D81B701820F931F57
:101CC0000E945D251D830C8381E0DECFEF92FF92A1
:101CD0000F931F93CF93DF93EC017B018A01BA012D
:101CE0000E94120E81110BC0CE010E94650BCE0125
:101CF000DF91CF911F910F91FF90EF9008951D8379
:101D00000C83B701888199810E945D25F0CFCF9324
:101D1000DF93EC01FB018617970749F06081718121
:101D20006115710541F0448155810E94660ECE0116
:101D3000DF91CF9108950E94650BF9CFFC011182CC
:101D400010821382128215821482FB0101900020FE
:101D5000E9F73197AF01461B570B0C94660EEF92D3
:101D6000FF920F931F93CF93DF9300D0CDB7DEB7D1
:101D70008C017B016AE971E00E949E0EC7010E94FE
:101D8000910597FD0EC08332910559F089831A821F
:101D900041E050E0BE016F5F7F4FC8010E943A0EE4
:101DA000EDCFC8010F900F90DF91CF911F910F9150
:101DB000FF90EF900895AF92BF92CF92DF92EF9293
:101DC000FF920F931F93CF93DF937C016B015A0116
:101DD00089012417350720F48B2D5901042F182F62
:101DE0006AE971E0C7010E949E0ED6011496CD915A
:101DF000DC91AC16BD0620F50C171D0708F4E801B0
:101E0000D601ED91FC911197EC0FFD1F108110820E
:101E10006D917C916A0D7B1D61157105E9F0FB01E7
:101E200001900020E9F73197AF01461B570BC7011E
:101E30000E94660EF60180819181C80FD91F188318
:101E4000C701DF91CF911F910F91FF90EF90DF902D
:101E5000CF90BF90AF900895C7010E94650BEACF65
:101E6000EF92FF920F93CF93DF9300D000D000D07A
:101E7000CDB7DEB77C018091100101E0623009F43A
:101E800049C0633009F44AC0282F40E0613009F0AE
:101E900043C020E040E0682F81E00E94CA0944E18D
:101EA00050E061EF71E0C7010E943A0E2FE030E090
:101EB00050E040E0B701CE0101960E94DB0EBE016A
:101EC0006F5F7F4FC7010E94D90DCE0101960E941E
:101ED000770B61E080E00E94180BF7014481558187
:101EE0006081718189E396E00E94F600809106018D
:101EF000982F990F63E0890F0E94180B26960FB652
:101F0000F894DEBF0FBECDBFDF91CF910F91FF9050
:101F1000EF900895282F482F60E0BECF20E0FBCF40
:101F20000F931F93CF93DF9300D000D000D0CDB795
:101F3000DEB780919A038823F1F110929A03809181
:101F40009803909199038A309105ACF52091210670
:101F5000309122062115310571F1FC01EE0FFF1FB2
:101F6000E156FA4F40815181452B29F111821082AF
:101F7000FC01ED5FF94F1082FC01EE0FFF1FE35FE4
:101F8000F94F11821082FC01EE0FFF1FEE0FFF1FB1
:101F9000ED54FA4F1082118212821382880F991F1A
:101FA000FC01E151FA4F1182108221503109309326
:101FB00022062093210660E08AE00E94550260ED2F
:101FC00077E080E090E00E9410041091100100E0A2
:101FD00020E040E0612F81E00E94CA0920E040E05B
:101FE000612F82E00E94CA0901E02FE04FE06FE01C
:101FF00080E00E94CA0980910F0190E00E94B40223
:102000000E944C0B0E948F0862E080E00E94180B37
:1020100066E072E089E396E00E94CC0C63E080E029
:102020000E94180B69E172E089E396E00E94CC0CF3
:1020300080910601982F990F63E0890F0E94180B79
:1020400060913F06862F816080933F06696040E083
:1020500089E396E00E94010B6EE272E0CE010196E8
:102060000E949E0E61E0CE0101960E94300FCE01CB
:1020700001960E94770B60E08BE00E94550281E0A0
:102080000E94190A91E0811190E09093310410921E
:1020900007011092300426960FB6F894DEBF0FBEEB
:1020A000CDBFDF91CF911F910F910895CF93DF9313
:1020B00000D000D000D0CDB7DEB760E08AE00E944B
:1020C000550260ED77E080E090E00E94100461E34B
:1020D00072E0CE0101960E949E0E60E0CE01019654
:1020E0000E94300FCE0101960E94770B60E087E0DE
:1020F0000E94550260E47CE980E090E00E941004B8
:1021000069E372E0CE0101960E949E0E61E0CE016D
:1021100001960E94300FCE0101960E94770B61E07C
:1021200087E00E94550226960FB6F894DEBF0FBED8
:10213000CDBFDF91CF910895CF93DF9300D000D032
:1021400000D0CDB7DEB761E472E0CE0101960E9407
:102150009E0E60E0CE0101960E94300FCE010196E6
:102160000E94770B60E088E00E94550260E47CE901
:1021700080E090E00E94100469E472E0CE010196D4
:102180000E949E0E61E0CE0101960E94300FCE01AA
:1021900001960E94770B61E088E00E94550261E0A1
:1021A0008AE00E94550226960FB6F894DEBF0FBE55
:1021B000CDBFDF91CF9108950F931F93CF93DF93FE
:1021C00000D000D000D0CDB7DEB78C0180EC94E019
:1021D0000E94540160EC74E0892B41F486E496E09F
:1021E0000E941E09892B49F166E476E0CE01019632
:1021F0000E94AF0EBE016F5F7F4F8BE695E00E949D
:10220000D90DCE0101960E94770BF8011182108240
:1022100013821282158214826BE675E0C8010E9457
:10222000870EC80126960FB6F894DEBF0FBECDBF4D
:10223000DF91CF911F910F9108956AE971E0C80174
:102240000E949E0EEECF0F931F93CF93DF93CDB7D7
:10225000DEB72C970FB6F894DEBF0FBECDBF8C0152
:1022600062E572E0CE0101960E949E0EF801448163
:10227000558160817181CE0101960E943A0E8111D3
:1022800004C0CE0101960E94650BCE0101960E940A
:10229000470CCE0101960E94770B61E089E00E9415
:1022A000550261E08BE00E94550261E08CE00E94E3
:1022B000550261E088E00E94550261E087E00E94DB
:1022C000550261E086E00E94550261E085E00E94CF
:1022D000550261E08BE00E94550281E08093320458
:1022E00067E572E0CE0101960E949E0EF8014481DE
:1022F000558160817181CE0101960E943A0E811153
:1023000004C0CE0101960E94650B18861F821A86B2
:1023100019861C861B86BE016F5F7F4FCE01079614
:102320000E94870E63E0CE0107960E94300FCE0117
:1023300007960E94770BCE0101960E94770B01E071
:1023400020E042E360E081E00E94CA090E948F0819
:1023500084E10E94190A811107C064E670E080E000
:1023600090E00E941004F4CF2C960FB6F894DEBFD4
:102370000FBECDBFDF91CF911F910F9108958F9226
:102380009F92AF92BF92CF92DF92EF92FF920F9304
:102390001F93CF93DF9300D000D000D0CDB7DEB72E
:1023A0004B015C01042F0E9485056B017C0110E04C
:1023B0000E9485056C197D098E099F0968157905AC
:1023C0008A059B0508F06BC0CE0101960E94DC10C7
:1023D000BE016F5F7F4F8BE695E00E94D90DCE0165
:1023E00001960E94770B8EE592E00E941F0C8823D5
:1023F00041F161E672E080EC94E00E94B80C63E683
:1024000072E0CE0101960E949E0ECE0101960E94BE
:102410002311CE0101960E94770B80E026960FB61D
:10242000F894DEBF0FBECDBFDF91CF911F910F910A
:10243000FF90EF90DF90CF90BF90AF909F908F90E4
:10244000089581E00E94190A811106C083E00E946C
:10245000190A811101C01F5F133018F06CEB72E094
:10246000D0CF002369F085E00E94190A882341F04B
:1024700087E00E94190A882319F06AE672E0C1CF4A
:1024800084E10E94190A811103C063E772E0B9CFA9
:1024900064E670E080E090E00E94100489CF81E063
:1024A000BDCF0F931F93CF93DF9300D000D000D008
:1024B000CDB7DEB7182F8AE00E942C0200E0892BEE
:1024C00059F060E08AE00E94550260ED77E080E01C
:1024D00090E00E94100401E0112309F4B8C086E0E6
:1024E0000E94190A8111D4C082E00E94190A811148
:1024F000CFC06AE772E0CE0101960E949E0E62E0B4
:10250000CE0101960E94300FCE0101960E94770BFA
:10251000002321F061E08AE00E94550210E0812F43
:1025200026960FB6F894DEBF0FBECDBFDF91CF91D8
:102530001F910F91089564E670E080E090E00E94A2
:10254000100486E00E94190A8111F5CF82E00E94F2
:10255000190A8111F0CF68E873E180E090E00E94F1
:10256000100461E087E00E94550261E085E00E946E
:1025700055026AE872E0CE0101960E949E0E61E06B
:10258000CE0101960E94300FCE0101960E94770B7A
:1025900063E972E086E496E00E94B80CC0CF6091D7
:1025A000100101E020E0462F81E00E94CA0961E0AD
:1025B0008BE00E94550267E972E0CE0101960E940D
:1025C0009E0E61E0CE0101960E94300FCE01019671
:1025D0000E94770B60E086E00E94550241E060E4D3
:1025E0007FE180E090E00E94BF11882309F496CF3C
:1025F0006FE972E0CE0101960E949E0E60E0CE016E
:1026000001960E94300FCE0101960E94770B60E088
:1026100088E00E94550241E060E47CE980E090E0BF
:102620000E94BF11182F882309F478CF61E088E059
:102630000E94550261E086E00E94550268EA72E05D
:1026400086E496E00E94B80C0E947F0B68CF84E07D
:102650000E94190A811106C080E00E94190A88238D
:1026600009F447CF85E00E94190A882309F497CF1F
:102670006AE772E0CE0101960E949E0E62E0CE01F2
:1026800001960E94300FCE0101960E94770B47CF32
:102690000E94900F0E948F0861E372E0CE010196C4
:1026A0000E949E0E60E0CE0101960E94300FCE0186
:1026B00001960E94770B60E087E00E94550268E86F
:1026C00073E180E090E00E94100460E085E00E94E9
:1026D00055026CEA72E0CE0101960E949E0E60E007
:1026E000CE0101960E94300FCE0101960E94770B19
:1026F00060E375E780E090E022CF0F931F93CF93C4
:10270000DF9300D000D000D0CDB7DEB7082F8AE02D
:102710000E942C0210E0892B59F060E08AE00E94B0
:10272000550260ED77E080E090E00E94100411E037
:1027300085E0011187E00E94190A81111EC06AE735
:1027400072E0CE0101960E949E0E62E0CE010196DB
:102750000E94300FCE0101960E94770B111141C0EB
:1027600010E0812F26960FB6F894DEBF0FBECDBFC6
:10277000DF91CF911F910F91089581E00E94190A76
:102780008823A1F183E00E94190A882321F061E0E7
:1027900089E00E9455026091100101E020E0462F7F
:1027A00081E00E94CA0986E00E94190A81114DC089
:1027B00082E00E94190A811148C08BE00E942C021D
:1027C000892B09F44EC060E08BE00E94550241E085
:1027D00060E177E280E090E00E94BF11811141C08A
:1027E000BFCF61E08AE00E945502BACF65EB72E08C
:1027F000CE0101960E949E0E62E0CE0101960E94DB
:10280000300FCE0101960E94770B61EC72E086E4F6
:1028100096E00E94380C03E181E00E94190A8111C0
:1028200002C0015059F481E00E94190A8111AACF17
:1028300083E00E94190A8111A5CF90CF60E177E271
:1028400080E090E00E941004E7CF8BE00E942C0211
:10285000892B21F060E08BE00E94550281E00E940C
:10286000511265EC72E0CE0101960E949E0E60E06E
:10287000CE0101960E94300FCE0101960E94770B87
:1028800041E064E682E00E94860985E00E94190A20
:10289000882309F459C087E00E94190A882309F4A3
:1028A00053C040E068EF7AE280E090E00E94BF1100
:1028B000882309F455CF85E00E94190A81115AC076
:1028C00040E060ED77E080E090E00E94BF11182FBB
:1028D000882309F445CF41E060E082E00E94860948
:1028E00087E00E94190A882309F450C083E00E94FF
:1028F000190A882321F061E089E00E94550269ED00
:1029000072E0CE0101960E949E0E61E0CE0101961A
:102910000E94300FCE0101960E94770B64EF71E0A8
:1029200080E090E00E94100480E00E94511265EE69
:1029300072E086E496E00E94B80C68EE73E088EBE3
:1029400091E00E9442040DCF60E08CE00E945502AD
:1029500068E572E080E090E00E94100461E08CE0A5
:102960000E94550240E060EA7FE080E090E00E9433
:10297000BF118BCF87E00E94190A882309F4A0CFEA
:1029800040E068EE73E080E090E090CF69EE72E0A6
:1029900086E496E00E94B80C6DEE72E0CE010196DE
:1029A0000E949E0E61E0CE0101960E94300FCE0182
:1029B00001960E94770B60E089E00E945502BDCF2E
:1029C00085ED8093BC008091870490918804A0914C
:1029D0008904B0918A040796A11DB11D23E0B69524
:1029E000A795979587952A95D1F72091BC0024FD4E
:1029F00003C0109285040895409187045091880483
:102A00006091890470918A04452B462B472B69F30A
:102A10000097A105B10541F025E32A95F1F70000E3
:102A20000197A109B109E1CF809186040C940406B5
:102A30001F920F920FB60F9211242F933F934F9333
:102A40005F936F937F938F939F93AF93BF93EF9316
:102A5000FF938091B4049091B504A091B604B09115
:102A6000B704892B8A2B8B2BD1F19091AF04E09185
:102A7000B004F091B1048081892780838091B404EF
:102A80009091B504A091B604B091B7041816190638
:102A90001A061B069CF48091B4049091B504A09191
:102AA000B604B091B7040197A109B1098093B404A9
:102AB0009093B504A093B604B093B704FF91EF913F
:102AC000BF91AF919F918F917F916F915F914F9146
:102AD0003F912F910F900FBE0F901F9018958091EE
:102AE0000B01E2E7F0E0E4919FEF90930B01E130FE
:102AF00051F030F0E23069F060E00E945502DECF24
:102B000010926E00F9CF90916F009D7F90936F00AF
:102B1000F3CF909170009D7F9093700091E090931F
:102B2000B0009091B100987F94609093B1001092A2
:102B3000B300E2CF1F920F920FB60F9211242F9382
:102B40003F934F935F936F937F938F939F93AF9335
:102B5000BF93EF93FF9380EC94E00E947401FF9188
:102B6000EF91BF91AF919F918F917F916F915F9105
:102B70004F913F912F910F900FBE0F901F9018957E
:102B80001F920F920FB60F9211242F938F939F9342
:102B9000EF93FF93E091D004F091D1048081E09114
:102BA000D604F091D70482FD1BC090818091D90496
:102BB0008F5F8F732091DA04821741F0E091D9047E
:102BC000F0E0E054FB4F958F8093D904FF91EF9193
:102BD0009F918F912F910F900FBE0F901F9018957E
:102BE0008081F4CF1F920F920FB60F9211242F9372
:102BF0003F938F939F93AF93BF93809120049091C5
:102C00002104A0912204B091230430911F0423E0F9
:102C1000230F2D3758F50196A11DB11D20931F04D8
:102C20008093200490932104A0932204B093230462
:102C30008091240490912504A0912604B09127044A
:102C40000196A11DB11D8093240490932504A093A7
:102C50002604B0932704BF91AF919F918F913F912C
:102C60002F910F900FBE0F901F90189526E8230FFD
:102C70000296A11DB11DD2CF1F920F920FB60F92D7
:102C800011242F933F934F935F936F937F938F9371
:102C90009F93AF93BF93EF93FF938091B900887F89
:102CA000803609F44AC0F0F5883209F4A7C018F557
:102CB000803109F49BC0B8F4882309F4F9C0883046
:102CC00009F494C0FF91EF91BF91AF919F918F91C3
:102CD0007F916F915F914F913F912F910F900FBE18
:102CE0000F901F901895883109F488C0803251F7F1
:102CF0008093830414C0803409F49DC040F4803371
:102D0000B9F38833F9F68093830485ECB0C080353D
:102D100009F485C0883509F496C0883499F60E9474
:102D2000E014D0CF883909F48CC038F5883729F001
:102D300050F4883611F0803729F683E080938504BB
:102D400010921E0457C0883809F47BC0803919F0EE
:102D5000803809F0B7CF80911E04803208F071C02E
:102D6000E0911E0481E08E0F80931E048091BB00D1
:102D7000F0E0E250FC4F80833DC0803B39F0E0F44E
:102D8000803A09F479C0883A09F09CCF84E08093B6
:102D900085041092FD031092FC03E0912E04F09143
:102DA0002F0409958091FC0381110FC081E080936D
:102DB000FC031092DC0309C0803C09F4A6CF883CD8
:102DC00009F4A3CF883B09F07DCFE091FD0381E0BA
:102DD0008E0F8093FD03F0E0E452FC4F80818093DE
:102DE000BB009091FD038091FC0329C08091600499
:102DF0008093BB0085EC8093BC0064CF90918204EB
:102E000080918104981758F5E091820481E08E0F3B
:102E100080938204F0E0EF59FB4F8081E9CFE0918D
:102E2000820481E08E0F809382048091BB00F0E0E9
:102E3000EF59FB4F80839091820480918104981711
:102E4000C8F285E8D8CFE091820481E08E0F8093AC
:102E500082048091BB00F0E0EF59FB4F80838091AA
:102E6000840481115CCF81E080935F0484EA8093C5
:102E7000BC001092850426CF85EC8093BC00109294
:102E8000850480911E04803230F4E0911E04F0E04D
:102E9000E250FC4F108260911E0470E0E0912C041F
:102EA000F0912D048EEF93E0099510921E040ACF45
:102EB0001092830434CF1F920F920FB60F921124F9
:102EC0002F933F934F935F936F937F938F939F9332
:102ED000AF93BF93EF93FF93E0912A04F0912B04FB
:102EE000309749F0A685B7858585968D91FF14C0EA
:102EF0009C918923A1F4FF91EF91BF91AF919F9194
:102F00008F917F916F915F914F913F912F910F9092
:102F10000FBE0F901F9018959C91892361F7A3898C
:102F2000B4899C918589809589238C93868997891A
:102F30000197F1F7608D718DA685B785558538E0CD
:102F400020E0CB010197F1F7822F90E095958795CE
:102F5000282F4C91452309F02068315091F7868D38
:102F600081FD20958091290490E001968F73992727
:102F700030912804381799F0A0912904B0E0A556A3
:102F8000BC4F2C9380932904828D938D0197F1F788
:102F9000A389B4898C919589892B8C93ACCF868D2C
:102FA0008160868FF1CFCF93DF931092C30410928C
:102FB000C20488EE93E0A0E0B0E08093C404909354
:102FC000C504A093C604B093C7042AE531E030934A
:102FD000C1042093C00425EC30E03093CD0420934D
:102FE000CC0424EC30E03093CF042093CE0420ECCA
:102FF00030E03093D1042093D00421EC30E03093C2
:10300000D3042093D20422EC30E03093D5042093F3
:10301000D40426EC30E03093D7042093D6041092E9
:10302000D9041092DA041092DB041092DC0410929E
:10303000600510925F058093610590936205A093EF
:103040006305B09364052CE631E030935E05209370
:103050005D05109249061092480680934A069093A7
:103060004B06A0934C06B0934D068AE891E09093EE
:1030700047068093460610925D0610925C061092F9
:103080005F0610925E061092610610926006109222
:10309000630610926206609164066E7F6D7F609396
:1030A00064066695617081E0682782E00E9455029F
:1030B00061E082E00E948302E1EBF0E0E491E093C2
:1030C0005606EDE9F0E0E491F0E0EE0FFF1FEF5659
:1030D000FF4F85919491909358068093570660E036
:1030E00080E10E9483028091640681FD04C061E05A
:1030F00080E10E94550280E180935206EFEBF0E000
:10310000E491E0935306EBEAF0E0E491F0E0EE0F97
:10311000FF1FE957FF4F8591949190935506809337
:10312000540686E290E090936A058093690584E0F6
:1031300090E0909314018093130190931201809377
:10314000110110923C0610923B068EE791E090939D
:103150003A06809339061092420687E280933D0634
:1031600084E18093430684E08093440610924506F0
:103170001092240610922B061092320610923306FB
:10318000109234061092350681E0809331068093C8
:103190002E0610922F0682E08093300610922306AE
:1031A00084E590E090932806809327060E9462238E
:1031B00090932D0680932C06009709F45DC024E5BA
:1031C000DC011D922A95E9F78CE190E090932606A8
:1031D0008093250684E090E090932A068093290648
:1031E00080912406882341F061E084E00E948302FC
:1031F00060E084E00E945502EFE9F0E0E491F0E045
:10320000EE0FFF1FEF56FF4F859194919093370675
:1032100080933606E3EBF0E0E491E09338060E94F9
:103220008505C3E0D6E0EFE9F5E047E755E0199200
:1032300011921192DA016D937D938D939D93AD015F
:103240009F01225B3F4FD9011D921C92B5E0E33BE9
:10325000FB0769F7109222061092210669EF72E0CF
:1032600081E795E00E949E0E6AE971E08BE695E0A9
:10327000DF91CF910C949E0E109228061092270693
:103280001092260610922506A5CFCF93DF93CDB7D7
:10329000DEB766970FB6F894DEBF0FBECDBF789449
:1032A00084B5826084BD84B5816084BD85B582604B
:1032B00085BD85B5816085BD80916E0081608093FC
:1032C0006E00109281008091810082608093810065
:1032D0008091810081608093810080918000816075
:1032E000809380008091B10084608093B1008091D0
:1032F000B00081608093B00080917A0084608093F8
:103300007A0080917A00826080937A0080917A00BE
:10331000816080937A0080917A00806880937A003F
:103320001092C100E091D004F091D10482E080833A
:10333000E091D004F091D1041082E091CC04F0919E
:10334000CD041082E091CE04F091CF0480E180831F
:103350001092D804E091D404F091D50486E08083E3
:10336000E091D204F091D304808180618083E09168
:10337000D204F091D304808188608083E091D204EC
:10338000F091D304808180688083E091D204F09131
:10339000D30480818F7D8083109261061092600635
:1033A00010925F0610925E0610925D0610925C0607
:1033B0008DE991E0909363068093620690915206A6
:1033C000963108F047C02DEB30E030935D06209336
:1033D0005C062BE931E030935F0620935E062CE219
:1033E00031E030936106209360062091680084E00C
:1033F000983048F031E09E3008F430E081E001C0C0
:10340000880F3A95EAF7822B809368002DE630E02A
:10341000983050F02BE630E09E3030F02CE630E073
:10342000963110F030E020E030935A062093590690
:10343000292F30E0983008F0E0C281E001C0880F09
:103440009A95EAF780935B068091620690916306F5
:103450000197F1F78091600690916106892B49F1FF
:10346000E0912A04F0912B0426E0E634F20709F1FA
:10347000309739F0A389B4899C91858980958923F7
:103480008C93809164068E7F809364061092290449
:103490001092280486E496E090932B0480932A04EB
:1034A000E0915906F0915A06808190915B06892B34
:1034B000808310923E0410923D0410923C041092BE
:1034C0008C041092AE040E94E60583EF90E0909386
:1034D0002F0480932E0484EF90E090932D0480932A
:1034E0002C046FEF80E00E9461086FEF81E00E9482
:1034F00061086FEF70E08091690590916A050E9404
:103500009708109239041092380461E08AE00E9412
:10351000550261E08AE00E94830261E089E00E9436
:10352000550261E089E00E94830261E08BE00E9425
:10353000550261E08BE00E94830261E08CE00E9412
:10354000550261E08CE00E94830261E088E00E9405
:10355000550261E088E00E94830261E087E00E94FA
:10356000550261E087E00E94830261E086E00E94EC
:10357000550261E086E00E94830261E085E00E94DE
:10358000550261E085E00E94830261E08BE00E94C9
:10359000550287E00E942C0A87E00E94490A85E0D4
:1035A0000E942C0A85E00E94490A86E00E942C0AAB
:1035B00086E00E94490A84E00E942C0A84E00E946E
:1035C000490A82E00E942C0A82E00E94490A80E0B7
:1035D0000E942C0A80E00E94490A84E10E942C0A81
:1035E00084E10E94490A83E00E942C0A83E00E9441
:1035F000490A81E00E942C0A61E083E00E94830274
:1036000080910F0190E00E94B4028DE00E942C0A8C
:103610008DE00E94490A8BE00E942C0A8BE00E94F8
:10362000490A8EE00E942C0A8EE00E94490A88E036
:103630000E942C0A88E00E94490A89E00E942C0A14
:1036400089E00E94490A8AE00E942C0A8AE00E94CE
:10365000490A8091290690912A0697FD08C061E0E9
:103660000E94830260E0809129060E94550281E059
:1036700080932406409127065091280670E060E070
:1036800080912C0690912D060E944D250E943103B9
:1036900010923D0410923C0410928C041092AE04DF
:1036A0000E94E60510923E0680914406823018F092
:1036B00098E090933E068093410662E370E080E0DC
:1036C00090E00E9410046091450689E396E00E9414
:1036D0007C0868EE73E080E090E00E94100460E3F4
:1036E00089E396E00E94E80A0BE416E4C80101971A
:1036F000F1F760E389E396E00E94E80AC8010197C8
:10370000F1F760E389E396E00E94E80A83E592E03E
:103710000197F1F760E289E396E00E94E80A609180
:103720003E06606240E089E396E00E94010B84E07F
:1037300080933F0640E06CE089E396E00E94010B35
:103740000E944C0B82E08093400640E066E089E3F3
:1037500096E00E94010B40E062E089E396E00E945F
:10376000010B8BE39FE10197F1F762E080E00E949B
:10377000180B66E072E089E396E00E94CC0C63E0EF
:1037800080E00E94180B65E173E089E396E00E94F7
:10379000CC0C80910601982F990F63E0890F0E944D
:1037A000180B60913F06862F816080933F06696009
:1037B00040E089E396E00E94010B60E08AE00E940D
:1037C000550268E873E180E090E00E94100487E011
:1037D0000E94190A811106C085E00E94190A60E062
:1037E000811101C061E089E00E94550287E00E94DA
:1037F000190A882341F085E00E94190A882319F0EC
:1038000081E08093320486E00E94190A882309F43B
:1038100001C10E947F0BBE016F5F7F4F7B0111E0F2
:103820000E9485052B013C018FE995E0988B8F87DD
:1038300057E7C52E55E0D52EDE8ACD8AFC01312C06
:10384000212C9F0122593F4FD9011D921C9280814A
:1038500091813296892BB9F1AD89BE894D915D91E7
:103860006D917C911397DC968D909D90AD90BC905E
:10387000DF97D301C201841B950BA60BB70B8815EC
:103880009905AA05BB05F8F0480D591D6A1D7B1D59
:10389000AD89BE894D935D936D937C931397C10160
:1038A0008D5F994FDC018C91882369F082AD93ADD7
:1038B000009709F0B7C0CF0184599F4F21E030E055
:1038C000DC012D933C937FEF271A370A8D899E895F
:1038D00004969E8B8D8B9AE02916310409F0B1CFA6
:1038E000B12CA12C4601A6E98A0E911CF40180811D
:1038F00091818130910509F4B7C0029709F4BAC0EB
:10390000BFEFAB1ABB0AE2E0CE0ED11CFAE0AF1655
:10391000B10441F78DE00E94190A81111BC000918A
:10392000340401270093340464E670E088EB91E0EE
:103930000E94420460910D01069F602D1124409168
:10394000090181E00E9486096CE271E080E090E06C
:103950000E9410048EE00E94190A81111BC0009180
:10396000330401270093330464E670E088EB91E0B0
:103970000E94420460910C01069F602D1124409129
:10398000080182E00E9486096CE271E080E090E02C
:103990000E9410048BE00E94190A81111BC0009143
:1039A000350401270093350464E670E088EB91E06C
:1039B0000E94420460910E01069F602D11244091E7
:1039C0000A0180E00E9486096CE271E080E090E0EC
:1039D0000E94100488E00E94190A8111ADC08091F4
:1039E0000701882309F477C00E948F08109207010D
:1039F00068EC70E080E090E09AC09E3040F428507F
:103A0000310981E001C0880F2A95EAF71BCD2E50BD
:103A10003109F7CF82E00E94190A8111FACE0E9483
:103A2000900FF9CE5F013EE4A30EB11CD5014D917C
:103A30005C91481759070CF046CF9F0124593F4F1E
:103A400061E070E0D9016D937C934F5F5F4FD501CA
:103A50004D935C93481759070CF435CF62E070E042
:103A6000D9016D937C932FCFD6019896ED91FC915F
:103A7000099546CFD6019896ED91FC9109958091D4
:103A8000210690912206009709F43ACFF60120A56D
:103A900031A5232B09F434CF11A610A6F501ED5F53
:103AA000F94F1082D4011D921C92F501EE0FFF1FF9
:103AB000EE0FFF1FE958FA4F14AE15AE16AE17AE53
:103AC000F601E858FF4F1182108201979093220669
:103AD0008093210615CFE0910601E53009F054C12D
:103AE000E0910501EE3040F5F0E0E758F24E0C941D
:103AF0004123871D9A1D841E871E8B1E8D1E911EBD
:103B0000931EAA1EAD1EB01EB31EB81EC11E6CEBC6
:103B100072E080EC94E00E94B80C61EC72E086E404
:103B200096E00E94380C6CE271E080E090E00E9428
:103B3000100402C00E9456108AE00E94190A8111E6
:103B400018C00E948F08809106018F5F863008F0B0
:103B500027C18093060180910601982F990F63E099
:103B6000890F0E94180B68EC70E080E090E00E94E2
:103B7000100489E00E94190A81112AC0809106016F
:103B8000E82FF0E0E050FF4F90819F5F90839530E9
:103B900028F09DEF980F923008F4108290819830B1
:103BA00040F0853031F490913204911102C01092AE
:103BB000050190819E3020F0853011F410920501AE
:103BC00090819A3018F0853008F410820E94CE0C53
:103BD0000E94660A082F882309F469C064E670E031
:103BE00088EB91E00E944204B0900701BB2009F4E9
:103BF00057C118861F821A8619861C861B86098360
:103C00001A82F70101900020E9F73197AF014E19B0
:103C10005F09B701CE0107960E94660E0E948505D6
:103C20002B013C0101E02FE04FE06FE080E00E94BB
:103C3000CA098091300481111AC0809121069091A7
:103C400022060A9794F4D12CC12CAF85B8898D91A6
:103C50009D91B88BAF87892B09F4E1C3BFEFCB1AD5
:103C6000DB0AEAE0CE16D10481F7109330040E94FB
:103C700085056419750986099709603177428105C0
:103C8000910508F490C069E273E080EC94E00E9432
:103C9000B80C6CE271E08CED90E00E944204B12C13
:103CA000CE0107960E94770BB11010920701C70151
:103CB0000E94DC10B7018BE695E00E94D90DC70188
:103CC0000E94770B8AE991E00E941F0C81116AC162
:103CD000809132048111DEC18EE393E00E941F0CBB
:103CE000882309F42BC181E00E94511286E00E94D2
:103CF000190A811106C082E00E94190A882309F47A
:103D000032C161E672E031C10E949C1015CF81E0A2
:103D10000E947D1311CF80E0FBCF81E00E94511201
:103D20000BCF80E0FBCF8091320401E020E08127BF
:103D30008093320460911001462F811101C040E050
:103D400081E00E94CA090E94CE0C60E273E080E02C
:103D500090E0EDCE0E947809EFCE0E940F0CECCEE1
:103D60000E946A09E9CE60E08BE00E945502E4CE31
:103D700060E08AE00E94550268EE73E080E090E027
:103D8000D6CE61E08AE0F1CFF0E0E050FF4F8081D5
:103D9000882309F4D1CE815080830E94CE0C28CE96
:103DA00010920601D8CE0E94660AD82E882309F404
:103DB0005ECF64E670E088EB91E00E94420401E08F
:103DC0002FE04FE060E080E00E94CA0968EC70E0FC
:103DD00080E090E00E9410042FE04FE06FE080E070
:103DE0000E94CA091A8219821C821B821E821D82AD
:103DF000BE01695F7F4FC7010E94870EDD861E8668
:103E000041E050E0BE01635F7F4FC7010E943A0E60
:103E1000811103C0C7010E94650BB701CE0107964F
:103E20000E94870EC7010E94770B2B853C854CEFC3
:103E3000420F2530310508F440E050E0BE01695FD3
:103E40007F4FC7010E94DB0EB701CE0107960E948B
:103E5000D90DC7010E94770BCE0107960E94470C2F
:103E60002B853C858091750590917605281739073B
:103E700009F0FDCE8F819885609171057091720572
:103E8000009709F408C36115710539F4232B09F46F
:103E900010C3FC01808190E009C30E94542506C331
:103EA00081E00A3219F0033221F480E00E947D1390
:103EB000FECE81E0013419F0023421F480E00E944A
:103EC0005112F5CE033419F40E945610F0CE04348A
:103ED00019F40E949C10EBCE0133B1F460913504CB
:103EE00061276093350480910E01689F602D112435
:103EF00040910A0180E00E9486096CE271E080E056
:103F000090E00E941004D3CE023371F46091340427
:103F100061276093340480910D01689F602D112406
:103F20004091090181E0E7CF093309F0C0CE61EC8F
:103F300072E086E496E00E94B80CDFCF81E493E063
:103F40000E941F0C882309F485C080E00E94511252
:103F500086E00E94190A811106C082E00E94190AB7
:103F6000882309F4CECE63EB71E080EC94E00E94EC
:103F7000B80C8CE593E00E941F0C60E08111D4C066
:103F80008FE593E00E941F0C60E0811108C082E67B
:103F900093E00E941F0C882309F4B3C061E08AE01B
:103FA0000E945502C0903104D12C81E00E94190A70
:103FB0008C151D0421F10091100181E00E94190A65
:103FC000089F602D112401E020E040E082E00E9483
:103FD000CA0981E00E94190A91E0811101C090E0B4
:103FE0009093310481E00E94190A6FE073E081111F
:103FF00002C062E173E086E496E00E94B80C8AE0B9
:104000000E942C02892BC9F480913204811115C0C1
:1040100085E00E94190A882381F087E00E94190A2E
:10402000882359F06AE672E0C7010E949E0EC7011C
:104030000E942311C7010E94770B80E090E0892B3A
:1040400009F4EECB0E946001882309F4E8CB0E94BA
:104050000000E1CB84E493E00E941F0C882329F048
:1040600081E00E947D1387E047CE87E493E00E94C1
:104070001F0C882329F080E00E947D1385E03CCE50
:104080008AE493E00E941F0C882309F472CF1093F6
:1040900032046FCF8BE393E00E941F0C882319F04A
:1040A0001092320466CF8DE493E00E941F0C60E012
:1040B000811107C080E593E00E941F0C882329F03E
:1040C00061E08BE00E94550254CF83E593E00E94AB
:1040D0001F0C882319F00E946A094BCF86E593E0F4
:1040E0000E941F0C882319F00E94780942CF89E5AD
:1040F00093E00E941F0C882309F43BCF0E940F0C11
:1041000038CF85E693E00E941F0C882331F08AE0C7
:104110000E942C02892BF1F40AC088E693E00E94E9
:104120001F0C882339F061E089E00E94550263EB9F
:1041300071E036C08BE693E00E941F0C882369F083
:1041400086E00E94190A811105C082E00E94190AC6
:10415000882369F361E672E023C08EE693E00E9453
:104160001F0C882331F085E00E94190A8111DFCFEE
:10417000F1CF81E793E00E941F0C882311F089E0C2
:10418000C7CF84E793E00E941F0C882371F083E07F
:104190000E94190A6EEF72E0882311F063E073E069
:1041A00080EC94E00E94B80CFDCE87E793E00E947B
:1041B0001F0C882319F00E949C10CCCF8AE793E053
:1041C0000E941F0C882319F00E945610C3CF8EE561
:1041D00092E00E941F0C882391F061E672E080EC6F
:1041E00094E00E94B80C63E672E0C7010E949E0E44
:1041F000C7010E942311C7010E94770BD3CE8DE720
:1042000093E00E941F0C882349F08091320469E0FA
:1042100073E08111C5CF6BE073E0C2CF80E893E01B
:104220000E941F0C882341F040910A0160910E0109
:1042300080E00E9486097BCF83E893E00E941F0CF8
:10424000882331F040E060E080E00E94860982CF60
:1042500086E893E00E941F0C882331F04091090109
:1042600060910D0181E0E5CF89E893E00E941F0C89
:10427000882321F040E060E081E0E7CF8CE893E024
:104280000E941F0C882329F061EC72E086E496E01E
:1042900089CF8FE893E00E941F0C882309F493C014
:1042A00085E00E94190A61E070E0882311F070E057
:1042B00060E080EC94E00E94B10C87E00E94190A53
:1042C00061E070E0882311F070E060E080EC94E041
:1042D0000E94B10C84E00E94190A811104C00E945E
:1042E000190A61E0811160E070E080EC94E00E94C6
:1042F000B10C86E00E94190A811105C082E00E947B
:10430000190A61E0811160E070E080EC94E00E94A5
:10431000B10C8AE00E942C0261E070E0892B11F060
:1043200070E060E080EC94E00E94B10C89E00E94B3
:104330002C0261E070E0892B11F070E060E080EC0D
:1043400094E00E94B10C81E00E94190A6DE073E0D4
:10435000811102C061E972E080EC94E00E94CC0C13
:104360008091320469E073E0811102C06BE073E078
:1043700080EC94E00E94B80C84E00E94190A682F37
:1043800080EC94E00E94AA0C80E00E94190A682F39
:1043900080EC94E00E94AA0C86E00E94190A682F23
:1043A00080EC94E00E94AA0C82E00E94190A682F17
:1043B00080EC94E00E94AA0C68E971E080EC94E043
:1043C0000E94380CEFCD82E993E00E941F0C8823F5
:1043D00091F087E00E94190A61E070E0811102C04B
:1043E00070E060E086E496E00E94B10C68E971E05C
:1043F00086E496E0E5CF85E993E00E941F0C8823D0
:1044000009F4D0CD86E00E94190A811105C082E02E
:104410000E94190A61E0811160E070E0E3CFF601CB
:10442000EE0FFF1FEE0FFF1FED54FA4F60EE73E922
:1044300084E090E06083718382839383F601EE0FC2
:10444000FF1FE156FA4F84EE99E091838083F601D5
:10445000EE0FFF1FE552FA4FA1E0B0E0B183A08359
:10446000F601ED5FF94F10830E948505F601EE0F0E
:10447000FF1FEE0FFF1FE958FA4F6083718382839D
:1044800093838091210690912206019690932206B3
:1044900080932106EACB6115710559F0232B49F071
:1044A000DB018C9190E0919581959109892B09F020
:1044B000DECB66E373E080EC94E00E94B80C6CE223
:1044C00071E088EB91E00E94420401E020E040E0CE
:1044D0006FE080E00E94CA0964EF71E080E090E044
:1044E0000E941004DDCB8BE695E00E94770B81E7FC
:1044F00095E00E94770B80912C0690912D060E94EA
:10450000FE238091290690912A0697FD03C060E062
:104510000E9483028AE891E09093470680934606C2
:1045200080912A0490912B048654964071F4E09176
:104530005906F0915A06908180915B0680958923F7
:10454000808310922B0410922A0408952F923F9298
:104550004F925F926F927F928F929F92AF92BF9293
:10456000CF92DF92EF92FF920F931F93CF93DF933F
:10457000CDB7DEB7CA1BDB0B0FB6F894DEBF0FBE9C
:10458000CDBF09942A88398848885F846E847D84E9
:104590008C849B84AA84B984C884DF80EE80FD80EB
:1045A0000C811B81AA81B981CE0FD11D0FB6F89461
:1045B000DEBF0FBECDBFED010895A29FB001B39F36
:1045C000C001A39F700D811D1124911DB29F700D1C
:1045D000811D1124911D089597FB072E16F4009458
:1045E00007D077FD09D00E944E2307FC05D03EF48A
:1045F000909581959F4F0895709561957F4F08958F
:10460000A1E21A2EAA1BBB1BFD010DC0AA1FBB1FD6
:10461000EE1FFF1FA217B307E407F50720F0A21B48
:10462000B30BE40BF50B661F771F881F991F1A94B5
:1046300069F760957095809590959B01AC01BD01DF
:10464000CF010895052E97FB1EF400940E94392394
:1046500057FD07D00E94002307FC03D04EF40C94B2
:10466000392350954095309521953F4F4F4F5F4FDF
:10467000089590958095709561957F4F8F4F9F4FCE
:104680000895EE0FFF1F0590F491E02D09940E940C
:10469000DD22B7FF0895821B930B0895AA1BBB1B55
:1046A00051E107C0AA1FBB1FA617B70710F0A61B32
:1046B000B70B881F991F5A95A9F780959095BC0153
:1046C000CD0108950F931F93CF93DF93823091050F
:1046D00010F482E090E0E0916706F091680630E027
:1046E00020E0B0E0A0E0309799F42115310509F4FD
:1046F0004AC0281B390B24303105D8F58A819B81AB
:104700006115710589F1FB0193838283FE0111C05C
:10471000408151810281138148175907E0F0481701
:10472000590799F4109761F012960C93129713960B
:104730001C933296CF01DF91CF911F910F91089575
:104740000093670610936806F4CF2115310551F0E8
:104750004217530738F0A901DB019A01BD01DF01BF
:10476000F801C1CFEF01F9CF9093680680936706F7
:10477000CDCFFE01E20FF31F8193919322503109B7
:1047800039832883D7CF2091650630916606232B85
:1047900041F420911701309118013093660620935F
:1047A000650620911501309116012115310541F45E
:1047B0002DB73EB74091190150911A01241B350BBA
:1047C000E0916506F0916606E217F307A0F42E1B50
:1047D0003F0B2817390778F0AC014E5F5F4F241765
:1047E000350748F04E0F5F1F5093660640936506ED
:1047F000819391939FCFF0E0E0E09CCFCF93DF9344
:104800000097E9F0FC01329713821282A0916706AB
:10481000B0916806ED0130E020E01097A1F420810E
:104820003181820F931F209165063091660628170B
:10483000390709F061C0F0936606E0936506DF91E1
:10484000CF910895EA01CE17DF07E8F54A815B8131
:104850009E0141155105B1F7E901FB83EA834991B6
:104860005991C40FD51FEC17FD0761F48081918128
:104870000296840F951FE901998388838281938131
:104880009B838A83F0E0E0E012968D919C911397D0
:104890000097B9F52D913C911197CD010296820FA9
:1048A000931F20916506309166062817390739F65F
:1048B000309751F51092680610926706B09366061D
:1048C000A0936506BCCFD383C28340815181840FFE
:1048D000951FC817D90761F44E5F5F4F8881998192
:1048E000480F591F518340838A819B819383828320
:1048F0002115310509F0B0CFF0936806E093670603
:104900009ECFFD01DC01C0CF13821282D7CFB0E071
:10491000A0E0EDE8F4E20C94A8228C01009751F499
:10492000CB010E9462238C01C801CDB7DEB7E0E164
:104930000C94C422FC01E60FF71F9C0122503109A0
:10494000E217F30708F49DC0D901CD91DC911197CE
:10495000C617D70798F0C530D10530F3CE010497BC
:104960008617970708F3C61BD70B2297C193D193DD
:104970006D937C93CF010E94FE23D6CF5B01AC1ACE
:10498000BD0A4C018C0E9D1EA0916706B091680671
:10499000512C412CF12CE12C109731F580916506BA
:1049A000909166068815990509F05CC04616570671
:1049B00008F058C08091150190911601009741F4BC
:1049C0008DB79EB74091190150911A01841B950B28
:1049D000E817F90708F055C0F0936606E0936506FE
:1049E000F90171836083A0CF8D919C9111971296EC
:1049F0006C90129713967C901397A815B90559F5EA
:104A00006C0142E0C40ED11CCA14DB0420F1AC01DD
:104A10004A195B09DA011296159780F06282738257
:104A200051834083D9016D937C93E114F10471F0BB
:104A3000D7011396FC93EE93129776CF22968C0FA4
:104A40009D1FF90191838083F301EFCFF0936806F6
:104A5000E093670669CF4816590608F42C017D01DA
:104A6000D3019ACFCB010E9462237C01009749F0C9
:104A7000AE01B8010E944425C8010E94FE238701AF
:104A800053CF10E000E050CFFB01DC0102C00190E9
:104A90000D9241505040D8F70895DC0101C06D934C
:104AA00041505040E0F70895FB01DC018D910190E9
:104AB00080190110D9F3990B0895FB01DC010190D5
:104AC0000D920020E1F7089510E0C3E6D0E004C0A5
:104AD000FE010E9441232196C436D107C9F7F894FC
:104AE000FFCF0107090202000501000101FF193291
:104AF000C8140203000400000069068000000040A2
:104B00000014005400050A0F142802050A14280A8C
:104B1000193264C8313233410034353642003738F7
:104B20003943002A30234400100020004000800058
:104B3000FE00FD00FB00F700000000009601F600FB
:104B40002301E30154013201460100000000320854
:104B500005085709DB07FE07EB07DC07000000002C
:104B60005F0BF6005709F50000000000C208F600D0
:104B70005709DB071E093609AA080D0A00415554DA
:104B80004F20004D414E55200052004F55205031CE
:104B9000004645205031004F5520414200464520F7
:104BA0004142004F5520504F00464520504F004F86
:104BB00055205032004645205032004445504C416B
:104BC000004D4F544F4E00415458204D0041545811
:104BD00020410020202020202020202020202020D4
:104BE0002020202020202000544120494E204558DC
:104BF000204C43204C4420434D4400325220334249
:104C0000203542203220203220205041524B2000BB
:104C10004F6B005031204F2E2E2E005031204F5020
:104C2000454E00503120462E2E2E00503120436C30
:104C30006F736500415255200041525520212000DC
:104C4000415500300053C3A972696500506F736904
:104C500074696F6E00426F75746F6E004572726595
:104C6000757220706F736974696F6E0050313220F5
:104C70004F70656E00504F2300503220462E2E2E6E
:104C80000050313220462E2E2E0050462300503147
:104C900032204F2E2E2E00457272657572205061A3
:104CA000726B00504123004465706C6163656D65F3
:104CB0006E7420616272692E2E2E0041627269202C
:104CC0006665726DC3A90044462300444F2300412A
:104CD000627269206F757665727400313233340008
:104CE0006C6F6E6700636F757274006D00610070A9
:104CF00000544E005450003252203342203542209E
:104D00003220203220205041524B004D6175766197
:104D1000697320636F646500436F6465204F4B00C7
:104D2000502B00502D00442B00442D004D41006DB0
:104D30002B006D2D00646400322B00322D00412BBE
:104D400000582B00582D00583F00412D00503F00C7
:104D5000443F00413F00543F00702D00702B004D38
:104D60003F00452B00452D00492B00492D005041A7
:0A4D700000433F0044490050490091
:107800000C94343C0C94513C0C94513C0C94513CE1
:107810000C94513C0C94513C0C94513C0C94513CB4
:107820000C94513C0C94513C0C94513C0C94513CA4
:107830000C94513C0C94513C0C94513C0C94513C94
:107840000C94513C0C94513C0C94513C0C94513C84
:107850000C94513C0C94513C0C94513C0C94513C74
:107860000C94513C0C94513C11241FBECFEFD8E036
:10787000DEBFCDBF11E0A0E0B1E0ECE9FFE702C060
:1078800005900D92A230B107D9F712E0A2E0B1E065
:1078900001C01D92AD30B107E1F70E942D3D0C945F
:1078A000CC3F0C94003C982F959595959595959582
:1078B000905D8F708A307CF0282F295A8091C0000B
:1078C00085FFFCCF9093C6008091C00085FFFCCF60
:1078D0002093C6000895282F205DF0CF982F809127
:1078E000C00085FFFCCF9093C6000895EF92FF92F1
:1078F0000F931F93EE24FF2487018091C00087FD22
:1079000017C00894E11CF11C011D111D81E4E8164B
:1079100082E4F8068FE0080780E0180770F3E09132
:107920000401F091050109958091C00087FFE9CF1E
:107930008091C6001F910F91FF90EF9008950E94D3
:10794000763C982F8091C00085FFFCCF9093C600B5
:1079500091362CF490330CF09053892F089597555D
:10796000892F08951F930E949F3C182F0E949F3CCF
:107970001295107F810F1F9108951F93182F882350
:1079800021F00E94763C1150E1F71F9108951F935A
:10799000182F0E94763C803249F0809103018F5F5E
:1079A000809303018530C1F01F9108958091C0003C
:1079B00085FFFCCF84E18093C6008091C00085FFE5
:1079C000FCCF1093C6008091C00085FFFCCF80E102
:1079D0008093C6001F910895E0910401F091050184
:1079E00009951F9108950E94763C803241F0809164
:1079F00003018F5F80930301853081F008958091AA
:107A0000C00085FFFCCF84E18093C6008091C00058
:107A100085FFFCCF80E18093C6000895E0910401CA
:107A2000F09105010995089540E951E08823A1F0FE
:107A30002D9A28EE33E0FA013197F1F721503040CA
:107A4000D1F72D9828EE33E0FA013197F1F7215064
:107A50003040D1F7815061F708953F924F925F9285
:107A60006F927F928F929F92AF92BF92CF92DF924E
:107A7000EF92FF920F931F93CF93DF93000080E16B
:107A80008093C4001092C50088E18093C10086E015
:107A90008093C2005098589A259A81E00E94143D24
:107AA00024E1F22E9EE1E92E85E9D82E0FE0C02ECA
:107AB00010E1B12EAA24A394B1E49B2EA6E58A2E50
:107AC000F2E57F2EE0E26E2E79E4572E63E5462E36
:107AD00050E5352E0E94763C8033B1F18133B9F107
:107AE000803409F46FC0813409F476C0823409F41B
:107AF00085C0853409F488C0803531F1823521F1A3
:107B0000813511F1853509F485C0863509F48DC0BC
:107B1000843609F496C0843709F403C1853709F423
:107B200072C1863709F466C0809103018F5F80932C
:107B30000301853079F6E0910401F0910501099582
:107B40000E94763C803351F60E94F33CC3CF0E94E2
:107B5000763C803249F78091C00085FFFCCFF092DF
:107B6000C6008091C00085FFFCCF9092C600809136
:107B7000C00085FFFCCF8092C6008091C00085FFC9
:107B8000FCCF7092C6008091C00085FFFCCF609250
:107B9000C6008091C00085FFFCCF5092C600809146
:107BA000C00085FFFCCF4092C6008091C00085FFD9
:107BB000FCCF3092C6008091C00085FFFCCFB09210
:107BC000C60088CF0E94763C863808F4BDCF0E945C
:107BD000763C0E94F33C7ECF0E94763C803809F4CC
:107BE0009CC0813809F40BC1823809F43CC1883942
:107BF00009F48FC080E00E94C73C6CCF84E10E94F2
:107C0000BD3C0E94F33C66CF85E00E94BD3C0E94D3
:107C1000F33C60CF0E94763C809306010E94763C44
:107C2000809307010E94F33C55CF0E94763C80333D
:107C300009F41DC183E00E94BD3C80E00E94C73C66
:107C400049CF0E94763C809309020E94763C809343
:107C5000080280910C028E7F80930C020E94763C79
:107C6000853409F415C18091080290910902892B8D
:107C700089F000E010E00E94763CF801E85FFE4FDA
:107C800080830F5F1F4F80910802909109020817AF
:107C9000190788F30E94763C803209F045CF809125
:107CA0000C0280FF01C16091060170910701660F0F
:107CB000771F7093070160930601A0910802B091AD
:107CC00009021097C9F0E8E0F1E09B01AD014E0F09
:107CD0005F1FF999FECF32BD21BD819180BDFA9A17
:107CE000F99A2F5F3F4FE417F50799F76A0F7B1F4B
:107CF00070930701609306018091C00085FFFCCF5F
:107D0000F092C6008091C00085FFFCCFB092C60003
:107D1000E1CE83E00E94C73CDDCE82E00E94C73CFA
:107D2000D9CE0E94763C809309020E94763C8093D3
:107D300008028091060190910701880F991F909386
:107D40000701809306010E94763C853409F4A6C0A1
:107D500080910C028E7F80930C020E94763C8032D0
:107D600009F0B8CE8091C00085FFFCCFF092C6002C
:107D7000609108027091090261157105B9F140E046
:107D800050E080910C02A82FA170B82FB27011C0E2
:107D9000BB2309F45CC0E0910601F0910701319624
:107DA000F0930701E09306014F5F5F4F46175707B7
:107DB000E8F4AA2369F3F999FECF209106013091E6
:107DC000070132BD21BDF89A90B58091C00085FFB2
:107DD000FCCF9093C6002F5F3F4F30930701209355
:107DE00006014F5F5F4F4617570718F38091C00099
:107DF00085FDE5CE8091C00085FFF8CFE0CE81E023
:107E00000E94C73C67CE0E94763C803209F08CCE3F
:107E10008091C00085FFFCCFF092C6008091C00029
:107E200085FFFCCFE092C6008091C00085FFFCCFAB
:107E3000D092C6008091C00085FFFCCFC092C600E2
:107E40008091C00085FFFCCFB092C60043CEE09188
:107E50000601F091070194918091C00085FFFCCF4D
:107E60009093C6009CCF80E10E94C73C33CE0E9415
:107E7000763C0E94763C182F0E94763C112309F430
:107E800083C0113009F484C08FE00E94C73C22CE29
:107E900080910C02816080930C02E5CE80910C02EF
:107EA000816080930C0259CF809107018823880F4D
:107EB000880B8A2180930B02809106019091070123
:107EC000880F991F90930701809306018091080203
:107ED00080FF09C080910802909109020196909359
:107EE000090280930802F894F999FECF1127E091D6
:107EF0000601F0910701C8E0D1E08091080290915D
:107F00000902103091F40091570001700130D9F34B
:107F100003E000935700E89500915700017001308D
:107F2000D9F301E100935700E89509901990009169
:107F3000570001700130D9F301E000935700E89534
:107F40001395103498F011270091570001700130FB
:107F5000D9F305E000935700E895009157000170B0
:107F60000130D9F301E100935700E895329602976A
:107F700009F0C7CF103011F00296E5CF112480919F
:107F8000C00085FFB9CEBCCE8EE10E94C73CA2CD19
:0E7F900085E90E94C73C9ECDF894FFCF80008B
:00000001FF
