:100000000C9464000C948C000C948C000C94FD15E2
:100010000C94FD150C94FD150C948C000C94BA13E3
:100020000C948C000C948C000C948C000C948C0020
:100030000C948C000C948C000C948C000C948C0010
:100040000C9494140C948C000C9462140C943C1436
:100050000C948C000C948C000C948C000C948C00F0
:100060000C94DE140C948C00000000002400270087
:100070002A0002000000080002010000030407003B
:1000800000000000000000000000002300260029FE
:100090000000000000250028002B000404040404D4
:1000A0000404040202020202020303030303030125
:1000B00002040810204080010204081020010204FC
:1000C000081020007516D12011241FBECFEFD8E0F4
:1000D000DEBFCDBF26E0ACE9B3E001C01D92A7367C
:1000E000B207E1F713E0A0E0B1E0EEE9F7E402C007
:1000F00005900D92AC39B107D9F710E0C3E6D0E016
:1001000004C02197FE010E949F21C236D107C9F782
:100110000E94E7170C94C2230C9400008F929F92C8
:10012000AF92BF92CF92DF92EF92FF920F931F9305
:10013000FC014B01AA24BB24C52ED62EE72EFF249A
:10014000BC2DA42F90912906B82C992391F0A92FAA
:10015000B0E0A89D9001A99D300DB89D300D1124EF
:10016000B32E9C9D60011124BD2D949F800111240C
:10017000A12F40912F0620912A0630912B068091C5
:100180002C06481324C0CF01880F991F8E0F9F1F84
:10019000820F931FE0912C06E80FF92FF11DB0821A
:1001A000E0912D06E80FF92FF11DB08320912E0666
:1001B000820F911DFC01A0831F910F91FF90EF9082
:1001C000DF90CF90BF90AF909F908F900895CF0118
:1001D000880F991F880F991F820F931FFC01E40F4E
:1001E000F11D1082D7CF2091AC0481E0213208F0BC
:1001F00044C0809188048111FCCF8091AB0492E0CF
:100200009093880491E0909387049FEF90938604E5
:100210001092850420938404ABE8B4E0E4E6F4E0B3
:1002200090E0291331C01092630490916304880F09
:10023000892B8093630480916204813049F5109288
:100240006204809163048093BB008091BC0083FDB5
:10025000F8CF85EC8093BC00809188048230E1F374
:10026000809186048F3FB1F0809186048032A1F0A6
:1002700080918604803391F084E010928A04109279
:10028000AC041092890408953D9131939F5FC9CFCA
:1002900085EEE0CF80E0F1CF82E0EFCF83E0EDCFDD
:1002A000909188049111FCCF91E0909388049093F1
:1002B00087042FEF2093860410928504260F209345
:1002C00084049093630490916304880F892B809336
:1002D0006304809162048130F9F410926204809189
:1002E00063048093BB008091BC0083FDF8CF85EC54
:1002F0008093BC00809188048130E1F38091850473
:10030000861710F460918504A4E6B4E0E2E4F4E01A
:1003100080E0861303C0089585EEEACF9D91919306
:100320008F5FF7CF089508950895AF92BF92CF924F
:10033000DF92EF92FF920F931F93CF93DF936C01A5
:100340007B018B01040F151FEB015E01AE18BF0886
:10035000C017D10759F06991D601ED91FC91019038
:10036000F081E02DC6010995892B79F7C501DF9150
:10037000CF911F910F91FF90EF90DF90CF90BF90A2
:10038000AF900895FC01538D448D252F30E0842FCC
:1003900090E0821B930B541710F0CF9608950197AD
:1003A0000895FC01918D828D981761F0A28DAE0F9A
:1003B000BF2FB11D5D968C91928D9F5F9F73928F21
:1003C00090E008958FEF9FEF0895FC01918D828D4D
:1003D000981731F0828DE80FF11D858D90E008951A
:1003E0008FEF9FEF0895FC01918D228D892F90E072
:1003F000805C9F4F821B91098F73992708958EEB24
:1004000094E00E94F30121E0892B09F420E0822F7F
:10041000089580E090E0892B29F00E94FF0181116E
:100420000C9400000895FC01A48DA80FB92FB11DF4
:10043000A35ABF4F2C91848D90E001968F7399271A
:10044000848FA689B7892C93A089B1898C918370F8
:1004500080648C93938D848D981306C00288F389F1
:10046000E02D80818F7D80830895EF92FF920F931E
:100470001F93CF93DF93EC0181E0888F9B8D8C8D50
:1004800098131AC0E889F989808185FF15C09FB744
:10049000F894EE89FF896083E889F9898081837007
:1004A000806480839FBF81E090E0DF91CF911F91B6
:1004B0000F91FF90EF900895F62E0B8D10E00F5FD7
:1004C0001F4F0F731127E02E8C8D8E110CC00FB6AD
:1004D00007FCFACFE889F989808185FFF5CFCE0145
:1004E0000E941302F1CFEB8DEC0FFD2FF11DE35AAB
:1004F000FF4FF0829FB7F8940B8FEA89FB898081C8
:100500008062CFCFCF93DF93EC01888D8823B9F041
:10051000AA89BB89E889F9898C9185FD03C080810E
:1005200086FD0DC00FB607FCF7CF8C9185FFF2CF8B
:10053000808185FFEDCFCE010E941302E9CFDF91CC
:10054000CF910895833081F028F4813099F0823082
:10055000A9F008958730A9F08830C9F08430B1F44B
:10056000809180008F7D03C0809180008F77809381
:100570008000089584B58F7784BD089584B58F7DFC
:10058000FBCF8091B0008F778093B0000895809169
:10059000B0008F7DF9CFCF93DF93282F30E0F901A2
:1005A000ED58FF4F8491F901E155FF4FD491F901C6
:1005B000E556FF4FC491CC23A1F081110E94A20205
:1005C000EC2FF0E0EE0FFF1FE957FF4FA591B4911C
:1005D000EC91ED2381E090E009F480E0DF91CF9190
:1005E000089580E090E0FACF1F93CF93DF93282FF8
:1005F00030E0F901ED58FF4F8491F901E155FF4FCB
:10060000D491F901E556FF4FC491CC23A9F0162FE0
:1006100081110E94A202EC2FF0E0EE0FFF1FEF56B7
:10062000FF4FA591B4918FB7F894EC91111108C0C8
:10063000D095DE23DC938FBFDF91CF911F9108957A
:10064000DE2BF8CF1092400410923F0410928A04DF
:100650001092AC041092880481E080938704109279
:10066000620461E082E10E94F40261E083E10E94A1
:10067000F402E9EBF0E080818E7F808380818D7FC2
:10068000808388E48093B80085E48093BC0082E98D
:1006900091E090933E0480933D0483E991E0909330
:1006A0003C0480933B040895CF93DF9390E0FC01DA
:1006B000E155FF4F249185569F4FFC01849188237B
:1006C000D1F090E0880F991FFC01E859FF4FA591E8
:1006D000B491FC01EF56FF4FC591D49161110EC04A
:1006E0009FB7F8948C91E22FE0958E238C9328810C
:1006F000E223E8839FBFDF91CF9108958FB7F894ED
:10070000EC91E22BEC938FBFF6CFCF93DF93EC010C
:1007100061E083E00E945403209731F460E083E0BD
:10072000DF91CF910C94F402CF3FD10511F461E039
:10073000F6CFE6E7F0E0E491E33029F140F4E13070
:10074000B1F0E230D9F0C038D1058CF7E7CFE7300F
:1007500021F1E83051F1E430B1F7809180008062FE
:1007600080938000D0938B00C0938A0004C084B52E
:10077000806884BDC7BDDF91CF91089584B5806244
:1007800084BDC8BDF8CF80918000806880938000D0
:10079000D0938900C0938800EECF8091B00080682C
:1007A0008093B000C093B300E6CF8091B000806228
:1007B0008093B000C093B400DECF3FB7F89480912F
:1007C000270490912804A0912904B0912A0426B509
:1007D000A89B05C02F3F19F00196A11DB11D3FBF79
:1007E000BA2FA92F982F8827BC01CD01620F711D48
:1007F000811D911D42E0660F771F881F991F4A9542
:10080000D1F708950F931F93CF93DF93CDB7DEB742
:1008100029970FB6F894DEBF0FBECDBF80912A0690
:1008200090912B06892B09F467C00E94DD0300918B
:100830003006109131062091320630913306601B4C
:10084000710B820B930B6C3271408105910568F33B
:10085000F89480912506909126069A838983E091E9
:100860002A06F0912B06DF011196808189879091ED
:100870002106E0913406F0913506809136069923E1
:1008800009F445C09081982B9887908180958923A1
:100890008F838F818C8388E08B8358856F81498516
:1008A0003B812C8189819A81508347FD252F3A9580
:1008B0002083262F39F0441F00C000006083000011
:1008C00000C0F2CF38E04D9160830000019761F7DE
:1008D000F0933506E093340649873B832C839A8353
:1008E000898378940E94DD0360933006709331060B
:1008F000809332069093330629960FB6F894DEBFA4
:100900000FBECDBFDF91CF911F910F9108959081C0
:10091000982B98879081809589238F838F818E83F0
:1009200088E08D8358856F8149853D812E8189813D
:100930009A81508347FD252F00C000C0208300C04E
:1009400000C000C000C000C060830000262F3A95A0
:1009500041F0441F000000C000C000C000C000C043
:10096000E8CF38E04D9100C0608300C0019709F7DF
:10097000F0933506E093340649873D832E83AFCF4D
:100980008F929F92AF92BF92CF92DF92EF92FF929F
:100990004B015C010E94DD036B017C010E94DD03C1
:1009A0006C197D098E099F09683E73408105910588
:1009B000A8F321E0821A9108A108B10888EEC80EB8
:1009C00083E0D81EE11CF11C81149104A104B10440
:1009D00029F7FF90EF90DF90CF90BF90AF909F905E
:1009E0008F9008954F925F926F927F928F929F9215
:1009F000AF92BF92EF92FF920F931F93CF938C0110
:100A00007B0180910B018131D9F08F3F09F43FC008
:100A100068EC70E080E090E00E94C00480910F01DB
:100A200090E0CF911F910F91FF90EF90BF90AF900A
:100A30009F908F907F906F905F904F900C94850364
:100A4000E2E7F0E0C491C7FDE3CF61E081E10E94FD
:100A50005403C11132C02801012E000C660877082A
:100A600062E17AE780E090E0A30192010E94802198
:100A700049015A0181E0881A9108A108B10896E05D
:100A8000C1113BC085B5887F846085BDABC081E165
:100A900080930B01E2E7F0E0C491CF3F09F4B8CFB7
:100AA000C13009F44AC080F1C23009F464C0C7FD06
:100AB000AFCF61E081E10E9454039801012E000C48
:100AC000440B550BC23009F078C029013A0164E2A9
:100AD00074EF80E090E00E94802149015A0181E09A
:100AE000881A9108A108B10895E08FEF8816910443
:100AF000A104B10411F00CF0B3CF8091B100887F54
:100B0000892B8093B1006EC014BC15BC84B5826083
:100B100084BD85B5816085BDECEAF0E0E491F0E04C
:100B2000EE0FFF1FEF56FF4F85919491E0ECF0E040
:100B3000E491E093B104C0E088CF1092800010925D
:100B40008100809181008860809381008091810084
:100B5000816080938100ECEAF0E0E491F0E0EE0F38
:100B6000FF1FEF56FF4F85919491E0ECF0E0E49188
:100B7000E093B0046ACF1092B0001092B10080915F
:100B8000B00082608093B0008091B100816080935A
:100B9000B100ECEAF0E0E491F0E0EE0FFF1FEF5659
:100BA000FF4F859194919093AF048093AE04E0EC55
:100BB000F0E0E491E093AD0448CF60E072E18AE7B1
:100BC00090E00E94802149015A0181E0881A910831
:100BD000A108B108C13031F480918100887F816023
:100BE000809381009801220F331FD7010E94A52115
:100BF00028EE33E040E050E00E945E21C13099F0E1
:100C0000C23019F1C11104CF87BC2093BA043093CC
:100C1000BB044093BC045093BD0480916E0082607D
:100C200080936E00F5CE9092890080928800209388
:100C3000B6043093B7044093B8045093B90480913C
:100C40006F00826080936F00E3CE8092B3002093A8
:100C5000B2043093B3044093B4045093B50480912C
:100C60007000826080937000D3CE2FB7F8946091AB
:100C700023047091240480912504909126042FBFB1
:100C800008950F931F93CF93DF93EC010E943506D5
:100C9000688779878A879B87E881F9810284F38551
:100CA000E02DCE01099597FF15C00E9435060885F5
:100CB00019852A853B85601B710B820B930B0C8178
:100CC0001D812E813F81601771078207930720F3F2
:100CD0008FEF9FEFDF91CF911F910F91089585EDD9
:100CE0008093BC008091BC0084FDFCCF10928804EE
:100CF00008952091FF03260F3327331F213231053A
:100D0000ECF420918804FC0190E080E0243069F04C
:100D100082E00895A091FF032191AC0141525C4F04
:100D2000A40FB52FB11D2C930196861798F38091CF
:100D3000FF03680F6093FF0380E0089581E008954A
:100D40000895E091400480913F04E81730F4F0E00A
:100D5000EE5BFB4F808190E008958FEF9FEF089549
:100D60009091400480913F042FEF3FEF981748F493
:100D7000E92FF0E0EE5BFB4F208130E09F5F909326
:100D80004004C901089580913F0490914004891B5B
:100D9000990B0895CF92DF92EF92FF920F931F93DA
:100DA000CF93DF937C01CB018A0120918904222318
:100DB00089F0EB016B01C40ED51ECC15DD0569F081
:100DC0006991D701ED91FC910190F081E02DC7016F
:100DD0000995F3CF642F0E947906C801DF91CF9166
:100DE0001F910F91FF90EF90DF90CF900895CF93D8
:100DF000DF931F92CDB7DEB7698320918904222348
:100E0000F9F02091AC04203258F021E030E0FC01F0
:100E10003383228390E080E00F90DF91CF9108959B
:100E200080918A04E82FF0E0E557FB4F9981908389
:100E30008F5F80938A048093AC0481E090E0ECCFD4
:100E400061E0CE0101960E947906F7CFCF93C62FBD
:100E500090914104906221E0209389049093AB0427
:100E600010928A041092AC04682F8BE595E00E94E2
:100E7000F7066C2F8BE595E00E94F706CF910C9456
:100E8000F300FC01248131E0309389042093AB040A
:100E900010928A041092AC048485682B8BE595E04F
:100EA0000E94F7060C94F30088E08093430660E00C
:100EB00087E396E00C9441076093390470933A04F9
:100EC00091E0909389048093AB0410928A0410926D
:100ED000AC048BE595E00E94F7060C94F30020919A
:100EE0002D0430912E042817390771F490912B04AA
:100EF00080912C04981741F0E0912B04F0E0E1562A
:100F0000FC4F808190E008958FEF9FEF0895EF925E
:100F1000FF920F931F93CF93DF93DC015C96ED90CC
:100F2000FC905D97E114F10479F481E090E0139670
:100F30009C938E93129790E080E0DF91CF911F9168
:100F40000F91FF90EF9008955196ED91FC9152977B
:100F500050968C915097982F90950FB75E962C9144
:100F60005E97122F127021FD6095F8942081112355
:100F700019F1282B2083E7012197F1F728E0462F6C
:100F800050E0308160FF1AC0382B3083E701219791
:100F9000F1F7BA0175956795215089F7112381F012
:100FA0008081892380830FBF5C968D919C910197EE
:100FB000F1F781E090E0C1CF2923DCCF3923E5CFE1
:100FC0009081892BEFCF20912D0430912E0428178A
:100FD000390771F480912C0420912B0490E0805CFF
:100FE0009F4F821B910960E470E00E944A2108959E
:100FF00090E080E0089520912D0430912E04281770
:101000003907B9F490912B0480912C04981789F03A
:10101000E0912B04F0E0E156FC4F808120912B04FD
:1010200030E02F5F3F4F2F73332720932B0490E046
:1010300008958FEF9FEF089590E080E0089510925B
:101040009E0361E089E00E94F40264E670E080E0C3
:1010500090E00E94C00461E08AE00C94F40260E039
:101060008CE00E94F40268E572E080E090E00E946B
:10107000C00461E08CE00C94F40260E085E00E9422
:10108000F40260E47CE980E090E00E94C00461E04A
:1010900085E00C94F4028F929F92AF92BF92FF92E0
:1010A0000F931F93CF93DF93982F990F990F990F59
:1010B00024E0F22EF90E98E0899FE00111242B968E
:1010C000469F002D112410E030E020E04801590136
:1010D000A62A322F212F102F0027802A912AA22AF8
:1010E000B32A8F2D90E0C817D9077CF020912306F2
:1010F000309124068217930720F4B501A4010E94C1
:101100008E000E940204F394ECCFDF91CF911F91E7
:101110000F91FF90BF90AF909F908F9008950F9385
:10112000362FE42F90E04091230650912406841737
:10113000950740F4422F50E070E060E05E2B632B97
:101140000E948E00002319F00F910C9402040F915D
:1011500008950F9380912F04882361F001E020E02F
:1011600040E060E080E00E948F0881E0809307010A
:1011700010922F040F91089590914104906221E004
:10118000209389049093AB0410928A041092AC04CB
:10119000682F8BE595E00E94F7060E94F30080918E
:1011A000410461E080620E945001109240048093EB
:1011B0003F048BE595E00E94B0060895CF93C82FB9
:1011C000C770883060F083E10E94BC0890E002C0E4
:1011D00095958795CA95E2F78170CF91089582E140
:1011E000F3CFCF93DF93C82FD1E0883008F4D0E05D
:1011F0008D2F0E94BC08C77041E050E060E070E0B5
:1012000004C0440F551F661F771FCA95D2F7682F79
:10121000642B8D2FDF91CF910C942607CF93DF9312
:10122000C82FDDE0883008F4DCE08D2F0E94BC0878
:10123000C77041E050E060E070E004C0440F551F0B
:10124000661F771FCA95D2F7682F642B8D2FDF9109
:10125000CF910C942607CF92DF92EF92FF920F93DB
:101260001F93CF93DF93C0913704D0913804F0904F
:101270006705E0906805FE01EE0FFF1FE25BFE4F81
:10128000608171818F2D9E2D0E945C0796E4C92E8E
:1012900091E0D92E10E000E08091110190911201AF
:1012A0000817190784F561E08F2D0E9450011092F4
:1012B000400480933F048BE595E00E94B006F60160
:1012C000419151916F012091390430913A04822764
:1012D000932784179507A1F485E08C9FF0018D9FDB
:1012E000F00D1124EE5CFE4FE00FF11F8081082EFF
:1012F000000C990B909336048093350480E00DC068
:101300000F5F1F4FC9CF809135049091360400972D
:1013100069F01092360410923504DF91CF911F913D
:101320000F91FF90EF90DF90CF9008956FEF70E0F6
:101330008F2D9E2D0E945C072196D0933804C09378
:1013400037048091130190911401C817D907B1F6A1
:101350001092380410923704D1CF0F931F93CF937C
:101360008C01C62F0E9441076C2F6460C8010E9447
:1013700041076C2F6B7FC8010E94410783EC90E00E
:101380000197F1F7CF911F910F9108950F931F933C
:10139000CF93DF938C01D62FC42F607F642B0E94E4
:1013A000AD0980E1D89FB00111246C2BC801DF91F9
:1013B000CF911F910F910C94AD09CF93DF93CDB7CF
:1013C000DEB728970FB6F894DEBF0FBECDBF98E00A
:1013D000EBE1F1E0DE01119601900D929A95E1F7B3
:1013E00090913F06961710F46FEF690F262F30E0AB
:1013F000220F331F41E050E04C0F5D1F240F351FBB
:10140000F9016081680F606840E087E396E0289604
:101410000FB6F894DEBF0FBECDBFDF91CF910C9415
:10142000C60940E061E087E396E00E94C6098BE3CD
:101430009FE10197F1F780914006882321F060E059
:1014400080E00C94DD09089541E00E94C60981E026
:1014500090E00895CF93DF93EC0188819981009704
:1014600011F00E945C22198218821D821C821B824C
:101470001A82DF91CF910895FC01808191810097BC
:1014800011F00C945C220895CF93DF9310924306E1
:1014900060E087E396E00E94410740912506509165
:1014A000260670E060E080912A0690912B060E944B
:1014B000AB230E94020461E08BE00E94F40283E00F
:1014C0000E94DE08882359F180911F069091200622
:1014D0000A9764F4EDE9F5E0D0E0C0E081919191E4
:1014E000892B11F12196CA30D105C1F7CFEFDFEF7B
:1014F000D0939D03C0939C0381E080939E0368EE8C
:1015000073E080E090E00E94C00481E080933004AA
:101510008093070110922F04DF91CF91089561E02D
:101520008AE00E94F402EBCFFE01EE0FFF1FEE0FE8
:10153000FF1FEF54FA4F80EC94EDA1E0B0E0808300
:101540009183A283B383FE01EE0FFF1FE356FA4F90
:101550008FE198E091838083FE01EE0FFF1FE75239
:10156000FA4F81E090E091838083FE01EF5FF94FB5
:1015700080830E943506FE01EE0FFF1FEE0FFF1F56
:10158000EB58FA4F608371838283938380911F06A7
:101590009091200601969093200680931F06A8CF75
:1015A00060E086E00E94F40260E47CE980E090E084
:1015B0000E94C00461E086E00E94F4020C94440A98
:1015C00020916D0530916E05232B39F421E0FC014B
:1015D0008081882361F020E00AC0BC018091690508
:1015E00090916A050E94B22321E0892BA1F7822FF6
:1015F0000895FB0101900020E9F73197AF01461BE8
:10160000570BDC01ED91FC910280F381E02D0994F0
:10161000CF93DF93FC0144815581608171818EEB12
:1016200094E00E949501EC0168E971E08EEB94E092
:101630000E94F90A8C0F9D1FDF91CF9108958F9220
:101640009F92AF92BF92EF92FF920F931F93CF930F
:10165000DF93CDB7DEB7A1970FB6F894DEBF0FBE0C
:10166000CDBF7C01FA01CB0119A2223008F42AE097
:101670008E010F5D1F4F822E912CB12CA12CBF012A
:10168000A50194010E945E21F901CA016A300CF59E
:10169000605DD8016E938D01232B242B252B79F7C8
:1016A00090E080E0109721F0BD01C7010E94F90A87
:1016B000A1960FB6F894DEBF0FBECDBFDF91CF91DC
:1016C0001F910F91FF90EF90BF90AF909F908F90E0
:1016D0000895695CDECF462F50E070E060E02AE0BC
:1016E0000C941F0BAB01770F660B770B2AE00C9461
:1016F0001F0B0F931F93CF93DF93EC010E94F90A06
:101700008C0168E971E0CE010E94F90A800F911FF7
:10171000DF91CF911F910F9108950C94F90A0F93C7
:10172000CF93C09106018C2F880F63E08C0F0E942D
:10173000DD09C33008F06FC0EC2FF0E0E050FF4F40
:101740008081682F70E08530E8F16450710987E38B
:1017500096E00E94720B6FEB71E087E396E00E94C7
:101760008D0B20910601822F90E0FC01E85FFE4F77
:1017700031E03083FC01E050FF4FE081F0E0E85DB4
:10178000FE4F6081FC01E45FFE4F60838E5C9B4FE7
:10179000FC018081689F602D112441E082E0821B62
:1017A0000E944B0880910601982F990F63E0890FE2
:1017B0000E94DD0968EC70E080E090E0CF910F912D
:1017C0000C94C0046F5F7F4F87E396E00E94720B1A
:1017D00067EA71E087E396E00E948D0B2091060195
:1017E000822F90E0FC01E85FFE4F1082FC01E05088
:1017F000FF4FE081F0E0E35DFE4F6081FC01E45FBC
:10180000FE4F60838E5C9B4FFC018081689F602D42
:10181000112440E0C3CFC43029F56091040187E36F
:1018200096E00E946B0BE0910601F0E0E050FF4F64
:10183000E081F0E0E85DFE4FC081C093100101E05F
:1018400020E040E06C2F81E00E948F0881E00E9440
:10185000DE08C89F602D112420E040E082E00E9455
:101860008F08A0CFC330B1F46091030187E396E005
:101870000E946B0BE0910601F0E0E050FF4FE08129
:10188000F0E0ED5DFE4F808180930F0190E00E94BB
:10189000850388CFEC2FF0E0E050FF4FE081EF3080
:1018A00008F080CFF0E0E95AF34F0C949F21660CCA
:1018B0006D0C700C730C760C790C7C0C7F0C880C06
:1018C0008B0C8E0C910C940C970C850C68E272E0DA
:1018D00087E396E00E948D0B65CF69EA71E0F8CF4F
:1018E0006FEA71E0F5CF65EB71E0F2CF6BEB71E081
:1018F000EFCF61EC71E0ECCF67EC71E0E9CF809164
:10190000310461EA71E0882319F36BE971E0E0CFFB
:101910006DEC71E0DDCF63ED71E0DACF69ED71E080
:10192000D7CF6FED71E0D4CF65EE71E0D1CF6BEE24
:1019300071E0CECF0F931F93CF93DF938C01EB0118
:10194000FC01808191810097E1F0688179816115C6
:101950007105A9F0428153812C813D8142175307C3
:1019600070F00E94BB238C819D81F8019583848354
:101970001D821C82DF91CF911F910F9108950E94CB
:101980005C2288819981F801918380838A819B817F
:10199000938382838C819D819583848319821882AD
:1019A0001B821A82E5CF0F931F93CF93DF93EC0135
:1019B00088819981009759F02A813B812617370742
:1019C00030F081E0DF91CF911F910F9108958B014D
:1019D0006F5F7F4F0E94E522009759F099838883BB
:1019E0001B830A832C813D81232B59F7FC01108234
:1019F000E8CF80E0E7CFEF92FF920F931F93CF9352
:101A0000DF936115710541F480E0DF91CF911F9163
:101A10000F91FF90EF90089541155105B1F07B01B2
:101A2000EC010C811D81040F151FB8010E94D30C1D
:101A3000882351F3288139818C819D81B701820FE0
:101A4000931F0E94BB231D830C8381E0DECFEF92A6
:101A5000FF920F931F93CF93DF93EC017B018A01D9
:101A6000BA010E94D30C81110BC0CE010E942A0A38
:101A7000CE01DF91CF911F910F91FF90EF900895CC
:101A80001D830C83B701888199810E94BB23F0CF0D
:101A9000CF93DF93EC01FB018617970749F0608134
:101AA00071816115710541F0448155810E94270DB6
:101AB000CE01DF91CF9108950E942A0AF9CFFC014F
:101AC000118210821382128215821482FB0101900E
:101AD0000020E9F73197AF01461B570B0C94270DF7
:101AE000EF92FF920F931F93CF93DF9300D0CDB768
:101AF000DEB78C017B016AE971E00E945F0DC701CE
:101B00000E94410697FD0EC08332910559F08983EA
:101B10001A8241E050E0BE016F5F7F4FC8010E9412
:101B2000FB0CEDCFC8010F900F90DF91CF911F916B
:101B30000F91FF90EF900895AF92BF92CF92DF92F6
:101B4000EF92FF920F931F93CF93DF937C016B0172
:101B50005A0189012417350720F48B2D5901042FD0
:101B6000182F6AE971E0C7010E945F0DD601149633
:101B7000CD91DC91AC16BD0620F50C171D0708F4BD
:101B8000E801D601ED91FC911197EC0FFD1F10813A
:101B900010826D917C916A0D7B1D61157105E9F0D4
:101BA000FB0101900020E9F73197AF01461B570B6D
:101BB000C7010E94270DF60180819181C80FD91FAE
:101BC0001883C701DF91CF911F910F91FF90EF9084
:101BD000DF90CF90BF90AF900895C7010E942A0A6E
:101BE000EACFEF92FF920F93CF93DF9300D000D014
:101BF00000D0CDB7DEB77C018091100101E06230EA
:101C000009F449C0633009F44AC0282F40E061302C
:101C100009F043C020E040E0682F81E00E948F0877
:101C200044E150E061EF71E0C7010E94FB0C2FE03E
:101C300030E050E040E0B701CE0101960E949C0DDB
:101C4000BE016F5F7F4FC7010E949A0CCE010196C3
:101C50000E943C0A61E080E00E94DD09F7014481B6
:101C600055816081718187E396E00E9495018091A2
:101C70000601982F990F63E0890F0E94DD092696CF
:101C80000FB6F894DEBF0FBECDBFDF91CF910F919D
:101C9000FF90EF900895282F482F60E0BECF20E0FE
:101CA000FBCF0F931F93CF93DF9300D000D000D0D2
:101CB000CDB7DEB780919E038823F1F110929E0389
:101CC00080919C0390919D038A309105ACF5209101
:101CD0001F06309120062115310571F1FC01EE0F30
:101CE000FF1FE356FA4F40815181452B29F11182A4
:101CF0001082FC01EF5FF94F1082FC01EE0FFF1F15
:101D0000E55FF94F11821082FC01EE0FFF1FEE0F0D
:101D1000FF1FEF54FA4F1082118212821382880F34
:101D2000991FFC01E351FA4F1182108221503109B1
:101D30003093200620931F0660E08AE00E94F402A0
:101D400060ED77E080E090E00E94C0041091100107
:101D500000E020E040E0612F81E00E948F0820E059
:101D600040E0612F82E00E948F0801E02FE04FE009
:101D70006FE080E00E948F0880910F0190E00E9448
:101D800085030E94110A0E94540762E080E00E94CD
:101D9000DD0966E072E087E396E00E948D0B63E068
:101DA00080E00E94DD0969E172E087E396E00E942D
:101DB0008D0B80910601982F990F63E0890F0E9487
:101DC000DD0960913D06862F816080933D06696044
:101DD00040E087E396E00E94C6096EE272E0CE0121
:101DE00001960E945F0D61E0CE0101960E94F10D07
:101DF000CE0101960E943C0A60E08BE00E94F40252
:101E000081E00E94DE0891E0811190E0909330041F
:101E10001092070110922F0426960FB6F894DEBF99
:101E20000FBECDBFDF91CF911F910F910895CF933A
:101E3000DF9300D000D000D0CDB7DEB760E08AE0FD
:101E40000E94F40260ED77E080E090E00E94C00420
:101E500061E372E0CE0101960E945F0D60E0CE0169
:101E600001960E94F10DCE0101960E943C0A60E0AD
:101E700087E00E94F40260E47CE980E090E00E9448
:101E8000C00469E372E0CE0101960E945F0D61E03B
:101E9000CE0101960E94F10DCE0101960E943C0AEE
:101EA00061E087E00E94F40226960FB6F894DEBF48
:101EB0000FBECDBFDF91CF910895CF93DF9300D0B8
:101EC00000D000D0CDB7DEB761E472E0CE0101965C
:101ED0000E945F0D60E0CE0101960E94F10DCE01DF
:101EE00001960E943C0A60E088E00E94F40260E4EF
:101EF0007CE980E090E00E94C00469E472E0CE01D9
:101F000001960E945F0D61E0CE0101960E94F10DE5
:101F1000CE0101960E943C0A61E088E00E94F40232
:101F200061E08AE00E94F40226960FB6F894DEBFC4
:101F30000FBECDBFDF91CF9108950F931F93CF9325
:101F4000DF9300D000D000D0CDB7DEB78C018EEB90
:101F500094E00E94F3016EEB74E0892B41F484E479
:101F600096E00E94E307892B49F164E476E0CE0114
:101F700001960E94700DBE016F5F7F4F89E695E06C
:101F80000E949A0CCE0101960E943C0AF80111822F
:101F90001082138212821582148269E675E0C801EC
:101FA0000E94480DC80126960FB6F894DEBF0FBEFA
:101FB000CDBFDF91CF911F910F9108956AE971E034
:101FC000C8010E945F0DEECF0F931F93CF93DF9355
:101FD000CDB7DEB72C970FB6F894DEBF0FBECDBFDE
:101FE0008C0162E572E0CE0101960E945F0DF8015E
:101FF0004481558160817181CE0101960E94FB0C64
:10200000811104C0CE0101960E942A0ACE010196D8
:102010000E94080BCE0101960E943C0A61E089E013
:102020000E94F40261E08BE00E94F40261E08CE027
:102030000E94F40261E088E00E94F40261E087E01F
:102040000E94F40261E086E00E94F40261E085E013
:102050000E94F40261E08BE00E94F40281E0809330
:10206000310467E572E0CE0101960E945F0DF80130
:102070004481558160817181CE0101960E94FB0CE3
:10208000811104C0CE0101960E942A0A18861F827F
:102090001A8619861C861B86BE016F5F7F4FCE0194
:1020A00007960E94480D63E0CE0107960E94F10D4D
:1020B000CE0107960E943C0ACE0101960E943C0A7E
:1020C00001E020E042E360E081E00E948F080E948E
:1020D000540784E10E94DE08811107C064E670E0C5
:1020E00080E090E00E94C004F4CF2C960FB6F894E4
:1020F000DEBF0FBECDBFDF91CF911F910F9108952D
:102100007F928F929F92AF92BF92CF92DF92EF9287
:10211000FF920F931F93CF93DF9300D000D000D096
:10212000CDB7DEB74B015C01042F722E0E9435063D
:102130006B017C0110E00E9435066C197D098E0947
:102140009F09681579058A059B0508F07BC0CE01BB
:1021500001960E949D0FBE016F5F7F4F89E695E05B
:102160000E949A0CCE0101960E943C0A8EE592E0F4
:102170000E94E00A882349F161E672E08EEB94E068
:102180000E94790B63E672E0CE0101960E945F0D1A
:10219000CE0101960E94E40FCE0101960E943C0AF6
:1021A00080E026960FB6F894DEBF0FBECDBFDF915C
:1021B000CF911F910F91FF90EF90DF90CF90BF9044
:1021C000AF909F908F907F90089581E00E94DE08ED
:1021D000811106C083E00E94DE08811101C01F5FEB
:1021E000133018F063EC72E0CFCF002369F085E084
:1021F0000E94DE08882341F087E00E94DE088823E1
:1022000019F06AE672E0C0CF772069F086E00E949C
:10221000DE08882319F063E772E0B6CF82E00E94FF
:10222000DE088111F8CF84E10E94DE08811103C02D
:102230006AE772E0A9CF64E670E080E090E00E9477
:10224000C00479CF81E0ADCF0F931F93CF93DF937D
:1022500000D000D000D0CDB7DEB7182F8AE00E94A2
:10226000CB0200E0892B59F060E08AE00E94F40282
:1022700060ED77E080E090E00E94C00401E011236F
:1022800009F4BAC086E00E94DE088111D6C082E05F
:102290000E94DE088111D1C061E872E0CE01019692
:1022A0000E945F0D62E0CE0101960E94F10DCE0109
:1022B00001960E943C0A002321F061E08AE00E941E
:1022C000F40210E0812F26960FB6F894DEBF0FBE01
:1022D000CDBFDF91CF911F910F91089564E670E01B
:1022E00080E090E00E94C00486E00E94DE08811138
:1022F000F5CF82E00E94DE088111F0CF68E873E13B
:1023000080E090E00E94C00461E087E00E94F40257
:1023100061E085E00E94F40261E972E0CE0101967D
:102320000E945F0D61E0CE0101960E94F10DCE0189
:1023300001960E943C0A6AE972E084E496E00E94F9
:10234000790BC0CF6091100101E020E0462F81E0C1
:102350000E948F0861E08BE00E94F4026EE972E057
:10236000CE0101960E945F0D61E0CE0101960E94B0
:10237000F10DCE0101960E943C0A60E086E00E94C9
:10238000F40220E041E060E47FE180E090E00E9420
:102390008010882309F495CF66EA72E0CE01019699
:1023A0000E945F0D60E0CE0101960E94F10DCE010A
:1023B00001960E943C0A60E088E00E94F40220E05E
:1023C00041E060E47CE980E090E00E948010182FFA
:1023D000882309F476CF61E088E00E94F40261E08E
:1023E00086E00E94F4026FEA72E084E496E00E94C4
:1023F000790B0E94440A66CF84E00E94DE088111B6
:1024000006C080E00E94DE08882309F445CF85E0FD
:102410000E94DE08882309F495CF61E872E0CE01BE
:1024200001960E945F0D62E0CE0101960E94F10DBF
:10243000CE0101960E943C0A45CF0E94510E0E9497
:10244000540761E372E0CE0101960E945F0D60E0E7
:10245000CE0101960E94F10DCE0101960E943C0A28
:1024600060E087E00E94F40268E873E180E090E0B9
:102470000E94C00460E085E00E94F40263EB72E019
:10248000CE0101960E945F0D60E0CE0101960E9490
:10249000F10DCE0101960E943C0A60E375E780E0F1
:1024A00090E020CF0F931F93CF93DF9300D000D005
:1024B00000D0CDB7DEB7082F8AE00E94CB0210E033
:1024C000892B59F060E08AE00E94F40260ED77E029
:1024D00080E090E00E94C00411E085E0011187E0F7
:1024E0000E94DE0881111EC061E872E0CE010196F3
:1024F0000E945F0D62E0CE0101960E94F10DCE01B7
:1025000001960E943C0A111142C010E0812F2696CC
:102510000FB6F894DEBF0FBECDBFDF91CF911F91F4
:102520000F91089581E00E94DE088823A9F183E0DD
:102530000E94DE08882321F061E089E00E94F40215
:102540006091100101E020E0462F81E00E948F0899
:1025500086E00E94DE0881114EC082E00E94DE0803
:10256000811149C08BE00E94CB02892B09F44FC036
:1025700060E08BE00E94F40220E041E060E177E25D
:1025800080E090E00E948010811141C0BECF61E0E8
:102590008AE00E94F402B9CF6CEB72E0CE010196A2
:1025A0000E945F0D62E0CE0101960E94F10DCE0106
:1025B00001960E943C0A68EC72E084E496E00E9476
:1025C000F90A03E181E00E94DE08811102C0015096
:1025D00059F481E00E94DE088111A9CF83E00E94B6
:1025E000DE088111A4CF8FCF60E177E280E090E038
:1025F0000E94C004E7CF8BE00E94CB02892B21F020
:1026000060E08BE00E94F40281E00E9424116CECF7
:1026100072E0CE0101960E945F0D60E0CE0101964E
:102620000E94F10DCE0101960E943C0A41E064E651
:1026300082E00E944B0885E00E94DE08882309F4AE
:102640005BC087E00E94DE08882309F455C021E0C2
:1026500040E068EF7AE280E090E00E9480108823FA
:1026600009F453CF85E00E94DE0881115CC021E0AF
:1026700040E060ED77E080E090E00E948010182F4D
:10268000882309F442CF41E060E082E00E944B08D9
:1026900087E00E94DE08882309F452C083E00E948C
:1026A000DE08882321F061E089E00E94F40260EEF8
:1026B00072E0CE0101960E945F0D61E0CE010196AD
:1026C0000E94F10DCE0101960E943C0A64EF71E078
:1026D00080E090E00E94C00480E00E9424116CEE33
:1026E00072E084E496E00E94790B68EE73E088EB78
:1026F00091E00E94F2040ACF60E08CE00E94F402B4
:1027000068E572E080E090E00E94C00461E08CE047
:102710000E94F40221E040E060EA7FE080E090E087
:102720000E94801088CF87E00E94DE08882309F489
:102730009ECF21E040E068EE73E080E090E08DCF36
:1027400060EF72E084E496E00E94790B64EF72E03F
:10275000CE0101960E945F0D61E0CE0101960E94BC
:10276000F10DCE0101960E943C0A60E089E00E94D2
:10277000F402BBCF1F920F920FB60F9211242F932A
:102780003F934F935F936F937F938F939F93AF93F9
:10279000BF93EF93FF938091B2049091B304A09103
:1027A000B404B091B504892B8A2B8B2BD1F1909175
:1027B000AD04E091AE04F091AF048081892780835D
:1027C0008091B2049091B304A091B404B091B50487
:1027D000181619061A061B069CF48091B2049091F3
:1027E000B304A091B404B091B5040197A109B10953
:1027F0008093B2049093B304A093B404B093B5044F
:10280000FF91EF91BF91AF919F918F917F916F91C8
:102810005F914F913F912F910F900FBE0F901F909E
:10282000189580910B01E2E7F0E0E4919FEF90931F
:102830000B01E13051F030F0E23069F060E00E94CD
:10284000F402DECF10926E00F9CF90916F009D7F61
:1028500090936F00F3CF909170009D7F90937000E4
:1028600091E09093B0009091B100987F9460909324
:10287000B1001092B300E2CF1F920F920FB60F92E9
:1028800011242F933F934F935F936F937F938F9375
:102890009F93AF93BF93EF93FF938EEB94E00E94CF
:1028A0001302FF91EF91BF91AF919F918F917F9113
:1028B0006F915F914F913F912F910F900FBE0F90AD
:1028C0001F9018951F920F920FB60F9211242F93FD
:1028D0008F939F93EF93FF93E091CE04F091CF04F9
:1028E0008081E091D404F091D50482FD1BC09081D9
:1028F0008091D7048F5F8F732091D804821741F0A5
:10290000E091D704F0E0E254FB4F958F8093D70419
:10291000FF91EF919F918F912F910F900FBE0F908C
:102920001F9018958081F4CF1F920F920FB60F92CF
:1029300011242F933F938F939F93AF93BF938091D5
:10294000230490912404A0912504B0912604309191
:10295000220423E0230F2D3758F50196A11DB11D48
:10296000209322048093230490932404A0932504AD
:10297000B09326048091270490912804A091290403
:10298000B0912A040196A11DB11D80932704909354
:102990002804A0932904B0932A04BF91AF919F917A
:1029A0008F913F912F910F900FBE0F901F90189510
:1029B00026E8230F0296A11DB11DD2CF1F920F92C0
:1029C0000FB60F9211242F933F934F935F936F9302
:1029D0007F938F939F93AF93BF93EF93FF938091D8
:1029E000B900887F803609F44AC0F0F5883209F4CE
:1029F000A7C018F5803109F49BC0B8F4882309F406
:102A0000F9C0883009F494C0FF91EF91BF91AF9164
:102A10009F918F917F916F915F914F913F912F91F6
:102A20000F900FBE0F901F901895883109F488C041
:102A3000803251F78093860414C0803409F49DC01D
:102A400040F48033B9F38833F9F68093860485EC3B
:102A5000B0C0803509F485C0883509F496C0883443
:102A600099F60E946F06D0CF883909F48CC038F5EA
:102A7000883729F050F4883611F0803729F683E042
:102A8000809388041092210457C0883809F47BC0D1
:102A9000803919F0803809F0B7CF80912104803255
:102AA00008F071C0E091210481E08E0F8093210431
:102AB0008091BB00F0E0EF5FFB4F80833DC0803B27
:102AC00039F0E0F4803A09F479C0883A09F09CCFF3
:102AD00084E080938804109200041092FF03E09138
:102AE0003D04F0913E0409958091FF0381110FC0D0
:102AF00081E08093FF031092DF0309C0803C09F45A
:102B0000A6CF883C09F4A3CF883B09F07DCFE091A4
:102B1000000481E08E0F80930004F0E0E152FC4F4E
:102B200080818093BB00909100048091FF0329C0B5
:102B3000809163048093BB0085EC8093BC0064CFDC
:102B40009091850480918404981758F5E09185044C
:102B500081E08E0F80938504F0E0EC59FB4F80817B
:102B6000E9CFE091850481E08E0F80938504809108
:102B7000BB00F0E0EC59FB4F80839091850480917D
:102B800084049817C8F285E8D8CFE091850481E0E5
:102B90008E0F809385048091BB00F0E0EC59FB4FD1
:102BA00080838091870481115CCF81E080936204EF
:102BB00084EA8093BC001092880426CF85EC809331
:102BC000BC001092880480912104803230F4E0919E
:102BD0002104F0E0EF5FFB4F10826091210470E070
:102BE000E0913B04F0913C0481E094E0099510925F
:102BF00021040ACF1092860434CF1F920F920FB691
:102C00000F9211242F933F934F935F936F937F9372
:102C10008F939F93AF93BF93EF93FF93E0912D0416
:102C2000F0912E04309749F0A685B7858585968D5D
:102C300091FF14C09C918923A1F4FF91EF91BF9162
:102C4000AF919F918F917F916F915F914F913F9144
:102C50002F910F900FBE0F901F9018959C91892374
:102C600061F7A389B4899C918589809589238C9388
:102C7000868997890197F1F7608D718DA685B78553
:102C8000558538E020E0CB010197F1F7822F90E0E5
:102C900095958795282F4C91452309F02068315050
:102CA00091F7868D81FD209580912C0490E001960E
:102CB0008F73992730912B04381799F0A0912C0429
:102CC000B0E0A156BC4F2C9380932C04828D938D41
:102CD0000197F1F7A389B4898C919589892B8C93FD
:102CE000ACCF868D8160868FF1CFCF93DF9310922A
:102CF000C1041092C00488EE93E0A0E0B0E080939D
:102D0000C2049093C304A093C404B093C5042AE5FD
:102D100031E03093BF042093BE0425EC30E03093C3
:102D2000CB042093CA0424EC30E03093CD042093EC
:102D3000CC0420EC30E03093CF042093CE0421EC7F
:102D400030E03093D1042093D00422EC30E0309373
:102D5000D3042093D20426EC30E03093D5042093A2
:102D6000D4041092D7041092D8041092D90410926F
:102D7000DA0410925E0510925D0580935F059093D2
:102D80006005A0936105B09362052CE631E03093B5
:102D90005C0520935B0510924706109246068093CF
:102DA000480690934906A0934A06B0934B068AE8DA
:102DB00091E0909345068093440610925B06109232
:102DC0005A0610925D0610925C0610925F061092F1
:102DD0005E061092610610926006609162066E7F38
:102DE0006D7F609362066695617081E0682782E07E
:102DF0000E94F40261E082E00E945403E1EBF0E003
:102E0000E491E0935406EDE9F0E0E491F0E0EE0F98
:102E1000FF1FEF56FF4F8591949190935606809334
:102E2000550660E080E10E9454038091620681FDB6
:102E300004C061E080E10E94F40280E180935006CA
:102E4000EFEBF0E0E491E0935106EBEAF0E0E4917F
:102E5000F0E0EE0FFF1FE957FF4F8591949190939B
:102E600053068093520686E290E090936805809323
:102E7000670584E090E09093140180931301909390
:102E800012018093110110923A06109239068EE7D2
:102E900091E090933806809337061092400687E2BF
:102EA00080933B0684E18093410684E08093420650
:102EB00010924306109222061092290610923006B4
:102EC00010923106109232061092330681E0809300
:102ED0002F0680932C0610922D0682E080932E06FA
:102EE0001092210684E590E09093260680932506B3
:102EF0000E94C02190932B0680932A06009709F424
:102F00005DC024E5DC011D922A95E9F78CE190E093
:102F1000909324068093230684E090E09093280603
:102F20008093270680912206882341F061E084E0A7
:102F30000E94540360E084E00E94F402EFE9F0E0B4
:102F4000E491F0E0EE0FFF1FEF56FF4F8591949153
:102F50009093350680933406E3EBF0E0E491E09340
:102F600036060E943506C1E0D6E0EDE9F5E045E71A
:102F700055E0199211921192DA016D937D938D9320
:102F80009D93AD019F01225B3F4FD9011D921C9281
:102F9000B5E0E13BFB0769F71092200610921F068F
:102FA00060E073E08FE695E00E945F0D6AE971E0F2
:102FB00089E695E0DF91CF910C945F0D1092260683
:102FC000109225061092240610922306A5CFCF93C7
:102FD000DF93CDB7DEB766970FB6F894DEBF0FBEAE
:102FE000CDBF789484B5826084BD84B5816084BD92
:102FF00085B5826085BD85B5816085BD80916E0097
:10300000816080936E0010928100809181008260C7
:103010008093810080918100816080938100809104
:1030200080008160809380008091B10084608093F3
:10303000B1008091B00081608093B00080917A00EF
:10304000846080937A0080917A00826080937A0015
:1030500080917A00816080937A0080917A00806804
:1030600080937A001092C100E091CE04F091CF04D9
:1030700082E08083E091CE04F091CF041082E09151
:10308000CA04F091CB041082E091CC04F091CD04FD
:1030900080E180831092D604E091D204F091D304B1
:1030A00086E08083E091D004F091D104808180613A
:1030B0008083E091D004F091D10480818860808386
:1030C000E091D004F091D104808180688083E09108
:1030D000D004F091D10480818F7D808310925F06AF
:1030E00010925E0610925D0610925C0610925B06CE
:1030F00010925A068DE991E09093610680936006E4
:1031000090915006963108F047C02DEB30E0309397
:103110005B0620935A062BE931E030935D0620933D
:103120005C062CE231E030935F0620935E0620912E
:10313000680084E0983048F031E09E3008F430E0D8
:1031400081E001C0880F3A95EAF7822B80936800EE
:103150002DE630E0983050F02BE630E09E3030F035
:103160002CE630E0963110F030E020E03093580645
:1031700020935706292F30E0983008F0C4C281E030
:1031800001C0880F9A95EAF78093590680916006EE
:10319000909161060197F1F780915E0690915F062C
:1031A000892B49F1E0912D04F0912E0426E0E434BE
:1031B000F20709F1309739F0A389B4899C91858988
:1031C000809589238C93809162068E7F809362061E
:1031D00010922C0410922B0484E496E090932E0419
:1031E00080932D04E0915706F091580680819091CC
:1031F0005906892B8083109241040E9422036FEFAD
:1032000080E00E9426076FEF81E00E9426076FEFA3
:1032100070E080916705909168050E945C071092AC
:1032200038041092370461E08AE00E94F40261E001
:103230008AE00E94540361E089E00E94F40261E0A8
:1032400089E00E94540361E08BE00E94F40261E097
:103250008BE00E94540361E08CE00E94F40261E084
:103260008CE00E94540361E088E00E94F40261E077
:1032700088E00E94540361E087E00E94F40261E06C
:1032800087E00E94540361E086E00E94F40261E05E
:1032900086E00E94540361E085E00E94F40261E050
:1032A00085E00E94540361E08BE00E94F40287E015
:1032B0000E94F10887E00E940E0985E00E94F10853
:1032C00085E00E940E0986E00E94F10886E00E94D7
:1032D0000E0984E00E94F10884E00E940E0982E059
:1032E0000E94F10882E00E940E0980E00E94F1082D
:1032F00080E00E940E0984E10E94F10884E10E94AE
:103300000E0983E00E94F10883E00E940E0981E02B
:103310000E94F10861E083E00E94540380910F0154
:1033200090E00E9485038DE00E94F1088DE00E94EC
:103330000E098BE00E94F1088BE00E940E098EE0DE
:103340000E94F1088EE00E940E0988E00E94F108B8
:1033500088E00E940E0989E00E94F10889E00E943D
:103360000E098AE00E94F1088AE00E940E0980910D
:1033700027069091280697FD08C061E00E9454033B
:1033800060E0809127060E94F40281E0809322068B
:10339000409125065091260670E060E080912A0653
:1033A00090912B060E94AB230E9402040E942203EC
:1033B00010923C0680914206823018F098E090937B
:1033C0003C0680933F0662E370E080E090E00E945C
:1033D000C0046091430687E396E00E94410768EECF
:1033E00073E080E090E00E94C00460E387E396E031
:1033F0000E94AD090BE416E4C8010197F1F760E300
:1034000087E396E00E94AD09C8010197F1F760E3F8
:1034100087E396E00E94AD0983E592E00197F1F71A
:1034200060E287E396E00E94AD0960913C0660622D
:1034300040E087E396E00E94C60984E080933D0661
:1034400040E06CE087E396E00E94C6090E94110A02
:1034500082E080933E0640E066E087E396E00E94CB
:10346000C60940E062E087E396E00E94C6098BE36C
:103470009FE10197F1F762E080E00E94DD0966E0DC
:1034800072E087E396E00E948D0B63E080E00E948B
:10349000DD096CE173E087E396E00E948D0B80917B
:1034A0000601982F990F63E0890F0E94DD09609152
:1034B0003D06862F816080933D06696040E087E38A
:1034C00096E00E94C60960E08AE00E94F40268E883
:1034D00073E180E090E00E94C00487E00E94DE0873
:1034E000811106C085E00E94DE0860E0811101C004
:1034F00061E089E00E94F40287E00E94DE088823F0
:1035000041F085E00E94DE08882319F081E0809375
:10351000310486E00E94DE08882309F401C10E947C
:10352000440ABE016F5F7F4F7B0111E00E943506A8
:103530002B013C018DE995E0988B8F8755E7C52ECF
:1035400055E0D52EDE8ACD8AFC01312C212C9F013D
:1035500022593F4FD9011D921C9280819181329650
:10356000892BB9F1AD89BE894D915D916D917C91A9
:103570001397DC968D909D90AD90BC90DF97D30112
:10358000C201841B950BA60BB70B88159905AA05DC
:10359000BB05F8F0480D591D6A1D7B1DAD89BE891C
:1035A0004D935D936D937C931397C1018F5F994FFA
:1035B000DC018C91882369F082AD93AD009709F00E
:1035C000B7C0CF0184599F4F21E030E0DC012D933B
:1035D0003C937FEF271A370A8D899E8904969E8B2C
:1035E0008D8B9AE02916310409F0B1CFB12CA12CB2
:1035F0004601A6E98A0E911CF401808191818130F7
:10360000910509F4B7C0029709F4BAC0BFEFAB1A2D
:10361000BB0AE2E0CE0ED11CFAE0AF16B10441F7CE
:103620008DE00E94DE0881111BC000913304012748
:103630000093330464E670E088EB91E00E94F204AA
:1036400060910D01069F602D11244091090181E0D8
:103650000E944B086CE271E080E090E00E94C004A0
:103660008EE00E94DE0881111BC000913204012708
:103670000093320464E670E088EB91E00E94F2046B
:1036800060910C01069F602D11244091080182E099
:103690000E944B086CE271E080E090E00E94C00460
:1036A0008BE00E94DE0881111BC0009134040127C9
:1036B0000093340464E670E088EB91E00E94F20429
:1036C00060910E01069F602D112440910A0180E057
:1036D0000E944B086CE271E080E090E00E94C00420
:1036E00088E00E94DE088111A4C080910701882330
:1036F00009F477C00E9454071092070168EC70E04B
:1037000080E090E0A6C19E3040F42850310981E06D
:1037100001C0880F2A95EAF737CD2E503109F7CF2F
:1037200082E00E94DE088111FACE0E94510EF9CE8D
:103730005F013EE4A30EB11CD5014D915C91481789
:1037400059070CF046CF9F0124593F4F61E070E0CC
:10375000D9016D937C934F5F5F4FD5014D935C937F
:10376000481759070CF435CF62E070E0D9016D932A
:103770007C932FCFD6019896ED91FC91099546CF79
:10378000D6019896ED91FC91099580911F06909134
:103790002006009709F43ACFF60120A531A5232B86
:1037A00009F434CF11A610A6F501EF5FF94F10828E
:1037B000D4011D921C92F501EE0FFF1FEE0FFF1FAB
:1037C000EB58FA4F14AE15AE16AE17AEF601E85828
:1037D000FF4F1182108201979093200680931F065D
:1037E00015CFE0910601E53009F050C1E0910501E7
:1037F000EE30F8F4F0E0E150F44E0C949F210D1CF3
:10380000011D041D071D0B1D0D1D111D131D2C1D5C
:103810002F1D321D351D3A1D431D63EC72E08EEBEA
:1038200094E00E94790B68EC72E084E496E00E94D8
:10383000F90A8AE00E94DE08811118C00E9454072C
:10384000809106018F5F863008F02CC180930601BD
:1038500080910601982F990F63E0890F0E94DD097E
:1038600068EC70E080E090E00E94C00489E00E9473
:10387000DE0881112AC080910601E82FF0E0E050B7
:10388000FF4F90819F5F9083953028F09DEF980FB8
:10389000923008F410829081983040F0853031F4F5
:1038A00090913104911102C01092050190819E30D7
:1038B00020F0853011F41092050190819A3018F0B3
:1038C000853008F410820E948F0B0E942B09082F6C
:1038D000882309F469C064E670E088EB91E00E94F7
:1038E000F204B0900701BB2009F45CC118861F8266
:1038F0001A8619861C861B8609831A82F701019095
:103900000020E9F73197AF014E195F09B701CE01E9
:1039100007960E94270D0E9435062B013C0101E00D
:103920002FE04FE06FE080E00E948F0880912F042D
:1039300081111AC080911F06909120060A9794F475
:10394000D12CC12CAF85B8898D919D91B88BAF8753
:10395000892B09F4C2C3BFEFCB1ADB0AEAE0CE160B
:10396000D10481F710932F040E943506641975095C
:1039700086099709603177428105910508F495C061
:1039800060E373E08EEB94E00E94790B6CE271E0EF
:103990008CED90E00E94F204B12CCE0107960E94BB
:1039A0003C0AB11010920701C7010E949D0FB70198
:1039B00089E695E00E949A0CC7010E943C0A8AE9B8
:1039C00091E00E94E00A811177C180913104811158
:1039D000EBC187E493E00E94E00A882309F438C130
:1039E00081E00E94241186E00E94DE08811106C059
:1039F00082E00E94DE08882309F43FC161E672E09C
:103A00003EC10E94170F15CF0E945D0F12CF81E0BB
:103A10000E9452120ECF80E0FBCF81E00E94241161
:103A200008CF80E0FBCF8091310401E020E08127C6
:103A30008093310460911001462F811101C040E054
:103A400081E00E948F080E948F0B60E273E080E0AB
:103A500090E00E94C004EDCE0E943D08EACE0E9494
:103A6000D00AE7CE0E942F08E4CE60E08BE00E94EF
:103A7000F402DFCE60E08AE00E94F40268EE73E0B8
:103A800080E090E0E6CF61E08AE0F1CFF0E0E05046
:103A9000FF4F8081882309F4CCCE815080830E941F
:103AA0008F0B2CCE10920601D3CE0E942B09D82E5C
:103AB000882309F459CF64E670E088EB91E00E9416
:103AC000F20401E02FE04FE060E080E00E948F0808
:103AD00068EC70E080E090E00E94C0042FE04FE0CE
:103AE0006FE080E00E948F081A8219821C821B827C
:103AF0001E821D82BE01695F7F4FC7010E94480D73
:103B0000DD861E8641E050E0BE01635F7F4FC70146
:103B10000E94FB0C811103C0C7010E942A0AB70151
:103B2000CE0107960E94480DC7010E943C0A2B85D2
:103B30003C854CEF420F2530310508F440E050E061
:103B4000BE01695F7F4FC7010E949C0DB701CE0186
:103B500007960E949A0CC7010E943C0ACE01079664
:103B60000E94080B2B853C8580917305909174050C
:103B70002817390709F0F8CE8F81988560916F0575
:103B800070917005009709F4E4C26115710539F46C
:103B9000232B09F4ECC2FC01808190E0E5C20E9475
:103BA000B223E2C281E00A3219F0033221F480E04C
:103BB0000E945212F9CE81E0013419F0023421F44E
:103BC00080E00E942411F0CE033419F40E94170FF4
:103BD000EBCE043419F40E945D0FE6CE802F000F67
:103BE000990BF1E0833B9F07B1F4609134046127A6
:103BF0006093340480910E01689F602D11244091E0
:103C00000A0180E00E944B086CE271E080E090E0E5
:103C10000E94C004C9CE21E0873D920771F46091F3
:103C2000330461276093330480910D01689F602DF8
:103C300011244091090181E0E5CF8554934009F0BA
:103C4000B3CE68EC72E084E496E00E94790BACCECF
:103C50008AE493E00E94E00A882309F485C080E0AA
:103C60000E94241186E00E94DE08811106C082E0D5
:103C70000E94DE08882309F4C1CE63EB71E08EEB6D
:103C800094E00E94790B85E693E00E94E00A60E0F0
:103C90008111D4C088E693E00E94E00A60E08111BF
:103CA00008C08BE693E00E94E00A882309F4B3C0C1
:103CB00061E08AE00E94F402C0903004D12C81E0DF
:103CC0000E94DE088C151D0421F10091100181E095
:103CD0000E94DE08089F602D112401E020E040E0F2
:103CE00082E00E948F0881E00E94DE0891E081114D
:103CF00001C090E09093300481E00E94DE0866E10C
:103D000073E0811102C069E173E084E496E00E94EF
:103D1000790B8AE00E94CB02892BC9F4809131048F
:103D2000811115C085E00E94DE08882381F087E0BC
:103D30000E94DE08882359F06AE672E0C7010E94FB
:103D40005F0DC7010E94E40FC7010E943C0A80E09A
:103D500090E0892B09F4EACB0E94FF01882309F443
:103D6000E4CB0E940000DDCB8DE493E00E94E00AEA
:103D7000882329F081E00E94521287E03ACE80E544
:103D800093E00E94E00A882329F080E00E9452120A
:103D900085E02FCE83E593E00E94E00A882309F4B2
:103DA00072CF109331046FCF82E493E00E94E00A57
:103DB000882319F01092310466CF86E593E00E94C3
:103DC000E00A60E0811107C089E593E00E94E00A03
:103DD000882329F061E08BE00E94F40254CF8CE547
:103DE00093E00E94E00A882319F00E942F084BCF2D
:103DF0008FE593E00E94E00A882319F00E943D08B5
:103E000042CF82E693E00E94E00A882309F43BCF88
:103E10000E94D00A38CF8EE693E00E94E00A882301
:103E200031F08AE00E94CB02892BF1F40AC081E7CD
:103E300093E00E94E00A882339F061E089E00E9463
:103E4000F40263EB71E036C084E793E00E94E00A7D
:103E5000882369F086E00E94DE08811105C082E0B7
:103E60000E94DE08882369F361E672E023C087E7D9
:103E700093E00E94E00A882331F085E00E94DE088A
:103E80008111DFCFF1CF8AE793E00E94E00A882317
:103E900011F089E0C7CF8DE793E00E94E00A882304
:103EA00071F083E00E94DE0865E073E0882311F082
:103EB0006AE073E08EEB94E00E94790BFDCE80E81F
:103EC00093E00E94E00A882319F00E945D0FCCCF96
:103ED00083E893E00E94E00A882319F00E94170FFC
:103EE000C3CF8EE592E00E94E00A882391F061E65C
:103EF00072E08EEB94E00E94790B63E672E0C701FA
:103F00000E945F0DC7010E94E40FC7010E943C0A96
:103F1000D3CE86E893E00E94E00A882349F080919E
:103F2000310460E173E08111C5CF62E173E0C2CF7B
:103F300089E893E00E94E00A882341F040910A0159
:103F400060910E0180E00E944B087BCF8CE893E0EB
:103F50000E94E00A882331F040E060E080E00E94A7
:103F60004B0882CF8FE893E00E94E00A882331F06B
:103F70004091090160910D0181E0E5CF82E993E074
:103F80000E94E00A882321F040E060E081E0E7CF72
:103F900085E993E00E94E00A882329F068EC72E04A
:103FA00084E496E089CF88E993E00E94E00A8823C0
:103FB00009F482CE85E00E94DE0861E070E088238B
:103FC00011F070E060E08EEB94E00E94720B87E0ED
:103FD0000E94DE0861E070E0882311F070E060E08C
:103FE0008EEB94E00E94720B84E00E94DE08811147
:103FF00004C00E94DE0861E0811160E070E08EEB99
:1040000094E00E94720B86E00E94DE08811105C0D8
:1040100082E00E94DE0861E0811160E070E08EEBDA
:1040200094E00E94720B8AE00E94CB0261E070E093
:10403000892B11F070E060E08EEB94E00E94720B2F
:1040400089E00E94CB0261E070E0892B11F070E002
:1040500060E08EEB94E00E94720B81E00E94DE082B
:1040600064E173E0811102C068E972E08EEB94E0D4
:104070000E948D0B8091310460E173E0811102C0D8
:1040800062E173E08EEB94E00E94790B84E00E9481
:10409000DE08682F8EEB94E00E946B0B80E00E949C
:1040A000DE08682F8EEB94E00E946B0B86E00E9486
:1040B000DE08682F8EEB94E00E946B0B82E00E947A
:1040C000DE08682F8EEB94E00E946B0B68E971E0CC
:1040D0008EEB94E00E94F90AEFCDF601EE0FFF1F80
:1040E000EE0FFF1FEF54FA4F60EE73E984E090E0AB
:1040F0006083718382839383F601EE0FFF1FE35683
:10410000FA4F89EA98E091838083F601EE0FFF1F52
:10411000E752FA4FA1E0B0E0B183A083F601EF5F70
:10412000F94F10830E943506F601EE0FFF1FEE0FC8
:10413000FF1FEB58FA4F60837183828393838091D2
:104140001F069091200601969093200680931F06EB
:1041500009CC6115710559F0232B49F0DB018C91D5
:1041600090E0919581959109892B09F0FDCB6DE344
:1041700073E08EEB94E00E94790B6CE271E088EBC7
:1041800091E00E94F20401E020E040E06FE080E076
:104190000E948F0864EF71E080E090E00E94C0040C
:1041A000FCCB89E695E00E943C0A8FE695E00E94F0
:1041B0003C0A80912A0690912B060E945C228091F5
:1041C00027069091280697FD03C060E00E945403E3
:1041D0008AE891E0909345068093440680912D04EF
:1041E00090912E048454964071F4E0915706F0911A
:1041F000580690818091590680958923808310927A
:104200002E0410922D0408952F923F924F925F92A8
:104210006F927F928F929F92AF92BF92CF92DF92D6
:10422000EF92FF920F931F93CF93DF93CDB7DEB73B
:10423000CA1BDB0B0FB6F894DEBF0FBECDBF0994CF
:104240002A88398848885F846E847D848C849B8426
:10425000AA84B984C884DF80EE80FD800C811B8134
:10426000AA81B981CE0FD11D0FB6F894DEBF0FBE63
:10427000CDBFED010895A29FB001B39FC001A39FE0
:10428000700D811D1124911DB29F700D811D11248F
:10429000911D089597FB072E16F4009407D077FD23
:1042A00009D00E94AC2107FC05D03EF49095819581
:1042B0009F4F0895709561957F4F0895A1E21A2E42
:1042C000AA1BBB1BFD010DC0AA1FBB1FEE1FFF1FBA
:1042D000A217B307E407F50720F0A21BB30BE40B0A
:1042E000F50B661F771F881F991F1A9469F7609551
:1042F0007095809590959B01AC01BD01CF0108950B
:10430000052E97FB1EF400940E94972157FD07D0BD
:104310000E945E2107FC03D04EF40C949721509527
:104320004095309521953F4F4F4F5F4F08959095A1
:104330008095709561957F4F8F4F9F4F0895EE0F39
:10434000FF1F0590F491E02D09940E943B21B7FFD7
:104350000895821B930B0895AA1BBB1B51E107C054
:10436000AA1FBB1FA617B70710F0A61BB70B881F05
:10437000991F5A95A9F780959095BC01CD01089594
:104380000F931F93CF93DF938230910510F482E057
:1043900090E0E0916506F091660630E020E0B0E044
:1043A000A0E0309799F42115310509F44AC0281B83
:1043B000390B24303105D8F58A819B81611571054F
:1043C00089F1FB0193838283FE0111C040815181F9
:1043D0000281138148175907E0F04817590799F4EB
:1043E000109761F012960C93129713961C933296C5
:1043F000CF01DF91CF911F910F9108950093650632
:1044000010936606F4CF2115310551F0421753077A
:1044100038F0A901DB019A01BD01DF01F801C1CF2C
:10442000EF01F9CF9093660680936506CDCFFE012C
:10443000E20FF31F8193919322503109398328832E
:10444000D7CF2091630630916406232B41F420914D
:104450001701309118013093640620936306209170
:104460001501309116012115310541F42DB73EB7E4
:104470004091190150911A01241B350BE0916306FC
:10448000F0916406E217F307A0F42E1B3F0B2817E8
:10449000390778F0AC014E5F5F4F2417350748F0BD
:1044A0004E0F5F1F50936406409363068193919370
:1044B0009FCFF0E0E0E09CCFCF93DF930097E9F04F
:1044C000FC01329713821282A0916506B0916606B4
:1044D000ED0130E020E01097A1F420813181820FBE
:1044E000931F20916306309164062817390709F05D
:1044F00061C0F0936406E0936306DF91CF91089565
:10450000EA01CE17DF07E8F54A815B819E0141157C
:104510005105B1F7E901FB83EA8349915991C40F31
:10452000D51FEC17FD0761F4808191810296840FFD
:10453000951FE90199838883828193819B838A8374
:10454000F0E0E0E012968D919C9113970097B9F5F9
:104550002D913C911197CD010296820F931F2091CE
:104560006306309164062817390739F6309751F5FC
:104570001092660610926506B0936406A0936306D7
:10458000BCCFD383C28340815181840F951FC8174C
:10459000D90761F44E5F5F4F88819981480F591F99
:1045A000518340838A819B819383828321153105C6
:1045B00009F0B0CFF0936606E09365069ECFFD014B
:1045C000DC01C0CF13821282D7CFB0E0A0E0EBEEC7
:1045D000F2E20C9406218C01009751F4CB010E9469
:1045E000C0218C01C801CDB7DEB7E0E10C942221D7
:1045F000FC01E60FF71F9C0122503109E217F30777
:1046000008F49DC0D901CD91DC911197C617D70749
:1046100098F0C530D10530F3CE010497861797077F
:1046200008F3C61BD70B2297C193D1936D937C934C
:10463000CF010E945C22D6CF5B01AC1ABD0A4C01AF
:104640008C0E9D1EA0916506B0916606512C412CE2
:10465000F12CE12C109731F580916306909164065E
:104660008815990509F05CC04616570608F058C031
:104670008091150190911601009741F48DB79EB776
:104680004091190150911A01841B950BE817F90705
:1046900008F055C0F0936406E0936306F901718356
:1046A0006083A0CF8D919C91119712966C90129778
:1046B00013967C901397A815B90559F56C0142E043
:1046C000C40ED11CCA14DB0420F1AC014A195B09E9
:1046D000DA011296159780F06282738251834083CB
:1046E000D9016D937C93E114F10471F0D701139615
:1046F000FC93EE93129776CF22968C0F9D1FF901B3
:1047000091838083F301EFCFF0936606E093650613
:1047100069CF4816590608F42C017D01D3019ACFC0
:10472000CB010E94C0217C01009749F0AE01B80185
:104730000E94A223C8010E945C22870153CF10E08F
:1047400000E050CFFB01DC0102C001900D9241500E
:104750005040D8F70895DC0101C06D93415050409E
:10476000E0F70895FB01DC018D91019080190110A3
:10477000D9F3990B0895FB01DC0101900D92002003
:10478000E1F7089510E0C3E6D0E004C0FE010E9406
:0E4790009F212196C436D107C9F7F894FFCFB8
:10479E000107090202000501000101FF1932C814C8
:1047AE0002030004000000670680000000400014B1
:1047BE00005400050A0F142802050A14280A19329B
:1047CE0064C831323341003435364200373839430C
:1047DE00002A302344001000200040008000FE001C
:1047EE00FD00FB00F7000000000035029501C2013C
:1047FE008202F301D101E50100000000F706CA06AE
:10480E001C08A006C306B006A10600000000240A7C
:10481E0095011C08940100000000870795011C08F3
:10482E00A006E307FB076F070D0A004155544F2002
:10483E00004D414E55200052004F5520503100463C
:10484E0045205031004F55204142004645204142FF
:10485E00004F5520504F00464520504F004F5520D9
:10486E005032004645205032004445504C41004DD8
:10487E004F544F4E00415458204D00415458204142
:10488E00002020202020202020202020202020203A
:10489E00202020202000544120494E204558204CF5
:1048AE0043204C4420434D440032522033422035A5
:1048BE0042203220203220205041524B20004F6B9C
:1048CE00005031204F2E2E2E005031204F50454E8D
:1048DE0000503120462E2E2E00503120436C6F7327
:1048EE00650041525520004152552021200041556E
:1048FE0000300053C3A972696500506F7369746903
:10490E006F6E00506F7274657300426F75746F6EC8
:10491E000045727265757220706F736974696F6E7F
:10492E0000503132204F70656E00504F23005032D0
:10493E0020462E2E2E0050313220462E2E2E005086
:10494E00462300503132204F2E2E2E0045727265B6
:10495E007572205061726B00504123004465706C7B
:10496E006163656D656E7420616272692E2E2E0014
:10497E0041627269206665726DC3A90044462300C8
:10498E00444F230041627269206F75766572740020
:10499E0031323334006C6F6E6700636F7572740062
:1049AE006D0061007000544E00545000325220339E
:1049BE0042203542203220203220205041524B00DE
:1049CE004D61757661697320636F646500436F6432
:1049DE0065204F4B003900502B00502D00442B000A
:1049EE00442D004D41006D2B006D2D00646400328E
:1049FE002B00322D00412B00582B00582D00583F14
:104A0E0000412D00503F00443F00413F00543F0005
:104A1E00702D00702B004D3F00452B00452D004999
:0C4A2E002B00492D00504100433F0000C8
:107800000C94343C0C94513C0C94513C0C94513CE1
:107810000C94513C0C94513C0C94513C0C94513CB4
:107820000C94513C0C94513C0C94513C0C94513CA4
:107830000C94513C0C94513C0C94513C0C94513C94
:107840000C94513C0C94513C0C94513C0C94513C84
:107850000C94513C0C94513C0C94513C0C94513C74
:107860000C94513C0C94513C11241FBECFEFD8E036
:10787000DEBFCDBF11E0A0E0B1E0ECE9FFE702C060
:1078800005900D92A230B107D9F712E0A2E0B1E065
:1078900001C01D92AD30B107E1F70E942D3D0C945F
:1078A000CC3F0C94003C982F959595959595959582
:1078B000905D8F708A307CF0282F295A8091C0000B
:1078C00085FFFCCF9093C6008091C00085FFFCCF60
:1078D0002093C6000895282F205DF0CF982F809127
:1078E000C00085FFFCCF9093C6000895EF92FF92F1
:1078F0000F931F93EE24FF2487018091C00087FD22
:1079000017C00894E11CF11C011D111D81E4E8164B
:1079100082E4F8068FE0080780E0180770F3E09132
:107920000401F091050109958091C00087FFE9CF1E
:107930008091C6001F910F91FF90EF9008950E94D3
:10794000763C982F8091C00085FFFCCF9093C600B5
:1079500091362CF490330CF09053892F089597555D
:10796000892F08951F930E949F3C182F0E949F3CCF
:107970001295107F810F1F9108951F93182F882350
:1079800021F00E94763C1150E1F71F9108951F935A
:10799000182F0E94763C803249F0809103018F5F5E
:1079A000809303018530C1F01F9108958091C0003C
:1079B00085FFFCCF84E18093C6008091C00085FFE5
:1079C000FCCF1093C6008091C00085FFFCCF80E102
:1079D0008093C6001F910895E0910401F091050184
:1079E00009951F9108950E94763C803241F0809164
:1079F00003018F5F80930301853081F008958091AA
:107A0000C00085FFFCCF84E18093C6008091C00058
:107A100085FFFCCF80E18093C6000895E0910401CA
:107A2000F09105010995089540E951E08823A1F0FE
:107A30002D9A28EE33E0FA013197F1F721503040CA
:107A4000D1F72D9828EE33E0FA013197F1F7215064
:107A50003040D1F7815061F708953F924F925F9285
:107A60006F927F928F929F92AF92BF92CF92DF924E
:107A7000EF92FF920F931F93CF93DF93000080E16B
:107A80008093C4001092C50088E18093C10086E015
:107A90008093C2005098589A259A81E00E94143D24
:107AA00024E1F22E9EE1E92E85E9D82E0FE0C02ECA
:107AB00010E1B12EAA24A394B1E49B2EA6E58A2E50
:107AC000F2E57F2EE0E26E2E79E4572E63E5462E36
:107AD00050E5352E0E94763C8033B1F18133B9F107
:107AE000803409F46FC0813409F476C0823409F41B
:107AF00085C0853409F488C0803531F1823521F1A3
:107B0000813511F1853509F485C0863509F48DC0BC
:107B1000843609F496C0843709F403C1853709F423
:107B200072C1863709F466C0809103018F5F80932C
:107B30000301853079F6E0910401F0910501099582
:107B40000E94763C803351F60E94F33CC3CF0E94E2
:107B5000763C803249F78091C00085FFFCCFF092DF
:107B6000C6008091C00085FFFCCF9092C600809136
:107B7000C00085FFFCCF8092C6008091C00085FFC9
:107B8000FCCF7092C6008091C00085FFFCCF609250
:107B9000C6008091C00085FFFCCF5092C600809146
:107BA000C00085FFFCCF4092C6008091C00085FFD9
:107BB000FCCF3092C6008091C00085FFFCCFB09210
:107BC000C60088CF0E94763C863808F4BDCF0E945C
:107BD000763C0E94F33C7ECF0E94763C803809F4CC
:107BE0009CC0813809F40BC1823809F43CC1883942
:107BF00009F48FC080E00E94C73C6CCF84E10E94F2
:107C0000BD3C0E94F33C66CF85E00E94BD3C0E94D3
:107C1000F33C60CF0E94763C809306010E94763C44
:107C2000809307010E94F33C55CF0E94763C80333D
:107C300009F41DC183E00E94BD3C80E00E94C73C66
:107C400049CF0E94763C809309020E94763C809343
:107C5000080280910C028E7F80930C020E94763C79
:107C6000853409F415C18091080290910902892B8D
:107C700089F000E010E00E94763CF801E85FFE4FDA
:107C800080830F5F1F4F80910802909109020817AF
:107C9000190788F30E94763C803209F045CF809125
:107CA0000C0280FF01C16091060170910701660F0F
:107CB000771F7093070160930601A0910802B091AD
:107CC00009021097C9F0E8E0F1E09B01AD014E0F09
:107CD0005F1FF999FECF32BD21BD819180BDFA9A17
:107CE000F99A2F5F3F4FE417F50799F76A0F7B1F4B
:107CF00070930701609306018091C00085FFFCCF5F
:107D0000F092C6008091C00085FFFCCFB092C60003
:107D1000E1CE83E00E94C73CDDCE82E00E94C73CFA
:107D2000D9CE0E94763C809309020E94763C8093D3
:107D300008028091060190910701880F991F909386
:107D40000701809306010E94763C853409F4A6C0A1
:107D500080910C028E7F80930C020E94763C8032D0
:107D600009F0B8CE8091C00085FFFCCFF092C6002C
:107D7000609108027091090261157105B9F140E046
:107D800050E080910C02A82FA170B82FB27011C0E2
:107D9000BB2309F45CC0E0910601F0910701319624
:107DA000F0930701E09306014F5F5F4F46175707B7
:107DB000E8F4AA2369F3F999FECF209106013091E6
:107DC000070132BD21BDF89A90B58091C00085FFB2
:107DD000FCCF9093C6002F5F3F4F30930701209355
:107DE00006014F5F5F4F4617570718F38091C00099
:107DF00085FDE5CE8091C00085FFF8CFE0CE81E023
:107E00000E94C73C67CE0E94763C803209F08CCE3F
:107E10008091C00085FFFCCFF092C6008091C00029
:107E200085FFFCCFE092C6008091C00085FFFCCFAB
:107E3000D092C6008091C00085FFFCCFC092C600E2
:107E40008091C00085FFFCCFB092C60043CEE09188
:107E50000601F091070194918091C00085FFFCCF4D
:107E60009093C6009CCF80E10E94C73C33CE0E9415
:107E7000763C0E94763C182F0E94763C112309F430
:107E800083C0113009F484C08FE00E94C73C22CE29
:107E900080910C02816080930C02E5CE80910C02EF
:107EA000816080930C0259CF809107018823880F4D
:107EB000880B8A2180930B02809106019091070123
:107EC000880F991F90930701809306018091080203
:107ED00080FF09C080910802909109020196909359
:107EE000090280930802F894F999FECF1127E091D6
:107EF0000601F0910701C8E0D1E08091080290915D
:107F00000902103091F40091570001700130D9F34B
:107F100003E000935700E89500915700017001308D
:107F2000D9F301E100935700E89509901990009169
:107F3000570001700130D9F301E000935700E89534
:107F40001395103498F011270091570001700130FB
:107F5000D9F305E000935700E895009157000170B0
:107F60000130D9F301E100935700E895329602976A
:107F700009F0C7CF103011F00296E5CF112480919F
:107F8000C00085FFB9CEBCCE8EE10E94C73CA2CD19
:0C7F900085E90E94C73C9ECDF894FFCF0D
:027F9C00800063
:040000030000780081
:00000001FF
