:100000000C9464000C948C000C948C000C941B15C4
:100010000C941B150C941B150C948C000C94D8128A
:100020000C948C000C948C000C948C000C948C0020
:100030000C948C000C948C000C948C000C948C0010
:100040000C94B2130C948C000C9480130C945A13DF
:100050000C948C000C948C000C948C000C948C00F0
:100060000C94FC130C948C0000000000240027006A
:100070002A0002000000080002010000030407003B
:1000800000000000000000000000002300260029FE
:100090000000000000250028002B000404040404D4
:1000A0000404040202020202020303030303030125
:1000B00002040810204080010204081020010204FC
:1000C0000810200093151D2011241FBECFEFD8E08B
:1000D000DEBFCDBF26E0A6E7B3E001C01D92AE3380
:1000E000B207E1F713E0A0E0B1E0E6E3F6E402C016
:1000F00005900D92A637B107D9F710E0C3E6D0E01E
:1001000004C02197FE010E94EB20C236D107C9F737
:100110000E9405170C940E230C9400008F929F925E
:10012000AF92BF92CF92DF92EF92FF920F931F9305
:10013000FC014B01AA24BB24C52ED62EE72EFF249A
:10014000BC2DA42F90910006B82C992391F0A92FD3
:10015000B0E0A89D9001A99D300DB89D300D1124EF
:10016000B32E9C9D60011124BD2D949F800111240C
:10017000A12F409106062091010630910206809140
:100180000306481324C0CF01880F991F8E0F9F1FAD
:10019000820F931FE0910306E80FF92FF11DB08243
:1001A000E0910406E80FF92FF11DB08320910506B8
:1001B000820F911DFC01A0831F910F91FF90EF9082
:1001C000DF90CF90BF90AF909F908F900895CF0118
:1001D000880F991F880F991F820F931FFC01E40F4E
:1001E000F11D1082D7CF2091830481E0213208F0E5
:1001F00044C080915F048111FCCF8091820492E021
:1002000090935F0491E090935E049FEF90935D0460
:1002100010925C0420935B04A2E6B4E0EBE3F4E00C
:1002200090E0291331C010923A0490913A04880F5B
:10023000892B80933A0480913904813049F51092DA
:10024000390480913A048093BB008091BC0083FD07
:10025000F8CF85EC8093BC0080915F048230E1F39D
:1002600080915D048F3FB1F080915D048032A1F0F8
:1002700080915D04803391F084E0109261041092CB
:1002800083041092600408953D9131939F5FC9CF1C
:1002900085EEE0CF80E0F1CF82E0EFCF83E0EDCFDD
:1002A00090915F049111FCCF91E090935F04909343
:1002B0005E042FEF20935D0410925C04260F2093C0
:1002C0005B0490933A0490913A04880F892B8093B1
:1002D0003A04809139048130F9F410923904809104
:1002E0003A048093BB008091BC0083FDF8CF85EC7D
:1002F0008093BC0080915F048130E1F380915C04C5
:10030000861710F460915C04ABE3B4E0E9E1F4E03B
:1003100080E0861303C0089585EEEACF9D91919306
:100320008F5FF7CF0895089508950895AF92BF9213
:10033000CF92DF92EF92FF920F931F93CF93DF93B1
:100340006C017B018B01040F151FEB015E01AE18E0
:10035000BF08C017D10759F06991D601ED91FC9102
:100360000190F081E02DC6010995892B79F7C5012F
:10037000DF91CF911F910F91FF90EF90DF90CF9081
:10038000BF90AF900895FC01538D448D252F30E030
:10039000842F90E0821B930B541710F0CF96089592
:1003A00001970895FC01918D828D981761F0A28DBF
:1003B000AE0FBF2FB11D5D968C91928D9F5F9F7385
:1003C000928F90E008958FEF9FEF0895FC01918D3B
:1003D000828D981731F0828DE80FF11D858D90E0A8
:1003E00008958FEF9FEF0895FC01918D228D892F45
:1003F00090E0805C9F4F821B91098F73992708952D
:1004000085E994E00E94F40121E0892B09F420E0C1
:10041000822F089580E090E0892B29F00E9400024D
:1004200081110C9400000895FC01A48DA80FB92F30
:10043000B11DA35ABF4F2C91848D90E001968F730C
:100440009927848FA689B7892C93A089B1898C912B
:10045000837080648C93938D848D981306C002887A
:10046000F389E02D80818F7D80830895EF92FF9244
:100470000F931F93CF93DF93EC0181E0888F9B8DC7
:100480008C8D98131AC0E889F989808185FF15C081
:100490009FB7F894EE89FF896083E889F9898081A4
:1004A0008370806480839FBF81E090E0DF91CF9173
:1004B0001F910F91FF90EF900895F62E0B8D10E095
:1004C0000F5F1F4F0F731127E02E8C8D8E110CC004
:1004D0000FB607FCFACFE889F989808185FFF5CF4F
:1004E000CE010E941402F1CFEB8DEC0FFD2FF11D18
:1004F000E35AFF4FF0829FB7F8940B8FEA89FB898C
:1005000080818062CFCFCF93DF93EC01888D8823E9
:10051000B9F0AA89BB89E889F9898C9185FD03C066
:10052000808186FD0DC00FB607FCF7CF8C9185FF4B
:10053000F2CF808185FFEDCFCE010E941402E9CF7A
:10054000DF91CF910895833081F028F4813099F0C4
:100550008230A9F008958730A9F08830C9F084303E
:10056000B1F4809180008F7D03C0809180008F77EF
:1005700080938000089584B58F7784BD089584B5F5
:100580008F7DFBCF8091B0008F778093B00008956E
:100590008091B0008F7DF9CFCF93DF93282F30E08B
:1005A000F901ED58FF4F8491F901E155FF4FD491C6
:1005B000F901E556FF4FC491CC23A1F081110E94AF
:1005C000A302EC2FF0E0EE0FFF1FE957FF4FA591BC
:1005D000B491EC91ED2381E090E009F480E0DF91AB
:1005E000CF91089580E090E0FACF1F93CF93DF93EF
:1005F000282F30E0F901ED58FF4F8491F901E155C2
:10060000FF4FD491F901E556FF4FC491CC23A9F0D7
:10061000162F81110E94A302EC2FF0E0EE0FFF1FB6
:10062000EF56FF4FA591B4918FB7F894EC9111114B
:1006300008C0D095DE23DC938FBFDF91CF911F914F
:100640000895DE2BF8CF1092170410921604109222
:1006500061041092830410925F0481E080935E0431
:100660001092390461E082E10E94F50261E083E1C9
:100670000E94F502E9EBF0E080818E7F808380812B
:100680008D7F808388E48093B80085E48093BC00EC
:1006900082E991E0909315048093140483E991E03A
:1006A00090931304809312040895CF93DF9390E006
:1006B000FC01E155FF4F249185569F4FFC01849129
:1006C0008823D1F090E0880F991FFC01E859FF4F73
:1006D000A591B491FC01EF56FF4FC591D4916111E2
:1006E0000EC09FB7F8948C91E22FE0958E238C93E7
:1006F0002881E223E8839FBFDF91CF9108958FB7D0
:10070000F894EC91E22BEC938FBFF6CFCF93DF936D
:10071000EC0161E083E00E945503209731F460E032
:1007200083E0DF91CF910C94F502CF3FD10511F416
:1007300061E0F6CFE6E7F0E0E491E33029F140F440
:10074000E130B1F0E230D9F0C038D1058CF7E7CF15
:10075000E73021F1E83051F1E430B1F780918000C9
:10076000806280938000D0938B00C0938A0004C085
:1007700084B5806884BDC7BDDF91CF91089584B5ED
:10078000806284BDC8BDF8CF80918000806880936E
:100790008000D0938900C0938800EECF8091B00094
:1007A00080688093B000C093B300E6CF8091B00022
:1007B00080628093B000C093B400DECF3FB7F8945E
:1007C0008091FE039091FF03A0910004B091010479
:1007D00026B5A89B05C02F3F19F00196A11DB11D9C
:1007E0003FBFBA2FA92F982F8827BC01CD01620FD8
:1007F000711D811D911D42E0660F771F881F991F93
:100800004A95D1F708950F931F93CF93DF93CDB7F8
:10081000DEB729970FB6F894DEBF0FBECDBF80912B
:10082000010690910206892B09F467C00E94DE033D
:1008300000910706109108062091090630910A06DA
:10084000601B710B820B930B6C327140810591051B
:1008500068F3F8948091FC059091FD059A83898353
:10086000E0910106F0910206DF01119680818987EF
:100870009091F805E0910B06F0910C0680910D0621
:10088000992309F445C09081982B98879081809591
:1008900089238F838F818C8388E08B8358856F8138
:1008A00049853B812C8189819A81508347FD252F81
:1008B0003A952083262F39F0441F00C00000608342
:1008C000000000C0F2CF38E04D9160830000019736
:1008D00061F7F0930C06E0930B0649873B832C836A
:1008E0009A83898378940E94DE036093070670934D
:1008F00008068093090690930A0629960FB6F89485
:10090000DEBF0FBECDBFDF91CF911F910F91089534
:100910009081982B98879081809589238F838F81F0
:100920008E8388E08D8358856F8149853D812E8136
:1009300089819A81508347FD252F00C000C0208304
:1009400000C000C000C000C000C060830000262FAF
:100950003A9541F0441F000000C000C000C000C034
:1009600000C0E8CF38E04D9100C0608300C001971F
:1009700009F7F0930C06E0930B0649873D832E831D
:10098000AFCF8F929F92AF92BF92CF92DF92EF92B2
:10099000FF924B015C010E94DE036B017C010E940F
:1009A000DE036C197D098E099F09683E734081053D
:1009B0009105A8F321E0821A9108A108B10888EEF8
:1009C000C80E83E0D81EE11CF11C81149104A1041F
:1009D000B10429F7FF90EF90DF90CF90BF90AF90D8
:1009E0009F908F9008954F925F926F927F928F9217
:1009F0009F92AF92BF92EF92FF920F931F93CF936C
:100A00008C017B0180910B018131D9F08F3F09F47A
:100A10003FC068EC70E080E090E00E94C1048091EB
:100A20000F0190E0CF911F910F91FF90EF90BF9039
:100A3000AF909F908F907F906F905F904F900C94AD
:100A40008603E2E7F0E0C491C7FDE3CF61E081E116
:100A50000E945503C11132C02801012E000C660806
:100A6000770862E17AE780E090E0A30192010E94BA
:100A7000CC2049015A0181E0881A9108A108B108E7
:100A800096E0C1113BC085B5887F846085BDABC051
:100A900081E180930B01E2E7F0E0C491CF3F09F4DC
:100AA000B8CFC13009F44AC080F1C23009F464C043
:100AB000C7FDAFCF61E081E10E9455039801012E8F
:100AC000000C440B550BC23009F078C029013A01E3
:100AD00064E274EF80E090E00E94CC2049015A016A
:100AE00081E0881A9108A108B10895E08FEF881677
:100AF0009104A104B10411F00CF0B3CF8091B100C6
:100B0000887F892B8093B1006EC014BC15BC84B55E
:100B1000826084BD85B5816085BDECEAF0E0E4913A
:100B2000F0E0EE0FFF1FEF56FF4F85919491E0EC40
:100B3000F0E0E491E0938804C0E088CF1092800058
:100B40001092810080918100886080938100809163
:100B50008100816080938100ECEAF0E0E491F0E0B4
:100B6000EE0FFF1FEF56FF4F85919491E0ECF0E000
:100B7000E491E09387046ACF1092B0001092B10024
:100B80008091B00082608093B0008091B10081605C
:100B90008093B100ECEAF0E0E491F0E0EE0FFF1F8B
:100BA000EF56FF4F8591949190938604809385042E
:100BB000E0ECF0E0E491E093840448CF60E072E17F
:100BC0008AE790E00E94CC2049015A0181E0881A0E
:100BD0009108A108B108C13031F480918100887F6B
:100BE0008160809381009801220F331FD7010E94FA
:100BF000F12028EE33E040E050E00E94AA20C1300E
:100C000099F0C23019F1C11104CF87BC209391042F
:100C100030939204409393045093940480916E0017
:100C2000826080936E00F5CE909289008092880059
:100C300020938D0430938E0440938F04509390043E
:100C400080916F00826080936F00E3CE8092B3004A
:100C50002093890430938A0440938B0450938C042E
:100C600080917000826080937000D3CE2FB7F8948B
:100C70006091FA037091FB038091FC039091FD0356
:100C80002FBF08950F931F93CF93DF93EC010E9422
:100C90003606688779878A879B87E881F98102848D
:100CA000F385E02DCE01099597FF15C00E94360609
:100CB000088519852A853B85601B710B820B930B78
:100CC0000C811D812E813F81601771078207930778
:100CD00020F38FEF9FEFDF91CF911F910F91089538
:100CE00085ED8093BC008091BC0084FDFCCF109208
:100CF0005F0408952091D603260F3327331F213236
:100D00003105ECF420915F04FC0190E080E0243098
:100D100069F082E00895A091D6032191AC014A5474
:100D20005C4FA40FB52FB11D2C930196861798F335
:100D30008091D603680F6093D60380E0089581E028
:100D400008950895E091170480911604E81730F48F
:100D5000F0E0E75EFB4F808190E008958FEF9FEF1A
:100D6000089590911704809116042FEF3FEF981784
:100D700048F4E92FF0E0E75EFB4F208130E09F5F11
:100D800090931704C9010895809116049091170457
:100D9000891B990B0895CF92DF92EF92FF920F93E8
:100DA0001F93CF93DF937C01CB018A0120916004D4
:100DB000222389F0EB016B01C40ED51ECC15DD0595
:100DC00069F06991D701ED91FC910190F081E02DDE
:100DD000C7010995F3CF642F0E947A06C801DF91FD
:100DE000CF911F910F91FF90EF90DF90CF900895DA
:100DF000CF93DF931F92CDB7DEB769832091600454
:100E00002223F9F020918304203258F021E030E0D1
:100E1000FC013383228390E080E00F90DF91CF913B
:100E2000089580916104E82FF0E0EE59FB4F99811D
:100E300090838F5F809361048093830481E090E0CE
:100E4000ECCF61E0CE0101960E947A06F7CFCF93F6
:100E5000C62F90911804906221E020936004909333
:100E600082041092610410928304682F82E395E05B
:100E70000E94F8066C2F82E395E00E94F806CF915D
:100E80000C94F300FC01248131E030936004209342
:100E9000820410926104109283048485682B82E39B
:100EA00095E00E94F8060C94F30060931004709390
:100EB000110491E090936004809382041092610485
:100EC0001092830482E395E00E94F8060C94F300EC
:100ED00020910404309105042817390771F490918A
:100EE000020480910304981741F0E0910204F0E0BD
:100EF000EA58FC4F808190E008958FEF9FEF0895AE
:100F0000EF92FF920F931F93CF93DF93DC015C96D8
:100F1000ED90FC905D97E114F10479F481E090E0AC
:100F200013969C938E93129790E080E0DF91CF917F
:100F30001F910F91FF90EF9008955196ED91FC91C4
:100F4000529750968C915097982F90950FB75E9628
:100F50002C915E97122F127021FD6095F8942081DC
:100F6000112319F1282B2083E7012197F1F728E0BD
:100F7000462F50E0308160FF1AC0382B3083E701E4
:100F80002197F1F7BA0175956795215089F71123DB
:100F900081F08081892380830FBF5C968D919C9125
:100FA0000197F1F781E090E0C1CF2923DCCF39230D
:100FB000E5CF9081892BEFCF209104043091050477
:100FC0002817390771F4809103042091020490E0FE
:100FD000805C9F4F821B910960E470E00E94962024
:100FE000089590E080E00895209104043091050474
:100FF00028173907B9F490910204809103049817D7
:1010000089F0E0910204F0E0EA58FC4F80812091E1
:10101000020430E02F5F3F4F2F73332720930204E9
:1010200090E008958FEF9FEF089590E080E008959D
:1010300060E08CE00E94F50268E572E080E090E0FC
:101040000E94C10461E08CE00C94F50260E085E050
:101050000E94F50260E47CE980E090E00E94C10417
:1010600061E085E00C94F5028F929F92AF92BF925F
:10107000FF920F931F93CF93DF93982F990F990FA0
:10108000990F24E0F22EF90E98E0899FE0011124D7
:101090002B96469F002D112410E030E020E04801FF
:1010A0005901A62A322F212F102F0027802A912A9A
:1010B000A22AB32A8F2D90E0C817D9077CF020917F
:1010C000FA053091FB058217930720F4B501A401BE
:1010D0000E948E000E940304F394ECCFDF91CF9125
:1010E0001F910F91FF90BF90AF909F908F900895A8
:1010F0000F93362FE42F90E04091FA055091FB05B5
:101100008417950740F4422F50E070E060E05E2BBA
:10111000632B0E948E00002319F00F910C9403049E
:101120000F9108950F9380910604882361F001E0E8
:1011300020E040E060E080E00E94780881E0809359
:101140000701109206040F9108959091180490627F
:1011500021E0209360049093820410926104109225
:101160008304682F82E395E00E94F8060E94F30052
:101170008091180461E080620E945001109217046F
:101180008093160482E395E00E94B1060895CF9300
:10119000C82FC770883060F083E10E94A50890E0F6
:1011A00002C095958795CA95E2F78170CF91089511
:1011B00082E1F3CFCF93DF93C82FD1E0883008F4DA
:1011C000D0E08D2F0E94A508C77041E050E060E09C
:1011D00070E004C0440F551F661F771FCA95D2F7F1
:1011E000682F642B8D2FDF91CF910C942707CF931D
:1011F000DF93C82FDDE0883008F4DCE08D2F0E94FB
:10120000A508C77041E050E060E070E004C0440F02
:10121000551F661F771FCA95D2F7682F642B8D2F35
:10122000DF91CF910C942707CF92DF92EF92FF923C
:101230000F931F93CF93DF93C0910E04D0910F04AF
:10124000F0903E05E0903F05FE01EE0FFF1FE25BD0
:10125000FE4F608171818F2D9E2D0E94550796E46F
:10126000C92E91E0D92E10E000E0809111019091FB
:1012700012010817190784F561E08F2D0E945001B3
:10128000109217048093160482E395E00E94B10641
:10129000F601419151916F01209110043091110498
:1012A0008227932784179507A1F485E08C9FF0018E
:1012B0008D9FF00D1124EE5CFE4FE00FF11F808139
:1012C000082E000C990B90930D0480930C0480E081
:1012D0000DC00F5F1F4FC9CF80910C0490910D047A
:1012E000009769F010920D0410920C04DF91CF91D9
:1012F0001F910F91FF90EF90DF90CF9008956FEFC7
:1013000070E08F2D9E2D0E9455072196D0930F04DB
:10131000C0930E048091130190911401C817D9074E
:10132000B1F610920F0410920E04D1CF0F931F93B9
:10133000CF938C01C62F0E9442076C2F6460C801B6
:101340000E9442076C2F6B7FC8010E94420783EC0A
:1013500090E00197F1F7CF911F910F9108950F93AE
:101360001F93CF93DF938C01D62FC42F607F642B04
:101370000E94960980E1D89FB00111246C2BC8010E
:10138000DF91CF911F910F910C949609CF93DF932A
:10139000CDB7DEB728970FB6F894DEBF0FBECDBF2E
:1013A00098E0EBE1F1E0DE01119601900D929A9543
:1013B000E1F790911606961710F46FEF690F262F3C
:1013C00030E0220F331F41E050E04C0F5D1F240F2F
:1013D000351FF9016081680F606840E08EE096E09B
:1013E00028960FB6F894DEBF0FBECDBFDF91CF9128
:1013F0000C94AF0940E061E08EE096E00E94AF09F6
:101400008BE39FE10197F1F780911706882321F084
:1014100060E080E00C94C609089541E00E94AF09A5
:1014200081E090E00895CF93DF93EC01888199816A
:10143000009711F00E94A821198218821D821C8237
:101440001B821A82DF91CF910895FC0180819181E6
:10145000009711F00C94A821089510921A0660E0EC
:101460008EE096E00E944207E8EFF5E04481558166
:1014700070E060E0818592850E94F7220E9403045B
:1014800061E08BE00E94F50261E089E00E94F502D4
:1014900061E08AE00E94F50268EE73E080E090E08F
:1014A0000E94C10481E08093070480930701109299
:1014B0000604089560E086E00E94F50260E47CE99D
:1014C00080E090E00E94C10461E086E00E94F502A5
:1014D0000C942D0A2091440530914505232B39F4B5
:1014E00021E0FC018081882361F020E00AC0BC017A
:1014F00080914005909141050E94FE2221E0892BB8
:10150000A1F7822F0895FB0101900020E9F73197A0
:10151000AF01461B570BDC01ED91FC910280F3817A
:10152000E02D0994CF93DF93FC01448155816081C4
:10153000718185E994E00E949601EC0168E971E00F
:1015400085E994E00E94830A8C0F9D1FDF91CF9163
:1015500008958F929F92AF92BF92EF92FF920F9356
:101560001F93CF93DF93CDB7DEB7A1970FB6F89453
:10157000DEBF0FBECDBF7C01FA01CB0119A2223024
:1015800008F42AE08E010F5D1F4F822E912CB12CA2
:10159000A12CBF01A50194010E94AA20F901CA0152
:1015A0006A300CF5605DD8016E938D01232B242BDE
:1015B000252B79F790E080E0109721F0BD01C7015D
:1015C0000E94830AA1960FB6F894DEBF0FBECDBF6E
:1015D000DF91CF911F910F91FF90EF90BF90AF904F
:1015E0009F908F900895695CDECF462F50E070E0A9
:1015F00060E02AE00C94A90AAB01770F660B770B29
:101600002AE00C94A90A0F931F93CF93DF93EC0168
:101610000E94830A8C0168E971E0CE010E94830A6E
:10162000800F911FDF91CF911F910F9108950C941E
:10163000830A0F93CF93C09106018C2F880F63E02C
:101640008C0F0E94C609C33008F06FC0EC2FF0E089
:10165000E050FF4F8081682F70E08530E8F16450E2
:1016600071098EE096E00E94FC0A69EB71E08EE061
:1016700096E00E94170B20910601822F90E0FC015A
:10168000E85FFE4F31E03083FC01E050FF4FE08126
:10169000F0E0E85DFE4F6081FC01E45FFE4F608397
:1016A000875F9B4FFC018081689F602D112441E082
:1016B00082E0821B0E94340880910601982F990FC6
:1016C00063E0890F0E94C60968EC70E080E090E05A
:1016D000CF910F910C94C1046F5F7F4F8EE096E025
:1016E0000E94FC0A6BE971E08EE096E00E94170B05
:1016F00020910601822F90E0FC01E85FFE4F1082EE
:10170000FC01E050FF4FE081F0E0E35DFE4F6081BF
:10171000FC01E45FFE4F6083875F9B4FFC0180818B
:10172000689F602D112440E0C3CFC43029F560913B
:1017300004018EE096E00E94F50AE0910601F0E0D7
:10174000E050FF4FE081F0E0E85DFE4FC081C093C4
:10175000100101E020E040E06C2F81E00E94780859
:1017600081E00E94C708C89F602D112420E040E05E
:1017700082E00E947808A0CFC330B1F460910301E9
:101780008EE096E00E94F50AE0910601F0E0E0505C
:10179000FF4FE081F0E0ED5DFE4F808180930F010F
:1017A00090E00E94860388CFEC2FF0E0E050FF4FDE
:1017B000E081EF3008F080CFF0E0EF51F44F0C946F
:1017C000EB20F00BF70BFA0BFD0B000C030C060CD7
:1017D000090C0C0C0F0C120C150C180C1B0C1E0C0D
:1017E0006DE971E08EE096E00E94170B65CF63EA29
:1017F00071E0F8CF69EA71E0F5CF6FEA71E0F2CFFE
:1018000065EB71E0EFCF6BEB71E0ECCF61EC71E079
:10181000E9CF67EC71E0E6CF6DEC71E0E3CF63ED0B
:1018200071E0E0CF69ED71E0DDCF6FED71E0DACF0F
:1018300065EE71E0D7CF6BEE71E0D4CF61EF71E070
:10184000D1CF0F931F93CF93DF938C01EB01FC015A
:10185000808191810097E1F068817981611571053E
:10186000A9F0428153812C813D814217530770F0CA
:101870000E9407238C819D81F801958384831D82BA
:101880001C82DF91CF911F910F9108950E94A82192
:1018900088819981F801918380838A819B819383D8
:1018A00082838C819D8195838483198218821B8217
:1018B0001A82E5CF0F931F93CF93DF93EC018881BA
:1018C0009981009759F02A813B812617370730F01C
:1018D00081E0DF91CF911F910F9108958B016F5F90
:1018E0007F4F0E943122009759F0998388831B8390
:1018F0000A832C813D81232B59F7FC011082E8CF0C
:1019000080E0E7CFEF92FF920F931F93CF93DF9387
:101910006115710541F480E0DF91CF911F910F9126
:10192000FF90EF90089541155105B1F07B01EC0156
:101930000C811D81040F151FB8010E945A0C8823C9
:1019400051F3288139818C819D81B701820F931FCA
:101950000E9407231D830C8381E0DECFEF92FF926C
:101960000F931F93CF93DF93EC017B018A01BA01A0
:101970000E945A0C81110BC0CE010E94130ACE01A5
:10198000DF91CF911F910F91FF90EF9008951D83EC
:101990000C83B701888199810E940723F0CFCF93F0
:1019A000DF93EC01FB018617970749F06081718195
:1019B0006115710541F0448155810E94AE0CCE0144
:1019C000DF91CF9108950E94130AF9CFFC01118293
:1019D00010821382128215821482FB010190002072
:1019E000E9F73197AF01461B570B0C94AE0CAF9241
:1019F000BF92CF92DF92EF92FF920F931F93CF93FC
:101A0000DF937C016B015A0189012417350720F40B
:101A10008B2D5901042F182F6AE971E0C7010E942C
:101A2000E60CD6011496CD91DC91AC16BD0620F5DE
:101A30000C171D0708F4E801D601ED91FC911197F0
:101A4000EC0FFD1F108110826D917C916A0D7B1D42
:101A500061157105E9F0FB0101900020E9F731976C
:101A6000AF01461B570BC7010E94AE0CF6018081E7
:101A70009181C80FD91F1883C701DF91CF911F91A2
:101A80000F91FF90EF90DF90CF90BF90AF900895AF
:101A9000C7010E94130AEACFEF92FF920F93CF93F0
:101AA000DF9300D000D000D0CDB7DEB77C01862F09
:101AB0006091100101E020E0462F823051F0833028
:101AC00009F445C0262F40E0813009F041C020E0F4
:101AD00040E081E00E94780844E150E067EF71E067
:101AE000C7010E94820C2FE030E050E040E0B701D7
:101AF000CE0101960E94F70CBE016F5F7F4FC701B8
:101B00000E94210CCE0101960E94250A61E080E02E
:101B10000E94C609F70144815581608171818EE080
:101B200096E00E94960180910601982F990F63E03C
:101B3000890F0E94C60926960FB6F894DEBF0FBE25
:101B4000CDBFDF91CF910F91FF90EF90089520E0EE
:101B500060E0BFCFCF92DF92EF92FF920F931F937F
:101B6000CF93DF9300D0CDB7DEB78C016B01E42EAD
:101B70006AE971E00E94E60CC6010E9442060E2C42
:101B8000000CFF0897FD11C0E816F90671F0898373
:101B90001A8241E050E0BE016F5F7F4FC8010E9492
:101BA000820CC6010E944206EDCFC8010F900F9033
:101BB000DF91CF911F910F91FF90EF90DF90CF9029
:101BC00008950F931F93CF93DF9300D000D000D0E0
:101BD000CDB7DEB760E08AE00E94F50260ED77E005
:101BE00080E090E00E94C1041091100100E020E02C
:101BF00040E0612F81E00E94780820E040E0612F02
:101C000082E00E94780801E02FE04FE06FE080E082
:101C10000E94780880910F0190E00E9486030E9444
:101C2000FA0988E080931A0660E08EE096E00E9450
:101C3000420762E080E00E94C6096CE072E08EE03C
:101C400096E00E94170B63E080E00E94C6096FE1F6
:101C500072E08EE096E00E94170B80910601982FAB
:101C6000990F63E0890F0E94C60960911406862FC0
:101C7000816080931406696040E08EE096E00E94E7
:101C8000AF0963E372E0CE0101960E94E60C61E0C9
:101C9000CE0101960E944C0DCE0101960E94250AAC
:101CA00060E08BE00E94F50281E00E94C70891E0AD
:101CB000811190E09093070410920701109206049E
:101CC00026960FB6F894DEBF0FBECDBFDF91CF9141
:101CD0001F910F910895CF93DF9300D000D000D0D3
:101CE000CDB7DEB760E08AE00E94F50260ED77E0F4
:101CF00080E090E00E94C10466E372E0CE010196AC
:101D00000E94E60C60E0CE0101960E944C0DCE01CF
:101D100001960E94250A60E087E00E94F50260E4D7
:101D20007CE980E090E00E94C1046EE372E0CE01A5
:101D300001960E94E60C61E0CE0101960E944C0DD6
:101D4000CE0101960E94250A61E087E00E94F5021B
:101D500026960FB6F894DEBF0FBECDBFDF91CF91B0
:101D60000895CF93DF9300D000D000D0CDB7DEB779
:101D700066E472E0CE0101960E94E60C60E0CE01BE
:101D800001960E944C0DCE0101960E94250A60E04A
:101D900088E00E94F50260E47CE980E090E00E9427
:101DA000C1046EE472E0CE0101960E94E60C61E08F
:101DB000CE0101960E944C0DCE0101960E94250A8B
:101DC00061E088E00E94F50261E08AE00E94F5028D
:101DD00026960FB6F894DEBF0FBECDBFDF91CF9130
:101DE00008950F931F93CF93DF9300D000D000D0BE
:101DF000CDB7DEB78C0185E994E00E94F40143E29F
:101E000065E974E0892B49F48BE196E00E94DC07D8
:101E1000892B51F143E26BE176E0CE0101960E94FD
:101E2000AA0DBE016F5F7F4F80E495E00E94210CF8
:101E3000CE0101960E94250AF801118210821382B8
:101E400012821582148260E475E0C8010E94CF0CF2
:101E5000C80126960FB6F894DEBF0FBECDBFDF9146
:101E6000CF911F910F9108956AE971E0C8010E9416
:101E7000E60CEECF0F931F93CF93DF93CDB7DEB772
:101E80002C970FB6F894DEBF0FBECDBF8C0167E56F
:101E900072E085E994E00E94030B61E089E00E9412
:101EA000F50261E08BE00E94F50261E08CE00E94A7
:101EB000F50261E088E00E94F50261E087E00E949F
:101EC000F50261E086E00E94F50261E085E00E9493
:101ED000F50261E08BE00E94F50281E08093080446
:101EE0006BE572E0CE0101960E94E60CF801448198
:101EF000558160817181CE0101960E94820C811111
:101F000004C0CE0101960E94130A18861F821A8609
:101F100019861C861B86BE016F5F7F4FCE01079618
:101F20000E94CF0C63E0CE0107960E944C0DCE01BB
:101F300007960E94250ACE0101960E94250A01E01B
:101F400020E042E360E081E00E94780883E00E94A4
:101F5000C708811107C064E670E080E090E00E944D
:101F6000C104F4CF2C960FB6F894DEBF0FBECDBFE0
:101F7000DF91CF911F910F9108957F928F929F9241
:101F8000AF92BF92CF92DF92EF92FF920F931F9387
:101F9000CF93DF9300D000D000D0CDB7DEB74B0198
:101FA0005C01042F722E0E9436066B017C0110E04A
:101FB0000E9436066C197D098E099F0968157905FE
:101FC0008A059B0508F076C0CE0101960E94F10EAD
:101FD000BE016F5F7F4F80E495E00E94210CCE012F
:101FE00001960E94250A82E692E00E946A0A8823EE
:101FF00049F165E672E085E994E00E94030B67E62B
:1020000072E0CE0101960E94E60CCE0101960E947C
:102010003A0FCE0101960E94250A80E026960FB65F
:10202000F894DEBF0FBECDBFDF91CF911F910F910E
:10203000FF90EF90DF90CF90BF90AF909F908F90E8
:102040007F90089581E00E94C708811106C0113079
:1020500019F467EC72E0D5CF11E0002369F085E058
:102060000E94C708882341F087E00E94C7088823A0
:1020700019F06EE672E0C5CF772069F086E00E9425
:10208000C708882319F067E772E0BBCF82E00E949F
:10209000C7088111F8CF83E00E94C708811103C0EF
:1020A0006EE772E0AECF64E670E080E090E00E9400
:1020B000C1047ECF81E0B2CF0F931F93CF93DF9304
:1020C00000D000D000D0CDB7DEB7182F882309F498
:1020D00000C186E00E94C708811181C082E00E9491
:1020E000C70881117CC065E872E0CE0101960E94AC
:1020F000E60C62E0CE0101960E944C0DCE010196E5
:102100000E94250A10E0812F26960FB6F894DEBFB4
:102110000FBECDBFDF91CF911F910F91089520E0A9
:1021200041E064E670E080E090E09AC060911001C8
:1021300001E020E0462F81E00E94780861E08BE01A
:102140000E94F5026BEA72E0CE0101960E94E60C55
:1021500061E0CE0101960E944C0DCE0101960E94D5
:10216000250A60E086E00E94F50220E041E060E49C
:102170007FE180E090E00E94BD0F882319F263EBBD
:1021800072E0CE0101960E94E60C60E0CE0101965D
:102190000E944C0DCE0101960E94250A60E088E065
:1021A0000E94F50220E041E060E47CE980E090E0FC
:1021B0000E94BD0F182F882309F4A4CF61E088E0A6
:1021C0000E94F50261E086E00E94F5026CEB72E08D
:1021D0008BE196E00E94030B0E942D0A94CF0E948F
:1021E000E10D88E080931A0660E08EE096E00E94A0
:1021F000420766E372E0CE0101960E94E60C60E0C1
:10220000CE0101960E944C0DCE0101960E94250A36
:1022100060E087E00E94F50220E041E068E873E1B9
:1022200080E090E00E94BD0F882309F46BCF60E04E
:1022300085E00E94F50265E972E0CE0101960E94F8
:10224000E60C60E0CE0101960E944C0DCE01019695
:102250000E94250A20E041E060E375E780E090E01D
:102260000E94BD0F882309F44DCF86E00E94C70865
:10227000811155CF82E00E94C708811150CF20E024
:1022800041E068E873E180E090E00E94BD0F182F04
:10229000882309F437CF61E087E00E94F50261E00E
:1022A00085E00E94F5026EE972E0CE0101960E947F
:1022B000E60C61E0CE0101960E944C0DCE01019624
:1022C0000E94250A67EA72E08BE196E00E94030B08
:1022D0001ACF84E00E94C708811106C080E00E94E6
:1022E000C708882309F4FFCE85E00E94C708882329
:1022F00009F41CCF65E872E0CE0101960E94E60C5D
:1023000062E0CE0101960E944C0DCE0101960E9422
:10231000250AF9CE0F931F93CF93DF9300D000D0FF
:1023200000D0CDB7DEB7882309F440C187E00E9412
:10233000C70881111CC065E872E0CE0101960E94B9
:10234000E60C62E0CE0101960E944C0DCE01019692
:102350000E94250A10E0812F26960FB6F894DEBF62
:102360000FBECDBFDF91CF911F910F91089581E0F6
:102370000E94C70881112FC060EC72E0CE01019667
:102380000E94E60C62E0CE0101960E944C0DCE0147
:1023900001960E94250A6CEC72E08BE196E00E94A7
:1023A000830A4DE06BE176E0CE0101960E94AA0D12
:1023B000CE0101960E94920ACE0101960E94250A42
:1023C00081E00E94C708882381F181E00E94C7084C
:1023D000882309F4BFCF61E089E00E94F502609193
:1023E000100101E020E0462F81E00E94780886E09D
:1023F0000E94C708811120C082E00E94C708811195
:102400001BC08BE00E94CC02892B11F160E08BE0B5
:102410000E94F50220E041E060E177E280E090E098
:102420000E94BD0F811114C095CF60E177E280E07A
:1024300090E00E94C104C4CF8BE00E94CC02892BA3
:1024400021F060E08BE00E94F50281E00E945C10C8
:1024500060ED72E0CE0101960E94E60C60E0CE01D4
:1024600001960E944C0DCE0101960E94250A41E082
:1024700064E682E00E94340885E00E94C708882351
:1024800009F456C087E00E94C708882309F450C0A9
:1024900021E040E068EF7AE280E090E00E94BD0F2A
:1024A000882309F457CF85E00E94C708811157C0DF
:1024B00021E040E060ED77E080E090E00E94BD0F19
:1024C000182F882309F446CF41E060E082E00E94A3
:1024D000340887E00E94C708882309F44DC061E0F2
:1024E00089E00E94F50264EE72E0CE0101960E943E
:1024F000E60C61E0CE0101960E944C0DCE010196E2
:102500000E94250A64EF71E080E090E00E94C1041F
:1025100080E00E945C1060EF72E08BE196E00E9428
:10252000030B68EE73E088EB91E00E94F30413CF95
:1025300060E08CE00E94F50268E572E080E090E0E7
:102540000E94C10461E08CE00E94F50221E040E0BD
:1025500060EA7FE080E090E00E94BD0F8DCF87E0D1
:102560000E94C708882309F4A3CF21E040E068EE69
:1025700073E080E090E092CF64EF72E08BE196E050
:102580000E94030B68EF72E0CE0101960E94E60CF8
:1025900061E0CE0101960E944C0DCE0101960E9491
:1025A000250A60E089E00E94F502BBCF85E0BFCE3E
:1025B0001F920F920FB60F9211242F933F934F93B8
:1025C0005F936F937F938F939F93AF93BF93EF939B
:1025D000FF938091890490918A04A0918B04B0911B
:1025E0008C04892B8A2B8B2BD1F190918404E09160
:1025F0008504F091860480818927808380918904F5
:1026000090918A04A0918B04B0918C04181619063D
:102610001A061B069CF48091890490918A04A0916B
:102620008B04B0918C040197A109B10980938904AE
:1026300090938A04A0938B04B0938C04FF91EF9144
:10264000BF91AF919F918F917F916F915F914F91CA
:102650003F912F910F900FBE0F901F901895809172
:102660000B01E2E7F0E0E4919FEF90930B01E13082
:1026700051F030F0E23069F060E00E94F502DECF08
:1026800010926E00F9CF90916F009D7F90936F0034
:10269000F3CF909170009D7F9093700091E09093A4
:1026A000B0009091B100987F94609093B100109227
:1026B000B300E2CF1F920F920FB60F9211242F9307
:1026C0003F934F935F936F937F938F939F93AF93BA
:1026D000BF93EF93FF9385E994E00E941402FF916A
:1026E000EF91BF91AF919F918F917F916F915F918A
:1026F0004F913F912F910F900FBE0F901F90189503
:102700001F920F920FB60F9211242F938F939F93C6
:10271000EF93FF93E091A504F091A6048081E091EE
:10272000AB04F091AC0482FD1BC090818091AE049B
:102730008F5F8F732091AF04821741F0E091AE0458
:10274000F0E0EB56FB4F958F8093AE04FF91EF9135
:102750009F918F912F910F900FBE0F901F90189502
:102760008081F4CF1F920F920FB60F9211242F93F6
:102770003F938F939F93AF93BF938091FA03909170
:10278000FB03A091FC03B091FD033091F90323E01A
:10279000230F2D3758F50196A11DB11D2093F90384
:1027A0008093FA039093FB03A093FC03B093FD0383
:1027B0008091FE039091FF03A0910004B091010469
:1027C0000196A11DB11D8093FE039093FF03A0937A
:1027D0000004B0930104BF91AF919F918F913F91FD
:1027E0002F910F900FBE0F901F90189526E8230F82
:1027F0000296A11DB11DD2CF1F920F920FB60F925C
:1028000011242F933F934F935F936F937F938F93F5
:102810009F93AF93BF93EF93FF938091B900887F0D
:10282000803609F44AC0F0F5883209F4A7C018F5DB
:10283000803109F49BC0B8F4882309F4F9C08830CA
:1028400009F494C0FF91EF91BF91AF919F918F9147
:102850007F916F915F914F913F912F910F900FBE9C
:102860000F901F901895883109F488C0803251F775
:1028700080935D0414C0803409F49DC040F480331B
:10288000B9F38833F9F680935D0485ECB0C08035E8
:1028900009F485C0883509F496C0883499F60E94F9
:1028A0007006D0CF883909F48CC038F5883729F004
:1028B00050F4883611F0803729F683E080935F0466
:1028C0001092F80357C0883809F47BC0803919F09A
:1028D000803809F0B7CF8091F803803208F071C0DA
:1028E000E091F80381E08E0F8093F8038091BB00A4
:1028F000F0E0E852FC4F80833DC0803B39F0E0F4CB
:10290000803A09F479C0883A09F09CCF84E080933A
:102910005F041092D7031092D603E0911404F09153
:10292000150409958091D60381110FC081E0809331
:10293000D6031092B60309C0803C09F4A6CF883CA8
:1029400009F4A3CF883B09F07DCFE091D70381E064
:102950008E0F8093D703F0E0EA54FC4F8081809380
:10296000BB009091D7038091D60329C080913A048F
:102970008093BB0085EC8093BC0064CF90915C0495
:1029800080915B04981758F5E0915C0481E08E0F0C
:1029900080935C04F0E0E55CFB4F8081E9CFE0913F
:1029A0005C0481E08E0F80935C048091BB00F0E0BA
:1029B000E55CFB4F808390915C0480915B049817E9
:1029C000C8F285E8D8CFE0915C0481E08E0F809357
:1029D0005C048091BB00F0E0E55CFB4F808380915C
:1029E0005E0481115CCF81E08093390484EA809396
:1029F000BC0010925F0426CF85EC8093BC0010923F
:102A00005F048091F803803230F4E091F803F0E045
:102A1000E852FC4F10826091F80370E0E0911204DC
:102A2000F091130488ED93E009951092F8030ACF12
:102A300010925D0434CF1F920F920FB60F921124A3
:102A40002F933F934F935F936F937F938F939F93B6
:102A5000AF93BF93EF93FF93E0910404F0910504CB
:102A6000309749F0A685B7858585968D91FF14C06E
:102A70009C918923A1F4FF91EF91BF91AF919F9118
:102A80008F917F916F915F914F913F912F910F9017
:102A90000FBE0F901F9018959C91892361F7A38911
:102AA000B4899C918589809589238C93868997899F
:102AB0000197F1F7608D718DA685B785558538E052
:102AC00020E0CB010197F1F7822F90E09595879553
:102AD000282F4C91452309F02068315091F7868DBD
:102AE00081FD20958091030490E001968F739927D2
:102AF00030910204381799F0A0910304B0E0AA586D
:102B0000BC4F2C9380930304828D938D0197F1F732
:102B1000A389B4898C919589892B8C93ACCF868DB0
:102B20008160868FF1CFCF93DF931092980410923B
:102B3000970488EE93E0A0E0B0E08093990490932E
:102B40009A04A0939B04B0939C042AE531E030934F
:102B500096042093950425EC30E03093A204209352
:102B6000A10424EC30E03093A4042093A30420ECCF
:102B700030E03093A6042093A50421EC30E030939C
:102B8000A8042093A70422EC30E03093AA042093F9
:102B9000A90426EC30E03093AC042093AB041092EF
:102BA000AE041092AF041092B0041092B1041092CF
:102BB0003505109234058093360590933705A09320
:102BC0003805B09339052CE631E030933305209376
:102BD000320510921E0610921D0680931F069093D8
:102BE0002006A0932106B09322068AE891E09093F4
:102BF0001C0680931B06109232061092310610922A
:102C00003406109233061092360610923506109252
:102C1000380610923706609139066E7F6D7F60939B
:102C200039066695617081E0682782E00E94F502AE
:102C300061E082E00E945503E1EBF0E0E491E09373
:102C40002B06EDE9F0E0E491F0E0EE0FFF1FEF5608
:102C5000FF4F8591949190932D0680932C0660E010
:102C600080E10E9455038091390681FD04C061E036
:102C700080E10E94F50280E180932706EFEBF0E00F
:102C8000E491E0932806EBEAF0E0E491F0E0EE0F47
:102C9000FF1FE957FF4F8591949190932A068093E7
:102CA000290686E290E090933F0580933E0584E0FC
:102CB00090E09093140180931301909312018093FC
:102CC000110110921106109210068EE791E0909378
:102CD0000F0680930E061092170687E28093120665
:102CE00084E18093180684E08093190610921A06F6
:102CF0001092F9051092000610920706109208062D
:102D00001092090610920A0681E0809306068093CD
:102D100003061092040682E0809305061092F805DF
:102D200084E590E09093FD058093FC050E940C21C2
:102D30009093020680930106009709F45DC024E594
:102D4000DC011D922A95E9F78CE190E09093FB0558
:102D50008093FA0584E090E09093FF058093FE0550
:102D60008091F905882341F061E084E00E945503D9
:102D700060E084E00E94F502EFE9F0E0E491F0E029
:102D8000EE0FFF1FEF56FF4F8591949190930C0625
:102D900080930B06E3EBF0E0E491E0930D060E94D4
:102DA0003606C8EDD5E0E4E7F5E04CE455E01992CD
:102DB00011921192DA016D937D938D939D93AD01E4
:102DC0009F01225B3F4FD9011D921C92B5E0E8386C
:102DD000FB0769F71092F7051092F60564E073E0BF
:102DE00086E495E00E94E60C6AE971E080E495E0F3
:102DF000DF91CF910C94E60C1092FD051092FC052A
:102E00001092FB051092FA05A5CFCF93DF93CDB7B3
:102E1000DEB766970FB6F894DEBF0FBECDBF7894CD
:102E200084B5826084BD84B5816084BD85B58260CF
:102E300085BD85B5816085BD80916E008160809380
:102E40006E001092810080918100826080938100E9
:102E500080918100816080938100809180008160F9
:102E6000809380008091B10084608093B100809154
:102E7000B00081608093B00080917A00846080937C
:102E80007A0080917A00826080937A0080917A0043
:102E9000816080937A0080917A00806880937A00C4
:102EA0001092C100E091A504F091A60482E0808315
:102EB000E091A504F091A6041082E091A104F091A4
:102EC000A2041082E091A304F091A40480E1808325
:102ED0001092AD04E091A904F091AA0486E08083E9
:102EE000E091A704F091A804808180618083E09143
:102EF000A704F091A804808188608083E091A704F2
:102F0000F091A804808180688083E091A704F0910B
:102F1000A80480818F7D808310923606109235063A
:102F20001092340610923306109232061092310637
:102F30008DE991E0909338068093370690912706AB
:102F4000963108F047C02DEB30E0309332062093E5
:102F500031062BE931E030933406209333062CE21E
:102F600031E030933606209335062091680084E0E6
:102F7000983048F031E09E3008F430E081E001C044
:102F8000880F3A95EAF7822B809368002DE630E0AF
:102F9000983050F02BE630E09E3030F02CE630E0F8
:102FA000963110F030E020E030932F0620932E066B
:102FB000292F30E0983008F0D1C281E001C0880F9D
:102FC0009A95EAF7809330068091370690913806FB
:102FD0000197F1F78091350690913606892B49F1DA
:102FE000E0910404F091050426E0EB31F20709F1C9
:102FF000309739F0A389B4899C918589809589237C
:103000008C93809139068E7F809339061092030449
:10301000109202048BE196E09093050480930404DF
:10302000E0912E06F0912F06808190913006892B39
:103030008083109218040E9423036FEF80E00E94A7
:1030400027076FEF81E00E9427076FEF70E0809104
:103050003E0590913F050E94550710920F04109273
:103060000E0461E08AE00E94F50261E08AE00E94BD
:10307000550361E089E00E94F50261E089E00E9469
:10308000550361E08BE00E94F50261E08BE00E9455
:10309000550361E08CE00E94F50261E08CE00E9443
:1030A000550361E088E00E94F50261E088E00E943B
:1030B000550361E087E00E94F50261E087E00E942D
:1030C000550361E086E00E94F50261E086E00E941F
:1030D000550361E085E00E94F50261E085E00E9411
:1030E000550361E08BE00E94F50287E00E94DA0858
:1030F00087E00E94F70885E00E94DA0885E00E94D8
:10310000F70886E00E94DA0886E00E94F70884E06B
:103110000E94DA0884E00E94F70882E00E94DA0840
:1031200082E00E94F70880E00E94DA0880E00E94B6
:10313000F70883E00E94DA0883E00E94F70881E044
:103140000E94DA0860E084E10E94550361E083E0B8
:103150000E94550380910F0190E00E9486038DE04C
:103160000E94DA088DE00E94F7088BE00E94DA08DE
:103170008BE00E94F7088EE00E94DA088EE00E9441
:10318000F70888E00E94DA0888E00E94F70889E0E2
:103190000E94DA0889E00E94F7088AE00E94DA08B3
:1031A0008AE00E94F7088091FE059091FF0597FD47
:1031B00008C061E00E94550360E08091FE050E9416
:1031C000F50281E08093F9054091FC055091FD05E1
:1031D00070E060E080910106909102060E94F72263
:1031E0000E9403040E942303109213068091190683
:1031F000823018F098E0909313068093160662E3ED
:1032000070E080E090E00E94C10460911A068EE0B8
:1032100096E00E94420768EE73E080E090E00E9432
:10322000C10460E38EE096E00E9496090BE416E488
:10323000C8010197F1F760E38EE096E00E949609DD
:10324000C8010197F1F760E38EE096E00E949609CD
:1032500083E592E00197F1F760E28EE096E00E944C
:10326000960960911306606240E08EE096E00E944D
:10327000AF0984E08093140640E06CE08EE096E0B5
:103280000E94AF090E94FA0982E08093150640E08F
:1032900066E08EE096E00E94AF0940E062E08EE0DA
:1032A00096E00E94AF098BE39FE10197F1F762E09E
:1032B00080E00E94C6096CE072E08EE096E00E9419
:1032C000170B63E080E00E94C6096FE172E08EE0B8
:1032D00096E00E94170B80910601982F990F63E0EA
:1032E000890F0E94C60960911406862F8160809321
:1032F0001406696040E08EE096E00E94AF0980917C
:10330000F6059091F7050A9774F4E4E7F5E010E00C
:1033100000E081919191892B09F4F0C50F5F1F4F57
:103320000A301105B1F786E00E94C708811123C158
:1033300082E00E94C70881111EC10E94E10D87E052
:103340000E94C708882309F419C161E089E00E943E
:10335000F50287E00E94C708882341F085E00E94BB
:10336000C708882319F081E080930804BE016F5FCD
:103370007F4F7B0111E00E9436062B013C0184E760
:1033800095E0988B8F87BCE4CB2EB5E0DB2EDE8AF0
:10339000CD8AFC01312C212C9F0122593F4FD901AC
:1033A0001D921C92808191813296892BB9F1AD8951
:1033B000BE894D915D916D917C911397DC968D90B6
:1033C0009D90AD90BC90DF97D301C201841B950BFB
:1033D000A60BB70B88159905AA05BB05F8F0480D93
:1033E000591D6A1D7B1DAD89BE894D935D936D93FB
:1033F0007C931397C10188529A4FDC018C918823EA
:1034000069F082AD93AD009709F0C0C0CF01845937
:103410009F4F21E030E0DC012D933C937FEF271A92
:10342000370A8D899E8904969E8B8D8B9AE029168A
:10343000310409F0B1CFB12CA12C4601A6E98A0EC6
:10344000911CF401808191818130910509F4C0C003
:10345000029709F4C3C0BFEFAB1ABB0AE2E0CE0E7D
:10346000D11CFAE0AF16B10441F78DE00E94C70805
:1034700081111BC000910A04012700930A0464E62D
:1034800070E088EB91E00E94F30460910D01069FCB
:10349000602D11244091090181E00E9434086CE202
:1034A00071E080E090E00E94C1048EE00E94C708B5
:1034B00081111BC00091090401270093090464E6EF
:1034C00070E088EB91E00E94F30460910C01069F8C
:1034D000602D11244091080182E00E9434086CE2C2
:1034E00071E080E090E00E94C1048BE00E94C70878
:1034F00081111BC000910B04012700930B0464E6AB
:1035000070E088EB91E00E94F30460910E01069F49
:10351000602D112440910A0180E00E9434086CE281
:1035200071E080E090E00E94C10488E00E94C7083A
:103530008111AEC080910701882309F480C088E022
:1035400080931A0660E08EE096E00E944207109297
:10355000070168EC70E080E090E0C3C19E3040F469
:103560002850310981E001C0880F2A95EAF72ACD59
:103570002E503109F7CF0E942D0AE1CE85E00E943E
:10358000C708882309F4E1CE60E0E0CE5F013EE4A5
:10359000A30EB11CD5014D915C91481759070CF051
:1035A0003DCF9F0124593F4F61E070E0D9016D93F9
:1035B0007C934F5F5F4FD5014D935C93481759073C
:1035C0000CF42CCF62E070E0D9016D937C9326CF90
:1035D000D6019896ED91FC9109953DCFD60198962C
:1035E000ED91FC9109958091F6059091F705009772
:1035F00009F431CFF60120A531A5232B09F42BCFF7
:1036000011A610A6F501E852FA4F1082D4011D92BE
:103610001C92F501EE0FFF1FEE0FFF1FE45BFA4F48
:1036200014AE15AE16AE17AEF601E858FF4F118274
:10363000108201979093F7058093F6050CCFE091E7
:103640000601E53009F05BC1E0910501EF3000F5BE
:10365000F0E0E35DF44E0C94EB203C1B2E1C311C7F
:10366000341C381C3A1C3E1C401C431C4B1C531C75
:103670005B1C651C741C7C1C67EC72E085E994E0A3
:103680000E94030B6CEC72E08BE196E00E94830ACF
:103690008AE00E94C708811116C0809106018F5FE1
:1036A000863008F038C18093060180910601982F7A
:1036B000990F63E0890F0E94C60968EC70E080E012
:1036C00090E00E94C10489E00E94C70881112AC0CD
:1036D00080910601E82FF0E0E050FF4F90819F5F5E
:1036E0009083953028F09DEF980F923008F4108267
:1036F0009081983040F0853031F490910804911118
:1037000002C01092050190819C3020F0853011F4A8
:103710001092050190819A3018F0853008F41082DB
:103720000E94190B0E941409082F882309F469C00C
:1037300064E670E088EB91E00E94F304B09007012A
:10374000BB2009F468C118861F821A8619861C8658
:103750001B8609831A82F70101900020E9F731974F
:10376000AF014E195F09B701CE0107960E94AE0C5A
:103770000E9436062B013C0101E02FE04FE06FE094
:1037800080E00E9478088091060481111AC080911F
:10379000F6059091F7050A9794F4D12CC12CAF85CA
:1037A000B8898D919D91B88BAF87892B09F4E1C3BE
:1037B000BFEFCB1ADB0AEAE0CE16D10481F71093F3
:1037C00006040E9436066419750986099709603156
:1037D00077428105910508F4A1C065E173E085E9B0
:1037E00094E00E94030B6CE271E08CED90E00E948B
:1037F000F304B12CCE0107960E94250AB110109255
:103800000701C7010E94F10EB70180E495E00E9414
:10381000210CC7010E94250A8AE991E00E946A0AE8
:10382000811178C1809108048111FFC18AE293E07F
:103830000E946A0A882309F439C181E00E945C1061
:1038400086E00E94C708811106C082E00E94C70876
:10385000882309F440C165E672E03FC10E946B0E07
:1038600017CF0E94B10E14CF81E00E948A1110CFB1
:1038700080E0FBCF81E00E945C100ACF80E0FBCFAC
:103880001093080405CF80910804882309F400CF21
:103890000E942608FDCE80910804882309F4F8CE02
:1038A0000E945A0AF5CE80910804882309F4F0CECC
:1038B0000E941808EDCE80910804882309F4E8CE10
:1038C00060E08BE00E94F502E3CE8091080488233B
:1038D00021F060E08AE00E94F50268EE73E080E08B
:1038E00090E00E94C104D4CE80910804882309F49A
:1038F000CFCE61E08AE0E6CF10920804C9CEF0E0B6
:10390000E050FF4F8081882309F4C2CE815080832C
:103910000E94190B1ECE10920601C7CE0E941409F8
:10392000D82E882309F44DCF64E670E088EB91E04F
:103930000E94F30401E02FE04FE060E080E00E948D
:10394000780868EC70E080E090E00E94C1042FE00D
:103950004FE06FE080E00E9478081A8219821C8292
:103960001B821E821D82BE01695F7F4FC7010E94BC
:10397000CF0CDD861E8641E050E0BE01635F7F4FC5
:10398000C7010E94820C811103C0C7010E94130A63
:10399000B701CE0107960E94CF0CC7010E94250AED
:1039A0002B853C854CEF420F2530310508F440E073
:1039B00050E0BE01695F7F4FC7010E94F70CB7015D
:1039C000CE0107960E94210CC7010E94250ACE0154
:1039D00007960E94920A2B853C8580914A0590911A
:1039E0004B052817390709F0ECCE8F819885609137
:1039F000460570914705009709F4F7C261157105F6
:103A000039F4232B09F4FFC2FC01808190E0F8C255
:103A10000E94FE22F5C281E0013419F0023421F443
:103A200080E00E948A11EDCE81E0033419F0043465
:103A300021F480E00E945C10E4CE0A3219F40E9466
:103A40006B0EDFCE033219F40E94B10EDACE802F56
:103A5000000F990BF1E08D3A9F07B1F460910B04D0
:103A6000612760930B0480910E01689F602D1124E3
:103A700040910A0180E00E9434086CE271E080E02D
:103A800090E00E94C104BDCE875D914009F0B9CE9F
:103A900060910A04612760930A0480910D01689F78
:103AA000602D11244091090181E0E5CF8DE293E082
:103AB0000E946A0A882309F498C080E00E945C1082
:103AC00086E00E94C708811106C082E00E94C708F4
:103AD000882309F4C0CE6DEA71E085E994E00E9484
:103AE000030B88E493E00E946A0A60E08111DBC066
:103AF0008BE493E00E946A0A60E0811108C08EE4C2
:103B000093E00E946A0A882309F4C6C061E08AE053
:103B10000E94F502C0900704D12C81E00E94C708E2
:103B20008C151D0421F10091100181E00E94C7084D
:103B3000089F602D112401E020E040E082E00E9417
:103B4000780881E00E94C70891E0811101C090E0EF
:103B50009093070481E00E94C7086FE073E0811131
:103B600002C062E173E08BE196E00E94030B80915A
:103B70000804811115C085E00E94C708882381F0E0
:103B800087E00E94C708882359F06EE672E0C701FB
:103B90000E94E60CC7010E943A0FC7010E94250A45
:103BA00086E480937C0080917A00806480937A0020
:103BB00080917A0086FDFCCF909178008091790009
:103BC0008927982789278C32914014F40E946B0E24
:103BD00080E090E0892B09F4CECB0E94000288237C
:103BE00009F4C8CB0E940000C1CB80E393E00E949F
:103BF0006A0A882329F081E00E948A1187E026CE94
:103C000083E393E00E946A0A882329F080E00E94FF
:103C10008A1185E01BCE86E393E00E946A0A88231E
:103C200009F45FCF109308045CCF87E293E00E9411
:103C30006A0A882319F01092080453CF89E393E0AD
:103C40000E946A0A60E0811107C08CE393E00E9441
:103C50006A0A882329F061E08BE00E94F50241CFD7
:103C60008FE393E00E946A0A882319F00E941808E3
:103C700038CF82E493E00E946A0A882319F00E94F8
:103C800026082FCF85E493E00E946A0A882309F46E
:103C900028CF0E945A0A25CF81E593E00E946A0A44
:103CA000882359F061E089E00E94F5026DEA71E035
:103CB00085E994E00E94030B2DCF84E593E00E94F8
:103CC0006A0A882369F086E00E94C708811105C04E
:103CD00082E00E94C708882349F365E672E0E8CFD6
:103CE00087E593E00E946A0A882331F085E00E940C
:103CF000C7088111DBCFF1CF8AE593E00E946A0A01
:103D0000882331F089E00E94CC02892B31F7CECF95
:103D10008DE593E00E946A0A882319F00E94B10E93
:103D2000DCCF80E693E00E946A0A882319F00E94A3
:103D30006B0ED3CF82E692E00E946A0A882391F04C
:103D400065E672E085E994E00E94030B67E672E0A5
:103D5000C7010E94E60CC7010E943A0FC7010E94EA
:103D6000250AD8CE83E693E00E946A0A882349F0A8
:103D70008091080469E073E081119ACF6BE073E0F1
:103D800097CF86E693E00E946A0A882341F040912B
:103D90000A0160910E0180E00E94340887CF89E615
:103DA00093E00E946A0A882331F040E060E080E0FE
:103DB0000E94340892CF8CE693E00E946A0A88231E
:103DC00031F04091090160910D0181E0E5CF8FE66E
:103DD00093E00E946A0A882321F040E060E081E0DD
:103DE000E7CF82E793E00E946A0A882309F492CE23
:103DF00085E00E94C70861E070E0882311F070E060
:103E000060E085E994E00E94FC0A87E00E94C70810
:103E100061E070E0882311F070E060E085E994E0F3
:103E20000E94FC0A84E00E94C708811104C00E941D
:103E3000C70861E0811160E070E085E994E00E94CC
:103E4000FC0A86E00E94C708811105C082E00E943A
:103E5000C70861E0811160E070E085E994E00E94AC
:103E6000FC0A89E00E94CC0261E070E0892B11F02D
:103E700070E060E085E994E00E94FC0A81E00E9425
:103E8000C7086DE073E0811102C065EA72E085E960
:103E900094E00E94170B8091080469E073E081119F
:103EA00002C06BE073E085E994E00E94030B84E0BC
:103EB0000E94C708682F85E994E00E94F50A80E017
:103EC0000E94C708682F85E994E00E94F50A86E001
:103ED0000E94C708682F85E994E00E94F50A82E0F5
:103EE0000E94C708682F85E994E00E94F50A68E9F6
:103EF00071E085E994E00E94830A0CCEF801EE0F90
:103F0000FF1FEE0FFF1FE857FA4F88EE93E0A0E087
:103F1000B0E080839183A283B383F801EE0FFF1F8B
:103F2000EC58FA4F84E991E091838083F801EE0F19
:103F3000FF1FE055FA4F11821082F801E852FA4F44
:103F400081E080830E943606000F111F000F111FB1
:103F5000F801E45BFA4F60837183828393838091DD
:103F6000F6059091F70501969093F7058093F60575
:103F7000DAC9F601EE0FFF1FEE0FFF1FE857FA4FE9
:103F800060EE73E984E090E06083718382839383C1
:103F9000F601EE0FFF1FEC58FA4F82E998E091838B
:103FA0008083F601EE0FFF1FE055FA4FA1E0B0E06D
:103FB000B183A083F601E852FA4F10830E943606BF
:103FC000F601EE0FFF1FEE0FFF1FE45BFA4F608359
:103FD0007183828393838091F6059091F705019612
:103FE0009093F7058093F605EACB6115710559F0BA
:103FF000232B49F0DB018C9190E0919581959109FB
:10400000892B09F0DECB62E273E085E994E00E943F
:10401000030B6CE271E088EB91E00E94F30401E095
:1040200020E040E06FE080E00E94780860ED77E0FB
:1040300080E090E00E94C104DDCB80E495E00E9426
:10404000250A86E495E00E94250A80910106909158
:1040500002060E94A8218091FE059091FF0597FD20
:1040600003C060E00E9455038AE891E090931C062B
:1040700080931B0680910404909105048B51964017
:1040800071F4E0912E06F0912F0690818091300618
:10409000809589238083109205041092040408956A
:1040A0002F923F924F925F926F927F928F929F9248
:1040B000AF92BF92CF92DF92EF92FF920F931F9336
:1040C000CF93DF93CDB7DEB7CA1BDB0B0FB6F894E7
:1040D000DEBF0FBECDBF09942A88398848885F8427
:1040E0006E847D848C849B84AA84B984C884DF8098
:1040F000EE80FD800C811B81AA81B981CE0FD11D7C
:104100000FB6F894DEBF0FBECDBFED010895A29F9C
:10411000B001B39FC001A39F700D811D1124911D9B
:10412000B29F700D811D1124911D089597FB072EDC
:1041300016F4009407D077FD09D00E94F82007FC00
:1041400005D03EF4909581959F4F089570956195A7
:104150007F4F0895A1E21A2EAA1BBB1BFD010DC0C3
:10416000AA1FBB1FEE1FFF1FA217B307E407F50727
:1041700020F0A21BB30BE40BF50B661F771F881F03
:10418000991F1A9469F760957095809590959B0199
:10419000AC01BD01CF010895052E97FB1EF40094DC
:1041A0000E94E32057FD07D00E94AA2007FC03D0FD
:1041B0004EF40C94E32050954095309521953F4F57
:1041C0004F4F5F4F089590958095709561957F4F03
:1041D0008F4F9F4F0895EE0FFF1F0590F491E02D34
:1041E00009940E948720B7FF0895821B930B0895BE
:1041F000AA1BBB1B51E107C0AA1FBB1FA617B7070D
:1042000010F0A61BB70B881F991F5A95A9F7809528
:104210009095BC01CD0108950F931F93CF93DF9329
:104220008230910510F482E090E0E0913C06F0913C
:104230003D0630E020E0B0E0A0E0309799F4211591
:10424000310509F44AC0281B390B24303105D8F553
:104250008A819B816115710589F1FB0193838283BA
:10426000FE0111C040815181028113814817590715
:10427000E0F04817590799F4109761F012960C93E3
:10428000129713961C933296CF01DF91CF911F9115
:104290000F91089500933C0610933D06F4CF21152D
:1042A000310551F04217530738F0A901DB019A019B
:1042B000BD01DF01F801C1CFEF01F9CF90933D06B9
:1042C00080933C06CDCFFE01E20FF31F81939193C3
:1042D0002250310939832883D7CF20913A06309173
:1042E0003B06232B41F420911701309118013093A4
:1042F0003B0620933A0620911501309116012115B5
:10430000310541F42DB73EB74091190150911A0182
:10431000241B350BE0913A06F0913B06E217F307B8
:10432000A0F42E1B3F0B2817390778F0AC014E5F25
:104330005F4F2417350748F04E0F5F1F50933B0621
:1043400040933A06819391939FCFF0E0E0E09CCFB9
:10435000CF93DF930097E9F0FC013297138212822A
:10436000A0913C06B0913D06ED0130E020E01097B1
:10437000A1F420813181820F931F20913A06309160
:104380003B062817390709F061C0F0933B06E0931C
:104390003A06DF91CF910895EA01CE17DF07E8F5DD
:1043A0004A815B819E0141155105B1F7E901FB830B
:1043B000EA8349915991C40FD51FEC17FD0761F4A9
:1043C000808191810296840F951FE90199838883EA
:1043D000828193819B838A83F0E0E0E012968D9145
:1043E0009C9113970097B9F52D913C911197CD01B0
:1043F0000296820F931F20913A0630913B062817B0
:10440000390739F6309751F510923D0610923C0667
:10441000B0933B06A0933A06BCCFD383C2834081BE
:104420005181840F951FC817D90761F44E5F5F4F04
:1044300088819981480F591F518340838A819B81CC
:10444000938382832115310509F0B0CFF0933D06A7
:10445000E0933C069ECFFD01DC01C0CF13821282A7
:10446000D7CFB0E0A0E0E7E3F2E20C9452208C0159
:10447000009751F4CB010E940C218C01C801CDB7EB
:10448000DEB7E0E10C946E20FC01E60FF71F9C0103
:1044900022503109E217F30708F49DC0D901CD91EC
:1044A000DC911197C617D70798F0C530D10530F3C6
:1044B000CE0104978617970708F3C61BD70B2297E0
:1044C000C193D1936D937C93CF010E94A821D6CF45
:1044D0005B01AC1ABD0A4C018C0E9D1EA0913C06DE
:1044E000B0913D06512C412CF12CE12C109731F567
:1044F00080913A0690913B068815990509F05CC0B9
:104500004616570608F058C0809115019091160183
:10451000009741F48DB79EB74091190150911A014F
:10452000841B950BE817F90708F055C0F0933B067C
:10453000E0933A06F90171836083A0CF8D919C913D
:10454000119712966C90129713967C901397A8155A
:10455000B90559F56C0142E0C40ED11CCA14DB0444
:1045600020F1AC014A195B09DA011296159780F027
:104570006282738251834083D9016D937C93E114ED
:10458000F10471F0D7011396FC93EE93129776CF56
:1045900022968C0F9D1FF90191838083F301EFCF49
:1045A000F0933D06E0933C0669CF4816590608F49F
:1045B0002C017D01D3019ACFCB010E940C217C01FB
:1045C000009749F0AE01B8010E94EE22C8010E9496
:1045D000A821870153CF10E000E050CFFB01DC01A0
:1045E00002C001900D9241505040D8F70895DC016F
:1045F00001C06D9341505040E0F70895FB01DC018C
:104600008D91019080190110D9F3990B0895FB0148
:10461000DC0101900D920020E1F7089510E0C3E65F
:10462000D0E004C0FE010E94EB202196C436D107E1
:06463000C9F7F894FFCF6A
:104636000107090202000501000101FF1932C81431
:10464600020300040000003E068000000040001443
:10465600005400050A0F142802050A14280A193204
:1046660064C8313233410034353642003738394375
:10467600002A302344001000200040008000FE0085
:10468600FD00FB00F7000000000036029601C301A2
:104696008302F401D201E60100000000F806CB0611
:1046A6001508A106C406B106A206000000000D0A00
:1046B600960115089501000000008007960115086F
:1046C600A106DC07F40768070D0A005200504152A4
:1046D6004B20004F55205031004645205031004FA9
:1046E60055204142004645204142004F5520504F3B
:1046F60000464520504F004D414E5520004F552055
:104706005032004645205032004445504C41004D41
:104716004F544F4E00415458204D004154582041AB
:10472600004155544F20002020202020202020200A
:104736002020202020202020202020005441204915
:104746004E204558204C43204C4420434D440032D3
:104756005220334220354220322020322020504140
:10476600524B004F6B005031204F2E2E2E005031F1
:10477600204F50454E00503120462E2E2E005031EF
:1047860020436C6F736500415255004152552021FC
:104796002000415500300053C3A972696500506F6F
:1047A600736974696F6E00506F7274657300426F3F
:1047B60075746F6E0045727265757220706F7369DD
:1047C60074696F6E00503132204F2E2E2E005031FC
:1047D60032204F70656E00504F2300503220462E17
:1047E6002E2E0050313220462E2E2E00504623000B
:1047F600457272657572205061726B0050412300DC
:104806004465706C6163656D656E74206162726982
:104816002E2E2E0041627269206665726DC3A90054
:1048260044462300444F230041627269206F757627
:104836006572740031323334006D006100700054CB
:104846004E005450004D61757661697320636F6444
:104856006500436F6465204F4B00502B00502D00C0
:10486600442B00442D004D41006D2B006D2D00643E
:104876006400322B00322D00412B00582B00582D9E
:1048860000412D00503F00443F00413F00702D0085
:10489600702B004D3F00452B00452D00492B00494C
:0648A6002D00433F00005D
:107800000C94343C0C94513C0C94513C0C94513CE1
:107810000C94513C0C94513C0C94513C0C94513CB4
:107820000C94513C0C94513C0C94513C0C94513CA4
:107830000C94513C0C94513C0C94513C0C94513C94
:107840000C94513C0C94513C0C94513C0C94513C84
:107850000C94513C0C94513C0C94513C0C94513C74
:107860000C94513C0C94513C11241FBECFEFD8E036
:10787000DEBFCDBF11E0A0E0B1E0ECE9FFE702C060
:1078800005900D92A230B107D9F712E0A2E0B1E065
:1078900001C01D92AD30B107E1F70E942D3D0C945F
:1078A000CC3F0C94003C982F959595959595959582
:1078B000905D8F708A307CF0282F295A8091C0000B
:1078C00085FFFCCF9093C6008091C00085FFFCCF60
:1078D0002093C6000895282F205DF0CF982F809127
:1078E000C00085FFFCCF9093C6000895EF92FF92F1
:1078F0000F931F93EE24FF2487018091C00087FD22
:1079000017C00894E11CF11C011D111D81E4E8164B
:1079100082E4F8068FE0080780E0180770F3E09132
:107920000401F091050109958091C00087FFE9CF1E
:107930008091C6001F910F91FF90EF9008950E94D3
:10794000763C982F8091C00085FFFCCF9093C600B5
:1079500091362CF490330CF09053892F089597555D
:10796000892F08951F930E949F3C182F0E949F3CCF
:107970001295107F810F1F9108951F93182F882350
:1079800021F00E94763C1150E1F71F9108951F935A
:10799000182F0E94763C803249F0809103018F5F5E
:1079A000809303018530C1F01F9108958091C0003C
:1079B00085FFFCCF84E18093C6008091C00085FFE5
:1079C000FCCF1093C6008091C00085FFFCCF80E102
:1079D0008093C6001F910895E0910401F091050184
:1079E00009951F9108950E94763C803241F0809164
:1079F00003018F5F80930301853081F008958091AA
:107A0000C00085FFFCCF84E18093C6008091C00058
:107A100085FFFCCF80E18093C6000895E0910401CA
:107A2000F09105010995089540E951E08823A1F0FE
:107A30002D9A28EE33E0FA013197F1F721503040CA
:107A4000D1F72D9828EE33E0FA013197F1F7215064
:107A50003040D1F7815061F708953F924F925F9285
:107A60006F927F928F929F92AF92BF92CF92DF924E
:107A7000EF92FF920F931F93CF93DF93000080E16B
:107A80008093C4001092C50088E18093C10086E015
:107A90008093C2005098589A259A81E00E94143D24
:107AA00024E1F22E9EE1E92E85E9D82E0FE0C02ECA
:107AB00010E1B12EAA24A394B1E49B2EA6E58A2E50
:107AC000F2E57F2EE0E26E2E79E4572E63E5462E36
:107AD00050E5352E0E94763C8033B1F18133B9F107
:107AE000803409F46FC0813409F476C0823409F41B
:107AF00085C0853409F488C0803531F1823521F1A3
:107B0000813511F1853509F485C0863509F48DC0BC
:107B1000843609F496C0843709F403C1853709F423
:107B200072C1863709F466C0809103018F5F80932C
:107B30000301853079F6E0910401F0910501099582
:107B40000E94763C803351F60E94F33CC3CF0E94E2
:107B5000763C803249F78091C00085FFFCCFF092DF
:107B6000C6008091C00085FFFCCF9092C600809136
:107B7000C00085FFFCCF8092C6008091C00085FFC9
:107B8000FCCF7092C6008091C00085FFFCCF609250
:107B9000C6008091C00085FFFCCF5092C600809146
:107BA000C00085FFFCCF4092C6008091C00085FFD9
:107BB000FCCF3092C6008091C00085FFFCCFB09210
:107BC000C60088CF0E94763C863808F4BDCF0E945C
:107BD000763C0E94F33C7ECF0E94763C803809F4CC
:107BE0009CC0813809F40BC1823809F43CC1883942
:107BF00009F48FC080E00E94C73C6CCF84E10E94F2
:107C0000BD3C0E94F33C66CF85E00E94BD3C0E94D3
:107C1000F33C60CF0E94763C809306010E94763C44
:107C2000809307010E94F33C55CF0E94763C80333D
:107C300009F41DC183E00E94BD3C80E00E94C73C66
:107C400049CF0E94763C809309020E94763C809343
:107C5000080280910C028E7F80930C020E94763C79
:107C6000853409F415C18091080290910902892B8D
:107C700089F000E010E00E94763CF801E85FFE4FDA
:107C800080830F5F1F4F80910802909109020817AF
:107C9000190788F30E94763C803209F045CF809125
:107CA0000C0280FF01C16091060170910701660F0F
:107CB000771F7093070160930601A0910802B091AD
:107CC00009021097C9F0E8E0F1E09B01AD014E0F09
:107CD0005F1FF999FECF32BD21BD819180BDFA9A17
:107CE000F99A2F5F3F4FE417F50799F76A0F7B1F4B
:107CF00070930701609306018091C00085FFFCCF5F
:107D0000F092C6008091C00085FFFCCFB092C60003
:107D1000E1CE83E00E94C73CDDCE82E00E94C73CFA
:107D2000D9CE0E94763C809309020E94763C8093D3
:107D300008028091060190910701880F991F909386
:107D40000701809306010E94763C853409F4A6C0A1
:107D500080910C028E7F80930C020E94763C8032D0
:107D600009F0B8CE8091C00085FFFCCFF092C6002C
:107D7000609108027091090261157105B9F140E046
:107D800050E080910C02A82FA170B82FB27011C0E2
:107D9000BB2309F45CC0E0910601F0910701319624
:107DA000F0930701E09306014F5F5F4F46175707B7
:107DB000E8F4AA2369F3F999FECF209106013091E6
:107DC000070132BD21BDF89A90B58091C00085FFB2
:107DD000FCCF9093C6002F5F3F4F30930701209355
:107DE00006014F5F5F4F4617570718F38091C00099
:107DF00085FDE5CE8091C00085FFF8CFE0CE81E023
:107E00000E94C73C67CE0E94763C803209F08CCE3F
:107E10008091C00085FFFCCFF092C6008091C00029
:107E200085FFFCCFE092C6008091C00085FFFCCFAB
:107E3000D092C6008091C00085FFFCCFC092C600E2
:107E40008091C00085FFFCCFB092C60043CEE09188
:107E50000601F091070194918091C00085FFFCCF4D
:107E60009093C6009CCF80E10E94C73C33CE0E9415
:107E7000763C0E94763C182F0E94763C112309F430
:107E800083C0113009F484C08FE00E94C73C22CE29
:107E900080910C02816080930C02E5CE80910C02EF
:107EA000816080930C0259CF809107018823880F4D
:107EB000880B8A2180930B02809106019091070123
:107EC000880F991F90930701809306018091080203
:107ED00080FF09C080910802909109020196909359
:107EE000090280930802F894F999FECF1127E091D6
:107EF0000601F0910701C8E0D1E08091080290915D
:107F00000902103091F40091570001700130D9F34B
:107F100003E000935700E89500915700017001308D
:107F2000D9F301E100935700E89509901990009169
:107F3000570001700130D9F301E000935700E89534
:107F40001395103498F011270091570001700130FB
:107F5000D9F305E000935700E895009157000170B0
:107F60000130D9F301E100935700E895329602976A
:107F700009F0C7CF103011F00296E5CF112480919F
:107F8000C00085FFB9CEBCCE8EE10E94C73CA2CD19
:0C7F900085E90E94C73C9ECDF894FFCF0D
:027F9C00800063
:040000030000780081
:00000001FF
