:100000000C9464000C948C000C948C000C940615D9
:100010000C9406150C9406150C948C000C94C312C9
:100020000C948C000C948C000C948C000C948C0020
:100030000C948C000C948C000C948C000C948C0010
:100040000C949D130C948C000C946B130C9445131E
:100050000C948C000C948C000C948C000C948C00F0
:100060000C94E7130C948C0000000000240027007F
:100070002A0002000000080002010000030407003B
:1000800000000000000000000000002300260029FE
:100090000000000000250028002B000404040404D4
:1000A0000404040202020202020303030303030125
:1000B00002040810204080010204081020010204FC
:1000C000081020007E15272011241FBECFEFD8E096
:1000D000DEBFCDBF26E0A8E8B3E001C01D92A13588
:1000E000B207E1F713E0A0E0B1E0EAE4F6E402C011
:1000F00005900D92A838B107D9F710E0C3E6D0E01B
:1001000004C02197FE010E94F520C236D107C9F72D
:100110000E94F0160C9418230C9400008F929F926A
:10012000AF92BF92CF92DF92EF92FF920F931F9305
:10013000FC014B01AA24BB24C52ED62EE72EFF249A
:10014000BC2DA42F90911306B82C992391F0A92FC0
:10015000B0E0A89D9001A99D300DB89D300D1124EF
:10016000B32E9C9D60011124BD2D949F800111240C
:10017000A12F409119062091140630911506809107
:100180001606481324C0CF01880F991F8E0F9F1F9A
:10019000820F931FE0911606E80FF92FF11DB08230
:1001A000E0911706E80FF92FF11DB0832091180692
:1001B000820F911DFC01A0831F910F91FF90EF9082
:1001C000DF90CF90BF90AF909F908F900895CF0118
:1001D000880F991F880F991F820F931FFC01E40F4E
:1001E000F11D1082D7CF2091960481E0213208F0D2
:1001F00044C0809172048111FCCF8091950492E0FB
:100200009093720491E0909371049FEF9093700427
:1002100010926F0420936E04A5E7B4E0EEE4F4E0DE
:1002200090E0291331C010924D0490914D04880F35
:10023000892B80934D0480914C04813049F51092B4
:100240004C0480914D048093BB008091BC0083FDE1
:10025000F8CF85EC8093BC00809172048230E1F38A
:10026000809170048F3FB1F0809170048032A1F0D2
:1002700080917004803391F084E0109274041092A5
:1002800096041092730408953D9131939F5FC9CFF6
:1002900085EEE0CF80E0F1CF82E0EFCF83E0EDCFDD
:1002A000909172049111FCCF91E09093720490931D
:1002B00071042FEF2093700410926F04260F209387
:1002C0006E0490934D0490914D04880F892B809378
:1002D0004D0480914C048130F9F410924C048091CB
:1002E0004D048093BB008091BC0083FDF8CF85EC6A
:1002F0008093BC00809172048130E1F380916F049F
:10030000861710F460916F04AEE4B4E0ECE2F4E020
:1003100080E0861303C0089585EEEACF9D91919306
:100320008F5FF7CF0895089508950895AF92BF9213
:10033000CF92DF92EF92FF920F931F93CF93DF93B1
:100340006C017B018B01040F151FEB015E01AE18E0
:10035000BF08C017D10759F06991D601ED91FC9102
:100360000190F081E02DC6010995892B79F7C5012F
:10037000DF91CF911F910F91FF90EF90DF90CF9081
:10038000BF90AF900895FC01538D448D252F30E030
:10039000842F90E0821B930B541710F0CF96089592
:1003A00001970895FC01918D828D981761F0A28DBF
:1003B000AE0FBF2FB11D5D968C91928D9F5F9F7385
:1003C000928F90E008958FEF9FEF0895FC01918D3B
:1003D000828D981731F0828DE80FF11D858D90E0A8
:1003E00008958FEF9FEF0895FC01918D228D892F45
:1003F00090E0805C9F4F821B91098F73992708952D
:1004000088EA94E00E94F40121E0892B09F420E0BD
:10041000822F089580E090E0892B29F00E9400024D
:1004200081110C9400000895FC01A48DA80FB92F30
:10043000B11DA35ABF4F2C91848D90E001968F730C
:100440009927848FA689B7892C93A089B1898C912B
:10045000837080648C93938D848D981306C002887A
:10046000F389E02D80818F7D80830895EF92FF9244
:100470000F931F93CF93DF93EC0181E0888F9B8DC7
:100480008C8D98131AC0E889F989808185FF15C081
:100490009FB7F894EE89FF896083E889F9898081A4
:1004A0008370806480839FBF81E090E0DF91CF9173
:1004B0001F910F91FF90EF900895F62E0B8D10E095
:1004C0000F5F1F4F0F731127E02E8C8D8E110CC004
:1004D0000FB607FCFACFE889F989808185FFF5CF4F
:1004E000CE010E941402F1CFEB8DEC0FFD2FF11D18
:1004F000E35AFF4FF0829FB7F8940B8FEA89FB898C
:1005000080818062CFCFCF93DF93EC01888D8823E9
:10051000B9F0AA89BB89E889F9898C9185FD03C066
:10052000808186FD0DC00FB607FCF7CF8C9185FF4B
:10053000F2CF808185FFEDCFCE010E941402E9CF7A
:10054000DF91CF910895833081F028F4813099F0C4
:100550008230A9F008958730A9F08830C9F084303E
:10056000B1F4809180008F7D03C0809180008F77EF
:1005700080938000089584B58F7784BD089584B5F5
:100580008F7DFBCF8091B0008F778093B00008956E
:100590008091B0008F7DF9CFCF93DF93282F30E08B
:1005A000F901ED58FF4F8491F901E155FF4FD491C6
:1005B000F901E556FF4FC491CC23A1F081110E94AF
:1005C000A302EC2FF0E0EE0FFF1FE957FF4FA591BC
:1005D000B491EC91ED2381E090E009F480E0DF91AB
:1005E000CF91089580E090E0FACF1F93CF93DF93EF
:1005F000282F30E0F901ED58FF4F8491F901E155C2
:10060000FF4FD491F901E556FF4FC491CC23A9F0D7
:10061000162F81110E94A302EC2FF0E0EE0FFF1FB6
:10062000EF56FF4FA591B4918FB7F894EC9111114B
:1006300008C0D095DE23DC938FBFDF91CF911F914F
:100640000895DE2BF8CF10922A04109229041092FC
:100650007404109296041092720481E080937104E5
:1006600010924C0461E082E10E94F50261E083E1B6
:100670000E94F502E9EBF0E080818E7F808380812B
:100680008D7F808388E48093B80085E48093BC00EC
:1006900082E991E0909328048093270483E991E014
:1006A00090932604809325040895CF93DF9390E0E0
:1006B000FC01E155FF4F249185569F4FFC01849129
:1006C0008823D1F090E0880F991FFC01E859FF4F73
:1006D000A591B491FC01EF56FF4FC591D4916111E2
:1006E0000EC09FB7F8948C91E22FE0958E238C93E7
:1006F0002881E223E8839FBFDF91CF9108958FB7D0
:10070000F894EC91E22BEC938FBFF6CFCF93DF936D
:10071000EC0161E083E00E945503209731F460E032
:1007200083E0DF91CF910C94F502CF3FD10511F416
:1007300061E0F6CFE6E7F0E0E491E33029F140F440
:10074000E130B1F0E230D9F0C038D1058CF7E7CF15
:10075000E73021F1E83051F1E430B1F780918000C9
:10076000806280938000D0938B00C0938A0004C085
:1007700084B5806884BDC7BDDF91CF91089584B5ED
:10078000806284BDC8BDF8CF80918000806880936E
:100790008000D0938900C0938800EECF8091B00094
:1007A00080688093B000C093B300E6CF8091B00022
:1007B00080628093B000C093B400DECF3FB7F8945E
:1007C0008091110490911204A0911304B09114042B
:1007D00026B5A89B05C02F3F19F00196A11DB11D9C
:1007E0003FBFBA2FA92F982F8827BC01CD01620FD8
:1007F000711D811D911D42E0660F771F881F991F93
:100800004A95D1F708950F931F93CF93DF93CDB7F8
:10081000DEB729970FB6F894DEBF0FBECDBF80912B
:10082000140690911506892B09F467C00E94DE0317
:1008300000911A0610911B0620911C0630911D068E
:10084000601B710B820B930B6C327140810591051B
:1008500068F3F89480910F06909110069A8389832B
:10086000E0911406F0911506DF01119680818987C9
:1008700090910B06E0911E06F0911F0680912006D4
:10088000992309F445C09081982B98879081809591
:1008900089238F838F818C8388E08B8358856F8138
:1008A00049853B812C8189819A81508347FD252F81
:1008B0003A952083262F39F0441F00C00000608342
:1008C000000000C0F2CF38E04D9160830000019736
:1008D00061F7F0931F06E0931E0649873B832C8344
:1008E0009A83898378940E94DE0360931A0670933A
:1008F0001B0680931C0690931D0629960FB6F8944C
:10090000DEBF0FBECDBFDF91CF911F910F91089534
:100910009081982B98879081809589238F838F81F0
:100920008E8388E08D8358856F8149853D812E8136
:1009300089819A81508347FD252F00C000C0208304
:1009400000C000C000C000C000C060830000262FAF
:100950003A9541F0441F000000C000C000C000C034
:1009600000C0E8CF38E04D9100C0608300C001971F
:1009700009F7F0931F06E0931E0649873D832E83F7
:10098000AFCF8F929F92AF92BF92CF92DF92EF92B2
:10099000FF924B015C010E94DE036B017C010E940F
:1009A000DE036C197D098E099F09683E734081053D
:1009B0009105A8F321E0821A9108A108B10888EEF8
:1009C000C80E83E0D81EE11CF11C81149104A1041F
:1009D000B10429F7FF90EF90DF90CF90BF90AF90D8
:1009E0009F908F9008954F925F926F927F928F9217
:1009F0009F92AF92BF92EF92FF920F931F93CF936C
:100A00008C017B0180910B018131D9F08F3F09F47A
:100A10003FC068EC70E080E090E00E94C1048091EB
:100A20000F0190E0CF911F910F91FF90EF90BF9039
:100A3000AF909F908F907F906F905F904F900C94AD
:100A40008603E2E7F0E0C491C7FDE3CF61E081E116
:100A50000E945503C11132C02801012E000C660806
:100A6000770862E17AE780E090E0A30192010E94BA
:100A7000D62049015A0181E0881A9108A108B108DD
:100A800096E0C1113BC085B5887F846085BDABC051
:100A900081E180930B01E2E7F0E0C491CF3F09F4DC
:100AA000B8CFC13009F44AC080F1C23009F464C043
:100AB000C7FDAFCF61E081E10E9455039801012E8F
:100AC000000C440B550BC23009F078C029013A01E3
:100AD00064E274EF80E090E00E94D62049015A0160
:100AE00081E0881A9108A108B10895E08FEF881677
:100AF0009104A104B10411F00CF0B3CF8091B100C6
:100B0000887F892B8093B1006EC014BC15BC84B55E
:100B1000826084BD85B5816085BDECEAF0E0E4913A
:100B2000F0E0EE0FFF1FEF56FF4F85919491E0EC40
:100B3000F0E0E491E0939B04C0E088CF1092800045
:100B40001092810080918100886080938100809163
:100B50008100816080938100ECEAF0E0E491F0E0B4
:100B6000EE0FFF1FEF56FF4F85919491E0ECF0E000
:100B7000E491E0939A046ACF1092B0001092B10011
:100B80008091B00082608093B0008091B10081605C
:100B90008093B100ECEAF0E0E491F0E0EE0FFF1F8B
:100BA000EF56FF4F85919491909399048093980408
:100BB000E0ECF0E0E491E093970448CF60E072E16C
:100BC0008AE790E00E94D62049015A0181E0881A04
:100BD0009108A108B108C13031F480918100887F6B
:100BE0008160809381009801220F331FD7010E94FA
:100BF000FB2028EE33E040E050E00E94B420C130FA
:100C000099F0C23019F1C11104CF87BC2093A4041C
:100C10003093A5044093A6045093A70480916E00DE
:100C2000826080936E00F5CE909289008092880059
:100C30002093A0043093A1044093A2045093A304F2
:100C400080916F00826080936F00E3CE8092B3004A
:100C500020939C0430939D0440939E0450939F04E2
:100C600080917000826080937000D3CE2FB7F8948B
:100C700060910D0470910E0480910F049091100406
:100C80002FBF08950F931F93CF93DF93EC010E9422
:100C90003606688779878A879B87E881F98102848D
:100CA000F385E02DCE01099597FF15C00E94360609
:100CB000088519852A853B85601B710B820B930B78
:100CC0000C811D812E813F81601771078207930778
:100CD00020F38FEF9FEFDF91CF911F910F91089538
:100CE00085ED8093BC008091BC0084FDFCCF109208
:100CF000720408952091E903260F3327331F213210
:100D00003105ECF420917204FC0190E080E0243085
:100D100069F082E00895A091E9032191AC01475365
:100D20005C4FA40FB52FB11D2C930196861798F335
:100D30008091E903680F6093E90380E0089581E002
:100D400008950895E0912A0480912904E81730F469
:100D5000F0E0E45DFB4F808190E008958FEF9FEF1E
:100D6000089590912A04809129042FEF3FEF98175E
:100D700048F4E92FF0E0E45DFB4F208130E09F5F15
:100D800090932A04C90108958091290490912A041E
:100D9000891B990B0895CF92DF92EF92FF920F93E8
:100DA0001F93CF93DF937C01CB018A0120917304C1
:100DB000222389F0EB016B01C40ED51ECC15DD0595
:100DC00069F06991D701ED91FC910190F081E02DDE
:100DD000C7010995F3CF642F0E947A06C801DF91FD
:100DE000CF911F910F91FF90EF90DF90CF900895DA
:100DF000CF93DF931F92CDB7DEB769832091730441
:100E00002223F9F020919604203258F021E030E0BE
:100E1000FC013383228390E080E00F90DF91CF913B
:100E2000089580917404E82FF0E0EB58FB4F99810E
:100E300090838F5F809374048093960481E090E0A8
:100E4000ECCF61E0CE0101960E947A06F7CFCF93F6
:100E5000C62F90912B04906221E02093730490930D
:100E600095041092740410929604682F85E495E01E
:100E70000E94F8066C2F85E495E00E94F806CF9159
:100E80000C94F300FC01248131E03093730420932F
:100E9000950410927404109296048485682B85E45E
:100EA00095E00E94F8060C94F30088E080932D06EC
:100EB00060E081E296E00C94420760932304709313
:100EC000240491E090937304809395041092740429
:100ED0001092960485E495E00E94F8060C94F300C5
:100EE00020911704309118042817390771F4909154
:100EF000150480911604981741F0E0911504F0E074
:100F0000E757FC4F808190E008958FEF9FEF0895A1
:100F1000EF92FF920F931F93CF93DF93DC015C96C8
:100F2000ED90FC905D97E114F10479F481E090E09C
:100F300013969C938E93129790E080E0DF91CF916F
:100F40001F910F91FF90EF9008955196ED91FC91B4
:100F5000529750968C915097982F90950FB75E9618
:100F60002C915E97122F127021FD6095F8942081CC
:100F7000112319F1282B2083E7012197F1F728E0AD
:100F8000462F50E0308160FF1AC0382B3083E701D4
:100F90002197F1F7BA0175956795215089F71123CB
:100FA00081F08081892380830FBF5C968D919C9115
:100FB0000197F1F781E090E0C1CF2923DCCF3923FD
:100FC000E5CF9081892BEFCF209117043091180441
:100FD0002817390771F4809116042091150490E0C8
:100FE000805C9F4F821B910960E470E00E94A0200A
:100FF000089590E080E0089520911704309118043E
:1010000028173907B9F490911504809116049817A0
:1010100089F0E0911504F0E0E757FC4F80812091C2
:10102000150430E02F5F3F4F2F73332720931504B3
:1010300090E008958FEF9FEF089590E080E008958D
:1010400060E08CE00E94F50268E572E080E090E0EC
:101050000E94C10461E08CE00C94F50260E085E040
:101060000E94F50260E47CE980E090E00E94C10407
:1010700061E085E00C94F5028F929F92AF92BF924F
:10108000FF920F931F93CF93DF93982F990F990F90
:10109000990F24E0F22EF90E98E0899FE0011124C7
:1010A0002B96469F002D112410E030E020E04801EF
:1010B0005901A62A322F212F102F0027802A912A8A
:1010C000A22AB32A8F2D90E0C817D9077CF020916F
:1010D0000D0630910E068217930720F4B501A40186
:1010E0000E948E000E940304F394ECCFDF91CF9115
:1010F0001F910F91FF90BF90AF909F908F90089598
:101100000F93362FE42F90E040910D0650910E067C
:101110008417950740F4422F50E070E060E05E2BAA
:10112000632B0E948E00002319F00F910C9403048E
:101130000F9108950F9380911904882361F001E0C5
:1011400020E040E060E080E00E94800881E0809341
:101150000701109219040F91089590912B04906249
:1011600021E02093730490939504109274041092DC
:101170009604682F85E495E00E94F8060E94F3002B
:1011800080912B0461E080620E94500110922A0439
:101190008093290485E495E00E94B1060895CF93D9
:1011A000C82FC770883060F083E10E94AD0890E0DE
:1011B00002C095958795CA95E2F78170CF91089501
:1011C00082E1F3CFCF93DF93C82FD1E0883008F4CA
:1011D000D0E08D2F0E94AD08C77041E050E060E084
:1011E00070E004C0440F551F661F771FCA95D2F7E1
:1011F000682F642B8D2FDF91CF910C942707CF930D
:10120000DF93C82FDDE0883008F4DCE08D2F0E94EA
:10121000AD08C77041E050E060E070E004C0440FEA
:10122000551F661F771FCA95D2F7682F642B8D2F25
:10123000DF91CF910C942707CF92DF92EF92FF922C
:101240000F931F93CF93DF93C0912104D091220479
:10125000F0905105E0905205FE01EE0FFF1FE25B9A
:10126000FE4F608171818F2D9E2D0E945D0796E457
:10127000C92E91E0D92E10E000E0809111019091EB
:1012800012010817190784F561E08F2D0E945001A3
:1012900010922A048093290485E495E00E94B10607
:1012A000F601419151916F01209123043091240462
:1012B0008227932784179507A1F485E08C9FF0017E
:1012C0008D9FF00D1124EE5CFE4FE00FF11F808129
:1012D000082E000C990B9093200480931F0480E04B
:1012E0000DC00F5F1F4FC9CF80911F049091200444
:1012F000009769F01092200410921F04DF91CF91A3
:101300001F910F91FF90EF90DF90CF9008956FEFB6
:1013100070E08F2D9E2D0E945D072196D0932204B0
:10132000C09321048091130190911401C817D9072B
:10133000B1F61092220410922104D1CF0F931F9383
:10134000CF938C01C62F0E9442076C2F6460C801A6
:101350000E9442076C2F6B7FC8010E94420783ECFA
:1013600090E00197F1F7CF911F910F9108950F939E
:101370001F93CF93DF938C01D62FC42F607F642BF4
:101380000E949E0980E1D89FB00111246C2BC801F6
:10139000DF91CF911F910F910C949E09CF93DF9312
:1013A000CDB7DEB728970FB6F894DEBF0FBECDBF1E
:1013B00098E0EBE1F1E0DE01119601900D929A9533
:1013C000E1F790912906961710F46FEF690F262F19
:1013D00030E0220F331F41E050E04C0F5D1F240F1F
:1013E000351FF9016081680F606840E081E296E096
:1013F00028960FB6F894DEBF0FBECDBFDF91CF9118
:101400000C94B70940E061E081E296E00E94B709E0
:101410008BE39FE10197F1F780912A06882321F061
:1014200060E080E00C94CE09089541E00E94B70985
:1014300081E090E00895CF93DF93EC01888199815A
:10144000009711F00E94B221198218821D821C821D
:101450001B821A82DF91CF910895FC0180819181D6
:10146000009711F00C94B221089510922D0660E0BF
:1014700081E296E00E944207EBE0F6E0448155816C
:1014800070E060E0818592850E9401230E94030440
:1014900061E08BE00E94F50261E08AE00E94F502C3
:1014A00068EE73E080E090E00E94C10481E08093E8
:1014B0001A048093070110921904089560E086E0F1
:1014C0000E94F50260E47CE980E090E00E94C104A3
:1014D00061E086E00E94F5020C94350A20915705E0
:1014E00030915805232B39F421E0FC0180818823B9
:1014F00061F020E00AC0BC01809153059091540531
:101500000E94082321E0892BA1F7822F0895FB0177
:1015100001900020E9F73197AF01461B570BDC0122
:10152000ED91FC910280F381E02D09948F929F92BE
:10153000AF92BF92EF92FF920F931F93CF93DF93DF
:10154000CDB7DEB7A1970FB6F894DEBF0FBECDBF03
:101550007C01FA01CB0119A2223008F42AE08E01A5
:101560000F5D1F4F822E912CB12CA12CBF01A50124
:1015700094010E94B420F901CA016A300CF5605D43
:10158000D8016E938D01232B242B252B79F790E026
:1015900080E0109721F0BD01C7010E94870AA19643
:1015A0000FB6F894DEBF0FBECDBFDF91CF911F9174
:1015B0000F91FF90EF90BF90AF909F908F90089504
:1015C000695CDECF462F50E070E060E02AE00C94CA
:1015D000960AAB01770F660B770B2AE00C94960AFC
:1015E0000F931F93CF93DF93EC010E94870A8C0126
:1015F00068E971E0CE010E94870A800F911FDF9198
:10160000CF911F910F9108950C94870A0F93CF9358
:10161000C09106018C2F880F63E08C0F0E94CE09C9
:10162000C33008F06FC0EC2FF0E0E050FF4F808136
:10163000682F70E08530E8F16450710981E296E02E
:101640000E94E90A6FEB71E081E296E00E94040BD0
:1016500020910601822F90E0FC01E85FFE4F31E00F
:101660003083FC01E050FF4FE081F0E0E85DFE4F89
:101670006081FC01E45FFE4F6083845E9B4FFC0150
:101680008081689F602D112441E082E0821B0E94CE
:101690003C0880910601982F990F63E0890F0E9402
:1016A000CE0968EC70E080E090E0CF910F910C944F
:1016B000C1046F5F7F4F81E296E00E94E90A67EA0A
:1016C00071E081E296E00E94040B20910601822FD6
:1016D00090E0FC01E85FFE4F1082FC01E050FF4FFC
:1016E000E081F0E0E35DFE4F6081FC01E45FFE4FCE
:1016F0006083845E9B4FFC018081689F602D112474
:1017000040E0C3CFC43029F56091040181E296E046
:101710000E94E20AE0910601F0E0E050FF4FE08114
:10172000F0E0E85DFE4FC081C093100101E020E0D1
:1017300040E06C2F81E00E94800881E00E94CF0889
:10174000C89F602D112420E040E082E00E948008C4
:10175000A0CFC330B1F46091030181E296E00E9412
:10176000E20AE0910601F0E0E050FF4FE081F0E096
:10177000ED5DFE4F808180930F0190E00E94860313
:1017800088CFEC2FF0E0E050FF4FE081EF3008F021
:1017900080CFF0E0E253F44F0C94F520DD0BE40B26
:1017A000E70BEA0BED0BF00BF30BF60BFF0B020C48
:1017B000050C080C0B0C0E0CFC0B68E272E081E2CD
:1017C00096E00E94040B65CF69EA71E0F8CF6FEAFA
:1017D00071E0F5CF65EB71E0F2CF6BEB71E0EFCF2D
:1017E00061EC71E0ECCF67EC71E0E9CF80911B0414
:1017F00061EA71E0882319F36BE971E0E0CF6DECE9
:1018000071E0DDCF63ED71E0DACF69ED71E0D7CF44
:101810006FED71E0D4CF65EE71E0D1CF6BEE71E08A
:10182000CECF0F931F93CF93DF938C01EB01FC017D
:10183000808191810097E1F068817981611571055E
:10184000A9F0428153812C813D814217530770F0EA
:101850000E9411238C819D81F801958384831D82D0
:101860001C82DF91CF911F910F9108950E94B221A8
:1018700088819981F801918380838A819B819383F8
:1018800082838C819D8195838483198218821B8237
:101890001A82E5CF0F931F93CF93DF93EC018881DA
:1018A0009981009759F02A813B812617370730F03C
:1018B00081E0DF91CF911F910F9108958B016F5FB0
:1018C0007F4F0E943B22009759F0998388831B83A6
:1018D0000A832C813D81232B59F7FC011082E8CF2C
:1018E00080E0E7CFEF92FF920F931F93CF93DF93A8
:1018F0006115710541F480E0DF91CF911F910F9147
:10190000FF90EF90089541155105B1F07B01EC0176
:101910000C811D81040F151FB8010E944A0C8823F9
:1019200051F3288139818C819D81B701820F931FEA
:101930000E9411231D830C8381E0DECFEF92FF9282
:101940000F931F93CF93DF93EC017B018A01BA01C0
:101950000E944A0C81110BC0CE010E941B0ACE01CD
:10196000DF91CF911F910F91FF90EF9008951D830C
:101970000C83B701888199810E941123F0CFCF9306
:10198000DF93EC01FB018617970749F060817181B5
:101990006115710541F0448155810E949E0CCE0174
:1019A000DF91CF9108950E941B0AF9CFFC011182AB
:1019B00010821382128215821482FB010190002092
:1019C000E9F73197AF01461B570B0C949E0CEF9231
:1019D000FF920F931F93CF93DF9300D0CDB7DEB765
:1019E0008C017B016AE971E00E94D60CC7010E945C
:1019F000420697FD0EC08332910559F089831A8201
:101A000041E050E0BE016F5F7F4FC8010E94720C41
:101A1000EDCFC8010F900F90DF91CF911F910F91E3
:101A2000FF90EF900895AF92BF92CF92DF92EF9226
:101A3000FF920F931F93CF93DF937C016B015A01A9
:101A400089012417350720F48B2D5901042F182FF5
:101A50006AE971E0C7010E94D60CD6011496CD91B7
:101A6000DC91AC16BD0620F50C171D0708F4E80143
:101A7000D601ED91FC911197EC0FFD1F10811082A2
:101A80006D917C916A0D7B1D61157105E9F0FB017B
:101A900001900020E9F73197AF01461B570BC701B2
:101AA0000E949E0CF60180819181C80FD91F188376
:101AB000C701DF91CF911F910F91FF90EF90DF90C1
:101AC000CF90BF90AF900895C7010E941B0AEACF44
:101AD000EF92FF920F93CF93DF9300D000D000D00E
:101AE000CDB7DEB77C018091100101E0623009F4CE
:101AF00049C0633009F44AC0282F40E0613009F042
:101B000043C020E040E0682F81E00E94800844E16B
:101B100050E061EF71E0C7010E94720C2FE030E0ED
:101B200050E040E0B701CE0101960E94130DBE01C6
:101B30006F5F7F4FC7010E94110CCE0101960E947A
:101B40002D0A61E080E00E94CE09F70144815581B1
:101B50006081718181E296E00E9496018091060188
:101B6000982F990F63E0890F0E94CE0926960FB631
:101B7000F894DEBF0FBECDBFDF91CF910F91FF90E4
:101B8000EF900895282F482F60E0BECF20E0FBCFD4
:101B90000F931F93CF93DF9300D000D000D0CDB729
:101BA000DEB780918803882349F1109288038091E1
:101BB000090690910A06009709F120918705309156
:101BC0008805232BD9F01092880510928705109272
:101BD000EB051092F6051092F50510929B051092F8
:101BE0009C0510929D0510929E051092D8051092AA
:101BF000D705019790930A068093090660E08AE072
:101C00000E94F50260ED77E080E090E00E94C10460
:101C10001091100100E020E040E0612F81E00E947F
:101C2000800820E040E0612F82E00E94800801E00F
:101C30002FE04FE06FE080E00E94800880910F016C
:101C400090E00E9486030E94020A0E94550762E00B
:101C500080E00E94CE0966E072E081E296E00E9498
:101C6000040B63E080E00E94CE0969E172E081E24A
:101C700096E00E94040B80910601982F990F63E073
:101C8000890F0E94CE0960912706862F816080937C
:101C90002706696040E081E296E00E94B7096EE2A3
:101CA00072E0CE0101960E94D60C61E0CE01019651
:101CB0000E94680DCE0101960E942D0A60E08BE023
:101CC0000E94F50281E00E94CF0891E0811190E02E
:101CD00090931A04109207011092190426960FB6D9
:101CE000F894DEBF0FBECDBFDF91CF911F910F9152
:101CF0000895CF93DF9300D000D000D0CDB7DEB7EA
:101D000060E08AE00E94F50260ED77E080E090E01C
:101D10000E94C10461E372E0CE0101960E94D60CDC
:101D200060E0CE0101960E94680DCE0101960E94EE
:101D30002D0A60E087E00E94F50260E47CE980E023
:101D400090E00E94C10469E372E0CE0101960E9416
:101D5000D60C61E0CE0101960E94680DCE0101967D
:101D60000E942D0A61E087E00E94F50226960FB6D8
:101D7000F894DEBF0FBECDBFDF91CF910895CF9312
:101D8000DF9300D000D000D0CDB7DEB761E472E0C1
:101D9000CE0101960E94D60C60E0CE0101960E9411
:101DA000680DCE0101960E942D0A60E088E00E9435
:101DB000F50260E47CE980E090E00E94C10469E4FF
:101DC00072E0CE0101960E94D60C61E0CE01019630
:101DD0000E94680DCE0101960E942D0A61E088E004
:101DE0000E94F50261E08AE00E94F50226960FB695
:101DF000F894DEBF0FBECDBFDF91CF9108950F9352
:101E00001F93CF93DF9300D000D000D0CDB7DEB7C3
:101E10008C0188EA94E00E94F40168EA74E0892B5E
:101E200041F48EE296E00E94E407892B49F16EE2CC
:101E300076E0CE0101960E94E70CBE016F5F7F4FF6
:101E400083E595E00E94110CCE0101960E942D0AB7
:101E5000F80111821082138212821582148263E5C6
:101E600075E0C8010E94BF0CC80126960FB6F89411
:101E7000DEBF0FBECDBFDF91CF911F910F910895AF
:101E80006AE971E0C8010E94D60CEECF0F931F9350
:101E9000CF93DF93CDB7DEB72C970FB6F894DEBFA4
:101EA0000FBECDBF8C0162E572E088EA94E00E942B
:101EB000F00A61E089E00E94F50261E08BE00E9497
:101EC000F50261E08CE00E94F50261E088E00E948A
:101ED000F50261E087E00E94F50261E086E00E9481
:101EE000F50261E085E00E94F50261E08BE00E946E
:101EF000F50281E080931B0466E572E0CE01019655
:101F00000E94D60CF8014481558160817181CE0117
:101F100001960E94720C811104C0CE0101960E94AC
:101F20001B0A18861F821A8619861C861B86BE010C
:101F30006F5F7F4FCE0107960E94BF0C63E0CE011A
:101F400007960E94680DCE0107960E942D0ACE01C9
:101F500001960E942D0A01E020E042E360E081E06A
:101F60000E9480080E94550783E00E94CF088111DB
:101F700007C064E670E080E090E00E94C104F4CF06
:101F80002C960FB6F894DEBF0FBECDBFDF91CF9178
:101F90001F910F9108957F928F929F92AF92BF925F
:101FA000CF92DF92EF92FF920F931F93CF93DF9325
:101FB00000D000D000D0CDB7DEB74B015C01042FBC
:101FC000722E0E9436066B017C0110E00E943606DC
:101FD0006C197D098E099F09681579058A059B058D
:101FE00008F076C0CE0101960E94FF0EBE016F5F21
:101FF0007F4F83E595E00E94110CCE0101960E946F
:102000002D0A8DE592E00E946E0A882349F160E670
:1020100072E088EA94E00E94F00A62E672E0CE0183
:1020200001960E94D60CCE0101960E94460FCE0169
:1020300001960E942D0A80E026960FB6F894DEBF26
:102040000FBECDBFDF91CF911F910F91FF90EF9009
:10205000DF90CF90BF90AF909F908F907F9008952A
:1020600081E00E94CF08811106C0113019F462ECA2
:1020700072E0D5CF11E0002369F085E00E94CF081F
:10208000882341F087E00E94CF08882319F069E691
:1020900072E0C5CF772069F086E00E94CF088823E0
:1020A00019F062E772E0BBCF82E00E94CF08811195
:1020B000F8CF83E00E94CF08811103C069E772E086
:1020C000AECF64E670E080E090E00E94C1047ECF75
:1020D00081E0B2CF0F931F93CF93DF9300D000D056
:1020E00000D0CDB7DEB7182F882309F4EAC086E008
:1020F0000E94CF088111B0C082E00E94CF088111F8
:10210000ABC060E872E0CE0101960E94D60C62E09E
:10211000CE0101960E94680DCE0101960E942D0A03
:1021200010E0812F26960FB6F894DEBF0FBECDBF0C
:10213000DF91CF911F910F91089564E670E080E0E8
:1021400090E00E94C10486E00E94CF088111F5CF83
:1021500082E00E94CF088111F0CF68E873E180E04F
:1021600090E00E94C10461E087E00E94F50261E016
:1021700085E00E94F50260E972E0CE0101960E94BE
:10218000D60C61E0CE0101960E94680DCE01019649
:102190000E942D0A69E972E08EE296E00E94F00A40
:1021A000C0CF6091100101E020E0462F81E00E9445
:1021B000800861E08BE00E94F5026DE972E0CE01DB
:1021C00001960E94D60C61E0CE0101960E94680D36
:1021D000CE0101960E942D0A60E086E00E94F50281
:1021E00020E041E060E47FE180E090E00E94CB0FDE
:1021F000882309F496CF65EA72E0CE0101960E9429
:10220000D60C60E0CE0101960E94680DCE010196C9
:102210000E942D0A60E088E00E94F50220E041E083
:1022200060E47CE980E090E00E94CB0F082F8823D7
:1022300009F477CF61E088E00E94F50261E086E072
:102240000E94F5026EEA72E08EE296E00E94F00AC9
:102250000E94350A102F65CF0E94C80D0E945507B5
:1022600061E372E0CE0101960E94D60C60E0CE01DF
:1022700001960E94680DCE0101960E942D0A60E031
:1022800087E00E94F50268E873E180E090E00E9438
:10229000C10460E085E00E94F50262EB72E0CE01CD
:1022A00001960E94D60C60E0CE0101960E94680D56
:1022B000CE0101960E942D0A60E375E780E090E070
:1022C00040CF84E00E94CF08811106C080E00E94C8
:1022D000CF08882309F415CF85E00E94CF08882312
:1022E00009F45FCF60E872E0CE0101960E94D60C3F
:1022F00062E0CE0101960E94680DCE0101960E9417
:102300002D0A0FCF0F931F93CF93DF9300D000D0F0
:1023100000D0CDB7DEB7882309F433C187E00E942F
:10232000CF0881111CC060E872E0CE0101960E94C6
:10233000D60C62E0CE0101960E94680DCE01019696
:102340000E942D0A10E0812F26960FB6F894DEBF6A
:102350000FBECDBFDF91CF911F910F91089581E006
:102360000E94CF08811122C06BEB72E0CE01019672
:102370000E94D60C62E0CE0101960E94680DCE014B
:1023800001960E942D0A67EC72E08EE296E00E94B0
:10239000870A13E181E00E94CF08811102C0115029
:1023A00079F581E00E94CF08882361F261E089E03D
:1023B0000E94F5026091100101E020E0462F81E0CB
:1023C0000E94800886E00E94CF08811120C082E030
:1023D0000E94CF0881111BC08BE00E94CC02892B88
:1023E00011F160E08BE00E94F50220E041E060E145
:1023F00077E280E090E00E94CB0F811114C0A2CF61
:1024000060E177E280E090E00E94C104C3CF8BE0FE
:102410000E94CC02892B21F060E08BE00E94F50243
:1024200081E00E946A106BEC72E0CE0101960E947E
:10243000D60C60E0CE0101960E94680DCE01019697
:102440000E942D0A41E064E682E00E943C0885E09B
:102450000E94CF08882309F456C087E00E94CF0865
:10246000882309F450C021E040E068EF7AE280E080
:1024700090E00E94CB0F882309F464CF85E00E948E
:10248000CF08811157C021E040E060ED77E080E0A7
:1024900090E00E94CB0F182F882309F453CF41E01E
:1024A00060E082E00E943C0887E00E94CF08882319
:1024B00009F44DC061E089E00E94F5026FED72E021
:1024C000CE0101960E94D60C61E0CE0101960E94D9
:1024D000680DCE0101960E942D0A64EF71E080E044
:1024E00090E00E94C10480E00E946A106BEE72E0EE
:1024F0008EE296E00E94F00A68EE73E088EB91E0CD
:102500000E94F30420CF60E08CE00E94F50268E5B1
:1025100072E080E090E00E94C10461E08CE00E94E3
:10252000F50221E040E060EA7FE080E090E00E9478
:10253000CB0F8DCF87E00E94CF08882309F4A3CF6B
:1025400021E040E068EE73E080E090E092CF6FEE33
:1025500072E08EE296E00E94F00A63EF72E0CE0134
:1025600001960E94D60C61E0CE0101960E94680D92
:10257000CE0101960E942D0A60E089E00E94F502DA
:10258000BBCF85E0CCCE1F920F920FB60F921124D5
:102590002F933F934F935F936F937F938F939F936B
:1025A000AF93BF93EF93FF9380919C0490919D0410
:1025B000A0919E04B0919F04892B8A2B8B2BD1F183
:1025C00090919704E0919804F09199048081892773
:1025D000808380919C0490919D04A0919E04B09171
:1025E0009F04181619061A061B069CF480919C0479
:1025F00090919D04A0919E04B0919F040197A10920
:10260000B10980939C0490939D04A0939E04B09381
:102610009F04FF91EF91BF91AF919F918F917F9117
:102620006F915F914F913F912F910F900FBE0F903F
:102630001F90189580910B01E2E7F0E0E4919FEF85
:1026400090930B01E13051F030F0E23069F060E03E
:102650000E94F502DECF10926E00F9CF90916F00CC
:102660009D7F90936F00F3CF909170009D7F90932A
:10267000700091E09093B0009091B100987F9460C9
:102680009093B1001092B300E2CF1F920F920FB659
:102690000F9211242F933F934F935F936F937F93E8
:1026A0008F939F93AF93BF93EF93FF9388EA94E048
:1026B0000E941402FF91EF91BF91AF919F918F9172
:1026C0007F916F915F914F913F912F910F900FBE2E
:1026D0000F901F9018951F920F920FB60F92112412
:1026E0002F938F939F93EF93FF93E091B804F09112
:1026F000B9048081E091BE04F091BF0482FD1BC04B
:1027000090818091C1048F5F8F732091C2048217E2
:1027100041F0E091C104F0E0E855FB4F958F8093C4
:10272000C104FF91EF919F918F912F910F900FBE58
:102730000F901F9018958081F4CF1F920F920FB6C3
:102740000F9211242F933F938F939F93AF93BF9337
:1027500080910D0490910E04A0910F04B09110048B
:1027600030910C0423E0230F2D3758F50196A11D5D
:10277000B11D20930C0480930D0490930E04A0933C
:102780000F04B09310048091110490911204A09151
:102790001304B09114040196A11DB11D809311047E
:1027A00090931204A0931304B0931404BF91AF91BB
:1027B0009F918F913F912F910F900FBE0F901F907F
:1027C000189526E8230F0296A11DB11DD2CF1F92A6
:1027D0000F920FB60F9211242F933F934F935F9355
:1027E0006F937F938F939F93AF93BF93EF93FF93D9
:1027F0008091B900887F803609F44AC0F0F58832AC
:1028000009F4A7C018F5803109F49BC0B8F48823F7
:1028100009F4F9C0883009F494C0FF91EF91BF9199
:10282000AF919F918F917F916F915F914F913F9168
:102830002F910F900FBE0F901F901895883109F4BB
:1028400088C0803251F78093700414C0803409F43A
:102850009DC040F48033B9F38833F9F68093700457
:1028600085ECB0C0803509F485C0883509F496C080
:10287000883499F60E947006D0CF883909F48CC04C
:1028800038F5883729F050F4883611F0803729F66A
:1028900083E08093720410920B0457C0883809F4C7
:1028A0007BC0803919F0803809F0B7CF80910B04D4
:1028B000803208F071C0E0910B0481E08E0F8093AC
:1028C0000B048091BB00F0E0E551FC4F80833DC0DC
:1028D000803B39F0E0F4803A09F479C0883A09F095
:1028E0009CCF84E0809372041092EA031092E90373
:1028F000E0912704F091280409958091E903811162
:102900000FC081E08093E9031092C90309C0803CA5
:1029100009F4A6CF883C09F4A3CF883B09F07DCF0A
:10292000E091EA0381E08E0F8093EA03F0E0E75341
:10293000FC4F80818093BB009091EA038091E90372
:1029400029C080914D048093BB0085EC8093BC002E
:1029500064CF90916F0480916E04981758F5E091C0
:102960006F0481E08E0F80936F04F0E0E25BFB4F19
:102970008081E9CFE0916F0481E08E0F80936F0436
:102980008091BB00F0E0E25BFB4F808390916F048D
:1029900080916E049817C8F285E8D8CFE0916F0453
:1029A00081E08E0F80936F048091BB00F0E0E25BCA
:1029B000FB4F80838091710481115CCF81E0809313
:1029C0004C0484EA8093BC001092720426CF85ECFC
:1029D0008093BC001092720480910B04803230F41A
:1029E000E0910B04F0E0E551FC4F108260910B0484
:1029F00070E0E0912504F09126048BEE93E00995B8
:102A000010920B040ACF1092700434CF1F920F92D1
:102A10000FB60F9211242F933F934F935F936F93B1
:102A20007F938F939F93AF93BF93EF93FF93E09127
:102A30001704F0911804309749F0A685B78585856D
:102A4000968D91FF14C09C918923A1F4FF91EF9181
:102A5000BF91AF919F918F917F916F915F914F91B6
:102A60003F912F910F900FBE0F901F9018959C9142
:102A7000892361F7A389B4899C91858980958923ED
:102A80008C93868997890197F1F7608D718DA68562
:102A9000B785558538E020E0CB010197F1F7822F0B
:102AA00090E095958795282F4C91452309F0206853
:102AB000315091F7868D81FD20958091160490E02C
:102AC00001968F73992730911504381799F0A091CA
:102AD0001604B0E0A757BC4F2C9380931604828D48
:102AE000938D0197F1F7A389B4898C919589892BEE
:102AF0008C93ACCF868D8160868FF1CFCF93DF939F
:102B00001092AB041092AA0488EE93E0A0E0B0E02B
:102B10008093AC049093AD04A093AE04B093AF0443
:102B20002AE531E03093A9042093A80425EC30E095
:102B30003093B5042093B40424EC30E03093B70410
:102B40002093B60420EC30E03093B9042093B8040D
:102B500021EC30E03093BB042093BA0422EC30E047
:102B60003093BD042093BC0426EC30E03093BF04C6
:102B70002093BE041092C1041092C2041092C304A8
:102B80001092C4041092480510924705809349059D
:102B900090934A05A0934B05B0934C052CE631E089
:102BA0003093460520934505109231061092300669
:102BB0008093320690933306A0933406B093350683
:102BC0008AE891E090932F0680932E061092450696
:102BD000109244061092470610924606109249063B
:102BE0001092480610924B0610924A0660914C06CD
:102BF0006E7F6D7F60934C066695617081E06827FB
:102C000082E00E94F50261E082E00E945503E1EB60
:102C1000F0E0E491E0933E06EDE9F0E0E491F0E0CD
:102C2000EE0FFF1FEF56FF4F859194919093400652
:102C300080933F0660E080E10E94550380914C063E
:102C400081FD04C061E080E10E94F50280E1809393
:102C50003A06EFEBF0E0E491E0933B06EBEAF0E0BC
:102C6000E491F0E0EE0FFF1FE957FF4F859194913B
:102C700090933D0680933C0686E290E09093520547
:102C80008093510584E090E09093140180931301A8
:102C90009093120180931101109224061092230642
:102CA0008EE791E0909322068093210610922A06E7
:102CB00087E28093250684E180932B0684E080934D
:102CC0002C0610922D0610920C06109213061092EC
:102CD0001A0610921B0610921C0610921D0681E027
:102CE00080931906809316061092170682E080934F
:102CF000180610920B0684E590E0909310068093DE
:102D00000F060E94162190931506809314060097D3
:102D100009F45DC024E5DC011D922A95E9F78CE1F8
:102D200090E090930E0680930D0684E090E09093DF
:102D300012068093110680910C06882341F061E011
:102D400084E00E94550360E084E00E94F502EFE910
:102D5000F0E0E491F0E0EE0FFF1FEF56FF4F85919A
:102D6000949190931F0680931E06E3EBF0E0E491AC
:102D7000E09320060E943606CBEED5E0E7E8F5E0CA
:102D80004FE555E0199211921192DA016D937D93FE
:102D90008D939D93AD019F01225B3F4FD9011D9201
:102DA0001C92B5E0EB39FB0769F710920A06109206
:102DB00009066FEF72E089E595E00E94D60C6AE99A
:102DC00071E083E595E0DF91CF910C94D60C1092E1
:102DD000100610920F0610920E0610920D06A5CF47
:102DE000CF93DF93CDB7DEB766970FB6F894DEBF0B
:102DF0000FBECDBF789484B5826084BD84B58160F8
:102E000084BD85B5826085BD85B5816085BD8091B5
:102E10006E00816080936E0010928100809181002D
:102E20008260809381008091810081608093810025
:102E3000809180008160809380008091B1008460E7
:102E40008093B1008091B00081608093B000809148
:102E50007A00846080937A0080917A008260809307
:102E60007A0080917A00816080937A0080917A0064
:102E7000806880937A001092C100E091B804F091CC
:102E8000B90482E08083E091B804F091B904108223
:102E9000E091B404F091B5041082E091B604F09191
:102EA000B70480E180831092C004E091BC04F091EB
:102EB000BD0486E08083E091BA04F091BB04808178
:102EC00080618083E091BA04F091BB0480818860C6
:102ED0008083E091BA04F091BB0480818068808394
:102EE000E091BA04F091BB0480818F7D80831092C1
:102EF0004906109248061092470610924606109214
:102F00004506109244068DE991E090934B0680931C
:102F10004A0690913A06963108F047C02DEB30E012
:102F200030934506209344062BE931E03093470661
:102F3000209346062CE231E0309349062093480660
:102F40002091680084E0983048F031E09E3008F429
:102F500030E081E001C0880F3A95EAF7822B809338
:102F600068002DE630E0983050F02BE630E09E30DF
:102F700030F02CE630E0963110F030E020E0309375
:102F8000420620934106292F30E0983008F0CBC24A
:102F900081E001C0880F9A95EAF7809343068091FB
:102FA0004A0690914B060197F1F78091480690915F
:102FB0004906892B49F1E0911704F091180426E0A5
:102FC000EE32F20709F1309739F0A389B4899C9168
:102FD0008589809589238C9380914C068E7F809380
:102FE0004C0610921604109215048EE296E090930F
:102FF000180480931704E0914106F0914206808105
:1030000090914306892B808310922B040E94230306
:103010006FEF80E00E9427076FEF81E00E94270793
:103020006FEF70E080915105909152050E945D070D
:10303000109222041092210461E08AE00E94F502BD
:1030400061E08AE00E94550361E089E00E94F50298
:1030500061E089E00E94550361E08BE00E94F50287
:1030600061E08BE00E94550361E08CE00E94F50274
:1030700061E08CE00E94550361E088E00E94F50267
:1030800061E088E00E94550361E087E00E94F5025C
:1030900061E087E00E94550361E086E00E94F5024E
:1030A00061E086E00E94550361E085E00E94F50240
:1030B00061E085E00E94550361E08BE00E94F5022B
:1030C00087E00E94E20887E00E94FF0885E00E94F6
:1030D000E20885E00E94FF0886E00E94E20886E0A0
:1030E0000E94FF0884E00E94E20884E00E94FF083A
:1030F00082E00E94E20882E00E94FF0880E00E94D5
:10310000E20880E00E94FF0883E00E94E20883E07A
:103110000E94FF0881E00E94E20860E084E10E94D2
:10312000550361E083E00E94550380910F0190E018
:103130000E9486038DE00E94E2088DE00E94FF0855
:103140008BE00E94E2088BE00E94FF088EE00E9464
:10315000E2088EE00E94FF0888E00E94E20888E012
:103160000E94FF0889E00E94E20889E00E94FF08AF
:103170008AE00E94E2088AE00E94FF08809111061E
:103180009091120697FD08C061E00E94550360E02F
:10319000809111060E94F50281E080930C06409117
:1031A0000F065091100670E060E080911406909137
:1031B00015060E9401230E9403040E94230310921B
:1031C000260680912C06823018F098E0909326060F
:1031D0008093290662E370E080E090E00E94C104E1
:1031E00060912D0681E296E00E94420768EE73E04E
:1031F00080E090E00E94C10460E381E296E00E94DA
:103200009E090BE416E4C8010197F1F760E381E23F
:1032100096E00E949E09C8010197F1F760E381E200
:1032200096E00E949E0983E592E00197F1F760E243
:1032300081E296E00E949E0960912606606240E06D
:1032400081E296E00E94B70984E08093270640E07F
:103250006CE081E296E00E94B7090E94020A82E0D7
:103260008093280640E066E081E296E00E94B7097C
:1032700040E062E081E296E00E94B7098BE39FE1C3
:103280000197F1F762E080E00E94CE0966E072E00B
:1032900081E296E00E94040B63E080E00E94CE0988
:1032A00060E173E081E296E00E94040B80910601E8
:1032B000982F990F63E0890F0E94CE09609127062D
:1032C000862F816080932706696040E081E296E066
:1032D0000E94B7098091090690910A060A9774F432
:1032E000E7E8F5E010E000E081919191892B09F485
:1032F0000FC60F5F1F4F0A301105B1F786E00E941D
:10330000CF0881111DC182E00E94CF08811118C130
:103310000E94C80D87E00E94CF08882309F413C1DA
:1033200061E089E00E94F50287E00E94CF088823CF
:1033300041F085E00E94CF08882319F081E0809356
:103340001B04BE016F5F7F4F7B0111E00E943606B8
:103350002B013C0187E895E0988B8F87BFE5CB2E4A
:10336000B5E0DB2EDE8ACD8AFC01312C212C9F01B9
:1033700022593F4FD9011D921C9280819181329632
:10338000892BB9F1AD89BE894D915D916D917C918B
:103390001397DC968D909D90AD90BC90DF97D301F4
:1033A000C201841B950BA60BB70B88159905AA05BE
:1033B000BB05F8F0480D591D6A1D7B1DAD89BE89FE
:1033C0004D935D936D937C931397C10185519A4FF3
:1033D000DC018C91882369F082AD93AD009709F0F0
:1033E000BAC0CF0184599F4F21E030E0DC012D931A
:1033F0003C937FEF271A370A8D899E8904969E8B0E
:103400008D8B9AE02916310409F0B1CFB12CA12C93
:103410004601A6E98A0E911CF401808191818130D8
:10342000910509F4BAC0029709F4BDC0BFEFAB1A09
:10343000BB0AE2E0CE0ED11CFAE0AF16B10441F7B0
:103440008DE00E94CF0881111BC000911D0401274F
:1034500000931D0464E670E088EB91E00E94F304A1
:1034600060910D01069F602D11244091090181E0BA
:103470000E943C086CE271E080E090E00E94C10490
:103480008EE00E94CF0881111BC000911C0401270F
:1034900000931C0464E670E088EB91E00E94F30462
:1034A00060910C01069F602D11244091080182E07B
:1034B0000E943C086CE271E080E090E00E94C10450
:1034C0008BE00E94CF0881111BC000911E040127D0
:1034D00000931E0464E670E088EB91E00E94F30420
:1034E00060910E01069F602D112440910A0180E039
:1034F0000E943C086CE271E080E090E00E94C10410
:1035000088E00E94CF088111A7C08091070188231D
:1035100009F47AC00E9455071092070168EC70E028
:1035200080E090E0A7C19E3040F42850310981E04E
:1035300001C0880F2A95EAF730CD2E503109F7CF18
:103540000E94350AE7CE85E00E94CF08882309F45F
:10355000E7CE60E0E6CE5F013EE4A30EB11CD501EC
:103560004D915C91481759070CF043CF9F012459A6
:103570003F4F61E070E0D9016D937C934F5F5F4FE7
:10358000D5014D935C93481759070CF432CF62E094
:1035900070E0D9016D937C932CCFD6019896ED9174
:1035A000FC91099543CFD6019896ED91FC91099530
:1035B0008091090690910A06009709F437CFF60129
:1035C00020A531A5232B09F431CF11A610A6F501B2
:1035D000E551FA4F1082D4011D921C92F501EE0FB5
:1035E000FF1FEE0FFF1FE15AFA4F14AE15AE16AED5
:1035F00017AEF601E858FF4F1182108201979093A1
:103600000A068093090612CFE0910601E53009F021
:103610006BC1E0910501EE30F8F4F0E0EE5EF44E9F
:103620000C94F520201B121C151C181C1C1C1E1CA5
:10363000221C241C3D1C451C4D1C551C5F1C6C1C75
:1036400062EC72E088EA94E00E94F00A67EC72E0B3
:103650008EE296E00E94870A8AE00E94CF088111DC
:1036600016C0809106018F5F863008F049C18093B3
:10367000060180910601982F990F63E0890F0E943F
:10368000CE0968EC70E080E090E00E94C10489E01F
:103690000E94CF0881112AC080910601E82FF0E036
:1036A000E050FF4F90819F5F9083953028F09DEF11
:1036B000980F923008F410829081983040F0853055
:1036C00031F490911B04911102C010920501908178
:1036D0009E3020F0853011F41092050190819A30CF
:1036E00018F0853008F410820E94060B0E941C0915
:1036F000082F882309F469C064E670E088EB91E044
:103700000E94F304B0900701BB2009F483C118861E
:103710001F821A8619861C861B8609831A82F70166
:1037200001900020E9F73197AF014E195F09B70109
:10373000CE0107960E949E0C0E9436062B013C018A
:1037400001E02FE04FE06FE080E00E948008809170
:10375000190481111AC08091090690910A060A97EE
:1037600094F4D12CC12CAF85B8898D919D91B88BE3
:10377000AF87892B09F407C4BFEFCB1ADB0AEAE055
:10378000CE16D10481F7109319040E9436066419ED
:10379000750986099709603177428105910508F41A
:1037A000B2C064E273E088EA94E00E94F00A6CE23E
:1037B00071E08CED90E00E94F304B12CCE010796ED
:1037C0000E942D0AB11010920701C7010E94FF0E3E
:1037D000B70183E595E00E94110CC7010E942D0AF4
:1037E0008AE991E00E946E0A811193C180911B04C5
:1037F00081111AC289E393E00E946E0A882309F4BA
:1038000054C181E00E946A1086E00E94CF088111B5
:1038100006C082E00E94CF08882309F45BC160E6FD
:1038200072E05AC10E94790E17CF0E94BF0E14CFCA
:1038300081E00E94821110CF80E0FBCF81E00E94E6
:103840006A100ACF80E0FBCF80911B0401E020E0EA
:10385000812780931B0460911001462F811101C0C4
:1038600040E081E00E9480080E94060B60E273E065
:1038700080E090E00E94C104EFCE80911B04882379
:1038800009F4EACE0E942E08E7CE80911B0488231B
:1038900009F4E2CE0E945E0ADFCE80911B048823E9
:1038A00009F4DACE0E942008D7CE80911B04882329
:1038B00009F4D2CE60E08BE00E94F502CDCE80917B
:1038C0001B04882321F060E08AE00E94F50268EE84
:1038D00073E080E090E0CECF80911B04882309F450
:1038E000BBCE61E08AE0E8CFF0E0E050FF4F80819E
:1038F000882309F4B1CE815080830E94060B0ECE3E
:1039000010920601B6CE0E941C09D82E882309F415
:103910003CCF64E670E088EB91E00E94F30401E0A4
:103920002FE04FE060E080E00E94800868EC70E0EB
:1039300080E090E00E94C1042FE04FE06FE080E063
:103940000E9480081A8219821C821B821E821D829C
:10395000BE01695F7F4FC7010E94BF0CDD861E86D6
:1039600041E050E0BE01635F7F4FC7010E94720CCF
:10397000811103C0C7010E941B0AB701CE0107963F
:103980000E94BF0CC7010E942D0A2B853C854CEF7D
:10399000420F2530310508F440E050E0BE01695F78
:1039A0007F4FC7010E94130DB701CE0107960E94F9
:1039B000110CC7010E942D0A4B855C856F817885AB
:1039C00088EA94E00E94960168E971E088EA94E050
:1039D0000E94870A2B853C8580915D0590915E054C
:1039E0002817390709F0D1CE8F8198856091590544
:1039F00070915A05009709F402C36115710539F4F5
:103A0000232B09F40AC3FC01808190E003C30E94C8
:103A1000082300C381E0053319F0063321F480E068
:103A20000E948211D2CE81E0083319F0093321F4CB
:103A300080E00E946A10C9CE0A3219F40E94790E01
:103A4000C4CE033219F40E94BF0EBFCE802F000FE8
:103A5000990BF1E0833B9F07B1F460911E0461274D
:103A600060931E0480910E01689F602D1124409187
:103A70000A0180E00E943C086CE271E080E090E086
:103A80000E94C104A2CE875D914009F09ECE609154
:103A90001D04612760931D0480910D01689F602DB6
:103AA00011244091090181E0E5CF8CE393E00E946D
:103AB0006E0A882309F498C080E00E946A1086E0AC
:103AC0000E94CF08811106C082E00E94CF0888239F
:103AD00009F4A5CE63EB71E088EA94E00E94F00A55
:103AE00087E593E00E946E0A60E08111DBC08AE501
:103AF00093E00E946E0A60E0811108C08DE593E0BA
:103B00000E946E0A882309F4C6C061E08AE00E9420
:103B1000F502C0901A04D12C81E00E94CF088C15C8
:103B20001D0421F10091100181E00E94CF08089F3F
:103B3000602D112401E020E040E082E00E94800836
:103B400081E00E94CF0891E0811101C090E0909344
:103B50001A0481E00E94CF086AE073E0811102C07C
:103B60006DE073E08EE296E00E94F00A80911B0403
:103B7000811115C085E00E94CF08882381F087E07D
:103B80000E94CF08882359F069E672E0C7010E94BD
:103B9000D60CC7010E94460FC7010E942D0A86E479
:103BA00080937C0080917A00806480937A00809179
:103BB0007A0086FDFCCF909178008091790089276A
:103BC000982789278C32914014F40E94790E80E066
:103BD00090E0892B09F4BACB0E940002882309F4F3
:103BE000B4CB0E940000ADCB8FE393E00E946E0A3D
:103BF000882329F081E00E94821187E00BCE82E4C5
:103C000093E00E946E0A882329F080E00E948211CE
:103C100085E000CE85E493E00E946E0A882309F4D3
:103C20005FCF10931B045CCF86E393E00E946E0A83
:103C3000882319F010921B0453CF88E493E00E946C
:103C40006E0A60E0811107C08BE493E00E946E0A67
:103C5000882329F061E08BE00E94F50241CF8EE4D9
:103C600093E00E946E0A882319F00E94200838CF42
:103C700081E593E00E946E0A882319F00E942E08C5
:103C80002FCF84E593E00E946E0A882309F428CFA1
:103C90000E945E0A25CF80E693E00E946E0A882388
:103CA00059F061E089E00E94F50263EB71E088EA77
:103CB00094E00E94F00A2DCF83E693E00E946E0A02
:103CC000882369F086E00E94CF08811105C082E058
:103CD0000E94CF08882349F360E672E0E8CF86E6C9
:103CE00093E00E946E0A882331F085E00E94CF089D
:103CF0008111DBCFF1CF89E693E00E946E0A882321
:103D000031F089E00E94CC02892B31F7CECF8CE6CE
:103D100093E00E946E0A882319F00E94BF0EDCCF48
:103D20008FE693E00E946E0A882319F00E94790EB4
:103D3000D3CF8DE592E00E946E0A882391F060E671
:103D400072E088EA94E00E94F00A62E672E0C7013D
:103D50000E94D60CC7010E94460FC7010E942D0A7F
:103D6000D8CE82E793E00E946E0A882349F08091C2
:103D70001B0464E073E081119ACF66E073E097CF93
:103D800085E793E00E946E0A882341F040910A0182
:103D900060910E0180E00E943C0887CF88E793E0A5
:103DA0000E946E0A882331F040E060E080E00E94CB
:103DB0003C0892CF8BE793E00E946E0A882331F093
:103DC0004091090160910D0181E0E5CF8EE793E01C
:103DD0000E946E0A882321F040E060E081E0E7CF96
:103DE00081E893E00E946E0A882329F067EC72E074
:103DF0008EE296E05ECF84E893E00E946E0A88230C
:103E000009F487CE85E00E94CF0861E070E0882346
:103E100011F070E060E088EA94E00E94E90A87E02F
:103E20000E94CF0861E070E0882311F070E060E04C
:103E300088EA94E00E94E90A84E00E94CF08811198
:103E400004C00E94CF0861E0811160E070E088EA60
:103E500094E00E94E90A86E00E94CF08811105C023
:103E600082E00E94CF0861E0811160E070E088EAA2
:103E700094E00E94E90A89E00E94CC0261E070E0CF
:103E8000892B11F070E060E088EA94E00E94E90A72
:103E900081E00E94CF0868E073E0811102C067E909
:103EA00072E088EA94E00E94040B80911B0464E0B5
:103EB00073E0811102C066E073E088EA94E00E943A
:103EC000F00A84E00E94CF08682F88EA94E00E94FC
:103ED000E20A80E00E94CF08682F88EA94E00E94FE
:103EE000E20A86E00E94CF08682F88EA94E00E94E8
:103EF000E20A82E00E94CF08682F88EA94E00E94DC
:103F0000E20A68E971E088EA94E00E94870A01CE3B
:103F1000F801EE0FFF1FEE0FFF1FE556FA4F88EE78
:103F200093E0A0E0B0E080839183A283B383F801A3
:103F3000EE0FFF1FE957FA4F84E991E091838083E8
:103F4000F801EE0FFF1FED53FA4F11821082F801B6
:103F5000E551FA4F81E080830E943606000F111F61
:103F6000000F111FF801E15AFA4F608371838283B9
:103F700093838091090690910A06019690930A0610
:103F800080930906BBC9F601EE0FFF1FEE0FFF1F5E
:103F9000E556FA4F60EE73E984E090E06083718348
:103FA00082839383F601EE0FFF1FE957FA4F8AE9E8
:103FB00098E091838083F601EE0FFF1FED53FA4FD7
:103FC000A1E0B0E0B183A083F601E551FA4F108380
:103FD0000E943606F601EE0FFF1FEE0FFF1FE15A9B
:103FE000FA4F608371838283938380910906909155
:103FF0000A06019690930A0680930906C4CB6115C0
:10400000710559F0232B49F0DB018C9190E09195DB
:1040100081959109892B09F0B8CB61E373E088EAB7
:1040200094E00E94F00A6CE271E088EB91E00E945B
:10403000F30401E020E040E06FE080E00E948008AF
:1040400064EF71E080E090E00E94C104B7CB83E5AB
:1040500095E00E942D0A89E595E00E942D0A809145
:104060001406909115060E94B2218091110690913C
:10407000120697FD03C060E00E9455038AE891E0B4
:1040800090932F0680932E06809117049091180428
:104090008E52964071F4E0914106F0914206908173
:1040A0008091430680958923808310921804109292
:1040B000170408952F923F924F925F926F927F92D2
:1040C0008F929F92AF92BF92CF92DF92EF92FF9228
:1040D0000F931F93CF93DF93CDB7DEB7CA1BDB0BD4
:1040E0000FB6F894DEBF0FBECDBF09942A88398879
:1040F00048885F846E847D848C849B84AA84B98480
:10410000C884DF80EE80FD800C811B81AA81B9818B
:10411000CE0FD11D0FB6F894DEBF0FBECDBFED019F
:104120000895A29FB001B39FC001A39F700D811D90
:104130001124911DB29F700D811D1124911D0895B0
:1041400097FB072E16F4009407D077FD09D00E9444
:10415000022107FC05D03EF4909581959F4F08956C
:10416000709561957F4F0895A1E21A2EAA1BBB1B83
:10417000FD010DC0AA1FBB1FEE1FFF1FA217B30733
:10418000E407F50720F0A21BB30BE40BF50B661F49
:10419000771F881F991F1A9469F76095709580950D
:1041A00090959B01AC01BD01CF010895052E97FBB1
:1041B0001EF400940E94ED2057FD07D00E94B42009
:1041C00007FC03D04EF40C94ED20509540953095AB
:1041D00021953F4F4F4F5F4F089590958095709573
:1041E00061957F4F8F4F9F4F0895EE0FFF1F0590F2
:1041F000F491E02D09940E949120B7FF0895821B4D
:10420000930B0895AA1BBB1B51E107C0AA1FBB1F3C
:10421000A617B70710F0A61BB70B881F991F5A9552
:10422000A9F780959095BC01CD0108950F931F9338
:10423000CF93DF938230910510F482E090E0E0911B
:104240004F06F091500630E020E0B0E0A0E030975B
:1042500099F42115310509F44AC0281B390B243083
:104260003105D8F58A819B816115710589F1FB01C2
:1042700093838283FE0111C04081518102811381A9
:1042800048175907E0F04817590799F4109761F05B
:1042900012960C93129713961C933296CF01DF91CE
:1042A000CF911F910F91089500934F0610935006E0
:1042B000F4CF2115310551F04217530738F0A90109
:1042C000DB019A01BD01DF01F801C1CFEF01F9CF98
:1042D0009093500680934F06CDCFFE01E20FF31F5F
:1042E000819391932250310939832883D7CF20912C
:1042F0004D0630914E06232B41F420911701309149
:10430000180130934E0620934D06209115013091EF
:1043100016012115310541F42DB73EB74091190121
:1043200050911A01241B350BE0914D06F0914E0679
:10433000E217F307A0F42E1B3F0B2817390778F07C
:10434000AC014E5F5F4F2417350748F04E0F5F1FDB
:1043500050934E0640934D06819391939FCFF0E08A
:10436000E0E09CCFCF93DF930097E9F0FC01329718
:1043700013821282A0914F06B0915006ED0130E0F9
:1043800020E01097A1F420813181820F931F2091AA
:104390004D0630914E062817390709F061C0F09399
:1043A0004E06E0934D06DF91CF910895EA01CE17B6
:1043B000DF07E8F54A815B819E0141155105B1F7A0
:1043C000E901FB83EA8349915991C40FD51FEC178A
:1043D000FD0761F4808191810296840F951FE901A8
:1043E00099838883828193819B838A83F0E0E0E0D4
:1043F00012968D919C9113970097B9F52D913C9150
:104400001197CD010296820F931F20914D06309196
:104410004E062817390739F6309751F51092500695
:1044200010924F06B0934E06A0934D06BCCFD38397
:10443000C28340815181840F951FC817D90761F449
:104440004E5F5F4F88819981480F591F5183408388
:104450008A819B81938382832115310509F0B0CF36
:10446000F0935006E0934F069ECFFD01DC01C0CFD4
:1044700013821282D7CFB0E0A0E0E1E4F2E20C9424
:104480005C208C01009751F4CB010E9416218C0115
:10449000C801CDB7DEB7E0E10C947820FC01E60F4F
:1044A000F71F9C0122503109E217F30708F49DC061
:1044B000D901CD91DC911197C617D70798F0C53077
:1044C000D10530F3CE0104978617970708F3C61B72
:1044D000D70B2297C193D1936D937C93CF010E9408
:1044E000B221D6CF5B01AC1ABD0A4C018C0E9D1EC9
:1044F000A0914F06B0915006512C412CF12CE12C8B
:10450000109731F580914D0690914E0688159905CA
:1045100009F05CC04616570608F058C08091150196
:1045200090911601009741F48DB79EB74091190103
:1045300050911A01841B950BE817F90708F055C034
:10454000F0934E06E0934D06F90171836083A0CF8E
:104550008D919C91119712966C90129713967C9066
:104560001397A815B90559F56C0142E0C40ED11C8A
:10457000CA14DB0420F1AC014A195B09DA01129676
:10458000159780F06282738251834083D9016D93C5
:104590007C93E114F10471F0D7011396FC93EE9330
:1045A000129776CF22968C0F9D1FF90191838083FD
:1045B000F301EFCFF0935006E0934F0669CF481612
:1045C000590608F42C017D01D3019ACFCB010E943A
:1045D00016217C01009749F0AE01B8010E94F82233
:1045E000C8010E94B221870153CF10E000E050CFF4
:1045F000FB01DC0102C001900D9241505040D8F700
:104600000895DC0101C06D9341505040E0F70895DA
:10461000FB01DC018D91019080190110D9F3990BF8
:104620000895FB01DC0101900D920020E1F708954F
:1046300010E0C3E6D0E004C0FE010E94F520219600
:0A464000C436D107C9F7F894FFCF84
:10464A000107090202000501000101FF1932C8141D
:10465A00020300040000005106800000004000141C
:10466A00005400050A0F142802050A14280A1932F0
:10467A0064C8313233410034353642003738394361
:10468A00002A302344001000200040008000FE0071
:10469A00FD00FB00F7000000000036029601C3018E
:1046AA008302F401D201E60100000000F806CB06FD
:1046BA001D08A106C406B106A20600000000150ADC
:1046CA0096011D08950100000000880796011D0843
:1046DA00A106E407FC0770070D0A004155544F2054
:1046EA00004D414E55200052004F55205031004692
:1046FA0045205031004F5520414200464520414255
:10470A00004F5520504F00464520504F004F55202E
:10471A005032004645205032004445504C41004D2D
:10472A004F544F4E00415458204D00415458204197
:10473A00002020202020202020202020202020208F
:10474A00202020202000544120494E204558204C4A
:10475A0043204C4420434D440032522033422035FA
:10476A0042203220203220205041524B20004F6BF1
:10477A00005031204F2E2E2E005031204F50454EE2
:10478A0000503120462E2E2E00503120436C6F737C
:10479A0065004152550041525520212000415500E3
:1047AA00300053C3A972696500506F736974696FE9
:1047BA006E00506F7274657300426F75746F6E008D
:1047CA0045727265757220706F736974696F6E00D5
:1047DA00503132204F70656E00504F230050322006
:1047EA00462E2E2E0050313220462E2E2E005046B6
:1047FA002300503132204F2E2E2E004572726575DD
:10480A0072205061726B00504123004465706C61E4
:10481A0063656D656E7420616272692E2E2E004189
:10482A00627269206665726DC3A90044462300441A
:10483A004F230041627269206F7576657274003188
:10484A00323334006D0061007000544E0054500041
:10485A00325220334220354220322020322020504A
:10486A0041524B004D61757661697320636F6465CF
:10487A0000436F6465204F4B00502B00502D0044BD
:10488A002B00442D004D41006D2B006D2D006464FA
:10489A0000322B00322D00412B00582B00582D00DE
:1048AA00412D00503F00443F00413F00702D0070F1
:1048BA002B004D3F00452B00452D00492B00492D6B
:0848CA0000504100433F0000D3
:00000001FF
