:100000000C9464000C948C000C948C000C947D1463
:100010000C947D140C947D140C948C000C943A1266
:100020000C948C000C948C000C948C000C948C0020
:100030000C948C000C948C000C948C000C948C0010
:100040000C9414130C948C000C94E2120C94BC12BB
:100050000C948C000C948C000C948C000C948C00F0
:100060000C945E130C948C00000000002400270008
:100070002A0002000000080002010000030407003B
:1000800000000000000000000000002300260029FE
:100090000000000000250028002B000404040404D4
:1000A0000404040202020202020303030303030125
:1000B00002040810204080010204081020010204FC
:1000C00008102000F514CA1E11241FBECFEFD8E07F
:1000D000DEBFCDBF26E0ACE5B3E001C01D92A43287
:1000E000B207E1F713E0A0E0B1E0E0E9F3E402C019
:1000F00005900D92AC35B107D9F710E0C3E6D0E01A
:1001000004C02197FE010E94981FC236D107C9F78B
:100110000E9467160C94BB210C9400008F929F9252
:10012000AF92BF92CF92DF92EF92FF920F931F9305
:10013000FC014B01AA24BB24C52ED62EE72EFF249A
:10014000BC2DA42F9091E605B82C992391F0A92FEE
:10015000B0E0A89D9001A99D300DB89D300D1124EF
:10016000B32E9C9D60011124BD2D949F800111240C
:10017000A12F4091EC052091E7053091E805809191
:10018000E905481324C0CF01880F991F8E0F9F1FC8
:10019000820F931FE091E905E80FF92FF11DB0825E
:1001A000E091EA05E80FF92FF11DB0832091EB05EE
:1001B000820F911DFC01A0831F910F91FF90EF9082
:1001C000DF90CF90BF90AF909F908F900895CF0118
:1001D000880F991F880F991F820F931FFC01E40F4E
:1001E000F11D1082D7CF2091690481E0213208F0FF
:1001F00044C0809145048111FCCF8091680492E055
:100200009093450491E0909344049FEF90934304AE
:100210001092420420934104A8E4B4E0E1E2F4E047
:1002200090E0291331C01092200490912004880F8F
:10023000892B8093200480911F04813049F510920E
:100240001F04809120048093BB008091BC0083FD3B
:10025000F8CF85EC8093BC00809145048230E1F3B7
:10026000809143048F3FB1F0809143048032A1F02C
:1002700080914304803391F084E0109247041092FF
:1002800069041092460408953D9131939F5FC9CF50
:1002900085EEE0CF80E0F1CF82E0EFCF83E0EDCFDD
:1002A000909145049111FCCF91E090934504909377
:1002B00044042FEF2093430410924204260F20930E
:1002C00041049093200490912004880F892B8093FF
:1002D000200480911F048130F9F410921F04809152
:1002E00020048093BB008091BC0083FDF8CF85EC97
:1002F0008093BC00809145048130E1F380914204F9
:10030000861710F460914204A1E2B4E0EFEFF3E04D
:1003100080E0861303C0089585EEEACF9D91919306
:100320008F5FF7CF0895089508950895AF92BF9213
:10033000CF92DF92EF92FF920F931F93CF93DF93B1
:100340006C017B018B01040F151FEB015E01AE18E0
:10035000BF08C017D10759F06991D601ED91FC9102
:100360000190F081E02DC6010995892B79F7C5012F
:10037000DF91CF911F910F91FF90EF90DF90CF9081
:10038000BF90AF900895FC01538D448D252F30E030
:10039000842F90E0821B930B541710F0CF96089592
:1003A00001970895FC01918D828D981761F0A28DBF
:1003B000AE0FBF2FB11D5D968C91928D9F5F9F7385
:1003C000928F90E008958FEF9FEF0895FC01918D3B
:1003D000828D981731F0828DE80FF11D858D90E0A8
:1003E00008958FEF9FEF0895FC01918D228D892F45
:1003F00090E0805C9F4F821B91098F73992708952D
:100400008BE794E00E94F40121E0892B09F420E0BD
:10041000822F089580E090E0892B29F00E9400024D
:1004200081110C9400000895FC01A48DA80FB92F30
:10043000B11DA35ABF4F2C91848D90E001968F730C
:100440009927848FA689B7892C93A089B1898C912B
:10045000837080648C93938D848D981306C002887A
:10046000F389E02D80818F7D80830895EF92FF9244
:100470000F931F93CF93DF93EC0181E0888F9B8DC7
:100480008C8D98131AC0E889F989808185FF15C081
:100490009FB7F894EE89FF896083E889F9898081A4
:1004A0008370806480839FBF81E090E0DF91CF9173
:1004B0001F910F91FF90EF900895F62E0B8D10E095
:1004C0000F5F1F4F0F731127E02E8C8D8E110CC004
:1004D0000FB607FCFACFE889F989808185FFF5CF4F
:1004E000CE010E941402F1CFEB8DEC0FFD2FF11D18
:1004F000E35AFF4FF0829FB7F8940B8FEA89FB898C
:1005000080818062CFCFCF93DF93EC01888D8823E9
:10051000B9F0AA89BB89E889F9898C9185FD03C066
:10052000808186FD0DC00FB607FCF7CF8C9185FF4B
:10053000F2CF808185FFEDCFCE010E941402E9CF7A
:10054000DF91CF910895833081F028F4813099F0C4
:100550008230A9F008958730A9F08830C9F084303E
:10056000B1F4809180008F7D03C0809180008F77EF
:1005700080938000089584B58F7784BD089584B5F5
:100580008F7DFBCF8091B0008F778093B00008956E
:100590008091B0008F7DF9CFCF93DF93282F30E08B
:1005A000F901ED58FF4F8491F901E155FF4FD491C6
:1005B000F901E556FF4FC491CC23A1F081110E94AF
:1005C000A302EC2FF0E0EE0FFF1FE957FF4FA591BC
:1005D000B491EC91ED2381E090E009F480E0DF91AB
:1005E000CF91089580E090E0FACF1F93CF93DF93EF
:1005F000282F30E0F901ED58FF4F8491F901E155C2
:10060000FF4FD491F901E556FF4FC491CC23A9F0D7
:10061000162F81110E94A302EC2FF0E0EE0FFF1FB6
:10062000EF56FF4FA591B4918FB7F894EC9111114B
:1006300008C0D095DE23DC938FBFDF91CF911F914F
:100640000895DE2BF8CF1092FD031092FC03109258
:100650004704109269041092450481E08093440499
:1006600010921F0461E082E10E94F50261E083E1E3
:100670000E94F502E9EBF0E080818E7F808380812B
:100680008D7F808388E48093B80085E48093BC00EC
:1006900082E991E09093FB038093FA0383E991E070
:1006A0009093F9038093F8030895CF93DF9390E03C
:1006B000FC01E155FF4F249185569F4FFC01849129
:1006C0008823D1F090E0880F991FFC01E859FF4F73
:1006D000A591B491FC01EF56FF4FC591D4916111E2
:1006E0000EC09FB7F8948C91E22FE0958E238C93E7
:1006F0002881E223E8839FBFDF91CF9108958FB7D0
:10070000F894EC91E22BEC938FBFF6CFCF93DF936D
:10071000EC0161E083E00E945503209731F460E032
:1007200083E0DF91CF910C94F502CF3FD10511F416
:1007300061E0F6CFE6E7F0E0E491E33029F140F440
:10074000E130B1F0E230D9F0C038D1058CF7E7CF15
:10075000E73021F1E83051F1E430B1F780918000C9
:10076000806280938000D0938B00C0938A0004C085
:1007700084B5806884BDC7BDDF91CF91089584B5ED
:10078000806284BDC8BDF8CF80918000806880936E
:100790008000D0938900C0938800EECF8091B00094
:1007A00080688093B000C093B300E6CF8091B00022
:1007B00080628093B000C093B400DECF3FB7F8945E
:1007C0008091E8039091E903A091EA03B091EB03D3
:1007D00026B5A89B05C02F3F19F00196A11DB11D9C
:1007E0003FBFBA2FA92F982F8827BC01CD01620FD8
:1007F000711D811D911D42E0660F771F881F991F93
:100800004A95D1F708950F931F93CF93DF93CDB7F8
:10081000DEB729970FB6F894DEBF0FBECDBF80912B
:10082000E7059091E805892B09F467C00E94DE0373
:100830000091ED051091EE052091EF053091F00546
:10084000601B710B820B930B6C327140810591051B
:1008500068F3F8948091E2059091E3059A83898387
:10086000E091E705F091E805DF0111968081898725
:100870009091DE05E091F105F091F2058091F3058C
:10088000992309F445C09081982B98879081809591
:1008900089238F838F818C8388E08B8358856F8138
:1008A00049853B812C8189819A81508347FD252F81
:1008B0003A952083262F39F0441F00C00000608342
:1008C000000000C0F2CF38E04D9160830000019736
:1008D00061F7F093F205E093F10549873B832C83A0
:1008E0009A83898378940E94DE036093ED05709368
:1008F000EE058093EF059093F00529960FB6F894D6
:10090000DEBF0FBECDBFDF91CF911F910F91089534
:100910009081982B98879081809589238F838F81F0
:100920008E8388E08D8358856F8149853D812E8136
:1009300089819A81508347FD252F00C000C0208304
:1009400000C000C000C000C000C060830000262FAF
:100950003A9541F0441F000000C000C000C000C034
:1009600000C0E8CF38E04D9100C0608300C001971F
:1009700009F7F093F205E093F10549873D832E8353
:10098000AFCF8F929F92AF92BF92CF92DF92EF92B2
:10099000FF924B015C010E94DE036B017C010E940F
:1009A000DE036C197D098E099F09683E734081053D
:1009B0009105A8F321E0821A9108A108B10888EEF8
:1009C000C80E83E0D81EE11CF11C81149104A1041F
:1009D000B10429F7FF90EF90DF90CF90BF90AF90D8
:1009E0009F908F9008954F925F926F927F928F9217
:1009F0009F92AF92BF92EF92FF920F931F93CF936C
:100A00008C017B0180910B018131D9F08F3F09F47A
:100A10003FC068EC70E080E090E00E94C1048091EB
:100A20000F0190E0CF911F910F91FF90EF90BF9039
:100A3000AF909F908F907F906F905F904F900C94AD
:100A40008603E2E7F0E0C491C7FDE3CF61E081E116
:100A50000E945503C11132C02801012E000C660806
:100A6000770862E17AE780E090E0A30192010E94BA
:100A7000791F49015A0181E0881A9108A108B1083B
:100A800096E0C1113BC085B5887F846085BDABC051
:100A900081E180930B01E2E7F0E0C491CF3F09F4DC
:100AA000B8CFC13009F44AC080F1C23009F464C043
:100AB000C7FDAFCF61E081E10E9455039801012E8F
:100AC000000C440B550BC23009F078C029013A01E3
:100AD00064E274EF80E090E00E94791F49015A01BE
:100AE00081E0881A9108A108B10895E08FEF881677
:100AF0009104A104B10411F00CF0B3CF8091B100C6
:100B0000887F892B8093B1006EC014BC15BC84B55E
:100B1000826084BD85B5816085BDECEAF0E0E4913A
:100B2000F0E0EE0FFF1FEF56FF4F85919491E0EC40
:100B3000F0E0E491E0936E04C0E088CF1092800072
:100B40001092810080918100886080938100809163
:100B50008100816080938100ECEAF0E0E491F0E0B4
:100B6000EE0FFF1FEF56FF4F85919491E0ECF0E000
:100B7000E491E0936D046ACF1092B0001092B1003E
:100B80008091B00082608093B0008091B10081605C
:100B90008093B100ECEAF0E0E491F0E0EE0FFF1F8B
:100BA000EF56FF4F8591949190936C0480936B0462
:100BB000E0ECF0E0E491E0936A0448CF60E072E199
:100BC0008AE790E00E94791F49015A0181E0881A62
:100BD0009108A108B108C13031F480918100887F6B
:100BE0008160809381009801220F331FD7010E94FA
:100BF0009E1F28EE33E040E050E00E94571FC130B6
:100C000099F0C23019F1C11104CF87BC2093770449
:100C1000309378044093790450937A0480916E0065
:100C2000826080936E00F5CE909289008092880059
:100C300020937304309374044093750450937604A6
:100C400080916F00826080936F00E3CE8092B3004A
:100C500020936F0430937004409371045093720496
:100C600080917000826080937000D3CE2FB7F8948B
:100C70006091E4037091E5038091E6039091E703AE
:100C80002FBF08950F931F930E943606609383042D
:100C90007093840480938504909386048BE794E09A
:100CA0000E94D20197FF1DC00E9436060091830466
:100CB000109184042091850430918604601B710B8F
:100CC000820B930B00917F0410918004209181048A
:100CD000309182046017710782079307F8F28FEF53
:100CE0009FEF1F910F91089585ED8093BC00809137
:100CF000BC0084FDFCCF1092450408952091C003F0
:100D0000260F3327331F21323105ECF4209145049F
:100D1000FC0190E080E0243069F082E00895A09129
:100D2000C0032191AC0140565C4FA40FB52FB11DFB
:100D30002C930196861798F38091C003680F6093F7
:100D4000C00380E0089581E008950895E091FD03D7
:100D50008091FC03E81730F4F0E0E150FC4F808113
:100D600090E008958FEF9FEF08959091FD0380919B
:100D7000FC032FEF3FEF981748F4E92FF0E0E15024
:100D8000FC4F208130E09F5F9093FD03C9010895DF
:100D90008091FC039091FD03891B990B0895CF92DC
:100DA000DF92EF92FF920F931F93CF93DF937C011B
:100DB000CB018A0120914604222389F0EB016B01CB
:100DC000C40ED51ECC15DD0569F06991D701ED91F2
:100DD000FC910190F081E02DC7010995F3CF642FBC
:100DE0000E947E06C801DF91CF911F910F91FF9065
:100DF000EF90DF90CF900895CF93DF931F92CDB700
:100E0000DEB76983209146042223F9F0209169041A
:100E1000203258F021E030E0FC013383228390E05F
:100E200080E00F90DF91CF91089580914704E82FE3
:100E3000F0E0E85BFB4F998190838F5F80934704DC
:100E40008093690481E090E0ECCF61E0CE010196EF
:100E50000E947E06F7CFCF93C62F9091FE0390623B
:100E600021E0209346049093680410924704109266
:100E70006904682F88E195E00E94FC066C2F88E1E8
:100E800095E00E94FC06CF910C94F300FC012481B4
:100E900031E0309346042093680410924704109286
:100EA00069048485682B88E195E00E94FC060C9417
:100EB000F3006093F6037093F70391E09093460478
:100EC00080936804109247041092690488E195E0C9
:100ED0000E94FC060C94F30020919E0330919F0326
:100EE0002817390771F490919D0380919C039817FE
:100EF00041F0E0919D03F0E0E45AFC4F808190E0E6
:100F000008958FEF9FEF0895EF92FF920F931F9335
:100F1000CF93DF93DC015C96ED90FC905D97E1143C
:100F2000F10479F481E090E013969C938E931297EC
:100F300090E080E0DF91CF911F910F91FF90EF90B3
:100F400008955196ED91FC91529750968C9150973F
:100F5000982F90950FB75E962C915E97122F127076
:100F600021FD6095F8942081112319F1282B20830D
:100F7000E7012197F1F728E0462F50E0308160FF2C
:100F80001AC0382B3083E7012197F1F7BA01759524
:100F90006795215089F7112381F08081892380830F
:100FA0000FBF5C968D919C910197F1F781E090E0E5
:100FB000C1CF2923DCCF3923E5CF9081892BEFCF17
:100FC00020919E0330919F032817390771F4809177
:100FD0009C0320919D0390E0805C9F4F821B9109B0
:100FE00060E470E00E94431F089590E080E008955F
:100FF00020919E0330919F0328173907B9F49091EF
:101000009D0380919C03981789F0E0919D03F0E087
:10101000E45AFC4F808120919D0330E02F5F3F4FC9
:101020002F73332720939D0390E008958FEF9FEF58
:10103000089590E080E0089560E08CE00E94F50261
:1010400068E572E080E090E00E94C10461E08CE01D
:101050000C94F50260E085E00E94F50260E47CE912
:1010600080E090E00E94C10461E085E00C94F5020C
:101070008F929F92AF92BF92FF920F931F93CF9345
:10108000DF93982F990F990F990F24E0F22EF90E04
:1010900098E0899FE00111242B96469F002D112492
:1010A00010E030E020E048015901A62A322F212F1C
:1010B000102F0027802A912AA22AB32A8F2D90E090
:1010C000C817D9077CF02091E0053091E10582171F
:1010D000930720F4B501A4010E948E000E9403042E
:1010E000F394ECCFDF91CF911F910F91FF90BF90C0
:1010F000AF909F908F9008950F93362FE42F90E03C
:101100004091E0055091E1058417950740F4422F86
:1011100050E070E060E05E2B632B0E948E000023A5
:1011200019F00F910C9403040F9108950F9380917F
:10113000EC03882361F001E020E040E060E080E023
:101140000E947C0881E0809307011092EC030F91CC
:1011500008959091FE03906221E0209346049093BD
:1011600068041092470410926904682F88E195E0A2
:101170000E94FC060E94F3008091FE0361E0806201
:101180000E9450011092FD038093FC0388E195E0DA
:101190000E94B5060895CF93C82FC770883060F0BD
:1011A00083E10E94A90890E002C095958795CA95B1
:1011B000E2F78170CF91089582E1F3CFCF93DF936F
:1011C000C82FD1E0883008F4D0E08D2F0E94A90804
:1011D000C77041E050E060E070E004C0440F551F6C
:1011E000661F771FCA95D2F7682F642B8D2FDF916A
:1011F000CF910C942B07CF93DF93C82FDDE088307D
:1012000008F4DCE08D2F0E94A908C77041E050E08F
:1012100060E070E004C0440F551F661F771FCA9539
:10122000D2F7682F642B8D2FDF91CF910C942B0771
:10123000CF92DF92EF92FF920F931F93CF93DF93A2
:10124000C091F403D091F503F0902405E0902505BA
:10125000FE01EE0FFF1FE25BFE4F608171818F2D5B
:101260009E2D0E94590796E4C92E91E0D92E10E0D8
:1012700000E080911101909112010817190784F57F
:1012800061E08F2D0E9450011092FD038093FC03BA
:1012900088E195E00E94B506F601419151916F01F8
:1012A0002091F6033091F70382279327841795073F
:1012B000A1F485E08C9FF0018D9FF00D1124EE5C70
:1012C000FE4FE00FF11F8081082E000C990B9093C8
:1012D000F3038093F20380E00DC00F5F1F4FC9CF6F
:1012E0008091F2039091F303009769F01092F30359
:1012F0001092F203DF91CF911F910F91FF90EF9029
:10130000DF90CF9008956FEF70E08F2D9E2D0E949B
:1013100059072196D093F503C093F40380911301EC
:1013200090911401C817D907B1F61092F5031092E5
:10133000F403D1CF0F931F93CF938C01C62F0E943C
:1013400046076C2F6460C8010E9446076C2F6B7FB4
:10135000C8010E94460783EC90E00197F1F7CF9116
:101360001F910F9108950F931F93CF93DF938C01DB
:10137000D62FC42F607F642B0E949A0980E1D89FEA
:10138000B00111246C2BC801DF91CF911F910F91F7
:101390000C949A09CF93DF93CDB7DEB728970FB699
:1013A000F894DEBF0FBECDBF98E0EBE1F1E0DE01C7
:1013B000119601900D929A95E1F79091FC05961780
:1013C00010F46FEF690F262F30E0220F331F41E03A
:1013D00050E04C0F5D1F240F351FF9016081680F2D
:1013E000606840E084EF95E028960FB6F894DEBF81
:1013F0000FBECDBFDF91CF910C94B30940E061E007
:1014000084EF95E00E94B3098BE39FE10197F1F728
:101410008091FD05882321F060E080E00C94CA09EA
:10142000089541E00E94B30981E090E00895CF93D0
:10143000DF93EC0188819981009711F00E9455207B
:10144000198218821D821C821B821A82DF91CF9121
:101450000895FC0180819181009711F00C94552032
:1014600008951092000660E084EF95E00E94460720
:10147000EEEDF5E04481558170E060E08185928574
:101480000E94A4210E94030461E08BE00E94F50207
:1014900061E089E00E94F50261E08AE00E94F502C5
:1014A00068EE73E080E090E00E94C10481E08093E8
:1014B000ED03809307011092EC03089560E086E04D
:1014C0000E94F50260E47CE980E090E00E94C104A3
:1014D00061E086E00E94F5020C94310A20912A0511
:1014E00030912B05232B39F421E0FC0180818823E6
:1014F00061F020E00AC0BC0180912605909127058B
:101500000E94AB2121E0892BA1F7822F0895FB01D6
:1015100001900020E9F73197AF01461B570BDC0122
:10152000ED91FC910280F381E02D09948F929F92BE
:10153000AF92BF92EF92FF920F931F93CF93DF93DF
:10154000CDB7DEB7A1970FB6F894DEBF0FBECDBF03
:101550007C01FA01CB0119A2223008F42AE08E01A5
:101560000F5D1F4F822E912CB12CA12CBF01A50124
:1015700094010E94571FF901CA016A300CF5605DA1
:10158000D8016E938D01232B242B252B79F790E026
:1015900080E0109721F0BD01C7010E94870AA19643
:1015A0000FB6F894DEBF0FBECDBFDF91CF911F9174
:1015B0000F91FF90EF90BF90AF909F908F90089504
:1015C000695CDECF462F50E070E060E02AE00C94CA
:1015D000960AAB01770F660B770B2AE00C94960AFC
:1015E0000F931F93CF93DF93EC010E94870A8C0126
:1015F00068E971E0CE010E94870A800F911FDF9198
:10160000CF911F910F9108950C94870A0F93CF9358
:10161000C09106018C2F880F63E08C0F0E94CA09CD
:10162000C33008F06FC0EC2FF0E0E050FF4F808136
:10163000682F70E08530E8F16450710984EF95E01F
:101640000E94E90A6FEB71E084EF95E00E94040BC1
:1016500020910601822F90E0FC01E85FFE4F31E00F
:101660003083FC01E050FF4FE081F0E0E85DFE4F89
:101670006081FC01E45FFE4F608381519C4FFC015F
:101680008081689F602D112441E082E0821B0E94CE
:10169000380880910601982F990F63E0890F0E9406
:1016A000CA0968EC70E080E090E0CF910F910C9453
:1016B000C1046F5F7F4F84EF95E00E94E90A67EAFB
:1016C00071E084EF95E00E94040B20910601822FC7
:1016D00090E0FC01E85FFE4F1082FC01E050FF4FFC
:1016E000E081F0E0E35DFE4F6081FC01E45FFE4FCE
:1016F000608381519C4FFC018081689F602D112483
:1017000040E0C3CFC43001F56091040184EF95E05F
:101710000E94E20AE0910601F0E0E050FF4FE08114
:10172000F0E0E85DFE4FC081C093100101E020E0D1
:1017300040E06C2F81E00E947C0820E040E06C2FAC
:1017400082E00E947C08A5CFC330B1F46091030110
:1017500084EF95E00E94E20AE0910601F0E0E0509B
:10176000FF4FE081F0E0ED5DFE4F808180930F013F
:1017700090E00E9486038DCFEC2FF0E0E050FF4F09
:10178000E081EE3008F085CFF0E0E753F44F0C94A1
:10179000981FD70BDE0BE10BE40BE70BEA0BED0B0D
:1017A000F60BF90BFC0BFF0B020C050CF30B69EAB3
:1017B00071E084EF95E00E94040B6BCF6FEA71E05B
:1017C000F8CF65EB71E0F5CF6BEB71E0F2CF61EC38
:1017D00071E0EFCF67EC71E0ECCF8091EE0361EA4E
:1017E00071E0882331F36BE971E0E3CF6DEC71E0D8
:1017F000E0CF63ED71E0DDCF69ED71E0DACF6FED41
:1018000071E0D7CF65EE71E0D4CF6BEE71E0D1CF50
:101810000F931F93CF93DF938C01EB01FC01808129
:1018200091810097E1F06881798161157105A9F0D6
:10183000428153812C813D814217530770F00E94F1
:10184000B4218C819D81F801958384831D821C8243
:10185000DF91CF911F910F9108950E9455208881AB
:101860009981F801918380838A819B81938382830C
:101870008C819D8195838483198218821B821A82B0
:10188000E5CF0F931F93CF93DF93EC01888199816C
:10189000009759F02A813B812617370730F081E005
:1018A000DF91CF911F910F9108958B016F5F7F4F53
:1018B0000E94DE20009759F0998388831B830A8356
:1018C0002C813D81232B59F7FC011082E8CF80E069
:1018D000E7CFEF92FF920F931F93CF93DF936115A2
:1018E000710541F480E0DF91CF911F910F91FF903E
:1018F000EF90089541155105B1F07B01EC010C8189
:101900001D81040F151FB8010E94410C882351F35B
:10191000288139818C819D81B701820F931F0E949C
:10192000B4211D830C8381E0DECFEF92FF920F93F1
:101930001F93CF93DF93EC017B018A01BA010E94D0
:10194000410C81110BC0CE010E94170ACE01DF911C
:10195000CF911F910F91FF90EF9008951D830C83FD
:10196000B701888199810E94B421F0CFCF93DF9392
:10197000EC01FB018617970749F0608171816115C1
:10198000710541F0448155810E94950CCE01DF9193
:10199000CF9108950E94170AF9CFFC01118210829D
:1019A0001382128215821482FB0101900020E9F754
:1019B0003197AF01461B570B0C94950CAF92BF9219
:1019C000CF92DF92EF92FF920F931F93CF93DF930B
:1019D0007C016B015A0189012417350720F48B2DF6
:1019E0005901042F182F6AE971E0C7010E94CD0C3C
:1019F000D6011496CD91DC91AC16BD0620F50C17DE
:101A00001D0708F4E801D601ED91FC911197EC0F48
:101A1000FD1F108110826D917C916A0D7B1D6115F7
:101A20007105E9F0FB0101900020E9F73197AF0162
:101A3000461B570BC7010E94950CF60180819181CE
:101A4000C80FD91F1883C701DF91CF911F910F9144
:101A5000FF90EF90DF90CF90BF90AF900895C701B7
:101A60000E94170AEACFEF92FF920F93CF93DF9372
:101A700000D000D000D0CDB7DEB77C01809110013E
:101A800001E0623009F449C0633009F44AC0282FEC
:101A900040E0613009F043C020E040E0682F81E081
:101AA0000E947C0844E150E061EF71E0C7010E94B0
:101AB000690C2FE030E050E040E0B701CE01019624
:101AC0000E94DE0CBE016F5F7F4FC7010E94080CB1
:101AD000CE0101960E94290A61E080E00E94CA09B5
:101AE000F701448155816081718184EF95E00E9406
:101AF000960180910601982F990F63E0890F0E944B
:101B0000CA0926960FB6F894DEBF0FBECDBFDF918F
:101B1000CF910F91FF90EF900895282F482F60E00C
:101B2000BECF20E0FBCFEF92FF920F931F93CF9396
:101B3000DF9300D000D000D0CDB7DEB760E08AE000
:101B40000E94F50260ED77E080E090E00E94C10421
:101B50008CE0E82E81E0F82EF701148100E020E00F
:101B600040E0612F81E00E947C0820E040E0612F8E
:101B700082E00E947C0801E02FE04FE06FE080E00F
:101B80000E947C08F701838190E00E9486030E94F6
:101B9000FE0904EF15E088E0F801848760E0C801E1
:101BA0000E94460762E080E00E94CA0966E072E097
:101BB000C8010E94040B63E080E00E94CA0969E149
:101BC00072E0C8010E94040B80910601982F990FC2
:101BD00063E0890F0E94CA09F8016681862F81603F
:101BE0008683696040E0C8010E94B3096DE272E03B
:101BF000CE0101960E94CD0C61E0CE0101960E94BB
:101C0000330DCE0101960E94290A60E08BE00E940C
:101C1000F5021092ED03109207011092EC03269644
:101C20000FB6F894DEBF0FBECDBFDF91CF911F91ED
:101C30000F91FF90EF900895CF93DF9300D000D0E5
:101C400000D0CDB7DEB760E08AE00E94F50260ED1B
:101C500077E080E090E00E94C10460E372E0CE0192
:101C600001960E94CD0C60E0CE0101960E94330DDA
:101C7000CE0101960E94290A60E087E00E94F502E9
:101C800060E47CE980E090E00E94C10468E372E0D7
:101C9000CE0101960E94CD0C61E0CE0101960E941A
:101CA000330DCE0101960E94290A61E087E00E946F
:101CB000F50226960FB6F894DEBF0FBECDBFDF91BA
:101CC000CF910895CF93DF9300D000D000D0CDB74F
:101CD000DEB760E472E0CE0101960E94CD0C60E0B8
:101CE000CE0101960E94330DCE0101960E94290A71
:101CF00060E088E00E94F50260E47CE980E090E02A
:101D00000E94C10468E472E0CE0101960E94CD0CED
:101D100061E0CE0101960E94330DCE0101960E9432
:101D2000290A61E088E00E94F50261E08AE00E94F1
:101D3000F50226960FB6F894DEBF0FBECDBFDF9139
:101D4000CF9108950F931F93CF93DF93CDB7DEB755
:101D500028970FB6F894DEBF0FBECDBF8C018BE77E
:101D600094E00E94F4016AE971E0892BD1F1CE017F
:101D700001960E94CD0C0E94420697FD0FC083324F
:101D8000910561F08F83188641E050E0BE01695FE4
:101D90007F4FCE0101960E94690CEDCFBE016F5FAF
:101DA0007F4F86E295E00E94080CCE0101960E94CA
:101DB000290AF8011182108213821282158214827C
:101DC00066E275E0C8010E94B60CC80128960FB6FD
:101DD000F894DEBF0FBECDBFDF91CF911F910F9161
:101DE0000895C8010E94CD0CF0CF0F931F93CF939D
:101DF000DF93CDB7DEB72C970FB6F894DEBF0FBEDA
:101E0000CDBF8C0161E572E08BE794E00E94F00A9F
:101E100061E089E00E94F50261E08BE00E94F5023A
:101E200061E08CE00E94F50261E088E00E94F5022A
:101E300061E087E00E94F50261E086E00E94F50221
:101E400061E085E00E94F50261E08BE00E94F5020E
:101E500081E08093EE0365E572E0CE0101960E9479
:101E6000CD0CF8014481558160817181CE010196CC
:101E70000E94690C811104C0CE0101960E94170ACC
:101E800018861F821A8619861C861B86BE016F5F04
:101E90007F4FCE0107960E94B60C63E0CE010796F5
:101EA0000E94330DCE0107960E94290ACE010196A9
:101EB0000E94290A01E020E042E360E081E00E9404
:101EC0007C0883E00E94CB08811107C064E670E0C3
:101ED00080E090E00E94C104F4CF2C960FB6F894F5
:101EE000DEBF0FBECDBFDF91CF911F910F9108953F
:101EF0008F929F92AF92BF92CF92DF92EF92FF921A
:101F00000F931F93CF93DF9300D000D000D0CDB7B5
:101F1000DEB74B015C01142F022F0E9436066B01C5
:101F20007C010E9436066C197D098E099F0968158F
:101F300079058A059B0508F06AC0CE0101960E94CA
:101F4000A20EBE016F5F7F4F86E295E00E94080CF3
:101F5000CE0101960E94290A8CE592E00E946E0A49
:101F6000882341F16FE572E08BE794E00E94F00A6C
:101F700061E672E0CE0101960E94CD0CCE01019681
:101F80000E94F50ECE0101960E94290A80E0269655
:101F90000FB6F894DEBF0FBECDBFDF91CF911F917A
:101FA0000F91FF90EF90DF90CF90BF90AF909F90F8
:101FB0008F900895112369F085E00E94CB08882353
:101FC00041F087E00E94CB08882319F068E672E0B0
:101FD000D1CF002369F086E00E94CB08882319F056
:101FE00061E772E0C7CF82E00E94CB088111F8CF91
:101FF00083E00E94CB08811103C068E772E0BACF8A
:1020000064E670E080E090E00E94C1048ACF81E045
:10201000BECF0F931F93CF93DF9300D000D000D09B
:10202000CDB7DEB7182F882309F4F0C086E00E94F0
:10203000CB088111B0C082E00E94CB088111ABC0F7
:102040006FE772E0CE0101960E94CD0C62E0CE01F6
:1020500001960E94330DCE0101960E94290A10E0DC
:10206000812F26960FB6F894DEBF0FBECDBFDF914D
:10207000CF911F910F91089564E670E080E090E0A9
:102080000E94C10486E00E94CB088111F5CF82E056
:102090000E94CB088111F0CF68E873E180E090E006
:1020A0000E94C10461E087E00E94F50261E085E0E2
:1020B0000E94F5026FE872E0CE0101960E94CD0CFD
:1020C00061E0CE0101960E94330DCE0101960E947F
:1020D000290A68E972E081E096E00E94F00AC0CF28
:1020E0006091100101E020E0462F81E00E947C0811
:1020F00061E08BE00E94F5026CE972E0CE0101968E
:102100000E94CD0C61E0CE0101960E94330DCE01FC
:1021100001960E94290A60E086E00E94F50220E014
:1021200041E060E47FE180E090E00E94780F882346
:1021300009F496CF64EA72E0CE0101960E94CD0CBC
:1021400060E0CE0101960E94330DCE0101960E94FF
:10215000290A60E088E00E94F50220E041E060E4A6
:102160007CE980E090E00E94780F082F882309F432
:1021700077CF61E088E00E94F50261E086E00E948E
:10218000F5026DEA72E081E096E00E94F00A0E949A
:10219000310A102F65CF0E94930D88E080930006CE
:1021A00060E084EF95E00E94460760E372E0CE01B4
:1021B00001960E94CD0C60E0CE0101960E94330D85
:1021C000CE0101960E94290A60E087E00E94F50294
:1021D00068E873E180E090E00E94C10460E085E07F
:1021E0000E94F50261EB72E0CE0101960E94CD0CD7
:1021F00060E0CE0101960E94330DCE0101960E944F
:10220000290A60E375E780E090E03ACF84E00E941D
:10221000CB08811106C080E00E94CB08882309F416
:102220000FCF85E00E94CB08882309F459CF6FE7D0
:1022300072E0CE0101960E94CD0C62E0CE010196C3
:102240000E94330DCE0101960E94290A09CF0F93F7
:102250001F93CF93DF9300D000D000D0CDB7DEB76F
:10226000882309F405C187E00E94CB0881111CC0B6
:102270006FE772E0CE0101960E94CD0C62E0CE01C4
:1022800001960E94330DCE0101960E94290A10E0AA
:10229000812F26960FB6F894DEBF0FBECDBFDF911B
:1022A000CF911F910F91089561E089E00E94F5029E
:1022B0006091100101E020E0462F81E00E947C083F
:1022C00086E00E94CB08811119C082E00E94CB08F1
:1022D000811114C08BE00E94CC02892BD9F060E000
:1022E0008BE00E94F50220E041E060E177E280E0CF
:1022F00090E00E94780F81110DC0C9CF8BE00E9441
:10230000CC02892B21F060E08BE00E94F50281E095
:102310000E9409106AEB72E0CE0101960E94CD0C7A
:1023200060E0CE0101960E94330DCE0101960E941D
:10233000290A41E064E682E00E94380885E00E94B4
:10234000CB08882309F456C087E00E94CB08882375
:1023500009F450C021E040E068EF7AE280E090E0CC
:102360000E94780F882309F492CF85E00E94CB0861
:10237000811157C021E040E060ED77E080E090E01F
:102380000E94780F182F882309F481CF41E060E084
:1023900082E00E94380887E00E94CB08882309F475
:1023A0004DC061E089E00E94F5026EEC72E0CE0162
:1023B00001960E94CD0C61E0CE0101960E94330D82
:1023C000CE0101960E94290A64EF71E080E090E05E
:1023D0000E94C10480E00E9409106AED72E081E071
:1023E00096E00E94F00A68EE73E088EB91E00E94AC
:1023F000F3044ECF60E08CE00E94F50268E572E0E5
:1024000080E090E00E94C10461E08CE00E94F5024F
:1024100021E040E060EA7FE080E090E00E94780FF9
:102420008DCF87E00E94CB08882309F4A3CF21E059
:1024300040E068EE73E080E090E092CF6EED72E0F5
:1024400081E096E00E94F00A62EE72E0CE01019611
:102450000E94CD0C61E0CE0101960E94330DCE01A9
:1024600001960E94290A60E089E00E94F502BBCF34
:1024700085E0FACE1F920F920FB60F9211242F9380
:102480003F934F935F936F937F938F939F93AF93FC
:10249000BF93EF93FF9380916F0490917004A0918C
:1024A0007104B0917204892B8A2B8B2BD1F19091FE
:1024B0006A04E0916B04F0916C0480818927808329
:1024C00080916F0490917004A0917104B091720496
:1024D000181619061A061B069CF480916F04909139
:1024E0007004A0917104B09172040197A109B1091F
:1024F00080936F0490937004A0937104B09372045E
:10250000FF91EF91BF91AF919F918F917F916F91CB
:102510005F914F913F912F910F900FBE0F901F90A1
:10252000189580910B01E2E7F0E0E4919FEF909322
:102530000B01E13051F030F0E23069F060E00E94D0
:10254000F502DECF10926E00F9CF90916F009D7F63
:1025500090936F00F3CF909170009D7F90937000E7
:1025600091E09093B0009091B100987F9460909327
:10257000B1001092B300E2CF1F920F920FB60F92EC
:1025800011242F933F934F935F936F937F938F9378
:102590009F93AF93BF93EF93FF938BE794E00E94D9
:1025A0001402FF91EF91BF91AF919F918F917F9115
:1025B0006F915F914F913F912F910F900FBE0F90B0
:1025C0001F9018951F920F920FB60F9211242F9300
:1025D0008F939F93EF93FF93E0918B04F0918C0482
:1025E0008081E0919104F091920482FD1BC0908162
:1025F000809194048F5F8F7320919504821741F02E
:10260000E0919404F0E0E558FB4F958F809394049B
:10261000FF91EF919F918F912F910F900FBE0F908F
:102620001F9018958081F4CF1F920F920FB60F92D2
:1026300011242F933F938F939F93AF93BF938091D8
:10264000E4039091E503A091E603B091E703309194
:10265000E30323E0230F2D3758F50196A11DB11D8B
:102660002093E3038093E4039093E503A093E603B0
:10267000B093E7038091E8039091E903A091EA0306
:10268000B091EB030196A11DB11D8093E8039093D7
:10269000E903A093EA03B093EB03BF91AF919F913D
:1026A0008F913F912F910F900FBE0F901F90189513
:1026B00026E8230F0296A11DB11DD2CF1F920F92C3
:1026C0000FB60F9211242F933F934F935F936F9305
:1026D0007F938F939F93AF93BF93EF93FF938091DB
:1026E000B900887F803609F44AC0F0F5883209F4D1
:1026F000A7C018F5803109F49BC0B8F4882309F409
:10270000F9C0883009F494C0FF91EF91BF91AF9167
:102710009F918F917F916F915F914F913F912F91F9
:102720000F900FBE0F901F901895883109F488C044
:10273000803251F78093430414C0803409F49DC063
:1027400040F48033B9F38833F9F68093430485EC81
:10275000B0C0803509F485C0883509F496C0883446
:1027600099F60E947406D0CF883909F48CC038F5E8
:10277000883729F050F4883611F0803729F683E045
:10278000809345041092E20357C0883809F47BC057
:10279000803919F0803809F0B7CF8091E203803298
:1027A00008F071C0E091E20381E08E0F8093E203B4
:1027B0008091BB00F0E0EE53FC4F80833DC0803B36
:1027C00039F0E0F4803A09F479C0883A09F09CCFF6
:1027D00084E0809345041092C1031092C003E091FD
:1027E000FA03F091FB0309958091C00381110FC09A
:1027F00081E08093C0031092A00309C0803C09F4DB
:10280000A6CF883C09F4A3CF883B09F07DCFE091A7
:10281000C10381E08E0F8093C103F0E0E056FC4FCE
:1028200080818093BB009091C1038091C00329C037
:10283000809120048093BB0085EC8093BC0064CF22
:102840009091420480914104981758F5E091420418
:1028500081E08E0F80934204F0E0EF5DFB4F8081BA
:10286000E9CFE091420481E08E0F80934204809191
:10287000BB00F0E0EF5DFB4F8083909142048091BC
:1028800041049817C8F285E8D8CFE091420481E06E
:102890008E0F809342048091BB00F0E0EF5DFB4F10
:1028A00080838091440481115CCF81E080931F0478
:1028B00084EA8093BC001092450426CF85EC809377
:1028C000BC00109245048091E203803230F4E09124
:1028D000E203F0E0EE53FC4F10826091E20370E0FF
:1028E000E091F803F091F90382EC93E009951092DE
:1028F000E2030ACF1092430434CF1F920F920FB617
:102900000F9211242F933F934F935F936F937F9375
:102910008F939F93AF93BF93EF93FF93E0919E03A9
:10292000F0919F03309749F0A685B7858585968DF0
:1029300091FF14C09C918923A1F4FF91EF91BF9165
:10294000AF919F918F917F916F915F914F913F9147
:102950002F910F900FBE0F901F9018959C91892377
:1029600061F7A389B4899C918589809589238C938B
:10297000868997890197F1F7608D718DA685B78556
:10298000558538E020E0CB010197F1F7822F90E0E8
:1029900095958795282F4C91452309F02068315053
:1029A00091F7868D81FD209580919C0390E00196A2
:1029B0008F73992730919D03381799F0A0919C034C
:1029C000B0E0A45ABC4F2C9380939C03828D938DCE
:1029D0000197F1F7A389B4898C919589892B8C9300
:1029E000ACCF868D8160868FF1CFCF93DF9310922D
:1029F0007E0410927D0488EE93E0A0E0B0E0809326
:102A00007F0490938004A0938104B09382042AE50C
:102A100031E030937C0420937B0425EC30E030934C
:102A200088042093870424EC30E030938A042093B8
:102A3000890420EC30E030938C0420938B0421EC4B
:102A400030E030938E0420938D0422EC30E03093FC
:102A5000900420938F0426EC30E03093920420936E
:102A6000910410929404109295041092960410927E
:102A7000970410921B0510921A0580931C059093E1
:102A80001D05A0931E05B0931F052CE631E0309381
:102A900019052093180510920406109203068093DE
:102AA000050690930606A0930706B09308068AE8E9
:102AB00091E09093020680930106109218061092FE
:102AC000170610921A061092190610921C06109200
:102AD0001B0610921E0610921D0660911F066E7F47
:102AE0006D7F60931F066695617081E0682782E0C4
:102AF0000E94F50261E082E00E945503E1EBF0E004
:102B0000E491E0931106EDE9F0E0E491F0E0EE0FDE
:102B1000FF1FEF56FF4F859194919093130680937A
:102B2000120660E080E10E94550380911F0681FD3E
:102B300004C061E080E10E94F50280E180930D060F
:102B4000EFEBF0E0E491E0930E06EBEAF0E0E491C5
:102B5000F0E0EE0FFF1FE957FF4F8591949190939E
:102B6000100680930F0686E290E0909325058093EF
:102B7000240584E090E090931401809313019093D6
:102B80001201809311011092F7051092F6058EE75D
:102B900091E09093F5058093F4051092FD0587E28E
:102BA0008093F80584E18093FE0584E08093FF051F
:102BB000109200061092DF051092E6051092ED05C6
:102BC0001092EE051092EF051092F00581E08093CF
:102BD000EC058093E9051092EA0582E08093EB050D
:102BE0001092DE0584E590E09093E3058093E20582
:102BF0000E94B91F9093E8058093E705009709F4B8
:102C00005DC024E5DC011D922A95E9F78CE190E096
:102C10009093E1058093E00584E090E09093E505D2
:102C20008093E4058091DF05882341F061E084E032
:102C30000E94550360E084E00E94F502EFE9F0E0B5
:102C4000E491F0E0EE0FFF1FEF56FF4F8591949156
:102C50009093F2058093F105E3EBF0E0E491E093CB
:102C6000F3050E943606CEEBD5E0EAE5F5E042E357
:102C700055E0199211921192DA016D937D938D9323
:102C80009D93AD019F01225B3F4FD9011D921C9284
:102C9000B5E0EE36FB0769F71092DD051092DC0512
:102CA0006EEE72E08CE295E00E94CD0C6AE971E074
:102CB00086E295E0DF91CF910C94CD0C1092E30564
:102CC0001092E2051092E1051092E005A5CFCF9396
:102CD000DF93CDB7DEB766970FB6F894DEBF0FBEB1
:102CE000CDBF789484B5826084BD84B5816084BD95
:102CF00085B5826085BD85B5816085BD80916E009A
:102D0000816080936E0010928100809181008260CA
:102D10008093810080918100816080938100809107
:102D200080008160809380008091B10084608093F6
:102D3000B1008091B00081608093B00080917A00F2
:102D4000846080937A0080917A00826080937A0018
:102D500080917A00816080937A0080917A00806807
:102D600080937A001092C100E0918B04F0918C0462
:102D700082E08083E0918B04F0918C041082E091DA
:102D80008704F09188041082E0918904F0918A040C
:102D900080E1808310929304E0918F04F09190047D
:102DA00086E08083E0918D04F0918E0480818061C3
:102DB0008083E0918D04F0918E048081886080830F
:102DC000E0918D04F0918E04808180688083E09191
:102DD0008D04F0918E0480818F7D80831092FE039C
:102DE0000E9423036FEF80E00E942B076FEF81E0CA
:102DF0000E942B076FEF70E08091240590912505CC
:102E00000E9459071092F5031092F40361E08AE0E2
:102E10000E94F50261E08AE00E94550361E089E0CA
:102E20000E94F50261E089E00E94550361E08BE0B9
:102E30000E94F50261E08BE00E94550361E08CE0A6
:102E40000E94F50261E08CE00E94550361E088E099
:102E50000E94F50261E088E00E94550361E087E08E
:102E60000E94F50261E087E00E94550361E086E080
:102E70000E94F50261E086E00E94550361E085E072
:102E80000E94F50261E085E00E94550361E08BE05D
:102E90000E94F50287E00E94DE0887E00E94FB089E
:102EA00085E00E94DE0885E00E94FB0886E00E9423
:102EB000DE0886E00E94FB0884E00E94DE0884E0D1
:102EC0000E94FB0882E00E94DE0882E00E94FB086C
:102ED00080E00E94DE0880E00E94FB0883E00E9400
:102EE000DE0883E00E94FB0881E00E94DE0860E0CB
:102EF00084E10E94550361E083E00E9455038091C4
:102F00000F0190E00E9486038DE00E94DE088DE0B4
:102F10000E94FB088BE00E94DE088BE00E94FB0809
:102F20008EE00E94DE088EE00E94FB0888E00E948E
:102F3000DE0888E00E94FB0889E00E94DE0889E044
:102F40000E94FB088AE00E94DE088AE00E94FB08DB
:102F50008091E4059091E50597FD08C061E00E942D
:102F6000550360E08091E4050E94F50281E08093C2
:102F7000DF054091E2055091E30570E060E080914B
:102F8000E7059091E8050E94A4210E9403040E9495
:102F900023031092F9058091FF05823018F098E024
:102FA0009093F9058093FC0562E370E080E090E087
:102FB0000E94C1046091000684EF95E00E944607DC
:102FC00068EE73E080E090E00E94C10460E384EF6B
:102FD00095E00E949A090BE416E4C8010197F1F705
:102FE00060E384EF95E00E949A09C8010197F1F728
:102FF00060E384EF95E00E949A0983E592E00197EF
:10300000F1F760E284EF95E00E949A096091F9057A
:10301000606240E084EF95E00E94B30984E0809311
:10302000FA0540E06CE084EF95E00E94B3090E944D
:10303000FE0982E08093FB0540E066E084EF95E0C6
:103040000E94B30940E062E084EF95E00E94B3097A
:103050008BE39FE10197F1F762E080E00E94CA09EB
:1030600066E072E084EF95E00E94040B63E080E08C
:103070000E94CA0969E172E084EF95E00E94040BA6
:1030800080910601982F990F63E0890F0E94CA0969
:103090006091FA05862F81608093FA05696040E0AF
:1030A00084EF95E00E94B3098091DC059091DD05E5
:1030B0000A9774F4EAE5F5E010E000E0819191915F
:1030C000892B09F4C9C50F5F1F4F0A301105B1F7ED
:1030D00086E00E94CB08811114C182E00E94CB08D7
:1030E00081110FC10E94930D87E00E94CB088823B5
:1030F00009F40AC161E089E00E94F50287E00E94BC
:10310000CB08882341F085E00E94CB08882319F082
:1031100081E08093EE0322242394312CCE0101968A
:103120007C010E9436062B013C01AAE5B5E0B88B74
:10313000AF8702E315E01E8B0D8BFD0130E020E030
:10314000AF0142595F4FDA011D921C92808191813B
:103150003296892BB1F1AD89BE894D915D916D910A
:103160007C911397DC968D909D90AD90BC90DF97ED
:10317000D301C201841B950BA60BB70B88159905CB
:10318000AA05BB05F0F0480D591D6A1D7B1DAD89D0
:10319000BE894D935D936D937C931397C9018254BF
:1031A0009A4FDC018C91882361F042AD53AD4115FB
:1031B000510509F0B1C0CF0184599F4FDC012D9218
:1031C0003C922F5F3F4FAD89BE891496BE8BAD8B6D
:1031D0002A30310509F0B4CFD12CC12C5801B6E901
:1031E000AB0EB11CF501808191818130910509F40C
:1031F000B3C0029709F4B6C0BFEFCB1ADB0A0E5F6B
:103200001F4FEAE0CE16D10449F78DE00E94CB08AB
:1032100081111CC01091F00361E016271093F00398
:1032200064E670E088EB91E00E94F30460910D0188
:10323000169F602D11244091090181E00E943808F9
:103240006CE271E080E090E00E94C1048EE00E9498
:10325000CB0881111CC01091EF0361E01627109379
:10326000EF0364E670E088EB91E00E94F304609164
:103270000C01169F602D11244091080182E00E94EC
:1032800038086CE271E080E090E00E94C1048BE0BD
:103290000E94CB0881111CC01091F10361E0162738
:1032A0001093F10364E670E088EB91E00E94F30470
:1032B00060910E01169F602D112440910A0180E05B
:1032C0000E9438086CE271E080E090E00E94C10446
:1032D00088E00E94CB08811193C080910701882368
:1032E00009F471C088E08093000660E084EF95E007
:1032F0000E9446071092070168EC70E080E090E0C1
:10330000B3C10E94310AF0CE85E00E94CB08882329
:1033100009F4F0CE60E0EFCE5F01BEE4AB0EB11C6D
:10332000D5018D919C91841795070CF04ACF6F01C0
:10333000BCE6CB0ED11CD6012D923C920196D50154
:103340008D939C93841795070CF43BCF82E090E01B
:10335000D6018D939C9335CFD8019896ED91FC9131
:1033600009954ACFD8019896ED91FC9109958091E5
:10337000DC059091DD05009709F43ECFF80120A50A
:1033800031A5232B09F438CF11A610A6F601E2547B
:10339000FA4F1082D5011D921C92F601EE0FFF1F0D
:1033A000EE0FFF1FEE5CFA4F14AE15AE16AE17AE61
:1033B000F801E858FF4F1182108201979093DD05C4
:1033C0008093DC0519CFE0910601E53009F057C183
:1033D000E0910501ED30A0F4F0E0EF50F64E0C94D2
:1033E000981FFE19E51AE81AEC1AEE1AF21AF41AE6
:1033F000061B0E1B161B1E1B281B371B0E941C0EB8
:103400008AE00E94CB08811116C0809106018F5F6F
:10341000863008F040C18093060180910601982F04
:10342000990F63E0890F0E94CA0968EC70E080E0A0
:1034300090E00E94C10489E00E94CB0881112AC05B
:1034400080910601E82FF0E0E050FF4F90819F5FF0
:103450009083953028F09DEF980F923008F41082F9
:103460009081973040F0853031F49091EE039111C6
:1034700002C01092050190819D3020F0853011F43A
:103480001092050190819A3018F0853008F410826E
:103490000E94060B0E941809182F882309F468C09F
:1034A00064E670E088EB91E00E94F304D09007019D
:1034B000DD2009F47AC118861F821A8619861C86B7
:1034C0001B8619831A82F70101900020E9F73197D2
:1034D000AF014E195F09B701CE0107960E94950C06
:1034E0000E9436064B015C0101E02FE04FE06FE0E7
:1034F00080E00E947C088091EC03811119C08091CA
:10350000DC059091DD050A9784F410E000E0AF85BA
:10351000B8898D919D91B88BAF87892B09F4D7C35A
:103520000F5F1F4F0A30110591F781E08093EC0384
:103530000E943606681979098A099B096031774229
:103540008105910508F4AAC067EF72E08BE794E06B
:103550000E94F00A6CE271E08CED90E00E94F304AE
:10356000D12CCE0107960E94290AD1101092070192
:10357000C7010E94A20EB70186E295E00E94080CE6
:10358000C7010E94290A8AE991E00E946E0A81110E
:103590008DC18091EE038111FDC18CE093E00E940A
:1035A0006E0A882309F44EC181E00E94091086E06A
:1035B0000E94CB08811106C082E00E94CB088823BC
:1035C00009F455C16FE572E054C10E94620E18CF34
:1035D00081E00E94271114CF80E0FBCF81E00E94A0
:1035E00009100ECF80E0FBCF8091EE0391E001E067
:1035F00020E089278093EE0360911001462F81110E
:1036000001C040E081E00E947C08FACE8091EE0388
:10361000882309F4F5CE0E942A08F2CE8091EE03A9
:10362000882309F4EDCE0E945E0AEACE8091EE0373
:10363000882309F4E5CE0E941C08E2CE8091EE03B7
:10364000882309F4DDCE60E08BE00E94F502D8CE3D
:103650008091EE03882321F060E08AE00E94F50269
:1036600068EE73E080E090E00E94C104C9CE8091D2
:10367000EE03882309F4C4CE61E08AE0E6CFF0E0EF
:10368000E050FF4F8081882309F4BACE81508083B7
:103690000E94060B31CE10920601BFCE0E9418097F
:1036A000182F882309F444CF64E670E088EB91E09A
:1036B0000E94F30401E02FE04FE060E080E00E9410
:1036C0007C0868EC70E080E090E00E94C1042FE08C
:1036D0004FE06FE080E00E947C081A8219821C8211
:1036E0001B821E821D82BE01695F7F4FC7010E943F
:1036F000B60C1D871E8641E050E0BE01635F7F4F20
:10370000C7010E94690C811103C0C7010E94170AFA
:10371000B701CE0107960E94B60CC7010E94290A84
:103720002B853C854CEF420F2530310508F440E0F5
:1037300050E0BE01695F7F4FC7010E94DE0CB701F8
:10374000CE0107960E94080CC7010E94290A4B85EA
:103750005C856F8178858BE794E00E94960168E92B
:1037600071E08BE794E00E94870A2B853C8580916D
:103770003005909131052817390709F0D9CE8F818E
:10378000988560912C0570912D05009709F4DAC297
:103790006115710539F4232B09F4E2C2DC018C9127
:1037A00090E0DBC20E94AB21D8C281E0113419F055
:1037B000123421F480E00E942711DACE81E0133424
:1037C00019F0143421F480E00E940910D1CE1A328D
:1037D00019F40E941C0ECCCE133219F40E94620E12
:1037E000C7CE812F110F990BB1E0833B9B07B9F432
:1037F0006091F10381E068276093F10380910E01ED
:10380000689F602D112440910A0180E00E943808D1
:103810006CE271E080E090E00E94C104A9CE875D77
:10382000914009F0A5CE6091F00381E06827609394
:10383000F00380910D01689F602D112440910901D2
:1038400081E0E4CF8FE093E00E946E0A882309F4C0
:1038500080C080E00E94091086E00E94CB088111A0
:1038600006C082E00E94CB08882309F4ABCE63EB4C
:1038700071E08BE794E00E94F00A8AE293E00E94F4
:103880006E0A60E08111C4C08DE293E00E946E0A6E
:1038900060E0811108C080E393E00E946E0A8823F3
:1038A00009F4AFC061E08AE00E94F5028091ED0367
:1038B000811111C001E020E040E06091100182E040
:1038C0000E947C0881E08093ED0369E573E081E06C
:1038D00096E00E94F00A8091EE03811115C085E008
:1038E0000E94CB08882381F087E00E94CB088823C0
:1038F00059F068E672E0C7010E94CD0CC7010E9432
:10390000F50EC7010E94290A86E480937C0080910D
:103910007A00806480937A0080917A0086FDFCCFE3
:1039200090917800809179008927982789278C3297
:10393000914014F40E941C0E80E090E0892B09F461
:10394000F0CB0E940002882309F4EBCB0E94000018
:10395000E5CB82E193E00E946E0A882329F081E0A2
:103960000E94271187E029CE85E193E00E946E0A2C
:10397000882329F080E00E94271185E01ECE88E18F
:1039800093E00E946E0A882309F477CF81E0809348
:10399000EE0373CF89E093E00E946E0A882319F04A
:1039A0001092EE036ACF8BE193E00E946E0A60E012
:1039B000811107C08EE193E00E946E0A882329F0EE
:1039C00061E08BE00E94F50258CF81E293E00E9413
:1039D0006E0A882319F00E941C084FCF84E293E0FE
:1039E0000E946E0A882319F00E942A0846CF87E2B7
:1039F00093E00E946E0A882309F43FCF0E945E0A7A
:103A00003CCF83E393E00E946E0A882359F061E083
:103A100089E00E94F50263EB71E08BE794E00E947D
:103A2000F00A44CF86E393E00E946E0A882369F08F
:103A300086E00E94CB08811105C082E00E94CB087D
:103A4000882349F36FE572E0E8CF89E393E00E94B1
:103A50006E0A882331F085E00E94CB088111DBCF0C
:103A6000F1CF8CE393E00E946E0A882331F089E065
:103A70000E94CC02892B31F7CECF8FE393E00E94D6
:103A80006E0A882319F00E94620EDCCF82E493E074
:103A90000E946E0A882319F00E941C0ED3CF8CE579
:103AA00092E00E946E0A882391F06FE572E08BE746
:103AB00094E00E94F00A61E672E0C7010E94CD0C1A
:103AC000C7010E94F50EC7010E94290AEFCE85E4C6
:103AD00093E00E946E0A882349F08091EE0363EF21
:103AE00072E081119ACF65EF72E097CF88E493E09E
:103AF0000E946E0A882341F040910A0160910E01F4
:103B000080E00E94380887CF8BE493E00E946E0A21
:103B1000882331F040E060E080E00E94380892CFD6
:103B20008EE493E00E946E0A882331F040910901EF
:103B300060910D0181E0E5CF81E593E00E946E0A7E
:103B4000882321F040E060E081E0E7CF84E593E066
:103B50000E946E0A882309F4A9CE85E00E94CB0852
:103B600061E070E0882311F070E060E08BE794E0A2
:103B70000E94E90A87E00E94CB0861E070E0882398
:103B800011F070E060E08BE794E00E94E90A84E0C5
:103B90000E94CB08811104C00E94CB0861E0811112
:103BA00060E070E08BE794E00E94E90A86E00E9402
:103BB000CB08811105C082E00E94CB0861E0811131
:103BC00060E070E08BE794E00E94E90A89E00E94DF
:103BD000CC0261E070E0892B11F070E060E08BE7CF
:103BE00094E00E94E90A67E573E08BE794E00E94A5
:103BF000040B8091EE0363EF72E0811102C065EF68
:103C000072E08BE794E00E94F00A84E00E94CB0807
:103C1000682F8BE794E00E94E20A80E00E94CB08C4
:103C2000682F8BE794E00E94E20A86E00E94CB08AE
:103C3000682F8BE794E00E94E20A82E00E94CB08A2
:103C4000682F8BE794E00E94E20A68E971E08BE755
:103C500094E00E94870A2ACEF801EE0FFF1FEE0FB4
:103C6000FF1FE259FA4F88EE93E0A0E0B0E08083B6
:103C70009183A283B383F801EE0FFF1FE65AFA4F38
:103C800084E991E091838083F801EE0FFF1FEA56EB
:103C9000FA4F11821082F801E254FA4F81E08083DA
:103CA0000E943606000F111F000F111FF801EE5C75
:103CB000FA4F60837183828393838091DC059091B6
:103CC000DD0501969093DD058093DC0501CAF801BE
:103CD000EE0FFF1FEE0FFF1FE259FA4F80EE93E940
:103CE000A4E0B0E080839183A283B383F801EE0F58
:103CF000FF1FE65AFA4FA6E9B8E0B183A083F801A6
:103D0000EE0FFF1FEA56FA4F31822082F801E2548B
:103D1000FA4F81E080830E943606000F111F000FCA
:103D2000111FF801EE5CFA4F6083718382839383E5
:103D30008091DC059091DD0501969093DD058093DF
:103D4000DC05F3CB6115710559F0232B49F0FB011C
:103D5000808190E0919581959109892B09F0E8CBBC
:103D600064E073E08BE794E00E94F00A6CE271E09B
:103D700088EB91E00E94F30401E020E040E06FE076
:103D800080E00E947C0864EF71E080E090E00E9497
:103D9000C104E7CB86E295E00E94290A8CE295E017
:103DA0000E94290A8091E7059091E8050E9455201C
:103DB0008091E4059091E50597FD03C060E00E94C5
:103DC00055038AE891E09093020680930106809162
:103DD0009E0390919F038150964071F4E0911406E8
:103DE000F091150690818091160680958923808335
:103DF00010929F0310929E0308952F923F924F922C
:103E00005F926F927F928F929F92AF92BF92CF926A
:103E1000DF92EF92FF920F931F93CF93DF93CDB773
:103E2000DEB7CA1BDB0B0FB6F894DEBF0FBECDBFEB
:103E300009942A88398848885F846E847D848C84BC
:103E40009B84AA84B984C884DF80EE80FD800C81C5
:103E50001B81AA81B981CE0FD11D0FB6F894DEBFA8
:103E60000FBECDBFED010895A29FB001B39FC00169
:103E7000A39F700D811D1124911DB29F700D811D96
:103E80001124911D089597FB072E16F4009407D076
:103E900077FD09D00E94A51F07FC05D03EF4909540
:103EA00081959F4F0895709561957F4F0895A1E288
:103EB0001A2EAA1BBB1BFD010DC0AA1FBB1FEE1FA4
:103EC000FF1FA217B307E407F50720F0A21BB30BEF
:103ED000E40BF50B661F771F881F991F1A9469F76B
:103EE00060957095809590959B01AC01BD01CF01C7
:103EF0000895052E97FB1EF400940E94901F57FD15
:103F000007D00E94571F07FC03D04EF40C94901F5B
:103F100050954095309521953F4F4F4F5F4F0895F5
:103F200090958095709561957F4F8F4F9F4F089525
:103F3000EE0FFF1F0590F491E02D09940E94341FAD
:103F4000B7FF0895821B930B0895AA1BBB1B51E179
:103F500007C0AA1FBB1FA617B70710F0A61BB70BF9
:103F6000881F991F5A95A9F780959095BC01CD019E
:103F700008950F931F93CF93DF938230910510F430
:103F800082E090E0E0912206F091230630E020E00C
:103F9000B0E0A0E0309799F42115310509F44AC04A
:103FA000281B390B24303105D8F58A819B81611596
:103FB000710589F1FB0193838283FE0111C0408169
:103FC00051810281138148175907E0F048175907BA
:103FD00099F4109761F012960C93129713961C9314
:103FE0003296CF01DF91CF911F910F9108950093E9
:103FF000220610932306F4CF2115310551F0421704
:10400000530738F0A901DB019A01BD01DF01F80176
:10401000C1CFEF01F9CF9093230680932206CDCF35
:10402000FE01E20FF31F81939193225031093983EE
:104030002883D7CF2091200630912106232B41F4ED
:10404000209117013091180130932106209320060A
:1040500020911501309116012115310541F42DB73C
:104060003EB74091190150911A01241B350BE09184
:104070002006F0912106E217F307A0F42E1B3F0B58
:104080002817390778F0AC014E5F5F4F24173507CA
:1040900048F04E0F5F1F50932106409320068193F6
:1040A00091939FCFF0E0E0E09CCFCF93DF93009718
:1040B000E9F0FC01329713821282A0912206B0919E
:1040C0002306ED0130E020E01097A1F4208131813A
:1040D000820F931F2091200630912106281739075F
:1040E00009F061C0F0932106E0932006DF91CF91A3
:1040F0000895EA01CE17DF07E8F54A815B819E014A
:1041000041155105B1F7E901FB83EA8349915991C2
:10411000C40FD51FEC17FD0761F4808191810296D1
:10412000840F951FE90199838883828193819B8302
:104130008A83F0E0E0E012968D919C9113970097AE
:10414000B9F52D913C911197CD010296820F931FE5
:1041500020912006309121062817390739F630972B
:1041600051F51092230610922206B0932106A093D7
:104170002006BCCFD383C28340815181840F951F19
:10418000C817D90761F44E5F5F4F88819981480F46
:10419000591F518340838A819B8193838283211598
:1041A000310509F0B0CFF0932306E09322069ECFAD
:1041B000FD01DC01C0CF13821282D7CFB0E0A0E0B6
:1041C000E4EEF0E20C94FF1E8C01009751F4CB0159
:1041D0000E94B91F8C01C801CDB7DEB7E0E10C9495
:1041E0001B1FFC01E60FF71F9C0122503109E2174B
:1041F000F30708F49DC0D901CD91DC911197C61742
:10420000D70798F0C530D10530F3CE010497861753
:10421000970708F3C61BD70B2297C193D1936D93D1
:104220007C93CF010E945520D6CF5B01AC1ABD0A0A
:104230004C018C0E9D1EA0912206B0912306512C9C
:10424000412CF12CE12C109731F5809120069091B2
:1042500021068815990509F05CC04616570608F036
:1042600058C08091150190911601009741F48DB7C7
:104270009EB74091190150911A01841B950BE817C4
:10428000F90708F055C0F0932106E0932006F901E4
:1042900071836083A0CF8D919C91119712966C9041
:1042A000129713967C901397A815B90559F56C01D0
:1042B00042E0C40ED11CCA14DB0420F1AC014A193F
:1042C0005B09DA011296159780F06282738251833E
:1042D0004083D9016D937C93E114F10471F0D7010F
:1042E0001396FC93EE93129776CF22968C0F9D1F18
:1042F000F90191838083F301EFCFF0932306E093DC
:10430000220669CF4816590608F42C017D01D30115
:104310009ACFCB010E94B91F7C01009749F0AE01F2
:10432000B8010E949B21C8010E945520870153CFEC
:1043300010E000E050CFFB01DC0102C001900D92C3
:1043400041505040D8F70895DC0101C06D934150B1
:104350005040E0F70895FB01DC018D910190801938
:104360000110D9F3990B0895FB01DC0101900D9226
:104370000020E1F7089510E0C3E6D0E004C0FE019C
:104380000E94981F2196C436D107C9F7F894FFCF31
:104390000107090202000501000101FF1932C814DA
:1043A0000203000400000024068000000040001406
:1043B000005400050A0F142802050A14280A1932AD
:1043C00064C831323341003435364200373839431E
:1043D000002A302344001000200040008000FE002E
:1043E000FD00FB00F7000000000036029601C3014B
:1043F0008302F401D201E60100000000FC06CF06B2
:104400001908A506C806B506A60600000000110A90
:10441000960119089501000000008407960119080B
:10442000A506E007F8076C070D0A004155544F2018
:10443000004D414E55200052004F5520503100464E
:1044400045205031004F5520414200464520414211
:10445000004F5520504F00464520504F004F5520EB
:104460005032004645205032004445504C41004DEA
:104470004F544F4E00415458204D00415458204154
:10448000002020202020202020202020202020204C
:10449000202020202000544120494E204558204C07
:1044A00043204C4420434D440032522033422035B7
:1044B00042203220203220205041524B004F6B00CE
:1044C0005031204F2E2E2E005031204F50454E009F
:1044D000503120462E2E2E00503120436C6F7365D4
:1044E00000415255004152552021200041550030D5
:1044F0000053C3A972696500506F736974696F6E68
:1045000000506F7274657300426F75746F6E004572
:10451000727265757220706F736974696F6E005086
:104520003132204F70656E00504F230050322046CC
:104530002E2E2E0050313220462E2E2E0050462395
:1045400000503132204F2E2E2E004465706C616376
:10455000656D656E7420616272692E2E2E00416257
:104560007269206665726DC3A90044462300444FFA
:10457000230041627269206F757665727400313272
:104580003334006D0061004D61757661697320639D
:104590006F646500436F6465204F4B00502B0050E3
:1045A0002D00442B00442D004D41006D2B006D2D3E
:1045B00000646400322B00322D00412B00582B0088
:1045C000582D00412D00503F00443F00413F0070F6
:1045D0002D00702B004D3F00452B00452D00492B31
:0C45E00000492D00433F007000544E00C5
:00000001FF
