:100000000C9464000C948C000C948C000C94CF1510
:100010000C94CF150C94CF150C948C000C948C136D
:100020000C948C000C948C000C948C000C948C0020
:100030000C948C000C948C000C948C000C948C0010
:100040000C9466140C948C000C9434140C940E14C0
:100050000C948C000C948C000C948C000C948C00F0
:100060000C94B0140C948C000000000024002700B5
:100070002A0002000000080002010000030407003B
:1000800000000000000000000000002300260029FE
:100090000000000000250028002B000404040404D4
:1000A0000404040202020202020303030303030125
:1000B00002040810204080010204081020010204FC
:1000C000081020004716A22011241FBECFEFD8E051
:1000D000DEBFCDBF26E0A8E9B3E001C01D92A33684
:1000E000B207E1F713E0A0E0B1E0E0E4F7E402C01A
:1000F00005900D92A839B107D9F710E0C3E6D0E01A
:1001000004C02197FE010E947021C236D107C9F7B1
:100110000E94B9170C9493230C9400008F929F9225
:10012000AF92BF92CF92DF92EF92FF920F931F9305
:10013000FC014B01AA24BB24C52ED62EE72EFF249A
:10014000BC2DA42F90912506B82C992391F0A92FAE
:10015000B0E0A89D9001A99D300DB89D300D1124EF
:10016000B32E9C9D60011124BD2D949F800111240C
:10017000A12F40912B0620912606309127068091D1
:100180002806481324C0CF01880F991F8E0F9F1F88
:10019000820F931FE0912806E80FF92FF11DB0821E
:1001A000E0912906E80FF92FF11DB08320912A066E
:1001B000820F911DFC01A0831F910F91FF90EF9082
:1001C000DF90CF90BF90AF909F908F900895CF0118
:1001D000880F991F880F991F820F931FFC01E40F4E
:1001E000F11D1082D7CF2091A80481E0213208F0C0
:1001F00044C0809184048111FCCF8091A70492E0D7
:100200009093840491E0909383049FEF90938204F1
:100210001092810420938004A7E8B4E0E0E6F4E0C3
:1002200090E0291331C010925F0490915F04880F11
:10023000892B80935F0480915E04813049F5109290
:100240005E0480915F048093BB008091BC0083FDBD
:10025000F8CF85EC8093BC00809184048230E1F378
:10026000809182048F3FB1F0809182048032A1F0AE
:1002700080918204803391F084E010928604109281
:10028000A8041092850408953D9131939F5FC9CFD2
:1002900085EEE0CF80E0F1CF82E0EFCF83E0EDCFDD
:1002A000909184049111FCCF91E0909384049093F9
:1002B00083042FEF2093820410928104260F209351
:1002C000800490935F0490915F04880F892B809342
:1002D0005F0480915E048130F9F410925E04809195
:1002E0005F048093BB008091BC0083FDF8CF85EC58
:1002F0008093BC00809184048130E1F3809181047B
:10030000861710F460918104A0E6B4E0EEE3F4E017
:1003100080E0861303C0089585EEEACF9D91919306
:100320008F5FF7CF089508950895AF92BF92CF924F
:10033000DF92EF92FF920F931F93CF93DF936C01A5
:100340007B018B01040F151FEB015E01AE18BF0886
:10035000C017D10759F06991D601ED91FC91019038
:10036000F081E02DC6010995892B79F7C501DF9150
:10037000CF911F910F91FF90EF90DF90CF90BF90A2
:10038000AF900895FC01538D448D252F30E0842FCC
:1003900090E0821B930B541710F0CF9608950197AD
:1003A0000895FC01918D828D981761F0A28DAE0F9A
:1003B000BF2FB11D5D968C91928D9F5F9F73928F21
:1003C00090E008958FEF9FEF0895FC01918D828D4D
:1003D000981731F0828DE80FF11D858D90E008951A
:1003E0008FEF9FEF0895FC01918D228D892F90E072
:1003F000805C9F4F821B91098F73992708958AEB28
:1004000094E00E94F30121E0892B09F420E0822F7F
:10041000089580E090E0892B29F00E94FF0181116E
:100420000C9400000895FC01A48DA80FB92FB11DF4
:10043000A35ABF4F2C91848D90E001968F7399271A
:10044000848FA689B7892C93A089B1898C918370F8
:1004500080648C93938D848D981306C00288F389F1
:10046000E02D80818F7D80830895EF92FF920F931E
:100470001F93CF93DF93EC0181E0888F9B8D8C8D50
:1004800098131AC0E889F989808185FF15C09FB744
:10049000F894EE89FF896083E889F9898081837007
:1004A000806480839FBF81E090E0DF91CF911F91B6
:1004B0000F91FF90EF900895F62E0B8D10E00F5FD7
:1004C0001F4F0F731127E02E8C8D8E110CC00FB6AD
:1004D00007FCFACFE889F989808185FFF5CFCE0145
:1004E0000E941302F1CFEB8DEC0FFD2FF11DE35AAB
:1004F000FF4FF0829FB7F8940B8FEA89FB898081C8
:100500008062CFCFCF93DF93EC01888D8823B9F041
:10051000AA89BB89E889F9898C9185FD03C080810E
:1005200086FD0DC00FB607FCF7CF8C9185FFF2CF8B
:10053000808185FFEDCFCE010E941302E9CFDF91CC
:10054000CF910895833081F028F4813099F0823082
:10055000A9F008958730A9F08830C9F08430B1F44B
:10056000809180008F7D03C0809180008F77809381
:100570008000089584B58F7784BD089584B58F7DFC
:10058000FBCF8091B0008F778093B0000895809169
:10059000B0008F7DF9CFCF93DF93282F30E0F901A2
:1005A000ED58FF4F8491F901E155FF4FD491F901C6
:1005B000E556FF4FC491CC23A1F081110E94A20205
:1005C000EC2FF0E0EE0FFF1FE957FF4FA591B4911C
:1005D000EC91ED2381E090E009F480E0DF91CF9190
:1005E000089580E090E0FACF1F93CF93DF93282FF8
:1005F00030E0F901ED58FF4F8491F901E155FF4FCB
:10060000D491F901E556FF4FC491CC23A9F0162FE0
:1006100081110E94A202EC2FF0E0EE0FFF1FEF56B7
:10062000FF4FA591B4918FB7F894EC91111108C0C8
:10063000D095DE23DC938FBFDF91CF911F9108957A
:10064000DE2BF8CF10923C0410923B0410928604EB
:100650001092A8041092840481E080938304109285
:100660005E0461E082E10E94F40261E083E10E94A5
:10067000F402E9EBF0E080818E7F808380818D7FC2
:10068000808388E48093B80085E48093BC0082E98D
:1006900091E090933A048093390483E991E0909338
:1006A0003804809337040895CF93DF9390E0FC01E2
:1006B000E155FF4F249185569F4FFC01849188237B
:1006C000D1F090E0880F991FFC01E859FF4FA591E8
:1006D000B491FC01EF56FF4FC591D49161110EC04A
:1006E0009FB7F8948C91E22FE0958E238C9328810C
:1006F000E223E8839FBFDF91CF9108958FB7F894ED
:10070000EC91E22BEC938FBFF6CFCF93DF93EC010C
:1007100061E083E00E945403209731F460E083E0BD
:10072000DF91CF910C94F402CF3FD10511F461E039
:10073000F6CFE6E7F0E0E491E33029F140F4E13070
:10074000B1F0E230D9F0C038D1058CF7E7CFE7300F
:1007500021F1E83051F1E430B1F7809180008062FE
:1007600080938000D0938B00C0938A0004C084B52E
:10077000806884BDC7BDDF91CF91089584B5806244
:1007800084BDC8BDF8CF80918000806880938000D0
:10079000D0938900C0938800EECF8091B00080682C
:1007A0008093B000C093B300E6CF8091B000806228
:1007B0008093B000C093B400DECF3FB7F89480912F
:1007C000230490912404A0912504B091260426B519
:1007D000A89B05C02F3F19F00196A11DB11D3FBF79
:1007E000BA2FA92F982F8827BC01CD01620F711D48
:1007F000811D911D42E0660F771F881F991F4A9542
:10080000D1F708950F931F93CF93DF93CDB7DEB742
:1008100029970FB6F894DEBF0FBECDBF8091260694
:1008200090912706892B09F467C00E94DD0300918F
:100830002C0610912D0620912E0630912F06601B5C
:10084000710B820B930B6C3271408105910568F33B
:10085000F89480912106909122069A838983E091F1
:100860002606F0912706DF011196808189879091F5
:100870001D06E0913006F0913106809132069923F1
:1008800009F445C09081982B9887908180958923A1
:100890008F838F818C8388E08B8358856F81498516
:1008A0003B812C8189819A81508347FD252F3A9580
:1008B0002083262F39F0441F00C000006083000011
:1008C00000C0F2CF38E04D9160830000019761F7DE
:1008D000F0933106E093300649873B832C839A835B
:1008E000898378940E94DD0360932C0670932D0613
:1008F00080932E0690932F0629960FB6F894DEBFAC
:100900000FBECDBFDF91CF911F910F9108959081C0
:10091000982B98879081809589238F838F818E83F0
:1009200088E08D8358856F8149853D812E8189813D
:100930009A81508347FD252F00C000C0208300C04E
:1009400000C000C000C000C060830000262F3A95A0
:1009500041F0441F000000C000C000C000C000C043
:10096000E8CF38E04D9100C0608300C0019709F7DF
:10097000F0933106E093300649873D832E83AFCF55
:100980008F929F92AF92BF92CF92DF92EF92FF929F
:100990004B015C010E94DD036B017C010E94DD03C1
:1009A0006C197D098E099F09683E73408105910588
:1009B000A8F321E0821A9108A108B10888EEC80EB8
:1009C00083E0D81EE11CF11C81149104A104B10440
:1009D00029F7FF90EF90DF90CF90BF90AF909F905E
:1009E0008F9008954F925F926F927F928F929F9215
:1009F000AF92BF92EF92FF920F931F93CF938C0110
:100A00007B0180910B018131D9F08F3F09F43FC008
:100A100068EC70E080E090E00E94C00480910F01DB
:100A200090E0CF911F910F91FF90EF90BF90AF900A
:100A30009F908F907F906F905F904F900C94850364
:100A4000E2E7F0E0C491C7FDE3CF61E081E10E94FD
:100A50005403C11132C02801012E000C660877082A
:100A600062E17AE780E090E0A30192010E945121C7
:100A700049015A0181E0881A9108A108B10896E05D
:100A8000C1113BC085B5887F846085BDABC081E165
:100A900080930B01E2E7F0E0C491CF3F09F4B8CFB7
:100AA000C13009F44AC080F1C23009F464C0C7FD06
:100AB000AFCF61E081E10E9454039801012E000C48
:100AC000440B550BC23009F078C029013A0164E2A9
:100AD00074EF80E090E00E94512149015A0181E0C9
:100AE000881A9108A108B10895E08FEF8816910443
:100AF000A104B10411F00CF0B3CF8091B100887F54
:100B0000892B8093B1006EC014BC15BC84B5826083
:100B100084BD85B5816085BDECEAF0E0E491F0E04C
:100B2000EE0FFF1FEF56FF4F85919491E0ECF0E040
:100B3000E491E093AD04C0E088CF10928000109261
:100B40008100809181008860809381008091810084
:100B5000816080938100ECEAF0E0E491F0E0EE0F38
:100B6000FF1FEF56FF4F85919491E0ECF0E0E49188
:100B7000E093AC046ACF1092B0001092B100809163
:100B8000B00082608093B0008091B100816080935A
:100B9000B100ECEAF0E0E491F0E0EE0FFF1FEF5659
:100BA000FF4F859194919093AB048093AA04E0EC5D
:100BB000F0E0E491E093A90448CF60E072E18AE7B5
:100BC00090E00E94512149015A0181E0881A910860
:100BD000A108B108C13031F480918100887F816023
:100BE000809381009801220F331FD7010E94762144
:100BF00028EE33E040E050E00E942F21C13099F010
:100C0000C23019F1C11104CF87BC2093B6043093D0
:100C1000B7044093B8045093B90480916E00826089
:100C200080936E00F5CE9092890080928800209388
:100C3000B2043093B3044093B4045093B50480914C
:100C40006F00826080936F00E3CE8092B3002093A8
:100C5000AE043093AF044093B0045093B10480913C
:100C60007000826080937000D3CE2FB7F8946091AB
:100C70001F047091200480912104909122042FBFC1
:100C800008950F931F93CF93DF93EC010E943506D5
:100C9000688779878A879B87E881F9810284F38551
:100CA000E02DCE01099597FF15C00E9435060885F5
:100CB00019852A853B85601B710B820B930B0C8178
:100CC0001D812E813F81601771078207930720F3F2
:100CD0008FEF9FEFDF91CF911F910F91089585EDD9
:100CE0008093BC008091BC0084FDFCCF10928404F2
:100CF00008952091FB03260F3327331F213231053E
:100D0000ECF420918404FC0190E080E0243069F050
:100D100082E00895A091FB032191AC0145525C4F04
:100D2000A40FB52FB11D2C930196861798F38091CF
:100D3000FB03680F6093FB0380E0089581E0089552
:100D40000895E0913C0480913B04E81730F4F0E012
:100D5000E25CFB4F808190E008958FEF9FEF089554
:100D600090913C0480913B042FEF3FEF981748F49B
:100D7000E92FF0E0E25CFB4F208130E09F5F909331
:100D80003C04C901089580913B0490913C04891B67
:100D9000990B0895CF92DF92EF92FF920F931F93DA
:100DA000CF93DF937C01CB018A012091850422231C
:100DB00089F0EB016B01C40ED51ECC15DD0569F081
:100DC0006991D701ED91FC910190F081E02DC7016F
:100DD0000995F3CF642F0E947906C801DF91CF9166
:100DE0001F910F91FF90EF90DF90CF900895CF93D8
:100DF000DF931F92CDB7DEB769832091850422234C
:100E0000F9F02091A804203258F021E030E0FC01F4
:100E10003383228390E080E00F90DF91CF9108959B
:100E200080918604E82FF0E0E957FB4F9981908389
:100E30008F5F809386048093A80481E090E0ECCFDC
:100E400061E0CE0101960E947906F7CFCF93C62FBD
:100E500090913D04906221E0209385049093A70433
:100E6000109286041092A804682F87E595E00E94EE
:100E7000F7066C2F87E595E00E94F706CF910C945A
:100E8000F300FC01248131E0309385042093A70412
:100E9000109286041092A8048485682B87E595E05B
:100EA0000E94F7060C94F30088E080933F0660E010
:100EB00083E396E00C944107609335047093360405
:100EC00091E0909385048093A70410928604109279
:100ED000A80487E595E00E94F7060C94F3002091A2
:100EE000290430912A042817390771F490912704B6
:100EF00080912804981741F0E0912704F0E0E5562E
:100F0000FC4F808190E008958FEF9FEF0895EF925E
:100F1000FF920F931F93CF93DF93DC015C96ED90CC
:100F2000FC905D97E114F10479F481E090E0139670
:100F30009C938E93129790E080E0DF91CF911F9168
:100F40000F91FF90EF9008955196ED91FC9152977B
:100F500050968C915097982F90950FB75E962C9144
:100F60005E97122F127021FD6095F8942081112355
:100F700019F1282B2083E7012197F1F728E0462F6C
:100F800050E0308160FF1AC0382B3083E701219791
:100F9000F1F7BA0175956795215089F7112381F012
:100FA0008081892380830FBF5C968D919C910197EE
:100FB000F1F781E090E0C1CF2923DCCF3923E5CFE1
:100FC0009081892BEFCF2091290430912A04281792
:100FD000390771F4809128042091270490E0805C07
:100FE0009F4F821B910960E470E00E941B210895CD
:100FF00090E080E008952091290430912A04281778
:101000003907B9F49091270480912804981789F042
:10101000E0912704F0E0E556FC4F80812091270401
:1010200030E02F5F3F4F2F7333272093270490E04A
:1010300008958FEF9FEF089590E080E0089510925B
:101040009A0361E089E00E94F40264E670E080E0C7
:1010500090E00E94C00461E08AE00C94F40260E039
:101060008CE00E94F40268E572E080E090E00E946B
:10107000C00461E08CE00C94F40260E085E00E9422
:10108000F40260E47CE980E090E00E94C00461E04A
:1010900085E00C94F4028F929F92AF92BF92FF92E0
:1010A0000F931F93CF93DF93982F990F990F990F59
:1010B00024E0F22EF90E98E0899FE00111242B968E
:1010C000469F002D112410E030E020E04801590136
:1010D000A62A322F212F102F0027802A912AA22AF8
:1010E000B32A8F2D90E0C817D9077CF020911F06F6
:1010F000309120068217930720F4B501A4010E94C5
:101100008E000E940204F394ECCFDF91CF911F91E7
:101110000F91FF90BF90AF909F908F9008950F9385
:10112000362FE42F90E040911F065091200684173F
:10113000950740F4422F50E070E060E05E2B632B97
:101140000E948E00002319F00F910C9402040F915D
:1011500008950F9380912B04882361F001E020E033
:1011600040E060E080E00E948F0881E0809307010A
:1011700010922B040F91089590913D04906221E00C
:10118000209385049093A704109286041092A804DB
:10119000682F87E595E00E94F7060E94F300809192
:1011A0003D0461E080620E94500110923C048093F3
:1011B0003B0487E595E00E94B0060895CF93C82FC1
:1011C000C770883060F083E10E94BC0890E002C0E4
:1011D00095958795CA95E2F78170CF91089582E140
:1011E000F3CFCF93DF93C82FD1E0883008F4D0E05D
:1011F0008D2F0E94BC08C77041E050E060E070E0B5
:1012000004C0440F551F661F771FCA95D2F7682F79
:10121000642B8D2FDF91CF910C942607CF93DF9312
:10122000C82FDDE0883008F4DCE08D2F0E94BC0878
:10123000C77041E050E060E070E004C0440F551F0B
:10124000661F771FCA95D2F7682F642B8D2FDF9109
:10125000CF910C942607CF92DF92EF92FF920F93DB
:101260001F93CF93DF93C0913304D0913404F09057
:101270006305E0906405FE01EE0FFF1FE25BFE4F89
:10128000608171818F2D9E2D0E945C0796E4C92E8E
:1012900091E0D92E10E000E08091110190911201AF
:1012A0000817190784F561E08F2D0E9450011092F4
:1012B0003C0480933B0487E595E00E94B006F6016C
:1012C000419151916F01209135043091360482276C
:1012D000932784179507A1F485E08C9FF0018D9FDB
:1012E000F00D1124EE5CFE4FE00FF11F8081082EFF
:1012F000000C990B909332048093310480E00DC070
:101300000F5F1F4FC9CF8091310490913204009735
:1013100069F01092320410923104DF91CF911F9145
:101320000F91FF90EF90DF90CF9008956FEF70E0F6
:101330008F2D9E2D0E945C072196D0933404C0937C
:1013400033048091130190911401C817D907B1F6A5
:101350001092340410923304D1CF0F931F93CF9384
:101360008C01C62F0E9441076C2F6460C8010E9447
:1013700041076C2F6B7FC8010E94410783EC90E00E
:101380000197F1F7CF911F910F9108950F931F933C
:10139000CF93DF938C01D62FC42F607F642B0E94E4
:1013A000AD0980E1D89FB00111246C2BC801DF91F9
:1013B000CF911F910F910C94AD09CF93DF93CDB7CF
:1013C000DEB728970FB6F894DEBF0FBECDBF98E00A
:1013D000EBE1F1E0DE01119601900D929A95E1F7B3
:1013E00090913B06961710F46FEF690F262F30E0AF
:1013F000220F331F41E050E04C0F5D1F240F351FBB
:10140000F9016081680F606840E083E396E0289608
:101410000FB6F894DEBF0FBECDBFDF91CF910C9415
:10142000C60940E061E083E396E00E94C6098BE3D1
:101430009FE10197F1F780913C06882321F060E05D
:1014400080E00C94DD09089541E00E94C60981E026
:1014500090E00895CF93DF93EC0188819981009704
:1014600011F00E942D22198218821D821C821B827B
:101470001A82DF91CF910895FC01808191810097BC
:1014800011F00C942D220895CF93DF9310923F0614
:1014900060E083E396E00E9441074091210650916D
:1014A000220670E060E080912606909127060E9457
:1014B0007C230E94020461E08BE00E94F40283E03E
:1014C0000E94DE08882359F180911B0690911C062A
:1014D0000A9764F4E9E9F5E0D0E0C0E081919191E8
:1014E000892B11F12196CA30D105C1F7CFEFDFEF7B
:1014F000D0939903C093980381E080939A0368EE98
:1015000073E080E090E00E94C00481E080932C04AE
:101510008093070110922B04DF91CF91089561E031
:101520008AE00E94F402EBCFFE01EE0FFF1FEE0FE8
:10153000FF1FE355FA4F80EC94EDA1E0B0E080830B
:101540009183A283B383FE01EE0FFF1FE756FA4F8C
:101550008FE198E091838083FE01EE0FFF1FEB5235
:10156000FA4F81E090E091838083FE01E350FA4FCF
:1015700080830E943506FE01EE0FFF1FEE0FFF1F56
:10158000EF58FA4F608371838283938380911B06A7
:1015900090911C06019690931C0680931B06A8CF81
:1015A00060E086E00E94F40260E47CE980E090E084
:1015B0000E94C00461E086E00E94F4020C94440A98
:1015C0002091690530916A05232B39F421E0FC0153
:1015D0008081882361F020E00AC0BC01809165050C
:1015E000909166050E94832321E0892BA1F7822F29
:1015F0000895FB0101900020E9F73197AF01461BE8
:10160000570BDC01ED91FC910280F381E02D0994F0
:101610008F929F92AF92BF92EF92FF920F931F9380
:10162000CF93DF93CDB7DEB7A1970FB6F894DEBFA7
:101630000FBECDBF7C01FA01CB0119A2223008F404
:101640002AE08E010F5D1F4F822E912CB12CA12C10
:10165000BF01A50194010E942F21F901CA016A303E
:101660000CF5605DD8016E938D01232B242B252B67
:1016700079F790E080E0109721F0BD01C7010E944A
:10168000F90AA1960FB6F894DEBF0FBECDBFDF9169
:10169000CF911F910F91FF90EF90BF90AF909F90CF
:1016A0008F900895695CDECF462F50E070E060E0D7
:1016B0002AE00C94080BAB01770F660B770B2AE03E
:1016C0000C94080B0F931F93CF93DF93EC010E94B0
:1016D000F90A8C0168E971E0CE010E94F90A800FD5
:1016E000911FDF91CF911F910F9108950C94F90AEA
:1016F0000F93CF93C09106018C2F880F63E08C0F5E
:101700000E94DD09C33008F06FC0EC2FF0E0E0501C
:10171000FF4F8081682F70E08530E8F164507109D7
:1017200083E396E00E945B0B6FEB71E083E396E04E
:101730000E94760B20910601822F90E0FC01E85F69
:10174000FE4F31E03083FC01E050FF4FE081F0E0DC
:10175000E85DFE4F6081FC01E45FFE4F6083825DC7
:101760009B4FFC018081689F602D112441E082E045
:10177000821B0E944B0880910601982F990F63E00D
:10178000890F0E94DD0968EC70E080E090E0CF9165
:101790000F910C94C0046F5F7F4F83E396E00E942B
:1017A0005B0B67EA71E083E396E00E94760B209181
:1017B0000601822F90E0FC01E85FFE4F1082FC01E1
:1017C000E050FF4FE081F0E0E35DFE4F6081FC01FF
:1017D000E45FFE4F6083825D9B4FFC018081689FC8
:1017E000602D112440E0C3CFC43029F5609104017D
:1017F00083E396E00E94540BE0910601F0E0E05094
:10180000FF4FE081F0E0E85DFE4FC081C093100122
:1018100001E020E040E06C2F81E00E948F0881E031
:101820000E94DE08C89F602D112420E040E082E085
:101830000E948F08A0CFC330B1F46091030183E30D
:1018400096E00E94540BE0910601F0E0E050FF4F5B
:10185000E081F0E0ED5DFE4F808180930F0190E02C
:101860000E94850388CFEC2FF0E0E050FF4FE0812D
:10187000EF3008F080CFF0E0E05CF34F0C94702183
:101880004F0C560C590C5C0C5F0C620C650C680C10
:10189000710C740C770C7A0C7D0C800C6E0C68E269
:1018A00072E083E396E00E94760B65CF69EA71E00F
:1018B000F8CF6FEA71E0F5CF65EB71E0F2CF6BEB3B
:1018C00071E0EFCF61EC71E0ECCF67EC71E0E9CF54
:1018D00080912D0461EA71E0882319F36BE971E0CE
:1018E000E0CF6DEC71E0DDCF63ED71E0DACF69ED53
:1018F00071E0D7CF6FED71E0D4CF65EE71E0D1CF5D
:101900006BEE71E0CECF0F931F93CF93DF938C01DB
:10191000EB01FC01808191810097E1F06881798180
:1019200061157105A9F0428153812C813D814217D7
:10193000530770F00E948C238C819D81F801958360
:1019400084831D821C82DF91CF911F910F91089596
:101950000E942D2288819981F801918380838A8158
:101960009B81938382838C819D819583848319825B
:1019700018821B821A82E5CF0F931F93CF93DF93B8
:10198000EC0188819981009759F02A813B812617C3
:10199000370730F081E0DF91CF911F910F910895CB
:1019A0008B016F5F7F4F0E94B622009759F0998399
:1019B00088831B830A832C813D81232B59F7FC01EB
:1019C0001082E8CF80E0E7CFEF92FF920F931F9352
:1019D000CF93DF936115710541F480E0DF91CF91E2
:1019E0001F910F91FF90EF90089541155105B1F0AF
:1019F0007B01EC010C811D81040F151FB8010E94B1
:101A0000BC0C882351F3288139818C819D81B701D9
:101A1000820F931F0E948C231D830C8381E0DECFF5
:101A2000EF92FF920F931F93CF93DF93EC017B0113
:101A30008A01BA010E94BC0C81110BC0CE010E9428
:101A40002A0ACE01DF91CF911F910F91FF90EF9065
:101A500008951D830C83B701888199810E948C238E
:101A6000F0CFCF93DF93EC01FB018617970749F086
:101A7000608171816115710541F0448155810E9439
:101A8000100DCE01DF91CF9108950E942A0AF9CF5F
:101A9000FC01118210821382128215821482FB01D2
:101AA00001900020E9F73197AF01461B570B0C94CA
:101AB000100DEF92FF920F931F93CF93DF9300D0FF
:101AC000CDB7DEB78C017B016AE971E00E94480D59
:101AD000C7010E94410697FD0EC08332910559F05F
:101AE00089831A8241E050E0BE016F5F7F4FC801D9
:101AF0000E94E40CEDCFC8010F900F90DF91CF91C1
:101B00001F910F91FF90EF900895AF92BF92CF92E7
:101B1000DF92EF92FF920F931F93CF93DF937C019D
:101B20006B015A0189012417350720F48B2D5901C7
:101B3000042F182F6AE971E0C7010E94480DD601F1
:101B40001496CD91DC91AC16BD0620F50C171D073F
:101B500008F4E801D601ED91FC911197EC0FFD1FFF
:101B6000108110826D917C916A0D7B1D611571054C
:101B7000E9F0FB0101900020E9F73197AF01461B26
:101B8000570BC7010E94100DF60180819181C80F8B
:101B9000D91F1883C701DF91CF911F910F91FF903B
:101BA000EF90DF90CF90BF90AF900895C7010E9453
:101BB0002A0AEACFEF92FF920F93CF93DF9300D0E0
:101BC00000D000D0CDB7DEB77C018091100101E0DC
:101BD000623009F449C0633009F44AC0282F40E05C
:101BE000613009F043C020E040E0682F81E00E94AE
:101BF0008F0844E150E061EF71E0C7010E94E40CFE
:101C00002FE030E050E040E0B701CE0101960E94A5
:101C1000850DBE016F5F7F4FC7010E94830CCE010F
:101C200001960E943C0A61E080E00E94DD09F70114
:101C3000448155816081718183E396E00E94950122
:101C400080910601982F990F63E0890F0E94DD09AA
:101C500026960FB6F894DEBF0FBECDBFDF91CF91B1
:101C60000F91FF90EF900895282F482F60E0BECF8E
:101C700020E0FBCF0F931F93CF93DF9300D000D0D2
:101C800000D0CDB7DEB780919A038823F1F110928E
:101C90009A0380919803909199038A309105ACF54D
:101CA00020911B0630911C062115310571F1FC01B4
:101CB000EE0FFF1FE756FA4F40815181452B29F166
:101CC00011821082FC01E350FA4F1082FC01EE0FEA
:101CD000FF1FE95FF94F11821082FC01EE0FFF1F19
:101CE000EE0FFF1FE355FA4F10821182128213820A
:101CF000880F991FFC01E751FA4F11821082215081
:101D0000310930931C0620931B0660E08AE00E9494
:101D1000F40260ED77E080E090E00E94C004109152
:101D2000100100E020E040E0612F81E00E948F0878
:101D300020E040E0612F82E00E948F0801E02FE068
:101D40004FE06FE080E00E948F0880910F0190E0EB
:101D50000E9485030E94110A0E94540762E080E0FD
:101D60000E94DD0966E072E083E396E00E94760B54
:101D700063E080E00E94DD0969E172E083E396E0C0
:101D80000E94760B80910601982F990F63E0890FCE
:101D90000E94DD0960913906862F816080933906A3
:101DA000696040E083E396E00E94C6096EE272E05B
:101DB000CE0101960E94480D61E0CE0101960E947D
:101DC000DA0DCE0101960E943C0A60E08BE00E9491
:101DD000F40281E00E94DE0891E0811190E090938E
:101DE0002C041092070110922B0426960FB6F8943B
:101DF000DEBF0FBECDBFDF91CF911F910F91089530
:101E0000CF93DF9300D000D000D0CDB7DEB760E035
:101E10008AE00E94F40260ED77E080E090E00E94AA
:101E2000C00461E372E0CE0101960E94480D60E0BB
:101E3000CE0101960E94DA0DCE0101960E943C0A65
:101E400060E087E00E94F40260E47CE980E090E0DA
:101E50000E94C00469E372E0CE0101960E94480D21
:101E600061E0CE0101960E94DA0DCE0101960E943A
:101E70003C0A61E087E00E94F40226960FB6F894CF
:101E8000DEBF0FBECDBFDF91CF910895CF93DF931B
:101E900000D000D000D0CDB7DEB761E472E0CE0153
:101EA00001960E94480D60E0CE0101960E94DA0D75
:101EB000CE0101960E943C0A60E088E00E94F40294
:101EC00060E47CE980E090E00E94C00469E472E094
:101ED000CE0101960E94480D61E0CE0101960E945C
:101EE000DA0DCE0101960E943C0A61E088E00E9472
:101EF000F40261E08AE00E94F40226960FB6F8949C
:101F0000DEBF0FBECDBFDF91CF9108950F931F931A
:101F1000CF93DF9300D000D000D0CDB7DEB78C01D7
:101F20008AEB94E00E94F3016AEB74E0892B41F4A0
:101F300080E496E00E94E307892B49F160E476E0B3
:101F4000CE0101960E94590DBE016F5F7F4F85E65D
:101F500095E00E94830CCE0101960E943C0AF80194
:101F600011821082138212821582148265E675E056
:101F7000C8010E94310DC80126960FB6F894DEBF45
:101F80000FBECDBFDF91CF911F910F9108956AE9E8
:101F900071E0C8010E94480DEECF0F931F93CF93BD
:101FA000DF93CDB7DEB72C970FB6F894DEBF0FBE28
:101FB000CDBF8C0162E572E08AEB94E00E94620B77
:101FC00061E089E00E94F40261E08BE00E94F4028B
:101FD00061E08CE00E94F40261E088E00E94F4027B
:101FE00061E087E00E94F40261E086E00E94F40272
:101FF00061E085E00E94F40261E08BE00E94F4025F
:1020000081E080932D0466E572E0CE0101960E9486
:10201000480DF8014481558160817181CE0101969E
:102020000E94E40C811104C0CE0101960E942A0A8C
:1020300018861F821A8619861C861B86BE016F5F52
:102040007F4FCE0107960E94310D63E0CE010796C7
:102050000E94DA0DCE0107960E943C0ACE0101963D
:102060000E943C0A01E020E042E360E081E00E943F
:102070008F080E94540784E10E94DE08811107C086
:1020800064E670E080E090E00E94C004F4CF2C96FB
:102090000FB6F894DEBF0FBECDBFDF91CF911F9179
:1020A0000F9108957F928F929F92AF92BF92CF929D
:1020B000DF92EF92FF920F931F93CF93DF9300D0A5
:1020C00000D000D0CDB7DEB74B015C01042F722EDB
:1020D0000E9435066B017C0110E00E9435066C19E8
:1020E0007D098E099F09681579058A059B0508F009
:1020F0007BC0CE0101960E94860FBE016F5F7F4FAD
:1021000085E695E00E94830CCE0101960E943C0A70
:102110008DE592E00E94E00A882349F160E672E0D2
:102120008AEB94E00E94620B62E672E0CE010196B7
:102130000E94480DCE0101960E94CD0FCE0101965E
:102140000E943C0A80E026960FB6F894DEBF0FBED0
:10215000CDBFDF91CF911F910F91FF90EF90DF9056
:10216000CF90BF90AF909F908F907F90089581E027
:102170000E94DE08811106C083E00E94DE08811102
:1021800001C01F5F133018F062EC72E0CFCF002364
:1021900069F085E00E94DE08882341F087E00E9414
:1021A000DE08882319F069E672E0C0CF772069F075
:1021B00086E00E94DE08882319F062E772E0B6CF5D
:1021C00082E00E94DE088111F8CF84E10E94DE08DF
:1021D000811103C069E772E0A9CF64E670E080E096
:1021E00090E00E94C00479CF81E0ADCF0F931F93A0
:1021F000CF93DF9300D000D000D0CDB7DEB7182F3B
:102200008AE00E94CB0200E0892B59F060E08AE06E
:102210000E94F40260ED77E080E090E00E94C0044C
:1022200001E0112309F4BAC086E00E94DE088111A2
:10223000D6C082E00E94DE088111D1C060E872E061
:10224000CE0101960E94480D62E0CE0101960E94E7
:10225000DA0DCE0101960E943C0A002321F061E0D4
:102260008AE00E94F40210E0812F26960FB6F894BF
:10227000DEBF0FBECDBFDF91CF911F910F910895AB
:1022800064E670E080E090E00E94C00486E00E9476
:10229000DE088111F5CF82E00E94DE088111F0CFC7
:1022A00068E873E180E090E00E94C00461E087E0AC
:1022B0000E94F40261E085E00E94F40260E972E0AD
:1022C000CE0101960E94480D61E0CE0101960E9468
:1022D000DA0DCE0101960E943C0A69E972E080E4C1
:1022E00096E00E94620BC0CF6091100101E020E0F7
:1022F000462F81E00E948F0861E08BE00E94F4028B
:102300006DE972E0CE0101960E94480D61E0CE01B8
:1023100001960E94DA0DCE0101960E943C0A60E00F
:1023200086E00E94F40220E041E060E47FE180E08A
:1023300090E00E945210882309F495CF65EA72E07C
:10234000CE0101960E94480D60E0CE0101960E94E8
:10235000DA0DCE0101960E943C0A60E088E00E94FE
:10236000F40220E041E060E47CE980E090E00E943B
:102370005210182F882309F476CF61E088E00E947C
:10238000F40261E086E00E94F4026EEA72E080E40A
:1023900096E00E94620B0E94440A66CF84E00E948D
:1023A000DE08811106C080E00E94DE08882309F45F
:1023B00045CF85E00E94DE08882309F495CF60E8C8
:1023C00072E0CE0101960E94480D62E0CE010196B6
:1023D0000E94DA0DCE0101960E943C0A45CF0E9470
:1023E0003A0E0E94540761E372E0CE0101960E940A
:1023F000480D60E0CE0101960E94DA0DCE010196F3
:102400000E943C0A60E087E00E94F40268E873E101
:1024100080E090E00E94C00460E085E00E94F40249
:1024200062EB72E0CE0101960E94480D60E0CE01A1
:1024300001960E94DA0DCE0101960E943C0A60E3EB
:1024400075E780E090E020CF0F931F93CF93DF9349
:1024500000D000D000D0CDB7DEB7082F8AE00E94B0
:10246000CB0210E0892B59F060E08AE00E94F40270
:1024700060ED77E080E090E00E94C00411E085E02C
:10248000011187E00E94DE0881111EC060E872E041
:10249000CE0101960E94480D62E0CE0101960E9495
:1024A000DA0DCE0101960E943C0A111142C010E0E3
:1024B000812F26960FB6F894DEBF0FBECDBFDF91F9
:1024C000CF911F910F91089581E00E94DE0888232B
:1024D000A9F183E00E94DE08882321F061E089E011
:1024E0000E94F4026091100101E020E0462F81E09B
:1024F0000E948F0886E00E94DE0881114EC082E0B3
:102500000E94DE08811149C08BE00E94CB02892B1A
:1025100009F44FC060E08BE00E94F40220E041E04B
:1025200060E177E280E090E00E945210811141C0AA
:10253000BECF61E08AE00E94F402B9CF6BEB72E09B
:10254000CE0101960E94480D62E0CE0101960E94E4
:10255000DA0DCE0101960E943C0A67EC72E080E43D
:1025600096E00E94F90A03E181E00E94DE088111F1
:1025700002C0015059F481E00E94DE088111A9CF08
:1025800083E00E94DE088111A4CF8FCF60E177E263
:1025900080E090E00E94C004E7CF8BE00E94CB0275
:1025A000892B21F060E08BE00E94F40281E00E9420
:1025B000F6106BEC72E0CE0101960E94480D60E0CF
:1025C000CE0101960E94DA0DCE0101960E943C0ACE
:1025D00041E064E682E00E944B0885E00E94DE084C
:1025E000882309F45BC087E00E94DE08882309F491
:1025F00055C021E040E068EF7AE280E090E00E9480
:102600005210882309F453CF85E00E94DE0881111F
:102610005CC021E040E060ED77E080E090E00E9467
:102620005210182F882309F442CF41E060E082E085
:102630000E944B0887E00E94DE08882309F452C0FC
:1026400083E00E94DE08882321F061E089E00E9497
:10265000F4026FED72E0CE0101960E94480D61E038
:10266000CE0101960E94DA0DCE0101960E943C0A2D
:1026700064EF71E080E090E00E94C00480E00E947E
:10268000F6106BEE72E080E496E00E94620B68EE5A
:1026900073E088EB91E00E94F2040ACF60E08CE0E6
:1026A0000E94F40268E572E080E090E00E94C004BD
:1026B00061E08CE00E94F40221E040E060EA7FE00B
:1026C00080E090E00E94521088CF87E00E94DE08F0
:1026D000882309F49ECF21E040E068EE73E080E0BB
:1026E00090E08DCF6FEE72E080E496E00E94620B86
:1026F00063EF72E0CE0101960E94480D61E0CE01C9
:1027000001960E94DA0DCE0101960E943C0A60E01B
:1027100089E00E94F402BBCF1F920F920FB60F9276
:1027200011242F933F934F935F936F937F938F93D6
:102730009F93AF93BF93EF93FF938091AE049091DB
:10274000AF04A091B004B091B104892B8A2B8B2BDC
:10275000D1F19091A904E091AA04F091AB04808199
:10276000892780838091AE049091AF04A091B0043A
:10277000B091B104181619061A061B069CF4809134
:10278000AE049091AF04A091B004B091B104019750
:10279000A109B1098093AE049093AF04A093B00453
:1027A000B093B104FF91EF91BF91AF919F918F9141
:1027B0007F916F915F914F913F912F910F900FBE3D
:1027C0000F901F90189580910B01E2E7F0E0E491E3
:1027D0009FEF90930B01E13051F030F0E23069F05F
:1027E00060E00E94F402DECF10926E00F9CF90916B
:1027F0006F009D7F90936F00F3CF909170009D7F4D
:102800009093700091E09093B0009091B100987F08
:1028100094609093B1001092B300E2CF1F920F9298
:102820000FB60F9211242F933F934F935F936F93A3
:102830007F938F939F93AF93BF93EF93FF938AEB15
:1028400094E00E941302FF91EF91BF91AF919F918D
:102850008F917F916F915F914F913F912F910F9049
:102860000FBE0F901F9018951F920F920FB60F92E8
:1028700011242F938F939F93EF93FF93E091CA04BA
:10288000F091CB048081E091D004F091D10482FDDD
:102890001BC090818091D3048F5F8F732091D404EB
:1028A000821741F0E091D304F0E0E654FB4F958F9E
:1028B0008093D304FF91EF919F918F912F910F906F
:1028C0000FBE0F901F9018958081F4CF1F920F922A
:1028D0000FB60F9211242F933F938F939F93AF9333
:1028E000BF9380911F0490912004A0912104B09186
:1028F000220430911E0423E0230F2D3758F5019652
:10290000A11DB11D20931E0480931F0490932004E9
:10291000A0932104B0932204809123049091240475
:10292000A0912504B09126040196A11DB11D8093AC
:10293000230490932404A0932504B0932604BF910C
:10294000AF919F918F913F912F910F900FBE0F905C
:102950001F90189526E8230F0296A11DB11DD2CF16
:102960001F920F920FB60F9211242F933F934F9304
:102970005F936F937F938F939F93AF93BF93EF93E7
:10298000FF938091B900887F803609F44AC0F0F542
:10299000883209F4A7C018F5803109F49BC0B8F457
:1029A000882309F4F9C0883009F494C0FF91EF91AD
:1029B000BF91AF919F918F917F916F915F914F9157
:1029C0003F912F910F900FBE0F901F901895883157
:1029D00009F488C0803251F78093820414C0803497
:1029E00009F49DC040F48033B9F38833F9F680933D
:1029F000820485ECB0C0803509F485C0883509F4BF
:102A000096C0883499F60E946F06D0CF883909F4B1
:102A10008CC038F5883729F050F4883611F08037AB
:102A200029F683E08093840410921D0457C08838EF
:102A300009F47BC0803919F0803809F0B7CF809154
:102A40001D04803208F071C0E0911D0481E08E0FFA
:102A500080931D048091BB00F0E0E350FC4F808325
:102A60003DC0803B39F0E0F4803A09F479C0883AFF
:102A700009F09CCF84E0809384041092FC031092B0
:102A8000FB03E0913904F0913A0409958091FB032E
:102A900081110FC081E08093FB031092DB0309C01A
:102AA000803C09F4A6CF883C09F4A3CF883B09F009
:102AB0007DCFE091FC0381E08E0F8093FC03F0E07A
:102AC000E552FC4F80818093BB009091FC03809184
:102AD000FB0329C080915F048093BB0085EC809349
:102AE000BC0064CF9091810480918004981758F5C0
:102AF000E091810481E08E0F80938104F0E0E05A40
:102B0000FB4F8081E9CFE091810481E08E0F8093BB
:102B100081048091BB00F0E0E05AFB4F80839091EC
:102B20008104809180049817C8F285E8D8CFE0919D
:102B3000810481E08E0F809381048091BB00F0E0DE
:102B4000E05AFB4F80838091830481115CCF81E048
:102B500080935E0484EA8093BC001092840426CFA4
:102B600085EC8093BC001092840480911D04803217
:102B700030F4E0911D04F0E0E350FC4F10826091CE
:102B80001D0470E0E0913704F09138048DEF93E07C
:102B9000099510921D040ACF1092820434CF1F921F
:102BA0000F920FB60F9211242F933F934F935F9381
:102BB0006F937F938F939F93AF93BF93EF93FF9305
:102BC000E0912904F0912A04309749F0A685B78551
:102BD0008585968D91FF14C09C918923A1F4FF9166
:102BE000EF91BF91AF919F918F917F916F915F9185
:102BF0004F913F912F910F900FBE0F901F901895FE
:102C00009C91892361F7A389B4899C9185898095DA
:102C100089238C93868997890197F1F7608D718D4F
:102C2000A685B785558538E020E0CB010197F1F7FF
:102C3000822F90E095958795282F4C91452309F098
:102C40002068315091F7868D81FD20958091280470
:102C500090E001968F73992730912704381799F0E7
:102C6000A0912804B0E0A556BC4F2C938093280473
:102C7000828D938D0197F1F7A389B4898C91958901
:102C8000892B8C93ACCF868D8160868FF1CFCF93CB
:102C9000DF931092BD041092BC0488EE93E0A0E094
:102CA000B0E08093BE049093BF04A093C004B0939F
:102CB000C1042AE531E03093BB042093BA0425EC2B
:102CC00030E03093C7042093C60424EC30E0309306
:102CD000C9042093C80420EC30E03093CB04209347
:102CE000CA0421EC30E03093CD042093CC0422ECD4
:102CF00030E03093CF042093CE0426EC30E03093C4
:102D0000D1042093D0041092D3041092D4041092D2
:102D1000D5041092D60410925A051092590580934A
:102D20005B0590935C05A0935D05B0935E052CE672
:102D300031E03093580520935705109243061092C6
:102D400042068093440690934506A0934606B093AE
:102D500047068AE891E090934106809340061092DE
:102D60005706109256061092590610925806109265
:102D70005B0610925A0610925D0610925C066091F6
:102D80005E066E7F6D7F60935E066695617081E082
:102D9000682782E00E94F40261E082E00E9454030E
:102DA000E1EBF0E0E491E0935006EDE9F0E0E4912E
:102DB000F0E0EE0FFF1FEF56FF4F85919491909337
:102DC00052068093510660E080E10E945403809196
:102DD0005E0681FD04C061E080E10E94F40280E1B2
:102DE00080934C06EFEBF0E0E491E0934D06EBEAC4
:102DF000F0E0E491F0E0EE0FFF1FE957FF4F8591FF
:102E0000949190934F0680934E0686E290E09093C3
:102E100064058093630584E090E0909314018093AF
:102E200013019093120180931101109236061092B3
:102E300035068EE791E09093340680933306109226
:102E40003C0687E28093370684E180933D0684E068
:102E500080933E0610923F0610921E0610922506A1
:102E600010922C0610922D0610922E0610922F060C
:102E700081E080932B06809328061092290682E039
:102E800080932A0610921D0684E590E09093220616
:102E9000809321060E949121909327068093260615
:102EA000009709F45DC024E5DC011D922A95E9F73D
:102EB0008CE190E09093200680931F0684E090E0E0
:102EC000909324068093230680911E06882341F068
:102ED00061E084E00E94540360E084E00E94F40218
:102EE000EFE9F0E0E491F0E0EE0FFF1FEF56FF4F47
:102EF000859194919093310680933006E3EBF0E056
:102F0000E491E09332060E943506CDEFD5E0E9E981
:102F1000F5E041E755E0199211921192DA016D93B3
:102F20007D938D939D93AD019F01225B3F4FD9010E
:102F30001D921C92B5E0ED3AFB0769F710921C0652
:102F400010921B066FEF72E08BE695E00E94480D31
:102F50006AE971E085E695E0DF91CF910C94480D28
:102F600010922206109221061092200610921F063F
:102F7000A5CFCF93DF93CDB7DEB766970FB6F894A2
:102F8000DEBF0FBECDBF789484B5826084BD84B5AA
:102F9000816084BD85B5826085BD85B5816085BD54
:102FA00080916E00816080936E001092810080910C
:102FB0008100826080938100809181008160809394
:102FC0008100809180008160809380008091B100B9
:102FD00084608093B1008091B00081608093B000E4
:102FE00080917A00846080937A0080917A00826078
:102FF00080937A0080917A00816080937A0080913A
:103000007A00806880937A001092C100E091CA042F
:10301000F091CB0482E08083E091CA04F091CB046C
:103020001082E091C604F091C7041082E091C804B8
:10303000F091C90480E180831092D204E091CE0423
:10304000F091CF0486E08083E091CC04F091CD0430
:10305000808180618083E091CC04F091CD048081F7
:1030600088608083E091CC04F091CD0480818068F9
:103070008083E091CC04F091CD0480818F7D8083AA
:1030800010925B0610925A0610925906109258063A
:1030900010925706109256068DE991E090935D06C6
:1030A00080935C0690914C06963108F047C02DEB5A
:1030B00030E030935706209356062BE931E03093E9
:1030C0005906209358062CE231E030935B0620939A
:1030D0005A062091680084E0983048F031E09E3034
:1030E00008F430E081E001C0880F3A95EAF7822BBE
:1030F000809368002DE630E0983050F02BE630E009
:103100009E3030F02CE630E0963110F030E020E0D8
:103110003093540620935306292F30E0983008F05E
:10312000C4C281E001C0880F9A95EAF780935506E2
:1031300080915C0690915D060197F1F780915A06A7
:1031400090915B06892B49F1E0912904F0912A04C2
:1031500026E0E034F20709F1309739F0A389B48909
:103160009C918589809589238C9380915E068E7FC2
:1031700080935E06109228041092270480E496E063
:1031800090932A0480932904E0915306F091540609
:10319000808190915506892B808310923D040E9476
:1031A00022036FEF80E00E9426076FEF81E00E940C
:1031B00026076FEF70E080916305909164050E948F
:1031C0005C07109234041092330461E08AE00E949C
:1031D000F40261E08AE00E94540361E089E00E9409
:1031E000F40261E089E00E94540361E08BE00E94F8
:1031F000F40261E08BE00E94540361E08CE00E94E5
:10320000F40261E08CE00E94540361E088E00E94D7
:10321000F40261E088E00E94540361E087E00E94CC
:10322000F40261E087E00E94540361E086E00E94BE
:10323000F40261E086E00E94540361E085E00E94B0
:10324000F40261E085E00E94540361E08BE00E949B
:10325000F40287E00E94F10887E00E940E0985E0F1
:103260000E94F10885E00E940E0986E00E94F108A4
:1032700086E00E940E0984E00E94F10884E00E942A
:103280000E0982E00E94F10882E00E940E0980E0AF
:103290000E94F10880E00E940E0984E10E94F1087A
:1032A00084E10E940E0983E00E94F10883E00E94FD
:1032B0000E0981E00E94F10861E083E00E9454035E
:1032C00080910F0190E00E9485038DE00E94F1083B
:1032D0008DE00E940E098BE00E94F1088BE00E94B5
:1032E0000E098EE00E94F1088EE00E940E0988E02F
:1032F0000E94F10888E00E940E0989E00E94F1080E
:1033000089E00E940E098AE00E94F1088AE00E948A
:103310000E09809123069091240697FD08C061E074
:103320000E94540360E0809123060E94F40281E031
:1033300080931E06409121065091220670E060E0C5
:1033400080912606909127060E947C230E94020409
:103350000E9422031092380680913E06823018F0B7
:1033600098E09093380680933B0662E370E080E03B
:1033700090E00E94C00460913F0683E396E00E94C3
:10338000410768EE73E080E090E00E94C00460E3D3
:1033900083E396E00E94AD090BE416E4C8010197AF
:1033A000F1F760E383E396E00E94AD09C80101975D
:1033B000F1F760E383E396E00E94AD0983E592E0D4
:1033C0000197F1F760E283E396E00E94AD09609116
:1033D0003806606240E083E396E00E94C60984E01C
:1033E0008093390640E06CE083E396E00E94C609D2
:1033F0000E94110A82E080933A0640E066E083E38F
:1034000096E00E94C60940E062E083E396E00E94F5
:10341000C6098BE39FE10197F1F762E080E00E942B
:10342000DD0966E072E083E396E00E94760B63E0DC
:1034300080E00E94DD096BE173E083E396E00E9487
:10344000760B80910601982F990F63E0890F0E94F7
:10345000DD0960913906862F8160809339066960A5
:1034600040E083E396E00E94C60960E08AE00E94A3
:10347000F40268E873E180E090E00E94C00487E015
:103480000E94DE08811106C085E00E94DE0860E02F
:10349000811101C061E089E00E94F40287E00E948E
:1034A000DE08882341F085E00E94DE08882319F0B9
:1034B00081E080932D0486E00E94DE08882309F4D1
:1034C00001C10E94440ABE016F5F7F4F7B0111E082
:1034D0000E9435062B013C0189E995E0988B8F8786
:1034E00051E7C52E55E0D52EDE8ACD8AFC01312C60
:1034F000212C9F0122593F4FD9011D921C9280819E
:1035000091813296892BB9F1AD89BE894D915D913A
:103510006D917C911397DC968D909D90AD90BC90B1
:10352000DF97D301C201841B950BA60BB70B88153F
:103530009905AA05BB05F8F0480D591D6A1D7B1DAC
:10354000AD89BE894D935D936D937C931397C101B3
:1035500083509A4FDC018C91882369F082AD93AD42
:10356000009709F0B7C0CF0184599F4F21E030E0A8
:10357000DC012D933C937FEF271A370A8D899E89B2
:1035800004969E8B8D8B9AE02916310409F0B1CFF9
:10359000B12CA12C4601A6E98A0E911CF401808170
:1035A00091818130910509F4B7C0029709F4BAC03E
:1035B000BFEFAB1ABB0AE2E0CE0ED11CFAE0AF16A9
:1035C000B10441F78DE00E94DE0881111BC000911B
:1035D0002F04012700932F0464E670E088EB91E04C
:1035E0000E94F20460910D01069F602D112440910C
:1035F000090181E00E944B086CE271E080E090E0FC
:103600000E94C0048EE00E94DE0881111BC0009160
:103610002E04012700932E0464E670E088EB91E00D
:103620000E94F20460910C01069F602D11244091CC
:10363000080182E00E944B086CE271E080E090E0BB
:103640000E94C0048BE00E94DE0881111BC0009123
:10365000300401270093300464E670E088EB91E0C9
:103660000E94F20460910E01069F602D112440918A
:103670000A0180E00E944B086CE271E080E090E07B
:103680000E94C00488E00E94DE088111A4C08091DD
:103690000701882309F477C00E945407109207019C
:1036A00068EC70E080E090E0A6C19E3040F42850C5
:1036B000310981E001C0880F2A95EAF737CD2E50F5
:1036C0003109F7CF82E00E94DE088111FACE0E9414
:1036D0003A0EF9CE5F013EE4A30EB11CD5014D9127
:1036E0005C91481759070CF046CF9F0124593F4F72
:1036F00061E070E0D9016D937C934F5F5F4FD5011E
:103700004D935C93481759070CF435CF62E070E095
:10371000D9016D937C932FCFD6019896ED91FC91B2
:10372000099546CFD6019896ED91FC910995809127
:103730001B0690911C06009709F43ACFF60120A5CC
:1037400031A5232B09F434CF11A610A6F501E350BF
:10375000FA4F1082D4011D921C92F501EE0FFF1F4B
:10376000EE0FFF1FEF58FA4F14AE15AE16AE17AEA0
:10377000F601E858FF4F11821082019790931C06C2
:1037800080931B0615CFE0910601E53009F050C18A
:10379000E0910501EE30F8F4F0E0EF52F44E0C94B5
:1037A0007021DF1BD31CD61CD91CDD1CDF1CE31CC5
:1037B000E51CFE1C011D041D071D0C1D151D62ECE2
:1037C00072E08AEB94E00E94620B67EC72E080E4A6
:1037D00096E00E94F90A8AE00E94DE08811118C072
:1037E0000E945407809106018F5F863008F02CC13B
:1037F0008093060180910601982F990F63E0890F4D
:103800000E94DD0968EC70E080E090E00E94C00456
:1038100089E00E94DE0881112AC080910601E82F0C
:10382000F0E0E050FF4F90819F5F9083953028F04B
:103830009DEF980F923008F410829081983040F0FC
:10384000853031F490912D04911102C01092050140
:1038500090819E3020F0853011F410920501908106
:103860009A3018F0853008F410820E94780B0E947C
:103870002B09082F882309F469C064E670E088EBFF
:1038800091E00E94F204B0900701BB2009F466C1E8
:1038900018861F821A8619861C861B8609831A823F
:1038A000F70101900020E9F73197AF014E195F0948
:1038B000B701CE0107960E94100D0E9435062B011C
:1038C0003C0101E02FE04FE06FE080E00E948F08B4
:1038D00080912B0481111AC080911B0690911C06C7
:1038E0000A9794F4D12CC12CAF85B8898D919D9104
:1038F000B88BAF87892B09F4C1C3BFEFCB1ADB0AA2
:10390000EAE0CE16D10481F710932B040E9435060D
:103910006419750986099709603177428105910517
:1039200008F495C06FE273E08AEB94E00E94620BAA
:103930006CE271E08CED90E00E94F204B12CCE01BB
:1039400007960E943C0AB11010920701C7010E941D
:10395000860FB70185E695E00E94830CC7010E949F
:103960003C0A8AE991E00E94E00A811176C18091C7
:103970002D048111EAC184E493E00E94E00A8823C7
:1039800009F437C181E00E94F61086E00E94DE084B
:10399000811106C082E00E94DE08882309F43EC13E
:1039A00060E672E03DC10E94000F15CF0E94460FF5
:1039B00012CF81E00E9424120ECF80E0FBCF81E085
:1039C0000E94F61008CF80E0FBCF80912D0401E02B
:1039D00020E0812780932D0460911001462F8111F2
:1039E00001C040E081E00E948F080E94780B60E2F5
:1039F00073E080E090E00E94C004EDCE0E943D089C
:103A0000EACE0E94D00AE7CE0E942F08E4CE60E002
:103A10008BE00E94F402DFCE60E08AE00E94F402B4
:103A200068EE73E080E090E0E6CF61E08AE0F1CFFD
:103A3000F0E0E050FF4F8081882309F4CCCE815024
:103A400080830E94780B2CCE10920601D3CE0E9468
:103A50002B09D82E882309F459CF64E670E088EB4F
:103A600091E00E94F20401E02FE04FE060E080E08E
:103A70000E948F0868EC70E080E090E00E94C00433
:103A80002FE04FE06FE080E00E948F081A821982D9
:103A90001C821B821E821D82BE01695F7F4FC7018F
:103AA0000E94310DDD861E8641E050E0BE01635F5D
:103AB0007F4FC7010E94E40C811103C0C7010E941F
:103AC0002A0AB701CE0107960E94310DC7010E9454
:103AD0003C0A2B853C854CEF420F2530310508F41C
:103AE00040E050E0BE01695F7F4FC7010E94850D35
:103AF000B701CE0107960E94830CC7010E943C0AC1
:103B00004B855C856F8178858AEB94E00E949501F6
:103B100068E971E08AEB94E00E94F90A2B853C8504
:103B200080916F05909170052817390709F0EECE46
:103B30008F81988560916B0570916C05009709F4F1
:103B4000D9C26115710539F4232B09F4E1C2FC01D6
:103B5000808190E0DAC20E948323D7C281E00533DE
:103B600019F0063321F480E00E942412EFCE81E0A8
:103B7000083319F0093321F480E00E94F610E6CEF4
:103B80000A3219F40E94000FE1CE033219F40E94A8
:103B9000460FDCCE802F000F990BF1E0833B9F078F
:103BA000B1F46091300461276093300480910E017C
:103BB000689F602D112440910A0180E00E944B080B
:103BC0006CE271E080E090E00E94C004BFCE875DAF
:103BD000914009F0BBCE60912F04612760932F04C0
:103BE00080910D01689F602D11244091090181E0B1
:103BF000E5CF87E493E00E94E00A882309F485C0BA
:103C000080E00E94F61086E00E94DE08811106C066
:103C100082E00E94DE08882309F4C2CE63EB71E0E3
:103C20008AEB94E00E94620B82E693E00E94E00A35
:103C300060E08111D4C085E693E00E94E00A60E074
:103C4000811108C088E693E00E94E00A882309F405
:103C5000B3C061E08AE00E94F402C0902C04D12C31
:103C600081E00E94DE088C151D0421F100911001F5
:103C700081E00E94DE08089F602D112401E020E011
:103C800040E082E00E948F0881E00E94DE0891E01F
:103C9000811101C090E090932C0481E00E94DE0825
:103CA00065E173E0811102C068E173E080E496E0B1
:103CB0000E94620B8AE00E94CB02892BC9F480919A
:103CC0002D04811115C085E00E94DE08882381F053
:103CD00087E00E94DE08882359F069E672E0C70198
:103CE0000E94480DC7010E94CD0FC7010E943C0AE7
:103CF00080E090E0892B09F4EBCB0E94FF01882340
:103D000009F4E5CB0E940000DECB8AE493E00E9438
:103D1000E00A882329F081E00E94241287E03BCE4C
:103D20008DE493E00E94E00A882329F080E00E945D
:103D3000241285E030CE80E593E00E94E00A8823DB
:103D400009F472CF10932D046FCF81E493E00E94A9
:103D5000E00A882319F010922D0466CF83E593E0E2
:103D60000E94E00A60E0811107C086E593E00E94AE
:103D7000E00A882329F061E08BE00E94F40254CF2E
:103D800089E593E00E94E00A882319F00E942F0839
:103D90004BCF8CE593E00E94E00A882319F00E9443
:103DA0003D0842CF8FE593E00E94E00A882309F4A2
:103DB0003BCF0E94D00A38CF8BE693E00E94E00A06
:103DC000882331F08AE00E94CB02892BF1F40AC0EB
:103DD0008EE693E00E94E00A882339F061E089E0F2
:103DE0000E94F40263EB71E036C081E793E00E9429
:103DF000E00A882369F086E00E94DE08811105C090
:103E000082E00E94DE08882369F360E672E023C046
:103E100084E793E00E94E00A882331F085E00E9465
:103E2000DE088111DFCFF1CF87E793E00E94E00A3F
:103E3000882311F089E0C7CF8AE793E00E94E00A67
:103E4000882371F083E00E94DE0864E073E0882339
:103E500011F069E073E08AEB94E00E94620BFDCE02
:103E60008DE793E00E94E00A882319F00E94460F34
:103E7000CCCF80E893E00E94E00A882319F00E94EA
:103E8000000FC3CF8DE592E00E94E00A882391F0F5
:103E900060E672E08AEB94E00E94620B62E672E0F8
:103EA000C7010E94480DC7010E94CD0FC7010E94A3
:103EB0003C0AD3CE83E893E00E94E00A882349F0CD
:103EC00080912D046FE073E08111C5CF61E173E053
:103ED000C2CF86E893E00E94E00A882341F0409137
:103EE0000A0160910E0180E00E944B087BCF89E8B7
:103EF00093E00E94E00A882331F040E060E080E037
:103F00000E944B0882CF8CE893E00E94E00A88234D
:103F100031F04091090160910D0181E0E5CF8FE81A
:103F200093E00E94E00A882321F040E060E081E015
:103F3000E7CF82E993E00E94E00A882329F067EC4A
:103F400072E080E496E089CF85E993E00E94E00A80
:103F5000882309F482CE85E00E94DE0861E070E0EB
:103F6000882311F070E060E08AEB94E00E945B0B24
:103F700087E00E94DE0861E070E0882311F070E0C5
:103F800060E08AEB94E00E945B0B84E00E94DE0814
:103F9000811104C00E94DE0861E0811160E070E0E0
:103FA0008AEB94E00E945B0B86E00E94DE088111A0
:103FB00005C082E00E94DE0861E0811160E070E0EF
:103FC0008AEB94E00E945B0B8AE00E94CB0261E0E6
:103FD00070E0892B11F070E060E08AEB94E00E94C1
:103FE0005B0B89E00E94CB0261E070E0892B11F04D
:103FF00070E060E08AEB94E00E945B0B81E00E943D
:10400000DE0863E173E0811102C067E972E08AEBC8
:1040100094E00E94760B80912D046FE073E0811193
:1040200002C061E173E08AEB94E00E94620B84E0DD
:104030000E94DE08682F8AEB94E00E94540B80E017
:104040000E94DE08682F8AEB94E00E94540B86E001
:104050000E94DE08682F8AEB94E00E94540B82E0F5
:104060000E94DE08682F8AEB94E00E94540B68E9F6
:1040700071E08AEB94E00E94F90AEFCDF601EE0FB1
:10408000FF1FEE0FFF1FE355FA4F60EE73E984E068
:1040900090E06083718382839383F601EE0FFF1FAC
:1040A000E756FA4F89EA98E091838083F601EE0F94
:1040B000FF1FEB52FA4FA1E0B0E0B183A083F601FD
:1040C000E350FA4F10830E943506F601EE0FFF1FF2
:1040D000EE0FFF1FEF58FA4F608371838283938343
:1040E00080911B0690911C06019690931C0680936C
:1040F0001B060ACC6115710559F0232B49F0DB0131
:104100008C9190E0919581959109892B09F0FECBD6
:104110006CE373E08AEB94E00E94620B6CE271E066
:1041200088EB91E00E94F20401E020E040E06FE0C3
:1041300080E00E948F0864EF71E080E090E00E94D0
:10414000C004FDCB85E695E00E943C0A8BE695E035
:104150000E943C0A80912606909127060E942D22FB
:10416000809123069091240697FD03C060E00E9491
:1041700054038AE891E09093410680934006809131
:10418000290490912A048054964071F4E0915306DA
:10419000F091540690818091550680958923808303
:1041A00010922A041092290408952F923F924F9260
:1041B0005F926F927F928F929F92AF92BF92CF92B7
:1041C000DF92EF92FF920F931F93CF93DF93CDB7C0
:1041D000DEB7CA1BDB0B0FB6F894DEBF0FBECDBF38
:1041E00009942A88398848885F846E847D848C8409
:1041F0009B84AA84B984C884DF80EE80FD800C8112
:104200001B81AA81B981CE0FD11D0FB6F894DEBFF4
:104210000FBECDBFED010895A29FB001B39FC001B5
:10422000A39F700D811D1124911DB29F700D811DE2
:104230001124911D089597FB072E16F4009407D0C2
:1042400077FD09D00E947D2107FC05D03EF49095B2
:1042500081959F4F0895709561957F4F0895A1E2D4
:104260001A2EAA1BBB1BFD010DC0AA1FBB1FEE1FF0
:10427000FF1FA217B307E407F50720F0A21BB30B3B
:10428000E40BF50B661F771F881F991F1A9469F7B7
:1042900060957095809590959B01AC01BD01CF0113
:1042A0000895052E97FB1EF400940E94682157FD87
:1042B00007D00E942F2107FC03D04EF40C946821F4
:1042C00050954095309521953F4F4F4F5F4F089542
:1042D00090958095709561957F4F8F4F9F4F089572
:1042E000EE0FFF1F0590F491E02D09940E940C2120
:1042F000B7FF0895821B930B0895AA1BBB1B51E1C6
:1043000007C0AA1FBB1FA617B70710F0A61BB70B45
:10431000881F991F5A95A9F780959095BC01CD01EA
:1043200008950F931F93CF93DF938230910510F47C
:1043300082E090E0E0916106F091620630E020E0DA
:10434000B0E0A0E0309799F42115310509F44AC096
:10435000281B390B24303105D8F58A819B816115E2
:10436000710589F1FB0193838283FE0111C04081B5
:1043700051810281138148175907E0F04817590706
:1043800099F4109761F012960C93129713961C9360
:104390003296CF01DF91CF911F910F910895009335
:1043A000610610936206F4CF2115310551F04217D2
:1043B000530738F0A901DB019A01BD01DF01F801C3
:1043C000C1CFEF01F9CF9093620680936106CDCF04
:1043D000FE01E20FF31F819391932250310939833B
:1043E0002883D7CF20915F0630916006232B41F4BC
:1043F00020911701309118013093600620935F06D9
:1044000020911501309116012115310541F42DB788
:104410003EB74091190150911A01241B350BE091D0
:104420005F06F0916006E217F307A0F42E1B3F0B26
:104430002817390778F0AC014E5F5F4F2417350716
:1044400048F04E0F5F1F5093600640935F068193C4
:1044500091939FCFF0E0E0E09CCFCF93DF93009764
:10446000E9F0FC01329713821282A0916106B091AB
:104470006206ED0130E020E01097A1F42081318147
:10448000820F931F20915F0630916006281739072D
:1044900009F061C0F0936006E0935F06DF91CF9171
:1044A0000895EA01CE17DF07E8F54A815B819E0196
:1044B00041155105B1F7E901FB83EA83499159910F
:1044C000C40FD51FEC17FD0761F48081918102961E
:1044D000840F951FE90199838883828193819B834F
:1044E0008A83F0E0E0E012968D919C9113970097FB
:1044F000B9F52D913C911197CD010296820F931F32
:1045000020915F06309160062817390739F63097F9
:1045100051F51092620610926106B0936006A09366
:104520005F06BCCFD383C28340815181840F951F26
:10453000C817D90761F44E5F5F4F88819981480F92
:10454000591F518340838A819B81938382832115E4
:10455000310509F0B0CFF0936206E09361069ECF7B
:10456000FD01DC01C0CF13821282D7CFB0E0A0E002
:10457000ECEBF2E20C94D7208C01009751F4CB01C4
:104580000E9491218C01C801CDB7DEB7E0E10C9407
:10459000F320FC01E60FF71F9C0122503109E217BE
:1045A000F30708F49DC0D901CD91DC911197C6178E
:1045B000D70798F0C530D10530F3CE0104978617A0
:1045C000970708F3C61BD70B2297C193D1936D931E
:1045D0007C93CF010E942D22D6CF5B01AC1ABD0A7D
:1045E0004C018C0E9D1EA0916106B0916206512C6B
:1045F000412CF12CE12C109731F580915F069091C0
:1046000060068815990509F05CC04616570608F043
:1046100058C08091150190911601009741F48DB713
:104620009EB74091190150911A01841B950BE81710
:10463000F90708F055C0F0936006E0935F06F901B2
:1046400071836083A0CF8D919C91119712966C908D
:10465000129713967C901397A815B90559F56C011C
:1046600042E0C40ED11CCA14DB0420F1AC014A198B
:104670005B09DA011296159780F06282738251838A
:104680004083D9016D937C93E114F10471F0D7015B
:104690001396FC93EE93129776CF22968C0F9D1F64
:1046A000F90191838083F301EFCFF0936206E093E9
:1046B000610669CF4816590608F42C017D01D30123
:1046C0009ACFCB010E9491217C01009749F0AE0165
:1046D000B8010E947323C8010E942D22870153CF85
:1046E00010E000E050CFFB01DC0102C001900D9210
:1046F00041505040D8F70895DC0101C06D934150FE
:104700005040E0F70895FB01DC018D910190801984
:104710000110D9F3990B0895FB01DC0101900D9272
:104720000020E1F7089510E0C3E6D0E004C0FE01E8
:104730000E9470212196C436D107C9F7F894FFCFA3
:104740000107090202000501000101FF1932C81426
:104750000203000400000063068000000040001413
:10476000005400050A0F142802050A14280A1932F9
:1047700064C831323341003435364200373839436A
:10478000002A302344001000200040008000FE007A
:10479000FD00FB00F7000000000035029501C2019A
:1047A0008202F301D101E50100000000F706CA060C
:1047B0001C08A006C306B006A10600000000240ADB
:1047C00095011C08940100000000870795011C0852
:1047D000A006E307FB076F070D0A004155544F2061
:1047E000004D414E55200052004F5520503100469B
:1047F00045205031004F552041420046452041425E
:10480000004F5520504F00464520504F004F552037
:104810005032004645205032004445504C41004D36
:104820004F544F4E00415458204D004154582041A0
:104830000020202020202020202020202020202098
:10484000202020202000544120494E204558204C53
:1048500043204C4420434D44003252203342203503
:1048600042203220203220205041524B20004F6BFA
:10487000005031204F2E2E2E005031204F50454EEB
:1048800000503120462E2E2E00503120436C6F7385
:1048900065004152550041525520212000415500EC
:1048A000300053C3A972696500506F736974696FF2
:1048B0006E00506F7274657300426F75746F6E0096
:1048C00045727265757220706F736974696F6E00DE
:1048D000503132204F70656E00504F23005032200F
:1048E000462E2E2E0050313220462E2E2E005046BF
:1048F0002300503132204F2E2E2E004572726575E6
:1049000072205061726B00504123004465706C61ED
:1049100063656D656E7420616272692E2E2E004192
:10492000627269206665726DC3A900444623004423
:104930004F230041627269206F7576657274003191
:10494000323334006C6F6E6700636F757274006D84
:104950000061007000544E00545000325220334227
:10496000203542203220203220205041524B004D31
:1049700061757661697320636F646500436F646578
:10498000204F4B00502B00502D00442B00442D0095
:104990004D41006D2B006D2D00646400322B003200
:1049A0002D00412B00582B00582D00583F00412D61
:1049B00000503F00443F00413F00543F00702D0035
:1049C000702B004D3F00452B00452D00492B004921
:0849D0002D00504100433F009F
:00000001FF
