:100000000C9464000C948C000C948C000C94E514FB
:100010000C94E5140C94E5140C948C000C94A2122E
:100020000C948C000C948C000C948C000C948C0020
:100030000C948C000C948C000C948C000C948C0010
:100040000C947C130C948C000C944A130C94241381
:100050000C948C000C948C000C948C000C948C00F0
:100060000C94C6130C948C000000000024002700A0
:100070002A0002000000080002010000030407003B
:1000800000000000000000000000002300260029FE
:100090000000000000250028002B000404040404D4
:1000A0000404040202020202020303030303030125
:1000B00002040810204080010204081020010204FC
:1000C000081020005D15611F11241FBECFEFD8E07E
:1000D000DEBFCDBF26E0AAE7B3E001C01D92A33486
:1000E000B207E1F713E0A0E0B1E0EEEBF4E402C008
:1000F00005900D92AA37B107D9F710E0C3E6D0E01A
:1001000004C02197FE010E942F20C236D107C9F7F3
:100110000E94CF160C9452220C9400008F929F9252
:10012000AF92BF92CF92DF92EF92FF920F931F9305
:10013000FC014B01AA24BB24C52ED62EE72EFF249A
:10014000BC2DA42F90910506B82C992391F0A92FCE
:10015000B0E0A89D9001A99D300DB89D300D1124EF
:10016000B32E9C9D60011124BD2D949F800111240C
:10017000A12F40910B062091060630910706809131
:100180000806481324C0CF01880F991F8E0F9F1FA8
:10019000820F931FE0910806E80FF92FF11DB0823E
:1001A000E0910906E80FF92FF11DB08320910A06AE
:1001B000820F911DFC01A0831F910F91FF90EF9082
:1001C000DF90CF90BF90AF909F908F900895CF0118
:1001D000880F991F880F991F820F931FFC01E40F4E
:1001E000F11D1082D7CF2091880481E0213208F0E0
:1001F00044C0809164048111FCCF8091870492E017
:100200009093640491E0909363049FEF9093620451
:100210001092610420936004A7E6B4E0E0E4F4E007
:1002200090E0291331C010923F0490913F04880F51
:10023000892B80933F0480913E04813049F51092D0
:100240003E0480913F048093BB008091BC0083FDFD
:10025000F8CF85EC8093BC00809164048230E1F398
:10026000809162048F3FB1F0809162048032A1F0EE
:1002700080916204803391F084E0109266041092C1
:1002800088041092650408953D9131939F5FC9CF12
:1002900085EEE0CF80E0F1CF82E0EFCF83E0EDCFDD
:1002A000909164049111FCCF91E090936404909339
:1002B00063042FEF2093620410926104260F2093B1
:1002C000600490933F0490913F04880F892B8093A2
:1002D0003F0480913E048130F9F410923E048091F5
:1002E0003F048093BB008091BC0083FDF8CF85EC78
:1002F0008093BC00809164048130E1F380916104BB
:10030000861710F460916104A0E4B4E0EEE1F4E03B
:1003100080E0861303C0089585EEEACF9D91919306
:100320008F5FF7CF0895089508950895AF92BF9213
:10033000CF92DF92EF92FF920F931F93CF93DF93B1
:100340006C017B018B01040F151FEB015E01AE18E0
:10035000BF08C017D10759F06991D601ED91FC9102
:100360000190F081E02DC6010995892B79F7C5012F
:10037000DF91CF911F910F91FF90EF90DF90CF9081
:10038000BF90AF900895FC01538D448D252F30E030
:10039000842F90E0821B930B541710F0CF96089592
:1003A00001970895FC01918D828D981761F0A28DBF
:1003B000AE0FBF2FB11D5D968C91928D9F5F9F7385
:1003C000928F90E008958FEF9FEF0895FC01918D3B
:1003D000828D981731F0828DE80FF11D858D90E0A8
:1003E00008958FEF9FEF0895FC01918D228D892F45
:1003F00090E0805C9F4F821B91098F73992708952D
:100400008AE994E00E94F40121E0892B09F420E0BC
:10041000822F089580E090E0892B29F00E9400024D
:1004200081110C9400000895FC01A48DA80FB92F30
:10043000B11DA35ABF4F2C91848D90E001968F730C
:100440009927848FA689B7892C93A089B1898C912B
:10045000837080648C93938D848D981306C002887A
:10046000F389E02D80818F7D80830895EF92FF9244
:100470000F931F93CF93DF93EC0181E0888F9B8DC7
:100480008C8D98131AC0E889F989808185FF15C081
:100490009FB7F894EE89FF896083E889F9898081A4
:1004A0008370806480839FBF81E090E0DF91CF9173
:1004B0001F910F91FF90EF900895F62E0B8D10E095
:1004C0000F5F1F4F0F731127E02E8C8D8E110CC004
:1004D0000FB607FCFACFE889F989808185FFF5CF4F
:1004E000CE010E941402F1CFEB8DEC0FFD2FF11D18
:1004F000E35AFF4FF0829FB7F8940B8FEA89FB898C
:1005000080818062CFCFCF93DF93EC01888D8823E9
:10051000B9F0AA89BB89E889F9898C9185FD03C066
:10052000808186FD0DC00FB607FCF7CF8C9185FF4B
:10053000F2CF808185FFEDCFCE010E941402E9CF7A
:10054000DF91CF910895833081F028F4813099F0C4
:100550008230A9F008958730A9F08830C9F084303E
:10056000B1F4809180008F7D03C0809180008F77EF
:1005700080938000089584B58F7784BD089584B5F5
:100580008F7DFBCF8091B0008F778093B00008956E
:100590008091B0008F7DF9CFCF93DF93282F30E08B
:1005A000F901ED58FF4F8491F901E155FF4FD491C6
:1005B000F901E556FF4FC491CC23A1F081110E94AF
:1005C000A302EC2FF0E0EE0FFF1FE957FF4FA591BC
:1005D000B491EC91ED2381E090E009F480E0DF91AB
:1005E000CF91089580E090E0FACF1F93CF93DF93EF
:1005F000282F30E0F901ED58FF4F8491F901E155C2
:10060000FF4FD491F901E556FF4FC491CC23A9F0D7
:10061000162F81110E94A302EC2FF0E0EE0FFF1FB6
:10062000EF56FF4FA591B4918FB7F894EC9111114B
:1006300008C0D095DE23DC938FBFDF91CF911F914F
:100640000895DE2BF8CF10921C0410921B04109218
:100650006604109288041092640481E0809363041D
:1006600010923E0461E082E10E94F50261E083E1C4
:100670000E94F502E9EBF0E080818E7F808380812B
:100680008D7F808388E48093B80085E48093BC00EC
:1006900082E991E090931A048093190483E991E030
:1006A00090931804809317040895CF93DF9390E0FC
:1006B000FC01E155FF4F249185569F4FFC01849129
:1006C0008823D1F090E0880F991FFC01E859FF4F73
:1006D000A591B491FC01EF56FF4FC591D4916111E2
:1006E0000EC09FB7F8948C91E22FE0958E238C93E7
:1006F0002881E223E8839FBFDF91CF9108958FB7D0
:10070000F894EC91E22BEC938FBFF6CFCF93DF936D
:10071000EC0161E083E00E945503209731F460E032
:1007200083E0DF91CF910C94F502CF3FD10511F416
:1007300061E0F6CFE6E7F0E0E491E33029F140F440
:10074000E130B1F0E230D9F0C038D1058CF7E7CF15
:10075000E73021F1E83051F1E430B1F780918000C9
:10076000806280938000D0938B00C0938A0004C085
:1007700084B5806884BDC7BDDF91CF91089584B5ED
:10078000806284BDC8BDF8CF80918000806880936E
:100790008000D0938900C0938800EECF8091B00094
:1007A00080688093B000C093B300E6CF8091B00022
:1007B00080628093B000C093B400DECF3FB7F8945E
:1007C0008091070490910804A0910904B0910A0453
:1007D00026B5A89B05C02F3F19F00196A11DB11D9C
:1007E0003FBFBA2FA92F982F8827BC01CD01620FD8
:1007F000711D811D911D42E0660F771F881F991F93
:100800004A95D1F708950F931F93CF93DF93CDB7F8
:10081000DEB729970FB6F894DEBF0FBECDBF80912B
:10082000060690910706892B09F467C00E94DE0333
:1008300000910C0610910D0620910E0630910F06C6
:10084000601B710B820B930B6C327140810591051B
:1008500068F3F89480910106909102069A83898347
:10086000E0910606F0910706DF01119680818987E5
:100870009091FD05E0911006F0911106809112060D
:10088000992309F445C09081982B98879081809591
:1008900089238F838F818C8388E08B8358856F8138
:1008A00049853B812C8189819A81508347FD252F81
:1008B0003A952083262F39F0441F00C00000608342
:1008C000000000C0F2CF38E04D9160830000019736
:1008D00061F7F0931106E093100649873B832C8360
:1008E0009A83898378940E94DE0360930C06709348
:1008F0000D0680930E0690930F0629960FB6F89476
:10090000DEBF0FBECDBFDF91CF911F910F91089534
:100910009081982B98879081809589238F838F81F0
:100920008E8388E08D8358856F8149853D812E8136
:1009300089819A81508347FD252F00C000C0208304
:1009400000C000C000C000C000C060830000262FAF
:100950003A9541F0441F000000C000C000C000C034
:1009600000C0E8CF38E04D9100C0608300C001971F
:1009700009F7F0931106E093100649873D832E8313
:10098000AFCF8F929F92AF92BF92CF92DF92EF92B2
:10099000FF924B015C010E94DE036B017C010E940F
:1009A000DE036C197D098E099F09683E734081053D
:1009B0009105A8F321E0821A9108A108B10888EEF8
:1009C000C80E83E0D81EE11CF11C81149104A1041F
:1009D000B10429F7FF90EF90DF90CF90BF90AF90D8
:1009E0009F908F9008954F925F926F927F928F9217
:1009F0009F92AF92BF92EF92FF920F931F93CF936C
:100A00008C017B0180910B018131D9F08F3F09F47A
:100A10003FC068EC70E080E090E00E94C1048091EB
:100A20000F0190E0CF911F910F91FF90EF90BF9039
:100A3000AF909F908F907F906F905F904F900C94AD
:100A40008603E2E7F0E0C491C7FDE3CF61E081E116
:100A50000E945503C11132C02801012E000C660806
:100A6000770862E17AE780E090E0A30192010E94BA
:100A7000102049015A0181E0881A9108A108B108A3
:100A800096E0C1113BC085B5887F846085BDABC051
:100A900081E180930B01E2E7F0E0C491CF3F09F4DC
:100AA000B8CFC13009F44AC080F1C23009F464C043
:100AB000C7FDAFCF61E081E10E9455039801012E8F
:100AC000000C440B550BC23009F078C029013A01E3
:100AD00064E274EF80E090E00E94102049015A0126
:100AE00081E0881A9108A108B10895E08FEF881677
:100AF0009104A104B10411F00CF0B3CF8091B100C6
:100B0000887F892B8093B1006EC014BC15BC84B55E
:100B1000826084BD85B5816085BDECEAF0E0E4913A
:100B2000F0E0EE0FFF1FEF56FF4F85919491E0EC40
:100B3000F0E0E491E0938D04C0E088CF1092800053
:100B40001092810080918100886080938100809163
:100B50008100816080938100ECEAF0E0E491F0E0B4
:100B6000EE0FFF1FEF56FF4F85919491E0ECF0E000
:100B7000E491E0938C046ACF1092B0001092B1001F
:100B80008091B00082608093B0008091B10081605C
:100B90008093B100ECEAF0E0E491F0E0EE0FFF1F8B
:100BA000EF56FF4F8591949190938B0480938A0424
:100BB000E0ECF0E0E491E093890448CF60E072E17A
:100BC0008AE790E00E94102049015A0181E0881ACA
:100BD0009108A108B108C13031F480918100887F6B
:100BE0008160809381009801220F331FD7010E94FA
:100BF000352028EE33E040E050E00E94EE1FC13087
:100C000099F0C23019F1C11104CF87BC209396042A
:100C100030939704409398045093990480916E0008
:100C2000826080936E00F5CE909289008092880059
:100C3000209392043093930440939404509395042A
:100C400080916F00826080936F00E3CE8092B3004A
:100C500020938E0430938F0440939004509391041A
:100C600080917000826080937000D3CE2FB7F8948B
:100C7000609103047091040480910504909106042E
:100C80002FBF08950F931F930E9436066093A2040E
:100C90007093A3048093A4049093A5048AE994E03C
:100CA0000E94D20197FF1DC00E9436060091A20447
:100CB0001091A3042091A4043091A504601B710B32
:100CC000820B930B00919E0410919F042091A0042D
:100CD0003091A1046017710782079307F8F28FEF34
:100CE0009FEF1F910F91089585ED8093BC00809137
:100CF000BC0084FDFCCF1092640408952091DF03B2
:100D0000260F3327331F21323105ECF42091640480
:100D1000FC0190E080E0243069F082E00895A09129
:100D2000DF032191AC0141545C4FA40FB52FB11DDD
:100D30002C930196861798F38091DF03680F6093D8
:100D4000DF0380E0089581E008950895E0911C0498
:100D500080911B04E81730F4F0E0E25EFB4F8081E5
:100D600090E008958FEF9FEF089590911C0480917B
:100D70001B042FEF3FEF981748F4E92FF0E0E25EF5
:100D8000FB4F208130E09F5F90931C04C9010895C0
:100D900080911B0490911C04891B990B0895CF929C
:100DA000DF92EF92FF920F931F93CF93DF937C011B
:100DB000CB018A0120916504222389F0EB016B01AC
:100DC000C40ED51ECC15DD0569F06991D701ED91F2
:100DD000FC910190F081E02DC7010995F3CF642FBC
:100DE0000E947E06C801DF91CF911F910F91FF9065
:100DF000EF90DF90CF900895CF93DF931F92CDB700
:100E0000DEB76983209165042223F9F020918804DC
:100E1000203258F021E030E0FC013383228390E05F
:100E200080E00F90DF91CF91089580916604E82FC4
:100E3000F0E0E959FB4F998190838F5F80936604BE
:100E40008093880481E090E0ECCF61E0CE010196D0
:100E50000E947E06F7CFCF93C62F90911D0490621B
:100E600021E0209365049093870410926604109209
:100E70008804682F87E395E00E94FC066C2F87E3C7
:100E800095E00E94FC06CF910C94F300FC012481B4
:100E900031E0309365042093870410926604109229
:100EA00088048485682B87E395E00E94FC060C94F7
:100EB000F300609315047093160491E09093650419
:100EC00080938704109266041092880487E395E06B
:100ED0000E94FC060C94F3002091BD033091BE03E8
:100EE0002817390771F49091BC038091BB039817C0
:100EF00041F0E091BC03F0E0E558FC4F808190E0C8
:100F000008958FEF9FEF0895EF92FF920F931F9335
:100F1000CF93DF93DC015C96ED90FC905D97E1143C
:100F2000F10479F481E090E013969C938E931297EC
:100F300090E080E0DF91CF911F910F91FF90EF90B3
:100F400008955196ED91FC91529750968C9150973F
:100F5000982F90950FB75E962C915E97122F127076
:100F600021FD6095F8942081112319F1282B20830D
:100F7000E7012197F1F728E0462F50E0308160FF2C
:100F80001AC0382B3083E7012197F1F7BA01759524
:100F90006795215089F7112381F08081892380830F
:100FA0000FBF5C968D919C910197F1F781E090E0E5
:100FB000C1CF2923DCCF3923E5CF9081892BEFCF17
:100FC0002091BD033091BE032817390771F4809139
:100FD000BB032091BC0390E0805C9F4F821B910972
:100FE00060E470E00E94DA1F089590E080E00895C8
:100FF0002091BD033091BE0328173907B9F49091B1
:10100000BC038091BB03981789F0E091BC03F0E02A
:10101000E558FC4F80812091BC0330E02F5F3F4FAB
:101020002F7333272093BC0390E008958FEF9FEF39
:10103000089590E080E0089560E08CE00E94F50261
:1010400068E572E080E090E00E94C10461E08CE01D
:101050000C94F50260E085E00E94F50260E47CE912
:1010600080E090E00E94C10461E085E00C94F5020C
:101070008F929F92AF92BF92FF920F931F93CF9345
:10108000DF93982F990F990F990F24E0F22EF90E04
:1010900098E0899FE00111242B96469F002D112492
:1010A00010E030E020E048015901A62A322F212F1C
:1010B000102F0027802A912AA22AB32A8F2D90E090
:1010C000C817D9077CF02091FF05309100068217E0
:1010D000930720F4B501A4010E948E000E9403042E
:1010E000F394ECCFDF91CF911F910F91FF90BF90C0
:1010F000AF909F908F9008950F93362FE42F90E03C
:101100004091FF05509100068417950740F4422F47
:1011100050E070E060E05E2B632B0E948E000023A5
:1011200019F00F910C9403040F9108950F9380917F
:101130000B04882361F001E020E040E060E080E003
:101140000E947C0881E08093070110920B040F91AC
:10115000089590911D04906221E02093650490937E
:1011600087041092660410928804682F87E395E044
:101170000E94FC060E94F30080911D0461E08062E1
:101180000E94500110921C0480931B0487E395E099
:101190000E94B5060895CF93C82FC770883060F0BD
:1011A00083E10E94A90890E002C095958795CA95B1
:1011B000E2F78170CF91089582E1F3CFCF93DF936F
:1011C000C82FD1E0883008F4D0E08D2F0E94A90804
:1011D000C77041E050E060E070E004C0440F551F6C
:1011E000661F771FCA95D2F7682F642B8D2FDF916A
:1011F000CF910C942B07CF93DF93C82FDDE088307D
:1012000008F4DCE08D2F0E94A908C77041E050E08F
:1012100060E070E004C0440F551F661F771FCA9539
:10122000D2F7682F642B8D2FDF91CF910C942B0771
:10123000CF92DF92EF92FF920F931F93CF93DF93A2
:10124000C0911304D0911404F0904305E09044053C
:10125000FE01EE0FFF1FE25BFE4F608171818F2D5B
:101260009E2D0E94590796E4C92E91E0D92E10E0D8
:1012700000E080911101909112010817190784F57F
:1012800061E08F2D0E94500110921C0480931B047A
:1012900087E395E00E94B506F601419151916F01F7
:1012A00020911504309116048227932784179507FF
:1012B000A1F485E08C9FF0018D9FF00D1124EE5C70
:1012C000FE4FE00FF11F8081082E000C990B9093C8
:1012D00012048093110480E00DC00F5F1F4FC9CF2F
:1012E0008091110490911204009769F010921204F9
:1012F00010921104DF91CF911F910F91FF90EF9009
:10130000DF90CF9008956FEF70E08F2D9E2D0E949B
:1013100059072196D0931404C093130480911301AC
:1013200090911401C817D907B1F6109214041092C5
:101330001304D1CF0F931F93CF938C01C62F0E941C
:1013400046076C2F6460C8010E9446076C2F6B7FB4
:10135000C8010E94460783EC90E00197F1F7CF9116
:101360001F910F9108950F931F93CF93DF938C01DB
:10137000D62FC42F607F642B0E949A0980E1D89FEA
:10138000B00111246C2BC801DF91CF911F910F91F7
:101390000C949A09CF93DF93CDB7DEB728970FB699
:1013A000F894DEBF0FBECDBF98E0EBE1F1E0DE01C7
:1013B000119601900D929A95E1F790911B06961760
:1013C00010F46FEF690F262F30E0220F331F41E03A
:1013D00050E04C0F5D1F240F351FF9016081680F2D
:1013E000606840E083E196E028960FB6F894DEBF8F
:1013F0000FBECDBFDF91CF910C94B30940E061E007
:1014000083E196E00E94B3098BE39FE10197F1F736
:1014100080911C06882321F060E080E00C94CA09CA
:10142000089541E00E94B30981E090E00895CF93D0
:10143000DF93EC0188819981009711F00E94EC20E4
:10144000198218821D821C821B821A82DF91CF9121
:101450000895FC0180819181009711F00C94EC209B
:10146000089510921F0660E083E196E00E9446070F
:10147000EDEFF5E04481558170E060E08185928573
:101480000E943B220E94030461E08BE00E94F5026F
:1014900061E08AE00E94F50268EE73E080E090E08F
:1014A0000E94C10481E080930C0480930701109294
:1014B0000B04089560E086E00E94F50260E47CE998
:1014C00080E090E00E94C10461E086E00E94F502A5
:1014D0000C94310A2091490530914A05232B39F4A7
:1014E00021E0FC018081882361F020E00AC0BC017A
:1014F00080914505909146050E94422221E0892B6A
:10150000A1F7822F0895FB0101900020E9F73197A0
:10151000AF01461B570BDC01ED91FC910280F3817A
:10152000E02D09948F929F92AF92BF92EF92FF921B
:101530000F931F93CF93DF93CDB7DEB7A1970FB66D
:10154000F894DEBF0FBECDBF7C01FA01CB0119A21A
:10155000223008F42AE08E010F5D1F4F822E912C5D
:10156000B12CA12CBF01A50194010E94EE1FF9012D
:10157000CA016A300CF5605DD8016E938D01232B92
:10158000242B252B79F790E080E0109721F0BD0106
:10159000C7010E94830AA1960FB6F894DEBF0FBE62
:1015A000CDBFDF91CF911F910F91FF90EF90BF9032
:1015B000AF909F908F900895695CDECF462F50E0EA
:1015C00070E060E02AE00C94920AAB01770F660BA2
:1015D000770B2AE00C94920A0F931F93CF93DF931B
:1015E000EC010E94830A8C0168E971E0CE010E943F
:1015F000830A800F911FDF91CF911F910F91089562
:101600000C94830A0F93CF93C09106018C2F880FFF
:1016100063E08C0F0E94CA09C33008F06FC0EC2F42
:10162000F0E0E050FF4F8081682F70E08530E8F1F6
:101630006450710983E196E00E94E50A6FEB71E066
:1016400083E196E00E94000B20910601822F90E03A
:10165000FC01E85FFE4F31E03083FC01E050FF4FBA
:10166000E081F0E0E85DFE4F6081FC01E45FFE4F49
:101670006083825F9B4FFC018081689F602D1124F5
:1016800041E082E0821B0E94380880910601982F79
:10169000990F63E0890F0E94CA0968EC70E080E04E
:1016A00090E0CF910F910C94C1046F5F7F4F83E165
:1016B00096E00E94E50A67EA71E083E196E00E9405
:1016C000000B20910601822F90E0FC01E85FFE4FA5
:1016D0001082FC01E050FF4FE081F0E0E35DFE4F3F
:1016E0006081FC01E45FFE4F6083825F9B4FFC01E1
:1016F0008081689F602D112440E0C3CFC43029F55C
:101700006091040183E196E00E94DE0AE091060107
:10171000F0E0E050FF4FE081F0E0E85DFE4FC08177
:10172000C093100101E020E040E06C2F81E00E94B6
:101730007C0881E00E94CB08C89F602D112420E026
:1017400040E082E00E947C08A0CFC330B1F46091F9
:10175000030183E196E00E94DE0AE0910601F0E0D9
:10176000E050FF4FE081F0E0ED5DFE4F808180931F
:101770000F0190E00E94860388CFEC2FF0E0E0504C
:10178000FF4FE081EE3008F080CFF0E0E653F44FF9
:101790000C942F20D80BDF0BE20BE50BE80BEB0BC7
:1017A000EE0BF70BFA0BFD0B000C030C060CF40B05
:1017B00069EA71E083E196E00E94000B66CF6FEA70
:1017C00071E0F8CF65EB71E0F5CF6BEB71E0F2CF34
:1017D00061EC71E0EFCF67EC71E0ECCF80910D042C
:1017E00061EA71E0882331F36BE971E0E3CF6DECDE
:1017F00071E0E0CF63ED71E0DDCF69ED71E0DACF4C
:101800006FED71E0D7CF65EE71E0D4CF6BEE71E094
:10181000D1CF0F931F93CF93DF938C01EB01FC018A
:10182000808191810097E1F068817981611571056E
:10183000A9F0428153812C813D814217530770F0FA
:101840000E944B228C819D81F801958384831D82A7
:101850001C82DF91CF911F910F9108950E94EC207F
:1018600088819981F801918380838A819B81938308
:1018700082838C819D8195838483198218821B8247
:101880001A82E5CF0F931F93CF93DF93EC018881EA
:101890009981009759F02A813B812617370730F04C
:1018A00081E0DF91CF911F910F9108958B016F5FC0
:1018B0007F4F0E947521009759F0998388831B837D
:1018C0000A832C813D81232B59F7FC011082E8CF3C
:1018D00080E0E7CFEF92FF920F931F93CF93DF93B8
:1018E0006115710541F480E0DF91CF911F910F9157
:1018F000FF90EF90089541155105B1F07B01EC0187
:101900000C811D81040F151FB8010E94420C882311
:1019100051F3288139818C819D81B701820F931FFA
:101920000E944B221D830C8381E0DECFEF92FF9259
:101930000F931F93CF93DF93EC017B018A01BA01D0
:101940000E94420C81110BC0CE010E94170ACE01E9
:10195000DF91CF911F910F91FF90EF9008951D831C
:101960000C83B701888199810E944B22F0CFCF93DD
:10197000DF93EC01FB018617970749F060817181C5
:101980006115710541F0448155810E94960CCE018C
:10199000DF91CF9108950E94170AF9CFFC011182BF
:1019A00010821382128215821482FB0101900020A2
:1019B000E9F73197AF01461B570B0C94960CAF9289
:1019C000BF92CF92DF92EF92FF920F931F93CF932C
:1019D000DF937C016B015A0189012417350720F43C
:1019E0008B2D5901042F182F6AE971E0C7010E945D
:1019F000CE0CD6011496CD91DC91AC16BD0620F527
:101A00000C171D0708F4E801D601ED91FC91119720
:101A1000EC0FFD1F108110826D917C916A0D7B1D72
:101A200061157105E9F0FB0101900020E9F731979C
:101A3000AF01461B570BC7010E94960CF60180812F
:101A40009181C80FD91F1883C701DF91CF911F91D2
:101A50000F91FF90EF90DF90CF90BF90AF900895DF
:101A6000C7010E94170AEACFEF92FF920F93CF931C
:101A7000DF9300D000D000D0CDB7DEB77C018091DD
:101A8000100101E0623009F449C0633009F44AC032
:101A9000282F40E0613009F043C020E040E0682F8B
:101AA00081E00E947C0844E150E061EF71E0C701F1
:101AB0000E946A0C2FE030E050E040E0B701CE0118
:101AC00001960E94DF0CBE016F5F7F4FC7010E942D
:101AD000090CCE0101960E94290A61E080E00E9473
:101AE000CA09F701448155816081718183E196E0E3
:101AF0000E94960180910601982F990F63E0890F4B
:101B00000E94CA0926960FB6F894DEBF0FBECDBF5D
:101B1000DF91CF910F91FF90EF900895282F482FDC
:101B200060E0BECF20E0FBCF0F931F93CF93DF93F6
:101B300000D000D000D0CDB7DEB780917A038823E3
:101B400049F110927A038091FB059091FC05009772
:101B500009F12091790530917A05232BD9F0109263
:101B60007A05109279051092DD051092E805109221
:101B7000E70510928D0510928E0510928F05109238
:101B800090051092CA051092C90501979093FC0523
:101B90008093FB0560E08AE00E94F50260ED77E04B
:101BA00080E090E00E94C1041091100100E020E06C
:101BB00040E0612F81E00E947C0820E040E0612F3E
:101BC00082E00E947C0801E02FE04FE06FE080E0BF
:101BD0000E947C0880910F0190E00E9486030E9481
:101BE000FE0988E080931F0660E083E196E00E9492
:101BF000460762E080E00E94CA0966E072E083E185
:101C000096E00E94000B63E080E00E94CA0969E14F
:101C100072E083E196E00E94000B80910601982F0C
:101C2000990F63E0890F0E94CA0960911906862FF7
:101C3000816080931906696040E083E196E00E942C
:101C4000B3096DE272E0CE0101960E94CE0C61E014
:101C5000CE0101960E94340DCE0101960E94290A00
:101C600060E08BE00E94F50281E00E94CB0891E0E9
:101C7000811190E090930C041092070110920B04D4
:101C800026960FB6F894DEBF0FBECDBFDF91CF9181
:101C90001F910F910895CF93DF9300D000D000D013
:101CA000CDB7DEB760E08AE00E94F50260ED77E034
:101CB00080E090E00E94C10460E372E0CE010196F2
:101CC0000E94CE0C60E0CE0101960E94340DCE0140
:101CD00001960E94290A60E087E00E94F50260E414
:101CE0007CE980E090E00E94C10468E372E0CE01EC
:101CF00001960E94CE0C61E0CE0101960E94340D47
:101D0000CE0101960E94290A61E087E00E94F50257
:101D100026960FB6F894DEBF0FBECDBFDF91CF91F0
:101D20000895CF93DF9300D000D000D0CDB7DEB7B9
:101D300060E472E0CE0101960E94CE0C60E0CE011C
:101D400001960E94340DCE0101960E94290A60E09E
:101D500088E00E94F50260E47CE980E090E00E9467
:101D6000C10468E472E0CE0101960E94CE0C61E0ED
:101D7000CE0101960E94340DCE0101960E94290ADF
:101D800061E088E00E94F50261E08AE00E94F502CD
:101D900026960FB6F894DEBF0FBECDBFDF91CF9170
:101DA00008950F931F93CF93DF93CDB7DEB7289796
:101DB0000FB6F894DEBF0FBECDBF8C018AE994E068
:101DC0000E94F4016AE971E0892BD1F1CE010196FC
:101DD0000E94CE0C0E94420697FD0FC083329105EF
:101DE00061F08F83188641E050E0BE01695F7F4F4C
:101DF000CE0101960E946A0CEDCFBE016F5F7F4F4E
:101E000085E495E00E94090CCE0101960E94290A02
:101E1000F80111821082138212821582148265E405
:101E200075E0C8010E94B70CC80128960FB6F89457
:101E3000DEBF0FBECDBFDF91CF911F910F910895EF
:101E4000C8010E94CE0CF0CF0F931F93CF93DF9366
:101E5000CDB7DEB72C970FB6F894DEBF0FBECDBF5F
:101E60008C0161E572E08AE994E00E94EC0A61E08D
:101E700089E00E94F50261E08BE00E94F50261E0DA
:101E80008CE00E94F50261E088E00E94F50261E0CA
:101E900087E00E94F50261E086E00E94F50261E0C1
:101EA00085E00E94F50261E08BE00E94F50281E08E
:101EB00080930D0465E572E0CE0101960E94CE0C80
:101EC000F8014481558160817181CE0101960E94A3
:101ED0006A0C811104C0CE0101960E94170A18866F
:101EE0001F821A8619861C861B86BE016F5F7F4F74
:101EF000CE0107960E94B70C63E0CE0107960E94C0
:101F0000340DCE0107960E94290ACE0101960E9447
:101F1000290A01E020E042E360E081E00E947C08C1
:101F200083E00E94CB08811107C064E670E080E086
:101F300090E00E94C104F4CF2C960FB6F894DEBF57
:101F40000FBECDBFDF91CF911F910F9108957F926A
:101F50008F929F92AF92BF92CF92DF92EF92FF92B9
:101F60000F931F93CF93DF9300D000D000D0CDB755
:101F7000DEB74B015C01042F722E0E9436066B0106
:101F80007C0110E00E9436066C197D098E099F09BC
:101F9000681579058A059B0508F076C0CE01019683
:101FA0000E94D10EBE016F5F7F4F85E495E00E94D5
:101FB000090CCE0101960E94290A8CE592E00E944C
:101FC0006A0A882349F16FE572E08AE994E00E9489
:101FD000EC0A61E672E0CE0101960E94CE0CCE01C1
:101FE00001960E94240FCE0101960E94290A80E0EA
:101FF00026960FB6F894DEBF0FBECDBFDF91CF910E
:102000001F910F91FF90EF90DF90CF90BF90AF9016
:102010009F908F907F90089581E00E94CB0881115E
:1020200006C0113019F461EC72E0D5CF11E0002345
:1020300069F085E00E94CB08882341F087E00E9488
:10204000CB08882319F068E672E0C5CF772069F0E5
:1020500086E00E94CB08882319F061E772E0BBCFCD
:1020600082E00E94CB088111F8CF83E00E94CB0868
:10207000811103C068E772E0AECF64E670E080E0F3
:1020800090E00E94C1047ECF81E0B2CF0F931F93F6
:10209000CF93DF9300D000D000D0CDB7DEB7182F9C
:1020A000882309F4F0C086E00E94CB088111B0C0FB
:1020B00082E00E94CB088111ABC06FE772E0CE01D5
:1020C00001960E94CE0C62E0CE0101960E94340D72
:1020D000CE0101960E94290A10E0812F26960FB6A4
:1020E000F894DEBF0FBECDBFDF91CF911F910F914E
:1020F000089564E670E080E090E00E94C10486E00C
:102100000E94CB088111F5CF82E00E94CB0881119B
:10211000F0CF68E873E180E090E00E94C10461E0E4
:1021200087E00E94F50261E085E00E94F5026FE819
:1021300072E0CE0101960E94CE0C61E0CE010196C4
:102140000E94340DCE0101960E94290A68E972E0CE
:1021500080E296E00E94EC0AC0CF6091100101E09D
:1021600020E0462F81E00E947C0861E08BE00E9425
:10217000F5026CE972E0CE0101960E94CE0C61E09E
:10218000CE0101960E94340DCE0101960E94290ACB
:1021900060E086E00E94F50220E041E060E47FE13B
:1021A00080E090E00E94A70F882309F496CF64EAAC
:1021B00072E0CE0101960E94CE0C60E0CE01019645
:1021C0000E94340DCE0101960E94290A60E088E049
:1021D0000E94F50220E041E060E47CE980E090E0CC
:1021E0000E94A70F082F882309F477CF61E088E0C9
:1021F0000E94F50261E086E00E94F5026DEA72E05D
:1022000080E296E00E94EC0A0E94310A102F65CF0E
:102210000E94940D88E080931F0660E083E196E0C1
:102220000E94460760E372E0CE0101960E94CE0C48
:1022300060E0CE0101960E94340DCE0101960E940D
:10224000290A60E087E00E94F50268E873E180E017
:1022500090E00E94C10460E085E00E94F50261EB1D
:1022600072E0CE0101960E94CE0C60E0CE01019694
:102270000E94340DCE0101960E94290A60E375E7A1
:1022800080E090E03ACF84E00E94CB08811106C044
:1022900080E00E94CB08882309F40FCF85E00E94DC
:1022A000CB08882309F459CF6FE772E0CE0101967D
:1022B0000E94CE0C62E0CE0101960E94340DCE0148
:1022C00001960E94290A09CF0F931F93CF93DF93A2
:1022D00000D000D000D0CDB7DEB7882309F430C1DC
:1022E00087E00E94CB0881111CC06FE772E0CE012D
:1022F00001960E94CE0C62E0CE0101960E94340D40
:10230000CE0101960E94290A10E0812F26960FB671
:10231000F894DEBF0FBECDBFDF91CF911F910F911B
:10232000089581E00E94CB0881111FC06AEB72E022
:10233000CE0101960E94CE0C62E0CE0101960E9471
:10234000340DCE0101960E94290A66EC72E08AE9FA
:1023500094E00E94EC0A81E00E94CB08882379F186
:1023600081E00E94CB08882379F261E089E00E9435
:10237000F5026091100101E020E0462F81E00E940B
:102380007C0886E00E94CB08811120C082E00E9478
:10239000CB0881111BC08BE00E94CC02892B11F16C
:1023A00060E08BE00E94F50220E041E060E177E22E
:1023B00080E090E00E94A70F811114C0A5CF60E1DA
:1023C00077E280E090E00E94C104C5CF8BE00E94DC
:1023D000CC02892B21F060E08BE00E94F50281E0C5
:1023E0000E94461061ED72E0CE0101960E94CE0C73
:1023F00060E0CE0101960E94340DCE0101960E944C
:10240000290A41E064E682E00E94380885E00E94E3
:10241000CB08882309F456C087E00E94CB088823A4
:1024200009F450C021E040E068EF7AE280E090E0FB
:102430000E94A70F882309F467CF85E00E94CB088C
:10244000811157C021E040E060ED77E080E090E04E
:102450000E94A70F182F882309F456CF41E060E0AF
:1024600082E00E94380887E00E94CB08882309F4A4
:102470004DC061E089E00E94F50265EE72E0CE0198
:1024800001960E94CE0C61E0CE0101960E94340DAF
:10249000CE0101960E94290A64EF71E080E090E08D
:1024A0000E94C10480E00E94461061EF72E080E269
:1024B00096E00E94EC0A68EE73E088EB91E00E94DF
:1024C000F30423CF60E08CE00E94F50268E572E03F
:1024D00080E090E00E94C10461E08CE00E94F5027F
:1024E00021E040E060EA7FE080E090E00E94A70FFA
:1024F0008DCF87E00E94CB08882309F4A3CF21E089
:1025000040E068EE73E080E090E092CF65EF72E02B
:1025100080E296E00E94EC0A69EF72E0CE0101963B
:102520000E94CE0C61E0CE0101960E94340DCE01D6
:1025300001960E94290A60E089E00E94F502BBCF63
:1025400085E0CFCE1F920F920FB60F9211242F93DA
:102550003F934F935F936F937F938F939F93AF932B
:10256000BF93EF93FF9380918E0490918F04A0917D
:102570009004B0919104892B8A2B8B2BD1F19091EF
:102580008904E0918A04F0918B04808189278083FB
:1025900080918E0490918F04A0919004B091910449
:1025A000181619061A061B069CF480918E04909149
:1025B0008F04A0919004B09191040197A109B109F1
:1025C00080938E0490938F04A0939004B093910411
:1025D000FF91EF91BF91AF919F918F917F916F91FB
:1025E0005F914F913F912F910F900FBE0F901F90D1
:1025F000189580910B01E2E7F0E0E4919FEF909352
:102600000B01E13051F030F0E23069F060E00E94FF
:10261000F502DECF10926E00F9CF90916F009D7F92
:1026200090936F00F3CF909170009D7F9093700016
:1026300091E09093B0009091B100987F9460909356
:10264000B1001092B300E2CF1F920F920FB60F921B
:1026500011242F933F934F935F936F937F938F93A7
:102660009F93AF93BF93EF93FF938AE994E00E9407
:102670001402FF91EF91BF91AF919F918F917F9144
:102680006F915F914F913F912F910F900FBE0F90DF
:102690001F9018951F920F920FB60F9211242F932F
:1026A0008F939F93EF93FF93E091AA04F091AB0473
:1026B0008081E091B004F091B10482FD1BC0908153
:1026C0008091B3048F5F8F732091B404821741F01F
:1026D000E091B304F0E0E656FB4F958F8093B3048E
:1026E000FF91EF919F918F912F910F900FBE0F90BF
:1026F0001F9018958081F4CF1F920F920FB60F9202
:1027000011242F933F938F939F93AF93BF93809107
:10271000030490910404A0910504B0910604309143
:10272000020423E0230F2D3758F50196A11DB11D9A
:10273000209302048093030490930404A09305045F
:10274000B09306048091070490910804A0910904B5
:10275000B0910A040196A11DB11D809307049093C6
:102760000804A0930904B0930A04BF91AF919F910C
:102770008F913F912F910F900FBE0F901F90189542
:1027800026E8230F0296A11DB11DD2CF1F920F92F2
:102790000FB60F9211242F933F934F935F936F9334
:1027A0007F938F939F93AF93BF93EF93FF9380910A
:1027B000B900887F803609F44AC0F0F5883209F400
:1027C000A7C018F5803109F49BC0B8F4882309F438
:1027D000F9C0883009F494C0FF91EF91BF91AF9197
:1027E0009F918F917F916F915F914F913F912F9129
:1027F0000F900FBE0F901F901895883109F488C074
:10280000803251F78093620414C0803409F49DC073
:1028100040F48033B9F38833F9F68093620485EC91
:10282000B0C0803509F485C0883509F496C0883475
:1028300099F60E947406D0CF883909F48CC038F517
:10284000883729F050F4883611F0803729F683E074
:10285000809364041092010457C0883809F47BC047
:10286000803919F0803809F0B7CF809101048032A7
:1028700008F071C0E091010481E08E0F80930104A3
:102880008091BB00F0E0EF51FC4F80833DC0803B66
:1028900039F0E0F4803A09F479C0883A09F09CCF25
:1028A00084E0809364041092E0031092DF03E091CF
:1028B0001904F0911A0409958091DF0381110FC06A
:1028C00081E08093DF031092BF0309C0803C09F4CC
:1028D000A6CF883C09F4A3CF883B09F07DCFE091D7
:1028E000E00381E08E0F8093E003F0E0E154FC4FC1
:1028F00080818093BB009091E0038091DF0329C029
:1029000080913F048093BB0085EC8093BC0064CF32
:102910009091610480916004981758F5E0916104EA
:1029200081E08E0F80936104F0E0E05CFB4F8081DA
:10293000E9CFE091610481E08E0F80936104809182
:10294000BB00F0E0E05CFB4F8083909161048091DC
:1029500060049817C8F285E8D8CFE091610481E05F
:102960008E0F809361048091BB00F0E0E05CFB4F30
:1029700080838091630481115CCF81E080933E0469
:1029800084EA8093BC001092640426CF85EC809387
:10299000BC001092640480910104803230F4E09114
:1029A0000104F0E0EF51FC4F10826091010470E0EF
:1029B000E0911704F091180481EE93E009951092CC
:1029C00001040ACF1092620434CF1F920F920FB607
:1029D0000F9211242F933F934F935F936F937F93A5
:1029E0008F939F93AF93BF93EF93FF93E091BD03BA
:1029F000F091BE03309749F0A685B7858585968D01
:102A000091FF14C09C918923A1F4FF91EF91BF9194
:102A1000AF919F918F917F916F915F914F913F9176
:102A20002F910F900FBE0F901F9018959C918923A6
:102A300061F7A389B4899C918589809589238C93BA
:102A4000868997890197F1F7608D718DA685B78585
:102A5000558538E020E0CB010197F1F7822F90E017
:102A600095958795282F4C91452309F02068315082
:102A700091F7868D81FD20958091BB0390E00196B2
:102A80008F7399273091BC03381799F0A091BB033D
:102A9000B0E0A558BC4F2C938093BB03828D938DDF
:102AA0000197F1F7A389B4898C919589892B8C932F
:102AB000ACCF868D8160868FF1CFCF93DF9310925C
:102AC0009D0410929C0488EE93E0A0E0B0E0809317
:102AD0009E0490939F04A093A004B093A1042AE5C0
:102AE00031E030939B0420939A0425EC30E030933E
:102AF000A7042093A60424EC30E03093A90420938B
:102B0000A80420EC30E03093AB042093AA0421EC1D
:102B100030E03093AD042093AC0422EC30E03093ED
:102B2000AF042093AE0426EC30E03093B104209340
:102B3000B0041092B3041092B4041092B504109231
:102B4000B60410923A051092390580933B05909394
:102B50003C05A0933D05B0933E052CE631E0309353
:102B60003805209337051092230610922206809391
:102B7000240690932506A0932606B09327068AE89C
:102B800091E09093210680932006109237061092D0
:102B90003606109239061092380610923B061092B3
:102BA0003A0610923D0610923C0660913E066E7FFA
:102BB0006D7F60933E066695617081E0682782E0D4
:102BC0000E94F50261E082E00E945503E1EBF0E033
:102BD000E491E0933006EDE9F0E0E491F0E0EE0FEF
:102BE000FF1FEF56FF4F859194919093320680938B
:102BF000310660E080E10E94550380913E0681FD30
:102C000004C061E080E10E94F50280E180932C061F
:102C1000EFEBF0E0E491E0932D06EBEAF0E0E491D5
:102C2000F0E0EE0FFF1FE957FF4F859194919093CD
:102C30002F0680932E0686E290E0909344058093C1
:102C4000430584E090E090931401809313019093E6
:102C500012018093110110921606109215068EE74C
:102C600091E0909314068093130610921C0687E25D
:102C70008093170684E180931D0684E080931E06EE
:102C800010921F061092FE051092050610920C0677
:102C900010920D0610920E0610920F0681E080939E
:102CA0000B06809308061092090682E080930A06BC
:102CB0001092FD0584E590E0909302068093010652
:102CC0000E9450209093070680930606009709F40F
:102CD0005DC024E5DC011D922A95E9F78CE190E0C6
:102CE000909300068093FF0584E090E090930406A3
:102CF000809303068091FE05882341F061E084E023
:102D00000E94550360E084E00E94F502EFE9F0E0E4
:102D1000E491F0E0EE0FFF1FEF56FF4F8591949185
:102D20009093110680931006E3EBF0E0E491E093BA
:102D300012060E943606CDEDD5E0E9E7F5E041E563
:102D400055E0199211921192DA016D937D938D9352
:102D50009D93AD019F01225B3F4FD9011D921C92B3
:102D6000B5E0ED38FB0769F71092FC051092FB0502
:102D700065E073E08BE495E00E94CE0C6AE971E0B7
:102D800085E495E0DF91CF910C94CE0C1092020671
:102D900010920106109200061092FF05A5CFCF9366
:102DA000DF93CDB7DEB766970FB6F894DEBF0FBEE0
:102DB000CDBF789484B5826084BD84B5816084BDC4
:102DC00085B5826085BD85B5816085BD80916E00C9
:102DD000816080936E0010928100809181008260FA
:102DE0008093810080918100816080938100809137
:102DF00080008160809380008091B1008460809326
:102E0000B1008091B00081608093B00080917A0021
:102E1000846080937A0080917A00826080937A0047
:102E200080917A00816080937A0080917A00806836
:102E300080937A001092C100E091AA04F091AB0453
:102E400082E08083E091AA04F091AB041082E091CB
:102E5000A604F091A7041082E091A804F091A904BF
:102E600080E180831092B204E091AE04F091AF044F
:102E700086E08083E091AC04F091AD0480818061B4
:102E80008083E091AC04F091AD0480818860808300
:102E9000E091AC04F091AD04808180688083E09182
:102EA000AC04F091AD0480818F7D808310921D046D
:102EB0000E9423036FEF80E00E942B076FEF81E0F9
:102EC0000E942B076FEF70E08091430590914405BD
:102ED0000E945907109214041092130461E08AE0D2
:102EE0000E94F50261E08AE00E94550361E089E0FA
:102EF0000E94F50261E089E00E94550361E08BE0E9
:102F00000E94F50261E08BE00E94550361E08CE0D5
:102F10000E94F50261E08CE00E94550361E088E0C8
:102F20000E94F50261E088E00E94550361E087E0BD
:102F30000E94F50261E087E00E94550361E086E0AF
:102F40000E94F50261E086E00E94550361E085E0A1
:102F50000E94F50261E085E00E94550361E08BE08C
:102F60000E94F50287E00E94DE0887E00E94FB08CD
:102F700085E00E94DE0885E00E94FB0886E00E9452
:102F8000DE0886E00E94FB0884E00E94DE0884E000
:102F90000E94FB0882E00E94DE0882E00E94FB089B
:102FA00080E00E94DE0880E00E94FB0883E00E942F
:102FB000DE0883E00E94FB0881E00E94DE0860E0FA
:102FC00084E10E94550361E083E00E9455038091F3
:102FD0000F0190E00E9486038DE00E94DE088DE0E4
:102FE0000E94FB088BE00E94DE088BE00E94FB0839
:102FF0008EE00E94DE088EE00E94FB0888E00E94BE
:10300000DE0888E00E94FB0889E00E94DE0889E073
:103010000E94FB088AE00E94DE088AE00E94FB080A
:10302000809103069091040697FD08C061E00E941C
:10303000550360E0809103060E94F50281E08093D1
:10304000FE05409101065091020670E060E080911B
:103050000606909107060E943B220E9403040E94EC
:1030600023031092180680911E06823018F098E013
:103070009093180680931B0662E370E080E090E076
:103080000E94C10460911F0683E196E00E944607FA
:1030900068EE73E080E090E00E94C10460E383E1A9
:1030A00096E00E949A090BE416E4C8010197F1F733
:1030B00060E383E196E00E949A09C8010197F1F765
:1030C00060E383E196E00E949A0983E592E001972C
:1030D000F1F760E283E196E00E949A096091180698
:1030E000606240E083E196E00E94B30984E080934F
:1030F000190640E06CE083E196E00E94B3090E946B
:10310000FE0982E080931A0640E066E083E196E0E3
:103110000E94B30940E062E083E196E00E94B309B7
:103120008BE39FE10197F1F762E080E00E94CA091A
:1031300066E072E083E196E00E94000B63E080E0CD
:103140000E94CA0969E172E083E196E00E94000BE7
:1031500080910601982F990F63E0890F0E94CA0998
:1031600060911906862F816080931906696040E09E
:1031700083E196E00E94B3098091FB059091FC05E4
:103180000A9774F4E9E7F5E010E000E0819191918D
:10319000892B09F4F7C50F5F1F4F0A301105B1F7EE
:1031A00086E00E94CB08811116C182E00E94CB0804
:1031B000811111C10E94940D87E00E94CB088823E1
:1031C00009F40CC161E089E00E94F50287E00E94E9
:1031D000CB08882341F085E00E94CB08882319F0B2
:1031E00081E080930D049E012F5F3F4F790111E034
:1031F0000E9436062B013C0169E775E0788B6F87EA
:10320000B1E5CB2EB5E0DB2EDE8ACD8AFB01312C79
:10321000212C9F0122593F4FD9011D921C92808180
:1032200091813296892BB9F1AD89BE894D915D911D
:103230006D917C911397DC968D909D90AD90BC9094
:10324000DF97D301C201841B950BA60BB70B881522
:103250009905AA05BB05F8F0480D591D6A1D7B1D8F
:10326000AD89BE894D935D936D937C931397C10196
:1032700083529A4FDC018C91882369F082AD93AD23
:10328000009709F0B3C0CF0184599F4F21E030E08F
:10329000DC012D933C937FEF271A370A8D899E8995
:1032A00004969E8B8D8B9AE02916310409F0B1CFDC
:1032B000B12CA12C4601A6E98A0E911CF401808153
:1032C00091818130910509F4B3C0029709F4B6C029
:1032D000BFEFAB1ABB0AE2E0CE0ED11CFAE0AF168C
:1032E000B10441F78DE00E94CB0881111BC0009111
:1032F0000F04012700930F0464E670E088EB91E06F
:103300000E94F30460910D01069F602D11244091ED
:10331000090181E00E9438086CE271E080E090E0F1
:103320000E94C1048EE00E94CB0881111BC0009155
:103330000E04012700930E0464E670E088EB91E030
:103340000E94F30460910C01069F602D11244091AE
:10335000080182E00E9438086CE271E080E090E0B1
:103360000E94C1048BE00E94CB0881111BC0009118
:10337000100401270093100464E670E088EB91E0EC
:103380000E94F30460910E01069F602D112440916C
:103390000A0180E00E9438086CE271E080E090E071
:1033A0000E94C10488E00E94CB08811195C08091E1
:1033B0000701882309F473C088E080931F0660E04A
:1033C00083E196E00E9446071092070168EC70E0E6
:1033D00080E090E08CC10E94310AEECE85E00E9430
:1033E000CB08882309F4EECE60E0EDCE5F013EE429
:1033F000A30EB11CD5014D915C91481759070CF0F3
:103400004ACF9F0124593F4F61E070E0D9016D938D
:103410007C934F5F5F4FD5014D935C9348175907DD
:103420000CF439CF62E070E0D9016D937C9333CF17
:10343000D6019896ED91FC9109954ACFD6019896C0
:10344000ED91FC9109958091FB059091FC05009709
:1034500009F43ECFF60120A531A5232B09F438CF7E
:1034600011A610A6F501E352FA4F1082D4011D9265
:103470001C92F501EE0FFF1FEE0FFF1FEF5AFA4FE0
:1034800014AE15AE16AE17AEF601E858FF4F118216
:10349000108201979093FC058093FB0519CFE09172
:1034A0000601E53009F05DC1E0910501ED30A0F4C1
:1034B000F0E0E35AF54E0C942F206A1A521B551B6C
:1034C000591B5B1B5F1B611B7A1B821B8A1B921B98
:1034D0009C1BA91B0E944B0E8AE00E94CB08811105
:1034E00016C0809106018F5F863008F046C1809338
:1034F000060180910601982F990F63E0890F0E94C1
:10350000CA0968EC70E080E090E00E94C10489E0A4
:103510000E94CB0881112AC080910601E82FF0E0BB
:10352000E050FF4F90819F5F9083953028F09DEF92
:10353000980F923008F410829081973040F08530D7
:1035400031F490910D04911102C010920501908107
:103550009D3020F0853011F41092050190819A3051
:1035600018F0853008F410820E94020B0E9418099E
:10357000082F882309F469C064E670E088EB91E0C5
:103580000E94F304B0900701BB2009F480C11886A3
:103590001F821A8619861C861B8609831A82F701E8
:1035A00001900020E9F73197AF014E195F09B7018B
:1035B000CE0107960E94960C0E9436062B013C0114
:1035C00001E02FE04FE06FE080E00E947C088091F6
:1035D0000B0481111AC08091FB059091FC050A979C
:1035E00094F4D12CC12CAF85B8898D919D91B88B65
:1035F000AF87892B09F401C4BFEFCB1ADB0AEAE0DD
:10360000CE16D10481F710930B040E94360664197C
:10361000750986099709603177428105910508F49B
:10362000AFC066E173E08AE994E00E94EC0A6CE2C4
:1036300071E08CED90E00E94F304B12CCE0107966E
:103640000E94290AB11010920701C7010E94D10EF1
:10365000B70185E495E00E94090CC7010E94290A80
:103660008AE991E00E946A0A811190C180910D045B
:10367000811117C28BE293E00E946A0A882309F441
:1036800051C181E00E94461086E00E94CB08811162
:1036900006C082E00E94CB08882309F458C16FE578
:1036A00072E057C10E94910E17CF81E00E94641111
:1036B00013CF80E0FBCF81E00E9446100DCF80E069
:1036C000FBCF80910D0401E020E0812780930D0461
:1036D00060911001462F811101C040E081E00E94FD
:1036E0007C080E94020B60E273E080E090E00E94A0
:1036F000C104F2CE80910D04882309F4EDCE0E941E
:103700002A08EACE80910D04882309F4E5CE0E94B0
:103710005A0AE2CE80910D04882309F4DDCE0E947E
:103720001C08DACE80910D04882309F4D5CE60E020
:103730008BE00E94F502D0CE80910D04882321F009
:1037400060E08AE00E94F50268EE73E080E090E0BD
:10375000CECF80910D04882309F4BECE61E08AE0CB
:10376000E8CFF0E0E050FF4F8081882309F4B4CE29
:10377000815080830E94020B29CE10920601B9CE9F
:103780000E941809D82E882309F43FCF64E670E020
:1037900088EB91E00E94F30401E02FE04FE060E04D
:1037A00080E00E947C0868EC70E080E090E00E947D
:1037B000C1042FE04FE06FE080E00E947C081A8295
:1037C00019821C821B821E821D82BE01695F7F4F8F
:1037D000C7010E94B70CDD861E8641E050E0BE01A5
:1037E000635F7F4FC7010E946A0C811103C0C7014C
:1037F0000E94170AB701CE0107960E94B70CC701B5
:103800000E94290A2B853C854CEF420F253031055B
:1038100008F440E050E0BE01695F7F4FC7010E949D
:10382000DF0CB701CE0107960E94090CC7010E9468
:10383000290A4B855C856F8178858AE994E00E942E
:10384000960168E971E08AE994E00E94830A2B8579
:103850003C8580914F05909150052817390709F054
:10386000D4CE8F81988560914B0570914C0500975F
:1038700009F4FFC26115710539F4232B09F407C35C
:10388000FC01808190E000C30E944222FDC281E0E1
:10389000013419F0023421F480E00E946411D5CE85
:1038A00081E0033419F0043421F480E00E944610D2
:1038B000CCCE0A3219F40E944B0EC7CE033219F453
:1038C0000E94910EC2CE802F000F990BF1E0833B36
:1038D0009F07B1F4609110046127609310048091F8
:1038E0000E01689F602D112440910A0180E00E9422
:1038F00038086CE271E080E090E00E94C104A5CE3F
:10390000875D914009F0A1CE60910F04612760931B
:103910000F0480910D01689F602D112440910901D1
:1039200081E0E5CF8EE293E00E946A0A882309F4E1
:1039300098C080E00E94461086E00E94CB0881116A
:1039400006C082E00E94CB08882309F4A8CE63EB6E
:1039500071E08AE994E00E94EC0A89E493E00E9415
:103960006A0A60E08111DBC08CE493E00E946A0A7D
:1039700060E0811108C08FE493E00E946A0A882306
:1039800009F4C6C061E08AE00E94F502C0900C0410
:10399000D12C81E00E94CB088C151D0421F10091EF
:1039A000100181E00E94CB08089F602D112401E0E6
:1039B00020E040E082E00E947C0881E00E94CB0889
:1039C00091E0811101C090E090930C0481E00E948D
:1039D000CB0860E173E0811102C063E173E080E233
:1039E00096E00E94EC0A80910D04811115C085E0DB
:1039F0000E94CB08882381F087E00E94CB088823AF
:103A000059F068E672E0C7010E94CE0CC7010E941F
:103A1000240FC7010E94290A86E480937C008091CC
:103A20007A00806480937A0080917A0086FDFCCFD2
:103A300090917800809179008927982789278C3286
:103A4000914014F40E944B0E80E090E0892B09F421
:103A5000CFCB0E940002882309F4C9CB0E9400004A
:103A6000C2CB81E393E00E946A0A882329F081E0B7
:103A70000E94641187E00ECE84E393E00E946A0AFC
:103A8000882329F080E00E94641185E003CE87E35B
:103A900093E00E946A0A882309F45FCF10930D0413
:103AA0005CCF88E293E00E946A0A882319F01092A2
:103AB0000D0453CF8AE393E00E946A0A60E081110B
:103AC00007C08DE393E00E946A0A882329F061E031
:103AD0008BE00E94F50241CF80E493E00E946A0AE5
:103AE000882319F00E941C0838CF83E493E00E94D9
:103AF0006A0A882319F00E942A082FCF86E493E0EF
:103B00000E946A0A882309F428CF0E945A0A25CF06
:103B100082E593E00E946A0A882359F061E089E017
:103B20000E94F50263EB71E08AE994E00E94EC0ADE
:103B30002DCF85E593E00E946A0A882369F086E02C
:103B40000E94CB08811105C082E00E94CB08882327
:103B500049F36FE572E0E8CF88E593E00E946A0AD6
:103B6000882331F085E00E94CB088111DBCFF1CFB3
:103B70008BE593E00E946A0A882331F089E00E9475
:103B8000CC02892B31F7CECF8EE593E00E946A0AF2
:103B9000882319F00E94910EDCCF81E693E00E9409
:103BA0006A0A882319F00E944B0ED3CF8CE592E06D
:103BB0000E946A0A882391F06FE572E08AE994E036
:103BC0000E94EC0A61E672E0C7010E94CE0CC701B8
:103BD0000E94240FC7010E94290AD8CE84E693E0F0
:103BE0000E946A0A882349F080910D046AE073E01C
:103BF00081119ACF6CE073E097CF87E693E00E9443
:103C00006A0A882341F040910A0160910E0180E028
:103C10000E94380887CF8AE693E00E946A0A8823C8
:103C200031F040E060E080E00E94380892CF8DE6FD
:103C300093E00E946A0A882331F040910901609163
:103C40000D0181E0E5CF80E793E00E946A0A8823B6
:103C500021F040E060E081E0E7CF83E793E00E945D
:103C60006A0A66EC72E081115FCF86E793E00E94FA
:103C70006A0A882309F48ACE85E00E94CB0861E0B5
:103C800070E0882311F070E060E08AE994E00E941F
:103C9000E50A87E00E94CB0861E070E0882311F01C
:103CA00070E060E08AE994E00E94E50A84E00E9406
:103CB000CB08811104C00E94CB0861E0811160E053
:103CC00070E08AE994E00E94E50A86E00E94CB0851
:103CD000811105C082E00E94CB0861E0811160E0A3
:103CE00070E08AE994E00E94E50A89E00E94CC0233
:103CF00061E070E0892B11F070E060E08AE994E007
:103D00000E94E50A81E00E94CB086EE073E0811119
:103D100002C066E972E08AE994E00E94000B80919B
:103D20000D046AE073E0811102C06CE073E08AE97F
:103D300094E00E94EC0A84E00E94CB08682F8AE994
:103D400094E00E94DE0A80E00E94CB08682F8AE996
:103D500094E00E94DE0A86E00E94CB08682F8AE980
:103D600094E00E94DE0A82E00E94CB08682F8AE974
:103D700094E00E94DE0A68E971E08AE994E00E941A
:103D8000830A04CEF801EE0FFF1FEE0FFF1FE3576B
:103D9000FA4F88EE93E0A0E0B0E080839183A283A5
:103DA000B383F801EE0FFF1FE758FA4F84E991E063
:103DB00091838083F801EE0FFF1FEB54FA4F1182BD
:103DC0001082F801E352FA4F81E080830E943606A8
:103DD000000F111F000F111FF801EF5AFA4F6083F7
:103DE0007183828393838091FB059091FC050196FA
:103DF0009093FC058093FB05D3C9F601EE0FFF1FDE
:103E0000EE0FFF1FE357FA4F60EE73E984E090E096
:103E10006083718382839383F601EE0FFF1FE7585F
:103E2000FA4F86E998E091838083F601EE0FFF1F39
:103E3000EB54FA4FA1E0B0E0B183A083F601E35266
:103E4000FA4F10830E943606F601EE0FFF1FEE0FA9
:103E5000FF1FEF5AFA4F60837183828393838091AF
:103E6000FB059091FC0501969093FC058093FB0562
:103E7000CACB6115710559F0232B49F0DB018C91F8
:103E800090E0919581959109892B09F0BECB63E271
:103E900073E08AE994E00E94EC0A6CE271E088EB3E
:103EA00091E00E94F30401E020E040E06FE080E058
:103EB0000E947C0864EF71E080E090E00E94C10401
:103EC000BDCB85E495E00E94290A8BE495E00E9431
:103ED000290A80910606909107060E94EC208091A5
:103EE00003069091040697FD03C060E00E9455030D
:103EF0008AE891E090932106809320068091BD038B
:103F00009091BE038052964071F4E0913306F09197
:103F100034069081809135068095892380831092A4
:103F2000BE031092BD0308952F923F924F925F926D
:103F30006F927F928F929F92AF92BF92CF92DF92B9
:103F4000EF92FF920F931F93CF93DF93CDB7DEB71E
:103F5000CA1BDB0B0FB6F894DEBF0FBECDBF0994B2
:103F60002A88398848885F846E847D848C849B8409
:103F7000AA84B984C884DF80EE80FD800C811B8117
:103F8000AA81B981CE0FD11D0FB6F894DEBF0FBE46
:103F9000CDBFED010895A29FB001B39FC001A39FC3
:103FA000700D811D1124911DB29F700D811D112472
:103FB000911D089597FB072E16F4009407D077FD06
:103FC00009D00E943C2007FC05D03EF490958195D5
:103FD0009F4F0895709561957F4F0895A1E21A2E25
:103FE000AA1BBB1BFD010DC0AA1FBB1FEE1FFF1F9D
:103FF000A217B307E407F50720F0A21BB30BE40BED
:10400000F50B661F771F881F991F1A9469F7609533
:104010007095809590959B01AC01BD01CF010895ED
:10402000052E97FB1EF400940E94272057FD07D011
:104030000E94EE1F07FC03D04EF40C9427205095ED
:104040004095309521953F4F4F4F5F4F0895909584
:104050008095709561957F4F8F4F9F4F0895EE0F1C
:10406000FF1F0590F491E02D09940E94CB1FB7FF2C
:104070000895821B930B0895AA1BBB1B51E107C037
:10408000AA1FBB1FA617B70710F0A61BB70B881FE8
:10409000991F5A95A9F780959095BC01CD01089577
:1040A0000F931F93CF93DF938230910510F482E03A
:1040B00090E0E0914106F091420630E020E0B0E06F
:1040C000A0E0309799F42115310509F44AC0281B66
:1040D000390B24303105D8F58A819B816115710532
:1040E00089F1FB0193838283FE0111C040815181DC
:1040F0000281138148175907E0F04817590799F4CE
:10410000109761F012960C93129713961C933296A7
:10411000CF01DF91CF911F910F9108950093410638
:1041200010934206F4CF2115310551F04217530781
:1041300038F0A901DB019A01BD01DF01F801C1CF0F
:10414000EF01F9CF9093420680934106CDCFFE0157
:10415000E20FF31F81939193225031093983288311
:10416000D7CF20913F0630914006232B41F4209178
:104170001701309118013093400620933F0620919B
:104180001501309116012115310541F42DB73EB7C7
:104190004091190150911A01241B350BE0913F0603
:1041A000F0914006E217F307A0F42E1B3F0B2817EF
:1041B000390778F0AC014E5F5F4F2417350748F0A0
:1041C0004E0F5F1F5093400640933F06819391939B
:1041D0009FCFF0E0E0E09CCFCF93DF930097E9F032
:1041E000FC01329713821282A0914106B0914206DF
:1041F000ED0130E020E01097A1F420813181820FA1
:10420000931F20913F06309140062817390709F087
:1042100061C0F0934006E0933F06DF91CF9108958F
:10422000EA01CE17DF07E8F54A815B819E0141155F
:104230005105B1F7E901FB83EA8349915991C40F14
:10424000D51FEC17FD0761F4808191810296840FE0
:10425000951FE90199838883828193819B838A8357
:10426000F0E0E0E012968D919C9113970097B9F5DC
:104270002D913C911197CD010296820F931F2091B1
:104280003F06309140062817390739F6309751F527
:104290001092420610924106B0934006A0933F064A
:1042A000BCCFD383C28340815181840F951FC8172F
:1042B000D90761F44E5F5F4F88819981480F591F7C
:1042C000518340838A819B819383828321153105A9
:1042D00009F0B0CFF0934206E09341069ECFFD0176
:1042E000DC01C0CF13821282D7CFB0E0A0E0EBE7B1
:1042F000F1E20C94961F8C01009751F4CB010E94BF
:1043000050208C01C801CDB7DEB7E0E10C94B21F9C
:10431000FC01E60FF71F9C0122503109E217F30759
:1043200008F49DC0D901CD91DC911197C617D7072C
:1043300098F0C530D10530F3CE0104978617970762
:1043400008F3C61BD70B2297C193D1936D937C932F
:10435000CF010E94EC20D6CF5B01AC1ABD0A4C0104
:104360008C0E9D1EA0914106B0914206512C412C0D
:10437000F12CE12C109731F580913F069091400689
:104380008815990509F05CC04616570608F058C014
:104390008091150190911601009741F48DB79EB759
:1043A0004091190150911A01841B950BE817F907E8
:1043B00008F055C0F0934006E0933F06F901718381
:1043C0006083A0CF8D919C91119712966C9012975B
:1043D00013967C901397A815B90559F56C0142E026
:1043E000C40ED11CCA14DB0420F1AC014A195B09CC
:1043F000DA011296159780F06282738251834083AE
:10440000D9016D937C93E114F10471F0D7011396F7
:10441000FC93EE93129776CF22968C0F9D1FF90195
:1044200091838083F301EFCFF0934206E09341063E
:1044300069CF4816590608F42C017D01D3019ACFA3
:10444000CB010E9450207C01009749F0AE01B801D9
:104450000E943222C8010E94EC20870153CF10E055
:1044600000E050CFFB01DC0102C001900D924150F1
:104470005040D8F70895DC0101C06D934150504081
:10448000E0F70895FB01DC018D9101908019011086
:10449000D9F3990B0895FB01DC0101900D920020E6
:1044A000E1F7089510E0C3E6D0E004C0FE010E94E9
:0E44B0002F202196C436D107C9F7F894FFCF0C
:1044BE000107090202000501000101FF1932C814AB
:1044CE0002030004000000430680000000400014B8
:1044DE00005400050A0F142802050A14280A19327E
:1044EE0064C83132334100343536420037383943EF
:1044FE00002A302344001000200040008000FE00FF
:10450E00FD00FB00F7000000000036029601C3011B
:10451E008302F401D201E60100000000FC06CF0682
:10452E001908A506C806B506A60600000000110A61
:10453E0096011908950100000000840796011908DC
:10454E00A506E007F8076C070D0A004155544F20E9
:10455E00004D414E55200052004F5520503100461F
:10456E0045205031004F55204142004645204142E2
:10457E00004F5520504F00464520504F004F5520BC
:10458E005032004645205032004445504C41004DBB
:10459E004F544F4E00415458204D00415458204125
:1045AE00002020202020202020202020202020201D
:1045BE00202020202000544120494E204558204CD8
:1045CE0043204C4420434D44003252203342203588
:1045DE0042203220203220205041524B004F6B009F
:1045EE005031204F2E2E2E005031204F50454E0070
:1045FE00503120462E2E2E00503120436C6F7365A5
:10460E0000415255004152552021200041550030A5
:10461E000053C3A972696500506F736974696F6E38
:10462E0000506F7274657300426F75746F6E004543
:10463E00727265757220706F736974696F6E005057
:10464E003132204F70656E00504F2300503220469D
:10465E002E2E2E0050313220462E2E2E0050462366
:10466E0000503132204F2E2E2E004572726575721B
:10467E00205061726B002B5061726B4D6F756E74B2
:10468E00004465706C6163656D656E742061627265
:10469E00692E2E2E0041627269206665726DC3A965
:1046AE000044462300444F230041627269206F7517
:1046BE00766572740031323334006D006100700023
:1046CE00544E005450004D61757661697320636FCE
:1046DE00646500436F6465204F4B00502B00502DD6
:1046EE0000442B00442D004D41006D2B006D2D001C
:1046FE00646400322B00322D00412B00582B0058E1
:10470E002D00412D00503F00443F00413F00702DD1
:10471E0000702B004D3F00452B00452D00492B000E
:0A472E00492D00504100433F0000F8
:107800000C94343C0C94513C0C94513C0C94513CE1
:107810000C94513C0C94513C0C94513C0C94513CB4
:107820000C94513C0C94513C0C94513C0C94513CA4
:107830000C94513C0C94513C0C94513C0C94513C94
:107840000C94513C0C94513C0C94513C0C94513C84
:107850000C94513C0C94513C0C94513C0C94513C74
:107860000C94513C0C94513C11241FBECFEFD8E036
:10787000DEBFCDBF11E0A0E0B1E0ECE9FFE702C060
:1078800005900D92A230B107D9F712E0A2E0B1E065
:1078900001C01D92AD30B107E1F70E942D3D0C945F
:1078A000CC3F0C94003C982F959595959595959582
:1078B000905D8F708A307CF0282F295A8091C0000B
:1078C00085FFFCCF9093C6008091C00085FFFCCF60
:1078D0002093C6000895282F205DF0CF982F809127
:1078E000C00085FFFCCF9093C6000895EF92FF92F1
:1078F0000F931F93EE24FF2487018091C00087FD22
:1079000017C00894E11CF11C011D111D81E4E8164B
:1079100082E4F8068FE0080780E0180770F3E09132
:107920000401F091050109958091C00087FFE9CF1E
:107930008091C6001F910F91FF90EF9008950E94D3
:10794000763C982F8091C00085FFFCCF9093C600B5
:1079500091362CF490330CF09053892F089597555D
:10796000892F08951F930E949F3C182F0E949F3CCF
:107970001295107F810F1F9108951F93182F882350
:1079800021F00E94763C1150E1F71F9108951F935A
:10799000182F0E94763C803249F0809103018F5F5E
:1079A000809303018530C1F01F9108958091C0003C
:1079B00085FFFCCF84E18093C6008091C00085FFE5
:1079C000FCCF1093C6008091C00085FFFCCF80E102
:1079D0008093C6001F910895E0910401F091050184
:1079E00009951F9108950E94763C803241F0809164
:1079F00003018F5F80930301853081F008958091AA
:107A0000C00085FFFCCF84E18093C6008091C00058
:107A100085FFFCCF80E18093C6000895E0910401CA
:107A2000F09105010995089540E951E08823A1F0FE
:107A30002D9A28EE33E0FA013197F1F721503040CA
:107A4000D1F72D9828EE33E0FA013197F1F7215064
:107A50003040D1F7815061F708953F924F925F9285
:107A60006F927F928F929F92AF92BF92CF92DF924E
:107A7000EF92FF920F931F93CF93DF93000080E16B
:107A80008093C4001092C50088E18093C10086E015
:107A90008093C2005098589A259A81E00E94143D24
:107AA00024E1F22E9EE1E92E85E9D82E0FE0C02ECA
:107AB00010E1B12EAA24A394B1E49B2EA6E58A2E50
:107AC000F2E57F2EE0E26E2E79E4572E63E5462E36
:107AD00050E5352E0E94763C8033B1F18133B9F107
:107AE000803409F46FC0813409F476C0823409F41B
:107AF00085C0853409F488C0803531F1823521F1A3
:107B0000813511F1853509F485C0863509F48DC0BC
:107B1000843609F496C0843709F403C1853709F423
:107B200072C1863709F466C0809103018F5F80932C
:107B30000301853079F6E0910401F0910501099582
:107B40000E94763C803351F60E94F33CC3CF0E94E2
:107B5000763C803249F78091C00085FFFCCFF092DF
:107B6000C6008091C00085FFFCCF9092C600809136
:107B7000C00085FFFCCF8092C6008091C00085FFC9
:107B8000FCCF7092C6008091C00085FFFCCF609250
:107B9000C6008091C00085FFFCCF5092C600809146
:107BA000C00085FFFCCF4092C6008091C00085FFD9
:107BB000FCCF3092C6008091C00085FFFCCFB09210
:107BC000C60088CF0E94763C863808F4BDCF0E945C
:107BD000763C0E94F33C7ECF0E94763C803809F4CC
:107BE0009CC0813809F40BC1823809F43CC1883942
:107BF00009F48FC080E00E94C73C6CCF84E10E94F2
:107C0000BD3C0E94F33C66CF85E00E94BD3C0E94D3
:107C1000F33C60CF0E94763C809306010E94763C44
:107C2000809307010E94F33C55CF0E94763C80333D
:107C300009F41DC183E00E94BD3C80E00E94C73C66
:107C400049CF0E94763C809309020E94763C809343
:107C5000080280910C028E7F80930C020E94763C79
:107C6000853409F415C18091080290910902892B8D
:107C700089F000E010E00E94763CF801E85FFE4FDA
:107C800080830F5F1F4F80910802909109020817AF
:107C9000190788F30E94763C803209F045CF809125
:107CA0000C0280FF01C16091060170910701660F0F
:107CB000771F7093070160930601A0910802B091AD
:107CC00009021097C9F0E8E0F1E09B01AD014E0F09
:107CD0005F1FF999FECF32BD21BD819180BDFA9A17
:107CE000F99A2F5F3F4FE417F50799F76A0F7B1F4B
:107CF00070930701609306018091C00085FFFCCF5F
:107D0000F092C6008091C00085FFFCCFB092C60003
:107D1000E1CE83E00E94C73CDDCE82E00E94C73CFA
:107D2000D9CE0E94763C809309020E94763C8093D3
:107D300008028091060190910701880F991F909386
:107D40000701809306010E94763C853409F4A6C0A1
:107D500080910C028E7F80930C020E94763C8032D0
:107D600009F0B8CE8091C00085FFFCCFF092C6002C
:107D7000609108027091090261157105B9F140E046
:107D800050E080910C02A82FA170B82FB27011C0E2
:107D9000BB2309F45CC0E0910601F0910701319624
:107DA000F0930701E09306014F5F5F4F46175707B7
:107DB000E8F4AA2369F3F999FECF209106013091E6
:107DC000070132BD21BDF89A90B58091C00085FFB2
:107DD000FCCF9093C6002F5F3F4F30930701209355
:107DE00006014F5F5F4F4617570718F38091C00099
:107DF00085FDE5CE8091C00085FFF8CFE0CE81E023
:107E00000E94C73C67CE0E94763C803209F08CCE3F
:107E10008091C00085FFFCCFF092C6008091C00029
:107E200085FFFCCFE092C6008091C00085FFFCCFAB
:107E3000D092C6008091C00085FFFCCFC092C600E2
:107E40008091C00085FFFCCFB092C60043CEE09188
:107E50000601F091070194918091C00085FFFCCF4D
:107E60009093C6009CCF80E10E94C73C33CE0E9415
:107E7000763C0E94763C182F0E94763C112309F430
:107E800083C0113009F484C08FE00E94C73C22CE29
:107E900080910C02816080930C02E5CE80910C02EF
:107EA000816080930C0259CF809107018823880F4D
:107EB000880B8A2180930B02809106019091070123
:107EC000880F991F90930701809306018091080203
:107ED00080FF09C080910802909109020196909359
:107EE000090280930802F894F999FECF1127E091D6
:107EF0000601F0910701C8E0D1E08091080290915D
:107F00000902103091F40091570001700130D9F34B
:107F100003E000935700E89500915700017001308D
:107F2000D9F301E100935700E89509901990009169
:107F3000570001700130D9F301E000935700E89534
:107F40001395103498F011270091570001700130FB
:107F5000D9F305E000935700E895009157000170B0
:107F60000130D9F301E100935700E895329602976A
:107F700009F0C7CF103011F00296E5CF112480919F
:107F8000C00085FFB9CEBCCE8EE10E94C73CA2CD19
:0C7F900085E90E94C73C9ECDF894FFCF0D
:027F9C00800063
:040000030000780081
:00000001FF
