:100000000C9464000C948C000C948C000C941F15C0
:100010000C941F150C941F150C948C000C94DC127E
:100020000C948C000C948C000C948C000C948C0020
:100030000C948C000C948C000C948C000C948C0010
:100040000C94B6130C948C000C9484130C945E13D3
:100050000C948C000C948C000C948C000C948C00F0
:100060000C9400140C948C00000000002400270065
:100070002A0002000000080002010000030407003B
:1000800000000000000000000000002300260029FE
:100090000000000000250028002B000404040404D4
:1000A0000404040202020202020303030303030125
:1000B00002040810204080010204081020010204FC
:1000C00008102000D2158C2011241FBECFEFD8E0DD
:1000D000DEBFCDBF26E0AEE8B3E001C01D92A6357D
:1000E000B207E1F713E0A0E0B1E0E4E1F7E402C019
:1000F00005900D92AE38B107D9F710E0C3E6D0E015
:1001000004C02197FE010E945A21C236D107C9F7C7
:100110000E9444170C947D230C9400008F929F92B0
:10012000AF92BF92CF92DF92EF92FF920F931F9305
:10013000FC014B01AA24BB24C52ED62EE72EFF249A
:10014000BC2DA42F90911806B82C992391F0A92FBB
:10015000B0E0A89D9001A99D300DB89D300D1124EF
:10016000B32E9C9D60011124BD2D949F800111240C
:10017000A12F40911E062091190630911A068091F8
:100180001B06481324C0CF01880F991F8E0F9F1F95
:10019000820F931FE0911B06E80FF92FF11DB0822B
:1001A000E0911C06E80FF92FF11DB08320911D0688
:1001B000820F911DFC01A0831F910F91FF90EF9082
:1001C000DF90CF90BF90AF909F908F900895CF0118
:1001D000880F991F880F991F820F931FFC01E40F4E
:1001E000F11D1082D7CF20919B0481E0213208F0CD
:1001F00044C0809177048111FCCF80919A0492E0F1
:100200009093770491E0909376049FEF9093750418
:100210001092740420937304AAE7B4E0E3E5F4E0D9
:1002200090E0291331C01092520490915204880F2B
:10023000892B8093520480915104813049F51092AA
:100240005104809152048093BB008091BC0083FDD7
:10025000F8CF85EC8093BC00809177048230E1F385
:10026000809175048F3FB1F0809175048032A1F0C8
:1002700080917504803391F084E01092790410929B
:100280009B041092780408953D9131939F5FC9CFEC
:1002900085EEE0CF80E0F1CF82E0EFCF83E0EDCFDD
:1002A000909177049111FCCF91E090937704909313
:1002B00076042FEF2093750410927404260F209378
:1002C00073049093520490915204880F892B809369
:1002D0005204809151048130F9F4109251048091BC
:1002E00052048093BB008091BC0083FDF8CF85EC65
:1002F0008093BC00809177048130E1F38091740495
:10030000861710F460917404A3E5B4E0E1E3F4E02F
:1003100080E0861303C0089585EEEACF9D91919306
:100320008F5FF7CF0895089508950895AF92BF9213
:10033000CF92DF92EF92FF920F931F93CF93DF93B1
:100340006C017B018B01040F151FEB015E01AE18E0
:10035000BF08C017D10759F06991D601ED91FC9102
:100360000190F081E02DC6010995892B79F7C5012F
:10037000DF91CF911F910F91FF90EF90DF90CF9081
:10038000BF90AF900895FC01538D448D252F30E030
:10039000842F90E0821B930B541710F0CF96089592
:1003A00001970895FC01918D828D981761F0A28DBF
:1003B000AE0FBF2FB11D5D968C91928D9F5F9F7385
:1003C000928F90E008958FEF9FEF0895FC01918D3B
:1003D000828D981731F0828DE80FF11D858D90E0A8
:1003E00008958FEF9FEF0895FC01918D228D892F45
:1003F00090E0805C9F4F821B91098F73992708952D
:100400008DEA94E00E94F40121E0892B09F420E0B8
:10041000822F089580E090E0892B29F00E9400024D
:1004200081110C9400000895FC01A48DA80FB92F30
:10043000B11DA35ABF4F2C91848D90E001968F730C
:100440009927848FA689B7892C93A089B1898C912B
:10045000837080648C93938D848D981306C002887A
:10046000F389E02D80818F7D80830895EF92FF9244
:100470000F931F93CF93DF93EC0181E0888F9B8DC7
:100480008C8D98131AC0E889F989808185FF15C081
:100490009FB7F894EE89FF896083E889F9898081A4
:1004A0008370806480839FBF81E090E0DF91CF9173
:1004B0001F910F91FF90EF900895F62E0B8D10E095
:1004C0000F5F1F4F0F731127E02E8C8D8E110CC004
:1004D0000FB607FCFACFE889F989808185FFF5CF4F
:1004E000CE010E941402F1CFEB8DEC0FFD2FF11D18
:1004F000E35AFF4FF0829FB7F8940B8FEA89FB898C
:1005000080818062CFCFCF93DF93EC01888D8823E9
:10051000B9F0AA89BB89E889F9898C9185FD03C066
:10052000808186FD0DC00FB607FCF7CF8C9185FF4B
:10053000F2CF808185FFEDCFCE010E941402E9CF7A
:10054000DF91CF910895833081F028F4813099F0C4
:100550008230A9F008958730A9F08830C9F084303E
:10056000B1F4809180008F7D03C0809180008F77EF
:1005700080938000089584B58F7784BD089584B5F5
:100580008F7DFBCF8091B0008F778093B00008956E
:100590008091B0008F7DF9CFCF93DF93282F30E08B
:1005A000F901ED58FF4F8491F901E155FF4FD491C6
:1005B000F901E556FF4FC491CC23A1F081110E94AF
:1005C000A302EC2FF0E0EE0FFF1FE957FF4FA591BC
:1005D000B491EC91ED2381E090E009F480E0DF91AB
:1005E000CF91089580E090E0FACF1F93CF93DF93EF
:1005F000282F30E0F901ED58FF4F8491F901E155C2
:10060000FF4FD491F901E556FF4FC491CC23A9F0D7
:10061000162F81110E94A302EC2FF0E0EE0FFF1FB6
:10062000EF56FF4FA591B4918FB7F894EC9111114B
:1006300008C0D095DE23DC938FBFDF91CF911F914F
:100640000895DE2BF8CF10922F0410922E041092F2
:10065000790410929B041092770481E080937604D1
:100660001092510461E082E10E94F50261E083E1B1
:100670000E94F502E9EBF0E080818E7F808380812B
:100680008D7F808388E48093B80085E48093BC00EC
:1006900082E991E090932D0480932C0483E991E00A
:1006A00090932B0480932A040895CF93DF9390E0D6
:1006B000FC01E155FF4F249185569F4FFC01849129
:1006C0008823D1F090E0880F991FFC01E859FF4F73
:1006D000A591B491FC01EF56FF4FC591D4916111E2
:1006E0000EC09FB7F8948C91E22FE0958E238C93E7
:1006F0002881E223E8839FBFDF91CF9108958FB7D0
:10070000F894EC91E22BEC938FBFF6CFCF93DF936D
:10071000EC0161E083E00E945503209731F460E032
:1007200083E0DF91CF910C94F502CF3FD10511F416
:1007300061E0F6CFE6E7F0E0E491E33029F140F440
:10074000E130B1F0E230D9F0C038D1058CF7E7CF15
:10075000E73021F1E83051F1E430B1F780918000C9
:10076000806280938000D0938B00C0938A0004C085
:1007700084B5806884BDC7BDDF91CF91089584B5ED
:10078000806284BDC8BDF8CF80918000806880936E
:100790008000D0938900C0938800EECF8091B00094
:1007A00080688093B000C093B300E6CF8091B00022
:1007B00080628093B000C093B400DECF3FB7F8945E
:1007C0008091160490911704A0911804B091190417
:1007D00026B5A89B05C02F3F19F00196A11DB11D9C
:1007E0003FBFBA2FA92F982F8827BC01CD01620FD8
:1007F000711D811D911D42E0660F771F881F991F93
:100800004A95D1F708950F931F93CF93DF93CDB7F8
:10081000DEB729970FB6F894DEBF0FBECDBF80912B
:10082000190690911A06892B09F467C00E94DE030D
:1008300000911F061091200620912106309122067A
:10084000601B710B820B930B6C327140810591051B
:1008500068F3F89480911406909115069A83898321
:10086000E0911906F0911A06DF01119680818987BF
:1008700090911006E0912306F091240680912506C0
:10088000992309F445C09081982B98879081809591
:1008900089238F838F818C8388E08B8358856F8138
:1008A00049853B812C8189819A81508347FD252F81
:1008B0003A952083262F39F0441F00C00000608342
:1008C000000000C0F2CF38E04D9160830000019736
:1008D00061F7F0932406E093230649873B832C833A
:1008E0009A83898378940E94DE0360931F06709335
:1008F0002006809321069093220629960FB6F8943D
:10090000DEBF0FBECDBFDF91CF911F910F91089534
:100910009081982B98879081809589238F838F81F0
:100920008E8388E08D8358856F8149853D812E8136
:1009300089819A81508347FD252F00C000C0208304
:1009400000C000C000C000C000C060830000262FAF
:100950003A9541F0441F000000C000C000C000C034
:1009600000C0E8CF38E04D9100C0608300C001971F
:1009700009F7F0932406E093230649873D832E83ED
:10098000AFCF8F929F92AF92BF92CF92DF92EF92B2
:10099000FF924B015C010E94DE036B017C010E940F
:1009A000DE036C197D098E099F09683E734081053D
:1009B0009105A8F321E0821A9108A108B10888EEF8
:1009C000C80E83E0D81EE11CF11C81149104A1041F
:1009D000B10429F7FF90EF90DF90CF90BF90AF90D8
:1009E0009F908F9008954F925F926F927F928F9217
:1009F0009F92AF92BF92EF92FF920F931F93CF936C
:100A00008C017B0180910B018131D9F08F3F09F47A
:100A10003FC068EC70E080E090E00E94C1048091EB
:100A20000F0190E0CF911F910F91FF90EF90BF9039
:100A3000AF909F908F907F906F905F904F900C94AD
:100A40008603E2E7F0E0C491C7FDE3CF61E081E116
:100A50000E945503C11132C02801012E000C660806
:100A6000770862E17AE780E090E0A30192010E94BA
:100A70003B2149015A0181E0881A9108A108B10877
:100A800096E0C1113BC085B5887F846085BDABC051
:100A900081E180930B01E2E7F0E0C491CF3F09F4DC
:100AA000B8CFC13009F44AC080F1C23009F464C043
:100AB000C7FDAFCF61E081E10E9455039801012E8F
:100AC000000C440B550BC23009F078C029013A01E3
:100AD00064E274EF80E090E00E943B2149015A01FA
:100AE00081E0881A9108A108B10895E08FEF881677
:100AF0009104A104B10411F00CF0B3CF8091B100C6
:100B0000887F892B8093B1006EC014BC15BC84B55E
:100B1000826084BD85B5816085BDECEAF0E0E4913A
:100B2000F0E0EE0FFF1FEF56FF4F85919491E0EC40
:100B3000F0E0E491E093A004C0E088CF1092800040
:100B40001092810080918100886080938100809163
:100B50008100816080938100ECEAF0E0E491F0E0B4
:100B6000EE0FFF1FEF56FF4F85919491E0ECF0E000
:100B7000E491E0939F046ACF1092B0001092B1000C
:100B80008091B00082608093B0008091B10081605C
:100B90008093B100ECEAF0E0E491F0E0EE0FFF1F8B
:100BA000EF56FF4F8591949190939E0480939D04FE
:100BB000E0ECF0E0E491E0939C0448CF60E072E167
:100BC0008AE790E00E943B2149015A0181E0881A9E
:100BD0009108A108B108C13031F480918100887F6B
:100BE0008160809381009801220F331FD7010E94FA
:100BF000602128EE33E040E050E00E941921C1302E
:100C000099F0C23019F1C11104CF87BC2093A90417
:100C10003093AA044093AB045093AC0480916E00CF
:100C2000826080936E00F5CE909289008092880059
:100C30002093A5043093A6044093A7045093A804DE
:100C400080916F00826080936F00E3CE8092B3004A
:100C50002093A1043093A2044093A3045093A404CE
:100C600080917000826080937000D3CE2FB7F8948B
:100C700060911204709113048091140490911504F2
:100C80002FBF08950F931F93CF93DF93EC010E9422
:100C90003606688779878A879B87E881F98102848D
:100CA000F385E02DCE01099597FF15C00E94360609
:100CB000088519852A853B85601B710B820B930B78
:100CC0000C811D812E813F81601771078207930778
:100CD00020F38FEF9FEFDF91CF911F910F91089538
:100CE00085ED8093BC008091BC0084FDFCCF109208
:100CF000770408952091EE03260F3327331F213206
:100D00003105ECF420917704FC0190E080E0243080
:100D100069F082E00895A091EE032191AC01425365
:100D20005C4FA40FB52FB11D2C930196861798F335
:100D30008091EE03680F6093EE0380E0089581E0F8
:100D400008950895E0912F0480912E04E81730F45F
:100D5000F0E0EF5CFB4F808190E008958FEF9FEF14
:100D6000089590912F0480912E042FEF3FEF981754
:100D700048F4E92FF0E0EF5CFB4F208130E09F5F0B
:100D800090932F04C901089580912E0490912F040F
:100D9000891B990B0895CF92DF92EF92FF920F93E8
:100DA0001F93CF93DF937C01CB018A0120917804BC
:100DB000222389F0EB016B01C40ED51ECC15DD0595
:100DC00069F06991D701ED91FC910190F081E02DDE
:100DD000C7010995F3CF642F0E947A06C801DF91FD
:100DE000CF911F910F91FF90EF90DF90CF900895DA
:100DF000CF93DF931F92CDB7DEB76983209178043C
:100E00002223F9F020919B04203258F021E030E0B9
:100E1000FC013383228390E080E00F90DF91CF913B
:100E2000089580917904E82FF0E0E658FB4F99810E
:100E300090838F5F8093790480939B0481E090E09E
:100E4000ECCF61E0CE0101960E947A06F7CFCF93F6
:100E5000C62F90913004906221E020937804909303
:100E60009A041092790410929B04682F8AE495E00A
:100E70000E94F8066C2F8AE495E00E94F806CF9154
:100E80000C94F300FC01248131E03093780420932A
:100E90009A041092790410929B048485682B8AE44A
:100EA00095E00E94F8060C94F30060932804709378
:100EB000290491E09093780480939A041092790425
:100EC00010929B048AE495E00E94F8060C94F300CB
:100ED00020911C0430911D042817390771F490915A
:100EE0001A0480911B04981741F0E0911A04F0E075
:100EF000E257FC4F808190E008958FEF9FEF0895B7
:100F0000EF92FF920F931F93CF93DF93DC015C96D8
:100F1000ED90FC905D97E114F10479F481E090E0AC
:100F200013969C938E93129790E080E0DF91CF917F
:100F30001F910F91FF90EF9008955196ED91FC91C4
:100F4000529750968C915097982F90950FB75E9628
:100F50002C915E97122F127021FD6095F8942081DC
:100F6000112319F1282B2083E7012197F1F728E0BD
:100F7000462F50E0308160FF1AC0382B3083E701E4
:100F80002197F1F7BA0175956795215089F71123DB
:100F900081F08081892380830FBF5C968D919C9125
:100FA0000197F1F781E090E0C1CF2923DCCF39230D
:100FB000E5CF9081892BEFCF20911C0430911D0447
:100FC0002817390771F480911B0420911A0490E0CE
:100FD000805C9F4F821B910960E470E00E940521B4
:100FE000089590E080E0089520911C0430911D0444
:100FF00028173907B9F490911A0480911B049817A7
:1010000089F0E0911A04F0E0E257FC4F80812091D2
:101010001A0430E02F5F3F4F2F73332720931A04B9
:1010200090E008958FEF9FEF089590E080E008959D
:1010300060E08CE00E94F50268E572E080E090E0FC
:101040000E94C10461E08CE00C94F50260E085E050
:101050000E94F50260E47CE980E090E00E94C10417
:1010600061E085E00C94F5028F929F92AF92BF925F
:10107000FF920F931F93CF93DF93982F990F990FA0
:10108000990F24E0F22EF90E98E0899FE0011124D7
:101090002B96469F002D112410E030E020E04801FF
:1010A0005901A62A322F212F102F0027802A912A9A
:1010B000A22AB32A8F2D90E0C817D9077CF020917F
:1010C0001206309113068217930720F4B501A4018C
:1010D0000E948E000E940304F394ECCFDF91CF9125
:1010E0001F910F91FF90BF90AF909F908F900895A8
:1010F0000F93362FE42F90E0409112065091130683
:101100008417950740F4422F50E070E060E05E2BBA
:10111000632B0E948E00002319F00F910C9403049E
:101120000F9108950F9380911E04882361F001E0D0
:1011300020E040E060E080E00E94780881E0809359
:10114000070110921E040F9108959091300490624F
:1011500021E02093780490939A04109279041092DD
:101160009B04682F8AE495E00E94F8060E94F30031
:101170008091300461E080620E94500110922F043F
:1011800080932E048AE495E00E94B1060895CF93DF
:10119000C82FC770883060F083E10E94A50890E0F6
:1011A00002C095958795CA95E2F78170CF91089511
:1011B00082E1F3CFCF93DF93C82FD1E0883008F4DA
:1011C000D0E08D2F0E94A508C77041E050E060E09C
:1011D00070E004C0440F551F661F771FCA95D2F7F1
:1011E000682F642B8D2FDF91CF910C942707CF931D
:1011F000DF93C82FDDE0883008F4DCE08D2F0E94FB
:10120000A508C77041E050E060E070E004C0440F02
:10121000551F661F771FCA95D2F7682F642B8D2F35
:10122000DF91CF910C942707CF92DF92EF92FF923C
:101230000F931F93CF93DF93C0912604D09127047F
:10124000F0905605E0905705FE01EE0FFF1FE25BA0
:10125000FE4F608171818F2D9E2D0E94550796E46F
:10126000C92E91E0D92E10E000E0809111019091FB
:1012700012010817190784F561E08F2D0E945001B3
:1012800010922F0480932E048AE495E00E94B10608
:10129000F601419151916F01209128043091290468
:1012A0008227932784179507A1F485E08C9FF0018E
:1012B0008D9FF00D1124EE5CFE4FE00FF11F808139
:1012C000082E000C990B909325048093240480E051
:1012D0000DC00F5F1F4FC9CF80912404909125044A
:1012E000009769F01092250410922404DF91CF91A9
:1012F0001F910F91FF90EF90DF90CF9008956FEFC7
:1013000070E08F2D9E2D0E9455072196D0932704C3
:10131000C09326048091130190911401C817D90736
:10132000B1F61092270410922604D1CF0F931F9389
:10133000CF938C01C62F0E9442076C2F6460C801B6
:101340000E9442076C2F6B7FC8010E94420783EC0A
:1013500090E00197F1F7CF911F910F9108950F93AE
:101360001F93CF93DF938C01D62FC42F607F642B04
:101370000E94960980E1D89FB00111246C2BC8010E
:10138000DF91CF911F910F910C949609CF93DF932A
:10139000CDB7DEB728970FB6F894DEBF0FBECDBF2E
:1013A00098E0EBE1F1E0DE01119601900D929A9543
:1013B000E1F790912E06961710F46FEF690F262F24
:1013C00030E0220F331F41E050E04C0F5D1F240F2F
:1013D000351FF9016081680F606840E086E296E0A1
:1013E00028960FB6F894DEBF0FBECDBFDF91CF9128
:1013F0000C94AF0940E061E086E296E00E94AF09FC
:101400008BE39FE10197F1F780912F06882321F06C
:1014100060E080E00C94C609089541E00E94AF09A5
:1014200081E090E00895CF93DF93EC01888199816A
:10143000009711F00E941722198218821D821C82C7
:101440001B821A82DF91CF910895FC0180819181E6
:10145000009711F00C94172208951092320660E064
:1014600086E296E00E944207E0E1F6E04481558181
:1014700070E060E0818592850E9466230E940304EB
:1014800061E08BE00E94F50261E089E00E94F502D4
:1014900061E08AE00E94F50268EE73E080E090E08F
:1014A0000E94C10481E080931F0480930701109281
:1014B0001E04089560E086E00E94F50260E47CE985
:1014C00080E090E00E94C10461E086E00E94F502A5
:1014D0000C942D0A20915C0530915D05232B39F485
:1014E00021E0FC018081882361F020E00AC0BC017A
:1014F00080915805909159050E946D2321E0892B18
:10150000A1F7822F0895FB0101900020E9F73197A0
:10151000AF01461B570BDC01ED91FC910280F3817A
:10152000E02D0994CF93DF93FC01448155816081C4
:1015300071818DEA94E00E949601EC0168E971E006
:101540008DEA94E00E94830A8C0F9D1FDF91CF915A
:1015500008956115710511F00C94830A90E080E004
:1015600008958F929F92AF92BF92EF92FF920F9346
:101570001F93CF93DF93CDB7DEB7A1970FB6F89443
:10158000DEBF0FBECDBF7C01FA01CB0119A2223014
:1015900008F42AE08E010F5D1F4F822E912CB12C92
:1015A000A12CBF01A50194010E941921F901CA01D2
:1015B0006A30ECF4605DD8016E938D01232B242BEF
:1015C000252B79F7BD01C7010E94A90AA1960FB684
:1015D000F894DEBF0FBECDBFDF91CF911F910F9169
:1015E000FF90EF90BF90AF909F908F900895695CAF
:1015F000E2CF462F50E070E060E02AE00C94B10AA0
:10160000AB01770F660B770B2AE00C94B10A0F93AE
:101610001F93CF93DF93EC010E94A90A8C0168E924
:1016200071E0CE010E94830A800F911FDF91CF915C
:101630001F910F9108950C94A90A0F93CF93C09115
:1016400006018C2F880F63E08C0F0E94C609C330FF
:1016500008F06FC0EC2FF0E0E050FF4F8081682F62
:1016600070E08530E8F16450710986E296E00E94EE
:10167000000B69EB71E086E296E00E941B0B209163
:101680000601822F90E0FC01E85FFE4F31E03083DD
:10169000FC01E050FF4FE081F0E0E85DFE4F60812B
:1016A000FC01E45FFE4F60838F5D9B4FFC018081F6
:1016B000689F602D112441E082E0821B0E94340863
:1016C00080910601982F990F63E0890F0E94C60947
:1016D00068EC70E080E090E0CF910F910C94C10431
:1016E0006F5F7F4F86E296E00E94000B6BE971E02E
:1016F00086E296E00E941B0B20910601822F90E06B
:10170000FC01E85FFE4F1082FC01E050FF4FE081DA
:10171000F0E0E35DFE4F6081FC01E45FFE4F60831B
:101720008F5D9B4FFC018081689F602D112440E0FC
:10173000C3CFC43029F56091040186E296E00E948F
:10174000F90AE0910601F0E0E050FF4FE081F0E09F
:10175000E85DFE4FC081C093100101E020E040E051
:101760006C2F81E00E94780881E00E94C708C89F22
:10177000602D112420E040E082E00E947808A0CF94
:10178000C330B1F46091030186E296E00E94F90A49
:10179000E0910601F0E0E050FF4FE081F0E0ED5D08
:1017A000FE4F808180930F0190E00E94860388CFD6
:1017B000EC2FF0E0E050FF4FE081EF3008F080CFF9
:1017C000F0E0EB51F44F0C945A21F40BFB0BFE0BA1
:1017D000010C040C070C0A0C0D0C100C130C160C4D
:1017E000190C1C0C1F0C220C6DE971E086E296E0CE
:1017F0000E941B0B65CF63EA71E0F8CF69EA71E0E4
:10180000F5CF6FEA71E0F2CF65EB71E0EFCF6BEBF4
:1018100071E0ECCF61EC71E0E9CF67EC71E0E6CF0D
:101820006DEC71E0E3CF63ED71E0E0CF69ED71E065
:10183000DDCF6FED71E0DACF65EE71E0D7CF6BEE03
:1018400071E0D4CF61EF71E0D1CF0F931F93CF93AD
:10185000DF938C01EB01FC01808191810097E1F025
:101860006881798161157105A9F0428153812C81CC
:101870003D814217530770F00E9476238C819D8131
:10188000F801958384831D821C82DF91CF911F9183
:101890000F9108950E94172288819981F801918300
:1018A00080838A819B81938382838C819D819583B0
:1018B0008483198218821B821A82E5CF0F931F93AB
:1018C000CF93DF93EC0188819981009759F02A81A9
:1018D0003B812617370730F081E0DF91CF911F91D0
:1018E0000F9108958B016F5F7F4F0E94A022009798
:1018F00059F0998388831B830A832C813D81232B94
:1019000059F7FC011082E8CF80E0E7CFEF92FF9219
:101910000F931F93CF93DF936115710541F480E01E
:10192000DF91CF911F910F91FF90EF900895411596
:101930005105B1F07B01EC010C811D81040F151FD5
:10194000B8010E945E0C882351F3288139818C8173
:101950009D81B701820F931F0E9476231D830C8304
:1019600081E0DECFEF92FF920F931F93CF93DF932F
:10197000EC017B018A01BA010E945E0C81110BC04F
:10198000CE010E94130ACE01DF91CF911F910F91DA
:10199000FF90EF9008951D830C83B7018881998192
:1019A0000E947623F0CFCF93DF93EC01FB018617E3
:1019B000970749F0608171816115710541F044819B
:1019C00055810E94B20CCE01DF91CF9108950E9403
:1019D000130AF9CFFC011182108213821282158240
:1019E0001482FB0101900020E9F73197AF01461BFB
:1019F000570B0C94B20CAF92BF92CF92DF92EF9242
:101A0000FF920F931F93CF93DF937C016B015A01D9
:101A100089012417350720F48B2D5901042F182F25
:101A20006AE971E0C7010E94EA0CD6011496CD91D3
:101A3000DC91AC16BD0620F50C171D0708F4E80173
:101A4000D601ED91FC911197EC0FFD1F10811082D2
:101A50006D917C916A0D7B1D61157105E9F0FB01AB
:101A600001900020E9F73197AF01461B570BC701E2
:101A70000E94B20CF60180819181C80FD91F188392
:101A8000C701DF91CF911F910F91FF90EF90DF90F1
:101A9000CF90BF90AF900895C7010E94130AEACF7C
:101AA000EF92FF920F93CF93DF9300D000D000D03E
:101AB000CDB7DEB77C01862F6091100101E020E0F8
:101AC000462F823051F0833009F445C0262F40E084
:101AD000813009F041C020E040E081E00E947808B8
:101AE00044E150E067EF71E0C7010E94860C2FE0EF
:101AF00030E050E040E0B701CE0101960E94FB0CBF
:101B0000BE016F5F7F4FC7010E94250CCE01019679
:101B10000E94250A61E080E00E94C609F701448125
:101B200055816081718186E296E00E9496018091E4
:101B30000601982F990F63E0890F0E94C609269627
:101B40000FB6F894DEBF0FBECDBFDF91CF910F91DE
:101B5000FF90EF90089520E060E0BFCFCF92DF923A
:101B6000EF92FF920F931F93CF93DF9300D0CDB7E7
:101B7000DEB78C016B01E42E6AE971E00E94EA0C89
:101B8000C6010E9442060E2C000CFF0897FD11C0F2
:101B9000E816F90671F089831A8241E050E0BE012F
:101BA0006F5F7F4FC8010E94860CC6010E944206EB
:101BB000EDCFC8010F900F90DF91CF911F910F9142
:101BC000FF90EF90DF90CF9008950F931F93CF93E6
:101BD000DF9300D000D000D0CDB7DEB760E08AE060
:101BE0000E94F50260ED77E080E090E00E94C10481
:101BF0001091100100E020E040E0612F81E00E94A0
:101C0000780820E040E0612F82E00E94780801E03F
:101C10002FE04FE06FE080E00E94780880910F0194
:101C200090E00E9486030E94FA0988E080933206C1
:101C300060E086E296E00E94420762E080E00E9457
:101C4000C6096CE072E086E296E00E941B0B63E03E
:101C500080E00E94C6096FE172E086E296E00E9491
:101C60001B0B80910601982F990F63E0890F0E944A
:101C7000C60960912C06862F816080932C066960CE
:101C800040E086E296E00E94AF0963E372E0CE0195
:101C900001960E94EA0C61E0CE0101960E94500D6F
:101CA000CE0101960E94250A60E08BE00E94F502B9
:101CB00081E00E94C70891E0811190E090931F0499
:101CC0001092070110921E0426960FB6F894DEBFFC
:101CD0000FBECDBFDF91CF911F910F910895CF938C
:101CE000DF9300D000D000D0CDB7DEB760E08AE04F
:101CF0000E94F50260ED77E080E090E00E94C10470
:101D000066E372E0CE0101960E94EA0C60E0CE012B
:101D100001960E94500DCE0101960E94250A60E0B6
:101D200087E00E94F50260E47CE980E090E00E9498
:101D3000C1046EE372E0CE0101960E94EA0C61E0FC
:101D4000CE0101960E94500DCE0101960E94250AF7
:101D500061E087E00E94F50226960FB6F894DEBF98
:101D60000FBECDBFDF91CF910895CF93DF9300D009
:101D700000D000D0CDB7DEB766E472E0CE010196A8
:101D80000E94EA0C60E0CE0101960E94500DCE0147
:101D900001960E94250A60E088E00E94F50260E456
:101DA0007CE980E090E00E94C1046EE472E0CE0124
:101DB00001960E94EA0C61E0CE0101960E94500D4E
:101DC000CE0101960E94250A61E088E00E94F5029A
:101DD00061E08AE00E94F50226960FB6F894DEBF15
:101DE0000FBECDBFDF91CF9108950F931F93CF9377
:101DF000DF9300D000D000D0CDB7DEB78C018DEAE4
:101E000094E00E94F40143E26DEA74E0892B49F406
:101E100083E396E00E94DC07892B51F143E263E300
:101E200076E0CE0101960E94AE0DBE016F5F7F4F3E
:101E300088E595E00E94250CCE0101960E94250AB6
:101E4000F80111821082138212821582148268E5D1
:101E500075E0C8010E94D30CC80126960FB6F8940D
:101E6000DEBF0FBECDBFDF91CF911F910F910895BF
:101E70006AE971E0C8010E94EA0CEECF0F931F934C
:101E8000CF93DF93CDB7DEB72C970FB6F894DEBFB4
:101E90000FBECDBF8C0167E572E08DEA94E00E9431
:101EA000070B61E089E00E94F50261E08BE00E948F
:101EB000F50261E08CE00E94F50261E088E00E949A
:101EC000F50261E087E00E94F50261E086E00E9491
:101ED000F50261E085E00E94F50261E08BE00E947E
:101EE000F50281E0809320046BE572E0CE0101965B
:101EF0000E94EA0CF8014481558160817181CE0114
:101F000001960E94860C811104C0CE0101960E94A8
:101F1000130A18861F821A8619861C861B86BE0124
:101F20006F5F7F4FCE0107960E94D30C63E0CE0116
:101F300007960E94500DCE0107960E94250ACE01F9
:101F400001960E94250A01E020E042E360E081E082
:101F50000E94780883E00E94C708811107C064E6E8
:101F600070E080E090E00E94C104F4CF2C960FB6A0
:101F7000F894DEBF0FBECDBFDF91CF911F910F91BF
:101F800008957F928F929F92AF92BF92CF92DF92ED
:101F9000EF92FF920F931F93CF93DF9300D000D067
:101FA00000D0CDB7DEB74B015C01042F722E0E942A
:101FB00036066B017C0110E00E9436066C197D0923
:101FC0008E099F09681579058A059B0508F076C07A
:101FD000CE0101960E94F50EBE016F5F7F4F88E52E
:101FE00095E00E94250CCE0101960E94250A82E60A
:101FF00092E00E946A0A882349F165E672E08DEA60
:1020000094E00E94070B67E672E0CE0101960E9401
:10201000EA0CCE0101960E943E0FCE0101960E946D
:10202000250A80E026960FB6F894DEBF0FBECDBF1E
:10203000DF91CF911F910F91FF90EF90DF90CF90A4
:10204000BF90AF909F908F907F90089581E00E9405
:10205000C708811106C0113019F467EC72E0D5CFC2
:1020600011E0002369F085E00E94C708882341F051
:1020700087E00E94C708882319F06EE672E0C5CF9A
:10208000772069F086E00E94C708882319F067E787
:1020900072E0BBCF82E00E94C7088111F8CF83E0D5
:1020A0000E94C708811103C06EE772E0AECF64E6FC
:1020B00070E080E090E00E94C1047ECF81E0B2CF6A
:1020C0000F931F93CF93DF9300D000D000D0CDB7F4
:1020D000DEB7182F882309F400C186E00E94C708E4
:1020E000811181C082E00E94C70881117CC065E82F
:1020F00072E0CE0101960E94EA0C62E0CE010196E8
:102100000E94500DCE0101960E94250A10E0812FF9
:1021100026960FB6F894DEBF0FBECDBFDF91CF91EC
:102120001F910F91089520E041E064E670E080E0A7
:1021300090E09AC06091100101E020E0462F81E01C
:102140000E94780861E08BE00E94F5026BEA72E081
:10215000CE0101960E94EA0C61E0CE0101960E9438
:10216000500DCE0101960E94250A60E086E00E9493
:10217000F50220E041E060E47FE180E090E00E9431
:10218000C10F882319F263EB72E0CE0101960E9421
:10219000EA0C60E0CE0101960E94500DCE0101963E
:1021A0000E94250A60E088E00E94F50220E041E0FC
:1021B00060E47CE980E090E00E94C10F182F882342
:1021C00009F4A4CF61E088E00E94F50261E086E0B6
:1021D0000E94F5026CEB72E083E396E00E94070B2D
:1021E0000E942D0A94CF0E94E50D88E0809332066C
:1021F00060E086E296E00E94420766E372E0CE016C
:1022000001960E94EA0C60E0CE0101960E94500DFA
:10221000CE0101960E94250A60E087E00E94F50247
:1022200020E041E068E873E180E090E00E94C10FA7
:10223000882309F46BCF60E085E00E94F50265E930
:1022400072E0CE0101960E94EA0C60E0CE01019698
:102250000E94500DCE0101960E94250A20E041E027
:1022600060E375E780E090E00E94C10F882309F4E5
:102270004DCF86E00E94C708811155CF82E00E94B1
:10228000C708811150CF20E041E068E873E180E0A9
:1022900090E00E94C10F182F882309F437CF61E026
:1022A00087E00E94F50261E085E00E94F5026EE998
:1022B00072E0CE0101960E94EA0C61E0CE01019627
:1022C0000E94500DCE0101960E94250A67EA72E035
:1022D00083E396E00E94070B1ACF84E00E94C708B0
:1022E000811106C080E00E94C708882309F4FFCE50
:1022F00085E00E94C708882309F41CCF65E872E0D6
:10230000CE0101960E94EA0C62E0CE0101960E9485
:10231000500DCE0101960E94250AF9CE0F931F930E
:10232000CF93DF9300D000D000D0CDB7DEB78823A5
:1023300009F440C187E00E94C70881111CC065E80C
:1023400072E0CE0101960E94EA0C62E0CE01019695
:102350000E94500DCE0101960E94250A10E0812FA7
:1023600026960FB6F894DEBF0FBECDBFDF91CF919A
:102370001F910F91089581E00E94C70881112FC01D
:1023800060EC72E0CE0101960E94EA0C62E0CE01A0
:1023900001960E94500DCE0101960E94250A6CEC18
:1023A00072E083E396E00E94A90A4DE063E376E0E1
:1023B000CE0101960E94AE0DCE0101960E94920AB6
:1023C000CE0101960E94250A81E00E94C708882359
:1023D00081F181E00E94C708882309F4BFCF61E042
:1023E00089E00E94F5026091100101E020E0462F93
:1023F00081E00E94780886E00E94C708811120C011
:1024000082E00E94C70881111BC08BE00E94CC02B1
:10241000892B11F160E08BE00E94F50220E041E0A1
:1024200060E177E280E090E00E94C10F811114C06A
:1024300095CF60E177E280E090E00E94C104C4CFD4
:102440008BE00E94CC02892B21F060E08BE00E949F
:10245000F50281E00E94601060ED72E0CE0101960D
:102460000E94EA0C60E0CE0101960E94500DCE0160
:1024700001960E94250A41E064E682E00E94340849
:1024800085E00E94C708882309F456C087E00E94AF
:10249000C708882309F450C021E040E068EF7AE2E1
:1024A00080E090E00E94C10F882309F457CF85E0B7
:1024B0000E94C708811157C021E040E060ED77E03D
:1024C00080E090E00E94C10F182F882309F446CFC6
:1024D00041E060E082E00E94340887E00E94C70883
:1024E000882309F44DC061E089E00E94F50264EEA2
:1024F00072E0CE0101960E94EA0C61E0CE010196E5
:102500000E94500DCE0101960E94250A64EF71E0F1
:1025100080E090E00E94C10480E00E94601060EFC3
:1025200072E083E396E00E94070B68EE73E088EBAD
:1025300091E00E94F30413CF60E08CE00E94F5026A
:1025400068E572E080E090E00E94C10461E08CE008
:102550000E94F50221E040E060EA7FE080E090E048
:102560000E94C10F8DCF87E00E94C708882309F41D
:10257000A3CF21E040E068EE73E080E090E092CFEE
:1025800064EF72E083E396E00E94070B68EF72E06D
:10259000CE0101960E94EA0C61E0CE0101960E94F4
:1025A000500DCE0101960E94250A60E089E00E944C
:1025B000F502BBCF85E0BFCE1F920F920FB60F92F0
:1025C00011242F933F934F935F936F937F938F9338
:1025D0009F93AF93BF93EF93FF938091A10490914A
:1025E000A204A091A304B091A404892B8A2B8B2B65
:1025F000D1F190919C04E0919D04F0919E04808122
:10260000892780838091A1049091A204A091A304C2
:10261000B091A404181619061A061B069CF48091A2
:10262000A1049091A204A091A304B091A4040197E5
:10263000A109B1098093A1049093A204A093A304DB
:10264000B093A404FF91EF91BF91AF919F918F91AF
:102650007F916F915F914F913F912F910F900FBE9E
:102660000F901F90189580910B01E2E7F0E0E49144
:102670009FEF90930B01E13051F030F0E23069F0C0
:1026800060E00E94F502DECF10926E00F9CF9091CB
:102690006F009D7F90936F00F3CF909170009D7FAE
:1026A0009093700091E09093B0009091B100987F6A
:1026B00094609093B1001092B300E2CF1F920F92FA
:1026C0000FB60F9211242F933F934F935F936F9305
:1026D0007F938F939F93AF93BF93EF93FF938DEA75
:1026E00094E00E941402FF91EF91BF91AF919F91EE
:1026F0008F917F916F915F914F913F912F910F90AB
:102700000FBE0F901F9018951F920F920FB60F9249
:1027100011242F938F939F93EF93FF93E091BD0428
:10272000F091BE048081E091C304F091C40482FD65
:102730001BC090818091C6048F5F8F732091C70466
:10274000821741F0E091C604F0E0E355FB4F958F0E
:102750008093C604FF91EF919F918F912F910F90DD
:102760000FBE0F901F9018958081F4CF1F920F928B
:102770000FB60F9211242F933F938F939F93AF9394
:10278000BF938091120490911304A0911404B0910E
:1027900015043091110423E0230F2D3758F50196CD
:1027A000A11DB11D20931104809312049093130472
:1027B000A0931404B093150480911604909117040B
:1027C000A0911804B09119040196A11DB11D809328
:1027D000160490931704A0931804B0931904BF91A2
:1027E000AF919F918F913F912F910F900FBE0F90BE
:1027F0001F90189526E8230F0296A11DB11DD2CF78
:102800001F920F920FB60F9211242F933F934F9365
:102810005F936F937F938F939F93AF93BF93EF9348
:10282000FF938091B900887F803609F44AC0F0F5A3
:10283000883209F4A7C018F5803109F49BC0B8F4B8
:10284000882309F4F9C0883009F494C0FF91EF910E
:10285000BF91AF919F918F917F916F915F914F91B8
:102860003F912F910F900FBE0F901F9018958831B8
:1028700009F488C0803251F78093750414C0803405
:1028800009F49DC040F48033B9F38833F9F680939E
:10289000750485ECB0C0803509F485C0883509F42D
:1028A00096C0883499F60E947006D0CF883909F412
:1028B0008CC038F5883729F050F4883611F080370D
:1028C00029F683E0809377041092100457C088386B
:1028D00009F47BC0803919F0803809F0B7CF8091B6
:1028E0001004803208F071C0E091100481E08E0F76
:1028F000809310048091BB00F0E0E051FC4F808396
:102900003DC0803B39F0E0F4803A09F479C0883A60
:1029100009F09CCF84E0809377041092EF0310922B
:10292000EE03E0912C04F0912D0409958091EE03C3
:1029300081110FC081E08093EE031092CE0309C095
:10294000803C09F4A6CF883C09F4A3CF883B09F06A
:102950007DCFE091EF0381E08E0F8093EF03F0E0F5
:10296000E253FC4F80818093BB009091EF038091F4
:10297000EE0329C0809152048093BB0085EC8093C4
:10298000BC0064CF9091740480917304981758F53B
:10299000E091740481E08E0F80937404F0E0ED5AAE
:1029A000FB4F8081E9CFE091740481E08E0F80932A
:1029B00074048091BB00F0E0ED5AFB4F808390914E
:1029C0007404809173049817C8F285E8D8CFE09119
:1029D000740481E08E0F809374048091BB00F0E05A
:1029E000ED5AFB4F80838091760481115CCF81E0AA
:1029F0008093510484EA8093BC001092770426CF20
:102A000085EC8093BC001092770480911004803292
:102A100030F4E0911004F0E0E051FC4F108260913E
:102A2000100470E0E0912A04F0912B0480EF93E011
:102A30000995109210040ACF1092750434CF1F929A
:102A40000F920FB60F9211242F933F934F935F93E2
:102A50006F937F938F939F93AF93BF93EF93FF9366
:102A6000E0911C04F0911D04309749F0A685B785CC
:102A70008585968D91FF14C09C918923A1F4FF91C7
:102A8000EF91BF91AF919F918F917F916F915F91E6
:102A90004F913F912F910F900FBE0F901F9018955F
:102AA0009C91892361F7A389B4899C91858980953C
:102AB00089238C93868997890197F1F7608D718DB1
:102AC000A685B785558538E020E0CB010197F1F761
:102AD000822F90E095958795282F4C91452309F0FA
:102AE0002068315091F7868D81FD209580911B04DF
:102AF00090E001968F73992730911A04381799F056
:102B0000A0911B04B0E0A257BC4F2C9380931B04F0
:102B1000828D938D0197F1F7A389B4898C91958962
:102B2000892B8C93ACCF868D8160868FF1CF8F926D
:102B30009F92AF92BF92CF92DF92EF92FF92CF938C
:102B4000DF93EC010E9436066B017C010E94360681
:102B50004B015C01C818D908EA08FB0888EEC816C2
:102B600083E0D806E104F10458F483E396E00E9480
:102B7000DC07892B29F40E9436066B017C01EACF21
:102B80004DE063E376E0CE010E94AE0DCE01DF9111
:102B9000CF91FF90EF90DF90CF90BF90AF909F903C
:102BA0008F900895CF93DF931092B0041092AF04EA
:102BB00088EE93E0A0E0B0E08093B1049093B2047B
:102BC000A093B304B093B4042AE531E03093AE048B
:102BD0002093AD0425EC30E03093BA042093B9047F
:102BE00024EC30E03093BC042093BB0420EC30E0B4
:102BF0003093BE042093BD0421EC30E03093C00438
:102C00002093BF0422EC30E03093C2042093C1042F
:102C100026EC30E03093C4042093C3041092C60421
:102C20001092C7041092C8041092C90410924D0566
:102C300010924C0580934E0590934F05A09350053C
:102C4000B09351052CE631E030934B0520934A05B3
:102C50001092360610923506809337069093380608
:102C6000A0933906B0933A068AE891E0909334062F
:102C70008093330610924A061092490610924C0631
:102C800010924B0610924E0610924D06109250066E
:102C900010924F06609151066E7F6D7F60935106D2
:102CA0006695617081E0682782E00E94F50261E02C
:102CB00082E00E945503E1EBF0E0E491E0934306EB
:102CC000EDE9F0E0E491F0E0EE0FFF1FEF56FF4F6B
:102CD00085919491909345068093440660E080E14D
:102CE0000E9455038091510681FD04C061E080E19E
:102CF0000E94F50280E180933F06EFEBF0E0E49163
:102D0000E0934006EBEAF0E0E491F0E0EE0FFF1F05
:102D1000E957FF4F85919491909342068093410625
:102D200086E290E0909357058093560584E090E00A
:102D300090931401809313019093120180931101D9
:102D400010922906109228068EE791E090932706AC
:102D50008093260610922F0687E280932A0684E14C
:102D60008093300684E080933106109232061092F0
:102D700011061092180610921F061092200610924B
:102D800021061092220681E080931E0680931B0686
:102D900010921C0682E080931D061092100684E5B6
:102DA00090E090931506809314060E947B219093E7
:102DB0001A0680931906009709F45DC024E5DC012A
:102DC0001D922A95E9F78CE190E090931306809389
:102DD000120684E090E09093170680931606809187
:102DE0001106882341F061E084E00E94550360E011
:102DF00084E00E94F502EFE9F0E0E491F0E0EE0FEC
:102E0000FF1FEF56FF4F8591949190932406809376
:102E10002306E3EBF0E0E491E09325060E943606FA
:102E2000C0EFD5E0ECE8F5E044E655E019921192E8
:102E30001192DA016D937D938D939D93AD019F0166
:102E4000225B3F4FD9011D921C92B5E0E03AFB078F
:102E500069F710920F0610920E0664E073E08EE59B
:102E600095E00E94EA0C6AE971E088E595E0DF915F
:102E7000CF910C94EA0C1092150610921406109241
:102E8000130610921206A5CFCF93DF93CDB7DEB70E
:102E900066970FB6F894DEBF0FBECDBF789484B5A9
:102EA000826084BD84B5816084BD85B5826085BD46
:102EB00085B5816085BD80916E00816080936E00D4
:102EC00010928100809181008260809381008091C6
:102ED0008100816080938100809180008160809377
:102EE00080008091B10084608093B1008091B00037
:102EF00081608093B00080917A00846080937A0032
:102F000080917A00826080937A0080917A0081605B
:102F100080937A0080917A00806880937A00109282
:102F2000C100E091BD04F091BE0482E08083E09195
:102F3000BD04F091BE041082E091B904F091BA048E
:102F40001082E091BB04F091BC0480E18083109278
:102F5000C504E091C104F091C20486E08083E09151
:102F6000BF04F091C004808180618083E091BF0440
:102F7000F091C004808188608083E091BF04F0916B
:102F8000C004808180688083E091BF04F091C00418
:102F900080818F7D808310924E0610924D06109294
:102FA0004C0610924B0610924A06109249068DE983
:102FB00091E09093500680934F0690913F06963192
:102FC00008F047C02DEB30E030934A0620934906C5
:102FD0002BE931E030934C0620934B062CE231E094
:102FE00030934E0620934D062091680084E098307F
:102FF00048F031E09E3008F430E081E001C0880FF5
:103000003A95EAF7822B809368002DE630E09830FD
:1030100050F02BE630E09E3030F02CE630E0963178
:1030200010F030E020E03093470620934606292F29
:1030300030E0983008F0D1C281E001C0880F9A9545
:10304000EAF78093480680914F06909150060197C9
:10305000F1F780914D0690914E06892B49F1E09150
:103060001C04F0911D0426E0E333F20709F13097C8
:1030700039F0A389B4899C918589809589238C93A3
:10308000809151068E7F8093510610921B041092FE
:103090001A0483E396E090931D0480931C04E0914E
:1030A0004606F0914706808190914806892B8083DF
:1030B000109230040E9423036FEF80E00E942707E4
:1030C0006FEF81E00E9427076FEF70E08091560557
:1030D000909157050E9455071092270410922604DC
:1030E00061E08AE00E94F50261E08AE00E945503F7
:1030F00061E089E00E94F50261E089E00E945503E9
:1031000061E08BE00E94F50261E08BE00E945503D4
:1031100061E08CE00E94F50261E08CE00E945503C2
:1031200061E088E00E94F50261E088E00E945503BA
:1031300061E087E00E94F50261E087E00E945503AC
:1031400061E086E00E94F50261E086E00E9455039E
:1031500061E085E00E94F50261E085E00E94550390
:1031600061E08BE00E94F50287E00E94DA0887E0C8
:103170000E94F70885E00E94DA0885E00E94F708BF
:1031800086E00E94DA0886E00E94F70884E00E9448
:10319000DA0884E00E94F70882E00E94DA0882E000
:1031A0000E94F70880E00E94DA0880E00E94F70899
:1031B00083E00E94DA0883E00E94F70881E00E9421
:1031C000DA0860E084E10E94550361E083E00E9438
:1031D000550380910F0190E00E9486038DE00E94CC
:1031E000DA088DE00E94F7088BE00E94DA088BE095
:1031F0000E94F7088EE00E94DA088EE00E94F7082D
:1032000088E00E94DA0888E00E94F70889E00E94BE
:10321000DA0889E00E94F7088AE00E94DA088AE06A
:103220000E94F708809116069091170697FD08C036
:1032300061E00E94550360E0809116060E94F5024D
:1032400081E080931106409114065091150670E0BC
:1032500060E08091190690911A060E9466230E94F0
:1032600003040E94230310922B06809131068230C2
:1032700018F098E090932B0680932E0662E370E09E
:1032800080E090E00E94C1046091320686E296E000
:103290000E94420768EE73E080E090E00E94C10463
:1032A00060E386E296E00E9496090BE416E4C8010A
:1032B0000197F1F760E386E296E00E949609C80163
:1032C0000197F1F760E386E296E00E94960983E5B4
:1032D00092E00197F1F760E286E296E00E9496099B
:1032E00060912B06606240E086E296E00E94AF09A2
:1032F00084E080932C0640E06CE086E296E00E9439
:10330000AF090E94FA0982E080932D0640E066E052
:1033100086E296E00E94AF0940E062E086E296E035
:103320000E94AF098BE39FE10197F1F762E080E033
:103330000E94C6096CE072E086E296E00E941B0BD8
:1033400063E080E00E94C6096FE172E086E296E0E9
:103350000E941B0B80910601982F990F63E0890F43
:103360000E94C60960912C06862F816080932C06EE
:10337000696040E086E296E00E94AF0980910E0607
:1033800090910F060A9774F4ECE8F5E010E000E085
:1033900081919191892B09F420C60F5F1F4F0A304C
:1033A0001105B1F786E00E94C708811123C182E0B0
:1033B0000E94C70881111EC10E94E50D87E00E948E
:1033C000C708882309F419C161E089E00E94F50269
:1033D00087E00E94C708882341F085E00E94C70863
:1033E000882319F081E080932004BE016F5F7F4F36
:1033F0007B0111E00E9436062B013C018CE895E030
:10340000988B8F87B4E6CB2EB5E0DB2EDE8ACD8A93
:10341000FC01312C212C9F0122593F4FD9011D92D3
:103420001C92808191813296892BB9F1AD89BE8938
:103430004D915D916D917C911397DC968D909D904F
:10344000AD90BC90DF97D301C201841B950BA60BF6
:10345000B70B88159905AA05BB05F8F0480D591D4D
:103460006A1D7B1DAD89BE894D935D936D937C93E1
:103470001397C10180519A4FDC018C91882369F028
:1034800082AD93AD009709F0C0C0CF0184599F4F22
:1034900021E030E0DC012D933C937FEF271A370ABF
:1034A0008D899E8904969E8B8D8B9AE02916310416
:1034B00009F0B1CFB12CA12C4601A6E98A0E911CCE
:1034C000F401808191818130910509F4C0C0029797
:1034D00009F4C3C0BFEFAB1ABB0AE2E0CE0ED11CA9
:1034E000FAE0AF16B10441F78DE00E94C7088111E0
:1034F0001BC00091220401270093220464E670E0BF
:1035000088EB91E00E94F30460910D01069F602D0D
:1035100011244091090181E00E9434086CE271E0BD
:1035200080E090E00E94C1048EE00E94C7088111F3
:103530001BC00091210401270093210464E670E080
:1035400088EB91E00E94F30460910C01069F602DCE
:1035500011244091080182E00E9434086CE271E07D
:1035600080E090E00E94C1048BE00E94C7088111B6
:103570001BC00091230401270093230464E670E03C
:1035800088EB91E00E94F30460910E01069F602D8C
:10359000112440910A0180E00E9434086CE271E03D
:1035A00080E090E00E94C10488E00E94C708811179
:1035B000AEC080910701882309F480C088E0809321
:1035C000320660E086E296E00E9442071092070110
:1035D00068EC70E080E090E0C3C19E3040F4285079
:1035E000310981E001C0880F2A95EAF72ACD2E50D3
:1035F0003109F7CF0E942D0AE1CE85E00E94C7086D
:10360000882309F4E1CE60E0E0CE5F013EE4A30E42
:10361000B11CD5014D915C91481759070CF03DCF75
:103620009F0124593F4F61E070E0D9016D937C9375
:103630004F5F5F4FD5014D935C93481759070CF4CA
:103640002CCF62E070E0D9016D937C9326CFD60138
:103650009896ED91FC9109953DCFD6019896ED9104
:10366000FC91099580910E0690910F06009709F440
:1036700031CFF60120A531A5232B09F42BCF11A6BC
:1036800010A6F501E051FA4F1082D4011D921C9250
:10369000F501EE0FFF1FEE0FFF1FEC59FA4F14AEAE
:1036A00015AE16AE17AEF601E858FF4F1182108224
:1036B000019790930F0680930E060CCFE0910601C0
:1036C000E53009F05BC1E0910501EF3000F5F0E075
:1036D000E459F44E0C945A217B1B6D1C701C731C16
:1036E000771C791C7D1C7F1C821C8A1C921C9A1CD6
:1036F000A41CB31CBB1C67EC72E08DEA94E00E9432
:10370000070B6CEC72E083E396E00E94A90A8AE062
:103710000E94C708811116C0809106018F5F863014
:1037200008F038C18093060180910601982F990F07
:1037300063E0890F0E94C60968EC70E080E090E0C9
:103740000E94C10489E00E94C70881112AC08091AB
:103750000601E82FF0E0E050FF4F90819F5F9083DB
:10376000953028F09DEF980F923008F410829081E8
:10377000983040F0853031F490912004911102C0CE
:103780001092050190819C3020F0853011F4109248
:10379000050190819A3018F0853008F410820E945B
:1037A0001D0B0E941409082F882309F469C064E6E0
:1037B00070E088EB91E00E94F304B0900701BB2019
:1037C00009F468C118861F821A8619861C861B8612
:1037D00009831A82F70101900020E9F73197AF01C0
:1037E0004E195F09B701CE0107960E94B20C0E94E4
:1037F00036062B013C0101E02FE04FE06FE080E056
:103800000E94780880911E0481111AC080910E06D2
:1038100090910F060A9794F4D12CC12CAF85B889EA
:103820008D919D91B88BAF87892B09F411C4BFEF9F
:10383000CB1ADB0AEAE0CE16D10481F710931E04FE
:103840000E94360664197509860997096031774226
:103850008105910508F4A1C065E173E08DEA94E06B
:103860000E94070B6CE271E08CED90E00E94F30483
:10387000B12CCE0107960E94250AB11010920701C3
:10388000C7010E94F50EB70188E595E00E94250C5E
:10389000C7010E94250A8AE991E00E946A0A811103
:1038A00078C1809120048111FFC18AE293E00E94D7
:1038B0006A0A882309F439C181E00E94601086E019
:1038C0000E94C708811106C082E00E94C7088823B1
:1038D00009F440C165E672E03FC10E946F0E17CF48
:1038E0000E94B50E14CF81E00E948E1110CF80E0AF
:1038F000FBCF81E00E9460100ACF80E0FBCF1093E5
:10390000200405CF80912004882309F400CF0E9471
:103910002608FDCE80912004882309F4F8CE0E9469
:103920005A0AF5CE80912004882309F4F0CE0E9433
:103930001808EDCE80912004882309F4E8CE60E0D9
:103940008BE00E94F502E3CE80912004882321F0D1
:1039500060E08AE00E94F50268EE73E080E090E0AB
:103960000E94C104D4CE80912004882309F4CFCED4
:1039700061E08AE0E6CF10922004C9CEF0E0E0508A
:10398000FF4F8081882309F4C2CE815080830E943A
:103990001D0B1ECE10920601C7CE0E941409D82E10
:1039A000882309F44DCF64E670E088EB91E00E9433
:1039B000F30401E02FE04FE060E080E00E9478082F
:1039C00068EC70E080E090E00E94C1042FE04FE0DE
:1039D0006FE080E00E9478081A8219821C821B82A4
:1039E0001E821D82BE01695F7F4FC7010E94D30CFA
:1039F000DD861E8641E050E0BE01635F7F4FC70158
:103A00000E94860C811103C0C7010E94130AB701EE
:103A1000CE0107960E94D30CC7010E94250A2B8570
:103A20003C854CEF420F2530310508F440E050E072
:103A3000BE01695F7F4FC7010E94FB0CB701CE0139
:103A400007960E94250CC7010E94250ACE01079601
:103A50000E94920A2B853C858091620590916305B6
:103A60002817390709F0ECCE8F81988560915E05A3
:103A700070915F05009709F427C36115710539F44A
:103A8000232B09F42FC3FC01808190E028C30E94FE
:103A90006D2325C381E0013419F0023421F480E064
:103AA0000E948E11EDCE81E0033419F0043421F42C
:103AB00080E00E946010E4CE0A3219F40E946F0E7A
:103AC000DFCE033219F40E94B50EDACE802F000F3C
:103AD000990BF1E08D3A9F07B1F4609123046127BF
:103AE0006093230480910E01689F602D1124409102
:103AF0000A0180E00E9434086CE271E080E090E00E
:103B00000E94C104BDCE875D914009F0B9CE60919D
:103B1000220461276093220480910D01689F602D2B
:103B200011244091090181E0E5CF8DE293E00E94EC
:103B30006A0A882309F498C080E00E94601086E039
:103B40000E94C708811106C082E00E94C70888232E
:103B500009F4C0CE6DEA71E08DEA94E00E94070B93
:103B600088E493E00E946A0A60E08111DBC08BE484
:103B700093E00E946A0A60E0811108C08EE493E03D
:103B80000E946A0A882309F4C6C061E08AE00E94A4
:103B9000F502C0901F04D12C81E00E94C7088C154B
:103BA0001D0421F10091100181E00E94C708089FC7
:103BB000602D112401E020E040E082E00E947808BE
:103BC00081E00E94C70891E0811101C090E09093CC
:103BD0001F0481E00E94C7086FE073E0811102C0FA
:103BE00062E173E083E396E00E94070B809120047A
:103BF000811115C085E00E94C708882381F087E005
:103C00000E94C708882359F06EE672E0C7010E943F
:103C1000EA0CC7010E943E0FC7010E94250A86E4F4
:103C200080937C0080917A00806480937A008091F8
:103C30007A0086FDFCCF90917800809179008927E9
:103C4000982789278C32914014F40E946F0E80E0EF
:103C500090E0892B09F4CECB0E940002882309F45E
:103C6000C8CB0E940000C1CB80E393E00E946A0AA7
:103C7000882329F081E00E948E1187E026CE83E31D
:103C800093E00E946A0A882329F080E00E948E1146
:103C900085E01BCE86E393E00E946A0A882309F43C
:103CA0005FCF109320045CCF87E293E00E946A0A02
:103CB000882319F01092200453CF89E393E00E94E7
:103CC0006A0A60E0811107C08CE393E00E946A0AEF
:103CD000882329F061E08BE00E94F50241CF8FE359
:103CE00093E00E946A0A882319F00E94180838CFCE
:103CF00082E493E00E946A0A882319F00E94260851
:103D00002FCF85E493E00E946A0A882309F428CF24
:103D10000E945A0A25CF81E593E00E946A0A88230F
:103D200039F061E089E00E94F5026DEA71E063C05C
:103D300084E593E00E946A0A882369F086E00E9485
:103D4000C708811105C082E00E94C708882369F373
:103D500065E672E050C087E593E00E946A0A882316
:103D600031F085E00E94C7088111DFCFF1CF8AE5ED
:103D700093E00E946A0A882331F089E00E94CC0215
:103D8000892B31F7D2CF8DE593E00E946A0A882310
:103D900019F00E94B50EDCCF80E693E00E946A0A1B
:103DA000882319F00E946F0ED3CF82E692E00E9422
:103DB0006A0A882391F065E672E08DEA94E00E9439
:103DC000070B67E672E0C7010E94EA0CC7010E9478
:103DD0003E0FC7010E94250ADCCE83E693E00E94D5
:103DE0006A0A882369F08091200469E073E08111F8
:103DF00002C06BE073E08DEA94E00E94070BC9CE2D
:103E000086E693E00E946A0A882341F040910A0105
:103E100060910E0180E00E94340887CF89E693E02C
:103E20000E946A0A882331F040E060E080E00E944E
:103E300034088ECF8CE693E00E946A0A882331F022
:103E40004091090160910D0181E0E5CF8FE693E09B
:103E50000E946A0A882321F040E060E081E0E7CF19
:103E600082E793E00E946A0A882369F06CEC72E0B2
:103E700083E396E00E941B0BC7010E949715C701C0
:103E80000E94920AA6CF85E793E00E946A0A68E73B
:103E900073E0811110C08CE793E00E946A0A6FE71B
:103EA00073E0811108C083E893E00E946A0A8823C6
:103EB00039F066E873E083E396E00E94A90ADCCF5C
:103EC0008AE893E00E946A0A882309F462CE85E0BA
:103ED0000E94C70861E070E0882311F070E060E0A4
:103EE0008DEA94E00E94000B87E00E94C70861E021
:103EF00070E0882311F070E060E08DEA94E00E94A9
:103F0000000B84E00E94C708811104C00E94C7080A
:103F100061E0811160E070E08DEA94E00E94000BA6
:103F200086E00E94C708811105C082E00E94C70890
:103F300061E0811160E070E08DEA94E00E94000B86
:103F400089E00E94CC0261E070E0892B11F070E002
:103F500060E08DEA94E00E94000B81E00E94C708B7
:103F60006DE073E0811102C065EA72E08DEA94E0D1
:103F70000E941B0B8091200469E073E0811102C054
:103F80006BE073E08DEA94E00E94070B84E00E94EE
:103F9000C708682F8DEA94E00E94F90A80E00E9429
:103FA000C708682F8DEA94E00E94F90A86E00E9413
:103FB000C708682F8DEA94E00E94F90A82E00E9407
:103FC000C708682F8DEA94E00E94F90A68E971E059
:103FD0008DEA94E00E94830ADCCDF801EE0FFF1F0A
:103FE000EE0FFF1FE056FA4F88EE93E0A0E0B0E03E
:103FF00080839183A283B383F801EE0FFF1FE45700
:10400000FA4F84E991E091838083F801EE0FFF1F5E
:10401000E853FA4F11821082F801E051FA4F81E023
:1040200080830E943606000F111F000F111FF80138
:10403000EC59FA4F608371838283938380910E06DB
:1040400090910F06019690930F0680930E06AAC9D1
:10405000F601EE0FFF1FEE0FFF1FE056FA4F60EE66
:1040600073E984E090E06083718382839383F60137
:10407000EE0FFF1FE457FA4F82E998E091838083A7
:10408000F601EE0FFF1FE853FA4FA1E0B0E0B18355
:10409000A083F601E051FA4F10830E943606F60124
:1040A000EE0FFF1FEE0FFF1FEC59FA4F6083718375
:1040B0008283938380910E0690910F0601969093D0
:1040C0000F0680930E06BACB6115710559F0232BAC
:1040D00049F0DB018C9190E0919581959109892BB4
:1040E00009F0AECB62E273E08DEA94E00E94070B28
:1040F0006CE271E088EB91E00E94F30401E020E0C3
:1041000040E06FE080E00E94780860ED77E080E0BA
:1041100090E00E94C104ADCB88E595E00E94250A9D
:104120008EE595E00E94250A8091190690911A0665
:104130000E941722809116069091170697FD03C0E2
:1041400060E00E9455038AE891E0909334068093E2
:10415000330680911C0490911D048353964071F4A2
:10416000E0914606F091470690818091480680953F
:104170008923808310921D0410921C0408952F92AD
:104180003F924F925F926F927F928F929F92AF92E7
:10419000BF92CF92DF92EF92FF920F931F93CF9334
:1041A000DF93CDB7DEB7CA1BDB0B0FB6F894DEBFCB
:1041B0000FBECDBF09942A88398848885F846E84F1
:1041C0007D848C849B84AA84B984C884DF80EE803B
:1041D000FD800C811B81AA81B981CE0FD11D0FB644
:1041E000F894DEBF0FBECDBFED010895A29FB001D0
:1041F000B39FC001A39F700D811D1124911DB29F1B
:10420000700D811D1124911D089597FB072E16F442
:10421000009407D077FD09D00E94672107FC05D0E4
:104220003EF4909581959F4F0895709561957F4FCD
:104230000895A1E21A2EAA1BBB1BFD010DC0AA1FE7
:10424000BB1FEE1FFF1FA217B307E407F50720F0FF
:10425000A21BB30BE40BF50B661F771F881F991F7A
:104260001A9469F760957095809590959B01AC01C3
:10427000BD01CF010895052E97FB1EF400940E9406
:10428000522157FD07D00E94192107FC03D04EF49C
:104290000C94522150954095309521953F4F4F4FAA
:1042A0005F4F089590958095709561957F4F8F4FE2
:1042B0009F4F0895EE0FFF1F0590F491E02D099494
:1042C0000E94F620B7FF0895821B930B0895AA1B46
:1042D000BB1B51E107C0AA1FBB1FA617B70710F0F1
:1042E000A61BB70B881F991F5A95A9F78095909523
:1042F000BC01CD0108950F931F93CF93DF938230BC
:10430000910510F482E090E0E0915406F09155069A
:1043100030E020E0B0E0A0E0309799F421153105BD
:1043200009F44AC0281B390B24303105D8F58A819D
:104330009B816115710589F1FB0193838283FE01E5
:1043400011C0408151810281138148175907E0F063
:104350004817590799F4109761F012960C93129729
:1043600013961C933296CF01DF91CF911F910F913D
:1043700008950093540610935506F4CF2115310586
:1043800051F04217530738F0A901DB019A01BD0132
:10439000DF01F801C1CFEF01F9CF9093550680936B
:1043A0005406CDCFFE01E20FF31F8193919322506B
:1043B000310939832883D7CF209152063091530693
:1043C000232B41F4209117013091180130935306AB
:1043D00020935206209115013091160121153105C7
:1043E00041F42DB73EB74091190150911A01241B99
:1043F000350BE0915206F0915306E217F307A0F453
:104400002E1B3F0B2817390778F0AC014E5F5F4F2A
:104410002417350748F04E0F5F1F50935306409303
:104420005206819391939FCFF0E0E0E09CCFCF9331
:10443000DF930097E9F0FC01329713821282A0917A
:104440005406B0915506ED0130E020E01097A1F43C
:1044500020813181820F931F2091520630915306A3
:104460002817390709F061C0F0935306E09352060C
:10447000DF91CF910895EA01CE17DF07E8F54A8171
:104480005B819E0141155105B1F7E901FB83EA8388
:1044900049915991C40FD51FEC17FD0761F4808134
:1044A00091810296840F951FE90199838883828107
:1044B00093819B838A83F0E0E0E012968D919C913A
:1044C00013970097B9F52D913C911197CD01029664
:1044D000820F931F209152063091530628173907F7
:1044E00039F6309751F51092550610925406B09354
:1044F0005306A0935206BCCFD383C283408151811F
:10450000840F951FC817D90761F44E5F5F4F8881EC
:104510009981480F591F518340838A819B819383DE
:1045200082832115310509F0B0CFF0935506E09351
:1045300054069ECFFD01DC01C0CF13821282D7CF7B
:10454000B0E0A0E0E6EAF2E20C94C1208C01009712
:1045500051F4CB010E947B218C01C801CDB7DEB79D
:10456000E0E10C94DD20FC01E60FF71F9C012250D6
:104570003109E217F30708F49DC0D901CD91DC9110
:104580001197C617D70798F0C530D10530F3CE0183
:1045900004978617970708F3C61BD70B2297C1937A
:1045A000D1936D937C93CF010E941722D6CF5B01EC
:1045B000AC1ABD0A4C018C0E9D1EA0915406B09100
:1045C0005506512C412CF12CE12C109731F580919E
:1045D0005206909153068815990509F05CC046165D
:1045E000570608F058C08091150190911601009768
:1045F00041F48DB79EB74091190150911A01841B67
:10460000950BE817F90708F055C0F0935306E093AF
:104610005206F90171836083A0CF8D919C9111970F
:1046200012966C90129713967C901397A815B90563
:1046300059F56C0142E0C40ED11CCA14DB0420F110
:10464000AC014A195B09DA011296159780F0628273
:10465000738251834083D9016D937C93E114F104FB
:1046600071F0D7011396FC93EE93129776CF2296B2
:104670008C0F9D1FF90191838083F301EFCFF0939D
:104680005506E093540669CF4816590608F42C01E4
:104690007D01D3019ACFCB010E947B217C01009741
:1046A00049F0AE01B8010E945D23C8010E941722A3
:1046B000870153CF10E000E050CFFB01DC0102C0C6
:1046C00001900D9241505040D8F70895DC0101C08F
:1046D0006D9341505040E0F70895FB01DC018D914E
:1046E000019080190110D9F3990B0895FB01DC01A9
:1046F00001900D920020E1F7089510E0C3E6D0E0AC
:1047000004C0FE010E945A212196C436D107C9F780
:04471000F894FFCF4B
:104714000107090202000501000101FF1932C81452
:10472400020300040000005606800000004000144C
:10473400005400050A0F142802050A14280A193225
:1047440064C8313233410034353642003738394396
:10475400002A302344001000200040008000FE00A6
:10476400FD00FB00F7000000000036029601C301C3
:104774008302F401D201E60100000000F806CB0632
:104784001508A106C406B106A206000000000D0A21
:104794009601150895010000000080079601150890
:1047A400A106DC07F40768070D0A005200504152C5
:1047B4004B20004F55205031004645205031004FCA
:1047C40055204142004645204142004F5520504F5C
:1047D40000464520504F004D414E5520004F552076
:1047E4005032004645205032004445504C41004D63
:1047F4004F544F4E00415458204D004154582041CD
:10480400004155544F20002020202020202020202B
:104814002020202020202020202020005441204936
:104824004E204558204C43204C4420434D440032F4
:104834005220334220354220322020322020504161
:10484400524B004F6B005031204F2E2E2E00503112
:10485400204F50454E00503120462E2E2E00503110
:1048640020436C6F7365004152550041525520211D
:104874002000415500300053C3A972696500506F90
:10488400736974696F6E00506F7274657300426F60
:1048940075746F6E0045727265757220706F7369FE
:1048A40074696F6E00503132204F2E2E2E0050311D
:1048B40032204F70656E00504F2300503220462E38
:1048C4002E2E0050313220462E2E2E00504623002C
:1048D400457272657572205061726B0050412300FD
:1048E4004465706C6163656D656E742061627269A4
:1048F4002E2E2E0041627269206665726DC3A90076
:1049040044462300444F230041627269206F757648
:104914006572740031323334006D006100700054EC
:104924004E005450004D61757661697320636F6465
:104934006500436F6465204F4B00502B00502D00E1
:10494400442B00442D004D41006D2B006D2D00645F
:104954006400322B00322D00412B00582B00582DBF
:1049640000412D00503F00443F00413F00702D00A6
:10497400702B004D3F00452B00452D00492B00496D
:104984002D00504100484F00484F2300464E00463A
:0E4994004E230045430045432300433F0000EF
:107800000C94343C0C94513C0C94513C0C94513CE1
:107810000C94513C0C94513C0C94513C0C94513CB4
:107820000C94513C0C94513C0C94513C0C94513CA4
:107830000C94513C0C94513C0C94513C0C94513C94
:107840000C94513C0C94513C0C94513C0C94513C84
:107850000C94513C0C94513C0C94513C0C94513C74
:107860000C94513C0C94513C11241FBECFEFD8E036
:10787000DEBFCDBF11E0A0E0B1E0ECE9FFE702C060
:1078800005900D92A230B107D9F712E0A2E0B1E065
:1078900001C01D92AD30B107E1F70E942D3D0C945F
:1078A000CC3F0C94003C982F959595959595959582
:1078B000905D8F708A307CF0282F295A8091C0000B
:1078C00085FFFCCF9093C6008091C00085FFFCCF60
:1078D0002093C6000895282F205DF0CF982F809127
:1078E000C00085FFFCCF9093C6000895EF92FF92F1
:1078F0000F931F93EE24FF2487018091C00087FD22
:1079000017C00894E11CF11C011D111D81E4E8164B
:1079100082E4F8068FE0080780E0180770F3E09132
:107920000401F091050109958091C00087FFE9CF1E
:107930008091C6001F910F91FF90EF9008950E94D3
:10794000763C982F8091C00085FFFCCF9093C600B5
:1079500091362CF490330CF09053892F089597555D
:10796000892F08951F930E949F3C182F0E949F3CCF
:107970001295107F810F1F9108951F93182F882350
:1079800021F00E94763C1150E1F71F9108951F935A
:10799000182F0E94763C803249F0809103018F5F5E
:1079A000809303018530C1F01F9108958091C0003C
:1079B00085FFFCCF84E18093C6008091C00085FFE5
:1079C000FCCF1093C6008091C00085FFFCCF80E102
:1079D0008093C6001F910895E0910401F091050184
:1079E00009951F9108950E94763C803241F0809164
:1079F00003018F5F80930301853081F008958091AA
:107A0000C00085FFFCCF84E18093C6008091C00058
:107A100085FFFCCF80E18093C6000895E0910401CA
:107A2000F09105010995089540E951E08823A1F0FE
:107A30002D9A28EE33E0FA013197F1F721503040CA
:107A4000D1F72D9828EE33E0FA013197F1F7215064
:107A50003040D1F7815061F708953F924F925F9285
:107A60006F927F928F929F92AF92BF92CF92DF924E
:107A7000EF92FF920F931F93CF93DF93000080E16B
:107A80008093C4001092C50088E18093C10086E015
:107A90008093C2005098589A259A81E00E94143D24
:107AA00024E1F22E9EE1E92E85E9D82E0FE0C02ECA
:107AB00010E1B12EAA24A394B1E49B2EA6E58A2E50
:107AC000F2E57F2EE0E26E2E79E4572E63E5462E36
:107AD00050E5352E0E94763C8033B1F18133B9F107
:107AE000803409F46FC0813409F476C0823409F41B
:107AF00085C0853409F488C0803531F1823521F1A3
:107B0000813511F1853509F485C0863509F48DC0BC
:107B1000843609F496C0843709F403C1853709F423
:107B200072C1863709F466C0809103018F5F80932C
:107B30000301853079F6E0910401F0910501099582
:107B40000E94763C803351F60E94F33CC3CF0E94E2
:107B5000763C803249F78091C00085FFFCCFF092DF
:107B6000C6008091C00085FFFCCF9092C600809136
:107B7000C00085FFFCCF8092C6008091C00085FFC9
:107B8000FCCF7092C6008091C00085FFFCCF609250
:107B9000C6008091C00085FFFCCF5092C600809146
:107BA000C00085FFFCCF4092C6008091C00085FFD9
:107BB000FCCF3092C6008091C00085FFFCCFB09210
:107BC000C60088CF0E94763C863808F4BDCF0E945C
:107BD000763C0E94F33C7ECF0E94763C803809F4CC
:107BE0009CC0813809F40BC1823809F43CC1883942
:107BF00009F48FC080E00E94C73C6CCF84E10E94F2
:107C0000BD3C0E94F33C66CF85E00E94BD3C0E94D3
:107C1000F33C60CF0E94763C809306010E94763C44
:107C2000809307010E94F33C55CF0E94763C80333D
:107C300009F41DC183E00E94BD3C80E00E94C73C66
:107C400049CF0E94763C809309020E94763C809343
:107C5000080280910C028E7F80930C020E94763C79
:107C6000853409F415C18091080290910902892B8D
:107C700089F000E010E00E94763CF801E85FFE4FDA
:107C800080830F5F1F4F80910802909109020817AF
:107C9000190788F30E94763C803209F045CF809125
:107CA0000C0280FF01C16091060170910701660F0F
:107CB000771F7093070160930601A0910802B091AD
:107CC00009021097C9F0E8E0F1E09B01AD014E0F09
:107CD0005F1FF999FECF32BD21BD819180BDFA9A17
:107CE000F99A2F5F3F4FE417F50799F76A0F7B1F4B
:107CF00070930701609306018091C00085FFFCCF5F
:107D0000F092C6008091C00085FFFCCFB092C60003
:107D1000E1CE83E00E94C73CDDCE82E00E94C73CFA
:107D2000D9CE0E94763C809309020E94763C8093D3
:107D300008028091060190910701880F991F909386
:107D40000701809306010E94763C853409F4A6C0A1
:107D500080910C028E7F80930C020E94763C8032D0
:107D600009F0B8CE8091C00085FFFCCFF092C6002C
:107D7000609108027091090261157105B9F140E046
:107D800050E080910C02A82FA170B82FB27011C0E2
:107D9000BB2309F45CC0E0910601F0910701319624
:107DA000F0930701E09306014F5F5F4F46175707B7
:107DB000E8F4AA2369F3F999FECF209106013091E6
:107DC000070132BD21BDF89A90B58091C00085FFB2
:107DD000FCCF9093C6002F5F3F4F30930701209355
:107DE00006014F5F5F4F4617570718F38091C00099
:107DF00085FDE5CE8091C00085FFF8CFE0CE81E023
:107E00000E94C73C67CE0E94763C803209F08CCE3F
:107E10008091C00085FFFCCFF092C6008091C00029
:107E200085FFFCCFE092C6008091C00085FFFCCFAB
:107E3000D092C6008091C00085FFFCCFC092C600E2
:107E40008091C00085FFFCCFB092C60043CEE09188
:107E50000601F091070194918091C00085FFFCCF4D
:107E60009093C6009CCF80E10E94C73C33CE0E9415
:107E7000763C0E94763C182F0E94763C112309F430
:107E800083C0113009F484C08FE00E94C73C22CE29
:107E900080910C02816080930C02E5CE80910C02EF
:107EA000816080930C0259CF809107018823880F4D
:107EB000880B8A2180930B02809106019091070123
:107EC000880F991F90930701809306018091080203
:107ED00080FF09C080910802909109020196909359
:107EE000090280930802F894F999FECF1127E091D6
:107EF0000601F0910701C8E0D1E08091080290915D
:107F00000902103091F40091570001700130D9F34B
:107F100003E000935700E89500915700017001308D
:107F2000D9F301E100935700E89509901990009169
:107F3000570001700130D9F301E000935700E89534
:107F40001395103498F011270091570001700130FB
:107F5000D9F305E000935700E895009157000170B0
:107F60000130D9F301E100935700E895329602976A
:107F700009F0C7CF103011F00296E5CF112480919F
:107F8000C00085FFB9CEBCCE8EE10E94C73CA2CD19
:0C7F900085E90E94C73C9ECDF894FFCF0D
:027F9C00800063
:040000030000780081
:00000001FF
